{
	"contracts/NFTMarketplacePart4.sol": {
		"NFTMarketplacePart4": {
			"abi": [
				{
					"anonymous": false,
					"inputs": [
						{
							"indexed": true,
							"internalType": "address",
							"name": "owner",
							"type": "address"
						},
						{
							"indexed": true,
							"internalType": "address",
							"name": "approved",
							"type": "address"
						},
						{
							"indexed": false,
							"internalType": "uint256",
							"name": "tokenId",
							"type": "uint256"
						}
					],
					"name": "Approval",
					"type": "event"
				},
				{
					"anonymous": false,
					"inputs": [
						{
							"indexed": true,
							"internalType": "address",
							"name": "owner",
							"type": "address"
						},
						{
							"indexed": true,
							"internalType": "address",
							"name": "operator",
							"type": "address"
						},
						{
							"indexed": false,
							"internalType": "bool",
							"name": "approved",
							"type": "bool"
						}
					],
					"name": "ApprovalForAll",
					"type": "event"
				},
				{
					"anonymous": false,
					"inputs": [
						{
							"indexed": false,
							"internalType": "uint256",
							"name": "newFee",
							"type": "uint256"
						}
					],
					"name": "ListingFeeUpdated",
					"type": "event"
				},
				{
					"anonymous": false,
					"inputs": [
						{
							"indexed": true,
							"internalType": "address",
							"name": "owner",
							"type": "address"
						},
						{
							"indexed": false,
							"internalType": "uint256",
							"name": "tokenId",
							"type": "uint256"
						},
						{
							"indexed": false,
							"internalType": "string",
							"name": "tokenURI",
							"type": "string"
						}
					],
					"name": "Minted",
					"type": "event"
				},
				{
					"anonymous": false,
					"inputs": [
						{
							"indexed": true,
							"internalType": "address",
							"name": "owner",
							"type": "address"
						},
						{
							"indexed": false,
							"internalType": "uint256",
							"name": "tokenId",
							"type": "uint256"
						},
						{
							"indexed": false,
							"internalType": "uint256",
							"name": "price",
							"type": "uint256"
						}
					],
					"name": "NFTListed",
					"type": "event"
				},
				{
					"anonymous": false,
					"inputs": [
						{
							"indexed": true,
							"internalType": "address",
							"name": "buyer",
							"type": "address"
						},
						{
							"indexed": false,
							"internalType": "uint256",
							"name": "tokenId",
							"type": "uint256"
						},
						{
							"indexed": false,
							"internalType": "uint256",
							"name": "price",
							"type": "uint256"
						}
					],
					"name": "NFTSold",
					"type": "event"
				},
				{
					"anonymous": false,
					"inputs": [
						{
							"indexed": true,
							"internalType": "address",
							"name": "user",
							"type": "address"
						},
						{
							"indexed": false,
							"internalType": "uint256",
							"name": "tokenId",
							"type": "uint256"
						}
					],
					"name": "NFTStaked",
					"type": "event"
				},
				{
					"anonymous": false,
					"inputs": [
						{
							"indexed": false,
							"internalType": "uint256",
							"name": "tokenId",
							"type": "uint256"
						}
					],
					"name": "NFTUnlisted",
					"type": "event"
				},
				{
					"anonymous": false,
					"inputs": [
						{
							"indexed": true,
							"internalType": "address",
							"name": "user",
							"type": "address"
						},
						{
							"indexed": false,
							"internalType": "uint256",
							"name": "tokenId",
							"type": "uint256"
						}
					],
					"name": "NFTUnstaked",
					"type": "event"
				},
				{
					"anonymous": false,
					"inputs": [
						{
							"indexed": false,
							"internalType": "uint256",
							"name": "newFee",
							"type": "uint256"
						}
					],
					"name": "SaleFeeUpdated",
					"type": "event"
				},
				{
					"inputs": [],
					"name": "burnAddress",
					"outputs": [
						{
							"internalType": "address",
							"name": "",
							"type": "address"
						}
					],
					"stateMutability": "view",
					"type": "function"
				},
				{
					"inputs": [
						{
							"internalType": "uint256",
							"name": "tokenId",
							"type": "uint256"
						}
					],
					"name": "buyNFT",
					"outputs": [],
					"stateMutability": "nonpayable",
					"type": "function"
				},
				{
					"inputs": [],
					"name": "dao",
					"outputs": [
						{
							"internalType": "address",
							"name": "",
							"type": "address"
						}
					],
					"stateMutability": "view",
					"type": "function"
				},
				{
					"inputs": [],
					"name": "devWallet",
					"outputs": [
						{
							"internalType": "address",
							"name": "",
							"type": "address"
						}
					],
					"stateMutability": "view",
					"type": "function"
				},
				{
					"inputs": [
						{
							"internalType": "address",
							"name": "_dao",
							"type": "address"
						},
						{
							"internalType": "address",
							"name": "_devWallet",
							"type": "address"
						},
						{
							"internalType": "address",
							"name": "_rhemToken",
							"type": "address"
						},
						{
							"internalType": "address",
							"name": "_burnAddress",
							"type": "address"
						}
					],
					"name": "initializeMarketplace",
					"outputs": [],
					"stateMutability": "nonpayable",
					"type": "function"
				},
				{
					"inputs": [
						{
							"internalType": "uint256",
							"name": "tokenId",
							"type": "uint256"
						},
						{
							"internalType": "uint256",
							"name": "price",
							"type": "uint256"
						}
					],
					"name": "listNFT",
					"outputs": [],
					"stateMutability": "nonpayable",
					"type": "function"
				},
				{
					"inputs": [],
					"name": "listingFee",
					"outputs": [
						{
							"internalType": "uint256",
							"name": "",
							"type": "uint256"
						}
					],
					"stateMutability": "view",
					"type": "function"
				},
				{
					"inputs": [
						{
							"internalType": "uint256",
							"name": "",
							"type": "uint256"
						}
					],
					"name": "listings",
					"outputs": [
						{
							"internalType": "uint256",
							"name": "price",
							"type": "uint256"
						},
						{
							"internalType": "address",
							"name": "owner",
							"type": "address"
						},
						{
							"internalType": "bool",
							"name": "listed",
							"type": "bool"
						}
					],
					"stateMutability": "view",
					"type": "function"
				},
				{
					"inputs": [
						{
							"internalType": "uint256",
							"name": "",
							"type": "uint256"
						}
					],
					"name": "nfts",
					"outputs": [
						{
							"internalType": "address",
							"name": "owner",
							"type": "address"
						},
						{
							"internalType": "string",
							"name": "tokenURI",
							"type": "string"
						},
						{
							"internalType": "bool",
							"name": "listed",
							"type": "bool"
						}
					],
					"stateMutability": "view",
					"type": "function"
				},
				{
					"inputs": [
						{
							"internalType": "address",
							"name": "",
							"type": "address"
						},
						{
							"internalType": "uint256",
							"name": "",
							"type": "uint256"
						}
					],
					"name": "ownedNFTs",
					"outputs": [
						{
							"internalType": "uint256",
							"name": "",
							"type": "uint256"
						}
					],
					"stateMutability": "view",
					"type": "function"
				},
				{
					"inputs": [],
					"name": "rhemToken",
					"outputs": [
						{
							"internalType": "contract IERC20",
							"name": "",
							"type": "address"
						}
					],
					"stateMutability": "view",
					"type": "function"
				},
				{
					"inputs": [],
					"name": "saleFee",
					"outputs": [
						{
							"internalType": "uint256",
							"name": "",
							"type": "uint256"
						}
					],
					"stateMutability": "view",
					"type": "function"
				},
				{
					"inputs": [
						{
							"internalType": "uint256",
							"name": "_fee",
							"type": "uint256"
						}
					],
					"name": "setListingFee",
					"outputs": [],
					"stateMutability": "nonpayable",
					"type": "function"
				},
				{
					"inputs": [
						{
							"internalType": "uint256",
							"name": "_fee",
							"type": "uint256"
						}
					],
					"name": "setSaleFee",
					"outputs": [],
					"stateMutability": "nonpayable",
					"type": "function"
				},
				{
					"inputs": [
						{
							"internalType": "uint256",
							"name": "tokenId",
							"type": "uint256"
						}
					],
					"name": "stakeNFT",
					"outputs": [],
					"stateMutability": "nonpayable",
					"type": "function"
				},
				{
					"inputs": [
						{
							"internalType": "uint256",
							"name": "",
							"type": "uint256"
						}
					],
					"name": "stakedNFTs",
					"outputs": [
						{
							"internalType": "bool",
							"name": "",
							"type": "bool"
						}
					],
					"stateMutability": "view",
					"type": "function"
				},
				{
					"inputs": [
						{
							"internalType": "uint256",
							"name": "tokenId",
							"type": "uint256"
						}
					],
					"name": "unlistNFT",
					"outputs": [],
					"stateMutability": "nonpayable",
					"type": "function"
				},
				{
					"inputs": [
						{
							"internalType": "uint256",
							"name": "tokenId",
							"type": "uint256"
						}
					],
					"name": "unstakeNFT",
					"outputs": [],
					"stateMutability": "nonpayable",
					"type": "function"
				},
				{
					"inputs": [
						{
							"internalType": "address",
							"name": "",
							"type": "address"
						},
						{
							"internalType": "uint256",
							"name": "",
							"type": "uint256"
						}
					],
					"name": "userStakes",
					"outputs": [
						{
							"internalType": "uint256",
							"name": "",
							"type": "uint256"
						}
					],
					"stateMutability": "view",
					"type": "function"
				}
			],
			"devdoc": {
				"kind": "dev",
				"methods": {},
				"version": 1
			},
			"evm": {
				"assembly": "    /* \"contracts/NFTMarketplacePart4.sol\":740:6165  contract NFTMarketplacePart4 {... */\n  mstore(0x40, 0x80)\n  callvalue\n  dup1\n  iszero\n  tag_1\n  jumpi\n  revert(0x00, 0x00)\ntag_1:\n  pop\n  dataSize(sub_0)\n  dup1\n  dataOffset(sub_0)\n  0x00\n  codecopy\n  0x00\n  return\nstop\n\nsub_0: assembly {\n        /* \"contracts/NFTMarketplacePart4.sol\":740:6165  contract NFTMarketplacePart4 {... */\n      mstore(0x40, 0x80)\n      callvalue\n      dup1\n      iszero\n      tag_1\n      jumpi\n      revert(0x00, 0x00)\n    tag_1:\n      pop\n      jumpi(tag_2, lt(calldatasize, 0x04))\n      shr(0xe0, calldataload(0x00))\n      dup1\n      0x70d5ae05\n      gt\n      tag_22\n      jumpi\n      dup1\n      0xb5d5b5fa\n      gt\n      tag_23\n      jumpi\n      dup1\n      0xb5d5b5fa\n      eq\n      tag_17\n      jumpi\n      dup1\n      0xb865749d\n      eq\n      tag_18\n      jumpi\n      dup1\n      0xbdcafc55\n      eq\n      tag_19\n      jumpi\n      dup1\n      0xc1dfa0bb\n      eq\n      tag_20\n      jumpi\n      dup1\n      0xde74e57b\n      eq\n      tag_21\n      jumpi\n      revert(0x00, 0x00)\n    tag_23:\n      dup1\n      0x70d5ae05\n      eq\n      tag_12\n      jumpi\n      dup1\n      0x8ea5220f\n      eq\n      tag_13\n      jumpi\n      dup1\n      0x94383f14\n      eq\n      tag_14\n      jumpi\n      dup1\n      0x961f0944\n      eq\n      tag_15\n      jumpi\n      dup1\n      0xa6d74512\n      eq\n      tag_16\n      jumpi\n      revert(0x00, 0x00)\n    tag_22:\n      dup1\n      0x4162169f\n      gt\n      tag_24\n      jumpi\n      dup1\n      0x4162169f\n      eq\n      tag_7\n      jumpi\n      dup1\n      0x46fc852e\n      eq\n      tag_8\n      jumpi\n      dup1\n      0x51ed8288\n      eq\n      tag_9\n      jumpi\n      dup1\n      0x6a1b7ecc\n      eq\n      tag_10\n      jumpi\n      dup1\n      0x6eb604e0\n      eq\n      tag_11\n      jumpi\n      revert(0x00, 0x00)\n    tag_24:\n      dup1\n      0x131dbd09\n      eq\n      tag_3\n      jumpi\n      dup1\n      0x178021e3\n      eq\n      tag_4\n      jumpi\n      dup1\n      0x1a72b87d\n      eq\n      tag_5\n      jumpi\n      dup1\n      0x265aa621\n      eq\n      tag_6\n      jumpi\n    tag_2:\n      revert(0x00, 0x00)\n        /* \"contracts/NFTMarketplacePart4.sol\":3868:3997  function setListingFee(uint256 _fee) external onlyDAO {... */\n    tag_3:\n      tag_25\n      tag_26\n      calldatasize\n      0x04\n      tag_27\n      jump\t// in\n    tag_26:\n      tag_28\n      jump\t// in\n    tag_25:\n      stop\n        /* \"contracts/NFTMarketplacePart4.sol\":1179:1201  uint256 public saleFee */\n    tag_4:\n      tag_29\n      sload(0x0a)\n      dup2\n      jump\n    tag_29:\n      mload(0x40)\n        /* \"#utility.yul\":391:416   */\n      swap1\n      dup2\n      mstore\n        /* \"#utility.yul\":379:381   */\n      0x20\n        /* \"#utility.yul\":364:382   */\n      add\n        /* \"contracts/NFTMarketplacePart4.sol\":1179:1201  uint256 public saleFee */\n    tag_31:\n      mload(0x40)\n      dup1\n      swap2\n      sub\n      swap1\n      return\n        /* \"contracts/NFTMarketplacePart4.sol\":939:985  mapping(address => uint256[]) public ownedNFTs */\n    tag_5:\n      tag_29\n      tag_34\n      calldatasize\n      0x04\n      tag_35\n      jump\t// in\n    tag_34:\n      tag_36\n      jump\t// in\n        /* \"contracts/NFTMarketplacePart4.sol\":897:932  mapping(uint256 => NFT) public nfts */\n    tag_6:\n      tag_38\n      tag_39\n      calldatasize\n      0x04\n      tag_27\n      jump\t// in\n    tag_39:\n      tag_40\n      jump\t// in\n    tag_38:\n      mload(0x40)\n      tag_31\n      swap4\n      swap3\n      swap2\n      swap1\n      tag_42\n      jump\t// in\n        /* \"contracts/NFTMarketplacePart4.sol\":776:794  address public dao */\n    tag_7:\n      sload(0x00)\n      tag_43\n      swap1\n      sub(shl(0xa0, 0x01), 0x01)\n      and\n      dup2\n      jump\n    tag_43:\n      mload(0x40)\n      sub(shl(0xa0, 0x01), 0x01)\n        /* \"#utility.yul\":1678:1710   */\n      swap1\n      swap2\n      and\n        /* \"#utility.yul\":1660:1711   */\n      dup2\n      mstore\n        /* \"#utility.yul\":1648:1650   */\n      0x20\n        /* \"#utility.yul\":1633:1651   */\n      add\n        /* \"contracts/NFTMarketplacePart4.sol\":776:794  address public dao */\n      tag_31\n        /* \"#utility.yul\":1514:1717   */\n      jump\n        /* \"contracts/NFTMarketplacePart4.sol\":2310:2854  function initializeMarketplace(... */\n    tag_8:\n      tag_25\n      tag_48\n      calldatasize\n      0x04\n      tag_49\n      jump\t// in\n    tag_48:\n      tag_50\n      jump\t// in\n        /* \"contracts/NFTMarketplacePart4.sol\":4757:5695  function buyNFT(uint256 tokenId) external {... */\n    tag_9:\n      tag_25\n      tag_52\n      calldatasize\n      0x04\n      tag_27\n      jump\t// in\n    tag_52:\n      tag_53\n      jump\t// in\n        /* \"contracts/NFTMarketplacePart4.sol\":1147:1172  uint256 public listingFee */\n    tag_10:\n      tag_29\n      sload(0x09)\n      dup2\n      jump\n        /* \"contracts/NFTMarketplacePart4.sol\":2862:3172  function stakeNFT(uint256 tokenId) external {... */\n    tag_11:\n      tag_25\n      tag_58\n      calldatasize\n      0x04\n      tag_27\n      jump\t// in\n    tag_58:\n      tag_59\n      jump\t// in\n        /* \"contracts/NFTMarketplacePart4.sol\":832:858  address public burnAddress */\n    tag_12:\n      sload(0x02)\n      tag_43\n      swap1\n      sub(shl(0xa0, 0x01), 0x01)\n      and\n      dup2\n      jump\n        /* \"contracts/NFTMarketplacePart4.sol\":801:825  address public devWallet */\n    tag_13:\n      sload(0x01)\n      tag_43\n      swap1\n      sub(shl(0xa0, 0x01), 0x01)\n      and\n      dup2\n      jump\n        /* \"contracts/NFTMarketplacePart4.sol\":4133:4487  function listNFT(uint256 tokenId, uint256 price) external onlyOwnerOf(tokenId) {... */\n    tag_14:\n      tag_25\n      tag_67\n      calldatasize\n      0x04\n      tag_68\n      jump\t// in\n    tag_67:\n      tag_69\n      jump\t// in\n        /* \"contracts/NFTMarketplacePart4.sol\":4495:4749  function unlistNFT(uint256 tokenId) external onlyOwnerOf(tokenId) {... */\n    tag_15:\n      tag_25\n      tag_71\n      calldatasize\n      0x04\n      tag_27\n      jump\t// in\n    tag_71:\n      tag_72\n      jump\t// in\n        /* \"contracts/NFTMarketplacePart4.sol\":865:888  IERC20 public rhemToken */\n    tag_16:\n      sload(0x03)\n      tag_43\n      swap1\n      sub(shl(0xa0, 0x01), 0x01)\n      and\n      dup2\n      jump\n        /* \"contracts/NFTMarketplacePart4.sol\":1091:1138  mapping(address => uint256[]) public userStakes */\n    tag_17:\n      tag_29\n      tag_78\n      calldatasize\n      0x04\n      tag_35\n      jump\t// in\n    tag_78:\n      tag_79\n      jump\t// in\n        /* \"contracts/NFTMarketplacePart4.sol\":1042:1084  mapping(uint256 => bool) public stakedNFTs */\n    tag_18:\n      tag_81\n      tag_82\n      calldatasize\n      0x04\n      tag_27\n      jump\t// in\n    tag_82:\n      mstore(0x20, 0x07)\n      0x00\n      swap1\n      dup2\n      mstore\n      0x40\n      swap1\n      keccak256\n      sload\n      0xff\n      and\n      dup2\n      jump\n    tag_81:\n      mload(0x40)\n        /* \"#utility.yul\":2873:2887   */\n      swap1\n      iszero\n        /* \"#utility.yul\":2866:2888   */\n      iszero\n        /* \"#utility.yul\":2848:2889   */\n      dup2\n      mstore\n        /* \"#utility.yul\":2836:2838   */\n      0x20\n        /* \"#utility.yul\":2821:2839   */\n      add\n        /* \"contracts/NFTMarketplacePart4.sol\":1042:1084  mapping(uint256 => bool) public stakedNFTs */\n      tag_31\n        /* \"#utility.yul\":2708:2895   */\n      jump\n        /* \"contracts/NFTMarketplacePart4.sol\":4005:4125  function setSaleFee(uint256 _fee) external onlyDAO {... */\n    tag_19:\n      tag_25\n      tag_87\n      calldatasize\n      0x04\n      tag_27\n      jump\t// in\n    tag_87:\n      tag_88\n      jump\t// in\n        /* \"contracts/NFTMarketplacePart4.sol\":3180:3491  function unstakeNFT(uint256 tokenId) external {... */\n    tag_20:\n      tag_25\n      tag_90\n      calldatasize\n      0x04\n      tag_27\n      jump\t// in\n    tag_90:\n      tag_91\n      jump\t// in\n        /* \"contracts/NFTMarketplacePart4.sol\":992:1035  mapping(uint256 => Listing) public listings */\n    tag_21:\n      tag_92\n      tag_93\n      calldatasize\n      0x04\n      tag_27\n      jump\t// in\n    tag_93:\n      mstore(0x20, 0x06)\n      0x00\n      swap1\n      dup2\n      mstore\n      0x40\n      swap1\n      keccak256\n      dup1\n      sload\n      0x01\n      swap1\n      swap2\n      add\n      sload\n      sub(shl(0xa0, 0x01), 0x01)\n      dup2\n      and\n      swap1\n      shl(0xa0, 0x01)\n      swap1\n      div\n      0xff\n      and\n      dup4\n      jump\n    tag_92:\n      0x40\n      dup1\n      mload\n        /* \"#utility.yul\":3096:3121   */\n      swap4\n      dup5\n      mstore\n      sub(shl(0xa0, 0x01), 0x01)\n        /* \"#utility.yul\":3157:3189   */\n      swap1\n      swap3\n      and\n        /* \"#utility.yul\":3152:3154   */\n      0x20\n        /* \"#utility.yul\":3137:3155   */\n      dup5\n      add\n        /* \"#utility.yul\":3130:3190   */\n      mstore\n        /* \"#utility.yul\":3233:3247   */\n      iszero\n        /* \"#utility.yul\":3226:3248   */\n      iszero\n        /* \"#utility.yul\":3206:3224   */\n      swap1\n      dup3\n      add\n        /* \"#utility.yul\":3199:3249   */\n      mstore\n        /* \"#utility.yul\":3084:3086   */\n      0x60\n        /* \"#utility.yul\":3069:3087   */\n      add\n        /* \"contracts/NFTMarketplacePart4.sol\":992:1035  mapping(uint256 => Listing) public listings */\n      tag_31\n        /* \"#utility.yul\":2900:3255   */\n      jump\n        /* \"contracts/NFTMarketplacePart4.sol\":3868:3997  function setListingFee(uint256 _fee) external onlyDAO {... */\n    tag_28:\n        /* \"contracts/NFTMarketplacePart4.sol\":2124:2127  dao */\n      and(sub(shl(0xa0, 0x01), 0x01), sload(0x00))\n        /* \"contracts/NFTMarketplacePart4.sol\":2110:2120  msg.sender */\n      caller\n        /* \"contracts/NFTMarketplacePart4.sol\":2110:2127  msg.sender == dao */\n      eq\n        /* \"contracts/NFTMarketplacePart4.sol\":2102:2146  require(msg.sender == dao, \"Not authorized\") */\n      tag_98\n      jumpi\n      mload(0x40)\n      shl(0xe5, 0x461bcd)\n      dup2\n      mstore\n        /* \"#utility.yul\":3462:3464   */\n      0x20\n        /* \"contracts/NFTMarketplacePart4.sol\":2102:2146  require(msg.sender == dao, \"Not authorized\") */\n      0x04\n      dup3\n      add\n        /* \"#utility.yul\":3444:3465   */\n      mstore\n        /* \"#utility.yul\":3501:3503   */\n      0x0e\n        /* \"#utility.yul\":3481:3499   */\n      0x24\n      dup3\n      add\n        /* \"#utility.yul\":3474:3504   */\n      mstore\n      shl(0x92, 0x139bdd08185d5d1a1bdc9a5e9959)\n        /* \"#utility.yul\":3520:3538   */\n      0x44\n      dup3\n      add\n        /* \"#utility.yul\":3513:3557   */\n      mstore\n        /* \"#utility.yul\":3574:3592   */\n      0x64\n      add\n        /* \"contracts/NFTMarketplacePart4.sol\":2102:2146  require(msg.sender == dao, \"Not authorized\") */\n    tag_99:\n      mload(0x40)\n      dup1\n      swap2\n      sub\n      swap1\n      revert\n    tag_98:\n        /* \"contracts/NFTMarketplacePart4.sol\":3933:3943  listingFee */\n      0x09\n        /* \"contracts/NFTMarketplacePart4.sol\":3933:3950  listingFee = _fee */\n      dup2\n      swap1\n      sstore\n        /* \"contracts/NFTMarketplacePart4.sol\":3966:3989  ListingFeeUpdated(_fee) */\n      mload(0x40)\n        /* \"#utility.yul\":391:416   */\n      dup2\n      dup2\n      mstore\n        /* \"contracts/NFTMarketplacePart4.sol\":3966:3989  ListingFeeUpdated(_fee) */\n      0x5fb4654f1efe30c6141eaa6855ffcb27e0b361d899b05e21b1a4d0b3e71e14db\n      swap1\n        /* \"#utility.yul\":379:381   */\n      0x20\n        /* \"#utility.yul\":364:382   */\n      add\n        /* \"contracts/NFTMarketplacePart4.sol\":3966:3989  ListingFeeUpdated(_fee) */\n    tag_102:\n      mload(0x40)\n      dup1\n      swap2\n      sub\n      swap1\n      log1\n        /* \"contracts/NFTMarketplacePart4.sol\":3868:3997  function setListingFee(uint256 _fee) external onlyDAO {... */\n      pop\n      jump\t// out\n        /* \"contracts/NFTMarketplacePart4.sol\":939:985  mapping(address => uint256[]) public ownedNFTs */\n    tag_36:\n      mstore(0x20, 0x05)\n      dup2\n      0x00\n      mstore\n      keccak256(0x00, 0x40)\n      dup2\n      dup2\n      sload\n      dup2\n      lt\n      tag_103\n      jumpi\n      0x00\n      dup1\n      revert\n    tag_103:\n      swap1\n      0x00\n      mstore\n      keccak256(0x00, 0x20)\n      add\n      0x00\n      swap2\n      pop\n      swap2\n      pop\n      pop\n      sload\n      dup2\n      jump\t// out\n        /* \"contracts/NFTMarketplacePart4.sol\":897:932  mapping(uint256 => NFT) public nfts */\n    tag_40:\n      mstore(0x20, 0x04)\n      0x00\n      swap1\n      dup2\n      mstore\n      0x40\n      swap1\n      keccak256\n      dup1\n      sload\n      0x01\n      dup3\n      add\n      dup1\n      sload\n      sub(shl(0xa0, 0x01), 0x01)\n      swap1\n      swap3\n      and\n      swap3\n      swap2\n      tag_105\n      swap1\n      tag_106\n      jump\t// in\n    tag_105:\n      dup1\n      0x1f\n      add\n      0x20\n      dup1\n      swap2\n      div\n      mul\n      0x20\n      add\n      mload(0x40)\n      swap1\n      dup2\n      add\n      0x40\n      mstore\n      dup1\n      swap3\n      swap2\n      swap1\n      dup2\n      dup2\n      mstore\n      0x20\n      add\n      dup3\n      dup1\n      sload\n      tag_107\n      swap1\n      tag_106\n      jump\t// in\n    tag_107:\n      dup1\n      iszero\n      tag_108\n      jumpi\n      dup1\n      0x1f\n      lt\n      tag_109\n      jumpi\n      0x0100\n      dup1\n      dup4\n      sload\n      div\n      mul\n      dup4\n      mstore\n      swap2\n      0x20\n      add\n      swap2\n      jump(tag_108)\n    tag_109:\n      dup3\n      add\n      swap2\n      swap1\n      0x00\n      mstore\n      keccak256(0x00, 0x20)\n      swap1\n    tag_110:\n      dup2\n      sload\n      dup2\n      mstore\n      swap1\n      0x01\n      add\n      swap1\n      0x20\n      add\n      dup1\n      dup4\n      gt\n      tag_110\n      jumpi\n      dup3\n      swap1\n      sub\n      0x1f\n      and\n      dup3\n      add\n      swap2\n    tag_108:\n      pop\n      pop\n      pop\n      0x02\n      swap1\n      swap4\n      add\n      sload\n      swap2\n      swap3\n      pop\n      pop\n      0xff\n      and\n      dup4\n      jump\t// out\n        /* \"contracts/NFTMarketplacePart4.sol\":2310:2854  function initializeMarketplace(... */\n    tag_50:\n        /* \"contracts/NFTMarketplacePart4.sol\":2501:2502  0 */\n      0x00\n        /* \"contracts/NFTMarketplacePart4.sol\":2486:2489  dao */\n      sload\n      sub(shl(0xa0, 0x01), 0x01)\n      and\n        /* \"contracts/NFTMarketplacePart4.sol\":2486:2503  dao == address(0) */\n      iszero\n        /* \"contracts/NFTMarketplacePart4.sol\":2478:2527  require(dao == address(0), \"Already initialized\") */\n      tag_112\n      jumpi\n      mload(0x40)\n      shl(0xe5, 0x461bcd)\n      dup2\n      mstore\n        /* \"#utility.yul\":4190:4192   */\n      0x20\n        /* \"contracts/NFTMarketplacePart4.sol\":2478:2527  require(dao == address(0), \"Already initialized\") */\n      0x04\n      dup3\n      add\n        /* \"#utility.yul\":4172:4193   */\n      mstore\n        /* \"#utility.yul\":4229:4231   */\n      0x13\n        /* \"#utility.yul\":4209:4227   */\n      0x24\n      dup3\n      add\n        /* \"#utility.yul\":4202:4232   */\n      mstore\n      shl(0x6a, 0x105b1c9958591e481a5b9a5d1a585b1a5e9959)\n        /* \"#utility.yul\":4248:4266   */\n      0x44\n      dup3\n      add\n        /* \"#utility.yul\":4241:4290   */\n      mstore\n        /* \"#utility.yul\":4307:4325   */\n      0x64\n      add\n        /* \"contracts/NFTMarketplacePart4.sol\":2478:2527  require(dao == address(0), \"Already initialized\") */\n      tag_99\n        /* \"#utility.yul\":3988:4331   */\n      jump\n        /* \"contracts/NFTMarketplacePart4.sol\":2478:2527  require(dao == address(0), \"Already initialized\") */\n    tag_112:\n      sub(shl(0xa0, 0x01), 0x01)\n        /* \"contracts/NFTMarketplacePart4.sol\":2546:2564  _dao != address(0) */\n      dup5\n      and\n        /* \"contracts/NFTMarketplacePart4.sol\":2538:2580  require(_dao != address(0), \"Invalid DAO\") */\n      tag_115\n      jumpi\n      mload(0x40)\n      shl(0xe5, 0x461bcd)\n      dup2\n      mstore\n        /* \"#utility.yul\":4538:4540   */\n      0x20\n        /* \"contracts/NFTMarketplacePart4.sol\":2538:2580  require(_dao != address(0), \"Invalid DAO\") */\n      0x04\n      dup3\n      add\n        /* \"#utility.yul\":4520:4541   */\n      mstore\n        /* \"#utility.yul\":4577:4579   */\n      0x0b\n        /* \"#utility.yul\":4557:4575   */\n      0x24\n      dup3\n      add\n        /* \"#utility.yul\":4550:4580   */\n      mstore\n      shl(0xa8, 0x496e76616c69642044414f)\n        /* \"#utility.yul\":4596:4614   */\n      0x44\n      dup3\n      add\n        /* \"#utility.yul\":4589:4630   */\n      mstore\n        /* \"#utility.yul\":4647:4665   */\n      0x64\n      add\n        /* \"contracts/NFTMarketplacePart4.sol\":2538:2580  require(_dao != address(0), \"Invalid DAO\") */\n      tag_99\n        /* \"#utility.yul\":4336:4671   */\n      jump\n        /* \"contracts/NFTMarketplacePart4.sol\":2538:2580  require(_dao != address(0), \"Invalid DAO\") */\n    tag_115:\n      sub(shl(0xa0, 0x01), 0x01)\n        /* \"contracts/NFTMarketplacePart4.sol\":2599:2623  _devWallet != address(0) */\n      dup4\n      and\n        /* \"contracts/NFTMarketplacePart4.sol\":2591:2646  require(_devWallet != address(0), \"Invalid dev wallet\") */\n      tag_118\n      jumpi\n      mload(0x40)\n      shl(0xe5, 0x461bcd)\n      dup2\n      mstore\n        /* \"#utility.yul\":4878:4880   */\n      0x20\n        /* \"contracts/NFTMarketplacePart4.sol\":2591:2646  require(_devWallet != address(0), \"Invalid dev wallet\") */\n      0x04\n      dup3\n      add\n        /* \"#utility.yul\":4860:4881   */\n      mstore\n        /* \"#utility.yul\":4917:4919   */\n      0x12\n        /* \"#utility.yul\":4897:4915   */\n      0x24\n      dup3\n      add\n        /* \"#utility.yul\":4890:4920   */\n      mstore\n      shl(0x72, 0x125b9d985b1a590819195d881dd85b1b195d)\n        /* \"#utility.yul\":4936:4954   */\n      0x44\n      dup3\n      add\n        /* \"#utility.yul\":4929:4977   */\n      mstore\n        /* \"#utility.yul\":4994:5012   */\n      0x64\n      add\n        /* \"contracts/NFTMarketplacePart4.sol\":2591:2646  require(_devWallet != address(0), \"Invalid dev wallet\") */\n      tag_99\n        /* \"#utility.yul\":4676:5018   */\n      jump\n        /* \"contracts/NFTMarketplacePart4.sol\":2591:2646  require(_devWallet != address(0), \"Invalid dev wallet\") */\n    tag_118:\n      sub(shl(0xa0, 0x01), 0x01)\n        /* \"contracts/NFTMarketplacePart4.sol\":2665:2689  _rhemToken != address(0) */\n      dup3\n      and\n        /* \"contracts/NFTMarketplacePart4.sol\":2657:2712  require(_rhemToken != address(0), \"Invalid RHEM token\") */\n      tag_121\n      jumpi\n      mload(0x40)\n      shl(0xe5, 0x461bcd)\n      dup2\n      mstore\n        /* \"#utility.yul\":5225:5227   */\n      0x20\n        /* \"contracts/NFTMarketplacePart4.sol\":2657:2712  require(_rhemToken != address(0), \"Invalid RHEM token\") */\n      0x04\n      dup3\n      add\n        /* \"#utility.yul\":5207:5228   */\n      mstore\n        /* \"#utility.yul\":5264:5266   */\n      0x12\n        /* \"#utility.yul\":5244:5262   */\n      0x24\n      dup3\n      add\n        /* \"#utility.yul\":5237:5267   */\n      mstore\n      shl(0x71, 0x24b73b30b634b210292422a6903a37b5b2b7)\n        /* \"#utility.yul\":5283:5301   */\n      0x44\n      dup3\n      add\n        /* \"#utility.yul\":5276:5324   */\n      mstore\n        /* \"#utility.yul\":5341:5359   */\n      0x64\n      add\n        /* \"contracts/NFTMarketplacePart4.sol\":2657:2712  require(_rhemToken != address(0), \"Invalid RHEM token\") */\n      tag_99\n        /* \"#utility.yul\":5023:5365   */\n      jump\n        /* \"contracts/NFTMarketplacePart4.sol\":2657:2712  require(_rhemToken != address(0), \"Invalid RHEM token\") */\n    tag_121:\n        /* \"contracts/NFTMarketplacePart4.sol\":2725:2728  dao */\n      0x00\n        /* \"contracts/NFTMarketplacePart4.sol\":2725:2735  dao = _dao */\n      dup1\n      sload\n      sub(shl(0xa0, 0x01), 0x01)\n      swap6\n      dup7\n      and\n      not(sub(shl(0xa0, 0x01), 0x01))\n      swap2\n      dup3\n      and\n      or\n      swap1\n      swap2\n      sstore\n      0x01\n        /* \"contracts/NFTMarketplacePart4.sol\":2746:2768  devWallet = _devWallet */\n      dup1\n      sload\n      swap5\n      dup7\n      and\n      swap5\n      dup3\n      and\n      swap5\n      swap1\n      swap5\n      or\n      swap1\n      swap4\n      sstore\n        /* \"contracts/NFTMarketplacePart4.sol\":2779:2788  rhemToken */\n      0x03\n        /* \"contracts/NFTMarketplacePart4.sol\":2779:2809  rhemToken = IERC20(_rhemToken) */\n      dup1\n      sload\n      swap3\n      dup6\n      and\n      swap3\n      dup5\n      and\n      swap3\n      swap1\n      swap3\n      or\n      swap1\n      swap2\n      sstore\n        /* \"contracts/NFTMarketplacePart4.sol\":2820:2831  burnAddress */\n      0x02\n        /* \"contracts/NFTMarketplacePart4.sol\":2820:2846  burnAddress = _burnAddress */\n      dup1\n      sload\n      swap2\n      swap1\n      swap4\n      and\n      swap2\n      and\n      or\n      swap1\n      sstore\n        /* \"contracts/NFTMarketplacePart4.sol\":2310:2854  function initializeMarketplace(... */\n      jump\t// out\n        /* \"contracts/NFTMarketplacePart4.sol\":4757:5695  function buyNFT(uint256 tokenId) external {... */\n    tag_53:\n        /* \"contracts/NFTMarketplacePart4.sol\":4810:4832  Listing memory listing */\n      0x00\n        /* \"contracts/NFTMarketplacePart4.sol\":4835:4852  listings[tokenId] */\n      dup2\n      dup2\n      mstore\n        /* \"contracts/NFTMarketplacePart4.sol\":4835:4843  listings */\n      0x06\n        /* \"contracts/NFTMarketplacePart4.sol\":4835:4852  listings[tokenId] */\n      0x20\n      swap1\n      dup2\n      mstore\n      0x40\n      swap2\n      dup3\n      swap1\n      keccak256\n        /* \"contracts/NFTMarketplacePart4.sol\":4810:4852  Listing memory listing = listings[tokenId] */\n      dup3\n      mload\n      0x60\n      dup2\n      add\n      dup5\n      mstore\n      dup2\n      sload\n      dup2\n      mstore\n      0x01\n      swap1\n      swap2\n      add\n      sload\n      sub(shl(0xa0, 0x01), 0x01)\n      dup2\n      and\n      swap3\n      dup3\n      add\n      swap3\n      swap1\n      swap3\n      mstore\n      shl(0xa0, 0x01)\n      swap1\n      swap2\n      div\n      0xff\n      and\n      iszero\n      iszero\n      swap2\n      dup2\n      add\n      dup3\n      swap1\n      mstore\n      swap1\n        /* \"contracts/NFTMarketplacePart4.sol\":4863:4900  require(listing.listed, \"Not listed\") */\n      tag_125\n      jumpi\n      mload(0x40)\n      shl(0xe5, 0x461bcd)\n      dup2\n      mstore\n        /* \"#utility.yul\":5572:5574   */\n      0x20\n        /* \"contracts/NFTMarketplacePart4.sol\":4863:4900  require(listing.listed, \"Not listed\") */\n      0x04\n      dup3\n      add\n        /* \"#utility.yul\":5554:5575   */\n      mstore\n        /* \"#utility.yul\":5611:5613   */\n      0x0a\n        /* \"#utility.yul\":5591:5609   */\n      0x24\n      dup3\n      add\n        /* \"#utility.yul\":5584:5614   */\n      mstore\n      shl(0xb2, 0x139bdd081b1a5cdd1959)\n        /* \"#utility.yul\":5630:5648   */\n      0x44\n      dup3\n      add\n        /* \"#utility.yul\":5623:5663   */\n      mstore\n        /* \"#utility.yul\":5680:5698   */\n      0x64\n      add\n        /* \"contracts/NFTMarketplacePart4.sol\":4863:4900  require(listing.listed, \"Not listed\") */\n      tag_99\n        /* \"#utility.yul\":5370:5704   */\n      jump\n        /* \"contracts/NFTMarketplacePart4.sol\":4863:4900  require(listing.listed, \"Not listed\") */\n    tag_125:\n        /* \"contracts/NFTMarketplacePart4.sol\":4929:4942  listing.price */\n      dup1\n      mload\n        /* \"contracts/NFTMarketplacePart4.sol\":4913:4926  uint256 price */\n      0x00\n        /* \"contracts/NFTMarketplacePart4.sol\":4989:4994  10000 */\n      0x2710\n        /* \"contracts/NFTMarketplacePart4.sol\":4975:4985  price * 50 */\n      tag_128\n        /* \"contracts/NFTMarketplacePart4.sol\":4929:4942  listing.price */\n      dup4\n        /* \"contracts/NFTMarketplacePart4.sol\":4983:4985  50 */\n      0x32\n        /* \"contracts/NFTMarketplacePart4.sol\":4975:4985  price * 50 */\n      tag_129\n      jump\t// in\n    tag_128:\n        /* \"contracts/NFTMarketplacePart4.sol\":4974:4994  (price * 50) / 10000 */\n      tag_130\n      swap2\n      swap1\n      tag_131\n      jump\t// in\n    tag_130:\n        /* \"contracts/NFTMarketplacePart4.sol\":4953:4994  uint256 burnAmount = (price * 50) / 10000 */\n      swap1\n      pop\n        /* \"contracts/NFTMarketplacePart4.sol\":5016:5033  uint256 devAmount */\n      0x00\n        /* \"contracts/NFTMarketplacePart4.sol\":5051:5056  10000 */\n      0x2710\n        /* \"contracts/NFTMarketplacePart4.sol\":5037:5047  price * 25 */\n      tag_132\n        /* \"contracts/NFTMarketplacePart4.sol\":5037:5042  price */\n      dup5\n        /* \"contracts/NFTMarketplacePart4.sol\":5045:5047  25 */\n      0x19\n        /* \"contracts/NFTMarketplacePart4.sol\":5037:5047  price * 25 */\n      tag_129\n      jump\t// in\n    tag_132:\n        /* \"contracts/NFTMarketplacePart4.sol\":5036:5056  (price * 25) / 10000 */\n      tag_133\n      swap2\n      swap1\n      tag_131\n      jump\t// in\n    tag_133:\n        /* \"contracts/NFTMarketplacePart4.sol\":5016:5056  uint256 devAmount = (price * 25) / 10000 */\n      swap1\n      pop\n        /* \"contracts/NFTMarketplacePart4.sol\":5080:5100  uint256 sellerAmount */\n      0x00\n        /* \"contracts/NFTMarketplacePart4.sol\":5016:5056  uint256 devAmount = (price * 25) / 10000 */\n      dup2\n        /* \"contracts/NFTMarketplacePart4.sol\":5103:5121  price - burnAmount */\n      tag_134\n        /* \"contracts/NFTMarketplacePart4.sol\":5111:5121  burnAmount */\n      dup5\n        /* \"contracts/NFTMarketplacePart4.sol\":5103:5108  price */\n      dup7\n        /* \"contracts/NFTMarketplacePart4.sol\":5103:5121  price - burnAmount */\n      tag_135\n      jump\t// in\n    tag_134:\n        /* \"contracts/NFTMarketplacePart4.sol\":5103:5133  price - burnAmount - devAmount */\n      tag_136\n      swap2\n      swap1\n      tag_135\n      jump\t// in\n    tag_136:\n        /* \"contracts/NFTMarketplacePart4.sol\":5154:5163  rhemToken */\n      sload(0x03)\n        /* \"contracts/NFTMarketplacePart4.sol\":5154:5210  rhemToken.transferFrom(msg.sender, address(this), price) */\n      mload(0x40)\n      shl(0xe0, 0x23b872dd)\n      dup2\n      mstore\n        /* \"contracts/NFTMarketplacePart4.sol\":5177:5187  msg.sender */\n      caller\n        /* \"contracts/NFTMarketplacePart4.sol\":5154:5210  rhemToken.transferFrom(msg.sender, address(this), price) */\n      0x04\n      dup3\n      add\n        /* \"#utility.yul\":6571:6622   */\n      mstore\n        /* \"contracts/NFTMarketplacePart4.sol\":5197:5201  this */\n      address\n        /* \"#utility.yul\":6638:6656   */\n      0x24\n      dup3\n      add\n        /* \"#utility.yul\":6631:6691   */\n      mstore\n        /* \"#utility.yul\":6707:6725   */\n      0x44\n      dup2\n      add\n        /* \"#utility.yul\":6700:6734   */\n      dup8\n      swap1\n      mstore\n        /* \"contracts/NFTMarketplacePart4.sol\":5080:5133  uint256 sellerAmount = price - burnAmount - devAmount */\n      swap2\n      swap3\n      pop\n      sub(shl(0xa0, 0x01), 0x01)\n        /* \"contracts/NFTMarketplacePart4.sol\":5154:5163  rhemToken */\n      and\n      swap1\n        /* \"contracts/NFTMarketplacePart4.sol\":5154:5176  rhemToken.transferFrom */\n      0x23b872dd\n      swap1\n        /* \"#utility.yul\":6544:6562   */\n      0x64\n      add\n        /* \"contracts/NFTMarketplacePart4.sol\":5154:5210  rhemToken.transferFrom(msg.sender, address(this), price) */\n      0x20\n      mload(0x40)\n      dup1\n      dup4\n      sub\n      dup2\n      0x00\n      dup8\n      gas\n      call\n      iszero\n      dup1\n      iszero\n      tag_140\n      jumpi\n      returndatacopy(0x00, 0x00, returndatasize)\n      revert(0x00, returndatasize)\n    tag_140:\n      pop\n      pop\n      pop\n      pop\n      mload(0x40)\n      returndatasize\n      not(0x1f)\n      0x1f\n      dup3\n      add\n      and\n      dup3\n      add\n      dup1\n      0x40\n      mstore\n      pop\n      dup2\n      add\n      swap1\n      tag_141\n      swap2\n      swap1\n      tag_142\n      jump\t// in\n    tag_141:\n        /* \"contracts/NFTMarketplacePart4.sol\":5146:5229  require(rhemToken.transferFrom(msg.sender, address(this), price), \"Payment failed\") */\n      tag_143\n      jumpi\n      mload(0x40)\n      shl(0xe5, 0x461bcd)\n      dup2\n      mstore\n        /* \"#utility.yul\":7229:7231   */\n      0x20\n        /* \"contracts/NFTMarketplacePart4.sol\":5146:5229  require(rhemToken.transferFrom(msg.sender, address(this), price), \"Payment failed\") */\n      0x04\n      dup3\n      add\n        /* \"#utility.yul\":7211:7232   */\n      mstore\n        /* \"#utility.yul\":7268:7270   */\n      0x0e\n        /* \"#utility.yul\":7248:7266   */\n      0x24\n      dup3\n      add\n        /* \"#utility.yul\":7241:7271   */\n      mstore\n      shl(0x92, 0x14185e5b595b9d0819985a5b1959)\n        /* \"#utility.yul\":7287:7305   */\n      0x44\n      dup3\n      add\n        /* \"#utility.yul\":7280:7324   */\n      mstore\n        /* \"#utility.yul\":7341:7359   */\n      0x64\n      add\n        /* \"contracts/NFTMarketplacePart4.sol\":5146:5229  require(rhemToken.transferFrom(msg.sender, address(this), price), \"Payment failed\") */\n      tag_99\n        /* \"#utility.yul\":7027:7365   */\n      jump\n        /* \"contracts/NFTMarketplacePart4.sol\":5146:5229  require(rhemToken.transferFrom(msg.sender, address(this), price), \"Payment failed\") */\n    tag_143:\n        /* \"contracts/NFTMarketplacePart4.sol\":5248:5257  rhemToken */\n      sload(0x03)\n      0x00\n        /* \"contracts/NFTMarketplacePart4.sol\":5267:5280  nfts[tokenId] */\n      dup8\n      dup2\n      mstore\n        /* \"contracts/NFTMarketplacePart4.sol\":5267:5271  nfts */\n      0x04\n        /* \"contracts/NFTMarketplacePart4.sol\":5267:5280  nfts[tokenId] */\n      0x20\n      dup2\n      swap1\n      mstore\n      0x40\n      swap2\n      dup3\n      swap1\n      keccak256\n        /* \"contracts/NFTMarketplacePart4.sol\":5267:5286  nfts[tokenId].owner */\n      sload\n        /* \"contracts/NFTMarketplacePart4.sol\":5248:5301  rhemToken.transfer(nfts[tokenId].owner, sellerAmount) */\n      swap2\n      mload\n      shl(0xe0, 0xa9059cbb)\n      dup2\n      mstore\n      sub(shl(0xa0, 0x01), 0x01)\n        /* \"contracts/NFTMarketplacePart4.sol\":5267:5286  nfts[tokenId].owner */\n      swap3\n      dup4\n      and\n        /* \"contracts/NFTMarketplacePart4.sol\":5248:5301  rhemToken.transfer(nfts[tokenId].owner, sellerAmount) */\n      swap2\n      dup2\n      add\n        /* \"#utility.yul\":7544:7595   */\n      swap2\n      swap1\n      swap2\n      mstore\n        /* \"#utility.yul\":7611:7629   */\n      0x24\n      dup2\n      add\n        /* \"#utility.yul\":7604:7638   */\n      dup5\n      swap1\n      mstore\n        /* \"contracts/NFTMarketplacePart4.sol\":5248:5257  rhemToken */\n      swap2\n      and\n      swap1\n        /* \"contracts/NFTMarketplacePart4.sol\":5248:5266  rhemToken.transfer */\n      0xa9059cbb\n      swap1\n        /* \"#utility.yul\":7517:7535   */\n      0x44\n      add\n        /* \"contracts/NFTMarketplacePart4.sol\":5248:5301  rhemToken.transfer(nfts[tokenId].owner, sellerAmount) */\n      0x20\n      mload(0x40)\n      dup1\n      dup4\n      sub\n      dup2\n      0x00\n      dup8\n      gas\n      call\n      iszero\n      dup1\n      iszero\n      tag_149\n      jumpi\n      returndatacopy(0x00, 0x00, returndatasize)\n      revert(0x00, returndatasize)\n    tag_149:\n      pop\n      pop\n      pop\n      pop\n      mload(0x40)\n      returndatasize\n      not(0x1f)\n      0x1f\n      dup3\n      add\n      and\n      dup3\n      add\n      dup1\n      0x40\n      mstore\n      pop\n      dup2\n      add\n      swap1\n      tag_150\n      swap2\n      swap1\n      tag_142\n      jump\t// in\n    tag_150:\n        /* \"contracts/NFTMarketplacePart4.sol\":5240:5327  require(rhemToken.transfer(nfts[tokenId].owner, sellerAmount), \"Seller payment failed\") */\n      tag_151\n      jumpi\n      mload(0x40)\n      shl(0xe5, 0x461bcd)\n      dup2\n      mstore\n        /* \"#utility.yul\":7851:7853   */\n      0x20\n        /* \"contracts/NFTMarketplacePart4.sol\":5240:5327  require(rhemToken.transfer(nfts[tokenId].owner, sellerAmount), \"Seller payment failed\") */\n      0x04\n      dup3\n      add\n        /* \"#utility.yul\":7833:7854   */\n      mstore\n        /* \"#utility.yul\":7890:7892   */\n      0x15\n        /* \"#utility.yul\":7870:7888   */\n      0x24\n      dup3\n      add\n        /* \"#utility.yul\":7863:7893   */\n      mstore\n      shl(0x5a, 0x14d95b1b195c881c185e5b595b9d0819985a5b1959)\n        /* \"#utility.yul\":7909:7927   */\n      0x44\n      dup3\n      add\n        /* \"#utility.yul\":7902:7953   */\n      mstore\n        /* \"#utility.yul\":7970:7988   */\n      0x64\n      add\n        /* \"contracts/NFTMarketplacePart4.sol\":5240:5327  require(rhemToken.transfer(nfts[tokenId].owner, sellerAmount), \"Seller payment failed\") */\n      tag_99\n        /* \"#utility.yul\":7649:7994   */\n      jump\n        /* \"contracts/NFTMarketplacePart4.sol\":5240:5327  require(rhemToken.transfer(nfts[tokenId].owner, sellerAmount), \"Seller payment failed\") */\n    tag_151:\n        /* \"contracts/NFTMarketplacePart4.sol\":5346:5355  rhemToken */\n      sload(0x03)\n        /* \"contracts/NFTMarketplacePart4.sol\":5365:5376  burnAddress */\n      sload(0x02)\n        /* \"contracts/NFTMarketplacePart4.sol\":5346:5389  rhemToken.transfer(burnAddress, burnAmount) */\n      mload(0x40)\n      shl(0xe0, 0xa9059cbb)\n      dup2\n      mstore\n      sub(shl(0xa0, 0x01), 0x01)\n        /* \"contracts/NFTMarketplacePart4.sol\":5365:5376  burnAddress */\n      swap2\n      dup3\n      and\n        /* \"contracts/NFTMarketplacePart4.sol\":5346:5389  rhemToken.transfer(burnAddress, burnAmount) */\n      0x04\n      dup3\n      add\n        /* \"#utility.yul\":7544:7595   */\n      mstore\n        /* \"#utility.yul\":7611:7629   */\n      0x24\n      dup2\n      add\n        /* \"#utility.yul\":7604:7638   */\n      dup7\n      swap1\n      mstore\n        /* \"contracts/NFTMarketplacePart4.sol\":5346:5355  rhemToken */\n      swap2\n      and\n      swap1\n        /* \"contracts/NFTMarketplacePart4.sol\":5346:5364  rhemToken.transfer */\n      0xa9059cbb\n      swap1\n        /* \"#utility.yul\":7517:7535   */\n      0x44\n      add\n        /* \"contracts/NFTMarketplacePart4.sol\":5346:5389  rhemToken.transfer(burnAddress, burnAmount) */\n      0x20\n      mload(0x40)\n      dup1\n      dup4\n      sub\n      dup2\n      0x00\n      dup8\n      gas\n      call\n      iszero\n      dup1\n      iszero\n      tag_156\n      jumpi\n      returndatacopy(0x00, 0x00, returndatasize)\n      revert(0x00, returndatasize)\n    tag_156:\n      pop\n      pop\n      pop\n      pop\n      mload(0x40)\n      returndatasize\n      not(0x1f)\n      0x1f\n      dup3\n      add\n      and\n      dup3\n      add\n      dup1\n      0x40\n      mstore\n      pop\n      dup2\n      add\n      swap1\n      tag_157\n      swap2\n      swap1\n      tag_142\n      jump\t// in\n    tag_157:\n        /* \"contracts/NFTMarketplacePart4.sol\":5338:5405  require(rhemToken.transfer(burnAddress, burnAmount), \"Burn failed\") */\n      tag_158\n      jumpi\n      mload(0x40)\n      shl(0xe5, 0x461bcd)\n      dup2\n      mstore\n        /* \"#utility.yul\":8201:8203   */\n      0x20\n        /* \"contracts/NFTMarketplacePart4.sol\":5338:5405  require(rhemToken.transfer(burnAddress, burnAmount), \"Burn failed\") */\n      0x04\n      dup3\n      add\n        /* \"#utility.yul\":8183:8204   */\n      mstore\n        /* \"#utility.yul\":8240:8242   */\n      0x0b\n        /* \"#utility.yul\":8220:8238   */\n      0x24\n      dup3\n      add\n        /* \"#utility.yul\":8213:8243   */\n      mstore\n      shl(0xaa, 0x109d5c9b8819985a5b1959)\n        /* \"#utility.yul\":8259:8277   */\n      0x44\n      dup3\n      add\n        /* \"#utility.yul\":8252:8293   */\n      mstore\n        /* \"#utility.yul\":8310:8328   */\n      0x64\n      add\n        /* \"contracts/NFTMarketplacePart4.sol\":5338:5405  require(rhemToken.transfer(burnAddress, burnAmount), \"Burn failed\") */\n      tag_99\n        /* \"#utility.yul\":7999:8334   */\n      jump\n        /* \"contracts/NFTMarketplacePart4.sol\":5338:5405  require(rhemToken.transfer(burnAddress, burnAmount), \"Burn failed\") */\n    tag_158:\n        /* \"contracts/NFTMarketplacePart4.sol\":5424:5433  rhemToken */\n      sload(0x03)\n      0x01\n        /* \"contracts/NFTMarketplacePart4.sol\":5443:5452  devWallet */\n      sload\n        /* \"contracts/NFTMarketplacePart4.sol\":5424:5464  rhemToken.transfer(devWallet, devAmount) */\n      mload(0x40)\n      shl(0xe0, 0xa9059cbb)\n      dup2\n      mstore\n      sub(shl(0xa0, 0x01), 0x01)\n        /* \"contracts/NFTMarketplacePart4.sol\":5443:5452  devWallet */\n      swap2\n      dup3\n      and\n        /* \"contracts/NFTMarketplacePart4.sol\":5424:5464  rhemToken.transfer(devWallet, devAmount) */\n      0x04\n      dup3\n      add\n        /* \"#utility.yul\":7544:7595   */\n      mstore\n        /* \"#utility.yul\":7611:7629   */\n      0x24\n      dup2\n      add\n        /* \"#utility.yul\":7604:7638   */\n      dup6\n      swap1\n      mstore\n        /* \"contracts/NFTMarketplacePart4.sol\":5424:5433  rhemToken */\n      swap2\n      and\n      swap1\n        /* \"contracts/NFTMarketplacePart4.sol\":5424:5442  rhemToken.transfer */\n      0xa9059cbb\n      swap1\n        /* \"#utility.yul\":7517:7535   */\n      0x44\n      add\n        /* \"contracts/NFTMarketplacePart4.sol\":5424:5464  rhemToken.transfer(devWallet, devAmount) */\n      0x20\n      mload(0x40)\n      dup1\n      dup4\n      sub\n      dup2\n      0x00\n      dup8\n      gas\n      call\n      iszero\n      dup1\n      iszero\n      tag_163\n      jumpi\n      returndatacopy(0x00, 0x00, returndatasize)\n      revert(0x00, returndatasize)\n    tag_163:\n      pop\n      pop\n      pop\n      pop\n      mload(0x40)\n      returndatasize\n      not(0x1f)\n      0x1f\n      dup3\n      add\n      and\n      dup3\n      add\n      dup1\n      0x40\n      mstore\n      pop\n      dup2\n      add\n      swap1\n      tag_164\n      swap2\n      swap1\n      tag_142\n      jump\t// in\n    tag_164:\n        /* \"contracts/NFTMarketplacePart4.sol\":5416:5483  require(rhemToken.transfer(devWallet, devAmount), \"Dev fee failed\") */\n      tag_165\n      jumpi\n      mload(0x40)\n      shl(0xe5, 0x461bcd)\n      dup2\n      mstore\n        /* \"#utility.yul\":8541:8543   */\n      0x20\n        /* \"contracts/NFTMarketplacePart4.sol\":5416:5483  require(rhemToken.transfer(devWallet, devAmount), \"Dev fee failed\") */\n      0x04\n      dup3\n      add\n        /* \"#utility.yul\":8523:8544   */\n      mstore\n        /* \"#utility.yul\":8580:8582   */\n      0x0e\n        /* \"#utility.yul\":8560:8578   */\n      0x24\n      dup3\n      add\n        /* \"#utility.yul\":8553:8583   */\n      mstore\n      shl(0x92, 0x11195d881999594819985a5b1959)\n        /* \"#utility.yul\":8599:8617   */\n      0x44\n      dup3\n      add\n        /* \"#utility.yul\":8592:8636   */\n      mstore\n        /* \"#utility.yul\":8653:8671   */\n      0x64\n      add\n        /* \"contracts/NFTMarketplacePart4.sol\":5416:5483  require(rhemToken.transfer(devWallet, devAmount), \"Dev fee failed\") */\n      tag_99\n        /* \"#utility.yul\":8339:8677   */\n      jump\n        /* \"contracts/NFTMarketplacePart4.sol\":5416:5483  require(rhemToken.transfer(devWallet, devAmount), \"Dev fee failed\") */\n    tag_165:\n        /* \"contracts/NFTMarketplacePart4.sol\":5509:5522  nfts[tokenId] */\n      0x00\n      dup7\n      dup2\n      mstore\n        /* \"contracts/NFTMarketplacePart4.sol\":5509:5513  nfts */\n      0x04\n        /* \"contracts/NFTMarketplacePart4.sol\":5509:5522  nfts[tokenId] */\n      0x20\n      mstore\n      0x40\n      swap1\n      keccak256\n        /* \"contracts/NFTMarketplacePart4.sol\":5509:5528  nfts[tokenId].owner */\n      sload\n        /* \"contracts/NFTMarketplacePart4.sol\":5496:5550  _transferNFT(nfts[tokenId].owner, msg.sender, tokenId) */\n      tag_168\n      swap1\n      sub(shl(0xa0, 0x01), 0x01)\n        /* \"contracts/NFTMarketplacePart4.sol\":5509:5528  nfts[tokenId].owner */\n      and\n        /* \"contracts/NFTMarketplacePart4.sol\":5530:5540  msg.sender */\n      caller\n        /* \"contracts/NFTMarketplacePart4.sol\":5514:5521  tokenId */\n      dup9\n        /* \"contracts/NFTMarketplacePart4.sol\":5496:5508  _transferNFT */\n      tag_169\n        /* \"contracts/NFTMarketplacePart4.sol\":5496:5550  _transferNFT(nfts[tokenId].owner, msg.sender, tokenId) */\n      jump\t// in\n    tag_168:\n        /* \"contracts/NFTMarketplacePart4.sol\":5586:5591  false */\n      0x00\n        /* \"contracts/NFTMarketplacePart4.sol\":5563:5576  nfts[tokenId] */\n      dup7\n      dup2\n      mstore\n        /* \"contracts/NFTMarketplacePart4.sol\":5563:5567  nfts */\n      0x04\n        /* \"contracts/NFTMarketplacePart4.sol\":5563:5576  nfts[tokenId] */\n      0x20\n      swap1\n      dup2\n      mstore\n      0x40\n      dup1\n      dup4\n      keccak256\n        /* \"contracts/NFTMarketplacePart4.sol\":5563:5583  nfts[tokenId].listed */\n      0x02\n      add\n        /* \"contracts/NFTMarketplacePart4.sol\":5563:5591  nfts[tokenId].listed = false */\n      dup1\n      sload\n      not(0xff)\n      and\n      swap1\n      sstore\n        /* \"contracts/NFTMarketplacePart4.sol\":5602:5610  listings */\n      0x06\n        /* \"contracts/NFTMarketplacePart4.sol\":5602:5619  listings[tokenId] */\n      dup3\n      mstore\n      swap2\n      dup3\n      swap1\n      keccak256\n      0x01\n        /* \"contracts/NFTMarketplacePart4.sol\":5602:5626  listings[tokenId].listed */\n      add\n        /* \"contracts/NFTMarketplacePart4.sol\":5602:5634  listings[tokenId].listed = false */\n      dup1\n      sload\n      not(shl(0xa0, 0xff))\n      and\n      swap1\n      sstore\n        /* \"contracts/NFTMarketplacePart4.sol\":5652:5687  NFTSold(msg.sender, tokenId, price) */\n      dup2\n      mload\n        /* \"#utility.yul\":8856:8881   */\n      dup9\n      dup2\n      mstore\n        /* \"#utility.yul\":8897:8915   */\n      swap1\n      dup2\n      add\n        /* \"#utility.yul\":8890:8924   */\n      dup7\n      swap1\n      mstore\n        /* \"contracts/NFTMarketplacePart4.sol\":5660:5670  msg.sender */\n      caller\n      swap2\n        /* \"contracts/NFTMarketplacePart4.sol\":5652:5687  NFTSold(msg.sender, tokenId, price) */\n      0x90c126d08c53e7f57ef4e11eb379ae5bc0e2489ee38eeb36ecfcaec81fe04021\n      swap2\n        /* \"#utility.yul\":8829:8847   */\n      add\n        /* \"contracts/NFTMarketplacePart4.sol\":5652:5687  NFTSold(msg.sender, tokenId, price) */\n      mload(0x40)\n      dup1\n      swap2\n      sub\n      swap1\n      log2\n        /* \"contracts/NFTMarketplacePart4.sol\":4799:5695  {... */\n      pop\n      pop\n      pop\n      pop\n      pop\n        /* \"contracts/NFTMarketplacePart4.sol\":4757:5695  function buyNFT(uint256 tokenId) external {... */\n      pop\n      jump\t// out\n        /* \"contracts/NFTMarketplacePart4.sol\":2862:3172  function stakeNFT(uint256 tokenId) external {... */\n    tag_59:\n        /* \"contracts/NFTMarketplacePart4.sol\":2925:2938  nfts[tokenId] */\n      0x00\n      dup2\n      dup2\n      mstore\n        /* \"contracts/NFTMarketplacePart4.sol\":2925:2929  nfts */\n      0x04\n        /* \"contracts/NFTMarketplacePart4.sol\":2925:2938  nfts[tokenId] */\n      0x20\n      mstore\n      0x40\n      swap1\n      keccak256\n        /* \"contracts/NFTMarketplacePart4.sol\":2925:2944  nfts[tokenId].owner */\n      sload\n      sub(shl(0xa0, 0x01), 0x01)\n      and\n        /* \"contracts/NFTMarketplacePart4.sol\":2948:2958  msg.sender */\n      caller\n        /* \"contracts/NFTMarketplacePart4.sol\":2925:2958  nfts[tokenId].owner == msg.sender */\n      eq\n        /* \"contracts/NFTMarketplacePart4.sol\":2917:2972  require(nfts[tokenId].owner == msg.sender, \"Not owner\") */\n      tag_173\n      jumpi\n      mload(0x40)\n      shl(0xe5, 0x461bcd)\n      dup2\n      mstore\n        /* \"#utility.yul\":9137:9139   */\n      0x20\n        /* \"contracts/NFTMarketplacePart4.sol\":2917:2972  require(nfts[tokenId].owner == msg.sender, \"Not owner\") */\n      0x04\n      dup3\n      add\n        /* \"#utility.yul\":9119:9140   */\n      mstore\n        /* \"#utility.yul\":9176:9177   */\n      0x09\n        /* \"#utility.yul\":9156:9174   */\n      0x24\n      dup3\n      add\n        /* \"#utility.yul\":9149:9178   */\n      mstore\n      shl(0xb9, 0x2737ba1037bbb732b9)\n        /* \"#utility.yul\":9194:9212   */\n      0x44\n      dup3\n      add\n        /* \"#utility.yul\":9187:9226   */\n      mstore\n        /* \"#utility.yul\":9243:9261   */\n      0x64\n      add\n        /* \"contracts/NFTMarketplacePart4.sol\":2917:2972  require(nfts[tokenId].owner == msg.sender, \"Not owner\") */\n      tag_99\n        /* \"#utility.yul\":8935:9267   */\n      jump\n        /* \"contracts/NFTMarketplacePart4.sol\":2917:2972  require(nfts[tokenId].owner == msg.sender, \"Not owner\") */\n    tag_173:\n        /* \"contracts/NFTMarketplacePart4.sol\":2992:3011  stakedNFTs[tokenId] */\n      0x00\n      dup2\n      dup2\n      mstore\n        /* \"contracts/NFTMarketplacePart4.sol\":2992:3002  stakedNFTs */\n      0x07\n        /* \"contracts/NFTMarketplacePart4.sol\":2992:3011  stakedNFTs[tokenId] */\n      0x20\n      mstore\n      0x40\n      swap1\n      keccak256\n      sload\n      0xff\n      and\n        /* \"contracts/NFTMarketplacePart4.sol\":2991:3011  !stakedNFTs[tokenId] */\n      iszero\n        /* \"contracts/NFTMarketplacePart4.sol\":2983:3030  require(!stakedNFTs[tokenId], \"Already staked\") */\n      tag_176\n      jumpi\n      mload(0x40)\n      shl(0xe5, 0x461bcd)\n      dup2\n      mstore\n        /* \"#utility.yul\":9474:9476   */\n      0x20\n        /* \"contracts/NFTMarketplacePart4.sol\":2983:3030  require(!stakedNFTs[tokenId], \"Already staked\") */\n      0x04\n      dup3\n      add\n        /* \"#utility.yul\":9456:9477   */\n      mstore\n        /* \"#utility.yul\":9513:9515   */\n      0x0e\n        /* \"#utility.yul\":9493:9511   */\n      0x24\n      dup3\n      add\n        /* \"#utility.yul\":9486:9516   */\n      mstore\n      shl(0x92, 0x105b1c9958591e481cdd185ad959)\n        /* \"#utility.yul\":9532:9550   */\n      0x44\n      dup3\n      add\n        /* \"#utility.yul\":9525:9569   */\n      mstore\n        /* \"#utility.yul\":9586:9604   */\n      0x64\n      add\n        /* \"contracts/NFTMarketplacePart4.sol\":2983:3030  require(!stakedNFTs[tokenId], \"Already staked\") */\n      tag_99\n        /* \"#utility.yul\":9272:9610   */\n      jump\n        /* \"contracts/NFTMarketplacePart4.sol\":2983:3030  require(!stakedNFTs[tokenId], \"Already staked\") */\n    tag_176:\n        /* \"contracts/NFTMarketplacePart4.sol\":3043:3062  stakedNFTs[tokenId] */\n      0x00\n      dup2\n      dup2\n      mstore\n        /* \"contracts/NFTMarketplacePart4.sol\":3043:3053  stakedNFTs */\n      0x07\n        /* \"contracts/NFTMarketplacePart4.sol\":3043:3062  stakedNFTs[tokenId] */\n      0x20\n      swap1\n      dup2\n      mstore\n      0x40\n      dup1\n      dup4\n      keccak256\n        /* \"contracts/NFTMarketplacePart4.sol\":3043:3069  stakedNFTs[tokenId] = true */\n      dup1\n      sload\n      not(0xff)\n      and\n        /* \"contracts/NFTMarketplacePart4.sol\":3065:3069  true */\n      0x01\n        /* \"contracts/NFTMarketplacePart4.sol\":3043:3069  stakedNFTs[tokenId] = true */\n      swap1\n      dup2\n      or\n      swap1\n      swap2\n      sstore\n        /* \"contracts/NFTMarketplacePart4.sol\":3091:3101  msg.sender */\n      caller\n        /* \"contracts/NFTMarketplacePart4.sol\":3080:3102  userStakes[msg.sender] */\n      dup1\n      dup6\n      mstore\n        /* \"contracts/NFTMarketplacePart4.sol\":3080:3090  userStakes */\n      0x08\n        /* \"contracts/NFTMarketplacePart4.sol\":3080:3102  userStakes[msg.sender] */\n      dup5\n      mstore\n      dup3\n      dup6\n      keccak256\n        /* \"contracts/NFTMarketplacePart4.sol\":3080:3116  userStakes[msg.sender].push(tokenId) */\n      dup1\n      sload\n      swap3\n      dup4\n      add\n      dup2\n      sstore\n      dup6\n      mstore\n      swap4\n      dup4\n      swap1\n      keccak256\n      add\n      dup5\n      swap1\n      sstore\n        /* \"contracts/NFTMarketplacePart4.sol\":3134:3164  NFTStaked(msg.sender, tokenId) */\n      mload\n        /* \"#utility.yul\":391:416   */\n      dup4\n      dup2\n      mstore\n        /* \"contracts/NFTMarketplacePart4.sol\":3134:3164  NFTStaked(msg.sender, tokenId) */\n      0x0cda5cf38f6592672c7b4a22ff3d50874d1913629bd5ffedc27b7b40503d60fd\n      swap2\n        /* \"#utility.yul\":364:382   */\n      add\n        /* \"contracts/NFTMarketplacePart4.sol\":3134:3164  NFTStaked(msg.sender, tokenId) */\n    tag_180:\n      mload(0x40)\n      dup1\n      swap2\n      sub\n      swap1\n      log2\n        /* \"contracts/NFTMarketplacePart4.sol\":2862:3172  function stakeNFT(uint256 tokenId) external {... */\n      pop\n      jump\t// out\n        /* \"contracts/NFTMarketplacePart4.sol\":4133:4487  function listNFT(uint256 tokenId, uint256 price) external onlyOwnerOf(tokenId) {... */\n    tag_69:\n        /* \"contracts/NFTMarketplacePart4.sol\":2231:2244  nfts[tokenId] */\n      0x00\n      dup3\n      dup2\n      mstore\n        /* \"contracts/NFTMarketplacePart4.sol\":2231:2235  nfts */\n      0x04\n        /* \"contracts/NFTMarketplacePart4.sol\":2231:2244  nfts[tokenId] */\n      0x20\n      mstore\n      0x40\n      swap1\n      keccak256\n        /* \"contracts/NFTMarketplacePart4.sol\":2231:2250  nfts[tokenId].owner */\n      sload\n        /* \"contracts/NFTMarketplacePart4.sol\":4203:4210  tokenId */\n      dup3\n      swap1\n      sub(shl(0xa0, 0x01), 0x01)\n        /* \"contracts/NFTMarketplacePart4.sol\":2231:2250  nfts[tokenId].owner */\n      and\n        /* \"contracts/NFTMarketplacePart4.sol\":2254:2264  msg.sender */\n      caller\n        /* \"contracts/NFTMarketplacePart4.sol\":2231:2264  nfts[tokenId].owner == msg.sender */\n      eq\n        /* \"contracts/NFTMarketplacePart4.sol\":2223:2282  require(nfts[tokenId].owner == msg.sender, \"Not the owner\") */\n      tag_182\n      jumpi\n      mload(0x40)\n      shl(0xe5, 0x461bcd)\n      dup2\n      mstore\n        /* \"#utility.yul\":9817:9819   */\n      0x20\n        /* \"contracts/NFTMarketplacePart4.sol\":2223:2282  require(nfts[tokenId].owner == msg.sender, \"Not the owner\") */\n      0x04\n      dup3\n      add\n        /* \"#utility.yul\":9799:9820   */\n      mstore\n        /* \"#utility.yul\":9856:9858   */\n      0x0d\n        /* \"#utility.yul\":9836:9854   */\n      0x24\n      dup3\n      add\n        /* \"#utility.yul\":9829:9859   */\n      mstore\n      shl(0x99, 0x2737ba103a34329037bbb732b9)\n        /* \"#utility.yul\":9875:9893   */\n      0x44\n      dup3\n      add\n        /* \"#utility.yul\":9868:9911   */\n      mstore\n        /* \"#utility.yul\":9928:9946   */\n      0x64\n      add\n        /* \"contracts/NFTMarketplacePart4.sol\":2223:2282  require(nfts[tokenId].owner == msg.sender, \"Not the owner\") */\n      tag_99\n        /* \"#utility.yul\":9615:9952   */\n      jump\n        /* \"contracts/NFTMarketplacePart4.sol\":2223:2282  require(nfts[tokenId].owner == msg.sender, \"Not the owner\") */\n    tag_182:\n        /* \"contracts/NFTMarketplacePart4.sol\":4232:4245  nfts[tokenId] */\n      0x00\n      dup4\n      dup2\n      mstore\n        /* \"contracts/NFTMarketplacePart4.sol\":4232:4236  nfts */\n      0x04\n        /* \"contracts/NFTMarketplacePart4.sol\":4232:4245  nfts[tokenId] */\n      0x20\n      mstore\n      0x40\n      swap1\n      keccak256\n        /* \"contracts/NFTMarketplacePart4.sol\":4232:4252  nfts[tokenId].listed */\n      0x02\n      add\n      sload\n      0xff\n      and\n        /* \"contracts/NFTMarketplacePart4.sol\":4231:4252  !nfts[tokenId].listed */\n      iszero\n        /* \"contracts/NFTMarketplacePart4.sol\":4223:4271  require(!nfts[tokenId].listed, \"Already listed\") */\n      tag_186\n      jumpi\n      mload(0x40)\n      shl(0xe5, 0x461bcd)\n      dup2\n      mstore\n        /* \"#utility.yul\":10159:10161   */\n      0x20\n        /* \"contracts/NFTMarketplacePart4.sol\":4223:4271  require(!nfts[tokenId].listed, \"Already listed\") */\n      0x04\n      dup3\n      add\n        /* \"#utility.yul\":10141:10162   */\n      mstore\n        /* \"#utility.yul\":10198:10200   */\n      0x0e\n        /* \"#utility.yul\":10178:10196   */\n      0x24\n      dup3\n      add\n        /* \"#utility.yul\":10171:10201   */\n      mstore\n      shl(0x92, 0x105b1c9958591e481b1a5cdd1959)\n        /* \"#utility.yul\":10217:10235   */\n      0x44\n      dup3\n      add\n        /* \"#utility.yul\":10210:10254   */\n      mstore\n        /* \"#utility.yul\":10271:10289   */\n      0x64\n      add\n        /* \"contracts/NFTMarketplacePart4.sol\":4223:4271  require(!nfts[tokenId].listed, \"Already listed\") */\n      tag_99\n        /* \"#utility.yul\":9957:10295   */\n      jump\n        /* \"contracts/NFTMarketplacePart4.sol\":4223:4271  require(!nfts[tokenId].listed, \"Already listed\") */\n    tag_186:\n        /* \"contracts/NFTMarketplacePart4.sol\":4298:4299  0 */\n      0x00\n        /* \"contracts/NFTMarketplacePart4.sol\":4290:4295  price */\n      dup3\n        /* \"contracts/NFTMarketplacePart4.sol\":4290:4299  price > 0 */\n      gt\n        /* \"contracts/NFTMarketplacePart4.sol\":4282:4321  require(price > 0, \"Price must be > 0\") */\n      tag_189\n      jumpi\n      mload(0x40)\n      shl(0xe5, 0x461bcd)\n      dup2\n      mstore\n        /* \"#utility.yul\":10502:10504   */\n      0x20\n        /* \"contracts/NFTMarketplacePart4.sol\":4282:4321  require(price > 0, \"Price must be > 0\") */\n      0x04\n      dup3\n      add\n        /* \"#utility.yul\":10484:10505   */\n      mstore\n        /* \"#utility.yul\":10541:10543   */\n      0x11\n        /* \"#utility.yul\":10521:10539   */\n      0x24\n      dup3\n      add\n        /* \"#utility.yul\":10514:10544   */\n      mstore\n      shl(0x7c, 0x05072696365206d757374206265203e203)\n        /* \"#utility.yul\":10560:10578   */\n      0x44\n      dup3\n      add\n        /* \"#utility.yul\":10553:10600   */\n      mstore\n        /* \"#utility.yul\":10617:10635   */\n      0x64\n      add\n        /* \"contracts/NFTMarketplacePart4.sol\":4282:4321  require(price > 0, \"Price must be > 0\") */\n      tag_99\n        /* \"#utility.yul\":10300:10641   */\n      jump\n        /* \"contracts/NFTMarketplacePart4.sol\":4282:4321  require(price > 0, \"Price must be > 0\") */\n    tag_189:\n        /* \"contracts/NFTMarketplacePart4.sol\":4354:4386  Listing(price, msg.sender, true) */\n      0x40\n      dup1\n      mload\n      0x60\n      dup2\n      add\n      dup3\n      mstore\n      dup4\n      dup2\n      mstore\n        /* \"contracts/NFTMarketplacePart4.sol\":4369:4379  msg.sender */\n      caller\n        /* \"contracts/NFTMarketplacePart4.sol\":4354:4386  Listing(price, msg.sender, true) */\n      0x20\n      dup1\n      dup4\n      add\n      dup3\n      dup2\n      mstore\n        /* \"contracts/NFTMarketplacePart4.sol\":4381:4385  true */\n      0x01\n        /* \"contracts/NFTMarketplacePart4.sol\":4354:4386  Listing(price, msg.sender, true) */\n      dup5\n      dup7\n      add\n      dup2\n      dup2\n      mstore\n      0x00\n        /* \"contracts/NFTMarketplacePart4.sol\":4334:4351  listings[tokenId] */\n      dup11\n      dup2\n      mstore\n        /* \"contracts/NFTMarketplacePart4.sol\":4334:4342  listings */\n      0x06\n        /* \"contracts/NFTMarketplacePart4.sol\":4334:4351  listings[tokenId] */\n      dup6\n      mstore\n      dup8\n      dup2\n      keccak256\n        /* \"contracts/NFTMarketplacePart4.sol\":4334:4386  listings[tokenId] = Listing(price, msg.sender, true) */\n      swap7\n      mload\n      dup8\n      sstore\n      swap3\n      mload\n      swap6\n      dup3\n      add\n      dup1\n      sload\n      swap2\n      mload\n      iszero\n      iszero\n      shl(0xa0, 0x01)\n      mul\n      not(sub(shl(0xa8, 0x01), 0x01))\n      swap1\n      swap3\n      and\n      sub(shl(0xa0, 0x01), 0x01)\n      swap8\n      swap1\n      swap8\n      and\n      swap7\n      swap1\n      swap7\n      or\n      or\n      swap1\n      swap5\n      sstore\n        /* \"contracts/NFTMarketplacePart4.sol\":4397:4401  nfts */\n      0x04\n        /* \"contracts/NFTMarketplacePart4.sol\":4397:4410  nfts[tokenId] */\n      swap1\n      swap2\n      mstore\n      dup4\n      swap1\n      keccak256\n        /* \"contracts/NFTMarketplacePart4.sol\":4397:4417  nfts[tokenId].listed */\n      0x02\n      add\n        /* \"contracts/NFTMarketplacePart4.sol\":4397:4424  nfts[tokenId].listed = true */\n      dup1\n      sload\n      not(0xff)\n      and\n      swap1\n      swap3\n      or\n      swap1\n      swap2\n      sstore\n        /* \"contracts/NFTMarketplacePart4.sol\":4442:4479  NFTListed(msg.sender, tokenId, price) */\n      swap1\n      mload\n      0xbbf44e68296791df5535457da734bf1017c4b233a740af6d7a89b9f1af4ecb42\n      swap1\n      tag_192\n      swap1\n        /* \"contracts/NFTMarketplacePart4.sol\":4343:4350  tokenId */\n      dup7\n      swap1\n        /* \"contracts/NFTMarketplacePart4.sol\":4362:4367  price */\n      dup7\n      swap1\n        /* \"#utility.yul\":8856:8881   */\n      swap2\n      dup3\n      mstore\n        /* \"#utility.yul\":8912:8914   */\n      0x20\n        /* \"#utility.yul\":8897:8915   */\n      dup3\n      add\n        /* \"#utility.yul\":8890:8924   */\n      mstore\n        /* \"#utility.yul\":8844:8846   */\n      0x40\n        /* \"#utility.yul\":8829:8847   */\n      add\n      swap1\n        /* \"#utility.yul\":8682:8930   */\n      jump\n        /* \"contracts/NFTMarketplacePart4.sol\":4442:4479  NFTListed(msg.sender, tokenId, price) */\n    tag_192:\n      mload(0x40)\n      dup1\n      swap2\n      sub\n      swap1\n      log2\n        /* \"contracts/NFTMarketplacePart4.sol\":4133:4487  function listNFT(uint256 tokenId, uint256 price) external onlyOwnerOf(tokenId) {... */\n      pop\n      pop\n      pop\n      jump\t// out\n        /* \"contracts/NFTMarketplacePart4.sol\":4495:4749  function unlistNFT(uint256 tokenId) external onlyOwnerOf(tokenId) {... */\n    tag_72:\n        /* \"contracts/NFTMarketplacePart4.sol\":2231:2244  nfts[tokenId] */\n      0x00\n      dup2\n      dup2\n      mstore\n        /* \"contracts/NFTMarketplacePart4.sol\":2231:2235  nfts */\n      0x04\n        /* \"contracts/NFTMarketplacePart4.sol\":2231:2244  nfts[tokenId] */\n      0x20\n      mstore\n      0x40\n      swap1\n      keccak256\n        /* \"contracts/NFTMarketplacePart4.sol\":2231:2250  nfts[tokenId].owner */\n      sload\n        /* \"contracts/NFTMarketplacePart4.sol\":4552:4559  tokenId */\n      dup2\n      swap1\n      sub(shl(0xa0, 0x01), 0x01)\n        /* \"contracts/NFTMarketplacePart4.sol\":2231:2250  nfts[tokenId].owner */\n      and\n        /* \"contracts/NFTMarketplacePart4.sol\":2254:2264  msg.sender */\n      caller\n        /* \"contracts/NFTMarketplacePart4.sol\":2231:2264  nfts[tokenId].owner == msg.sender */\n      eq\n        /* \"contracts/NFTMarketplacePart4.sol\":2223:2282  require(nfts[tokenId].owner == msg.sender, \"Not the owner\") */\n      tag_194\n      jumpi\n      mload(0x40)\n      shl(0xe5, 0x461bcd)\n      dup2\n      mstore\n        /* \"#utility.yul\":9817:9819   */\n      0x20\n        /* \"contracts/NFTMarketplacePart4.sol\":2223:2282  require(nfts[tokenId].owner == msg.sender, \"Not the owner\") */\n      0x04\n      dup3\n      add\n        /* \"#utility.yul\":9799:9820   */\n      mstore\n        /* \"#utility.yul\":9856:9858   */\n      0x0d\n        /* \"#utility.yul\":9836:9854   */\n      0x24\n      dup3\n      add\n        /* \"#utility.yul\":9829:9859   */\n      mstore\n      shl(0x99, 0x2737ba103a34329037bbb732b9)\n        /* \"#utility.yul\":9875:9893   */\n      0x44\n      dup3\n      add\n        /* \"#utility.yul\":9868:9911   */\n      mstore\n        /* \"#utility.yul\":9928:9946   */\n      0x64\n      add\n        /* \"contracts/NFTMarketplacePart4.sol\":2223:2282  require(nfts[tokenId].owner == msg.sender, \"Not the owner\") */\n      tag_99\n        /* \"#utility.yul\":9615:9952   */\n      jump\n        /* \"contracts/NFTMarketplacePart4.sol\":2223:2282  require(nfts[tokenId].owner == msg.sender, \"Not the owner\") */\n    tag_194:\n        /* \"contracts/NFTMarketplacePart4.sol\":4580:4597  listings[tokenId] */\n      0x00\n      dup3\n      dup2\n      mstore\n        /* \"contracts/NFTMarketplacePart4.sol\":4580:4588  listings */\n      0x06\n        /* \"contracts/NFTMarketplacePart4.sol\":4580:4597  listings[tokenId] */\n      0x20\n      mstore\n      0x40\n      swap1\n      keccak256\n        /* \"contracts/NFTMarketplacePart4.sol\":4580:4604  listings[tokenId].listed */\n      0x01\n      add\n      sload\n      shl(0xa0, 0x01)\n      swap1\n      div\n      0xff\n      and\n        /* \"contracts/NFTMarketplacePart4.sol\":4572:4619  require(listings[tokenId].listed, \"Not listed\") */\n      tag_197\n      jumpi\n      mload(0x40)\n      shl(0xe5, 0x461bcd)\n      dup2\n      mstore\n        /* \"#utility.yul\":5572:5574   */\n      0x20\n        /* \"contracts/NFTMarketplacePart4.sol\":4572:4619  require(listings[tokenId].listed, \"Not listed\") */\n      0x04\n      dup3\n      add\n        /* \"#utility.yul\":5554:5575   */\n      mstore\n        /* \"#utility.yul\":5611:5613   */\n      0x0a\n        /* \"#utility.yul\":5591:5609   */\n      0x24\n      dup3\n      add\n        /* \"#utility.yul\":5584:5614   */\n      mstore\n      shl(0xb2, 0x139bdd081b1a5cdd1959)\n        /* \"#utility.yul\":5630:5648   */\n      0x44\n      dup3\n      add\n        /* \"#utility.yul\":5623:5663   */\n      mstore\n        /* \"#utility.yul\":5680:5698   */\n      0x64\n      add\n        /* \"contracts/NFTMarketplacePart4.sol\":4572:4619  require(listings[tokenId].listed, \"Not listed\") */\n      tag_99\n        /* \"#utility.yul\":5370:5704   */\n      jump\n        /* \"contracts/NFTMarketplacePart4.sol\":4572:4619  require(listings[tokenId].listed, \"Not listed\") */\n    tag_197:\n        /* \"contracts/NFTMarketplacePart4.sol\":4659:4664  false */\n      0x00\n        /* \"contracts/NFTMarketplacePart4.sol\":4632:4649  listings[tokenId] */\n      dup3\n      dup2\n      mstore\n        /* \"contracts/NFTMarketplacePart4.sol\":4632:4640  listings */\n      0x06\n        /* \"contracts/NFTMarketplacePart4.sol\":4632:4649  listings[tokenId] */\n      0x20\n      swap1\n      dup2\n      mstore\n      0x40\n      dup1\n      dup4\n      keccak256\n        /* \"contracts/NFTMarketplacePart4.sol\":4632:4656  listings[tokenId].listed */\n      0x01\n      add\n        /* \"contracts/NFTMarketplacePart4.sol\":4632:4664  listings[tokenId].listed = false */\n      dup1\n      sload\n      not(shl(0xa0, 0xff))\n      and\n      swap1\n      sstore\n        /* \"contracts/NFTMarketplacePart4.sol\":4675:4679  nfts */\n      0x04\n        /* \"contracts/NFTMarketplacePart4.sol\":4675:4688  nfts[tokenId] */\n      dup3\n      mstore\n      swap2\n      dup3\n      swap1\n      keccak256\n        /* \"contracts/NFTMarketplacePart4.sol\":4675:4695  nfts[tokenId].listed */\n      0x02\n      add\n        /* \"contracts/NFTMarketplacePart4.sol\":4675:4703  nfts[tokenId].listed = false */\n      dup1\n      sload\n      not(0xff)\n      and\n      swap1\n      sstore\n        /* \"contracts/NFTMarketplacePart4.sol\":4721:4741  NFTUnlisted(tokenId) */\n      swap1\n      mload\n        /* \"#utility.yul\":391:416   */\n      dup4\n      dup2\n      mstore\n        /* \"contracts/NFTMarketplacePart4.sol\":4721:4741  NFTUnlisted(tokenId) */\n      0xcd14eb7ebf273ed59a9fd1cf8651f3f40d9a04355b3511376f0d17b37ba224ff\n      swap2\n        /* \"#utility.yul\":364:382   */\n      add\n        /* \"contracts/NFTMarketplacePart4.sol\":4721:4741  NFTUnlisted(tokenId) */\n      mload(0x40)\n      dup1\n      swap2\n      sub\n      swap1\n      log1\n        /* \"contracts/NFTMarketplacePart4.sol\":4495:4749  function unlistNFT(uint256 tokenId) external onlyOwnerOf(tokenId) {... */\n      pop\n      pop\n      jump\t// out\n        /* \"contracts/NFTMarketplacePart4.sol\":1091:1138  mapping(address => uint256[]) public userStakes */\n    tag_79:\n      mstore(0x20, 0x08)\n      dup2\n      0x00\n      mstore\n      keccak256(0x00, 0x40)\n      dup2\n      dup2\n      sload\n      dup2\n      lt\n      tag_103\n      jumpi\n      0x00\n      dup1\n      revert\n        /* \"contracts/NFTMarketplacePart4.sol\":4005:4125  function setSaleFee(uint256 _fee) external onlyDAO {... */\n    tag_88:\n        /* \"contracts/NFTMarketplacePart4.sol\":2124:2127  dao */\n      and(sub(shl(0xa0, 0x01), 0x01), sload(0x00))\n        /* \"contracts/NFTMarketplacePart4.sol\":2110:2120  msg.sender */\n      caller\n        /* \"contracts/NFTMarketplacePart4.sol\":2110:2127  msg.sender == dao */\n      eq\n        /* \"contracts/NFTMarketplacePart4.sol\":2102:2146  require(msg.sender == dao, \"Not authorized\") */\n      tag_203\n      jumpi\n      mload(0x40)\n      shl(0xe5, 0x461bcd)\n      dup2\n      mstore\n        /* \"#utility.yul\":3462:3464   */\n      0x20\n        /* \"contracts/NFTMarketplacePart4.sol\":2102:2146  require(msg.sender == dao, \"Not authorized\") */\n      0x04\n      dup3\n      add\n        /* \"#utility.yul\":3444:3465   */\n      mstore\n        /* \"#utility.yul\":3501:3503   */\n      0x0e\n        /* \"#utility.yul\":3481:3499   */\n      0x24\n      dup3\n      add\n        /* \"#utility.yul\":3474:3504   */\n      mstore\n      shl(0x92, 0x139bdd08185d5d1a1bdc9a5e9959)\n        /* \"#utility.yul\":3520:3538   */\n      0x44\n      dup3\n      add\n        /* \"#utility.yul\":3513:3557   */\n      mstore\n        /* \"#utility.yul\":3574:3592   */\n      0x64\n      add\n        /* \"contracts/NFTMarketplacePart4.sol\":2102:2146  require(msg.sender == dao, \"Not authorized\") */\n      tag_99\n        /* \"#utility.yul\":3260:3598   */\n      jump\n        /* \"contracts/NFTMarketplacePart4.sol\":2102:2146  require(msg.sender == dao, \"Not authorized\") */\n    tag_203:\n        /* \"contracts/NFTMarketplacePart4.sol\":4067:4074  saleFee */\n      0x0a\n        /* \"contracts/NFTMarketplacePart4.sol\":4067:4081  saleFee = _fee */\n      dup2\n      swap1\n      sstore\n        /* \"contracts/NFTMarketplacePart4.sol\":4097:4117  SaleFeeUpdated(_fee) */\n      mload(0x40)\n        /* \"#utility.yul\":391:416   */\n      dup2\n      dup2\n      mstore\n        /* \"contracts/NFTMarketplacePart4.sol\":4097:4117  SaleFeeUpdated(_fee) */\n      0x3129a3f705510d13754b1b445f0c1156bbf9fd8b88927ebfc2a88bc53189a9fa\n      swap1\n        /* \"#utility.yul\":379:381   */\n      0x20\n        /* \"#utility.yul\":364:382   */\n      add\n        /* \"contracts/NFTMarketplacePart4.sol\":4097:4117  SaleFeeUpdated(_fee) */\n      tag_102\n        /* \"#utility.yul\":245:422   */\n      jump\n        /* \"contracts/NFTMarketplacePart4.sol\":3180:3491  function unstakeNFT(uint256 tokenId) external {... */\n    tag_91:\n        /* \"contracts/NFTMarketplacePart4.sol\":3245:3258  nfts[tokenId] */\n      0x00\n      dup2\n      dup2\n      mstore\n        /* \"contracts/NFTMarketplacePart4.sol\":3245:3249  nfts */\n      0x04\n        /* \"contracts/NFTMarketplacePart4.sol\":3245:3258  nfts[tokenId] */\n      0x20\n      mstore\n      0x40\n      swap1\n      keccak256\n        /* \"contracts/NFTMarketplacePart4.sol\":3245:3264  nfts[tokenId].owner */\n      sload\n      sub(shl(0xa0, 0x01), 0x01)\n      and\n        /* \"contracts/NFTMarketplacePart4.sol\":3268:3278  msg.sender */\n      caller\n        /* \"contracts/NFTMarketplacePart4.sol\":3245:3278  nfts[tokenId].owner == msg.sender */\n      eq\n        /* \"contracts/NFTMarketplacePart4.sol\":3237:3292  require(nfts[tokenId].owner == msg.sender, \"Not owner\") */\n      tag_208\n      jumpi\n      mload(0x40)\n      shl(0xe5, 0x461bcd)\n      dup2\n      mstore\n        /* \"#utility.yul\":9137:9139   */\n      0x20\n        /* \"contracts/NFTMarketplacePart4.sol\":3237:3292  require(nfts[tokenId].owner == msg.sender, \"Not owner\") */\n      0x04\n      dup3\n      add\n        /* \"#utility.yul\":9119:9140   */\n      mstore\n        /* \"#utility.yul\":9176:9177   */\n      0x09\n        /* \"#utility.yul\":9156:9174   */\n      0x24\n      dup3\n      add\n        /* \"#utility.yul\":9149:9178   */\n      mstore\n      shl(0xb9, 0x2737ba1037bbb732b9)\n        /* \"#utility.yul\":9194:9212   */\n      0x44\n      dup3\n      add\n        /* \"#utility.yul\":9187:9226   */\n      mstore\n        /* \"#utility.yul\":9243:9261   */\n      0x64\n      add\n        /* \"contracts/NFTMarketplacePart4.sol\":3237:3292  require(nfts[tokenId].owner == msg.sender, \"Not owner\") */\n      tag_99\n        /* \"#utility.yul\":8935:9267   */\n      jump\n        /* \"contracts/NFTMarketplacePart4.sol\":3237:3292  require(nfts[tokenId].owner == msg.sender, \"Not owner\") */\n    tag_208:\n        /* \"contracts/NFTMarketplacePart4.sol\":3311:3330  stakedNFTs[tokenId] */\n      0x00\n      dup2\n      dup2\n      mstore\n        /* \"contracts/NFTMarketplacePart4.sol\":3311:3321  stakedNFTs */\n      0x07\n        /* \"contracts/NFTMarketplacePart4.sol\":3311:3330  stakedNFTs[tokenId] */\n      0x20\n      mstore\n      0x40\n      swap1\n      keccak256\n      sload\n      0xff\n      and\n        /* \"contracts/NFTMarketplacePart4.sol\":3303:3345  require(stakedNFTs[tokenId], \"Not staked\") */\n      tag_210\n      jumpi\n      mload(0x40)\n      shl(0xe5, 0x461bcd)\n      dup2\n      mstore\n        /* \"#utility.yul\":10848:10850   */\n      0x20\n        /* \"contracts/NFTMarketplacePart4.sol\":3303:3345  require(stakedNFTs[tokenId], \"Not staked\") */\n      0x04\n      dup3\n      add\n        /* \"#utility.yul\":10830:10851   */\n      mstore\n        /* \"#utility.yul\":10887:10889   */\n      0x0a\n        /* \"#utility.yul\":10867:10885   */\n      0x24\n      dup3\n      add\n        /* \"#utility.yul\":10860:10890   */\n      mstore\n      shl(0xb2, 0x139bdd081cdd185ad959)\n        /* \"#utility.yul\":10906:10924   */\n      0x44\n      dup3\n      add\n        /* \"#utility.yul\":10899:10939   */\n      mstore\n        /* \"#utility.yul\":10956:10974   */\n      0x64\n      add\n        /* \"contracts/NFTMarketplacePart4.sol\":3303:3345  require(stakedNFTs[tokenId], \"Not staked\") */\n      tag_99\n        /* \"#utility.yul\":10646:10980   */\n      jump\n        /* \"contracts/NFTMarketplacePart4.sol\":3303:3345  require(stakedNFTs[tokenId], \"Not staked\") */\n    tag_210:\n        /* \"contracts/NFTMarketplacePart4.sol\":3380:3385  false */\n      0x00\n        /* \"contracts/NFTMarketplacePart4.sol\":3358:3377  stakedNFTs[tokenId] */\n      dup2\n      dup2\n      mstore\n        /* \"contracts/NFTMarketplacePart4.sol\":3358:3368  stakedNFTs */\n      0x07\n        /* \"contracts/NFTMarketplacePart4.sol\":3358:3377  stakedNFTs[tokenId] */\n      0x20\n      mstore\n      0x40\n      swap1\n      keccak256\n        /* \"contracts/NFTMarketplacePart4.sol\":3358:3385  stakedNFTs[tokenId] = false */\n      dup1\n      sload\n      not(0xff)\n      and\n      swap1\n      sstore\n        /* \"contracts/NFTMarketplacePart4.sol\":3396:3433  _removeUserStake(msg.sender, tokenId) */\n      tag_213\n        /* \"contracts/NFTMarketplacePart4.sol\":3413:3423  msg.sender */\n      caller\n        /* \"contracts/NFTMarketplacePart4.sol\":3369:3376  tokenId */\n      dup3\n        /* \"contracts/NFTMarketplacePart4.sol\":3396:3412  _removeUserStake */\n      tag_214\n        /* \"contracts/NFTMarketplacePart4.sol\":3396:3433  _removeUserStake(msg.sender, tokenId) */\n      jump\t// in\n    tag_213:\n        /* \"contracts/NFTMarketplacePart4.sol\":3451:3483  NFTUnstaked(msg.sender, tokenId) */\n      mload(0x40)\n        /* \"#utility.yul\":391:416   */\n      dup2\n      dup2\n      mstore\n        /* \"contracts/NFTMarketplacePart4.sol\":3463:3473  msg.sender */\n      caller\n      swap1\n        /* \"contracts/NFTMarketplacePart4.sol\":3451:3483  NFTUnstaked(msg.sender, tokenId) */\n      0x963148346e3c93bb3eb4b4c296e2e13321ff22bf1118c91686cb1bfe4adcd918\n      swap1\n        /* \"#utility.yul\":379:381   */\n      0x20\n        /* \"#utility.yul\":364:382   */\n      add\n        /* \"contracts/NFTMarketplacePart4.sol\":3451:3483  NFTUnstaked(msg.sender, tokenId) */\n      tag_180\n        /* \"#utility.yul\":245:422   */\n      jump\n        /* \"contracts/NFTMarketplacePart4.sol\":5703:6162  function _transferNFT(address from, address to, uint256 tokenId) internal {... */\n    tag_169:\n        /* \"contracts/NFTMarketplacePart4.sol\":5788:5801  nfts[tokenId] */\n      0x00\n      dup2\n      dup2\n      mstore\n        /* \"contracts/NFTMarketplacePart4.sol\":5788:5792  nfts */\n      0x04\n        /* \"contracts/NFTMarketplacePart4.sol\":5788:5801  nfts[tokenId] */\n      0x20\n      swap1\n      dup2\n      mstore\n      0x40\n      dup1\n      dup4\n      keccak256\n        /* \"contracts/NFTMarketplacePart4.sol\":5788:5812  nfts[tokenId].owner = to */\n      dup1\n      sload\n      not(sub(shl(0xa0, 0x01), 0x01))\n      and\n      sub(shl(0xa0, 0x01), 0x01)\n      dup8\n      dup2\n      and\n      swap2\n      swap1\n      swap2\n      or\n      swap1\n      swap2\n      sstore\n        /* \"contracts/NFTMarketplacePart4.sol\":5854:5869  ownedNFTs[from] */\n      dup7\n      and\n      dup4\n      mstore\n        /* \"contracts/NFTMarketplacePart4.sol\":5854:5863  ownedNFTs */\n      0x05\n        /* \"contracts/NFTMarketplacePart4.sol\":5854:5869  ownedNFTs[from] */\n      swap1\n      swap2\n      mstore\n      dup2\n      keccak256\n      swap1\n        /* \"contracts/NFTMarketplacePart4.sol\":5880:6115  for (uint256 i = 0; i < fromList.length; i++) {... */\n    tag_217:\n        /* \"contracts/NFTMarketplacePart4.sol\":5904:5919  fromList.length */\n      dup2\n      sload\n        /* \"contracts/NFTMarketplacePart4.sol\":5900:5919  i < fromList.length */\n      dup2\n      lt\n        /* \"contracts/NFTMarketplacePart4.sol\":5880:6115  for (uint256 i = 0; i < fromList.length; i++) {... */\n      iszero\n      tag_218\n      jumpi\n        /* \"contracts/NFTMarketplacePart4.sol\":5960:5967  tokenId */\n      dup3\n        /* \"contracts/NFTMarketplacePart4.sol\":5945:5953  fromList */\n      dup3\n        /* \"contracts/NFTMarketplacePart4.sol\":5954:5955  i */\n      dup3\n        /* \"contracts/NFTMarketplacePart4.sol\":5945:5956  fromList[i] */\n      dup2\n      sload\n      dup2\n      lt\n      tag_221\n      jumpi\n      tag_221\n      tag_222\n      jump\t// in\n    tag_221:\n      swap1\n      0x00\n      mstore\n      keccak256(0x00, 0x20)\n      add\n      sload\n        /* \"contracts/NFTMarketplacePart4.sol\":5945:5967  fromList[i] == tokenId */\n      sub\n        /* \"contracts/NFTMarketplacePart4.sol\":5941:6104  if (fromList[i] == tokenId) {... */\n      tag_224\n      jumpi\n        /* \"contracts/NFTMarketplacePart4.sol\":6011:6026  fromList.length */\n      dup2\n      sload\n        /* \"contracts/NFTMarketplacePart4.sol\":6002:6010  fromList */\n      dup3\n      swap1\n        /* \"contracts/NFTMarketplacePart4.sol\":6011:6030  fromList.length - 1 */\n      tag_225\n      swap1\n        /* \"contracts/NFTMarketplacePart4.sol\":6029:6030  1 */\n      0x01\n      swap1\n        /* \"contracts/NFTMarketplacePart4.sol\":6011:6030  fromList.length - 1 */\n      tag_135\n      jump\t// in\n    tag_225:\n        /* \"contracts/NFTMarketplacePart4.sol\":6002:6031  fromList[fromList.length - 1] */\n      dup2\n      sload\n      dup2\n      lt\n      tag_227\n      jumpi\n      tag_227\n      tag_222\n      jump\t// in\n    tag_227:\n      swap1\n      0x00\n      mstore\n      keccak256(0x00, 0x20)\n      add\n      sload\n        /* \"contracts/NFTMarketplacePart4.sol\":5988:5996  fromList */\n      dup3\n        /* \"contracts/NFTMarketplacePart4.sol\":5997:5998  i */\n      dup3\n        /* \"contracts/NFTMarketplacePart4.sol\":5988:5999  fromList[i] */\n      dup2\n      sload\n      dup2\n      lt\n      tag_230\n      jumpi\n      tag_230\n      tag_222\n      jump\t// in\n    tag_230:\n      swap1\n      0x00\n      mstore\n      keccak256(0x00, 0x20)\n      add\n        /* \"contracts/NFTMarketplacePart4.sol\":5988:6031  fromList[i] = fromList[fromList.length - 1] */\n      dup2\n      swap1\n      sstore\n      pop\n        /* \"contracts/NFTMarketplacePart4.sol\":6050:6058  fromList */\n      dup2\n        /* \"contracts/NFTMarketplacePart4.sol\":6050:6064  fromList.pop() */\n      dup1\n      sload\n      dup1\n      tag_233\n      jumpi\n      tag_233\n      tag_234\n      jump\t// in\n    tag_233:\n      0x01\n      swap1\n      sub\n      dup2\n      dup2\n      swap1\n      0x00\n      mstore\n      keccak256(0x00, 0x20)\n      add\n      0x00\n      swap1\n      sstore\n      swap1\n      sstore\n        /* \"contracts/NFTMarketplacePart4.sol\":6083:6088  break */\n      jump(tag_218)\n        /* \"contracts/NFTMarketplacePart4.sol\":5941:6104  if (fromList[i] == tokenId) {... */\n    tag_224:\n        /* \"contracts/NFTMarketplacePart4.sol\":5921:5924  i++ */\n      0x01\n      add\n        /* \"contracts/NFTMarketplacePart4.sol\":5880:6115  for (uint256 i = 0; i < fromList.length; i++) {... */\n      jump(tag_217)\n    tag_218:\n      pop\n      pop\n      sub(shl(0xa0, 0x01), 0x01)\n        /* \"contracts/NFTMarketplacePart4.sol\":6127:6140  ownedNFTs[to] */\n      swap1\n      swap2\n      and\n      0x00\n      swap1\n      dup2\n      mstore\n        /* \"contracts/NFTMarketplacePart4.sol\":6127:6136  ownedNFTs */\n      0x05\n        /* \"contracts/NFTMarketplacePart4.sol\":6127:6140  ownedNFTs[to] */\n      0x20\n      swap1\n      dup2\n      mstore\n      0x40\n      dup3\n      keccak256\n        /* \"contracts/NFTMarketplacePart4.sol\":6127:6154  ownedNFTs[to].push(tokenId) */\n      dup1\n      sload\n      0x01\n      dup2\n      add\n      dup3\n      sstore\n      swap1\n      dup4\n      mstore\n      swap2\n      keccak256\n      add\n      sstore\n      pop\n        /* \"contracts/NFTMarketplacePart4.sol\":5703:6162  function _transferNFT(address from, address to, uint256 tokenId) internal {... */\n      jump\t// out\n        /* \"contracts/NFTMarketplacePart4.sol\":3499:3860  function _removeUserStake(address user, uint256 tokenId) internal {... */\n    tag_214:\n      sub(shl(0xa0, 0x01), 0x01)\n        /* \"contracts/NFTMarketplacePart4.sol\":3603:3619  userStakes[user] */\n      dup3\n      and\n        /* \"contracts/NFTMarketplacePart4.sol\":3576:3600  uint256[] storage stakes */\n      0x00\n        /* \"contracts/NFTMarketplacePart4.sol\":3603:3619  userStakes[user] */\n      swap1\n      dup2\n      mstore\n        /* \"contracts/NFTMarketplacePart4.sol\":3603:3613  userStakes */\n      0x08\n        /* \"contracts/NFTMarketplacePart4.sol\":3603:3619  userStakes[user] */\n      0x20\n      mstore\n      0x40\n      dup2\n      keccak256\n      swap1\n        /* \"contracts/NFTMarketplacePart4.sol\":3630:3853  for (uint256 i = 0; i < stakes.length; i++) {... */\n    tag_238:\n        /* \"contracts/NFTMarketplacePart4.sol\":3654:3667  stakes.length */\n      dup2\n      sload\n        /* \"contracts/NFTMarketplacePart4.sol\":3650:3667  i < stakes.length */\n      dup2\n      lt\n        /* \"contracts/NFTMarketplacePart4.sol\":3630:3853  for (uint256 i = 0; i < stakes.length; i++) {... */\n      iszero\n      tag_239\n      jumpi\n        /* \"contracts/NFTMarketplacePart4.sol\":3706:3713  tokenId */\n      dup3\n        /* \"contracts/NFTMarketplacePart4.sol\":3693:3699  stakes */\n      dup3\n        /* \"contracts/NFTMarketplacePart4.sol\":3700:3701  i */\n      dup3\n        /* \"contracts/NFTMarketplacePart4.sol\":3693:3702  stakes[i] */\n      dup2\n      sload\n      dup2\n      lt\n      tag_242\n      jumpi\n      tag_242\n      tag_222\n      jump\t// in\n    tag_242:\n      swap1\n      0x00\n      mstore\n      keccak256(0x00, 0x20)\n      add\n      sload\n        /* \"contracts/NFTMarketplacePart4.sol\":3693:3713  stakes[i] == tokenId */\n      sub\n        /* \"contracts/NFTMarketplacePart4.sol\":3689:3842  if (stakes[i] == tokenId) {... */\n      tag_244\n      jumpi\n        /* \"contracts/NFTMarketplacePart4.sol\":3753:3766  stakes.length */\n      dup2\n      sload\n        /* \"contracts/NFTMarketplacePart4.sol\":3746:3752  stakes */\n      dup3\n      swap1\n        /* \"contracts/NFTMarketplacePart4.sol\":3753:3770  stakes.length - 1 */\n      tag_245\n      swap1\n        /* \"contracts/NFTMarketplacePart4.sol\":3769:3770  1 */\n      0x01\n      swap1\n        /* \"contracts/NFTMarketplacePart4.sol\":3753:3770  stakes.length - 1 */\n      tag_135\n      jump\t// in\n    tag_245:\n        /* \"contracts/NFTMarketplacePart4.sol\":3746:3771  stakes[stakes.length - 1] */\n      dup2\n      sload\n      dup2\n      lt\n      tag_247\n      jumpi\n      tag_247\n      tag_222\n      jump\t// in\n    tag_247:\n      swap1\n      0x00\n      mstore\n      keccak256(0x00, 0x20)\n      add\n      sload\n        /* \"contracts/NFTMarketplacePart4.sol\":3734:3740  stakes */\n      dup3\n        /* \"contracts/NFTMarketplacePart4.sol\":3741:3742  i */\n      dup3\n        /* \"contracts/NFTMarketplacePart4.sol\":3734:3743  stakes[i] */\n      dup2\n      sload\n      dup2\n      lt\n      tag_250\n      jumpi\n      tag_250\n      tag_222\n      jump\t// in\n    tag_250:\n      swap1\n      0x00\n      mstore\n      keccak256(0x00, 0x20)\n      add\n        /* \"contracts/NFTMarketplacePart4.sol\":3734:3771  stakes[i] = stakes[stakes.length - 1] */\n      dup2\n      swap1\n      sstore\n      pop\n        /* \"contracts/NFTMarketplacePart4.sol\":3790:3796  stakes */\n      dup2\n        /* \"contracts/NFTMarketplacePart4.sol\":3790:3802  stakes.pop() */\n      dup1\n      sload\n      dup1\n      tag_253\n      jumpi\n      tag_253\n      tag_234\n      jump\t// in\n    tag_253:\n      0x01\n      swap1\n      sub\n      dup2\n      dup2\n      swap1\n      0x00\n      mstore\n      keccak256(0x00, 0x20)\n      add\n      0x00\n      swap1\n      sstore\n      swap1\n      sstore\n        /* \"contracts/NFTMarketplacePart4.sol\":3821:3826  break */\n      jump(tag_239)\n        /* \"contracts/NFTMarketplacePart4.sol\":3689:3842  if (stakes[i] == tokenId) {... */\n    tag_244:\n        /* \"contracts/NFTMarketplacePart4.sol\":3669:3672  i++ */\n      0x01\n      add\n        /* \"contracts/NFTMarketplacePart4.sol\":3630:3853  for (uint256 i = 0; i < stakes.length; i++) {... */\n      jump(tag_238)\n    tag_239:\n      pop\n        /* \"contracts/NFTMarketplacePart4.sol\":3565:3860  {... */\n      pop\n        /* \"contracts/NFTMarketplacePart4.sol\":3499:3860  function _removeUserStake(address user, uint256 tokenId) internal {... */\n      pop\n      pop\n      jump\t// out\n        /* \"#utility.yul\":14:240   */\n    tag_27:\n        /* \"#utility.yul\":73:79   */\n      0x00\n        /* \"#utility.yul\":126:128   */\n      0x20\n        /* \"#utility.yul\":114:123   */\n      dup3\n        /* \"#utility.yul\":105:112   */\n      dup5\n        /* \"#utility.yul\":101:124   */\n      sub\n        /* \"#utility.yul\":97:129   */\n      slt\n        /* \"#utility.yul\":94:146   */\n      iszero\n      tag_259\n      jumpi\n        /* \"#utility.yul\":142:143   */\n      0x00\n        /* \"#utility.yul\":139:140   */\n      0x00\n        /* \"#utility.yul\":132:144   */\n      revert\n        /* \"#utility.yul\":94:146   */\n    tag_259:\n      pop\n        /* \"#utility.yul\":187:210   */\n      calldataload\n      swap2\n        /* \"#utility.yul\":14:240   */\n      swap1\n      pop\n      jump\t// out\n        /* \"#utility.yul\":427:600   */\n    tag_255:\n        /* \"#utility.yul\":495:515   */\n      dup1\n      calldataload\n      sub(shl(0xa0, 0x01), 0x01)\n        /* \"#utility.yul\":544:575   */\n      dup2\n      and\n        /* \"#utility.yul\":534:576   */\n      dup2\n      eq\n        /* \"#utility.yul\":524:594   */\n      tag_262\n      jumpi\n        /* \"#utility.yul\":590:591   */\n      0x00\n        /* \"#utility.yul\":587:588   */\n      0x00\n        /* \"#utility.yul\":580:592   */\n      revert\n        /* \"#utility.yul\":524:594   */\n    tag_262:\n        /* \"#utility.yul\":427:600   */\n      swap2\n      swap1\n      pop\n      jump\t// out\n        /* \"#utility.yul\":605:905   */\n    tag_35:\n        /* \"#utility.yul\":673:679   */\n      0x00\n        /* \"#utility.yul\":681:687   */\n      0x00\n        /* \"#utility.yul\":734:736   */\n      0x40\n        /* \"#utility.yul\":722:731   */\n      dup4\n        /* \"#utility.yul\":713:720   */\n      dup6\n        /* \"#utility.yul\":709:732   */\n      sub\n        /* \"#utility.yul\":705:737   */\n      slt\n        /* \"#utility.yul\":702:754   */\n      iszero\n      tag_264\n      jumpi\n        /* \"#utility.yul\":750:751   */\n      0x00\n        /* \"#utility.yul\":747:748   */\n      0x00\n        /* \"#utility.yul\":740:752   */\n      revert\n        /* \"#utility.yul\":702:754   */\n    tag_264:\n        /* \"#utility.yul\":773:802   */\n      tag_265\n        /* \"#utility.yul\":792:801   */\n      dup4\n        /* \"#utility.yul\":773:802   */\n      tag_255\n      jump\t// in\n    tag_265:\n        /* \"#utility.yul\":763:802   */\n      swap5\n        /* \"#utility.yul\":871:873   */\n      0x20\n        /* \"#utility.yul\":856:874   */\n      swap4\n      swap1\n      swap4\n      add\n        /* \"#utility.yul\":843:875   */\n      calldataload\n      swap4\n      pop\n      pop\n      pop\n        /* \"#utility.yul\":605:905   */\n      jump\t// out\n        /* \"#utility.yul\":910:1509   */\n    tag_42:\n        /* \"#utility.yul\":1138:1139   */\n      0x01\n        /* \"#utility.yul\":1134:1135   */\n      dup1\n        /* \"#utility.yul\":1129:1132   */\n      0xa0\n        /* \"#utility.yul\":1125:1136   */\n      shl\n        /* \"#utility.yul\":1121:1140   */\n      sub\n        /* \"#utility.yul\":1113:1119   */\n      dup5\n        /* \"#utility.yul\":1109:1141   */\n      and\n        /* \"#utility.yul\":1098:1107   */\n      dup2\n        /* \"#utility.yul\":1091:1142   */\n      mstore\n        /* \"#utility.yul\":1178:1180   */\n      0x60\n        /* \"#utility.yul\":1173:1175   */\n      0x20\n        /* \"#utility.yul\":1162:1171   */\n      dup3\n        /* \"#utility.yul\":1158:1176   */\n      add\n        /* \"#utility.yul\":1151:1181   */\n      mstore\n        /* \"#utility.yul\":1072:1076   */\n      0x00\n        /* \"#utility.yul\":1210:1216   */\n      dup4\n        /* \"#utility.yul\":1204:1217   */\n      mload\n        /* \"#utility.yul\":1253:1259   */\n      dup1\n        /* \"#utility.yul\":1248:1250   */\n      0x60\n        /* \"#utility.yul\":1237:1246   */\n      dup5\n        /* \"#utility.yul\":1233:1251   */\n      add\n        /* \"#utility.yul\":1226:1260   */\n      mstore\n        /* \"#utility.yul\":1313:1319   */\n      dup1\n        /* \"#utility.yul\":1308:1310   */\n      0x20\n        /* \"#utility.yul\":1300:1306   */\n      dup7\n        /* \"#utility.yul\":1296:1311   */\n      add\n        /* \"#utility.yul\":1290:1293   */\n      0x80\n        /* \"#utility.yul\":1279:1288   */\n      dup6\n        /* \"#utility.yul\":1275:1294   */\n      add\n        /* \"#utility.yul\":1269:1320   */\n      mcopy\n        /* \"#utility.yul\":1370:1371   */\n      0x00\n        /* \"#utility.yul\":1364:1367   */\n      0x80\n        /* \"#utility.yul\":1355:1361   */\n      dup3\n        /* \"#utility.yul\":1344:1353   */\n      dup6\n        /* \"#utility.yul\":1340:1362   */\n      add\n        /* \"#utility.yul\":1336:1368   */\n      add\n        /* \"#utility.yul\":1329:1372   */\n      mstore\n        /* \"#utility.yul\":1440:1443   */\n      0x80\n        /* \"#utility.yul\":1433:1435   */\n      0x1f\n        /* \"#utility.yul\":1429:1436   */\n      not\n        /* \"#utility.yul\":1424:1426   */\n      0x1f\n        /* \"#utility.yul\":1416:1422   */\n      dup4\n        /* \"#utility.yul\":1412:1427   */\n      add\n        /* \"#utility.yul\":1408:1437   */\n      and\n        /* \"#utility.yul\":1397:1406   */\n      dup5\n        /* \"#utility.yul\":1393:1438   */\n      add\n        /* \"#utility.yul\":1389:1444   */\n      add\n        /* \"#utility.yul\":1381:1444   */\n      swap2\n      pop\n      pop\n        /* \"#utility.yul\":1494:1500   */\n      dup3\n        /* \"#utility.yul\":1487:1501   */\n      iszero\n        /* \"#utility.yul\":1480:1502   */\n      iszero\n        /* \"#utility.yul\":1475:1477   */\n      0x40\n        /* \"#utility.yul\":1464:1473   */\n      dup4\n        /* \"#utility.yul\":1460:1478   */\n      add\n        /* \"#utility.yul\":1453:1503   */\n      mstore\n        /* \"#utility.yul\":910:1509   */\n      swap5\n      swap4\n      pop\n      pop\n      pop\n      pop\n      jump\t// out\n        /* \"#utility.yul\":1722:2131   */\n    tag_49:\n        /* \"#utility.yul\":1808:1814   */\n      0x00\n        /* \"#utility.yul\":1816:1822   */\n      0x00\n        /* \"#utility.yul\":1824:1830   */\n      0x00\n        /* \"#utility.yul\":1832:1838   */\n      0x00\n        /* \"#utility.yul\":1885:1888   */\n      0x80\n        /* \"#utility.yul\":1873:1882   */\n      dup6\n        /* \"#utility.yul\":1864:1871   */\n      dup8\n        /* \"#utility.yul\":1860:1883   */\n      sub\n        /* \"#utility.yul\":1856:1889   */\n      slt\n        /* \"#utility.yul\":1853:1906   */\n      iszero\n      tag_269\n      jumpi\n        /* \"#utility.yul\":1902:1903   */\n      0x00\n        /* \"#utility.yul\":1899:1900   */\n      0x00\n        /* \"#utility.yul\":1892:1904   */\n      revert\n        /* \"#utility.yul\":1853:1906   */\n    tag_269:\n        /* \"#utility.yul\":1925:1954   */\n      tag_270\n        /* \"#utility.yul\":1944:1953   */\n      dup6\n        /* \"#utility.yul\":1925:1954   */\n      tag_255\n      jump\t// in\n    tag_270:\n        /* \"#utility.yul\":1915:1954   */\n      swap4\n      pop\n        /* \"#utility.yul\":1973:2011   */\n      tag_271\n        /* \"#utility.yul\":2007:2009   */\n      0x20\n        /* \"#utility.yul\":1996:2005   */\n      dup7\n        /* \"#utility.yul\":1992:2010   */\n      add\n        /* \"#utility.yul\":1973:2011   */\n      tag_255\n      jump\t// in\n    tag_271:\n        /* \"#utility.yul\":1963:2011   */\n      swap3\n      pop\n        /* \"#utility.yul\":2030:2068   */\n      tag_272\n        /* \"#utility.yul\":2064:2066   */\n      0x40\n        /* \"#utility.yul\":2053:2062   */\n      dup7\n        /* \"#utility.yul\":2049:2067   */\n      add\n        /* \"#utility.yul\":2030:2068   */\n      tag_255\n      jump\t// in\n    tag_272:\n        /* \"#utility.yul\":2020:2068   */\n      swap2\n      pop\n        /* \"#utility.yul\":2087:2125   */\n      tag_273\n        /* \"#utility.yul\":2121:2123   */\n      0x60\n        /* \"#utility.yul\":2110:2119   */\n      dup7\n        /* \"#utility.yul\":2106:2124   */\n      add\n        /* \"#utility.yul\":2087:2125   */\n      tag_255\n      jump\t// in\n    tag_273:\n        /* \"#utility.yul\":2077:2125   */\n      swap1\n      pop\n        /* \"#utility.yul\":1722:2131   */\n      swap3\n      swap6\n      swap2\n      swap5\n      pop\n      swap3\n      pop\n      jump\t// out\n        /* \"#utility.yul\":2136:2482   */\n    tag_68:\n        /* \"#utility.yul\":2204:2210   */\n      0x00\n        /* \"#utility.yul\":2212:2218   */\n      0x00\n        /* \"#utility.yul\":2265:2267   */\n      0x40\n        /* \"#utility.yul\":2253:2262   */\n      dup4\n        /* \"#utility.yul\":2244:2251   */\n      dup6\n        /* \"#utility.yul\":2240:2263   */\n      sub\n        /* \"#utility.yul\":2236:2268   */\n      slt\n        /* \"#utility.yul\":2233:2285   */\n      iszero\n      tag_275\n      jumpi\n        /* \"#utility.yul\":2281:2282   */\n      0x00\n        /* \"#utility.yul\":2278:2279   */\n      0x00\n        /* \"#utility.yul\":2271:2283   */\n      revert\n        /* \"#utility.yul\":2233:2285   */\n    tag_275:\n      pop\n      pop\n        /* \"#utility.yul\":2326:2349   */\n      dup1\n      calldataload\n      swap3\n        /* \"#utility.yul\":2446:2448   */\n      0x20\n        /* \"#utility.yul\":2431:2449   */\n      swap1\n      swap2\n      add\n        /* \"#utility.yul\":2418:2450   */\n      calldataload\n      swap2\n      pop\n        /* \"#utility.yul\":2136:2482   */\n      jump\t// out\n        /* \"#utility.yul\":3603:3983   */\n    tag_106:\n        /* \"#utility.yul\":3682:3683   */\n      0x01\n        /* \"#utility.yul\":3678:3690   */\n      dup2\n      dup2\n      shr\n      swap1\n        /* \"#utility.yul\":3725:3737   */\n      dup3\n      and\n      dup1\n        /* \"#utility.yul\":3746:3807   */\n      tag_281\n      jumpi\n        /* \"#utility.yul\":3800:3804   */\n      0x7f\n        /* \"#utility.yul\":3792:3798   */\n      dup3\n        /* \"#utility.yul\":3788:3805   */\n      and\n        /* \"#utility.yul\":3778:3805   */\n      swap2\n      pop\n        /* \"#utility.yul\":3746:3807   */\n    tag_281:\n        /* \"#utility.yul\":3853:3855   */\n      0x20\n        /* \"#utility.yul\":3845:3851   */\n      dup3\n        /* \"#utility.yul\":3842:3856   */\n      lt\n        /* \"#utility.yul\":3822:3840   */\n      dup2\n        /* \"#utility.yul\":3819:3857   */\n      sub\n        /* \"#utility.yul\":3816:3977   */\n      tag_282\n      jumpi\n        /* \"#utility.yul\":3899:3909   */\n      0x4e487b71\n        /* \"#utility.yul\":3894:3897   */\n      0xe0\n        /* \"#utility.yul\":3890:3910   */\n      shl\n        /* \"#utility.yul\":3887:3888   */\n      0x00\n        /* \"#utility.yul\":3880:3911   */\n      mstore\n        /* \"#utility.yul\":3934:3938   */\n      0x22\n        /* \"#utility.yul\":3931:3932   */\n      0x04\n        /* \"#utility.yul\":3924:3939   */\n      mstore\n        /* \"#utility.yul\":3962:3966   */\n      0x24\n        /* \"#utility.yul\":3959:3960   */\n      0x00\n        /* \"#utility.yul\":3952:3967   */\n      revert\n        /* \"#utility.yul\":3816:3977   */\n    tag_282:\n      pop\n        /* \"#utility.yul\":3603:3983   */\n      swap2\n      swap1\n      pop\n      jump\t// out\n        /* \"#utility.yul\":5709:5836   */\n    tag_256:\n        /* \"#utility.yul\":5770:5780   */\n      0x4e487b71\n        /* \"#utility.yul\":5765:5768   */\n      0xe0\n        /* \"#utility.yul\":5761:5781   */\n      shl\n        /* \"#utility.yul\":5758:5759   */\n      0x00\n        /* \"#utility.yul\":5751:5782   */\n      mstore\n        /* \"#utility.yul\":5801:5805   */\n      0x11\n        /* \"#utility.yul\":5798:5799   */\n      0x04\n        /* \"#utility.yul\":5791:5806   */\n      mstore\n        /* \"#utility.yul\":5825:5829   */\n      0x24\n        /* \"#utility.yul\":5822:5823   */\n      0x00\n        /* \"#utility.yul\":5815:5830   */\n      revert\n        /* \"#utility.yul\":5841:6009   */\n    tag_129:\n        /* \"#utility.yul\":5914:5923   */\n      dup1\n      dup3\n      mul\n        /* \"#utility.yul\":5945:5954   */\n      dup2\n      iszero\n        /* \"#utility.yul\":5962:5977   */\n      dup3\n      dup3\n      div\n        /* \"#utility.yul\":5956:5978   */\n      dup5\n      eq\n        /* \"#utility.yul\":5942:5979   */\n      or\n        /* \"#utility.yul\":5932:6003   */\n      tag_291\n      jumpi\n        /* \"#utility.yul\":5983:6001   */\n      tag_291\n      tag_256\n      jump\t// in\n    tag_291:\n        /* \"#utility.yul\":5841:6009   */\n      swap3\n      swap2\n      pop\n      pop\n      jump\t// out\n        /* \"#utility.yul\":6014:6231   */\n    tag_131:\n        /* \"#utility.yul\":6054:6055   */\n      0x00\n        /* \"#utility.yul\":6080:6081   */\n      dup3\n        /* \"#utility.yul\":6070:6202   */\n      tag_293\n      jumpi\n        /* \"#utility.yul\":6124:6134   */\n      0x4e487b71\n        /* \"#utility.yul\":6119:6122   */\n      0xe0\n        /* \"#utility.yul\":6115:6135   */\n      shl\n        /* \"#utility.yul\":6112:6113   */\n      0x00\n        /* \"#utility.yul\":6105:6136   */\n      mstore\n        /* \"#utility.yul\":6159:6163   */\n      0x12\n        /* \"#utility.yul\":6156:6157   */\n      0x04\n        /* \"#utility.yul\":6149:6164   */\n      mstore\n        /* \"#utility.yul\":6187:6191   */\n      0x24\n        /* \"#utility.yul\":6184:6185   */\n      0x00\n        /* \"#utility.yul\":6177:6192   */\n      revert\n        /* \"#utility.yul\":6070:6202   */\n    tag_293:\n      pop\n        /* \"#utility.yul\":6216:6225   */\n      div\n      swap1\n        /* \"#utility.yul\":6014:6231   */\n      jump\t// out\n        /* \"#utility.yul\":6236:6364   */\n    tag_135:\n        /* \"#utility.yul\":6303:6312   */\n      dup2\n      dup2\n      sub\n        /* \"#utility.yul\":6324:6335   */\n      dup2\n      dup2\n      gt\n        /* \"#utility.yul\":6321:6358   */\n      iszero\n      tag_291\n      jumpi\n        /* \"#utility.yul\":6338:6356   */\n      tag_291\n      tag_256\n      jump\t// in\n        /* \"#utility.yul\":6745:7022   */\n    tag_142:\n        /* \"#utility.yul\":6812:6818   */\n      0x00\n        /* \"#utility.yul\":6865:6867   */\n      0x20\n        /* \"#utility.yul\":6853:6862   */\n      dup3\n        /* \"#utility.yul\":6844:6851   */\n      dup5\n        /* \"#utility.yul\":6840:6863   */\n      sub\n        /* \"#utility.yul\":6836:6868   */\n      slt\n        /* \"#utility.yul\":6833:6885   */\n      iszero\n      tag_299\n      jumpi\n        /* \"#utility.yul\":6881:6882   */\n      0x00\n        /* \"#utility.yul\":6878:6879   */\n      0x00\n        /* \"#utility.yul\":6871:6883   */\n      revert\n        /* \"#utility.yul\":6833:6885   */\n    tag_299:\n        /* \"#utility.yul\":6913:6922   */\n      dup2\n        /* \"#utility.yul\":6907:6923   */\n      mload\n        /* \"#utility.yul\":6966:6971   */\n      dup1\n        /* \"#utility.yul\":6959:6972   */\n      iszero\n        /* \"#utility.yul\":6952:6973   */\n      iszero\n        /* \"#utility.yul\":6945:6950   */\n      dup2\n        /* \"#utility.yul\":6942:6974   */\n      eq\n        /* \"#utility.yul\":6932:6992   */\n      tag_300\n      jumpi\n        /* \"#utility.yul\":6988:6989   */\n      0x00\n        /* \"#utility.yul\":6985:6986   */\n      0x00\n        /* \"#utility.yul\":6978:6990   */\n      revert\n        /* \"#utility.yul\":6932:6992   */\n    tag_300:\n        /* \"#utility.yul\":7011:7016   */\n      swap4\n        /* \"#utility.yul\":6745:7022   */\n      swap3\n      pop\n      pop\n      pop\n      jump\t// out\n        /* \"#utility.yul\":10985:11112   */\n    tag_222:\n        /* \"#utility.yul\":11046:11056   */\n      0x4e487b71\n        /* \"#utility.yul\":11041:11044   */\n      0xe0\n        /* \"#utility.yul\":11037:11057   */\n      shl\n        /* \"#utility.yul\":11034:11035   */\n      0x00\n        /* \"#utility.yul\":11027:11058   */\n      mstore\n        /* \"#utility.yul\":11077:11081   */\n      0x32\n        /* \"#utility.yul\":11074:11075   */\n      0x04\n        /* \"#utility.yul\":11067:11082   */\n      mstore\n        /* \"#utility.yul\":11101:11105   */\n      0x24\n        /* \"#utility.yul\":11098:11099   */\n      0x00\n        /* \"#utility.yul\":11091:11106   */\n      revert\n        /* \"#utility.yul\":11117:11244   */\n    tag_234:\n        /* \"#utility.yul\":11178:11188   */\n      0x4e487b71\n        /* \"#utility.yul\":11173:11176   */\n      0xe0\n        /* \"#utility.yul\":11169:11189   */\n      shl\n        /* \"#utility.yul\":11166:11167   */\n      0x00\n        /* \"#utility.yul\":11159:11190   */\n      mstore\n        /* \"#utility.yul\":11209:11213   */\n      0x31\n        /* \"#utility.yul\":11206:11207   */\n      0x04\n        /* \"#utility.yul\":11199:11214   */\n      mstore\n        /* \"#utility.yul\":11233:11237   */\n      0x24\n        /* \"#utility.yul\":11230:11231   */\n      0x00\n        /* \"#utility.yul\":11223:11238   */\n      revert\n\n    auxdata: 0xa2646970667358221220afb76d20b7612af20dab77185967bb91cd84209b9928457eed79effb4178ad2964736f6c634300081d0033\n}\n",
				"bytecode": {
					"linkReferences": {},
					"object": "6080604052348015600e575f5ffd5b5061138d8061001c5f395ff3fe608060405234801561000f575f5ffd5b506004361061011c575f3560e01c806370d5ae05116100a9578063b5d5b5fa1161006e578063b5d5b5fa14610251578063b865749d14610264578063bdcafc5514610296578063c1dfa0bb146102a9578063de74e57b146102bc575f5ffd5b806370d5ae05146101f25780638ea5220f1461020557806394383f1414610218578063961f09441461022b578063a6d745121461023e575f5ffd5b80634162169f116100ef5780634162169f1461018657806346fc852e146101b057806351ed8288146101c35780636a1b7ecc146101d65780636eb604e0146101df575f5ffd5b8063131dbd0914610120578063178021e3146101355780631a72b87d14610151578063265aa62114610164575b5f5ffd5b61013361012e366004611156565b61031c565b005b61013e600a5481565b6040519081526020015b60405180910390f35b61013e61015f366004611188565b6103a7565b610177610172366004611156565b6103d2565b604051610148939291906111b0565b5f54610198906001600160a01b031681565b6040516001600160a01b039091168152602001610148565b6101336101be3660046111fd565b610487565b6101336101d1366004611156565b6105fe565b61013e60095481565b6101336101ed366004611156565b610a43565b600254610198906001600160a01b031681565b600154610198906001600160a01b031681565b61013361022636600461124e565b610b50565b610133610239366004611156565b610cf8565b600354610198906001600160a01b031681565b61013e61025f366004611188565b610e08565b610286610272366004611156565b60076020525f908152604090205460ff1681565b6040519015158152602001610148565b6101336102a4366004611156565b610e21565b6101336102b7366004611156565b610ea0565b6102f76102ca366004611156565b60066020525f9081526040902080546001909101546001600160a01b03811690600160a01b900460ff1683565b604080519384526001600160a01b039092166020840152151590820152606001610148565b5f546001600160a01b0316331461036b5760405162461bcd60e51b815260206004820152600e60248201526d139bdd08185d5d1a1bdc9a5e995960921b60448201526064015b60405180910390fd5b60098190556040518181527f5fb4654f1efe30c6141eaa6855ffcb27e0b361d899b05e21b1a4d0b3e71e14db906020015b60405180910390a150565b6005602052815f5260405f2081815481106103c0575f80fd5b905f5260205f20015f91509150505481565b60046020525f9081526040902080546001820180546001600160a01b0390921692916103fd9061126e565b80601f01602080910402602001604051908101604052809291908181526020018280546104299061126e565b80156104745780601f1061044b57610100808354040283529160200191610474565b820191905f5260205f20905b81548152906001019060200180831161045757829003601f168201915b5050506002909301549192505060ff1683565b5f546001600160a01b0316156104d55760405162461bcd60e51b8152602060048201526013602482015272105b1c9958591e481a5b9a5d1a585b1a5e9959606a1b6044820152606401610362565b6001600160a01b0384166105195760405162461bcd60e51b815260206004820152600b60248201526a496e76616c69642044414f60a81b6044820152606401610362565b6001600160a01b0383166105645760405162461bcd60e51b8152602060048201526012602482015271125b9d985b1a590819195d881dd85b1b195d60721b6044820152606401610362565b6001600160a01b0382166105af5760405162461bcd60e51b815260206004820152601260248201527124b73b30b634b210292422a6903a37b5b2b760711b6044820152606401610362565b5f80546001600160a01b039586166001600160a01b0319918216179091556001805494861694821694909417909355600380549285169284169290921790915560028054919093169116179055565b5f818152600660209081526040918290208251606081018452815481526001909101546001600160a01b03811692820192909252600160a01b90910460ff1615159181018290529061067f5760405162461bcd60e51b815260206004820152600a602482015269139bdd081b1a5cdd195960b21b6044820152606401610362565b80515f6127106106908360326112ba565b61069a91906112d7565b90505f6127106106ab8460196112ba565b6106b591906112d7565b90505f816106c384866112f6565b6106cd91906112f6565b6003546040516323b872dd60e01b8152336004820152306024820152604481018790529192506001600160a01b0316906323b872dd906064016020604051808303815f875af1158015610722573d5f5f3e3d5ffd5b505050506040513d601f19601f820116820180604052508101906107469190611309565b6107835760405162461bcd60e51b815260206004820152600e60248201526d14185e5b595b9d0819985a5b195960921b6044820152606401610362565b6003545f8781526004602081905260409182902054915163a9059cbb60e01b81526001600160a01b03928316918101919091526024810184905291169063a9059cbb906044016020604051808303815f875af11580156107e5573d5f5f3e3d5ffd5b505050506040513d601f19601f820116820180604052508101906108099190611309565b61084d5760405162461bcd60e51b815260206004820152601560248201527414d95b1b195c881c185e5b595b9d0819985a5b1959605a1b6044820152606401610362565b60035460025460405163a9059cbb60e01b81526001600160a01b0391821660048201526024810186905291169063a9059cbb906044016020604051808303815f875af115801561089f573d5f5f3e3d5ffd5b505050506040513d601f19601f820116820180604052508101906108c39190611309565b6108fd5760405162461bcd60e51b815260206004820152600b60248201526a109d5c9b8819985a5b195960aa1b6044820152606401610362565b60035460015460405163a9059cbb60e01b81526001600160a01b0391821660048201526024810185905291169063a9059cbb906044016020604051808303815f875af115801561094f573d5f5f3e3d5ffd5b505050506040513d601f19601f820116820180604052508101906109739190611309565b6109b05760405162461bcd60e51b815260206004820152600e60248201526d11195d881999594819985a5b195960921b6044820152606401610362565b5f868152600460205260409020546109d2906001600160a01b03163388610f8c565b5f868152600460209081526040808320600201805460ff191690556006825291829020600101805460ff60a01b19169055815188815290810186905233917f90c126d08c53e7f57ef4e11eb379ae5bc0e2489ee38eeb36ecfcaec81fe04021910160405180910390a2505050505050565b5f818152600460205260409020546001600160a01b03163314610a945760405162461bcd60e51b81526020600482015260096024820152682737ba1037bbb732b960b91b6044820152606401610362565b5f8181526007602052604090205460ff1615610ae35760405162461bcd60e51b815260206004820152600e60248201526d105b1c9958591e481cdd185ad95960921b6044820152606401610362565b5f818152600760209081526040808320805460ff1916600190811790915533808552600884528285208054928301815585529383902001849055518381527f0cda5cf38f6592672c7b4a22ff3d50874d1913629bd5ffedc27b7b40503d60fd91015b60405180910390a250565b5f8281526004602052604090205482906001600160a01b03163314610ba75760405162461bcd60e51b815260206004820152600d60248201526c2737ba103a34329037bbb732b960991b6044820152606401610362565b5f8381526004602052604090206002015460ff1615610bf95760405162461bcd60e51b815260206004820152600e60248201526d105b1c9958591e481b1a5cdd195960921b6044820152606401610362565b5f8211610c3c5760405162461bcd60e51b815260206004820152601160248201527005072696365206d757374206265203e203607c1b6044820152606401610362565b6040805160608101825283815233602080830182815260018486018181525f8a815260068552878120965187559251958201805491511515600160a01b026001600160a81b03199092166001600160a01b039790971696909617179094556004909152839020600201805460ff191690921790915590517fbbf44e68296791df5535457da734bf1017c4b233a740af6d7a89b9f1af4ecb4290610ceb9086908690918252602082015260400190565b60405180910390a2505050565b5f8181526004602052604090205481906001600160a01b03163314610d4f5760405162461bcd60e51b815260206004820152600d60248201526c2737ba103a34329037bbb732b960991b6044820152606401610362565b5f82815260066020526040902060010154600160a01b900460ff16610da35760405162461bcd60e51b815260206004820152600a602482015269139bdd081b1a5cdd195960b21b6044820152606401610362565b5f828152600660209081526040808320600101805460ff60a01b191690556004825291829020600201805460ff1916905590518381527fcd14eb7ebf273ed59a9fd1cf8651f3f40d9a04355b3511376f0d17b37ba224ff910160405180910390a15050565b6008602052815f5260405f2081815481106103c0575f80fd5b5f546001600160a01b03163314610e6b5760405162461bcd60e51b815260206004820152600e60248201526d139bdd08185d5d1a1bdc9a5e995960921b6044820152606401610362565b600a8190556040518181527f3129a3f705510d13754b1b445f0c1156bbf9fd8b88927ebfc2a88bc53189a9fa9060200161039c565b5f818152600460205260409020546001600160a01b03163314610ef15760405162461bcd60e51b81526020600482015260096024820152682737ba1037bbb732b960b91b6044820152606401610362565b5f8181526007602052604090205460ff16610f3b5760405162461bcd60e51b815260206004820152600a602482015269139bdd081cdd185ad95960b21b6044820152606401610362565b5f818152600760205260409020805460ff19169055610f5a3382611096565b60405181815233907f963148346e3c93bb3eb4b4c296e2e13321ff22bf1118c91686cb1bfe4adcd91890602001610b45565b5f81815260046020908152604080832080546001600160a01b0319166001600160a01b03878116919091179091558616835260059091528120905b81548110156110685782828281548110610fe357610fe361132f565b905f5260205f200154036110605781548290611001906001906112f6565b815481106110115761101161132f565b905f5260205f20015482828154811061102c5761102c61132f565b905f5260205f2001819055508180548061104857611048611343565b600190038181905f5260205f20015f90559055611068565b600101610fc7565b50506001600160a01b039091165f908152600560209081526040822080546001810182559083529120015550565b6001600160a01b0382165f908152600860205260408120905b815481101561115057828282815481106110cb576110cb61132f565b905f5260205f2001540361114857815482906110e9906001906112f6565b815481106110f9576110f961132f565b905f5260205f2001548282815481106111145761111461132f565b905f5260205f2001819055508180548061113057611130611343565b600190038181905f5260205f20015f90559055611150565b6001016110af565b50505050565b5f60208284031215611166575f5ffd5b5035919050565b80356001600160a01b0381168114611183575f5ffd5b919050565b5f5f60408385031215611199575f5ffd5b6111a28361116d565b946020939093013593505050565b60018060a01b0384168152606060208201525f83518060608401528060208601608085015e5f608082850101526080601f19601f8301168401019150508215156040830152949350505050565b5f5f5f5f60808587031215611210575f5ffd5b6112198561116d565b93506112276020860161116d565b92506112356040860161116d565b91506112436060860161116d565b905092959194509250565b5f5f6040838503121561125f575f5ffd5b50508035926020909101359150565b600181811c9082168061128257607f821691505b6020821081036112a057634e487b7160e01b5f52602260045260245ffd5b50919050565b634e487b7160e01b5f52601160045260245ffd5b80820281158282048414176112d1576112d16112a6565b92915050565b5f826112f157634e487b7160e01b5f52601260045260245ffd5b500490565b818103818111156112d1576112d16112a6565b5f60208284031215611319575f5ffd5b81518015158114611328575f5ffd5b9392505050565b634e487b7160e01b5f52603260045260245ffd5b634e487b7160e01b5f52603160045260245ffdfea2646970667358221220afb76d20b7612af20dab77185967bb91cd84209b9928457eed79effb4178ad2964736f6c634300081d0033",
					"opcodes": "PUSH1 0x80 PUSH1 0x40 MSTORE CALLVALUE DUP1 ISZERO PUSH1 0xE JUMPI PUSH0 PUSH0 REVERT JUMPDEST POP PUSH2 0x138D DUP1 PUSH2 0x1C PUSH0 CODECOPY PUSH0 RETURN INVALID PUSH1 0x80 PUSH1 0x40 MSTORE CALLVALUE DUP1 ISZERO PUSH2 0xF JUMPI PUSH0 PUSH0 REVERT JUMPDEST POP PUSH1 0x4 CALLDATASIZE LT PUSH2 0x11C JUMPI PUSH0 CALLDATALOAD PUSH1 0xE0 SHR DUP1 PUSH4 0x70D5AE05 GT PUSH2 0xA9 JUMPI DUP1 PUSH4 0xB5D5B5FA GT PUSH2 0x6E JUMPI DUP1 PUSH4 0xB5D5B5FA EQ PUSH2 0x251 JUMPI DUP1 PUSH4 0xB865749D EQ PUSH2 0x264 JUMPI DUP1 PUSH4 0xBDCAFC55 EQ PUSH2 0x296 JUMPI DUP1 PUSH4 0xC1DFA0BB EQ PUSH2 0x2A9 JUMPI DUP1 PUSH4 0xDE74E57B EQ PUSH2 0x2BC JUMPI PUSH0 PUSH0 REVERT JUMPDEST DUP1 PUSH4 0x70D5AE05 EQ PUSH2 0x1F2 JUMPI DUP1 PUSH4 0x8EA5220F EQ PUSH2 0x205 JUMPI DUP1 PUSH4 0x94383F14 EQ PUSH2 0x218 JUMPI DUP1 PUSH4 0x961F0944 EQ PUSH2 0x22B JUMPI DUP1 PUSH4 0xA6D74512 EQ PUSH2 0x23E JUMPI PUSH0 PUSH0 REVERT JUMPDEST DUP1 PUSH4 0x4162169F GT PUSH2 0xEF JUMPI DUP1 PUSH4 0x4162169F EQ PUSH2 0x186 JUMPI DUP1 PUSH4 0x46FC852E EQ PUSH2 0x1B0 JUMPI DUP1 PUSH4 0x51ED8288 EQ PUSH2 0x1C3 JUMPI DUP1 PUSH4 0x6A1B7ECC EQ PUSH2 0x1D6 JUMPI DUP1 PUSH4 0x6EB604E0 EQ PUSH2 0x1DF JUMPI PUSH0 PUSH0 REVERT JUMPDEST DUP1 PUSH4 0x131DBD09 EQ PUSH2 0x120 JUMPI DUP1 PUSH4 0x178021E3 EQ PUSH2 0x135 JUMPI DUP1 PUSH4 0x1A72B87D EQ PUSH2 0x151 JUMPI DUP1 PUSH4 0x265AA621 EQ PUSH2 0x164 JUMPI JUMPDEST PUSH0 PUSH0 REVERT JUMPDEST PUSH2 0x133 PUSH2 0x12E CALLDATASIZE PUSH1 0x4 PUSH2 0x1156 JUMP JUMPDEST PUSH2 0x31C JUMP JUMPDEST STOP JUMPDEST PUSH2 0x13E PUSH1 0xA SLOAD DUP2 JUMP JUMPDEST PUSH1 0x40 MLOAD SWAP1 DUP2 MSTORE PUSH1 0x20 ADD JUMPDEST PUSH1 0x40 MLOAD DUP1 SWAP2 SUB SWAP1 RETURN JUMPDEST PUSH2 0x13E PUSH2 0x15F CALLDATASIZE PUSH1 0x4 PUSH2 0x1188 JUMP JUMPDEST PUSH2 0x3A7 JUMP JUMPDEST PUSH2 0x177 PUSH2 0x172 CALLDATASIZE PUSH1 0x4 PUSH2 0x1156 JUMP JUMPDEST PUSH2 0x3D2 JUMP JUMPDEST PUSH1 0x40 MLOAD PUSH2 0x148 SWAP4 SWAP3 SWAP2 SWAP1 PUSH2 0x11B0 JUMP JUMPDEST PUSH0 SLOAD PUSH2 0x198 SWAP1 PUSH1 0x1 PUSH1 0x1 PUSH1 0xA0 SHL SUB AND DUP2 JUMP JUMPDEST PUSH1 0x40 MLOAD PUSH1 0x1 PUSH1 0x1 PUSH1 0xA0 SHL SUB SWAP1 SWAP2 AND DUP2 MSTORE PUSH1 0x20 ADD PUSH2 0x148 JUMP JUMPDEST PUSH2 0x133 PUSH2 0x1BE CALLDATASIZE PUSH1 0x4 PUSH2 0x11FD JUMP JUMPDEST PUSH2 0x487 JUMP JUMPDEST PUSH2 0x133 PUSH2 0x1D1 CALLDATASIZE PUSH1 0x4 PUSH2 0x1156 JUMP JUMPDEST PUSH2 0x5FE JUMP JUMPDEST PUSH2 0x13E PUSH1 0x9 SLOAD DUP2 JUMP JUMPDEST PUSH2 0x133 PUSH2 0x1ED CALLDATASIZE PUSH1 0x4 PUSH2 0x1156 JUMP JUMPDEST PUSH2 0xA43 JUMP JUMPDEST PUSH1 0x2 SLOAD PUSH2 0x198 SWAP1 PUSH1 0x1 PUSH1 0x1 PUSH1 0xA0 SHL SUB AND DUP2 JUMP JUMPDEST PUSH1 0x1 SLOAD PUSH2 0x198 SWAP1 PUSH1 0x1 PUSH1 0x1 PUSH1 0xA0 SHL SUB AND DUP2 JUMP JUMPDEST PUSH2 0x133 PUSH2 0x226 CALLDATASIZE PUSH1 0x4 PUSH2 0x124E JUMP JUMPDEST PUSH2 0xB50 JUMP JUMPDEST PUSH2 0x133 PUSH2 0x239 CALLDATASIZE PUSH1 0x4 PUSH2 0x1156 JUMP JUMPDEST PUSH2 0xCF8 JUMP JUMPDEST PUSH1 0x3 SLOAD PUSH2 0x198 SWAP1 PUSH1 0x1 PUSH1 0x1 PUSH1 0xA0 SHL SUB AND DUP2 JUMP JUMPDEST PUSH2 0x13E PUSH2 0x25F CALLDATASIZE PUSH1 0x4 PUSH2 0x1188 JUMP JUMPDEST PUSH2 0xE08 JUMP JUMPDEST PUSH2 0x286 PUSH2 0x272 CALLDATASIZE PUSH1 0x4 PUSH2 0x1156 JUMP JUMPDEST PUSH1 0x7 PUSH1 0x20 MSTORE PUSH0 SWAP1 DUP2 MSTORE PUSH1 0x40 SWAP1 KECCAK256 SLOAD PUSH1 0xFF AND DUP2 JUMP JUMPDEST PUSH1 0x40 MLOAD SWAP1 ISZERO ISZERO DUP2 MSTORE PUSH1 0x20 ADD PUSH2 0x148 JUMP JUMPDEST PUSH2 0x133 PUSH2 0x2A4 CALLDATASIZE PUSH1 0x4 PUSH2 0x1156 JUMP JUMPDEST PUSH2 0xE21 JUMP JUMPDEST PUSH2 0x133 PUSH2 0x2B7 CALLDATASIZE PUSH1 0x4 PUSH2 0x1156 JUMP JUMPDEST PUSH2 0xEA0 JUMP JUMPDEST PUSH2 0x2F7 PUSH2 0x2CA CALLDATASIZE PUSH1 0x4 PUSH2 0x1156 JUMP JUMPDEST PUSH1 0x6 PUSH1 0x20 MSTORE PUSH0 SWAP1 DUP2 MSTORE PUSH1 0x40 SWAP1 KECCAK256 DUP1 SLOAD PUSH1 0x1 SWAP1 SWAP2 ADD SLOAD PUSH1 0x1 PUSH1 0x1 PUSH1 0xA0 SHL SUB DUP2 AND SWAP1 PUSH1 0x1 PUSH1 0xA0 SHL SWAP1 DIV PUSH1 0xFF AND DUP4 JUMP JUMPDEST PUSH1 0x40 DUP1 MLOAD SWAP4 DUP5 MSTORE PUSH1 0x1 PUSH1 0x1 PUSH1 0xA0 SHL SUB SWAP1 SWAP3 AND PUSH1 0x20 DUP5 ADD MSTORE ISZERO ISZERO SWAP1 DUP3 ADD MSTORE PUSH1 0x60 ADD PUSH2 0x148 JUMP JUMPDEST PUSH0 SLOAD PUSH1 0x1 PUSH1 0x1 PUSH1 0xA0 SHL SUB AND CALLER EQ PUSH2 0x36B JUMPI PUSH1 0x40 MLOAD PUSH3 0x461BCD PUSH1 0xE5 SHL DUP2 MSTORE PUSH1 0x20 PUSH1 0x4 DUP3 ADD MSTORE PUSH1 0xE PUSH1 0x24 DUP3 ADD MSTORE PUSH14 0x139BDD08185D5D1A1BDC9A5E9959 PUSH1 0x92 SHL PUSH1 0x44 DUP3 ADD MSTORE PUSH1 0x64 ADD JUMPDEST PUSH1 0x40 MLOAD DUP1 SWAP2 SUB SWAP1 REVERT JUMPDEST PUSH1 0x9 DUP2 SWAP1 SSTORE PUSH1 0x40 MLOAD DUP2 DUP2 MSTORE PUSH32 0x5FB4654F1EFE30C6141EAA6855FFCB27E0B361D899B05E21B1A4D0B3E71E14DB SWAP1 PUSH1 0x20 ADD JUMPDEST PUSH1 0x40 MLOAD DUP1 SWAP2 SUB SWAP1 LOG1 POP JUMP JUMPDEST PUSH1 0x5 PUSH1 0x20 MSTORE DUP2 PUSH0 MSTORE PUSH1 0x40 PUSH0 KECCAK256 DUP2 DUP2 SLOAD DUP2 LT PUSH2 0x3C0 JUMPI PUSH0 DUP1 REVERT JUMPDEST SWAP1 PUSH0 MSTORE PUSH1 0x20 PUSH0 KECCAK256 ADD PUSH0 SWAP2 POP SWAP2 POP POP SLOAD DUP2 JUMP JUMPDEST PUSH1 0x4 PUSH1 0x20 MSTORE PUSH0 SWAP1 DUP2 MSTORE PUSH1 0x40 SWAP1 KECCAK256 DUP1 SLOAD PUSH1 0x1 DUP3 ADD DUP1 SLOAD PUSH1 0x1 PUSH1 0x1 PUSH1 0xA0 SHL SUB SWAP1 SWAP3 AND SWAP3 SWAP2 PUSH2 0x3FD SWAP1 PUSH2 0x126E JUMP JUMPDEST DUP1 PUSH1 0x1F ADD PUSH1 0x20 DUP1 SWAP2 DIV MUL PUSH1 0x20 ADD PUSH1 0x40 MLOAD SWAP1 DUP2 ADD PUSH1 0x40 MSTORE DUP1 SWAP3 SWAP2 SWAP1 DUP2 DUP2 MSTORE PUSH1 0x20 ADD DUP3 DUP1 SLOAD PUSH2 0x429 SWAP1 PUSH2 0x126E JUMP JUMPDEST DUP1 ISZERO PUSH2 0x474 JUMPI DUP1 PUSH1 0x1F LT PUSH2 0x44B JUMPI PUSH2 0x100 DUP1 DUP4 SLOAD DIV MUL DUP4 MSTORE SWAP2 PUSH1 0x20 ADD SWAP2 PUSH2 0x474 JUMP JUMPDEST DUP3 ADD SWAP2 SWAP1 PUSH0 MSTORE PUSH1 0x20 PUSH0 KECCAK256 SWAP1 JUMPDEST DUP2 SLOAD DUP2 MSTORE SWAP1 PUSH1 0x1 ADD SWAP1 PUSH1 0x20 ADD DUP1 DUP4 GT PUSH2 0x457 JUMPI DUP3 SWAP1 SUB PUSH1 0x1F AND DUP3 ADD SWAP2 JUMPDEST POP POP POP PUSH1 0x2 SWAP1 SWAP4 ADD SLOAD SWAP2 SWAP3 POP POP PUSH1 0xFF AND DUP4 JUMP JUMPDEST PUSH0 SLOAD PUSH1 0x1 PUSH1 0x1 PUSH1 0xA0 SHL SUB AND ISZERO PUSH2 0x4D5 JUMPI PUSH1 0x40 MLOAD PUSH3 0x461BCD PUSH1 0xE5 SHL DUP2 MSTORE PUSH1 0x20 PUSH1 0x4 DUP3 ADD MSTORE PUSH1 0x13 PUSH1 0x24 DUP3 ADD MSTORE PUSH19 0x105B1C9958591E481A5B9A5D1A585B1A5E9959 PUSH1 0x6A SHL PUSH1 0x44 DUP3 ADD MSTORE PUSH1 0x64 ADD PUSH2 0x362 JUMP JUMPDEST PUSH1 0x1 PUSH1 0x1 PUSH1 0xA0 SHL SUB DUP5 AND PUSH2 0x519 JUMPI PUSH1 0x40 MLOAD PUSH3 0x461BCD PUSH1 0xE5 SHL DUP2 MSTORE PUSH1 0x20 PUSH1 0x4 DUP3 ADD MSTORE PUSH1 0xB PUSH1 0x24 DUP3 ADD MSTORE PUSH11 0x496E76616C69642044414F PUSH1 0xA8 SHL PUSH1 0x44 DUP3 ADD MSTORE PUSH1 0x64 ADD PUSH2 0x362 JUMP JUMPDEST PUSH1 0x1 PUSH1 0x1 PUSH1 0xA0 SHL SUB DUP4 AND PUSH2 0x564 JUMPI PUSH1 0x40 MLOAD PUSH3 0x461BCD PUSH1 0xE5 SHL DUP2 MSTORE PUSH1 0x20 PUSH1 0x4 DUP3 ADD MSTORE PUSH1 0x12 PUSH1 0x24 DUP3 ADD MSTORE PUSH18 0x125B9D985B1A590819195D881DD85B1B195D PUSH1 0x72 SHL PUSH1 0x44 DUP3 ADD MSTORE PUSH1 0x64 ADD PUSH2 0x362 JUMP JUMPDEST PUSH1 0x1 PUSH1 0x1 PUSH1 0xA0 SHL SUB DUP3 AND PUSH2 0x5AF JUMPI PUSH1 0x40 MLOAD PUSH3 0x461BCD PUSH1 0xE5 SHL DUP2 MSTORE PUSH1 0x20 PUSH1 0x4 DUP3 ADD MSTORE PUSH1 0x12 PUSH1 0x24 DUP3 ADD MSTORE PUSH18 0x24B73B30B634B210292422A6903A37B5B2B7 PUSH1 0x71 SHL PUSH1 0x44 DUP3 ADD MSTORE PUSH1 0x64 ADD PUSH2 0x362 JUMP JUMPDEST PUSH0 DUP1 SLOAD PUSH1 0x1 PUSH1 0x1 PUSH1 0xA0 SHL SUB SWAP6 DUP7 AND PUSH1 0x1 PUSH1 0x1 PUSH1 0xA0 SHL SUB NOT SWAP2 DUP3 AND OR SWAP1 SWAP2 SSTORE PUSH1 0x1 DUP1 SLOAD SWAP5 DUP7 AND SWAP5 DUP3 AND SWAP5 SWAP1 SWAP5 OR SWAP1 SWAP4 SSTORE PUSH1 0x3 DUP1 SLOAD SWAP3 DUP6 AND SWAP3 DUP5 AND SWAP3 SWAP1 SWAP3 OR SWAP1 SWAP2 SSTORE PUSH1 0x2 DUP1 SLOAD SWAP2 SWAP1 SWAP4 AND SWAP2 AND OR SWAP1 SSTORE JUMP JUMPDEST PUSH0 DUP2 DUP2 MSTORE PUSH1 0x6 PUSH1 0x20 SWAP1 DUP2 MSTORE PUSH1 0x40 SWAP2 DUP3 SWAP1 KECCAK256 DUP3 MLOAD PUSH1 0x60 DUP2 ADD DUP5 MSTORE DUP2 SLOAD DUP2 MSTORE PUSH1 0x1 SWAP1 SWAP2 ADD SLOAD PUSH1 0x1 PUSH1 0x1 PUSH1 0xA0 SHL SUB DUP2 AND SWAP3 DUP3 ADD SWAP3 SWAP1 SWAP3 MSTORE PUSH1 0x1 PUSH1 0xA0 SHL SWAP1 SWAP2 DIV PUSH1 0xFF AND ISZERO ISZERO SWAP2 DUP2 ADD DUP3 SWAP1 MSTORE SWAP1 PUSH2 0x67F JUMPI PUSH1 0x40 MLOAD PUSH3 0x461BCD PUSH1 0xE5 SHL DUP2 MSTORE PUSH1 0x20 PUSH1 0x4 DUP3 ADD MSTORE PUSH1 0xA PUSH1 0x24 DUP3 ADD MSTORE PUSH10 0x139BDD081B1A5CDD1959 PUSH1 0xB2 SHL PUSH1 0x44 DUP3 ADD MSTORE PUSH1 0x64 ADD PUSH2 0x362 JUMP JUMPDEST DUP1 MLOAD PUSH0 PUSH2 0x2710 PUSH2 0x690 DUP4 PUSH1 0x32 PUSH2 0x12BA JUMP JUMPDEST PUSH2 0x69A SWAP2 SWAP1 PUSH2 0x12D7 JUMP JUMPDEST SWAP1 POP PUSH0 PUSH2 0x2710 PUSH2 0x6AB DUP5 PUSH1 0x19 PUSH2 0x12BA JUMP JUMPDEST PUSH2 0x6B5 SWAP2 SWAP1 PUSH2 0x12D7 JUMP JUMPDEST SWAP1 POP PUSH0 DUP2 PUSH2 0x6C3 DUP5 DUP7 PUSH2 0x12F6 JUMP JUMPDEST PUSH2 0x6CD SWAP2 SWAP1 PUSH2 0x12F6 JUMP JUMPDEST PUSH1 0x3 SLOAD PUSH1 0x40 MLOAD PUSH4 0x23B872DD PUSH1 0xE0 SHL DUP2 MSTORE CALLER PUSH1 0x4 DUP3 ADD MSTORE ADDRESS PUSH1 0x24 DUP3 ADD MSTORE PUSH1 0x44 DUP2 ADD DUP8 SWAP1 MSTORE SWAP2 SWAP3 POP PUSH1 0x1 PUSH1 0x1 PUSH1 0xA0 SHL SUB AND SWAP1 PUSH4 0x23B872DD SWAP1 PUSH1 0x64 ADD PUSH1 0x20 PUSH1 0x40 MLOAD DUP1 DUP4 SUB DUP2 PUSH0 DUP8 GAS CALL ISZERO DUP1 ISZERO PUSH2 0x722 JUMPI RETURNDATASIZE PUSH0 PUSH0 RETURNDATACOPY RETURNDATASIZE PUSH0 REVERT JUMPDEST POP POP POP POP PUSH1 0x40 MLOAD RETURNDATASIZE PUSH1 0x1F NOT PUSH1 0x1F DUP3 ADD AND DUP3 ADD DUP1 PUSH1 0x40 MSTORE POP DUP2 ADD SWAP1 PUSH2 0x746 SWAP2 SWAP1 PUSH2 0x1309 JUMP JUMPDEST PUSH2 0x783 JUMPI PUSH1 0x40 MLOAD PUSH3 0x461BCD PUSH1 0xE5 SHL DUP2 MSTORE PUSH1 0x20 PUSH1 0x4 DUP3 ADD MSTORE PUSH1 0xE PUSH1 0x24 DUP3 ADD MSTORE PUSH14 0x14185E5B595B9D0819985A5B1959 PUSH1 0x92 SHL PUSH1 0x44 DUP3 ADD MSTORE PUSH1 0x64 ADD PUSH2 0x362 JUMP JUMPDEST PUSH1 0x3 SLOAD PUSH0 DUP8 DUP2 MSTORE PUSH1 0x4 PUSH1 0x20 DUP2 SWAP1 MSTORE PUSH1 0x40 SWAP2 DUP3 SWAP1 KECCAK256 SLOAD SWAP2 MLOAD PUSH4 0xA9059CBB PUSH1 0xE0 SHL DUP2 MSTORE PUSH1 0x1 PUSH1 0x1 PUSH1 0xA0 SHL SUB SWAP3 DUP4 AND SWAP2 DUP2 ADD SWAP2 SWAP1 SWAP2 MSTORE PUSH1 0x24 DUP2 ADD DUP5 SWAP1 MSTORE SWAP2 AND SWAP1 PUSH4 0xA9059CBB SWAP1 PUSH1 0x44 ADD PUSH1 0x20 PUSH1 0x40 MLOAD DUP1 DUP4 SUB DUP2 PUSH0 DUP8 GAS CALL ISZERO DUP1 ISZERO PUSH2 0x7E5 JUMPI RETURNDATASIZE PUSH0 PUSH0 RETURNDATACOPY RETURNDATASIZE PUSH0 REVERT JUMPDEST POP POP POP POP PUSH1 0x40 MLOAD RETURNDATASIZE PUSH1 0x1F NOT PUSH1 0x1F DUP3 ADD AND DUP3 ADD DUP1 PUSH1 0x40 MSTORE POP DUP2 ADD SWAP1 PUSH2 0x809 SWAP2 SWAP1 PUSH2 0x1309 JUMP JUMPDEST PUSH2 0x84D JUMPI PUSH1 0x40 MLOAD PUSH3 0x461BCD PUSH1 0xE5 SHL DUP2 MSTORE PUSH1 0x20 PUSH1 0x4 DUP3 ADD MSTORE PUSH1 0x15 PUSH1 0x24 DUP3 ADD MSTORE PUSH21 0x14D95B1B195C881C185E5B595B9D0819985A5B1959 PUSH1 0x5A SHL PUSH1 0x44 DUP3 ADD MSTORE PUSH1 0x64 ADD PUSH2 0x362 JUMP JUMPDEST PUSH1 0x3 SLOAD PUSH1 0x2 SLOAD PUSH1 0x40 MLOAD PUSH4 0xA9059CBB PUSH1 0xE0 SHL DUP2 MSTORE PUSH1 0x1 PUSH1 0x1 PUSH1 0xA0 SHL SUB SWAP2 DUP3 AND PUSH1 0x4 DUP3 ADD MSTORE PUSH1 0x24 DUP2 ADD DUP7 SWAP1 MSTORE SWAP2 AND SWAP1 PUSH4 0xA9059CBB SWAP1 PUSH1 0x44 ADD PUSH1 0x20 PUSH1 0x40 MLOAD DUP1 DUP4 SUB DUP2 PUSH0 DUP8 GAS CALL ISZERO DUP1 ISZERO PUSH2 0x89F JUMPI RETURNDATASIZE PUSH0 PUSH0 RETURNDATACOPY RETURNDATASIZE PUSH0 REVERT JUMPDEST POP POP POP POP PUSH1 0x40 MLOAD RETURNDATASIZE PUSH1 0x1F NOT PUSH1 0x1F DUP3 ADD AND DUP3 ADD DUP1 PUSH1 0x40 MSTORE POP DUP2 ADD SWAP1 PUSH2 0x8C3 SWAP2 SWAP1 PUSH2 0x1309 JUMP JUMPDEST PUSH2 0x8FD JUMPI PUSH1 0x40 MLOAD PUSH3 0x461BCD PUSH1 0xE5 SHL DUP2 MSTORE PUSH1 0x20 PUSH1 0x4 DUP3 ADD MSTORE PUSH1 0xB PUSH1 0x24 DUP3 ADD MSTORE PUSH11 0x109D5C9B8819985A5B1959 PUSH1 0xAA SHL PUSH1 0x44 DUP3 ADD MSTORE PUSH1 0x64 ADD PUSH2 0x362 JUMP JUMPDEST PUSH1 0x3 SLOAD PUSH1 0x1 SLOAD PUSH1 0x40 MLOAD PUSH4 0xA9059CBB PUSH1 0xE0 SHL DUP2 MSTORE PUSH1 0x1 PUSH1 0x1 PUSH1 0xA0 SHL SUB SWAP2 DUP3 AND PUSH1 0x4 DUP3 ADD MSTORE PUSH1 0x24 DUP2 ADD DUP6 SWAP1 MSTORE SWAP2 AND SWAP1 PUSH4 0xA9059CBB SWAP1 PUSH1 0x44 ADD PUSH1 0x20 PUSH1 0x40 MLOAD DUP1 DUP4 SUB DUP2 PUSH0 DUP8 GAS CALL ISZERO DUP1 ISZERO PUSH2 0x94F JUMPI RETURNDATASIZE PUSH0 PUSH0 RETURNDATACOPY RETURNDATASIZE PUSH0 REVERT JUMPDEST POP POP POP POP PUSH1 0x40 MLOAD RETURNDATASIZE PUSH1 0x1F NOT PUSH1 0x1F DUP3 ADD AND DUP3 ADD DUP1 PUSH1 0x40 MSTORE POP DUP2 ADD SWAP1 PUSH2 0x973 SWAP2 SWAP1 PUSH2 0x1309 JUMP JUMPDEST PUSH2 0x9B0 JUMPI PUSH1 0x40 MLOAD PUSH3 0x461BCD PUSH1 0xE5 SHL DUP2 MSTORE PUSH1 0x20 PUSH1 0x4 DUP3 ADD MSTORE PUSH1 0xE PUSH1 0x24 DUP3 ADD MSTORE PUSH14 0x11195D881999594819985A5B1959 PUSH1 0x92 SHL PUSH1 0x44 DUP3 ADD MSTORE PUSH1 0x64 ADD PUSH2 0x362 JUMP JUMPDEST PUSH0 DUP7 DUP2 MSTORE PUSH1 0x4 PUSH1 0x20 MSTORE PUSH1 0x40 SWAP1 KECCAK256 SLOAD PUSH2 0x9D2 SWAP1 PUSH1 0x1 PUSH1 0x1 PUSH1 0xA0 SHL SUB AND CALLER DUP9 PUSH2 0xF8C JUMP JUMPDEST PUSH0 DUP7 DUP2 MSTORE PUSH1 0x4 PUSH1 0x20 SWAP1 DUP2 MSTORE PUSH1 0x40 DUP1 DUP4 KECCAK256 PUSH1 0x2 ADD DUP1 SLOAD PUSH1 0xFF NOT AND SWAP1 SSTORE PUSH1 0x6 DUP3 MSTORE SWAP2 DUP3 SWAP1 KECCAK256 PUSH1 0x1 ADD DUP1 SLOAD PUSH1 0xFF PUSH1 0xA0 SHL NOT AND SWAP1 SSTORE DUP2 MLOAD DUP9 DUP2 MSTORE SWAP1 DUP2 ADD DUP7 SWAP1 MSTORE CALLER SWAP2 PUSH32 0x90C126D08C53E7F57EF4E11EB379AE5BC0E2489EE38EEB36ECFCAEC81FE04021 SWAP2 ADD PUSH1 0x40 MLOAD DUP1 SWAP2 SUB SWAP1 LOG2 POP POP POP POP POP POP JUMP JUMPDEST PUSH0 DUP2 DUP2 MSTORE PUSH1 0x4 PUSH1 0x20 MSTORE PUSH1 0x40 SWAP1 KECCAK256 SLOAD PUSH1 0x1 PUSH1 0x1 PUSH1 0xA0 SHL SUB AND CALLER EQ PUSH2 0xA94 JUMPI PUSH1 0x40 MLOAD PUSH3 0x461BCD PUSH1 0xE5 SHL DUP2 MSTORE PUSH1 0x20 PUSH1 0x4 DUP3 ADD MSTORE PUSH1 0x9 PUSH1 0x24 DUP3 ADD MSTORE PUSH9 0x2737BA1037BBB732B9 PUSH1 0xB9 SHL PUSH1 0x44 DUP3 ADD MSTORE PUSH1 0x64 ADD PUSH2 0x362 JUMP JUMPDEST PUSH0 DUP2 DUP2 MSTORE PUSH1 0x7 PUSH1 0x20 MSTORE PUSH1 0x40 SWAP1 KECCAK256 SLOAD PUSH1 0xFF AND ISZERO PUSH2 0xAE3 JUMPI PUSH1 0x40 MLOAD PUSH3 0x461BCD PUSH1 0xE5 SHL DUP2 MSTORE PUSH1 0x20 PUSH1 0x4 DUP3 ADD MSTORE PUSH1 0xE PUSH1 0x24 DUP3 ADD MSTORE PUSH14 0x105B1C9958591E481CDD185AD959 PUSH1 0x92 SHL PUSH1 0x44 DUP3 ADD MSTORE PUSH1 0x64 ADD PUSH2 0x362 JUMP JUMPDEST PUSH0 DUP2 DUP2 MSTORE PUSH1 0x7 PUSH1 0x20 SWAP1 DUP2 MSTORE PUSH1 0x40 DUP1 DUP4 KECCAK256 DUP1 SLOAD PUSH1 0xFF NOT AND PUSH1 0x1 SWAP1 DUP2 OR SWAP1 SWAP2 SSTORE CALLER DUP1 DUP6 MSTORE PUSH1 0x8 DUP5 MSTORE DUP3 DUP6 KECCAK256 DUP1 SLOAD SWAP3 DUP4 ADD DUP2 SSTORE DUP6 MSTORE SWAP4 DUP4 SWAP1 KECCAK256 ADD DUP5 SWAP1 SSTORE MLOAD DUP4 DUP2 MSTORE PUSH32 0xCDA5CF38F6592672C7B4A22FF3D50874D1913629BD5FFEDC27B7B40503D60FD SWAP2 ADD JUMPDEST PUSH1 0x40 MLOAD DUP1 SWAP2 SUB SWAP1 LOG2 POP JUMP JUMPDEST PUSH0 DUP3 DUP2 MSTORE PUSH1 0x4 PUSH1 0x20 MSTORE PUSH1 0x40 SWAP1 KECCAK256 SLOAD DUP3 SWAP1 PUSH1 0x1 PUSH1 0x1 PUSH1 0xA0 SHL SUB AND CALLER EQ PUSH2 0xBA7 JUMPI PUSH1 0x40 MLOAD PUSH3 0x461BCD PUSH1 0xE5 SHL DUP2 MSTORE PUSH1 0x20 PUSH1 0x4 DUP3 ADD MSTORE PUSH1 0xD PUSH1 0x24 DUP3 ADD MSTORE PUSH13 0x2737BA103A34329037BBB732B9 PUSH1 0x99 SHL PUSH1 0x44 DUP3 ADD MSTORE PUSH1 0x64 ADD PUSH2 0x362 JUMP JUMPDEST PUSH0 DUP4 DUP2 MSTORE PUSH1 0x4 PUSH1 0x20 MSTORE PUSH1 0x40 SWAP1 KECCAK256 PUSH1 0x2 ADD SLOAD PUSH1 0xFF AND ISZERO PUSH2 0xBF9 JUMPI PUSH1 0x40 MLOAD PUSH3 0x461BCD PUSH1 0xE5 SHL DUP2 MSTORE PUSH1 0x20 PUSH1 0x4 DUP3 ADD MSTORE PUSH1 0xE PUSH1 0x24 DUP3 ADD MSTORE PUSH14 0x105B1C9958591E481B1A5CDD1959 PUSH1 0x92 SHL PUSH1 0x44 DUP3 ADD MSTORE PUSH1 0x64 ADD PUSH2 0x362 JUMP JUMPDEST PUSH0 DUP3 GT PUSH2 0xC3C JUMPI PUSH1 0x40 MLOAD PUSH3 0x461BCD PUSH1 0xE5 SHL DUP2 MSTORE PUSH1 0x20 PUSH1 0x4 DUP3 ADD MSTORE PUSH1 0x11 PUSH1 0x24 DUP3 ADD MSTORE PUSH17 0x5072696365206D757374206265203E203 PUSH1 0x7C SHL PUSH1 0x44 DUP3 ADD MSTORE PUSH1 0x64 ADD PUSH2 0x362 JUMP JUMPDEST PUSH1 0x40 DUP1 MLOAD PUSH1 0x60 DUP2 ADD DUP3 MSTORE DUP4 DUP2 MSTORE CALLER PUSH1 0x20 DUP1 DUP4 ADD DUP3 DUP2 MSTORE PUSH1 0x1 DUP5 DUP7 ADD DUP2 DUP2 MSTORE PUSH0 DUP11 DUP2 MSTORE PUSH1 0x6 DUP6 MSTORE DUP8 DUP2 KECCAK256 SWAP7 MLOAD DUP8 SSTORE SWAP3 MLOAD SWAP6 DUP3 ADD DUP1 SLOAD SWAP2 MLOAD ISZERO ISZERO PUSH1 0x1 PUSH1 0xA0 SHL MUL PUSH1 0x1 PUSH1 0x1 PUSH1 0xA8 SHL SUB NOT SWAP1 SWAP3 AND PUSH1 0x1 PUSH1 0x1 PUSH1 0xA0 SHL SUB SWAP8 SWAP1 SWAP8 AND SWAP7 SWAP1 SWAP7 OR OR SWAP1 SWAP5 SSTORE PUSH1 0x4 SWAP1 SWAP2 MSTORE DUP4 SWAP1 KECCAK256 PUSH1 0x2 ADD DUP1 SLOAD PUSH1 0xFF NOT AND SWAP1 SWAP3 OR SWAP1 SWAP2 SSTORE SWAP1 MLOAD PUSH32 0xBBF44E68296791DF5535457DA734BF1017C4B233A740AF6D7A89B9F1AF4ECB42 SWAP1 PUSH2 0xCEB SWAP1 DUP7 SWAP1 DUP7 SWAP1 SWAP2 DUP3 MSTORE PUSH1 0x20 DUP3 ADD MSTORE PUSH1 0x40 ADD SWAP1 JUMP JUMPDEST PUSH1 0x40 MLOAD DUP1 SWAP2 SUB SWAP1 LOG2 POP POP POP JUMP JUMPDEST PUSH0 DUP2 DUP2 MSTORE PUSH1 0x4 PUSH1 0x20 MSTORE PUSH1 0x40 SWAP1 KECCAK256 SLOAD DUP2 SWAP1 PUSH1 0x1 PUSH1 0x1 PUSH1 0xA0 SHL SUB AND CALLER EQ PUSH2 0xD4F JUMPI PUSH1 0x40 MLOAD PUSH3 0x461BCD PUSH1 0xE5 SHL DUP2 MSTORE PUSH1 0x20 PUSH1 0x4 DUP3 ADD MSTORE PUSH1 0xD PUSH1 0x24 DUP3 ADD MSTORE PUSH13 0x2737BA103A34329037BBB732B9 PUSH1 0x99 SHL PUSH1 0x44 DUP3 ADD MSTORE PUSH1 0x64 ADD PUSH2 0x362 JUMP JUMPDEST PUSH0 DUP3 DUP2 MSTORE PUSH1 0x6 PUSH1 0x20 MSTORE PUSH1 0x40 SWAP1 KECCAK256 PUSH1 0x1 ADD SLOAD PUSH1 0x1 PUSH1 0xA0 SHL SWAP1 DIV PUSH1 0xFF AND PUSH2 0xDA3 JUMPI PUSH1 0x40 MLOAD PUSH3 0x461BCD PUSH1 0xE5 SHL DUP2 MSTORE PUSH1 0x20 PUSH1 0x4 DUP3 ADD MSTORE PUSH1 0xA PUSH1 0x24 DUP3 ADD MSTORE PUSH10 0x139BDD081B1A5CDD1959 PUSH1 0xB2 SHL PUSH1 0x44 DUP3 ADD MSTORE PUSH1 0x64 ADD PUSH2 0x362 JUMP JUMPDEST PUSH0 DUP3 DUP2 MSTORE PUSH1 0x6 PUSH1 0x20 SWAP1 DUP2 MSTORE PUSH1 0x40 DUP1 DUP4 KECCAK256 PUSH1 0x1 ADD DUP1 SLOAD PUSH1 0xFF PUSH1 0xA0 SHL NOT AND SWAP1 SSTORE PUSH1 0x4 DUP3 MSTORE SWAP2 DUP3 SWAP1 KECCAK256 PUSH1 0x2 ADD DUP1 SLOAD PUSH1 0xFF NOT AND SWAP1 SSTORE SWAP1 MLOAD DUP4 DUP2 MSTORE PUSH32 0xCD14EB7EBF273ED59A9FD1CF8651F3F40D9A04355B3511376F0D17B37BA224FF SWAP2 ADD PUSH1 0x40 MLOAD DUP1 SWAP2 SUB SWAP1 LOG1 POP POP JUMP JUMPDEST PUSH1 0x8 PUSH1 0x20 MSTORE DUP2 PUSH0 MSTORE PUSH1 0x40 PUSH0 KECCAK256 DUP2 DUP2 SLOAD DUP2 LT PUSH2 0x3C0 JUMPI PUSH0 DUP1 REVERT JUMPDEST PUSH0 SLOAD PUSH1 0x1 PUSH1 0x1 PUSH1 0xA0 SHL SUB AND CALLER EQ PUSH2 0xE6B JUMPI PUSH1 0x40 MLOAD PUSH3 0x461BCD PUSH1 0xE5 SHL DUP2 MSTORE PUSH1 0x20 PUSH1 0x4 DUP3 ADD MSTORE PUSH1 0xE PUSH1 0x24 DUP3 ADD MSTORE PUSH14 0x139BDD08185D5D1A1BDC9A5E9959 PUSH1 0x92 SHL PUSH1 0x44 DUP3 ADD MSTORE PUSH1 0x64 ADD PUSH2 0x362 JUMP JUMPDEST PUSH1 0xA DUP2 SWAP1 SSTORE PUSH1 0x40 MLOAD DUP2 DUP2 MSTORE PUSH32 0x3129A3F705510D13754B1B445F0C1156BBF9FD8B88927EBFC2A88BC53189A9FA SWAP1 PUSH1 0x20 ADD PUSH2 0x39C JUMP JUMPDEST PUSH0 DUP2 DUP2 MSTORE PUSH1 0x4 PUSH1 0x20 MSTORE PUSH1 0x40 SWAP1 KECCAK256 SLOAD PUSH1 0x1 PUSH1 0x1 PUSH1 0xA0 SHL SUB AND CALLER EQ PUSH2 0xEF1 JUMPI PUSH1 0x40 MLOAD PUSH3 0x461BCD PUSH1 0xE5 SHL DUP2 MSTORE PUSH1 0x20 PUSH1 0x4 DUP3 ADD MSTORE PUSH1 0x9 PUSH1 0x24 DUP3 ADD MSTORE PUSH9 0x2737BA1037BBB732B9 PUSH1 0xB9 SHL PUSH1 0x44 DUP3 ADD MSTORE PUSH1 0x64 ADD PUSH2 0x362 JUMP JUMPDEST PUSH0 DUP2 DUP2 MSTORE PUSH1 0x7 PUSH1 0x20 MSTORE PUSH1 0x40 SWAP1 KECCAK256 SLOAD PUSH1 0xFF AND PUSH2 0xF3B JUMPI PUSH1 0x40 MLOAD PUSH3 0x461BCD PUSH1 0xE5 SHL DUP2 MSTORE PUSH1 0x20 PUSH1 0x4 DUP3 ADD MSTORE PUSH1 0xA PUSH1 0x24 DUP3 ADD MSTORE PUSH10 0x139BDD081CDD185AD959 PUSH1 0xB2 SHL PUSH1 0x44 DUP3 ADD MSTORE PUSH1 0x64 ADD PUSH2 0x362 JUMP JUMPDEST PUSH0 DUP2 DUP2 MSTORE PUSH1 0x7 PUSH1 0x20 MSTORE PUSH1 0x40 SWAP1 KECCAK256 DUP1 SLOAD PUSH1 0xFF NOT AND SWAP1 SSTORE PUSH2 0xF5A CALLER DUP3 PUSH2 0x1096 JUMP JUMPDEST PUSH1 0x40 MLOAD DUP2 DUP2 MSTORE CALLER SWAP1 PUSH32 0x963148346E3C93BB3EB4B4C296E2E13321FF22BF1118C91686CB1BFE4ADCD918 SWAP1 PUSH1 0x20 ADD PUSH2 0xB45 JUMP JUMPDEST PUSH0 DUP2 DUP2 MSTORE PUSH1 0x4 PUSH1 0x20 SWAP1 DUP2 MSTORE PUSH1 0x40 DUP1 DUP4 KECCAK256 DUP1 SLOAD PUSH1 0x1 PUSH1 0x1 PUSH1 0xA0 SHL SUB NOT AND PUSH1 0x1 PUSH1 0x1 PUSH1 0xA0 SHL SUB DUP8 DUP2 AND SWAP2 SWAP1 SWAP2 OR SWAP1 SWAP2 SSTORE DUP7 AND DUP4 MSTORE PUSH1 0x5 SWAP1 SWAP2 MSTORE DUP2 KECCAK256 SWAP1 JUMPDEST DUP2 SLOAD DUP2 LT ISZERO PUSH2 0x1068 JUMPI DUP3 DUP3 DUP3 DUP2 SLOAD DUP2 LT PUSH2 0xFE3 JUMPI PUSH2 0xFE3 PUSH2 0x132F JUMP JUMPDEST SWAP1 PUSH0 MSTORE PUSH1 0x20 PUSH0 KECCAK256 ADD SLOAD SUB PUSH2 0x1060 JUMPI DUP2 SLOAD DUP3 SWAP1 PUSH2 0x1001 SWAP1 PUSH1 0x1 SWAP1 PUSH2 0x12F6 JUMP JUMPDEST DUP2 SLOAD DUP2 LT PUSH2 0x1011 JUMPI PUSH2 0x1011 PUSH2 0x132F JUMP JUMPDEST SWAP1 PUSH0 MSTORE PUSH1 0x20 PUSH0 KECCAK256 ADD SLOAD DUP3 DUP3 DUP2 SLOAD DUP2 LT PUSH2 0x102C JUMPI PUSH2 0x102C PUSH2 0x132F JUMP JUMPDEST SWAP1 PUSH0 MSTORE PUSH1 0x20 PUSH0 KECCAK256 ADD DUP2 SWAP1 SSTORE POP DUP2 DUP1 SLOAD DUP1 PUSH2 0x1048 JUMPI PUSH2 0x1048 PUSH2 0x1343 JUMP JUMPDEST PUSH1 0x1 SWAP1 SUB DUP2 DUP2 SWAP1 PUSH0 MSTORE PUSH1 0x20 PUSH0 KECCAK256 ADD PUSH0 SWAP1 SSTORE SWAP1 SSTORE PUSH2 0x1068 JUMP JUMPDEST PUSH1 0x1 ADD PUSH2 0xFC7 JUMP JUMPDEST POP POP PUSH1 0x1 PUSH1 0x1 PUSH1 0xA0 SHL SUB SWAP1 SWAP2 AND PUSH0 SWAP1 DUP2 MSTORE PUSH1 0x5 PUSH1 0x20 SWAP1 DUP2 MSTORE PUSH1 0x40 DUP3 KECCAK256 DUP1 SLOAD PUSH1 0x1 DUP2 ADD DUP3 SSTORE SWAP1 DUP4 MSTORE SWAP2 KECCAK256 ADD SSTORE POP JUMP JUMPDEST PUSH1 0x1 PUSH1 0x1 PUSH1 0xA0 SHL SUB DUP3 AND PUSH0 SWAP1 DUP2 MSTORE PUSH1 0x8 PUSH1 0x20 MSTORE PUSH1 0x40 DUP2 KECCAK256 SWAP1 JUMPDEST DUP2 SLOAD DUP2 LT ISZERO PUSH2 0x1150 JUMPI DUP3 DUP3 DUP3 DUP2 SLOAD DUP2 LT PUSH2 0x10CB JUMPI PUSH2 0x10CB PUSH2 0x132F JUMP JUMPDEST SWAP1 PUSH0 MSTORE PUSH1 0x20 PUSH0 KECCAK256 ADD SLOAD SUB PUSH2 0x1148 JUMPI DUP2 SLOAD DUP3 SWAP1 PUSH2 0x10E9 SWAP1 PUSH1 0x1 SWAP1 PUSH2 0x12F6 JUMP JUMPDEST DUP2 SLOAD DUP2 LT PUSH2 0x10F9 JUMPI PUSH2 0x10F9 PUSH2 0x132F JUMP JUMPDEST SWAP1 PUSH0 MSTORE PUSH1 0x20 PUSH0 KECCAK256 ADD SLOAD DUP3 DUP3 DUP2 SLOAD DUP2 LT PUSH2 0x1114 JUMPI PUSH2 0x1114 PUSH2 0x132F JUMP JUMPDEST SWAP1 PUSH0 MSTORE PUSH1 0x20 PUSH0 KECCAK256 ADD DUP2 SWAP1 SSTORE POP DUP2 DUP1 SLOAD DUP1 PUSH2 0x1130 JUMPI PUSH2 0x1130 PUSH2 0x1343 JUMP JUMPDEST PUSH1 0x1 SWAP1 SUB DUP2 DUP2 SWAP1 PUSH0 MSTORE PUSH1 0x20 PUSH0 KECCAK256 ADD PUSH0 SWAP1 SSTORE SWAP1 SSTORE PUSH2 0x1150 JUMP JUMPDEST PUSH1 0x1 ADD PUSH2 0x10AF JUMP JUMPDEST POP POP POP POP JUMP JUMPDEST PUSH0 PUSH1 0x20 DUP3 DUP5 SUB SLT ISZERO PUSH2 0x1166 JUMPI PUSH0 PUSH0 REVERT JUMPDEST POP CALLDATALOAD SWAP2 SWAP1 POP JUMP JUMPDEST DUP1 CALLDATALOAD PUSH1 0x1 PUSH1 0x1 PUSH1 0xA0 SHL SUB DUP2 AND DUP2 EQ PUSH2 0x1183 JUMPI PUSH0 PUSH0 REVERT JUMPDEST SWAP2 SWAP1 POP JUMP JUMPDEST PUSH0 PUSH0 PUSH1 0x40 DUP4 DUP6 SUB SLT ISZERO PUSH2 0x1199 JUMPI PUSH0 PUSH0 REVERT JUMPDEST PUSH2 0x11A2 DUP4 PUSH2 0x116D JUMP JUMPDEST SWAP5 PUSH1 0x20 SWAP4 SWAP1 SWAP4 ADD CALLDATALOAD SWAP4 POP POP POP JUMP JUMPDEST PUSH1 0x1 DUP1 PUSH1 0xA0 SHL SUB DUP5 AND DUP2 MSTORE PUSH1 0x60 PUSH1 0x20 DUP3 ADD MSTORE PUSH0 DUP4 MLOAD DUP1 PUSH1 0x60 DUP5 ADD MSTORE DUP1 PUSH1 0x20 DUP7 ADD PUSH1 0x80 DUP6 ADD MCOPY PUSH0 PUSH1 0x80 DUP3 DUP6 ADD ADD MSTORE PUSH1 0x80 PUSH1 0x1F NOT PUSH1 0x1F DUP4 ADD AND DUP5 ADD ADD SWAP2 POP POP DUP3 ISZERO ISZERO PUSH1 0x40 DUP4 ADD MSTORE SWAP5 SWAP4 POP POP POP POP JUMP JUMPDEST PUSH0 PUSH0 PUSH0 PUSH0 PUSH1 0x80 DUP6 DUP8 SUB SLT ISZERO PUSH2 0x1210 JUMPI PUSH0 PUSH0 REVERT JUMPDEST PUSH2 0x1219 DUP6 PUSH2 0x116D JUMP JUMPDEST SWAP4 POP PUSH2 0x1227 PUSH1 0x20 DUP7 ADD PUSH2 0x116D JUMP JUMPDEST SWAP3 POP PUSH2 0x1235 PUSH1 0x40 DUP7 ADD PUSH2 0x116D JUMP JUMPDEST SWAP2 POP PUSH2 0x1243 PUSH1 0x60 DUP7 ADD PUSH2 0x116D JUMP JUMPDEST SWAP1 POP SWAP3 SWAP6 SWAP2 SWAP5 POP SWAP3 POP JUMP JUMPDEST PUSH0 PUSH0 PUSH1 0x40 DUP4 DUP6 SUB SLT ISZERO PUSH2 0x125F JUMPI PUSH0 PUSH0 REVERT JUMPDEST POP POP DUP1 CALLDATALOAD SWAP3 PUSH1 0x20 SWAP1 SWAP2 ADD CALLDATALOAD SWAP2 POP JUMP JUMPDEST PUSH1 0x1 DUP2 DUP2 SHR SWAP1 DUP3 AND DUP1 PUSH2 0x1282 JUMPI PUSH1 0x7F DUP3 AND SWAP2 POP JUMPDEST PUSH1 0x20 DUP3 LT DUP2 SUB PUSH2 0x12A0 JUMPI PUSH4 0x4E487B71 PUSH1 0xE0 SHL PUSH0 MSTORE PUSH1 0x22 PUSH1 0x4 MSTORE PUSH1 0x24 PUSH0 REVERT JUMPDEST POP SWAP2 SWAP1 POP JUMP JUMPDEST PUSH4 0x4E487B71 PUSH1 0xE0 SHL PUSH0 MSTORE PUSH1 0x11 PUSH1 0x4 MSTORE PUSH1 0x24 PUSH0 REVERT JUMPDEST DUP1 DUP3 MUL DUP2 ISZERO DUP3 DUP3 DIV DUP5 EQ OR PUSH2 0x12D1 JUMPI PUSH2 0x12D1 PUSH2 0x12A6 JUMP JUMPDEST SWAP3 SWAP2 POP POP JUMP JUMPDEST PUSH0 DUP3 PUSH2 0x12F1 JUMPI PUSH4 0x4E487B71 PUSH1 0xE0 SHL PUSH0 MSTORE PUSH1 0x12 PUSH1 0x4 MSTORE PUSH1 0x24 PUSH0 REVERT JUMPDEST POP DIV SWAP1 JUMP JUMPDEST DUP2 DUP2 SUB DUP2 DUP2 GT ISZERO PUSH2 0x12D1 JUMPI PUSH2 0x12D1 PUSH2 0x12A6 JUMP JUMPDEST PUSH0 PUSH1 0x20 DUP3 DUP5 SUB SLT ISZERO PUSH2 0x1319 JUMPI PUSH0 PUSH0 REVERT JUMPDEST DUP2 MLOAD DUP1 ISZERO ISZERO DUP2 EQ PUSH2 0x1328 JUMPI PUSH0 PUSH0 REVERT JUMPDEST SWAP4 SWAP3 POP POP POP JUMP JUMPDEST PUSH4 0x4E487B71 PUSH1 0xE0 SHL PUSH0 MSTORE PUSH1 0x32 PUSH1 0x4 MSTORE PUSH1 0x24 PUSH0 REVERT JUMPDEST PUSH4 0x4E487B71 PUSH1 0xE0 SHL PUSH0 MSTORE PUSH1 0x31 PUSH1 0x4 MSTORE PUSH1 0x24 PUSH0 REVERT INVALID LOG2 PUSH5 0x6970667358 0x22 SLT KECCAK256 0xAF 0xB7 PUSH14 0x20B7612AF20DAB77185967BB91CD DUP5 KECCAK256 SWAP12 SWAP10 0x28 GASLIMIT PUSH31 0xED79EFFB4178AD2964736F6C634300081D0033000000000000000000000000 "
				},
				"gasEstimates": {
					"creation": {
						"codeDepositCost": "1001000",
						"executionCost": "1039",
						"totalCost": "1002039"
					},
					"external": {
						"burnAddress()": "2359",
						"buyNFT(uint256)": "infinite",
						"dao()": "2358",
						"devWallet()": "2381",
						"initializeMarketplace(address,address,address,address)": "infinite",
						"listNFT(uint256,uint256)": "77352",
						"listingFee()": "2372",
						"listings(uint256)": "4770",
						"nfts(uint256)": "infinite",
						"ownedNFTs(address,uint256)": "4793",
						"rhemToken()": "2447",
						"saleFee()": "2329",
						"setListingFee(uint256)": "25551",
						"setSaleFee(uint256)": "25604",
						"stakeNFT(uint256)": "76905",
						"stakedNFTs(uint256)": "2491",
						"unlistNFT(uint256)": "54373",
						"unstakeNFT(uint256)": "infinite",
						"userStakes(address,uint256)": "4747"
					},
					"internal": {
						"_removeUserStake(address,uint256)": "infinite",
						"_transferNFT(address,address,uint256)": "infinite"
					}
				},
				"methodIdentifiers": {
					"burnAddress()": "70d5ae05",
					"buyNFT(uint256)": "51ed8288",
					"dao()": "4162169f",
					"devWallet()": "8ea5220f",
					"initializeMarketplace(address,address,address,address)": "46fc852e",
					"listNFT(uint256,uint256)": "94383f14",
					"listingFee()": "6a1b7ecc",
					"listings(uint256)": "de74e57b",
					"nfts(uint256)": "265aa621",
					"ownedNFTs(address,uint256)": "1a72b87d",
					"rhemToken()": "a6d74512",
					"saleFee()": "178021e3",
					"setListingFee(uint256)": "131dbd09",
					"setSaleFee(uint256)": "bdcafc55",
					"stakeNFT(uint256)": "6eb604e0",
					"stakedNFTs(uint256)": "b865749d",
					"unlistNFT(uint256)": "961f0944",
					"unstakeNFT(uint256)": "c1dfa0bb",
					"userStakes(address,uint256)": "b5d5b5fa"
				}
			},
			"storageLayout": {
				"storage": [
					{
						"astId": 70,
						"contract": "contracts/NFTMarketplacePart4.sol:NFTMarketplacePart4",
						"label": "dao",
						"offset": 0,
						"slot": "0",
						"type": "t_address"
					},
					{
						"astId": 72,
						"contract": "contracts/NFTMarketplacePart4.sol:NFTMarketplacePart4",
						"label": "devWallet",
						"offset": 0,
						"slot": "1",
						"type": "t_address"
					},
					{
						"astId": 74,
						"contract": "contracts/NFTMarketplacePart4.sol:NFTMarketplacePart4",
						"label": "burnAddress",
						"offset": 0,
						"slot": "2",
						"type": "t_address"
					},
					{
						"astId": 77,
						"contract": "contracts/NFTMarketplacePart4.sol:NFTMarketplacePart4",
						"label": "rhemToken",
						"offset": 0,
						"slot": "3",
						"type": "t_contract(IERC20)68"
					},
					{
						"astId": 82,
						"contract": "contracts/NFTMarketplacePart4.sol:NFTMarketplacePart4",
						"label": "nfts",
						"offset": 0,
						"slot": "4",
						"type": "t_mapping(t_uint256,t_struct(NFT)112_storage)"
					},
					{
						"astId": 87,
						"contract": "contracts/NFTMarketplacePart4.sol:NFTMarketplacePart4",
						"label": "ownedNFTs",
						"offset": 0,
						"slot": "5",
						"type": "t_mapping(t_address,t_array(t_uint256)dyn_storage)"
					},
					{
						"astId": 92,
						"contract": "contracts/NFTMarketplacePart4.sol:NFTMarketplacePart4",
						"label": "listings",
						"offset": 0,
						"slot": "6",
						"type": "t_mapping(t_uint256,t_struct(Listing)119_storage)"
					},
					{
						"astId": 96,
						"contract": "contracts/NFTMarketplacePart4.sol:NFTMarketplacePart4",
						"label": "stakedNFTs",
						"offset": 0,
						"slot": "7",
						"type": "t_mapping(t_uint256,t_bool)"
					},
					{
						"astId": 101,
						"contract": "contracts/NFTMarketplacePart4.sol:NFTMarketplacePart4",
						"label": "userStakes",
						"offset": 0,
						"slot": "8",
						"type": "t_mapping(t_address,t_array(t_uint256)dyn_storage)"
					},
					{
						"astId": 103,
						"contract": "contracts/NFTMarketplacePart4.sol:NFTMarketplacePart4",
						"label": "listingFee",
						"offset": 0,
						"slot": "9",
						"type": "t_uint256"
					},
					{
						"astId": 105,
						"contract": "contracts/NFTMarketplacePart4.sol:NFTMarketplacePart4",
						"label": "saleFee",
						"offset": 0,
						"slot": "10",
						"type": "t_uint256"
					}
				],
				"types": {
					"t_address": {
						"encoding": "inplace",
						"label": "address",
						"numberOfBytes": "20"
					},
					"t_array(t_uint256)dyn_storage": {
						"base": "t_uint256",
						"encoding": "dynamic_array",
						"label": "uint256[]",
						"numberOfBytes": "32"
					},
					"t_bool": {
						"encoding": "inplace",
						"label": "bool",
						"numberOfBytes": "1"
					},
					"t_contract(IERC20)68": {
						"encoding": "inplace",
						"label": "contract IERC20",
						"numberOfBytes": "20"
					},
					"t_mapping(t_address,t_array(t_uint256)dyn_storage)": {
						"encoding": "mapping",
						"key": "t_address",
						"label": "mapping(address => uint256[])",
						"numberOfBytes": "32",
						"value": "t_array(t_uint256)dyn_storage"
					},
					"t_mapping(t_uint256,t_bool)": {
						"encoding": "mapping",
						"key": "t_uint256",
						"label": "mapping(uint256 => bool)",
						"numberOfBytes": "32",
						"value": "t_bool"
					},
					"t_mapping(t_uint256,t_struct(Listing)119_storage)": {
						"encoding": "mapping",
						"key": "t_uint256",
						"label": "mapping(uint256 => struct NFTMarketplacePart4.Listing)",
						"numberOfBytes": "32",
						"value": "t_struct(Listing)119_storage"
					},
					"t_mapping(t_uint256,t_struct(NFT)112_storage)": {
						"encoding": "mapping",
						"key": "t_uint256",
						"label": "mapping(uint256 => struct NFTMarketplacePart4.NFT)",
						"numberOfBytes": "32",
						"value": "t_struct(NFT)112_storage"
					},
					"t_string_storage": {
						"encoding": "bytes",
						"label": "string",
						"numberOfBytes": "32"
					},
					"t_struct(Listing)119_storage": {
						"encoding": "inplace",
						"label": "struct NFTMarketplacePart4.Listing",
						"members": [
							{
								"astId": 114,
								"contract": "contracts/NFTMarketplacePart4.sol:NFTMarketplacePart4",
								"label": "price",
								"offset": 0,
								"slot": "0",
								"type": "t_uint256"
							},
							{
								"astId": 116,
								"contract": "contracts/NFTMarketplacePart4.sol:NFTMarketplacePart4",
								"label": "owner",
								"offset": 0,
								"slot": "1",
								"type": "t_address"
							},
							{
								"astId": 118,
								"contract": "contracts/NFTMarketplacePart4.sol:NFTMarketplacePart4",
								"label": "listed",
								"offset": 20,
								"slot": "1",
								"type": "t_bool"
							}
						],
						"numberOfBytes": "64"
					},
					"t_struct(NFT)112_storage": {
						"encoding": "inplace",
						"label": "struct NFTMarketplacePart4.NFT",
						"members": [
							{
								"astId": 107,
								"contract": "contracts/NFTMarketplacePart4.sol:NFTMarketplacePart4",
								"label": "owner",
								"offset": 0,
								"slot": "0",
								"type": "t_address"
							},
							{
								"astId": 109,
								"contract": "contracts/NFTMarketplacePart4.sol:NFTMarketplacePart4",
								"label": "tokenURI",
								"offset": 0,
								"slot": "1",
								"type": "t_string_storage"
							},
							{
								"astId": 111,
								"contract": "contracts/NFTMarketplacePart4.sol:NFTMarketplacePart4",
								"label": "listed",
								"offset": 0,
								"slot": "2",
								"type": "t_bool"
							}
						],
						"numberOfBytes": "96"
					},
					"t_uint256": {
						"encoding": "inplace",
						"label": "uint256",
						"numberOfBytes": "32"
					}
				}
			},
			"userdoc": {
				"kind": "user",
				"methods": {},
				"version": 1
			}
		}
	}
}