{
	"contracts/RhesusMacaqueVoting.sol": {
		"RhesusMacaqueVoting": {
			"abi": [
				{
					"inputs": [
						{
							"internalType": "address",
							"name": "_governanceContract",
							"type": "address"
						},
						{
							"internalType": "address",
							"name": "_token",
							"type": "address"
						},
						{
							"internalType": "uint256",
							"name": "_votingDuration",
							"type": "uint256"
						}
					],
					"stateMutability": "nonpayable",
					"type": "constructor"
				},
				{
					"anonymous": false,
					"inputs": [
						{
							"indexed": false,
							"internalType": "uint256",
							"name": "proposalId",
							"type": "uint256"
						},
						{
							"indexed": false,
							"internalType": "address",
							"name": "proposer",
							"type": "address"
						},
						{
							"indexed": false,
							"internalType": "string",
							"name": "description",
							"type": "string"
						}
					],
					"name": "ProposalCreated",
					"type": "event"
				},
				{
					"anonymous": false,
					"inputs": [
						{
							"indexed": false,
							"internalType": "uint256",
							"name": "proposalId",
							"type": "uint256"
						}
					],
					"name": "ProposalExecuted",
					"type": "event"
				},
				{
					"anonymous": false,
					"inputs": [
						{
							"indexed": false,
							"internalType": "uint256",
							"name": "proposalId",
							"type": "uint256"
						},
						{
							"indexed": false,
							"internalType": "address",
							"name": "voter",
							"type": "address"
						},
						{
							"indexed": false,
							"internalType": "bool",
							"name": "support",
							"type": "bool"
						}
					],
					"name": "Voted",
					"type": "event"
				},
				{
					"inputs": [
						{
							"internalType": "address",
							"name": "",
							"type": "address"
						}
					],
					"name": "balances",
					"outputs": [
						{
							"internalType": "uint256",
							"name": "",
							"type": "uint256"
						}
					],
					"stateMutability": "view",
					"type": "function"
				},
				{
					"inputs": [
						{
							"internalType": "string",
							"name": "_description",
							"type": "string"
						}
					],
					"name": "createProposal",
					"outputs": [
						{
							"internalType": "uint256",
							"name": "",
							"type": "uint256"
						}
					],
					"stateMutability": "nonpayable",
					"type": "function"
				},
				{
					"inputs": [
						{
							"internalType": "uint256",
							"name": "_proposalId",
							"type": "uint256"
						}
					],
					"name": "executeProposal",
					"outputs": [],
					"stateMutability": "nonpayable",
					"type": "function"
				},
				{
					"inputs": [],
					"name": "governanceContract",
					"outputs": [
						{
							"internalType": "address",
							"name": "",
							"type": "address"
						}
					],
					"stateMutability": "view",
					"type": "function"
				},
				{
					"inputs": [],
					"name": "proposalCount",
					"outputs": [
						{
							"internalType": "uint256",
							"name": "",
							"type": "uint256"
						}
					],
					"stateMutability": "view",
					"type": "function"
				},
				{
					"inputs": [
						{
							"internalType": "uint256",
							"name": "",
							"type": "uint256"
						}
					],
					"name": "proposals",
					"outputs": [
						{
							"internalType": "address",
							"name": "proposer",
							"type": "address"
						},
						{
							"internalType": "uint256",
							"name": "votingStartTime",
							"type": "uint256"
						},
						{
							"internalType": "uint256",
							"name": "votingEndTime",
							"type": "uint256"
						},
						{
							"internalType": "bool",
							"name": "executed",
							"type": "bool"
						},
						{
							"internalType": "uint256",
							"name": "votesFor",
							"type": "uint256"
						},
						{
							"internalType": "uint256",
							"name": "votesAgainst",
							"type": "uint256"
						},
						{
							"internalType": "string",
							"name": "description",
							"type": "string"
						}
					],
					"stateMutability": "view",
					"type": "function"
				},
				{
					"inputs": [],
					"name": "token",
					"outputs": [
						{
							"internalType": "address",
							"name": "",
							"type": "address"
						}
					],
					"stateMutability": "view",
					"type": "function"
				},
				{
					"inputs": [
						{
							"internalType": "address",
							"name": "_user",
							"type": "address"
						},
						{
							"internalType": "uint256",
							"name": "_amount",
							"type": "uint256"
						}
					],
					"name": "updateVotingPower",
					"outputs": [],
					"stateMutability": "nonpayable",
					"type": "function"
				},
				{
					"inputs": [
						{
							"internalType": "uint256",
							"name": "_proposalId",
							"type": "uint256"
						},
						{
							"internalType": "bool",
							"name": "_support",
							"type": "bool"
						}
					],
					"name": "vote",
					"outputs": [],
					"stateMutability": "nonpayable",
					"type": "function"
				},
				{
					"inputs": [],
					"name": "votingDuration",
					"outputs": [
						{
							"internalType": "uint256",
							"name": "",
							"type": "uint256"
						}
					],
					"stateMutability": "view",
					"type": "function"
				}
			],
			"devdoc": {
				"kind": "dev",
				"methods": {},
				"version": 1
			},
			"evm": {
				"assembly": "    /* \"contracts/RhesusMacaqueVoting.sol\":61:3210  contract RhesusMacaqueVoting {... */\n  mstore(0x40, 0x80)\n    /* \"contracts/RhesusMacaqueVoting.sol\":930:1289  constructor(address _governanceContract, address _token, uint256 _votingDuration) {... */\n  callvalue\n  dup1\n  iszero\n  tag_1\n  jumpi\n  revert(0x00, 0x00)\ntag_1:\n  pop\n  mload(0x40)\n  sub(codesize, bytecodeSize)\n  dup1\n  bytecodeSize\n  dup4\n  codecopy\n  dup2\n  add\n  0x40\n  dup2\n  swap1\n  mstore\n  tag_2\n  swap2\n  tag_3\n  jump\t// in\ntag_2:\n  sub(shl(0xa0, 0x01), 0x01)\n    /* \"contracts/RhesusMacaqueVoting.sol\":1031:1064  _governanceContract != address(0) */\n  dup4\n  and\n    /* \"contracts/RhesusMacaqueVoting.sol\":1023:1095  require(_governanceContract != address(0), \"Invalid governance address\") */\n  tag_6\n  jumpi\n  mload(0x40)\n  shl(0xe5, 0x461bcd)\n  dup2\n  mstore\n    /* \"#utility.yul\":757:759   */\n  0x20\n    /* \"contracts/RhesusMacaqueVoting.sol\":1023:1095  require(_governanceContract != address(0), \"Invalid governance address\") */\n  0x04\n  dup3\n  add\n    /* \"#utility.yul\":739:760   */\n  mstore\n    /* \"#utility.yul\":796:798   */\n  0x1a\n    /* \"#utility.yul\":776:794   */\n  0x24\n  dup3\n  add\n    /* \"#utility.yul\":769:799   */\n  mstore\n    /* \"#utility.yul\":835:863   */\n  0x496e76616c696420676f7665726e616e63652061646472657373000000000000\n    /* \"#utility.yul\":815:833   */\n  0x44\n  dup3\n  add\n    /* \"#utility.yul\":808:864   */\n  mstore\n    /* \"#utility.yul\":881:899   */\n  0x64\n  add\n    /* \"contracts/RhesusMacaqueVoting.sol\":1023:1095  require(_governanceContract != address(0), \"Invalid governance address\") */\ntag_7:\n  mload(0x40)\n  dup1\n  swap2\n  sub\n  swap1\n  revert\ntag_6:\n  sub(shl(0xa0, 0x01), 0x01)\n    /* \"contracts/RhesusMacaqueVoting.sol\":1114:1134  _token != address(0) */\n  dup3\n  and\n    /* \"contracts/RhesusMacaqueVoting.sol\":1106:1160  require(_token != address(0), \"Invalid token address\") */\n  tag_9\n  jumpi\n  mload(0x40)\n  shl(0xe5, 0x461bcd)\n  dup2\n  mstore\n    /* \"#utility.yul\":1112:1114   */\n  0x20\n    /* \"contracts/RhesusMacaqueVoting.sol\":1106:1160  require(_token != address(0), \"Invalid token address\") */\n  0x04\n  dup3\n  add\n    /* \"#utility.yul\":1094:1115   */\n  mstore\n    /* \"#utility.yul\":1151:1153   */\n  0x15\n    /* \"#utility.yul\":1131:1149   */\n  0x24\n  dup3\n  add\n    /* \"#utility.yul\":1124:1154   */\n  mstore\n    /* \"#utility.yul\":1190:1213   */\n  0x496e76616c696420746f6b656e20616464726573730000000000000000000000\n    /* \"#utility.yul\":1170:1188   */\n  0x44\n  dup3\n  add\n    /* \"#utility.yul\":1163:1214   */\n  mstore\n    /* \"#utility.yul\":1231:1249   */\n  0x64\n  add\n    /* \"contracts/RhesusMacaqueVoting.sol\":1106:1160  require(_token != address(0), \"Invalid token address\") */\n  tag_7\n    /* \"#utility.yul\":910:1255   */\n  jump\n    /* \"contracts/RhesusMacaqueVoting.sol\":1106:1160  require(_token != address(0), \"Invalid token address\") */\ntag_9:\n    /* \"contracts/RhesusMacaqueVoting.sol\":1173:1191  governanceContract */\n  0x00\n    /* \"contracts/RhesusMacaqueVoting.sol\":1173:1213  governanceContract = _governanceContract */\n  dup1\n  sload\n  sub(shl(0xa0, 0x01), 0x01)\n  swap5\n  dup6\n  and\n  not(sub(shl(0xa0, 0x01), 0x01))\n  swap2\n  dup3\n  and\n  or\n  swap1\n  swap2\n  sstore\n  0x01\n    /* \"contracts/RhesusMacaqueVoting.sol\":1224:1238  token = _token */\n  dup1\n  sload\n  swap4\n  swap1\n  swap5\n  and\n  swap3\n  and\n  swap2\n  swap1\n  swap2\n  or\n  swap1\n  swap2\n  sstore\n    /* \"contracts/RhesusMacaqueVoting.sol\":1249:1263  votingDuration */\n  0x02\n    /* \"contracts/RhesusMacaqueVoting.sol\":1249:1281  votingDuration = _votingDuration */\n  sstore\n    /* \"contracts/RhesusMacaqueVoting.sol\":61:3210  contract RhesusMacaqueVoting {... */\n  jump(tag_14)\n    /* \"#utility.yul\":14:191   */\ntag_13:\n    /* \"#utility.yul\":93:106   */\n  dup1\n  mload\n  sub(shl(0xa0, 0x01), 0x01)\n    /* \"#utility.yul\":135:166   */\n  dup2\n  and\n    /* \"#utility.yul\":125:167   */\n  dup2\n  eq\n    /* \"#utility.yul\":115:185   */\n  tag_16\n  jumpi\n    /* \"#utility.yul\":181:182   */\n  0x00\n    /* \"#utility.yul\":178:179   */\n  0x00\n    /* \"#utility.yul\":171:183   */\n  revert\n    /* \"#utility.yul\":115:185   */\ntag_16:\n    /* \"#utility.yul\":14:191   */\n  swap2\n  swap1\n  pop\n  jump\t// out\n    /* \"#utility.yul\":196:550   */\ntag_3:\n    /* \"#utility.yul\":284:290   */\n  0x00\n    /* \"#utility.yul\":292:298   */\n  0x00\n    /* \"#utility.yul\":300:306   */\n  0x00\n    /* \"#utility.yul\":353:355   */\n  0x60\n    /* \"#utility.yul\":341:350   */\n  dup5\n    /* \"#utility.yul\":332:339   */\n  dup7\n    /* \"#utility.yul\":328:351   */\n  sub\n    /* \"#utility.yul\":324:356   */\n  slt\n    /* \"#utility.yul\":321:373   */\n  iszero\n  tag_18\n  jumpi\n    /* \"#utility.yul\":369:370   */\n  0x00\n    /* \"#utility.yul\":366:367   */\n  0x00\n    /* \"#utility.yul\":359:371   */\n  revert\n    /* \"#utility.yul\":321:373   */\ntag_18:\n    /* \"#utility.yul\":392:432   */\n  tag_19\n    /* \"#utility.yul\":422:431   */\n  dup5\n    /* \"#utility.yul\":392:432   */\n  tag_13\n  jump\t// in\ntag_19:\n    /* \"#utility.yul\":382:432   */\n  swap3\n  pop\n    /* \"#utility.yul\":451:500   */\n  tag_20\n    /* \"#utility.yul\":496:498   */\n  0x20\n    /* \"#utility.yul\":485:494   */\n  dup6\n    /* \"#utility.yul\":481:499   */\n  add\n    /* \"#utility.yul\":451:500   */\n  tag_13\n  jump\t// in\ntag_20:\n    /* \"#utility.yul\":441:500   */\n  swap2\n  pop\n    /* \"#utility.yul\":540:542   */\n  0x40\n    /* \"#utility.yul\":529:538   */\n  dup5\n    /* \"#utility.yul\":525:543   */\n  add\n    /* \"#utility.yul\":519:544   */\n  mload\n    /* \"#utility.yul\":509:544   */\n  swap1\n  pop\n    /* \"#utility.yul\":196:550   */\n  swap3\n  pop\n  swap3\n  pop\n  swap3\n  jump\t// out\n    /* \"#utility.yul\":910:1255   */\ntag_14:\n    /* \"contracts/RhesusMacaqueVoting.sol\":61:3210  contract RhesusMacaqueVoting {... */\n  dataSize(sub_0)\n  dup1\n  dataOffset(sub_0)\n  0x00\n  codecopy\n  0x00\n  return\nstop\n\nsub_0: assembly {\n        /* \"contracts/RhesusMacaqueVoting.sol\":61:3210  contract RhesusMacaqueVoting {... */\n      mstore(0x40, 0x80)\n      callvalue\n      dup1\n      iszero\n      tag_1\n      jumpi\n      revert(0x00, 0x00)\n    tag_1:\n      pop\n      jumpi(tag_2, lt(calldatasize, 0x04))\n      shr(0xe0, calldataload(0x00))\n      dup1\n      0xb172b222\n      gt\n      tag_13\n      jumpi\n      dup1\n      0xb172b222\n      eq\n      tag_8\n      jumpi\n      dup1\n      0xc9d27afe\n      eq\n      tag_9\n      jumpi\n      dup1\n      0xda35c664\n      eq\n      tag_10\n      jumpi\n      dup1\n      0xeadc29c7\n      eq\n      tag_11\n      jumpi\n      dup1\n      0xfc0c546a\n      eq\n      tag_12\n      jumpi\n      revert(0x00, 0x00)\n    tag_13:\n      dup1\n      0x013cf08b\n      eq\n      tag_3\n      jumpi\n      dup1\n      0x0d61b519\n      eq\n      tag_4\n      jumpi\n      dup1\n      0x132002fc\n      eq\n      tag_5\n      jumpi\n      dup1\n      0x27e235e3\n      eq\n      tag_6\n      jumpi\n      dup1\n      0x49c2a1a6\n      eq\n      tag_7\n      jumpi\n    tag_2:\n      revert(0x00, 0x00)\n        /* \"contracts/RhesusMacaqueVoting.sol\":285:330  mapping(uint256 => Proposal) public proposals */\n    tag_3:\n      tag_14\n      tag_15\n      calldatasize\n      0x04\n      tag_16\n      jump\t// in\n    tag_15:\n      tag_17\n      jump\t// in\n    tag_14:\n      mload(0x40)\n      tag_18\n      swap8\n      swap7\n      swap6\n      swap5\n      swap4\n      swap3\n      swap2\n      swap1\n      tag_19\n      jump\t// in\n    tag_18:\n      mload(0x40)\n      dup1\n      swap2\n      sub\n      swap1\n      return\n        /* \"contracts/RhesusMacaqueVoting.sol\":2513:3021  function executeProposal(uint256 _proposalId) external {... */\n    tag_4:\n      tag_20\n      tag_21\n      calldatasize\n      0x04\n      tag_16\n      jump\t// in\n    tag_21:\n      tag_22\n      jump\t// in\n    tag_20:\n      stop\n        /* \"contracts/RhesusMacaqueVoting.sol\":164:193  uint256 public votingDuration */\n    tag_5:\n      tag_23\n      sload(0x02)\n      dup2\n      jump\n    tag_23:\n      mload(0x40)\n        /* \"#utility.yul\":1377:1402   */\n      swap1\n      dup2\n      mstore\n        /* \"#utility.yul\":1365:1367   */\n      0x20\n        /* \"#utility.yul\":1350:1368   */\n      add\n        /* \"contracts/RhesusMacaqueVoting.sol\":164:193  uint256 public votingDuration */\n      tag_18\n        /* \"#utility.yul\":1231:1408   */\n      jump\n        /* \"contracts/RhesusMacaqueVoting.sol\":235:278  mapping(address => uint256) public balances */\n    tag_6:\n      tag_23\n      tag_28\n      calldatasize\n      0x04\n      tag_29\n      jump\t// in\n    tag_28:\n      mstore(0x20, 0x04)\n      0x00\n      swap1\n      dup2\n      mstore\n      0x40\n      swap1\n      keccak256\n      sload\n      dup2\n      jump\n        /* \"contracts/RhesusMacaqueVoting.sol\":1297:1811  function createProposal(string memory _description) external onlyDAO returns (uint256) {... */\n    tag_7:\n      tag_23\n      tag_33\n      calldatasize\n      0x04\n      tag_34\n      jump\t// in\n    tag_33:\n      tag_35\n      jump\t// in\n        /* \"contracts/RhesusMacaqueVoting.sol\":97:130  address public governanceContract */\n    tag_8:\n      sload(0x00)\n      tag_37\n      swap1\n      sub(shl(0xa0, 0x01), 0x01)\n      and\n      dup2\n      jump\n    tag_37:\n      mload(0x40)\n      sub(shl(0xa0, 0x01), 0x01)\n        /* \"#utility.yul\":3028:3060   */\n      swap1\n      swap2\n      and\n        /* \"#utility.yul\":3010:3061   */\n      dup2\n      mstore\n        /* \"#utility.yul\":2998:3000   */\n      0x20\n        /* \"#utility.yul\":2983:3001   */\n      add\n        /* \"contracts/RhesusMacaqueVoting.sol\":97:130  address public governanceContract */\n      tag_18\n        /* \"#utility.yul\":2864:3067   */\n      jump\n        /* \"contracts/RhesusMacaqueVoting.sol\":1819:2505  function vote(uint256 _proposalId, bool _support) external {... */\n    tag_9:\n      tag_20\n      tag_42\n      calldatasize\n      0x04\n      tag_43\n      jump\t// in\n    tag_42:\n      tag_44\n      jump\t// in\n        /* \"contracts/RhesusMacaqueVoting.sol\":200:228  uint256 public proposalCount */\n    tag_10:\n      tag_23\n      sload(0x03)\n      dup2\n      jump\n        /* \"contracts/RhesusMacaqueVoting.sol\":3029:3207  function updateVotingPower(address _user, uint256 _amount) external onlyDAO {... */\n    tag_11:\n      tag_20\n      tag_49\n      calldatasize\n      0x04\n      tag_50\n      jump\t// in\n    tag_49:\n      tag_51\n      jump\t// in\n        /* \"contracts/RhesusMacaqueVoting.sol\":137:157  address public token */\n    tag_12:\n      sload(0x01)\n      tag_37\n      swap1\n      sub(shl(0xa0, 0x01), 0x01)\n      and\n      dup2\n      jump\n        /* \"contracts/RhesusMacaqueVoting.sol\":285:330  mapping(uint256 => Proposal) public proposals */\n    tag_17:\n      0x05\n      0x20\n      dup2\n      swap1\n      mstore\n      0x00\n      swap2\n      dup3\n      mstore\n      0x40\n      swap1\n      swap2\n      keccak256\n      dup1\n      sload\n      0x01\n      dup3\n      add\n      sload\n      0x02\n      dup4\n      add\n      sload\n      0x03\n      dup5\n      add\n      sload\n      swap5\n      dup5\n      add\n      sload\n      0x06\n      dup6\n      add\n      sload\n      0x07\n      dup7\n      add\n      dup1\n      sload\n      sub(shl(0xa0, 0x01), 0x01)\n      swap1\n      swap7\n      and\n      swap8\n      swap5\n      swap7\n      swap4\n      swap6\n      0xff\n      swap1\n      swap6\n      and\n      swap5\n      swap3\n      swap4\n      swap2\n      swap3\n      tag_55\n      swap1\n      tag_56\n      jump\t// in\n    tag_55:\n      dup1\n      0x1f\n      add\n      0x20\n      dup1\n      swap2\n      div\n      mul\n      0x20\n      add\n      mload(0x40)\n      swap1\n      dup2\n      add\n      0x40\n      mstore\n      dup1\n      swap3\n      swap2\n      swap1\n      dup2\n      dup2\n      mstore\n      0x20\n      add\n      dup3\n      dup1\n      sload\n      tag_57\n      swap1\n      tag_56\n      jump\t// in\n    tag_57:\n      dup1\n      iszero\n      tag_58\n      jumpi\n      dup1\n      0x1f\n      lt\n      tag_59\n      jumpi\n      0x0100\n      dup1\n      dup4\n      sload\n      div\n      mul\n      dup4\n      mstore\n      swap2\n      0x20\n      add\n      swap2\n      jump(tag_58)\n    tag_59:\n      dup3\n      add\n      swap2\n      swap1\n      0x00\n      mstore\n      keccak256(0x00, 0x20)\n      swap1\n    tag_60:\n      dup2\n      sload\n      dup2\n      mstore\n      swap1\n      0x01\n      add\n      swap1\n      0x20\n      add\n      dup1\n      dup4\n      gt\n      tag_60\n      jumpi\n      dup3\n      swap1\n      sub\n      0x1f\n      and\n      dup3\n      add\n      swap2\n    tag_58:\n      pop\n      pop\n      pop\n      pop\n      pop\n      swap1\n      pop\n      dup8\n      jump\t// out\n        /* \"contracts/RhesusMacaqueVoting.sol\":2513:3021  function executeProposal(uint256 _proposalId) external {... */\n    tag_22:\n        /* \"contracts/RhesusMacaqueVoting.sol\":2579:2604  Proposal storage proposal */\n      0x00\n        /* \"contracts/RhesusMacaqueVoting.sol\":2607:2629  proposals[_proposalId] */\n      dup2\n      dup2\n      mstore\n        /* \"contracts/RhesusMacaqueVoting.sol\":2607:2616  proposals */\n      0x05\n        /* \"contracts/RhesusMacaqueVoting.sol\":2607:2629  proposals[_proposalId] */\n      0x20\n      mstore\n      0x40\n      swap1\n      keccak256\n        /* \"contracts/RhesusMacaqueVoting.sol\":2666:2688  proposal.votingEndTime */\n      0x02\n      dup2\n      add\n      sload\n        /* \"contracts/RhesusMacaqueVoting.sol\":2648:2663  block.timestamp */\n      timestamp\n        /* \"contracts/RhesusMacaqueVoting.sol\":2648:2688  block.timestamp > proposal.votingEndTime */\n      gt\n        /* \"contracts/RhesusMacaqueVoting.sol\":2640:2713  require(block.timestamp > proposal.votingEndTime, \"Voting not yet ended\") */\n      tag_62\n      jumpi\n      mload(0x40)\n      shl(0xe5, 0x461bcd)\n      dup2\n      mstore\n        /* \"#utility.yul\":4364:4366   */\n      0x20\n        /* \"contracts/RhesusMacaqueVoting.sol\":2640:2713  require(block.timestamp > proposal.votingEndTime, \"Voting not yet ended\") */\n      0x04\n      dup3\n      add\n        /* \"#utility.yul\":4346:4367   */\n      mstore\n        /* \"#utility.yul\":4403:4405   */\n      0x14\n        /* \"#utility.yul\":4383:4401   */\n      0x24\n      dup3\n      add\n        /* \"#utility.yul\":4376:4406   */\n      mstore\n      shl(0x62, 0x159bdd1a5b99c81b9bdd081e595d08195b991959)\n        /* \"#utility.yul\":4422:4440   */\n      0x44\n      dup3\n      add\n        /* \"#utility.yul\":4415:4465   */\n      mstore\n        /* \"#utility.yul\":4482:4500   */\n      0x64\n      add\n        /* \"contracts/RhesusMacaqueVoting.sol\":2640:2713  require(block.timestamp > proposal.votingEndTime, \"Voting not yet ended\") */\n    tag_63:\n      mload(0x40)\n      dup1\n      swap2\n      sub\n      swap1\n      revert\n    tag_62:\n        /* \"contracts/RhesusMacaqueVoting.sol\":2733:2750  proposal.executed */\n      0x03\n      dup2\n      add\n      sload\n      0xff\n      and\n        /* \"contracts/RhesusMacaqueVoting.sol\":2732:2750  !proposal.executed */\n      iszero\n        /* \"contracts/RhesusMacaqueVoting.sol\":2724:2780  require(!proposal.executed, \"Proposal already executed\") */\n      tag_65\n      jumpi\n      mload(0x40)\n      shl(0xe5, 0x461bcd)\n      dup2\n      mstore\n        /* \"#utility.yul\":4713:4715   */\n      0x20\n        /* \"contracts/RhesusMacaqueVoting.sol\":2724:2780  require(!proposal.executed, \"Proposal already executed\") */\n      0x04\n      dup3\n      add\n        /* \"#utility.yul\":4695:4716   */\n      mstore\n        /* \"#utility.yul\":4752:4754   */\n      0x19\n        /* \"#utility.yul\":4732:4750   */\n      0x24\n      dup3\n      add\n        /* \"#utility.yul\":4725:4755   */\n      mstore\n        /* \"#utility.yul\":4791:4818   */\n      0x50726f706f73616c20616c726561647920657865637574656400000000000000\n        /* \"#utility.yul\":4771:4789   */\n      0x44\n      dup3\n      add\n        /* \"#utility.yul\":4764:4819   */\n      mstore\n        /* \"#utility.yul\":4836:4854   */\n      0x64\n      add\n        /* \"contracts/RhesusMacaqueVoting.sol\":2724:2780  require(!proposal.executed, \"Proposal already executed\") */\n      tag_63\n        /* \"#utility.yul\":4511:4860   */\n      jump\n        /* \"contracts/RhesusMacaqueVoting.sol\":2724:2780  require(!proposal.executed, \"Proposal already executed\") */\n    tag_65:\n        /* \"contracts/RhesusMacaqueVoting.sol\":2817:2825  proposal */\n      dup1\n        /* \"contracts/RhesusMacaqueVoting.sol\":2817:2838  proposal.votesAgainst */\n      0x06\n      add\n      sload\n        /* \"contracts/RhesusMacaqueVoting.sol\":2797:2805  proposal */\n      dup2\n        /* \"contracts/RhesusMacaqueVoting.sol\":2797:2814  proposal.votesFor */\n      0x05\n      add\n      sload\n        /* \"contracts/RhesusMacaqueVoting.sol\":2797:2838  proposal.votesFor > proposal.votesAgainst */\n      gt\n        /* \"contracts/RhesusMacaqueVoting.sol\":2793:3014  if (proposal.votesFor > proposal.votesAgainst) {... */\n      iszero\n      tag_68\n      jumpi\n        /* \"contracts/RhesusMacaqueVoting.sol\":2855:2872  proposal.executed */\n      0x03\n      dup2\n      add\n        /* \"contracts/RhesusMacaqueVoting.sol\":2855:2879  proposal.executed = true */\n      dup1\n      sload\n      not(0xff)\n      and\n        /* \"contracts/RhesusMacaqueVoting.sol\":2875:2879  true */\n      0x01\n        /* \"contracts/RhesusMacaqueVoting.sol\":2855:2879  proposal.executed = true */\n      or\n      swap1\n      sstore\n        /* \"contracts/RhesusMacaqueVoting.sol\":2899:2928  ProposalExecuted(_proposalId) */\n      mload(0x40)\n      0x712ae1383f79ac853f8d882153778e0260ef8f03b504e2866e0593e04d2b291f\n      swap1\n      tag_69\n      swap1\n        /* \"contracts/RhesusMacaqueVoting.sol\":2916:2927  _proposalId */\n      dup5\n        /* \"#utility.yul\":1377:1402   */\n      dup2\n      mstore\n        /* \"#utility.yul\":1365:1367   */\n      0x20\n        /* \"#utility.yul\":1350:1368   */\n      add\n      swap1\n        /* \"#utility.yul\":1231:1408   */\n      jump\n        /* \"contracts/RhesusMacaqueVoting.sol\":2899:2928  ProposalExecuted(_proposalId) */\n    tag_69:\n      mload(0x40)\n      dup1\n      swap2\n      sub\n      swap1\n      log1\n        /* \"contracts/RhesusMacaqueVoting.sol\":2793:3014  if (proposal.votesFor > proposal.votesAgainst) {... */\n    tag_68:\n        /* \"contracts/RhesusMacaqueVoting.sol\":2568:3021  {... */\n      pop\n        /* \"contracts/RhesusMacaqueVoting.sol\":2513:3021  function executeProposal(uint256 _proposalId) external {... */\n      pop\n      jump\t// out\n        /* \"contracts/RhesusMacaqueVoting.sol\":1297:1811  function createProposal(string memory _description) external onlyDAO returns (uint256) {... */\n    tag_35:\n        /* \"contracts/RhesusMacaqueVoting.sol\":1375:1382  uint256 */\n      0x00\n        /* \"contracts/RhesusMacaqueVoting.sol\":872:890  governanceContract */\n      dup1\n      sload\n      sub(shl(0xa0, 0x01), 0x01)\n      and\n        /* \"contracts/RhesusMacaqueVoting.sol\":858:868  msg.sender */\n      caller\n        /* \"contracts/RhesusMacaqueVoting.sol\":858:890  msg.sender == governanceContract */\n      eq\n        /* \"contracts/RhesusMacaqueVoting.sol\":850:902  require(msg.sender == governanceContract, \"Not DAO\") */\n      tag_71\n      jumpi\n      mload(0x40)\n      shl(0xe5, 0x461bcd)\n      dup2\n      mstore\n        /* \"#utility.yul\":5067:5069   */\n      0x20\n        /* \"contracts/RhesusMacaqueVoting.sol\":850:902  require(msg.sender == governanceContract, \"Not DAO\") */\n      0x04\n      dup3\n      add\n        /* \"#utility.yul\":5049:5070   */\n      mstore\n        /* \"#utility.yul\":5106:5107   */\n      0x07\n        /* \"#utility.yul\":5086:5104   */\n      0x24\n      dup3\n      add\n        /* \"#utility.yul\":5079:5108   */\n      mstore\n      shl(0xc8, 0x4e6f742044414f)\n        /* \"#utility.yul\":5124:5142   */\n      0x44\n      dup3\n      add\n        /* \"#utility.yul\":5117:5154   */\n      mstore\n        /* \"#utility.yul\":5171:5189   */\n      0x64\n      add\n        /* \"contracts/RhesusMacaqueVoting.sol\":850:902  require(msg.sender == governanceContract, \"Not DAO\") */\n      tag_63\n        /* \"#utility.yul\":4865:5195   */\n      jump\n        /* \"contracts/RhesusMacaqueVoting.sol\":850:902  require(msg.sender == governanceContract, \"Not DAO\") */\n    tag_71:\n        /* \"contracts/RhesusMacaqueVoting.sol\":1395:1408  proposalCount */\n      0x03\n        /* \"contracts/RhesusMacaqueVoting.sol\":1395:1410  proposalCount++ */\n      dup1\n      sload\n      swap1\n        /* \"contracts/RhesusMacaqueVoting.sol\":1395:1408  proposalCount */\n      0x00\n        /* \"contracts/RhesusMacaqueVoting.sol\":1395:1410  proposalCount++ */\n      tag_75\n      dup4\n      tag_76\n      jump\t// in\n    tag_75:\n      swap1\n      swap2\n      sstore\n      pop\n      pop\n        /* \"contracts/RhesusMacaqueVoting.sol\":1462:1475  proposalCount */\n      sload(0x03)\n        /* \"contracts/RhesusMacaqueVoting.sol\":1421:1449  Proposal storage newProposal */\n      0x00\n        /* \"contracts/RhesusMacaqueVoting.sol\":1452:1476  proposals[proposalCount] */\n      swap1\n      dup2\n      mstore\n        /* \"contracts/RhesusMacaqueVoting.sol\":1452:1461  proposals */\n      0x05\n        /* \"contracts/RhesusMacaqueVoting.sol\":1452:1476  proposals[proposalCount] */\n      0x20\n      mstore\n      0x40\n      swap1\n      keccak256\n        /* \"contracts/RhesusMacaqueVoting.sol\":1487:1520  newProposal.proposer = msg.sender */\n      dup1\n      sload\n      not(sub(shl(0xa0, 0x01), 0x01))\n      and\n        /* \"contracts/RhesusMacaqueVoting.sol\":1510:1520  msg.sender */\n      caller\n        /* \"contracts/RhesusMacaqueVoting.sol\":1487:1520  newProposal.proposer = msg.sender */\n      or\n      dup2\n      sstore\n        /* \"contracts/RhesusMacaqueVoting.sol\":1561:1576  block.timestamp */\n      timestamp\n        /* \"contracts/RhesusMacaqueVoting.sol\":1487:1520  newProposal.proposer = msg.sender */\n      0x01\n        /* \"contracts/RhesusMacaqueVoting.sol\":1531:1558  newProposal.votingStartTime */\n      dup3\n      add\n        /* \"contracts/RhesusMacaqueVoting.sol\":1531:1576  newProposal.votingStartTime = block.timestamp */\n      dup2\n      swap1\n      sstore\n        /* \"contracts/RhesusMacaqueVoting.sol\":1633:1647  votingDuration */\n      sload(0x02)\n        /* \"contracts/RhesusMacaqueVoting.sol\":1615:1647  block.timestamp + votingDuration */\n      tag_77\n      swap2\n      tag_78\n      jump\t// in\n    tag_77:\n        /* \"contracts/RhesusMacaqueVoting.sol\":1587:1612  newProposal.votingEndTime */\n      0x02\n      dup3\n      add\n        /* \"contracts/RhesusMacaqueVoting.sol\":1587:1647  newProposal.votingEndTime = block.timestamp + votingDuration */\n      sstore\n        /* \"contracts/RhesusMacaqueVoting.sol\":1658:1681  newProposal.description */\n      0x07\n      dup2\n      add\n        /* \"contracts/RhesusMacaqueVoting.sol\":1658:1696  newProposal.description = _description */\n      tag_79\n        /* \"contracts/RhesusMacaqueVoting.sol\":1684:1696  _description */\n      dup5\n        /* \"contracts/RhesusMacaqueVoting.sol\":1658:1681  newProposal.description */\n      dup3\n        /* \"contracts/RhesusMacaqueVoting.sol\":1658:1696  newProposal.description = _description */\n      tag_80\n      jump\t// in\n    tag_79:\n      pop\n        /* \"contracts/RhesusMacaqueVoting.sol\":1714:1770  ProposalCreated(proposalCount, msg.sender, _description) */\n      0x7585f467599d0f008985f231af99293be388626ac16ca59505c2f8f88969cd63\n        /* \"contracts/RhesusMacaqueVoting.sol\":1730:1743  proposalCount */\n      sload(0x03)\n        /* \"contracts/RhesusMacaqueVoting.sol\":1745:1755  msg.sender */\n      caller\n        /* \"contracts/RhesusMacaqueVoting.sol\":1757:1769  _description */\n      dup6\n        /* \"contracts/RhesusMacaqueVoting.sol\":1714:1770  ProposalCreated(proposalCount, msg.sender, _description) */\n      mload(0x40)\n      tag_81\n      swap4\n      swap3\n      swap2\n      swap1\n      tag_82\n      jump\t// in\n    tag_81:\n      mload(0x40)\n      dup1\n      swap2\n      sub\n      swap1\n      log1\n      pop\n      pop\n        /* \"contracts/RhesusMacaqueVoting.sol\":1790:1803  proposalCount */\n      sload(0x03)\n        /* \"contracts/RhesusMacaqueVoting.sol\":913:914  _ */\n    tag_74:\n        /* \"contracts/RhesusMacaqueVoting.sol\":1297:1811  function createProposal(string memory _description) external onlyDAO returns (uint256) {... */\n      swap2\n      swap1\n      pop\n      jump\t// out\n        /* \"contracts/RhesusMacaqueVoting.sol\":1819:2505  function vote(uint256 _proposalId, bool _support) external {... */\n    tag_44:\n        /* \"contracts/RhesusMacaqueVoting.sol\":1889:1914  Proposal storage proposal */\n      0x00\n        /* \"contracts/RhesusMacaqueVoting.sol\":1917:1939  proposals[_proposalId] */\n      dup3\n      dup2\n      mstore\n        /* \"contracts/RhesusMacaqueVoting.sol\":1917:1926  proposals */\n      0x05\n        /* \"contracts/RhesusMacaqueVoting.sol\":1917:1939  proposals[_proposalId] */\n      0x20\n      mstore\n      0x40\n      swap1\n      keccak256\n        /* \"contracts/RhesusMacaqueVoting.sol\":1977:2001  proposal.votingStartTime */\n      0x01\n      dup2\n      add\n      sload\n        /* \"contracts/RhesusMacaqueVoting.sol\":1958:1973  block.timestamp */\n      timestamp\n        /* \"contracts/RhesusMacaqueVoting.sol\":1958:2001  block.timestamp >= proposal.votingStartTime */\n      lt\n      dup1\n      iszero\n      swap1\n        /* \"contracts/RhesusMacaqueVoting.sol\":1958:2046  block.timestamp >= proposal.votingStartTime && block.timestamp <= proposal.votingEndTime */\n      tag_84\n      jumpi\n      pop\n        /* \"contracts/RhesusMacaqueVoting.sol\":2024:2032  proposal */\n      dup1\n        /* \"contracts/RhesusMacaqueVoting.sol\":2024:2046  proposal.votingEndTime */\n      0x02\n      add\n      sload\n        /* \"contracts/RhesusMacaqueVoting.sol\":2005:2020  block.timestamp */\n      timestamp\n        /* \"contracts/RhesusMacaqueVoting.sol\":2005:2046  block.timestamp <= proposal.votingEndTime */\n      gt\n      iszero\n        /* \"contracts/RhesusMacaqueVoting.sol\":1958:2046  block.timestamp >= proposal.votingStartTime && block.timestamp <= proposal.votingEndTime */\n    tag_84:\n        /* \"contracts/RhesusMacaqueVoting.sol\":1950:2064  require(block.timestamp >= proposal.votingStartTime && block.timestamp <= proposal.votingEndTime, \"Voting closed\") */\n      tag_85\n      jumpi\n      mload(0x40)\n      shl(0xe5, 0x461bcd)\n      dup2\n      mstore\n        /* \"#utility.yul\":8321:8323   */\n      0x20\n        /* \"contracts/RhesusMacaqueVoting.sol\":1950:2064  require(block.timestamp >= proposal.votingStartTime && block.timestamp <= proposal.votingEndTime, \"Voting closed\") */\n      0x04\n      dup3\n      add\n        /* \"#utility.yul\":8303:8324   */\n      mstore\n        /* \"#utility.yul\":8360:8362   */\n      0x0d\n        /* \"#utility.yul\":8340:8358   */\n      0x24\n      dup3\n      add\n        /* \"#utility.yul\":8333:8363   */\n      mstore\n      shl(0x9a, 0x159bdd1a5b99c818db1bdcd959)\n        /* \"#utility.yul\":8379:8397   */\n      0x44\n      dup3\n      add\n        /* \"#utility.yul\":8372:8415   */\n      mstore\n        /* \"#utility.yul\":8432:8450   */\n      0x64\n      add\n        /* \"contracts/RhesusMacaqueVoting.sol\":1950:2064  require(block.timestamp >= proposal.votingStartTime && block.timestamp <= proposal.votingEndTime, \"Voting closed\") */\n      tag_63\n        /* \"#utility.yul\":8119:8456   */\n      jump\n        /* \"contracts/RhesusMacaqueVoting.sol\":1950:2064  require(block.timestamp >= proposal.votingStartTime && block.timestamp <= proposal.votingEndTime, \"Voting closed\") */\n    tag_85:\n        /* \"contracts/RhesusMacaqueVoting.sol\":2099:2109  msg.sender */\n      caller\n        /* \"contracts/RhesusMacaqueVoting.sol\":2084:2110  proposal.voted[msg.sender] */\n      0x00\n      swap1\n      dup2\n      mstore\n        /* \"contracts/RhesusMacaqueVoting.sol\":2084:2098  proposal.voted */\n      0x04\n      dup3\n      add\n        /* \"contracts/RhesusMacaqueVoting.sol\":2084:2110  proposal.voted[msg.sender] */\n      0x20\n      mstore\n      0x40\n      swap1\n      keccak256\n      sload\n      0xff\n      and\n        /* \"contracts/RhesusMacaqueVoting.sol\":2083:2110  !proposal.voted[msg.sender] */\n      iszero\n        /* \"contracts/RhesusMacaqueVoting.sol\":2075:2128  require(!proposal.voted[msg.sender], \"Already voted\") */\n      tag_88\n      jumpi\n      mload(0x40)\n      shl(0xe5, 0x461bcd)\n      dup2\n      mstore\n        /* \"#utility.yul\":8663:8665   */\n      0x20\n        /* \"contracts/RhesusMacaqueVoting.sol\":2075:2128  require(!proposal.voted[msg.sender], \"Already voted\") */\n      0x04\n      dup3\n      add\n        /* \"#utility.yul\":8645:8666   */\n      mstore\n        /* \"#utility.yul\":8702:8704   */\n      0x0d\n        /* \"#utility.yul\":8682:8700   */\n      0x24\n      dup3\n      add\n        /* \"#utility.yul\":8675:8705   */\n      mstore\n      shl(0x9a, 0x105b1c9958591e481d9bdd1959)\n        /* \"#utility.yul\":8721:8739   */\n      0x44\n      dup3\n      add\n        /* \"#utility.yul\":8714:8757   */\n      mstore\n        /* \"#utility.yul\":8774:8792   */\n      0x64\n      add\n        /* \"contracts/RhesusMacaqueVoting.sol\":2075:2128  require(!proposal.voted[msg.sender], \"Already voted\") */\n      tag_63\n        /* \"#utility.yul\":8461:8798   */\n      jump\n        /* \"contracts/RhesusMacaqueVoting.sol\":2075:2128  require(!proposal.voted[msg.sender], \"Already voted\") */\n    tag_88:\n        /* \"contracts/RhesusMacaqueVoting.sol\":2173:2183  msg.sender */\n      caller\n        /* \"contracts/RhesusMacaqueVoting.sol\":2141:2161  uint256 voterBalance */\n      0x00\n        /* \"contracts/RhesusMacaqueVoting.sol\":2164:2184  balances[msg.sender] */\n      swap1\n      dup2\n      mstore\n        /* \"contracts/RhesusMacaqueVoting.sol\":2164:2172  balances */\n      0x04\n        /* \"contracts/RhesusMacaqueVoting.sol\":2164:2184  balances[msg.sender] */\n      0x20\n      mstore\n      0x40\n      swap1\n      keccak256\n      sload\n        /* \"contracts/RhesusMacaqueVoting.sol\":2203:2219  voterBalance > 0 */\n      dup1\n        /* \"contracts/RhesusMacaqueVoting.sol\":2195:2239  require(voterBalance > 0, \"No voting power\") */\n      tag_91\n      jumpi\n      mload(0x40)\n      shl(0xe5, 0x461bcd)\n      dup2\n      mstore\n        /* \"#utility.yul\":9005:9007   */\n      0x20\n        /* \"contracts/RhesusMacaqueVoting.sol\":2195:2239  require(voterBalance > 0, \"No voting power\") */\n      0x04\n      dup3\n      add\n        /* \"#utility.yul\":8987:9008   */\n      mstore\n        /* \"#utility.yul\":9044:9046   */\n      0x0f\n        /* \"#utility.yul\":9024:9042   */\n      0x24\n      dup3\n      add\n        /* \"#utility.yul\":9017:9047   */\n      mstore\n      shl(0x89, 0x2737903b37ba34b733903837bbb2b9)\n        /* \"#utility.yul\":9063:9081   */\n      0x44\n      dup3\n      add\n        /* \"#utility.yul\":9056:9101   */\n      mstore\n        /* \"#utility.yul\":9118:9136   */\n      0x64\n      add\n        /* \"contracts/RhesusMacaqueVoting.sol\":2195:2239  require(voterBalance > 0, \"No voting power\") */\n      tag_63\n        /* \"#utility.yul\":8803:9142   */\n      jump\n        /* \"contracts/RhesusMacaqueVoting.sol\":2195:2239  require(voterBalance > 0, \"No voting power\") */\n    tag_91:\n        /* \"contracts/RhesusMacaqueVoting.sol\":2256:2264  _support */\n      dup3\n        /* \"contracts/RhesusMacaqueVoting.sol\":2252:2396  if (_support) {... */\n      iszero\n      tag_94\n      jumpi\n        /* \"contracts/RhesusMacaqueVoting.sol\":2302:2314  voterBalance */\n      dup1\n        /* \"contracts/RhesusMacaqueVoting.sol\":2281:2289  proposal */\n      dup3\n        /* \"contracts/RhesusMacaqueVoting.sol\":2281:2298  proposal.votesFor */\n      0x05\n      add\n      0x00\n        /* \"contracts/RhesusMacaqueVoting.sol\":2281:2314  proposal.votesFor += voterBalance */\n      dup3\n      dup3\n      sload\n      tag_95\n      swap2\n      swap1\n      tag_78\n      jump\t// in\n    tag_95:\n      swap1\n      swap2\n      sstore\n      pop\n        /* \"contracts/RhesusMacaqueVoting.sol\":2252:2396  if (_support) {... */\n      tag_96\n      swap1\n      pop\n      jump\n    tag_94:\n        /* \"contracts/RhesusMacaqueVoting.sol\":2372:2384  voterBalance */\n      dup1\n        /* \"contracts/RhesusMacaqueVoting.sol\":2347:2355  proposal */\n      dup3\n        /* \"contracts/RhesusMacaqueVoting.sol\":2347:2368  proposal.votesAgainst */\n      0x06\n      add\n      0x00\n        /* \"contracts/RhesusMacaqueVoting.sol\":2347:2384  proposal.votesAgainst += voterBalance */\n      dup3\n      dup3\n      sload\n      tag_97\n      swap2\n      swap1\n      tag_78\n      jump\t// in\n    tag_97:\n      swap1\n      swap2\n      sstore\n      pop\n      pop\n        /* \"contracts/RhesusMacaqueVoting.sol\":2252:2396  if (_support) {... */\n    tag_96:\n        /* \"contracts/RhesusMacaqueVoting.sol\":2423:2433  msg.sender */\n      caller\n        /* \"contracts/RhesusMacaqueVoting.sol\":2408:2434  proposal.voted[msg.sender] */\n      0x00\n      dup2\n      dup2\n      mstore\n        /* \"contracts/RhesusMacaqueVoting.sol\":2408:2422  proposal.voted */\n      0x04\n      dup5\n      add\n        /* \"contracts/RhesusMacaqueVoting.sol\":2408:2434  proposal.voted[msg.sender] */\n      0x20\n      swap1\n      dup2\n      mstore\n      0x40\n      swap2\n      dup3\n      swap1\n      keccak256\n        /* \"contracts/RhesusMacaqueVoting.sol\":2408:2441  proposal.voted[msg.sender] = true */\n      dup1\n      sload\n      not(0xff)\n      and\n        /* \"contracts/RhesusMacaqueVoting.sol\":2437:2441  true */\n      0x01\n        /* \"contracts/RhesusMacaqueVoting.sol\":2408:2441  proposal.voted[msg.sender] = true */\n      or\n      swap1\n      sstore\n        /* \"contracts/RhesusMacaqueVoting.sol\":2457:2497  Voted(_proposalId, msg.sender, _support) */\n      dup2\n      mload\n        /* \"#utility.yul\":9343:9368   */\n      dup8\n      dup2\n      mstore\n        /* \"#utility.yul\":9384:9402   */\n      swap1\n      dup2\n      add\n        /* \"#utility.yul\":9377:9437   */\n      swap3\n      swap1\n      swap3\n      mstore\n        /* \"#utility.yul\":9480:9494   */\n      dup5\n      iszero\n        /* \"#utility.yul\":9473:9495   */\n      iszero\n        /* \"#utility.yul\":9453:9471   */\n      swap1\n      dup3\n      add\n        /* \"#utility.yul\":9446:9496   */\n      mstore\n        /* \"contracts/RhesusMacaqueVoting.sol\":2457:2497  Voted(_proposalId, msg.sender, _support) */\n      0xf2913dbe661ee2acc4a046d8fbcdc792373bda34c41c6086484b5345e5785e5f\n      swap1\n        /* \"#utility.yul\":9331:9333   */\n      0x60\n        /* \"#utility.yul\":9316:9334   */\n      add\n        /* \"contracts/RhesusMacaqueVoting.sol\":2457:2497  Voted(_proposalId, msg.sender, _support) */\n      mload(0x40)\n      dup1\n      swap2\n      sub\n      swap1\n      log1\n        /* \"contracts/RhesusMacaqueVoting.sol\":1878:2505  {... */\n      pop\n      pop\n        /* \"contracts/RhesusMacaqueVoting.sol\":1819:2505  function vote(uint256 _proposalId, bool _support) external {... */\n      pop\n      pop\n      jump\t// out\n        /* \"contracts/RhesusMacaqueVoting.sol\":3029:3207  function updateVotingPower(address _user, uint256 _amount) external onlyDAO {... */\n    tag_51:\n        /* \"contracts/RhesusMacaqueVoting.sol\":872:890  governanceContract */\n      and(sub(shl(0xa0, 0x01), 0x01), sload(0x00))\n        /* \"contracts/RhesusMacaqueVoting.sol\":858:868  msg.sender */\n      caller\n        /* \"contracts/RhesusMacaqueVoting.sol\":858:890  msg.sender == governanceContract */\n      eq\n        /* \"contracts/RhesusMacaqueVoting.sol\":850:902  require(msg.sender == governanceContract, \"Not DAO\") */\n      tag_101\n      jumpi\n      mload(0x40)\n      shl(0xe5, 0x461bcd)\n      dup2\n      mstore\n        /* \"#utility.yul\":5067:5069   */\n      0x20\n        /* \"contracts/RhesusMacaqueVoting.sol\":850:902  require(msg.sender == governanceContract, \"Not DAO\") */\n      0x04\n      dup3\n      add\n        /* \"#utility.yul\":5049:5070   */\n      mstore\n        /* \"#utility.yul\":5106:5107   */\n      0x07\n        /* \"#utility.yul\":5086:5104   */\n      0x24\n      dup3\n      add\n        /* \"#utility.yul\":5079:5108   */\n      mstore\n      shl(0xc8, 0x4e6f742044414f)\n        /* \"#utility.yul\":5124:5142   */\n      0x44\n      dup3\n      add\n        /* \"#utility.yul\":5117:5154   */\n      mstore\n        /* \"#utility.yul\":5171:5189   */\n      0x64\n      add\n        /* \"contracts/RhesusMacaqueVoting.sol\":850:902  require(msg.sender == governanceContract, \"Not DAO\") */\n      tag_63\n        /* \"#utility.yul\":4865:5195   */\n      jump\n        /* \"contracts/RhesusMacaqueVoting.sol\":850:902  require(msg.sender == governanceContract, \"Not DAO\") */\n    tag_101:\n      sub(shl(0xa0, 0x01), 0x01)\n        /* \"contracts/RhesusMacaqueVoting.sol\":3124:3143  _user != address(0) */\n      dup3\n      and\n        /* \"contracts/RhesusMacaqueVoting.sol\":3116:3163  require(_user != address(0), \"Invalid address\") */\n      tag_104\n      jumpi\n      mload(0x40)\n      shl(0xe5, 0x461bcd)\n      dup2\n      mstore\n        /* \"#utility.yul\":9709:9711   */\n      0x20\n        /* \"contracts/RhesusMacaqueVoting.sol\":3116:3163  require(_user != address(0), \"Invalid address\") */\n      0x04\n      dup3\n      add\n        /* \"#utility.yul\":9691:9712   */\n      mstore\n        /* \"#utility.yul\":9748:9750   */\n      0x0f\n        /* \"#utility.yul\":9728:9746   */\n      0x24\n      dup3\n      add\n        /* \"#utility.yul\":9721:9751   */\n      mstore\n      shl(0x88, 0x496e76616c69642061646472657373)\n        /* \"#utility.yul\":9767:9785   */\n      0x44\n      dup3\n      add\n        /* \"#utility.yul\":9760:9805   */\n      mstore\n        /* \"#utility.yul\":9822:9840   */\n      0x64\n      add\n        /* \"contracts/RhesusMacaqueVoting.sol\":3116:3163  require(_user != address(0), \"Invalid address\") */\n      tag_63\n        /* \"#utility.yul\":9507:9846   */\n      jump\n        /* \"contracts/RhesusMacaqueVoting.sol\":3116:3163  require(_user != address(0), \"Invalid address\") */\n    tag_104:\n      sub(shl(0xa0, 0x01), 0x01)\n        /* \"contracts/RhesusMacaqueVoting.sol\":3174:3189  balances[_user] */\n      swap1\n      swap2\n      and\n      0x00\n      swap1\n      dup2\n      mstore\n        /* \"contracts/RhesusMacaqueVoting.sol\":3174:3182  balances */\n      0x04\n        /* \"contracts/RhesusMacaqueVoting.sol\":3174:3189  balances[_user] */\n      0x20\n      mstore\n      0x40\n      swap1\n      keccak256\n        /* \"contracts/RhesusMacaqueVoting.sol\":3174:3199  balances[_user] = _amount */\n      sstore\n        /* \"contracts/RhesusMacaqueVoting.sol\":3029:3207  function updateVotingPower(address _user, uint256 _amount) external onlyDAO {... */\n      jump\t// out\n        /* \"#utility.yul\":14:240   */\n    tag_16:\n        /* \"#utility.yul\":73:79   */\n      0x00\n        /* \"#utility.yul\":126:128   */\n      0x20\n        /* \"#utility.yul\":114:123   */\n      dup3\n        /* \"#utility.yul\":105:112   */\n      dup5\n        /* \"#utility.yul\":101:124   */\n      sub\n        /* \"#utility.yul\":97:129   */\n      slt\n        /* \"#utility.yul\":94:146   */\n      iszero\n      tag_116\n      jumpi\n        /* \"#utility.yul\":142:143   */\n      0x00\n        /* \"#utility.yul\":139:140   */\n      0x00\n        /* \"#utility.yul\":132:144   */\n      revert\n        /* \"#utility.yul\":94:146   */\n    tag_116:\n      pop\n        /* \"#utility.yul\":187:210   */\n      calldataload\n      swap2\n        /* \"#utility.yul\":14:240   */\n      swap1\n      pop\n      jump\t// out\n        /* \"#utility.yul\":245:534   */\n    tag_107:\n        /* \"#utility.yul\":287:290   */\n      0x00\n        /* \"#utility.yul\":325:330   */\n      dup2\n        /* \"#utility.yul\":319:331   */\n      mload\n        /* \"#utility.yul\":352:358   */\n      dup1\n        /* \"#utility.yul\":347:350   */\n      dup5\n        /* \"#utility.yul\":340:359   */\n      mstore\n        /* \"#utility.yul\":408:414   */\n      dup1\n        /* \"#utility.yul\":401:405   */\n      0x20\n        /* \"#utility.yul\":394:399   */\n      dup5\n        /* \"#utility.yul\":390:406   */\n      add\n        /* \"#utility.yul\":383:387   */\n      0x20\n        /* \"#utility.yul\":378:381   */\n      dup7\n        /* \"#utility.yul\":374:388   */\n      add\n        /* \"#utility.yul\":368:415   */\n      mcopy\n        /* \"#utility.yul\":460:461   */\n      0x00\n        /* \"#utility.yul\":453:457   */\n      0x20\n        /* \"#utility.yul\":444:450   */\n      dup3\n        /* \"#utility.yul\":439:442   */\n      dup7\n        /* \"#utility.yul\":435:451   */\n      add\n        /* \"#utility.yul\":431:458   */\n      add\n        /* \"#utility.yul\":424:462   */\n      mstore\n        /* \"#utility.yul\":523:527   */\n      0x20\n        /* \"#utility.yul\":516:518   */\n      0x1f\n        /* \"#utility.yul\":512:519   */\n      not\n        /* \"#utility.yul\":507:509   */\n      0x1f\n        /* \"#utility.yul\":499:505   */\n      dup4\n        /* \"#utility.yul\":495:510   */\n      add\n        /* \"#utility.yul\":491:520   */\n      and\n        /* \"#utility.yul\":486:489   */\n      dup6\n        /* \"#utility.yul\":482:521   */\n      add\n        /* \"#utility.yul\":478:528   */\n      add\n        /* \"#utility.yul\":471:528   */\n      swap2\n      pop\n      pop\n        /* \"#utility.yul\":245:534   */\n      swap3\n      swap2\n      pop\n      pop\n      jump\t// out\n        /* \"#utility.yul\":539:1226   */\n    tag_19:\n        /* \"#utility.yul\":879:880   */\n      0x01\n        /* \"#utility.yul\":875:876   */\n      dup1\n        /* \"#utility.yul\":870:873   */\n      0xa0\n        /* \"#utility.yul\":866:877   */\n      shl\n        /* \"#utility.yul\":862:881   */\n      sub\n        /* \"#utility.yul\":854:860   */\n      dup9\n        /* \"#utility.yul\":850:882   */\n      and\n        /* \"#utility.yul\":839:848   */\n      dup2\n        /* \"#utility.yul\":832:883   */\n      mstore\n        /* \"#utility.yul\":919:925   */\n      dup7\n        /* \"#utility.yul\":914:916   */\n      0x20\n        /* \"#utility.yul\":903:912   */\n      dup3\n        /* \"#utility.yul\":899:917   */\n      add\n        /* \"#utility.yul\":892:926   */\n      mstore\n        /* \"#utility.yul\":962:968   */\n      dup6\n        /* \"#utility.yul\":957:959   */\n      0x40\n        /* \"#utility.yul\":946:955   */\n      dup3\n        /* \"#utility.yul\":942:960   */\n      add\n        /* \"#utility.yul\":935:969   */\n      mstore\n        /* \"#utility.yul\":1019:1025   */\n      dup5\n        /* \"#utility.yul\":1012:1026   */\n      iszero\n        /* \"#utility.yul\":1005:1027   */\n      iszero\n        /* \"#utility.yul\":1000:1002   */\n      0x60\n        /* \"#utility.yul\":989:998   */\n      dup3\n        /* \"#utility.yul\":985:1003   */\n      add\n        /* \"#utility.yul\":978:1028   */\n      mstore\n        /* \"#utility.yul\":1065:1071   */\n      dup4\n        /* \"#utility.yul\":1059:1062   */\n      0x80\n        /* \"#utility.yul\":1048:1057   */\n      dup3\n        /* \"#utility.yul\":1044:1063   */\n      add\n        /* \"#utility.yul\":1037:1072   */\n      mstore\n        /* \"#utility.yul\":1109:1115   */\n      dup3\n        /* \"#utility.yul\":1103:1106   */\n      0xa0\n        /* \"#utility.yul\":1092:1101   */\n      dup3\n        /* \"#utility.yul\":1088:1107   */\n      add\n        /* \"#utility.yul\":1081:1116   */\n      mstore\n        /* \"#utility.yul\":1153:1156   */\n      0xe0\n        /* \"#utility.yul\":1147:1150   */\n      0xc0\n        /* \"#utility.yul\":1136:1145   */\n      dup3\n        /* \"#utility.yul\":1132:1151   */\n      add\n        /* \"#utility.yul\":1125:1157   */\n      mstore\n        /* \"#utility.yul\":813:817   */\n      0x00\n        /* \"#utility.yul\":1174:1220   */\n      tag_119\n        /* \"#utility.yul\":1215:1218   */\n      0xe0\n        /* \"#utility.yul\":1204:1213   */\n      dup4\n        /* \"#utility.yul\":1200:1219   */\n      add\n        /* \"#utility.yul\":1192:1198   */\n      dup5\n        /* \"#utility.yul\":1174:1220   */\n      tag_107\n      jump\t// in\n    tag_119:\n        /* \"#utility.yul\":1166:1220   */\n      swap10\n        /* \"#utility.yul\":539:1226   */\n      swap9\n      pop\n      pop\n      pop\n      pop\n      pop\n      pop\n      pop\n      pop\n      pop\n      jump\t// out\n        /* \"#utility.yul\":1413:1586   */\n    tag_108:\n        /* \"#utility.yul\":1481:1501   */\n      dup1\n      calldataload\n      sub(shl(0xa0, 0x01), 0x01)\n        /* \"#utility.yul\":1530:1561   */\n      dup2\n      and\n        /* \"#utility.yul\":1520:1562   */\n      dup2\n      eq\n        /* \"#utility.yul\":1510:1580   */\n      tag_74\n      jumpi\n        /* \"#utility.yul\":1576:1577   */\n      0x00\n        /* \"#utility.yul\":1573:1574   */\n      0x00\n        /* \"#utility.yul\":1566:1578   */\n      revert\n        /* \"#utility.yul\":1591:1777   */\n    tag_29:\n        /* \"#utility.yul\":1650:1656   */\n      0x00\n        /* \"#utility.yul\":1703:1705   */\n      0x20\n        /* \"#utility.yul\":1691:1700   */\n      dup3\n        /* \"#utility.yul\":1682:1689   */\n      dup5\n        /* \"#utility.yul\":1678:1701   */\n      sub\n        /* \"#utility.yul\":1674:1706   */\n      slt\n        /* \"#utility.yul\":1671:1723   */\n      iszero\n      tag_124\n      jumpi\n        /* \"#utility.yul\":1719:1720   */\n      0x00\n        /* \"#utility.yul\":1716:1717   */\n      0x00\n        /* \"#utility.yul\":1709:1721   */\n      revert\n        /* \"#utility.yul\":1671:1723   */\n    tag_124:\n        /* \"#utility.yul\":1742:1771   */\n      tag_125\n        /* \"#utility.yul\":1761:1770   */\n      dup3\n        /* \"#utility.yul\":1742:1771   */\n      tag_108\n      jump\t// in\n    tag_125:\n        /* \"#utility.yul\":1732:1771   */\n      swap4\n        /* \"#utility.yul\":1591:1777   */\n      swap3\n      pop\n      pop\n      pop\n      jump\t// out\n        /* \"#utility.yul\":1782:1909   */\n    tag_109:\n        /* \"#utility.yul\":1843:1853   */\n      0x4e487b71\n        /* \"#utility.yul\":1838:1841   */\n      0xe0\n        /* \"#utility.yul\":1834:1854   */\n      shl\n        /* \"#utility.yul\":1831:1832   */\n      0x00\n        /* \"#utility.yul\":1824:1855   */\n      mstore\n        /* \"#utility.yul\":1874:1878   */\n      0x41\n        /* \"#utility.yul\":1871:1872   */\n      0x04\n        /* \"#utility.yul\":1864:1879   */\n      mstore\n        /* \"#utility.yul\":1898:1902   */\n      0x24\n        /* \"#utility.yul\":1895:1896   */\n      0x00\n        /* \"#utility.yul\":1888:1903   */\n      revert\n        /* \"#utility.yul\":1914:2859   */\n    tag_34:\n        /* \"#utility.yul\":1983:1989   */\n      0x00\n        /* \"#utility.yul\":2036:2038   */\n      0x20\n        /* \"#utility.yul\":2024:2033   */\n      dup3\n        /* \"#utility.yul\":2015:2022   */\n      dup5\n        /* \"#utility.yul\":2011:2034   */\n      sub\n        /* \"#utility.yul\":2007:2039   */\n      slt\n        /* \"#utility.yul\":2004:2056   */\n      iszero\n      tag_128\n      jumpi\n        /* \"#utility.yul\":2052:2053   */\n      0x00\n        /* \"#utility.yul\":2049:2050   */\n      0x00\n        /* \"#utility.yul\":2042:2054   */\n      revert\n        /* \"#utility.yul\":2004:2056   */\n    tag_128:\n        /* \"#utility.yul\":2092:2101   */\n      dup2\n        /* \"#utility.yul\":2079:2102   */\n      calldataload\n        /* \"#utility.yul\":2125:2143   */\n      0xffffffffffffffff\n        /* \"#utility.yul\":2117:2123   */\n      dup2\n        /* \"#utility.yul\":2114:2144   */\n      gt\n        /* \"#utility.yul\":2111:2161   */\n      iszero\n      tag_129\n      jumpi\n        /* \"#utility.yul\":2157:2158   */\n      0x00\n        /* \"#utility.yul\":2154:2155   */\n      0x00\n        /* \"#utility.yul\":2147:2159   */\n      revert\n        /* \"#utility.yul\":2111:2161   */\n    tag_129:\n        /* \"#utility.yul\":2180:2202   */\n      dup3\n      add\n        /* \"#utility.yul\":2233:2237   */\n      0x1f\n        /* \"#utility.yul\":2225:2238   */\n      dup2\n      add\n        /* \"#utility.yul\":2221:2248   */\n      dup5\n      sgt\n        /* \"#utility.yul\":2211:2266   */\n      tag_130\n      jumpi\n        /* \"#utility.yul\":2262:2263   */\n      0x00\n        /* \"#utility.yul\":2259:2260   */\n      0x00\n        /* \"#utility.yul\":2252:2264   */\n      revert\n        /* \"#utility.yul\":2211:2266   */\n    tag_130:\n        /* \"#utility.yul\":2302:2304   */\n      dup1\n        /* \"#utility.yul\":2289:2305   */\n      calldataload\n        /* \"#utility.yul\":2328:2346   */\n      0xffffffffffffffff\n        /* \"#utility.yul\":2320:2326   */\n      dup2\n        /* \"#utility.yul\":2317:2347   */\n      gt\n        /* \"#utility.yul\":2314:2370   */\n      iszero\n      tag_132\n      jumpi\n        /* \"#utility.yul\":2350:2368   */\n      tag_132\n      tag_109\n      jump\t// in\n    tag_132:\n        /* \"#utility.yul\":2399:2401   */\n      0x40\n        /* \"#utility.yul\":2393:2402   */\n      mload\n        /* \"#utility.yul\":2491:2493   */\n      0x1f\n        /* \"#utility.yul\":2453:2470   */\n      dup3\n      add\n      not(0x1f)\n        /* \"#utility.yul\":2449:2480   */\n      swap1\n      dup2\n      and\n        /* \"#utility.yul\":2482:2484   */\n      0x3f\n        /* \"#utility.yul\":2445:2485   */\n      add\n        /* \"#utility.yul\":2441:2495   */\n      and\n        /* \"#utility.yul\":2429:2496   */\n      dup2\n      add\n        /* \"#utility.yul\":2526:2544   */\n      0xffffffffffffffff\n        /* \"#utility.yul\":2511:2545   */\n      dup2\n      gt\n        /* \"#utility.yul\":2547:2569   */\n      dup3\n      dup3\n      lt\n        /* \"#utility.yul\":2508:2570   */\n      or\n        /* \"#utility.yul\":2505:2593   */\n      iszero\n      tag_134\n      jumpi\n        /* \"#utility.yul\":2573:2591   */\n      tag_134\n      tag_109\n      jump\t// in\n    tag_134:\n        /* \"#utility.yul\":2609:2611   */\n      0x40\n        /* \"#utility.yul\":2602:2624   */\n      mstore\n        /* \"#utility.yul\":2633:2655   */\n      dup2\n      dup2\n      mstore\n        /* \"#utility.yul\":2674:2689   */\n      dup3\n      dup3\n      add\n        /* \"#utility.yul\":2691:2693   */\n      0x20\n        /* \"#utility.yul\":2670:2694   */\n      add\n        /* \"#utility.yul\":2667:2704   */\n      dup7\n      lt\n        /* \"#utility.yul\":2664:2721   */\n      iszero\n      tag_135\n      jumpi\n        /* \"#utility.yul\":2717:2718   */\n      0x00\n        /* \"#utility.yul\":2714:2715   */\n      0x00\n        /* \"#utility.yul\":2707:2719   */\n      revert\n        /* \"#utility.yul\":2664:2721   */\n    tag_135:\n        /* \"#utility.yul\":2773:2779   */\n      dup2\n        /* \"#utility.yul\":2768:2770   */\n      0x20\n        /* \"#utility.yul\":2764:2766   */\n      dup5\n        /* \"#utility.yul\":2760:2771   */\n      add\n        /* \"#utility.yul\":2755:2757   */\n      0x20\n        /* \"#utility.yul\":2747:2753   */\n      dup4\n        /* \"#utility.yul\":2743:2758   */\n      add\n        /* \"#utility.yul\":2730:2780   */\n      calldatacopy\n        /* \"#utility.yul\":2826:2827   */\n      0x00\n        /* \"#utility.yul\":2800:2819   */\n      swap2\n      dup2\n      add\n        /* \"#utility.yul\":2821:2823   */\n      0x20\n        /* \"#utility.yul\":2796:2824   */\n      add\n        /* \"#utility.yul\":2789:2828   */\n      swap2\n      swap1\n      swap2\n      mstore\n        /* \"#utility.yul\":2804:2810   */\n      swap5\n        /* \"#utility.yul\":1914:2859   */\n      swap4\n      pop\n      pop\n      pop\n      pop\n      jump\t// out\n        /* \"#utility.yul\":3072:3467   */\n    tag_43:\n        /* \"#utility.yul\":3137:3143   */\n      0x00\n        /* \"#utility.yul\":3145:3151   */\n      0x00\n        /* \"#utility.yul\":3198:3200   */\n      0x40\n        /* \"#utility.yul\":3186:3195   */\n      dup4\n        /* \"#utility.yul\":3177:3184   */\n      dup6\n        /* \"#utility.yul\":3173:3196   */\n      sub\n        /* \"#utility.yul\":3169:3201   */\n      slt\n        /* \"#utility.yul\":3166:3218   */\n      iszero\n      tag_138\n      jumpi\n        /* \"#utility.yul\":3214:3215   */\n      0x00\n        /* \"#utility.yul\":3211:3212   */\n      0x00\n        /* \"#utility.yul\":3204:3216   */\n      revert\n        /* \"#utility.yul\":3166:3218   */\n    tag_138:\n        /* \"#utility.yul\":3259:3282   */\n      dup3\n      calldataload\n      swap2\n      pop\n        /* \"#utility.yul\":3358:3360   */\n      0x20\n        /* \"#utility.yul\":3343:3361   */\n      dup4\n      add\n        /* \"#utility.yul\":3330:3362   */\n      calldataload\n        /* \"#utility.yul\":3400:3415   */\n      dup1\n      iszero\n        /* \"#utility.yul\":3393:3416   */\n      iszero\n        /* \"#utility.yul\":3381:3417   */\n      dup2\n      eq\n        /* \"#utility.yul\":3371:3435   */\n      tag_139\n      jumpi\n        /* \"#utility.yul\":3431:3432   */\n      0x00\n        /* \"#utility.yul\":3428:3429   */\n      0x00\n        /* \"#utility.yul\":3421:3433   */\n      revert\n        /* \"#utility.yul\":3371:3435   */\n    tag_139:\n        /* \"#utility.yul\":3454:3461   */\n      dup1\n        /* \"#utility.yul\":3444:3461   */\n      swap2\n      pop\n      pop\n        /* \"#utility.yul\":3072:3467   */\n      swap3\n      pop\n      swap3\n      swap1\n      pop\n      jump\t// out\n        /* \"#utility.yul\":3472:3772   */\n    tag_50:\n        /* \"#utility.yul\":3540:3546   */\n      0x00\n        /* \"#utility.yul\":3548:3554   */\n      0x00\n        /* \"#utility.yul\":3601:3603   */\n      0x40\n        /* \"#utility.yul\":3589:3598   */\n      dup4\n        /* \"#utility.yul\":3580:3587   */\n      dup6\n        /* \"#utility.yul\":3576:3599   */\n      sub\n        /* \"#utility.yul\":3572:3604   */\n      slt\n        /* \"#utility.yul\":3569:3621   */\n      iszero\n      tag_141\n      jumpi\n        /* \"#utility.yul\":3617:3618   */\n      0x00\n        /* \"#utility.yul\":3614:3615   */\n      0x00\n        /* \"#utility.yul\":3607:3619   */\n      revert\n        /* \"#utility.yul\":3569:3621   */\n    tag_141:\n        /* \"#utility.yul\":3640:3669   */\n      tag_142\n        /* \"#utility.yul\":3659:3668   */\n      dup4\n        /* \"#utility.yul\":3640:3669   */\n      tag_108\n      jump\t// in\n    tag_142:\n        /* \"#utility.yul\":3630:3669   */\n      swap5\n        /* \"#utility.yul\":3738:3740   */\n      0x20\n        /* \"#utility.yul\":3723:3741   */\n      swap4\n      swap1\n      swap4\n      add\n        /* \"#utility.yul\":3710:3742   */\n      calldataload\n      swap4\n      pop\n      pop\n      pop\n        /* \"#utility.yul\":3472:3772   */\n      jump\t// out\n        /* \"#utility.yul\":3777:4157   */\n    tag_56:\n        /* \"#utility.yul\":3856:3857   */\n      0x01\n        /* \"#utility.yul\":3852:3864   */\n      dup2\n      dup2\n      shr\n      swap1\n        /* \"#utility.yul\":3899:3911   */\n      dup3\n      and\n      dup1\n        /* \"#utility.yul\":3920:3981   */\n      tag_144\n      jumpi\n        /* \"#utility.yul\":3974:3978   */\n      0x7f\n        /* \"#utility.yul\":3966:3972   */\n      dup3\n        /* \"#utility.yul\":3962:3979   */\n      and\n        /* \"#utility.yul\":3952:3979   */\n      swap2\n      pop\n        /* \"#utility.yul\":3920:3981   */\n    tag_144:\n        /* \"#utility.yul\":4027:4029   */\n      0x20\n        /* \"#utility.yul\":4019:4025   */\n      dup3\n        /* \"#utility.yul\":4016:4030   */\n      lt\n        /* \"#utility.yul\":3996:4014   */\n      dup2\n        /* \"#utility.yul\":3993:4031   */\n      sub\n        /* \"#utility.yul\":3990:4151   */\n      tag_145\n      jumpi\n        /* \"#utility.yul\":4073:4083   */\n      0x4e487b71\n        /* \"#utility.yul\":4068:4071   */\n      0xe0\n        /* \"#utility.yul\":4064:4084   */\n      shl\n        /* \"#utility.yul\":4061:4062   */\n      0x00\n        /* \"#utility.yul\":4054:4085   */\n      mstore\n        /* \"#utility.yul\":4108:4112   */\n      0x22\n        /* \"#utility.yul\":4105:4106   */\n      0x04\n        /* \"#utility.yul\":4098:4113   */\n      mstore\n        /* \"#utility.yul\":4136:4140   */\n      0x24\n        /* \"#utility.yul\":4133:4134   */\n      0x00\n        /* \"#utility.yul\":4126:4141   */\n      revert\n        /* \"#utility.yul\":3990:4151   */\n    tag_145:\n      pop\n        /* \"#utility.yul\":3777:4157   */\n      swap2\n      swap1\n      pop\n      jump\t// out\n        /* \"#utility.yul\":5200:5327   */\n    tag_110:\n        /* \"#utility.yul\":5261:5271   */\n      0x4e487b71\n        /* \"#utility.yul\":5256:5259   */\n      0xe0\n        /* \"#utility.yul\":5252:5272   */\n      shl\n        /* \"#utility.yul\":5249:5250   */\n      0x00\n        /* \"#utility.yul\":5242:5273   */\n      mstore\n        /* \"#utility.yul\":5292:5296   */\n      0x11\n        /* \"#utility.yul\":5289:5290   */\n      0x04\n        /* \"#utility.yul\":5282:5297   */\n      mstore\n        /* \"#utility.yul\":5316:5320   */\n      0x24\n        /* \"#utility.yul\":5313:5314   */\n      0x00\n        /* \"#utility.yul\":5306:5321   */\n      revert\n        /* \"#utility.yul\":5332:5467   */\n    tag_76:\n        /* \"#utility.yul\":5371:5374   */\n      0x00\n        /* \"#utility.yul\":5392:5409   */\n      0x01\n      dup3\n      add\n        /* \"#utility.yul\":5389:5432   */\n      tag_152\n      jumpi\n        /* \"#utility.yul\":5412:5430   */\n      tag_152\n      tag_110\n      jump\t// in\n    tag_152:\n      pop\n        /* \"#utility.yul\":5459:5460   */\n      0x01\n        /* \"#utility.yul\":5448:5461   */\n      add\n      swap1\n        /* \"#utility.yul\":5332:5467   */\n      jump\t// out\n        /* \"#utility.yul\":5472:5597   */\n    tag_78:\n        /* \"#utility.yul\":5537:5546   */\n      dup1\n      dup3\n      add\n        /* \"#utility.yul\":5558:5568   */\n      dup1\n      dup3\n      gt\n        /* \"#utility.yul\":5555:5591   */\n      iszero\n      tag_155\n      jumpi\n        /* \"#utility.yul\":5571:5589   */\n      tag_155\n      tag_110\n      jump\t// in\n    tag_155:\n        /* \"#utility.yul\":5472:5597   */\n      swap3\n      swap2\n      pop\n      pop\n      jump\t// out\n        /* \"#utility.yul\":5728:6246   */\n    tag_112:\n        /* \"#utility.yul\":5830:5832   */\n      0x1f\n        /* \"#utility.yul\":5825:5828   */\n      dup3\n        /* \"#utility.yul\":5822:5833   */\n      gt\n        /* \"#utility.yul\":5819:6240   */\n      iszero\n      tag_158\n      jumpi\n        /* \"#utility.yul\":5866:5871   */\n      dup1\n        /* \"#utility.yul\":5863:5864   */\n      0x00\n        /* \"#utility.yul\":5856:5872   */\n      mstore\n        /* \"#utility.yul\":5910:5914   */\n      0x20\n        /* \"#utility.yul\":5907:5908   */\n      0x00\n        /* \"#utility.yul\":5897:5915   */\n      keccak256\n        /* \"#utility.yul\":5980:5982   */\n      0x1f\n        /* \"#utility.yul\":5968:5978   */\n      dup5\n        /* \"#utility.yul\":5964:5983   */\n      add\n        /* \"#utility.yul\":5961:5962   */\n      0x05\n        /* \"#utility.yul\":5957:5984   */\n      shr\n        /* \"#utility.yul\":5951:5955   */\n      dup2\n        /* \"#utility.yul\":5947:5985   */\n      add\n        /* \"#utility.yul\":6016:6020   */\n      0x20\n        /* \"#utility.yul\":6004:6014   */\n      dup6\n        /* \"#utility.yul\":6001:6021   */\n      lt\n        /* \"#utility.yul\":5998:6045   */\n      iszero\n      tag_159\n      jumpi\n      pop\n        /* \"#utility.yul\":6039:6043   */\n      dup1\n        /* \"#utility.yul\":5998:6045   */\n    tag_159:\n        /* \"#utility.yul\":6094:6096   */\n      0x1f\n        /* \"#utility.yul\":6089:6092   */\n      dup5\n        /* \"#utility.yul\":6085:6097   */\n      add\n        /* \"#utility.yul\":6082:6083   */\n      0x05\n        /* \"#utility.yul\":6078:6098   */\n      shr\n        /* \"#utility.yul\":6072:6076   */\n      dup3\n        /* \"#utility.yul\":6068:6099   */\n      add\n        /* \"#utility.yul\":6058:6099   */\n      swap2\n      pop\n        /* \"#utility.yul\":6149:6230   */\n    tag_160:\n        /* \"#utility.yul\":6167:6169   */\n      dup2\n        /* \"#utility.yul\":6160:6165   */\n      dup2\n        /* \"#utility.yul\":6157:6170   */\n      lt\n        /* \"#utility.yul\":6149:6230   */\n      iszero\n      tag_162\n      jumpi\n        /* \"#utility.yul\":6226:6227   */\n      0x00\n        /* \"#utility.yul\":6212:6228   */\n      dup2\n      sstore\n        /* \"#utility.yul\":6193:6194   */\n      0x01\n        /* \"#utility.yul\":6182:6195   */\n      add\n        /* \"#utility.yul\":6149:6230   */\n      jump(tag_160)\n    tag_162:\n        /* \"#utility.yul\":6153:6156   */\n      pop\n      pop\n        /* \"#utility.yul\":5819:6240   */\n    tag_158:\n        /* \"#utility.yul\":5728:6246   */\n      pop\n      pop\n      pop\n      jump\t// out\n        /* \"#utility.yul\":6422:7721   */\n    tag_80:\n        /* \"#utility.yul\":6548:6551   */\n      dup2\n        /* \"#utility.yul\":6542:6552   */\n      mload\n        /* \"#utility.yul\":6575:6593   */\n      0xffffffffffffffff\n        /* \"#utility.yul\":6567:6573   */\n      dup2\n        /* \"#utility.yul\":6564:6594   */\n      gt\n        /* \"#utility.yul\":6561:6617   */\n      iszero\n      tag_166\n      jumpi\n        /* \"#utility.yul\":6597:6615   */\n      tag_166\n      tag_109\n      jump\t// in\n    tag_166:\n        /* \"#utility.yul\":6626:6723   */\n      tag_167\n        /* \"#utility.yul\":6716:6722   */\n      dup2\n        /* \"#utility.yul\":6676:6714   */\n      tag_168\n        /* \"#utility.yul\":6708:6712   */\n      dup5\n        /* \"#utility.yul\":6702:6713   */\n      sload\n        /* \"#utility.yul\":6676:6714   */\n      tag_56\n      jump\t// in\n    tag_168:\n        /* \"#utility.yul\":6670:6674   */\n      dup5\n        /* \"#utility.yul\":6626:6723   */\n      tag_112\n      jump\t// in\n    tag_167:\n        /* \"#utility.yul\":6772:6776   */\n      0x20\n        /* \"#utility.yul\":6803:6805   */\n      0x1f\n        /* \"#utility.yul\":6792:6806   */\n      dup3\n      gt\n        /* \"#utility.yul\":6820:6821   */\n      0x01\n        /* \"#utility.yul\":6815:7464   */\n      dup2\n      eq\n      tag_170\n      jumpi\n        /* \"#utility.yul\":7508:7509   */\n      0x00\n        /* \"#utility.yul\":7525:7531   */\n      dup4\n        /* \"#utility.yul\":7522:7611   */\n      iszero\n      tag_171\n      jumpi\n      pop\n        /* \"#utility.yul\":7577:7596   */\n      dup5\n      dup3\n      add\n        /* \"#utility.yul\":7571:7597   */\n      mload\n        /* \"#utility.yul\":7522:7611   */\n    tag_171:\n      not(0x00)\n        /* \"#utility.yul\":6379:6380   */\n      0x03\n        /* \"#utility.yul\":6375:6386   */\n      dup6\n      swap1\n      shl\n        /* \"#utility.yul\":6371:6395   */\n      shr\n        /* \"#utility.yul\":6367:6396   */\n      not\n        /* \"#utility.yul\":6357:6397   */\n      and\n        /* \"#utility.yul\":6403:6404   */\n      0x01\n        /* \"#utility.yul\":6399:6410   */\n      dup5\n      swap1\n      shl\n        /* \"#utility.yul\":6354:6411   */\n      or\n        /* \"#utility.yul\":7624:7705   */\n      dup5\n      sstore\n        /* \"#utility.yul\":6785:7715   */\n      jump(tag_162)\n        /* \"#utility.yul\":6815:7464   */\n    tag_170:\n        /* \"#utility.yul\":5675:5676   */\n      0x00\n        /* \"#utility.yul\":5668:5682   */\n      dup5\n      dup2\n      mstore\n        /* \"#utility.yul\":5712:5716   */\n      0x20\n        /* \"#utility.yul\":5699:5717   */\n      dup2\n      keccak256\n      not(0x1f)\n        /* \"#utility.yul\":6851:6871   */\n      dup6\n      and\n      swap2\n        /* \"#utility.yul\":6969:7191   */\n    tag_174:\n        /* \"#utility.yul\":6983:6990   */\n      dup3\n        /* \"#utility.yul\":6980:6981   */\n      dup2\n        /* \"#utility.yul\":6977:6991   */\n      lt\n        /* \"#utility.yul\":6969:7191   */\n      iszero\n      tag_176\n      jumpi\n        /* \"#utility.yul\":7065:7084   */\n      dup8\n      dup6\n      add\n        /* \"#utility.yul\":7059:7085   */\n      mload\n        /* \"#utility.yul\":7044:7086   */\n      dup3\n      sstore\n        /* \"#utility.yul\":7172:7176   */\n      0x20\n        /* \"#utility.yul\":7157:7177   */\n      swap5\n      dup6\n      add\n      swap5\n        /* \"#utility.yul\":7125:7126   */\n      0x01\n        /* \"#utility.yul\":7113:7127   */\n      swap1\n      swap3\n      add\n      swap2\n        /* \"#utility.yul\":6999:7011   */\n      add\n        /* \"#utility.yul\":6969:7191   */\n      jump(tag_174)\n    tag_176:\n        /* \"#utility.yul\":6973:6976   */\n      pop\n        /* \"#utility.yul\":7219:7225   */\n      dup5\n        /* \"#utility.yul\":7210:7217   */\n      dup3\n        /* \"#utility.yul\":7207:7226   */\n      lt\n        /* \"#utility.yul\":7204:7405   */\n      iszero\n      tag_177\n      jumpi\n        /* \"#utility.yul\":7280:7299   */\n      dup7\n      dup5\n      add\n        /* \"#utility.yul\":7274:7300   */\n      mload\n      not(0x00)\n        /* \"#utility.yul\":7363:7364   */\n      0x03\n        /* \"#utility.yul\":7359:7373   */\n      dup8\n      swap1\n      shl\n        /* \"#utility.yul\":7375:7378   */\n      0xf8\n        /* \"#utility.yul\":7355:7379   */\n      and\n        /* \"#utility.yul\":7351:7388   */\n      shr\n        /* \"#utility.yul\":7347:7389   */\n      not\n        /* \"#utility.yul\":7332:7390   */\n      and\n        /* \"#utility.yul\":7317:7391   */\n      dup2\n      sstore\n        /* \"#utility.yul\":7204:7405   */\n    tag_177:\n      pop\n      pop\n      pop\n      pop\n        /* \"#utility.yul\":7451:7452   */\n      0x01\n        /* \"#utility.yul\":7435:7449   */\n      swap1\n      dup2\n      shl\n        /* \"#utility.yul\":7431:7453   */\n      add\n        /* \"#utility.yul\":7418:7454   */\n      swap1\n      sstore\n      pop\n        /* \"#utility.yul\":6422:7721   */\n      jump\t// out\n        /* \"#utility.yul\":7726:8114   */\n    tag_82:\n        /* \"#utility.yul\":7913:7938   */\n      dup4\n      dup2\n      mstore\n      sub(shl(0xa0, 0x01), 0x01)\n        /* \"#utility.yul\":7974:8006   */\n      dup4\n      and\n        /* \"#utility.yul\":7969:7971   */\n      0x20\n        /* \"#utility.yul\":7954:7972   */\n      dup3\n      add\n        /* \"#utility.yul\":7947:8007   */\n      mstore\n        /* \"#utility.yul\":8043:8045   */\n      0x60\n        /* \"#utility.yul\":8038:8040   */\n      0x40\n        /* \"#utility.yul\":8023:8041   */\n      dup3\n      add\n        /* \"#utility.yul\":8016:8046   */\n      dup2\n      swap1\n      mstore\n      0x00\n      swap1\n        /* \"#utility.yul\":8063:8108   */\n      tag_179\n      swap1\n        /* \"#utility.yul\":8089:8107   */\n      dup4\n      add\n        /* \"#utility.yul\":8081:8087   */\n      dup5\n        /* \"#utility.yul\":8063:8108   */\n      tag_107\n      jump\t// in\n    tag_179:\n        /* \"#utility.yul\":8055:8108   */\n      swap6\n        /* \"#utility.yul\":7726:8114   */\n      swap5\n      pop\n      pop\n      pop\n      pop\n      pop\n      jump\t// out\n\n    auxdata: 0xa26469706673582212203533a8fbb973542c9c337fc72ae28e2d411b8a4bc27cf4635132bda586623cd564736f6c634300081d0033\n}\n",
				"bytecode": {
					"linkReferences": {},
					"object": "608060405234801561000f575f5ffd5b50604051610bf7380380610bf783398101604081905261002e91610131565b6001600160a01b0383166100895760405162461bcd60e51b815260206004820152601a60248201527f496e76616c696420676f7665726e616e6365206164647265737300000000000060448201526064015b60405180910390fd5b6001600160a01b0382166100df5760405162461bcd60e51b815260206004820152601560248201527f496e76616c696420746f6b656e206164647265737300000000000000000000006044820152606401610080565b5f80546001600160a01b039485166001600160a01b031991821617909155600180549390941692169190911790915560025561016a565b80516001600160a01b038116811461012c575f5ffd5b919050565b5f5f5f60608486031215610143575f5ffd5b61014c84610116565b925061015a60208501610116565b9150604084015190509250925092565b610a80806101775f395ff3fe608060405234801561000f575f5ffd5b506004361061009b575f3560e01c8063b172b22211610063578063b172b2221461012c578063c9d27afe14610156578063da35c66414610169578063eadc29c714610172578063fc0c546a14610185575f5ffd5b8063013cf08b1461009f5780630d61b519146100ce578063132002fc146100e357806327e235e3146100fa57806349c2a1a614610119575b5f5ffd5b6100b26100ad3660046106ab565b610198565b6040516100c597969594939291906106f0565b60405180910390f35b6100e16100dc3660046106ab565b61026c565b005b6100ec60025481565b6040519081526020016100c5565b6100ec610108366004610753565b60046020525f908152604090205481565b6100ec610127366004610787565b61037b565b5f5461013e906001600160a01b031681565b6040516001600160a01b0390911681526020016100c5565b6100e161016436600461083a565b610463565b6100ec60035481565b6100e161018036600461086c565b610605565b60015461013e906001600160a01b031681565b600560208190525f918252604090912080546001820154600283015460038401549484015460068501546007860180546001600160a01b03909616979496939560ff90951694929391926101eb90610894565b80601f016020809104026020016040519081016040528092919081815260200182805461021790610894565b80156102625780601f1061023957610100808354040283529160200191610262565b820191905f5260205f20905b81548152906001019060200180831161024557829003601f168201915b5050505050905087565b5f818152600560205260409020600281015442116102c85760405162461bcd60e51b8152602060048201526014602482015273159bdd1a5b99c81b9bdd081e595d08195b99195960621b60448201526064015b60405180910390fd5b600381015460ff161561031d5760405162461bcd60e51b815260206004820152601960248201527f50726f706f73616c20616c72656164792065786563757465640000000000000060448201526064016102bf565b8060060154816005015411156103775760038101805460ff191660011790556040517f712ae1383f79ac853f8d882153778e0260ef8f03b504e2866e0593e04d2b291f9061036e9084815260200190565b60405180910390a15b5050565b5f80546001600160a01b031633146103bf5760405162461bcd60e51b81526020600482015260076024820152664e6f742044414f60c81b60448201526064016102bf565b60038054905f6103ce836108e0565b90915550506003545f90815260056020526040902080546001600160a01b031916331781554260018201819055600254610407916108f8565b60028201556007810161041a848261095d565b507f7585f467599d0f008985f231af99293be388626ac16ca59505c2f8f88969cd63600354338560405161045093929190610a18565b60405180910390a150506003545b919050565b5f82815260056020526040902060018101544210801590610488575080600201544211155b6104c45760405162461bcd60e51b815260206004820152600d60248201526c159bdd1a5b99c818db1bdcd959609a1b60448201526064016102bf565b335f90815260048201602052604090205460ff16156105155760405162461bcd60e51b815260206004820152600d60248201526c105b1c9958591e481d9bdd1959609a1b60448201526064016102bf565b335f90815260046020526040902054806105635760405162461bcd60e51b815260206004820152600f60248201526e2737903b37ba34b733903837bbb2b960891b60448201526064016102bf565b82156105875780826005015f82825461057c91906108f8565b909155506105a09050565b80826006015f82825461059a91906108f8565b90915550505b335f818152600484016020908152604091829020805460ff19166001179055815187815290810192909252841515908201527ff2913dbe661ee2acc4a046d8fbcdc792373bda34c41c6086484b5345e5785e5f9060600160405180910390a150505050565b5f546001600160a01b031633146106485760405162461bcd60e51b81526020600482015260076024820152664e6f742044414f60c81b60448201526064016102bf565b6001600160a01b0382166106905760405162461bcd60e51b815260206004820152600f60248201526e496e76616c6964206164647265737360881b60448201526064016102bf565b6001600160a01b039091165f90815260046020526040902055565b5f602082840312156106bb575f5ffd5b5035919050565b5f81518084528060208401602086015e5f602082860101526020601f19601f83011685010191505092915050565b60018060a01b038816815286602082015285604082015284151560608201528360808201528260a082015260e060c08201525f61073060e08301846106c2565b9998505050505050505050565b80356001600160a01b038116811461045e575f5ffd5b5f60208284031215610763575f5ffd5b61076c8261073d565b9392505050565b634e487b7160e01b5f52604160045260245ffd5b5f60208284031215610797575f5ffd5b813567ffffffffffffffff8111156107ad575f5ffd5b8201601f810184136107bd575f5ffd5b803567ffffffffffffffff8111156107d7576107d7610773565b604051601f8201601f19908116603f0116810167ffffffffffffffff8111828210171561080657610806610773565b60405281815282820160200186101561081d575f5ffd5b816020840160208301375f91810160200191909152949350505050565b5f5f6040838503121561084b575f5ffd5b8235915060208301358015158114610861575f5ffd5b809150509250929050565b5f5f6040838503121561087d575f5ffd5b6108868361073d565b946020939093013593505050565b600181811c908216806108a857607f821691505b6020821081036108c657634e487b7160e01b5f52602260045260245ffd5b50919050565b634e487b7160e01b5f52601160045260245ffd5b5f600182016108f1576108f16108cc565b5060010190565b8082018082111561090b5761090b6108cc565b92915050565b601f82111561095857805f5260205f20601f840160051c810160208510156109365750805b601f840160051c820191505b81811015610955575f8155600101610942565b50505b505050565b815167ffffffffffffffff81111561097757610977610773565b61098b816109858454610894565b84610911565b6020601f8211600181146109bd575f83156109a65750848201515b5f19600385901b1c1916600184901b178455610955565b5f84815260208120601f198516915b828110156109ec57878501518255602094850194600190920191016109cc565b5084821015610a0957868401515f19600387901b60f8161c191681555b50505050600190811b01905550565b8381526001600160a01b03831660208201526060604082018190525f90610a41908301846106c2565b9594505050505056fea26469706673582212203533a8fbb973542c9c337fc72ae28e2d411b8a4bc27cf4635132bda586623cd564736f6c634300081d0033",
					"opcodes": "PUSH1 0x80 PUSH1 0x40 MSTORE CALLVALUE DUP1 ISZERO PUSH2 0xF JUMPI PUSH0 PUSH0 REVERT JUMPDEST POP PUSH1 0x40 MLOAD PUSH2 0xBF7 CODESIZE SUB DUP1 PUSH2 0xBF7 DUP4 CODECOPY DUP2 ADD PUSH1 0x40 DUP2 SWAP1 MSTORE PUSH2 0x2E SWAP2 PUSH2 0x131 JUMP JUMPDEST PUSH1 0x1 PUSH1 0x1 PUSH1 0xA0 SHL SUB DUP4 AND PUSH2 0x89 JUMPI PUSH1 0x40 MLOAD PUSH3 0x461BCD PUSH1 0xE5 SHL DUP2 MSTORE PUSH1 0x20 PUSH1 0x4 DUP3 ADD MSTORE PUSH1 0x1A PUSH1 0x24 DUP3 ADD MSTORE PUSH32 0x496E76616C696420676F7665726E616E63652061646472657373000000000000 PUSH1 0x44 DUP3 ADD MSTORE PUSH1 0x64 ADD JUMPDEST PUSH1 0x40 MLOAD DUP1 SWAP2 SUB SWAP1 REVERT JUMPDEST PUSH1 0x1 PUSH1 0x1 PUSH1 0xA0 SHL SUB DUP3 AND PUSH2 0xDF JUMPI PUSH1 0x40 MLOAD PUSH3 0x461BCD PUSH1 0xE5 SHL DUP2 MSTORE PUSH1 0x20 PUSH1 0x4 DUP3 ADD MSTORE PUSH1 0x15 PUSH1 0x24 DUP3 ADD MSTORE PUSH32 0x496E76616C696420746F6B656E20616464726573730000000000000000000000 PUSH1 0x44 DUP3 ADD MSTORE PUSH1 0x64 ADD PUSH2 0x80 JUMP JUMPDEST PUSH0 DUP1 SLOAD PUSH1 0x1 PUSH1 0x1 PUSH1 0xA0 SHL SUB SWAP5 DUP6 AND PUSH1 0x1 PUSH1 0x1 PUSH1 0xA0 SHL SUB NOT SWAP2 DUP3 AND OR SWAP1 SWAP2 SSTORE PUSH1 0x1 DUP1 SLOAD SWAP4 SWAP1 SWAP5 AND SWAP3 AND SWAP2 SWAP1 SWAP2 OR SWAP1 SWAP2 SSTORE PUSH1 0x2 SSTORE PUSH2 0x16A JUMP JUMPDEST DUP1 MLOAD PUSH1 0x1 PUSH1 0x1 PUSH1 0xA0 SHL SUB DUP2 AND DUP2 EQ PUSH2 0x12C JUMPI PUSH0 PUSH0 REVERT JUMPDEST SWAP2 SWAP1 POP JUMP JUMPDEST PUSH0 PUSH0 PUSH0 PUSH1 0x60 DUP5 DUP7 SUB SLT ISZERO PUSH2 0x143 JUMPI PUSH0 PUSH0 REVERT JUMPDEST PUSH2 0x14C DUP5 PUSH2 0x116 JUMP JUMPDEST SWAP3 POP PUSH2 0x15A PUSH1 0x20 DUP6 ADD PUSH2 0x116 JUMP JUMPDEST SWAP2 POP PUSH1 0x40 DUP5 ADD MLOAD SWAP1 POP SWAP3 POP SWAP3 POP SWAP3 JUMP JUMPDEST PUSH2 0xA80 DUP1 PUSH2 0x177 PUSH0 CODECOPY PUSH0 RETURN INVALID PUSH1 0x80 PUSH1 0x40 MSTORE CALLVALUE DUP1 ISZERO PUSH2 0xF JUMPI PUSH0 PUSH0 REVERT JUMPDEST POP PUSH1 0x4 CALLDATASIZE LT PUSH2 0x9B JUMPI PUSH0 CALLDATALOAD PUSH1 0xE0 SHR DUP1 PUSH4 0xB172B222 GT PUSH2 0x63 JUMPI DUP1 PUSH4 0xB172B222 EQ PUSH2 0x12C JUMPI DUP1 PUSH4 0xC9D27AFE EQ PUSH2 0x156 JUMPI DUP1 PUSH4 0xDA35C664 EQ PUSH2 0x169 JUMPI DUP1 PUSH4 0xEADC29C7 EQ PUSH2 0x172 JUMPI DUP1 PUSH4 0xFC0C546A EQ PUSH2 0x185 JUMPI PUSH0 PUSH0 REVERT JUMPDEST DUP1 PUSH4 0x13CF08B EQ PUSH2 0x9F JUMPI DUP1 PUSH4 0xD61B519 EQ PUSH2 0xCE JUMPI DUP1 PUSH4 0x132002FC EQ PUSH2 0xE3 JUMPI DUP1 PUSH4 0x27E235E3 EQ PUSH2 0xFA JUMPI DUP1 PUSH4 0x49C2A1A6 EQ PUSH2 0x119 JUMPI JUMPDEST PUSH0 PUSH0 REVERT JUMPDEST PUSH2 0xB2 PUSH2 0xAD CALLDATASIZE PUSH1 0x4 PUSH2 0x6AB JUMP JUMPDEST PUSH2 0x198 JUMP JUMPDEST PUSH1 0x40 MLOAD PUSH2 0xC5 SWAP8 SWAP7 SWAP6 SWAP5 SWAP4 SWAP3 SWAP2 SWAP1 PUSH2 0x6F0 JUMP JUMPDEST PUSH1 0x40 MLOAD DUP1 SWAP2 SUB SWAP1 RETURN JUMPDEST PUSH2 0xE1 PUSH2 0xDC CALLDATASIZE PUSH1 0x4 PUSH2 0x6AB JUMP JUMPDEST PUSH2 0x26C JUMP JUMPDEST STOP JUMPDEST PUSH2 0xEC PUSH1 0x2 SLOAD DUP2 JUMP JUMPDEST PUSH1 0x40 MLOAD SWAP1 DUP2 MSTORE PUSH1 0x20 ADD PUSH2 0xC5 JUMP JUMPDEST PUSH2 0xEC PUSH2 0x108 CALLDATASIZE PUSH1 0x4 PUSH2 0x753 JUMP JUMPDEST PUSH1 0x4 PUSH1 0x20 MSTORE PUSH0 SWAP1 DUP2 MSTORE PUSH1 0x40 SWAP1 KECCAK256 SLOAD DUP2 JUMP JUMPDEST PUSH2 0xEC PUSH2 0x127 CALLDATASIZE PUSH1 0x4 PUSH2 0x787 JUMP JUMPDEST PUSH2 0x37B JUMP JUMPDEST PUSH0 SLOAD PUSH2 0x13E SWAP1 PUSH1 0x1 PUSH1 0x1 PUSH1 0xA0 SHL SUB AND DUP2 JUMP JUMPDEST PUSH1 0x40 MLOAD PUSH1 0x1 PUSH1 0x1 PUSH1 0xA0 SHL SUB SWAP1 SWAP2 AND DUP2 MSTORE PUSH1 0x20 ADD PUSH2 0xC5 JUMP JUMPDEST PUSH2 0xE1 PUSH2 0x164 CALLDATASIZE PUSH1 0x4 PUSH2 0x83A JUMP JUMPDEST PUSH2 0x463 JUMP JUMPDEST PUSH2 0xEC PUSH1 0x3 SLOAD DUP2 JUMP JUMPDEST PUSH2 0xE1 PUSH2 0x180 CALLDATASIZE PUSH1 0x4 PUSH2 0x86C JUMP JUMPDEST PUSH2 0x605 JUMP JUMPDEST PUSH1 0x1 SLOAD PUSH2 0x13E SWAP1 PUSH1 0x1 PUSH1 0x1 PUSH1 0xA0 SHL SUB AND DUP2 JUMP JUMPDEST PUSH1 0x5 PUSH1 0x20 DUP2 SWAP1 MSTORE PUSH0 SWAP2 DUP3 MSTORE PUSH1 0x40 SWAP1 SWAP2 KECCAK256 DUP1 SLOAD PUSH1 0x1 DUP3 ADD SLOAD PUSH1 0x2 DUP4 ADD SLOAD PUSH1 0x3 DUP5 ADD SLOAD SWAP5 DUP5 ADD SLOAD PUSH1 0x6 DUP6 ADD SLOAD PUSH1 0x7 DUP7 ADD DUP1 SLOAD PUSH1 0x1 PUSH1 0x1 PUSH1 0xA0 SHL SUB SWAP1 SWAP7 AND SWAP8 SWAP5 SWAP7 SWAP4 SWAP6 PUSH1 0xFF SWAP1 SWAP6 AND SWAP5 SWAP3 SWAP4 SWAP2 SWAP3 PUSH2 0x1EB SWAP1 PUSH2 0x894 JUMP JUMPDEST DUP1 PUSH1 0x1F ADD PUSH1 0x20 DUP1 SWAP2 DIV MUL PUSH1 0x20 ADD PUSH1 0x40 MLOAD SWAP1 DUP2 ADD PUSH1 0x40 MSTORE DUP1 SWAP3 SWAP2 SWAP1 DUP2 DUP2 MSTORE PUSH1 0x20 ADD DUP3 DUP1 SLOAD PUSH2 0x217 SWAP1 PUSH2 0x894 JUMP JUMPDEST DUP1 ISZERO PUSH2 0x262 JUMPI DUP1 PUSH1 0x1F LT PUSH2 0x239 JUMPI PUSH2 0x100 DUP1 DUP4 SLOAD DIV MUL DUP4 MSTORE SWAP2 PUSH1 0x20 ADD SWAP2 PUSH2 0x262 JUMP JUMPDEST DUP3 ADD SWAP2 SWAP1 PUSH0 MSTORE PUSH1 0x20 PUSH0 KECCAK256 SWAP1 JUMPDEST DUP2 SLOAD DUP2 MSTORE SWAP1 PUSH1 0x1 ADD SWAP1 PUSH1 0x20 ADD DUP1 DUP4 GT PUSH2 0x245 JUMPI DUP3 SWAP1 SUB PUSH1 0x1F AND DUP3 ADD SWAP2 JUMPDEST POP POP POP POP POP SWAP1 POP DUP8 JUMP JUMPDEST PUSH0 DUP2 DUP2 MSTORE PUSH1 0x5 PUSH1 0x20 MSTORE PUSH1 0x40 SWAP1 KECCAK256 PUSH1 0x2 DUP2 ADD SLOAD TIMESTAMP GT PUSH2 0x2C8 JUMPI PUSH1 0x40 MLOAD PUSH3 0x461BCD PUSH1 0xE5 SHL DUP2 MSTORE PUSH1 0x20 PUSH1 0x4 DUP3 ADD MSTORE PUSH1 0x14 PUSH1 0x24 DUP3 ADD MSTORE PUSH20 0x159BDD1A5B99C81B9BDD081E595D08195B991959 PUSH1 0x62 SHL PUSH1 0x44 DUP3 ADD MSTORE PUSH1 0x64 ADD JUMPDEST PUSH1 0x40 MLOAD DUP1 SWAP2 SUB SWAP1 REVERT JUMPDEST PUSH1 0x3 DUP2 ADD SLOAD PUSH1 0xFF AND ISZERO PUSH2 0x31D JUMPI PUSH1 0x40 MLOAD PUSH3 0x461BCD PUSH1 0xE5 SHL DUP2 MSTORE PUSH1 0x20 PUSH1 0x4 DUP3 ADD MSTORE PUSH1 0x19 PUSH1 0x24 DUP3 ADD MSTORE PUSH32 0x50726F706F73616C20616C726561647920657865637574656400000000000000 PUSH1 0x44 DUP3 ADD MSTORE PUSH1 0x64 ADD PUSH2 0x2BF JUMP JUMPDEST DUP1 PUSH1 0x6 ADD SLOAD DUP2 PUSH1 0x5 ADD SLOAD GT ISZERO PUSH2 0x377 JUMPI PUSH1 0x3 DUP2 ADD DUP1 SLOAD PUSH1 0xFF NOT AND PUSH1 0x1 OR SWAP1 SSTORE PUSH1 0x40 MLOAD PUSH32 0x712AE1383F79AC853F8D882153778E0260EF8F03B504E2866E0593E04D2B291F SWAP1 PUSH2 0x36E SWAP1 DUP5 DUP2 MSTORE PUSH1 0x20 ADD SWAP1 JUMP JUMPDEST PUSH1 0x40 MLOAD DUP1 SWAP2 SUB SWAP1 LOG1 JUMPDEST POP POP JUMP JUMPDEST PUSH0 DUP1 SLOAD PUSH1 0x1 PUSH1 0x1 PUSH1 0xA0 SHL SUB AND CALLER EQ PUSH2 0x3BF JUMPI PUSH1 0x40 MLOAD PUSH3 0x461BCD PUSH1 0xE5 SHL DUP2 MSTORE PUSH1 0x20 PUSH1 0x4 DUP3 ADD MSTORE PUSH1 0x7 PUSH1 0x24 DUP3 ADD MSTORE PUSH7 0x4E6F742044414F PUSH1 0xC8 SHL PUSH1 0x44 DUP3 ADD MSTORE PUSH1 0x64 ADD PUSH2 0x2BF JUMP JUMPDEST PUSH1 0x3 DUP1 SLOAD SWAP1 PUSH0 PUSH2 0x3CE DUP4 PUSH2 0x8E0 JUMP JUMPDEST SWAP1 SWAP2 SSTORE POP POP PUSH1 0x3 SLOAD PUSH0 SWAP1 DUP2 MSTORE PUSH1 0x5 PUSH1 0x20 MSTORE PUSH1 0x40 SWAP1 KECCAK256 DUP1 SLOAD PUSH1 0x1 PUSH1 0x1 PUSH1 0xA0 SHL SUB NOT AND CALLER OR DUP2 SSTORE TIMESTAMP PUSH1 0x1 DUP3 ADD DUP2 SWAP1 SSTORE PUSH1 0x2 SLOAD PUSH2 0x407 SWAP2 PUSH2 0x8F8 JUMP JUMPDEST PUSH1 0x2 DUP3 ADD SSTORE PUSH1 0x7 DUP2 ADD PUSH2 0x41A DUP5 DUP3 PUSH2 0x95D JUMP JUMPDEST POP PUSH32 0x7585F467599D0F008985F231AF99293BE388626AC16CA59505C2F8F88969CD63 PUSH1 0x3 SLOAD CALLER DUP6 PUSH1 0x40 MLOAD PUSH2 0x450 SWAP4 SWAP3 SWAP2 SWAP1 PUSH2 0xA18 JUMP JUMPDEST PUSH1 0x40 MLOAD DUP1 SWAP2 SUB SWAP1 LOG1 POP POP PUSH1 0x3 SLOAD JUMPDEST SWAP2 SWAP1 POP JUMP JUMPDEST PUSH0 DUP3 DUP2 MSTORE PUSH1 0x5 PUSH1 0x20 MSTORE PUSH1 0x40 SWAP1 KECCAK256 PUSH1 0x1 DUP2 ADD SLOAD TIMESTAMP LT DUP1 ISZERO SWAP1 PUSH2 0x488 JUMPI POP DUP1 PUSH1 0x2 ADD SLOAD TIMESTAMP GT ISZERO JUMPDEST PUSH2 0x4C4 JUMPI PUSH1 0x40 MLOAD PUSH3 0x461BCD PUSH1 0xE5 SHL DUP2 MSTORE PUSH1 0x20 PUSH1 0x4 DUP3 ADD MSTORE PUSH1 0xD PUSH1 0x24 DUP3 ADD MSTORE PUSH13 0x159BDD1A5B99C818DB1BDCD959 PUSH1 0x9A SHL PUSH1 0x44 DUP3 ADD MSTORE PUSH1 0x64 ADD PUSH2 0x2BF JUMP JUMPDEST CALLER PUSH0 SWAP1 DUP2 MSTORE PUSH1 0x4 DUP3 ADD PUSH1 0x20 MSTORE PUSH1 0x40 SWAP1 KECCAK256 SLOAD PUSH1 0xFF AND ISZERO PUSH2 0x515 JUMPI PUSH1 0x40 MLOAD PUSH3 0x461BCD PUSH1 0xE5 SHL DUP2 MSTORE PUSH1 0x20 PUSH1 0x4 DUP3 ADD MSTORE PUSH1 0xD PUSH1 0x24 DUP3 ADD MSTORE PUSH13 0x105B1C9958591E481D9BDD1959 PUSH1 0x9A SHL PUSH1 0x44 DUP3 ADD MSTORE PUSH1 0x64 ADD PUSH2 0x2BF JUMP JUMPDEST CALLER PUSH0 SWAP1 DUP2 MSTORE PUSH1 0x4 PUSH1 0x20 MSTORE PUSH1 0x40 SWAP1 KECCAK256 SLOAD DUP1 PUSH2 0x563 JUMPI PUSH1 0x40 MLOAD PUSH3 0x461BCD PUSH1 0xE5 SHL DUP2 MSTORE PUSH1 0x20 PUSH1 0x4 DUP3 ADD MSTORE PUSH1 0xF PUSH1 0x24 DUP3 ADD MSTORE PUSH15 0x2737903B37BA34B733903837BBB2B9 PUSH1 0x89 SHL PUSH1 0x44 DUP3 ADD MSTORE PUSH1 0x64 ADD PUSH2 0x2BF JUMP JUMPDEST DUP3 ISZERO PUSH2 0x587 JUMPI DUP1 DUP3 PUSH1 0x5 ADD PUSH0 DUP3 DUP3 SLOAD PUSH2 0x57C SWAP2 SWAP1 PUSH2 0x8F8 JUMP JUMPDEST SWAP1 SWAP2 SSTORE POP PUSH2 0x5A0 SWAP1 POP JUMP JUMPDEST DUP1 DUP3 PUSH1 0x6 ADD PUSH0 DUP3 DUP3 SLOAD PUSH2 0x59A SWAP2 SWAP1 PUSH2 0x8F8 JUMP JUMPDEST SWAP1 SWAP2 SSTORE POP POP JUMPDEST CALLER PUSH0 DUP2 DUP2 MSTORE PUSH1 0x4 DUP5 ADD PUSH1 0x20 SWAP1 DUP2 MSTORE PUSH1 0x40 SWAP2 DUP3 SWAP1 KECCAK256 DUP1 SLOAD PUSH1 0xFF NOT AND PUSH1 0x1 OR SWAP1 SSTORE DUP2 MLOAD DUP8 DUP2 MSTORE SWAP1 DUP2 ADD SWAP3 SWAP1 SWAP3 MSTORE DUP5 ISZERO ISZERO SWAP1 DUP3 ADD MSTORE PUSH32 0xF2913DBE661EE2ACC4A046D8FBCDC792373BDA34C41C6086484B5345E5785E5F SWAP1 PUSH1 0x60 ADD PUSH1 0x40 MLOAD DUP1 SWAP2 SUB SWAP1 LOG1 POP POP POP POP JUMP JUMPDEST PUSH0 SLOAD PUSH1 0x1 PUSH1 0x1 PUSH1 0xA0 SHL SUB AND CALLER EQ PUSH2 0x648 JUMPI PUSH1 0x40 MLOAD PUSH3 0x461BCD PUSH1 0xE5 SHL DUP2 MSTORE PUSH1 0x20 PUSH1 0x4 DUP3 ADD MSTORE PUSH1 0x7 PUSH1 0x24 DUP3 ADD MSTORE PUSH7 0x4E6F742044414F PUSH1 0xC8 SHL PUSH1 0x44 DUP3 ADD MSTORE PUSH1 0x64 ADD PUSH2 0x2BF JUMP JUMPDEST PUSH1 0x1 PUSH1 0x1 PUSH1 0xA0 SHL SUB DUP3 AND PUSH2 0x690 JUMPI PUSH1 0x40 MLOAD PUSH3 0x461BCD PUSH1 0xE5 SHL DUP2 MSTORE PUSH1 0x20 PUSH1 0x4 DUP3 ADD MSTORE PUSH1 0xF PUSH1 0x24 DUP3 ADD MSTORE PUSH15 0x496E76616C69642061646472657373 PUSH1 0x88 SHL PUSH1 0x44 DUP3 ADD MSTORE PUSH1 0x64 ADD PUSH2 0x2BF JUMP JUMPDEST PUSH1 0x1 PUSH1 0x1 PUSH1 0xA0 SHL SUB SWAP1 SWAP2 AND PUSH0 SWAP1 DUP2 MSTORE PUSH1 0x4 PUSH1 0x20 MSTORE PUSH1 0x40 SWAP1 KECCAK256 SSTORE JUMP JUMPDEST PUSH0 PUSH1 0x20 DUP3 DUP5 SUB SLT ISZERO PUSH2 0x6BB JUMPI PUSH0 PUSH0 REVERT JUMPDEST POP CALLDATALOAD SWAP2 SWAP1 POP JUMP JUMPDEST PUSH0 DUP2 MLOAD DUP1 DUP5 MSTORE DUP1 PUSH1 0x20 DUP5 ADD PUSH1 0x20 DUP7 ADD MCOPY PUSH0 PUSH1 0x20 DUP3 DUP7 ADD ADD MSTORE PUSH1 0x20 PUSH1 0x1F NOT PUSH1 0x1F DUP4 ADD AND DUP6 ADD ADD SWAP2 POP POP SWAP3 SWAP2 POP POP JUMP JUMPDEST PUSH1 0x1 DUP1 PUSH1 0xA0 SHL SUB DUP9 AND DUP2 MSTORE DUP7 PUSH1 0x20 DUP3 ADD MSTORE DUP6 PUSH1 0x40 DUP3 ADD MSTORE DUP5 ISZERO ISZERO PUSH1 0x60 DUP3 ADD MSTORE DUP4 PUSH1 0x80 DUP3 ADD MSTORE DUP3 PUSH1 0xA0 DUP3 ADD MSTORE PUSH1 0xE0 PUSH1 0xC0 DUP3 ADD MSTORE PUSH0 PUSH2 0x730 PUSH1 0xE0 DUP4 ADD DUP5 PUSH2 0x6C2 JUMP JUMPDEST SWAP10 SWAP9 POP POP POP POP POP POP POP POP POP JUMP JUMPDEST DUP1 CALLDATALOAD PUSH1 0x1 PUSH1 0x1 PUSH1 0xA0 SHL SUB DUP2 AND DUP2 EQ PUSH2 0x45E JUMPI PUSH0 PUSH0 REVERT JUMPDEST PUSH0 PUSH1 0x20 DUP3 DUP5 SUB SLT ISZERO PUSH2 0x763 JUMPI PUSH0 PUSH0 REVERT JUMPDEST PUSH2 0x76C DUP3 PUSH2 0x73D JUMP JUMPDEST SWAP4 SWAP3 POP POP POP JUMP JUMPDEST PUSH4 0x4E487B71 PUSH1 0xE0 SHL PUSH0 MSTORE PUSH1 0x41 PUSH1 0x4 MSTORE PUSH1 0x24 PUSH0 REVERT JUMPDEST PUSH0 PUSH1 0x20 DUP3 DUP5 SUB SLT ISZERO PUSH2 0x797 JUMPI PUSH0 PUSH0 REVERT JUMPDEST DUP2 CALLDATALOAD PUSH8 0xFFFFFFFFFFFFFFFF DUP2 GT ISZERO PUSH2 0x7AD JUMPI PUSH0 PUSH0 REVERT JUMPDEST DUP3 ADD PUSH1 0x1F DUP2 ADD DUP5 SGT PUSH2 0x7BD JUMPI PUSH0 PUSH0 REVERT JUMPDEST DUP1 CALLDATALOAD PUSH8 0xFFFFFFFFFFFFFFFF DUP2 GT ISZERO PUSH2 0x7D7 JUMPI PUSH2 0x7D7 PUSH2 0x773 JUMP JUMPDEST PUSH1 0x40 MLOAD PUSH1 0x1F DUP3 ADD PUSH1 0x1F NOT SWAP1 DUP2 AND PUSH1 0x3F ADD AND DUP2 ADD PUSH8 0xFFFFFFFFFFFFFFFF DUP2 GT DUP3 DUP3 LT OR ISZERO PUSH2 0x806 JUMPI PUSH2 0x806 PUSH2 0x773 JUMP JUMPDEST PUSH1 0x40 MSTORE DUP2 DUP2 MSTORE DUP3 DUP3 ADD PUSH1 0x20 ADD DUP7 LT ISZERO PUSH2 0x81D JUMPI PUSH0 PUSH0 REVERT JUMPDEST DUP2 PUSH1 0x20 DUP5 ADD PUSH1 0x20 DUP4 ADD CALLDATACOPY PUSH0 SWAP2 DUP2 ADD PUSH1 0x20 ADD SWAP2 SWAP1 SWAP2 MSTORE SWAP5 SWAP4 POP POP POP POP JUMP JUMPDEST PUSH0 PUSH0 PUSH1 0x40 DUP4 DUP6 SUB SLT ISZERO PUSH2 0x84B JUMPI PUSH0 PUSH0 REVERT JUMPDEST DUP3 CALLDATALOAD SWAP2 POP PUSH1 0x20 DUP4 ADD CALLDATALOAD DUP1 ISZERO ISZERO DUP2 EQ PUSH2 0x861 JUMPI PUSH0 PUSH0 REVERT JUMPDEST DUP1 SWAP2 POP POP SWAP3 POP SWAP3 SWAP1 POP JUMP JUMPDEST PUSH0 PUSH0 PUSH1 0x40 DUP4 DUP6 SUB SLT ISZERO PUSH2 0x87D JUMPI PUSH0 PUSH0 REVERT JUMPDEST PUSH2 0x886 DUP4 PUSH2 0x73D JUMP JUMPDEST SWAP5 PUSH1 0x20 SWAP4 SWAP1 SWAP4 ADD CALLDATALOAD SWAP4 POP POP POP JUMP JUMPDEST PUSH1 0x1 DUP2 DUP2 SHR SWAP1 DUP3 AND DUP1 PUSH2 0x8A8 JUMPI PUSH1 0x7F DUP3 AND SWAP2 POP JUMPDEST PUSH1 0x20 DUP3 LT DUP2 SUB PUSH2 0x8C6 JUMPI PUSH4 0x4E487B71 PUSH1 0xE0 SHL PUSH0 MSTORE PUSH1 0x22 PUSH1 0x4 MSTORE PUSH1 0x24 PUSH0 REVERT JUMPDEST POP SWAP2 SWAP1 POP JUMP JUMPDEST PUSH4 0x4E487B71 PUSH1 0xE0 SHL PUSH0 MSTORE PUSH1 0x11 PUSH1 0x4 MSTORE PUSH1 0x24 PUSH0 REVERT JUMPDEST PUSH0 PUSH1 0x1 DUP3 ADD PUSH2 0x8F1 JUMPI PUSH2 0x8F1 PUSH2 0x8CC JUMP JUMPDEST POP PUSH1 0x1 ADD SWAP1 JUMP JUMPDEST DUP1 DUP3 ADD DUP1 DUP3 GT ISZERO PUSH2 0x90B JUMPI PUSH2 0x90B PUSH2 0x8CC JUMP JUMPDEST SWAP3 SWAP2 POP POP JUMP JUMPDEST PUSH1 0x1F DUP3 GT ISZERO PUSH2 0x958 JUMPI DUP1 PUSH0 MSTORE PUSH1 0x20 PUSH0 KECCAK256 PUSH1 0x1F DUP5 ADD PUSH1 0x5 SHR DUP2 ADD PUSH1 0x20 DUP6 LT ISZERO PUSH2 0x936 JUMPI POP DUP1 JUMPDEST PUSH1 0x1F DUP5 ADD PUSH1 0x5 SHR DUP3 ADD SWAP2 POP JUMPDEST DUP2 DUP2 LT ISZERO PUSH2 0x955 JUMPI PUSH0 DUP2 SSTORE PUSH1 0x1 ADD PUSH2 0x942 JUMP JUMPDEST POP POP JUMPDEST POP POP POP JUMP JUMPDEST DUP2 MLOAD PUSH8 0xFFFFFFFFFFFFFFFF DUP2 GT ISZERO PUSH2 0x977 JUMPI PUSH2 0x977 PUSH2 0x773 JUMP JUMPDEST PUSH2 0x98B DUP2 PUSH2 0x985 DUP5 SLOAD PUSH2 0x894 JUMP JUMPDEST DUP5 PUSH2 0x911 JUMP JUMPDEST PUSH1 0x20 PUSH1 0x1F DUP3 GT PUSH1 0x1 DUP2 EQ PUSH2 0x9BD JUMPI PUSH0 DUP4 ISZERO PUSH2 0x9A6 JUMPI POP DUP5 DUP3 ADD MLOAD JUMPDEST PUSH0 NOT PUSH1 0x3 DUP6 SWAP1 SHL SHR NOT AND PUSH1 0x1 DUP5 SWAP1 SHL OR DUP5 SSTORE PUSH2 0x955 JUMP JUMPDEST PUSH0 DUP5 DUP2 MSTORE PUSH1 0x20 DUP2 KECCAK256 PUSH1 0x1F NOT DUP6 AND SWAP2 JUMPDEST DUP3 DUP2 LT ISZERO PUSH2 0x9EC JUMPI DUP8 DUP6 ADD MLOAD DUP3 SSTORE PUSH1 0x20 SWAP5 DUP6 ADD SWAP5 PUSH1 0x1 SWAP1 SWAP3 ADD SWAP2 ADD PUSH2 0x9CC JUMP JUMPDEST POP DUP5 DUP3 LT ISZERO PUSH2 0xA09 JUMPI DUP7 DUP5 ADD MLOAD PUSH0 NOT PUSH1 0x3 DUP8 SWAP1 SHL PUSH1 0xF8 AND SHR NOT AND DUP2 SSTORE JUMPDEST POP POP POP POP PUSH1 0x1 SWAP1 DUP2 SHL ADD SWAP1 SSTORE POP JUMP JUMPDEST DUP4 DUP2 MSTORE PUSH1 0x1 PUSH1 0x1 PUSH1 0xA0 SHL SUB DUP4 AND PUSH1 0x20 DUP3 ADD MSTORE PUSH1 0x60 PUSH1 0x40 DUP3 ADD DUP2 SWAP1 MSTORE PUSH0 SWAP1 PUSH2 0xA41 SWAP1 DUP4 ADD DUP5 PUSH2 0x6C2 JUMP JUMPDEST SWAP6 SWAP5 POP POP POP POP POP JUMP INVALID LOG2 PUSH5 0x6970667358 0x22 SLT KECCAK256 CALLDATALOAD CALLER 0xA8 EXTSTATICCALL 0xB9 PUSH20 0x542C9C337FC72AE28E2D411B8A4BC27CF4635132 0xBD 0xA5 DUP7 PUSH3 0x3CD564 PUSH20 0x6F6C634300081D00330000000000000000000000 "
				},
				"gasEstimates": {
					"creation": {
						"codeDepositCost": "537600",
						"executionCost": "infinite",
						"totalCost": "infinite"
					},
					"external": {
						"balances(address)": "2583",
						"createProposal(string)": "infinite",
						"executeProposal(uint256)": "34117",
						"governanceContract()": "2335",
						"proposalCount()": "2338",
						"proposals(uint256)": "infinite",
						"token()": "2424",
						"updateVotingPower(address,uint256)": "24752",
						"vote(uint256,bool)": "59302",
						"votingDuration()": "2339"
					}
				},
				"methodIdentifiers": {
					"balances(address)": "27e235e3",
					"createProposal(string)": "49c2a1a6",
					"executeProposal(uint256)": "0d61b519",
					"governanceContract()": "b172b222",
					"proposalCount()": "da35c664",
					"proposals(uint256)": "013cf08b",
					"token()": "fc0c546a",
					"updateVotingPower(address,uint256)": "eadc29c7",
					"vote(uint256,bool)": "c9d27afe",
					"votingDuration()": "132002fc"
				}
			},
			"storageLayout": {
				"storage": [
					{
						"astId": 3,
						"contract": "contracts/RhesusMacaqueVoting.sol:RhesusMacaqueVoting",
						"label": "governanceContract",
						"offset": 0,
						"slot": "0",
						"type": "t_address"
					},
					{
						"astId": 5,
						"contract": "contracts/RhesusMacaqueVoting.sol:RhesusMacaqueVoting",
						"label": "token",
						"offset": 0,
						"slot": "1",
						"type": "t_address"
					},
					{
						"astId": 7,
						"contract": "contracts/RhesusMacaqueVoting.sol:RhesusMacaqueVoting",
						"label": "votingDuration",
						"offset": 0,
						"slot": "2",
						"type": "t_uint256"
					},
					{
						"astId": 9,
						"contract": "contracts/RhesusMacaqueVoting.sol:RhesusMacaqueVoting",
						"label": "proposalCount",
						"offset": 0,
						"slot": "3",
						"type": "t_uint256"
					},
					{
						"astId": 13,
						"contract": "contracts/RhesusMacaqueVoting.sol:RhesusMacaqueVoting",
						"label": "balances",
						"offset": 0,
						"slot": "4",
						"type": "t_mapping(t_address,t_uint256)"
					},
					{
						"astId": 18,
						"contract": "contracts/RhesusMacaqueVoting.sol:RhesusMacaqueVoting",
						"label": "proposals",
						"offset": 0,
						"slot": "5",
						"type": "t_mapping(t_uint256,t_struct(Proposal)37_storage)"
					}
				],
				"types": {
					"t_address": {
						"encoding": "inplace",
						"label": "address",
						"numberOfBytes": "20"
					},
					"t_bool": {
						"encoding": "inplace",
						"label": "bool",
						"numberOfBytes": "1"
					},
					"t_mapping(t_address,t_bool)": {
						"encoding": "mapping",
						"key": "t_address",
						"label": "mapping(address => bool)",
						"numberOfBytes": "32",
						"value": "t_bool"
					},
					"t_mapping(t_address,t_uint256)": {
						"encoding": "mapping",
						"key": "t_address",
						"label": "mapping(address => uint256)",
						"numberOfBytes": "32",
						"value": "t_uint256"
					},
					"t_mapping(t_uint256,t_struct(Proposal)37_storage)": {
						"encoding": "mapping",
						"key": "t_uint256",
						"label": "mapping(uint256 => struct RhesusMacaqueVoting.Proposal)",
						"numberOfBytes": "32",
						"value": "t_struct(Proposal)37_storage"
					},
					"t_string_storage": {
						"encoding": "bytes",
						"label": "string",
						"numberOfBytes": "32"
					},
					"t_struct(Proposal)37_storage": {
						"encoding": "inplace",
						"label": "struct RhesusMacaqueVoting.Proposal",
						"members": [
							{
								"astId": 20,
								"contract": "contracts/RhesusMacaqueVoting.sol:RhesusMacaqueVoting",
								"label": "proposer",
								"offset": 0,
								"slot": "0",
								"type": "t_address"
							},
							{
								"astId": 22,
								"contract": "contracts/RhesusMacaqueVoting.sol:RhesusMacaqueVoting",
								"label": "votingStartTime",
								"offset": 0,
								"slot": "1",
								"type": "t_uint256"
							},
							{
								"astId": 24,
								"contract": "contracts/RhesusMacaqueVoting.sol:RhesusMacaqueVoting",
								"label": "votingEndTime",
								"offset": 0,
								"slot": "2",
								"type": "t_uint256"
							},
							{
								"astId": 26,
								"contract": "contracts/RhesusMacaqueVoting.sol:RhesusMacaqueVoting",
								"label": "executed",
								"offset": 0,
								"slot": "3",
								"type": "t_bool"
							},
							{
								"astId": 30,
								"contract": "contracts/RhesusMacaqueVoting.sol:RhesusMacaqueVoting",
								"label": "voted",
								"offset": 0,
								"slot": "4",
								"type": "t_mapping(t_address,t_bool)"
							},
							{
								"astId": 32,
								"contract": "contracts/RhesusMacaqueVoting.sol:RhesusMacaqueVoting",
								"label": "votesFor",
								"offset": 0,
								"slot": "5",
								"type": "t_uint256"
							},
							{
								"astId": 34,
								"contract": "contracts/RhesusMacaqueVoting.sol:RhesusMacaqueVoting",
								"label": "votesAgainst",
								"offset": 0,
								"slot": "6",
								"type": "t_uint256"
							},
							{
								"astId": 36,
								"contract": "contracts/RhesusMacaqueVoting.sol:RhesusMacaqueVoting",
								"label": "description",
								"offset": 0,
								"slot": "7",
								"type": "t_string_storage"
							}
						],
						"numberOfBytes": "256"
					},
					"t_uint256": {
						"encoding": "inplace",
						"label": "uint256",
						"numberOfBytes": "32"
					}
				}
			},
			"userdoc": {
				"kind": "user",
				"methods": {},
				"version": 1
			}
		}
	}
}