{
	"contracts/Timelock.sol": {
		"Timelock": {
			"abi": [
				{
					"inputs": [],
					"stateMutability": "nonpayable",
					"type": "constructor"
				},
				{
					"inputs": [],
					"name": "delay",
					"outputs": [
						{
							"internalType": "uint256",
							"name": "",
							"type": "uint256"
						}
					],
					"stateMutability": "view",
					"type": "function"
				},
				{
					"inputs": [
						{
							"internalType": "address",
							"name": "target",
							"type": "address"
						},
						{
							"internalType": "bytes",
							"name": "data",
							"type": "bytes"
						}
					],
					"name": "execute",
					"outputs": [],
					"stateMutability": "payable",
					"type": "function"
				},
				{
					"inputs": [
						{
							"internalType": "uint256",
							"name": "newDelay",
							"type": "uint256"
						}
					],
					"name": "setDelay",
					"outputs": [],
					"stateMutability": "nonpayable",
					"type": "function"
				}
			],
			"devdoc": {
				"kind": "dev",
				"methods": {},
				"version": 1
			},
			"evm": {
				"assembly": "    /* \"contracts/Timelock.sol\":61:544  contract Timelock {... */\n  mstore(0x40, 0x80)\n    /* \"contracts/Timelock.sol\":109:115  3 days */\n  0x03f480\n    /* \"contracts/Timelock.sol\":86:115  uint256 public delay = 3 days */\n  0x00\n  sstore\n    /* \"contracts/Timelock.sol\":154:170  constructor() {} */\n  callvalue\n  dup1\n  iszero\n  tag_1\n  jumpi\n  revert(0x00, 0x00)\ntag_1:\n  pop\n    /* \"contracts/Timelock.sol\":61:544  contract Timelock {... */\n  dataSize(sub_0)\n  dup1\n  dataOffset(sub_0)\n  0x00\n  codecopy\n  0x00\n  return\nstop\n\nsub_0: assembly {\n        /* \"contracts/Timelock.sol\":61:544  contract Timelock {... */\n      mstore(0x40, 0x80)\n      jumpi(tag_1, lt(calldatasize, 0x04))\n      shr(0xe0, calldataload(0x00))\n      dup1\n      0x1cff79cd\n      eq\n      tag_2\n      jumpi\n      dup1\n      0x6a42b8f8\n      eq\n      tag_3\n      jumpi\n      dup1\n      0xe177246e\n      eq\n      tag_4\n      jumpi\n    tag_1:\n      revert(0x00, 0x00)\n        /* \"contracts/Timelock.sol\":178:453  function execute(address target, bytes calldata data) external payable {... */\n    tag_2:\n      tag_5\n      tag_6\n      calldatasize\n      0x04\n      tag_7\n      jump\t// in\n    tag_6:\n      tag_8\n      jump\t// in\n    tag_5:\n      stop\n        /* \"contracts/Timelock.sol\":86:115  uint256 public delay = 3 days */\n    tag_3:\n      callvalue\n      dup1\n      iszero\n      tag_9\n      jumpi\n      revert(0x00, 0x00)\n    tag_9:\n      pop\n      tag_10\n      sload(0x00)\n      dup2\n      jump\n    tag_10:\n      mload(0x40)\n        /* \"#utility.yul\":925:950   */\n      swap1\n      dup2\n      mstore\n        /* \"#utility.yul\":913:915   */\n      0x20\n        /* \"#utility.yul\":898:916   */\n      add\n        /* \"contracts/Timelock.sol\":86:115  uint256 public delay = 3 days */\n      mload(0x40)\n      dup1\n      swap2\n      sub\n      swap1\n      return\n        /* \"contracts/Timelock.sol\":461:541  function setDelay(uint256 newDelay) external {... */\n    tag_4:\n      callvalue\n      dup1\n      iszero\n      tag_14\n      jumpi\n      revert(0x00, 0x00)\n    tag_14:\n      pop\n      tag_5\n      tag_16\n      calldatasize\n      0x04\n      tag_17\n      jump\t// in\n    tag_16:\n        /* \"contracts/Timelock.sol\":517:522  delay */\n      0x00\n        /* \"contracts/Timelock.sol\":517:533  delay = newDelay */\n      sstore\n        /* \"contracts/Timelock.sol\":461:541  function setDelay(uint256 newDelay) external {... */\n      jump\n        /* \"contracts/Timelock.sol\":178:453  function execute(address target, bytes calldata data) external payable {... */\n    tag_8:\n        /* \"contracts/Timelock.sol\":287:292  delay */\n      sload(0x00)\n        /* \"contracts/Timelock.sol\":268:283  block.timestamp */\n      timestamp\n        /* \"contracts/Timelock.sol\":268:292  block.timestamp >= delay */\n      lt\n      iszero\n        /* \"contracts/Timelock.sol\":260:322  require(block.timestamp >= delay, \"Time delay has not passed\") */\n      tag_20\n      jumpi\n      mload(0x40)\n      shl(0xe5, 0x461bcd)\n      dup2\n      mstore\n        /* \"#utility.yul\":1348:1350   */\n      0x20\n        /* \"contracts/Timelock.sol\":260:322  require(block.timestamp >= delay, \"Time delay has not passed\") */\n      0x04\n      dup3\n      add\n        /* \"#utility.yul\":1330:1351   */\n      mstore\n        /* \"#utility.yul\":1387:1389   */\n      0x19\n        /* \"#utility.yul\":1367:1385   */\n      0x24\n      dup3\n      add\n        /* \"#utility.yul\":1360:1390   */\n      mstore\n        /* \"#utility.yul\":1426:1453   */\n      0x54696d652064656c617920686173206e6f742070617373656400000000000000\n        /* \"#utility.yul\":1406:1424   */\n      0x44\n      dup3\n      add\n        /* \"#utility.yul\":1399:1454   */\n      mstore\n        /* \"#utility.yul\":1471:1489   */\n      0x64\n      add\n        /* \"contracts/Timelock.sol\":260:322  require(block.timestamp >= delay, \"Time delay has not passed\") */\n    tag_21:\n      mload(0x40)\n      dup1\n      swap2\n      sub\n      swap1\n      revert\n    tag_20:\n        /* \"contracts/Timelock.sol\":336:348  bool success */\n      0x00\n        /* \"contracts/Timelock.sol\":354:360  target */\n      dup4\n      sub(shl(0xa0, 0x01), 0x01)\n        /* \"contracts/Timelock.sol\":354:365  target.call */\n      and\n        /* \"contracts/Timelock.sol\":373:382  msg.value */\n      callvalue\n        /* \"contracts/Timelock.sol\":384:388  data */\n      dup5\n      dup5\n        /* \"contracts/Timelock.sol\":354:389  target.call{value: msg.value}(data) */\n      mload(0x40)\n      tag_23\n      swap3\n      swap2\n      swap1\n      tag_24\n      jump\t// in\n    tag_23:\n      0x00\n      mload(0x40)\n      dup1\n      dup4\n      sub\n      dup2\n      dup6\n      dup8\n      gas\n      call\n      swap3\n      pop\n      pop\n      pop\n      returndatasize\n      dup1\n      0x00\n      dup2\n      eq\n      tag_27\n      jumpi\n      mload(0x40)\n      swap2\n      pop\n      and(add(returndatasize, 0x3f), not(0x1f))\n      dup3\n      add\n      0x40\n      mstore\n      returndatasize\n      dup3\n      mstore\n      returndatasize\n      0x00\n      0x20\n      dup5\n      add\n      returndatacopy\n      jump(tag_26)\n    tag_27:\n      0x60\n      swap2\n      pop\n    tag_26:\n      pop\n        /* \"contracts/Timelock.sol\":335:389  (bool success, ) = target.call{value: msg.value}(data) */\n      pop\n      swap1\n      pop\n        /* \"contracts/Timelock.sol\":408:415  success */\n      dup1\n        /* \"contracts/Timelock.sol\":400:445  require(success, \"Timelock execution failed\") */\n      tag_28\n      jumpi\n      mload(0x40)\n      shl(0xe5, 0x461bcd)\n      dup2\n      mstore\n        /* \"#utility.yul\":1978:1980   */\n      0x20\n        /* \"contracts/Timelock.sol\":400:445  require(success, \"Timelock execution failed\") */\n      0x04\n      dup3\n      add\n        /* \"#utility.yul\":1960:1981   */\n      mstore\n        /* \"#utility.yul\":2017:2019   */\n      0x19\n        /* \"#utility.yul\":1997:2015   */\n      0x24\n      dup3\n      add\n        /* \"#utility.yul\":1990:2020   */\n      mstore\n        /* \"#utility.yul\":2056:2083   */\n      0x54696d656c6f636b20657865637574696f6e206661696c656400000000000000\n        /* \"#utility.yul\":2036:2054   */\n      0x44\n      dup3\n      add\n        /* \"#utility.yul\":2029:2084   */\n      mstore\n        /* \"#utility.yul\":2101:2119   */\n      0x64\n      add\n        /* \"contracts/Timelock.sol\":400:445  require(success, \"Timelock execution failed\") */\n      tag_21\n        /* \"#utility.yul\":1776:2125   */\n      jump\n        /* \"contracts/Timelock.sol\":400:445  require(success, \"Timelock execution failed\") */\n    tag_28:\n        /* \"contracts/Timelock.sol\":249:453  {... */\n      pop\n        /* \"contracts/Timelock.sol\":178:453  function execute(address target, bytes calldata data) external payable {... */\n      pop\n      pop\n      pop\n      jump\t// out\n        /* \"#utility.yul\":14:774   */\n    tag_7:\n        /* \"#utility.yul\":93:99   */\n      0x00\n        /* \"#utility.yul\":101:107   */\n      0x00\n        /* \"#utility.yul\":109:115   */\n      0x00\n        /* \"#utility.yul\":162:164   */\n      0x40\n        /* \"#utility.yul\":150:159   */\n      dup5\n        /* \"#utility.yul\":141:148   */\n      dup7\n        /* \"#utility.yul\":137:160   */\n      sub\n        /* \"#utility.yul\":133:165   */\n      slt\n        /* \"#utility.yul\":130:182   */\n      iszero\n      tag_34\n      jumpi\n        /* \"#utility.yul\":178:179   */\n      0x00\n        /* \"#utility.yul\":175:176   */\n      0x00\n        /* \"#utility.yul\":168:180   */\n      revert\n        /* \"#utility.yul\":130:182   */\n    tag_34:\n        /* \"#utility.yul\":204:227   */\n      dup4\n      calldataload\n      sub(shl(0xa0, 0x01), 0x01)\n        /* \"#utility.yul\":256:287   */\n      dup2\n      and\n        /* \"#utility.yul\":246:288   */\n      dup2\n      eq\n        /* \"#utility.yul\":236:306   */\n      tag_35\n      jumpi\n        /* \"#utility.yul\":302:303   */\n      0x00\n        /* \"#utility.yul\":299:300   */\n      0x00\n        /* \"#utility.yul\":292:304   */\n      revert\n        /* \"#utility.yul\":236:306   */\n    tag_35:\n        /* \"#utility.yul\":325:330   */\n      swap3\n      pop\n        /* \"#utility.yul\":381:383   */\n      0x20\n        /* \"#utility.yul\":366:384   */\n      dup5\n      add\n        /* \"#utility.yul\":353:385   */\n      calldataload\n        /* \"#utility.yul\":408:426   */\n      0xffffffffffffffff\n        /* \"#utility.yul\":397:427   */\n      dup2\n      gt\n        /* \"#utility.yul\":394:444   */\n      iszero\n      tag_36\n      jumpi\n        /* \"#utility.yul\":440:441   */\n      0x00\n        /* \"#utility.yul\":437:438   */\n      0x00\n        /* \"#utility.yul\":430:442   */\n      revert\n        /* \"#utility.yul\":394:444   */\n    tag_36:\n        /* \"#utility.yul\":463:485   */\n      dup5\n      add\n        /* \"#utility.yul\":516:520   */\n      0x1f\n        /* \"#utility.yul\":508:521   */\n      dup2\n      add\n        /* \"#utility.yul\":504:531   */\n      dup7\n      sgt\n        /* \"#utility.yul\":494:549   */\n      tag_37\n      jumpi\n        /* \"#utility.yul\":545:546   */\n      0x00\n        /* \"#utility.yul\":542:543   */\n      0x00\n        /* \"#utility.yul\":535:547   */\n      revert\n        /* \"#utility.yul\":494:549   */\n    tag_37:\n        /* \"#utility.yul\":585:587   */\n      dup1\n        /* \"#utility.yul\":572:588   */\n      calldataload\n        /* \"#utility.yul\":611:629   */\n      0xffffffffffffffff\n        /* \"#utility.yul\":603:609   */\n      dup2\n        /* \"#utility.yul\":600:630   */\n      gt\n        /* \"#utility.yul\":597:647   */\n      iszero\n      tag_38\n      jumpi\n        /* \"#utility.yul\":643:644   */\n      0x00\n        /* \"#utility.yul\":640:641   */\n      0x00\n        /* \"#utility.yul\":633:645   */\n      revert\n        /* \"#utility.yul\":597:647   */\n    tag_38:\n        /* \"#utility.yul\":688:695   */\n      dup7\n        /* \"#utility.yul\":683:685   */\n      0x20\n        /* \"#utility.yul\":674:680   */\n      dup3\n        /* \"#utility.yul\":670:672   */\n      dup5\n        /* \"#utility.yul\":666:681   */\n      add\n        /* \"#utility.yul\":662:686   */\n      add\n        /* \"#utility.yul\":659:696   */\n      gt\n        /* \"#utility.yul\":656:713   */\n      iszero\n      tag_39\n      jumpi\n        /* \"#utility.yul\":709:710   */\n      0x00\n        /* \"#utility.yul\":706:707   */\n      0x00\n        /* \"#utility.yul\":699:711   */\n      revert\n        /* \"#utility.yul\":656:713   */\n    tag_39:\n        /* \"#utility.yul\":14:774   */\n      swap4\n      swap7\n        /* \"#utility.yul\":740:742   */\n      0x20\n        /* \"#utility.yul\":732:743   */\n      swap2\n      swap1\n      swap2\n      add\n      swap6\n      pop\n        /* \"#utility.yul\":762:768   */\n      swap3\n      swap4\n      pop\n      pop\n      pop\n        /* \"#utility.yul\":14:774   */\n      jump\t// out\n        /* \"#utility.yul\":961:1141   */\n    tag_17:\n        /* \"#utility.yul\":1020:1026   */\n      0x00\n        /* \"#utility.yul\":1073:1075   */\n      0x20\n        /* \"#utility.yul\":1061:1070   */\n      dup3\n        /* \"#utility.yul\":1052:1059   */\n      dup5\n        /* \"#utility.yul\":1048:1071   */\n      sub\n        /* \"#utility.yul\":1044:1076   */\n      slt\n        /* \"#utility.yul\":1041:1093   */\n      iszero\n      tag_42\n      jumpi\n        /* \"#utility.yul\":1089:1090   */\n      0x00\n        /* \"#utility.yul\":1086:1087   */\n      0x00\n        /* \"#utility.yul\":1079:1091   */\n      revert\n        /* \"#utility.yul\":1041:1093   */\n    tag_42:\n      pop\n        /* \"#utility.yul\":1112:1135   */\n      calldataload\n      swap2\n        /* \"#utility.yul\":961:1141   */\n      swap1\n      pop\n      jump\t// out\n        /* \"#utility.yul\":1500:1771   */\n    tag_24:\n        /* \"#utility.yul\":1683:1689   */\n      dup2\n        /* \"#utility.yul\":1675:1681   */\n      dup4\n        /* \"#utility.yul\":1670:1673   */\n      dup3\n        /* \"#utility.yul\":1657:1690   */\n      calldatacopy\n        /* \"#utility.yul\":1639:1642   */\n      0x00\n        /* \"#utility.yul\":1709:1725   */\n      swap2\n      add\n        /* \"#utility.yul\":1734:1747   */\n      swap1\n      dup2\n      mstore\n        /* \"#utility.yul\":1709:1725   */\n      swap2\n        /* \"#utility.yul\":1500:1771   */\n      swap1\n      pop\n      jump\t// out\n\n    auxdata: 0xa26469706673582212206e2faa747b8774e81388adb2e278d65ee9e9bd91c7a1b3f0aac8b6660a8c268564736f6c634300081d0033\n}\n",
				"bytecode": {
					"linkReferences": {},
					"object": "60806040526203f4805f553480156014575f5ffd5b5061027f806100225f395ff3fe608060405260043610610033575f3560e01c80631cff79cd146100375780636a42b8f81461004c578063e177246e14610072575b5f5ffd5b61004a610045366004610198565b610090565b005b348015610057575f5ffd5b506100605f5481565b60405190815260200160405180910390f35b34801561007d575f5ffd5b5061004a61008c366004610223565b5f55565b5f544210156100e65760405162461bcd60e51b815260206004820152601960248201527f54696d652064656c617920686173206e6f74207061737365640000000000000060448201526064015b60405180910390fd5b5f836001600160a01b031634848460405161010292919061023a565b5f6040518083038185875af1925050503d805f811461013c576040519150601f19603f3d011682016040523d82523d5f602084013e610141565b606091505b50509050806101925760405162461bcd60e51b815260206004820152601960248201527f54696d656c6f636b20657865637574696f6e206661696c65640000000000000060448201526064016100dd565b50505050565b5f5f5f604084860312156101aa575f5ffd5b83356001600160a01b03811681146101c0575f5ffd5b9250602084013567ffffffffffffffff8111156101db575f5ffd5b8401601f810186136101eb575f5ffd5b803567ffffffffffffffff811115610201575f5ffd5b866020828401011115610212575f5ffd5b939660209190910195509293505050565b5f60208284031215610233575f5ffd5b5035919050565b818382375f910190815291905056fea26469706673582212206e2faa747b8774e81388adb2e278d65ee9e9bd91c7a1b3f0aac8b6660a8c268564736f6c634300081d0033",
					"opcodes": "PUSH1 0x80 PUSH1 0x40 MSTORE PUSH3 0x3F480 PUSH0 SSTORE CALLVALUE DUP1 ISZERO PUSH1 0x14 JUMPI PUSH0 PUSH0 REVERT JUMPDEST POP PUSH2 0x27F DUP1 PUSH2 0x22 PUSH0 CODECOPY PUSH0 RETURN INVALID PUSH1 0x80 PUSH1 0x40 MSTORE PUSH1 0x4 CALLDATASIZE LT PUSH2 0x33 JUMPI PUSH0 CALLDATALOAD PUSH1 0xE0 SHR DUP1 PUSH4 0x1CFF79CD EQ PUSH2 0x37 JUMPI DUP1 PUSH4 0x6A42B8F8 EQ PUSH2 0x4C JUMPI DUP1 PUSH4 0xE177246E EQ PUSH2 0x72 JUMPI JUMPDEST PUSH0 PUSH0 REVERT JUMPDEST PUSH2 0x4A PUSH2 0x45 CALLDATASIZE PUSH1 0x4 PUSH2 0x198 JUMP JUMPDEST PUSH2 0x90 JUMP JUMPDEST STOP JUMPDEST CALLVALUE DUP1 ISZERO PUSH2 0x57 JUMPI PUSH0 PUSH0 REVERT JUMPDEST POP PUSH2 0x60 PUSH0 SLOAD DUP2 JUMP JUMPDEST PUSH1 0x40 MLOAD SWAP1 DUP2 MSTORE PUSH1 0x20 ADD PUSH1 0x40 MLOAD DUP1 SWAP2 SUB SWAP1 RETURN JUMPDEST CALLVALUE DUP1 ISZERO PUSH2 0x7D JUMPI PUSH0 PUSH0 REVERT JUMPDEST POP PUSH2 0x4A PUSH2 0x8C CALLDATASIZE PUSH1 0x4 PUSH2 0x223 JUMP JUMPDEST PUSH0 SSTORE JUMP JUMPDEST PUSH0 SLOAD TIMESTAMP LT ISZERO PUSH2 0xE6 JUMPI PUSH1 0x40 MLOAD PUSH3 0x461BCD PUSH1 0xE5 SHL DUP2 MSTORE PUSH1 0x20 PUSH1 0x4 DUP3 ADD MSTORE PUSH1 0x19 PUSH1 0x24 DUP3 ADD MSTORE PUSH32 0x54696D652064656C617920686173206E6F742070617373656400000000000000 PUSH1 0x44 DUP3 ADD MSTORE PUSH1 0x64 ADD JUMPDEST PUSH1 0x40 MLOAD DUP1 SWAP2 SUB SWAP1 REVERT JUMPDEST PUSH0 DUP4 PUSH1 0x1 PUSH1 0x1 PUSH1 0xA0 SHL SUB AND CALLVALUE DUP5 DUP5 PUSH1 0x40 MLOAD PUSH2 0x102 SWAP3 SWAP2 SWAP1 PUSH2 0x23A JUMP JUMPDEST PUSH0 PUSH1 0x40 MLOAD DUP1 DUP4 SUB DUP2 DUP6 DUP8 GAS CALL SWAP3 POP POP POP RETURNDATASIZE DUP1 PUSH0 DUP2 EQ PUSH2 0x13C JUMPI PUSH1 0x40 MLOAD SWAP2 POP PUSH1 0x1F NOT PUSH1 0x3F RETURNDATASIZE ADD AND DUP3 ADD PUSH1 0x40 MSTORE RETURNDATASIZE DUP3 MSTORE RETURNDATASIZE PUSH0 PUSH1 0x20 DUP5 ADD RETURNDATACOPY PUSH2 0x141 JUMP JUMPDEST PUSH1 0x60 SWAP2 POP JUMPDEST POP POP SWAP1 POP DUP1 PUSH2 0x192 JUMPI PUSH1 0x40 MLOAD PUSH3 0x461BCD PUSH1 0xE5 SHL DUP2 MSTORE PUSH1 0x20 PUSH1 0x4 DUP3 ADD MSTORE PUSH1 0x19 PUSH1 0x24 DUP3 ADD MSTORE PUSH32 0x54696D656C6F636B20657865637574696F6E206661696C656400000000000000 PUSH1 0x44 DUP3 ADD MSTORE PUSH1 0x64 ADD PUSH2 0xDD JUMP JUMPDEST POP POP POP POP JUMP JUMPDEST PUSH0 PUSH0 PUSH0 PUSH1 0x40 DUP5 DUP7 SUB SLT ISZERO PUSH2 0x1AA JUMPI PUSH0 PUSH0 REVERT JUMPDEST DUP4 CALLDATALOAD PUSH1 0x1 PUSH1 0x1 PUSH1 0xA0 SHL SUB DUP2 AND DUP2 EQ PUSH2 0x1C0 JUMPI PUSH0 PUSH0 REVERT JUMPDEST SWAP3 POP PUSH1 0x20 DUP5 ADD CALLDATALOAD PUSH8 0xFFFFFFFFFFFFFFFF DUP2 GT ISZERO PUSH2 0x1DB JUMPI PUSH0 PUSH0 REVERT JUMPDEST DUP5 ADD PUSH1 0x1F DUP2 ADD DUP7 SGT PUSH2 0x1EB JUMPI PUSH0 PUSH0 REVERT JUMPDEST DUP1 CALLDATALOAD PUSH8 0xFFFFFFFFFFFFFFFF DUP2 GT ISZERO PUSH2 0x201 JUMPI PUSH0 PUSH0 REVERT JUMPDEST DUP7 PUSH1 0x20 DUP3 DUP5 ADD ADD GT ISZERO PUSH2 0x212 JUMPI PUSH0 PUSH0 REVERT JUMPDEST SWAP4 SWAP7 PUSH1 0x20 SWAP2 SWAP1 SWAP2 ADD SWAP6 POP SWAP3 SWAP4 POP POP POP JUMP JUMPDEST PUSH0 PUSH1 0x20 DUP3 DUP5 SUB SLT ISZERO PUSH2 0x233 JUMPI PUSH0 PUSH0 REVERT JUMPDEST POP CALLDATALOAD SWAP2 SWAP1 POP JUMP JUMPDEST DUP2 DUP4 DUP3 CALLDATACOPY PUSH0 SWAP2 ADD SWAP1 DUP2 MSTORE SWAP2 SWAP1 POP JUMP INVALID LOG2 PUSH5 0x6970667358 0x22 SLT KECCAK256 PUSH15 0x2FAA747B8774E81388ADB2E278D65E 0xE9 0xE9 0xBD SWAP2 0xC7 LOG1 0xB3 CREATE 0xAA 0xC8 0xB6 PUSH7 0xA8C268564736F PUSH13 0x634300081D0033000000000000 "
				},
				"gasEstimates": {
					"creation": {
						"codeDepositCost": "127800",
						"executionCost": "22274",
						"totalCost": "150074"
					},
					"external": {
						"delay()": "2281",
						"execute(address,bytes)": "infinite",
						"setDelay(uint256)": "22331"
					}
				},
				"methodIdentifiers": {
					"delay()": "6a42b8f8",
					"execute(address,bytes)": "1cff79cd",
					"setDelay(uint256)": "e177246e"
				}
			},
			"storageLayout": {
				"storage": [
					{
						"astId": 4,
						"contract": "contracts/Timelock.sol:Timelock",
						"label": "delay",
						"offset": 0,
						"slot": "0",
						"type": "t_uint256"
					}
				],
				"types": {
					"t_uint256": {
						"encoding": "inplace",
						"label": "uint256",
						"numberOfBytes": "32"
					}
				}
			},
			"userdoc": {
				"kind": "user",
				"methods": {},
				"version": 1
			}
		}
	}
}