{
	"contracts/TimelockVault.sol": {
		"TimelockVault": {
			"abi": [
				{
					"inputs": [
						{
							"internalType": "address",
							"name": "_governanceContract",
							"type": "address"
						},
						{
							"internalType": "address",
							"name": "_token",
							"type": "address"
						},
						{
							"internalType": "uint256",
							"name": "_lockDuration",
							"type": "uint256"
						}
					],
					"stateMutability": "nonpayable",
					"type": "constructor"
				},
				{
					"anonymous": false,
					"inputs": [
						{
							"indexed": true,
							"internalType": "address",
							"name": "user",
							"type": "address"
						},
						{
							"indexed": false,
							"internalType": "uint256",
							"name": "amount",
							"type": "uint256"
						},
						{
							"indexed": false,
							"internalType": "uint256",
							"name": "unlockTime",
							"type": "uint256"
						}
					],
					"name": "TokensLocked",
					"type": "event"
				},
				{
					"anonymous": false,
					"inputs": [
						{
							"indexed": true,
							"internalType": "address",
							"name": "user",
							"type": "address"
						},
						{
							"indexed": false,
							"internalType": "uint256",
							"name": "amount",
							"type": "uint256"
						}
					],
					"name": "TokensUnlocked",
					"type": "event"
				},
				{
					"inputs": [],
					"name": "governanceContract",
					"outputs": [
						{
							"internalType": "address",
							"name": "",
							"type": "address"
						}
					],
					"stateMutability": "view",
					"type": "function"
				},
				{
					"inputs": [],
					"name": "lockDuration",
					"outputs": [
						{
							"internalType": "uint256",
							"name": "",
							"type": "uint256"
						}
					],
					"stateMutability": "view",
					"type": "function"
				},
				{
					"inputs": [
						{
							"internalType": "address",
							"name": "_user",
							"type": "address"
						},
						{
							"internalType": "uint256",
							"name": "_amount",
							"type": "uint256"
						}
					],
					"name": "lockTokens",
					"outputs": [],
					"stateMutability": "nonpayable",
					"type": "function"
				},
				{
					"inputs": [
						{
							"internalType": "address",
							"name": "",
							"type": "address"
						}
					],
					"name": "lockedTokens",
					"outputs": [
						{
							"internalType": "uint256",
							"name": "",
							"type": "uint256"
						}
					],
					"stateMutability": "view",
					"type": "function"
				},
				{
					"inputs": [],
					"name": "token",
					"outputs": [
						{
							"internalType": "address",
							"name": "",
							"type": "address"
						}
					],
					"stateMutability": "view",
					"type": "function"
				},
				{
					"inputs": [
						{
							"internalType": "address",
							"name": "",
							"type": "address"
						}
					],
					"name": "unlockTime",
					"outputs": [
						{
							"internalType": "uint256",
							"name": "",
							"type": "uint256"
						}
					],
					"stateMutability": "view",
					"type": "function"
				},
				{
					"inputs": [
						{
							"internalType": "address",
							"name": "_user",
							"type": "address"
						}
					],
					"name": "unlockTokens",
					"outputs": [],
					"stateMutability": "nonpayable",
					"type": "function"
				},
				{
					"inputs": [
						{
							"internalType": "uint256",
							"name": "_newLockDuration",
							"type": "uint256"
						}
					],
					"name": "updateLockDuration",
					"outputs": [],
					"stateMutability": "nonpayable",
					"type": "function"
				}
			],
			"devdoc": {
				"kind": "dev",
				"methods": {},
				"version": 1
			},
			"evm": {
				"assembly": "    /* \"contracts/TimelockVault.sol\":272:2347  contract TimelockVault {... */\n  mstore(0x40, 0x80)\n    /* \"contracts/TimelockVault.sol\":926:1279  constructor(address _governanceContract, address _token, uint256 _lockDuration) {... */\n  callvalue\n  dup1\n  iszero\n  tag_1\n  jumpi\n  revert(0x00, 0x00)\ntag_1:\n  pop\n  mload(0x40)\n  sub(codesize, bytecodeSize)\n  dup1\n  bytecodeSize\n  dup4\n  codecopy\n  dup2\n  add\n  0x40\n  dup2\n  swap1\n  mstore\n  tag_2\n  swap2\n  tag_3\n  jump\t// in\ntag_2:\n  sub(shl(0xa0, 0x01), 0x01)\n    /* \"contracts/TimelockVault.sol\":1025:1058  _governanceContract != address(0) */\n  dup4\n  and\n    /* \"contracts/TimelockVault.sol\":1017:1089  require(_governanceContract != address(0), \"Invalid governance address\") */\n  tag_6\n  jumpi\n  mload(0x40)\n  shl(0xe5, 0x461bcd)\n  dup2\n  mstore\n    /* \"#utility.yul\":757:759   */\n  0x20\n    /* \"contracts/TimelockVault.sol\":1017:1089  require(_governanceContract != address(0), \"Invalid governance address\") */\n  0x04\n  dup3\n  add\n    /* \"#utility.yul\":739:760   */\n  mstore\n    /* \"#utility.yul\":796:798   */\n  0x1a\n    /* \"#utility.yul\":776:794   */\n  0x24\n  dup3\n  add\n    /* \"#utility.yul\":769:799   */\n  mstore\n    /* \"#utility.yul\":835:863   */\n  0x496e76616c696420676f7665726e616e63652061646472657373000000000000\n    /* \"#utility.yul\":815:833   */\n  0x44\n  dup3\n  add\n    /* \"#utility.yul\":808:864   */\n  mstore\n    /* \"#utility.yul\":881:899   */\n  0x64\n  add\n    /* \"contracts/TimelockVault.sol\":1017:1089  require(_governanceContract != address(0), \"Invalid governance address\") */\ntag_7:\n  mload(0x40)\n  dup1\n  swap2\n  sub\n  swap1\n  revert\ntag_6:\n  sub(shl(0xa0, 0x01), 0x01)\n    /* \"contracts/TimelockVault.sol\":1108:1128  _token != address(0) */\n  dup3\n  and\n    /* \"contracts/TimelockVault.sol\":1100:1154  require(_token != address(0), \"Invalid token address\") */\n  tag_9\n  jumpi\n  mload(0x40)\n  shl(0xe5, 0x461bcd)\n  dup2\n  mstore\n    /* \"#utility.yul\":1112:1114   */\n  0x20\n    /* \"contracts/TimelockVault.sol\":1100:1154  require(_token != address(0), \"Invalid token address\") */\n  0x04\n  dup3\n  add\n    /* \"#utility.yul\":1094:1115   */\n  mstore\n    /* \"#utility.yul\":1151:1153   */\n  0x15\n    /* \"#utility.yul\":1131:1149   */\n  0x24\n  dup3\n  add\n    /* \"#utility.yul\":1124:1154   */\n  mstore\n    /* \"#utility.yul\":1190:1213   */\n  0x496e76616c696420746f6b656e20616464726573730000000000000000000000\n    /* \"#utility.yul\":1170:1188   */\n  0x44\n  dup3\n  add\n    /* \"#utility.yul\":1163:1214   */\n  mstore\n    /* \"#utility.yul\":1231:1249   */\n  0x64\n  add\n    /* \"contracts/TimelockVault.sol\":1100:1154  require(_token != address(0), \"Invalid token address\") */\n  tag_7\n    /* \"#utility.yul\":910:1255   */\n  jump\n    /* \"contracts/TimelockVault.sol\":1100:1154  require(_token != address(0), \"Invalid token address\") */\ntag_9:\n    /* \"contracts/TimelockVault.sol\":1167:1185  governanceContract */\n  0x00\n    /* \"contracts/TimelockVault.sol\":1167:1207  governanceContract = _governanceContract */\n  dup1\n  sload\n  sub(shl(0xa0, 0x01), 0x01)\n  swap5\n  dup6\n  and\n  not(sub(shl(0xa0, 0x01), 0x01))\n  swap2\n  dup3\n  and\n  or\n  swap1\n  swap2\n  sstore\n  0x01\n    /* \"contracts/TimelockVault.sol\":1218:1232  token = _token */\n  dup1\n  sload\n  swap4\n  swap1\n  swap5\n  and\n  swap3\n  and\n  swap2\n  swap1\n  swap2\n  or\n  swap1\n  swap2\n  sstore\n    /* \"contracts/TimelockVault.sol\":1243:1255  lockDuration */\n  0x02\n    /* \"contracts/TimelockVault.sol\":1243:1271  lockDuration = _lockDuration */\n  sstore\n    /* \"contracts/TimelockVault.sol\":272:2347  contract TimelockVault {... */\n  jump(tag_14)\n    /* \"#utility.yul\":14:191   */\ntag_13:\n    /* \"#utility.yul\":93:106   */\n  dup1\n  mload\n  sub(shl(0xa0, 0x01), 0x01)\n    /* \"#utility.yul\":135:166   */\n  dup2\n  and\n    /* \"#utility.yul\":125:167   */\n  dup2\n  eq\n    /* \"#utility.yul\":115:185   */\n  tag_16\n  jumpi\n    /* \"#utility.yul\":181:182   */\n  0x00\n    /* \"#utility.yul\":178:179   */\n  0x00\n    /* \"#utility.yul\":171:183   */\n  revert\n    /* \"#utility.yul\":115:185   */\ntag_16:\n    /* \"#utility.yul\":14:191   */\n  swap2\n  swap1\n  pop\n  jump\t// out\n    /* \"#utility.yul\":196:550   */\ntag_3:\n    /* \"#utility.yul\":284:290   */\n  0x00\n    /* \"#utility.yul\":292:298   */\n  0x00\n    /* \"#utility.yul\":300:306   */\n  0x00\n    /* \"#utility.yul\":353:355   */\n  0x60\n    /* \"#utility.yul\":341:350   */\n  dup5\n    /* \"#utility.yul\":332:339   */\n  dup7\n    /* \"#utility.yul\":328:351   */\n  sub\n    /* \"#utility.yul\":324:356   */\n  slt\n    /* \"#utility.yul\":321:373   */\n  iszero\n  tag_18\n  jumpi\n    /* \"#utility.yul\":369:370   */\n  0x00\n    /* \"#utility.yul\":366:367   */\n  0x00\n    /* \"#utility.yul\":359:371   */\n  revert\n    /* \"#utility.yul\":321:373   */\ntag_18:\n    /* \"#utility.yul\":392:432   */\n  tag_19\n    /* \"#utility.yul\":422:431   */\n  dup5\n    /* \"#utility.yul\":392:432   */\n  tag_13\n  jump\t// in\ntag_19:\n    /* \"#utility.yul\":382:432   */\n  swap3\n  pop\n    /* \"#utility.yul\":451:500   */\n  tag_20\n    /* \"#utility.yul\":496:498   */\n  0x20\n    /* \"#utility.yul\":485:494   */\n  dup6\n    /* \"#utility.yul\":481:499   */\n  add\n    /* \"#utility.yul\":451:500   */\n  tag_13\n  jump\t// in\ntag_20:\n    /* \"#utility.yul\":441:500   */\n  swap2\n  pop\n    /* \"#utility.yul\":540:542   */\n  0x40\n    /* \"#utility.yul\":529:538   */\n  dup5\n    /* \"#utility.yul\":525:543   */\n  add\n    /* \"#utility.yul\":519:544   */\n  mload\n    /* \"#utility.yul\":509:544   */\n  swap1\n  pop\n    /* \"#utility.yul\":196:550   */\n  swap3\n  pop\n  swap3\n  pop\n  swap3\n  jump\t// out\n    /* \"#utility.yul\":910:1255   */\ntag_14:\n    /* \"contracts/TimelockVault.sol\":272:2347  contract TimelockVault {... */\n  dataSize(sub_0)\n  dup1\n  dataOffset(sub_0)\n  0x00\n  codecopy\n  0x00\n  return\nstop\n\nsub_0: assembly {\n        /* \"contracts/TimelockVault.sol\":272:2347  contract TimelockVault {... */\n      mstore(0x40, 0x80)\n      callvalue\n      dup1\n      iszero\n      tag_1\n      jumpi\n      revert(0x00, 0x00)\n    tag_1:\n      pop\n      jumpi(tag_2, lt(calldatasize, 0x04))\n      shr(0xe0, calldataload(0x00))\n      dup1\n      0xb1c25586\n      gt\n      tag_11\n      jumpi\n      dup1\n      0xb1c25586\n      eq\n      tag_7\n      jumpi\n      dup1\n      0xcb67f948\n      eq\n      tag_8\n      jumpi\n      dup1\n      0xd477edf4\n      eq\n      tag_9\n      jumpi\n      dup1\n      0xfc0c546a\n      eq\n      tag_10\n      jumpi\n      revert(0x00, 0x00)\n    tag_11:\n      dup1\n      0x04554443\n      eq\n      tag_3\n      jumpi\n      dup1\n      0x5eb7413a\n      eq\n      tag_4\n      jumpi\n      dup1\n      0x76b467b7\n      eq\n      tag_5\n      jumpi\n      dup1\n      0xb172b222\n      eq\n      tag_6\n      jumpi\n    tag_2:\n      revert(0x00, 0x00)\n        /* \"contracts/TimelockVault.sol\":369:396  uint256 public lockDuration */\n    tag_3:\n      tag_12\n      sload(0x02)\n      dup2\n      jump\n    tag_12:\n      mload(0x40)\n        /* \"#utility.yul\":160:185   */\n      swap1\n      dup2\n      mstore\n        /* \"#utility.yul\":148:150   */\n      0x20\n        /* \"#utility.yul\":133:151   */\n      add\n        /* \"contracts/TimelockVault.sol\":369:396  uint256 public lockDuration */\n    tag_14:\n      mload(0x40)\n      dup1\n      swap2\n      sub\n      swap1\n      return\n        /* \"contracts/TimelockVault.sol\":403:450  mapping(address => uint256) public lockedTokens */\n    tag_4:\n      tag_12\n      tag_17\n      calldatasize\n      0x04\n      tag_18\n      jump\t// in\n    tag_17:\n      mstore(0x20, 0x03)\n      0x00\n      swap1\n      dup2\n      mstore\n      0x40\n      swap1\n      keccak256\n      sload\n      dup2\n      jump\n        /* \"contracts/TimelockVault.sol\":457:502  mapping(address => uint256) public unlockTime */\n    tag_5:\n      tag_12\n      tag_22\n      calldatasize\n      0x04\n      tag_18\n      jump\t// in\n    tag_22:\n      mstore(0x20, 0x04)\n      0x00\n      swap1\n      dup2\n      mstore\n      0x40\n      swap1\n      keccak256\n      sload\n      dup2\n      jump\n        /* \"contracts/TimelockVault.sol\":302:335  address public governanceContract */\n    tag_6:\n      sload(0x00)\n      tag_25\n      swap1\n      sub(shl(0xa0, 0x01), 0x01)\n      and\n      dup2\n      jump\n    tag_25:\n      mload(0x40)\n      sub(shl(0xa0, 0x01), 0x01)\n        /* \"#utility.yul\":729:761   */\n      swap1\n      swap2\n      and\n        /* \"#utility.yul\":711:762   */\n      dup2\n      mstore\n        /* \"#utility.yul\":699:701   */\n      0x20\n        /* \"#utility.yul\":684:702   */\n      add\n        /* \"contracts/TimelockVault.sol\":302:335  address public governanceContract */\n      tag_14\n        /* \"#utility.yul\":565:768   */\n      jump\n        /* \"contracts/TimelockVault.sol\":1287:1756  function lockTokens(address _user, uint256 _amount) external onlyDAO {... */\n    tag_7:\n      tag_29\n      tag_30\n      calldatasize\n      0x04\n      tag_31\n      jump\t// in\n    tag_30:\n      tag_32\n      jump\t// in\n    tag_29:\n      stop\n        /* \"contracts/TimelockVault.sol\":1764:2146  function unlockTokens(address _user) external onlyDAO onlyAfterUnlockTime(_user) {... */\n    tag_8:\n      tag_29\n      tag_34\n      calldatasize\n      0x04\n      tag_18\n      jump\t// in\n    tag_34:\n      tag_35\n      jump\t// in\n        /* \"contracts/TimelockVault.sol\":2154:2344  function updateLockDuration(uint256 _newLockDuration) external onlyDAO {... */\n    tag_9:\n      tag_29\n      tag_37\n      calldatasize\n      0x04\n      tag_38\n      jump\t// in\n    tag_37:\n      tag_39\n      jump\t// in\n        /* \"contracts/TimelockVault.sol\":342:362  address public token */\n    tag_10:\n      sload(0x01)\n      tag_25\n      swap1\n      sub(shl(0xa0, 0x01), 0x01)\n      and\n      dup2\n      jump\n        /* \"contracts/TimelockVault.sol\":1287:1756  function lockTokens(address _user, uint256 _amount) external onlyDAO {... */\n    tag_32:\n        /* \"contracts/TimelockVault.sol\":713:731  governanceContract */\n      and(sub(shl(0xa0, 0x01), 0x01), sload(0x00))\n        /* \"contracts/TimelockVault.sol\":699:709  msg.sender */\n      caller\n        /* \"contracts/TimelockVault.sol\":699:731  msg.sender == governanceContract */\n      eq\n        /* \"contracts/TimelockVault.sol\":691:743  require(msg.sender == governanceContract, \"Not DAO\") */\n      tag_44\n      jumpi\n      mload(0x40)\n      shl(0xe5, 0x461bcd)\n      dup2\n      mstore\n      0x04\n      add\n      tag_45\n      swap1\n      tag_46\n      jump\t// in\n    tag_45:\n      mload(0x40)\n      dup1\n      swap2\n      sub\n      swap1\n      revert\n    tag_44:\n      sub(shl(0xa0, 0x01), 0x01)\n        /* \"contracts/TimelockVault.sol\":1375:1394  _user != address(0) */\n      dup3\n      and\n        /* \"contracts/TimelockVault.sol\":1367:1419  require(_user != address(0), \"Invalid user address\") */\n      tag_48\n      jumpi\n      mload(0x40)\n      shl(0xe5, 0x461bcd)\n      dup2\n      mstore\n        /* \"#utility.yul\":1846:1848   */\n      0x20\n        /* \"contracts/TimelockVault.sol\":1367:1419  require(_user != address(0), \"Invalid user address\") */\n      0x04\n      dup3\n      add\n        /* \"#utility.yul\":1828:1849   */\n      mstore\n        /* \"#utility.yul\":1885:1887   */\n      0x14\n        /* \"#utility.yul\":1865:1883   */\n      0x24\n      dup3\n      add\n        /* \"#utility.yul\":1858:1888   */\n      mstore\n      shl(0x60, 0x496e76616c696420757365722061646472657373)\n        /* \"#utility.yul\":1904:1922   */\n      0x44\n      dup3\n      add\n        /* \"#utility.yul\":1897:1947   */\n      mstore\n        /* \"#utility.yul\":1964:1982   */\n      0x64\n      add\n        /* \"contracts/TimelockVault.sol\":1367:1419  require(_user != address(0), \"Invalid user address\") */\n      tag_45\n        /* \"#utility.yul\":1644:1988   */\n      jump\n        /* \"contracts/TimelockVault.sol\":1367:1419  require(_user != address(0), \"Invalid user address\") */\n    tag_48:\n        /* \"contracts/TimelockVault.sol\":1448:1449  0 */\n      0x00\n        /* \"contracts/TimelockVault.sol\":1438:1445  _amount */\n      dup2\n        /* \"contracts/TimelockVault.sol\":1438:1449  _amount > 0 */\n      gt\n        /* \"contracts/TimelockVault.sol\":1430:1483  require(_amount > 0, \"Amount must be greater than 0\") */\n      tag_51\n      jumpi\n      mload(0x40)\n      shl(0xe5, 0x461bcd)\n      dup2\n      mstore\n        /* \"#utility.yul\":2195:2197   */\n      0x20\n        /* \"contracts/TimelockVault.sol\":1430:1483  require(_amount > 0, \"Amount must be greater than 0\") */\n      0x04\n      dup3\n      add\n        /* \"#utility.yul\":2177:2198   */\n      mstore\n        /* \"#utility.yul\":2234:2236   */\n      0x1d\n        /* \"#utility.yul\":2214:2232   */\n      0x24\n      dup3\n      add\n        /* \"#utility.yul\":2207:2237   */\n      mstore\n        /* \"#utility.yul\":2273:2304   */\n      0x416d6f756e74206d7573742062652067726561746572207468616e2030000000\n        /* \"#utility.yul\":2253:2271   */\n      0x44\n      dup3\n      add\n        /* \"#utility.yul\":2246:2305   */\n      mstore\n        /* \"#utility.yul\":2322:2340   */\n      0x64\n      add\n        /* \"contracts/TimelockVault.sol\":1430:1483  require(_amount > 0, \"Amount must be greater than 0\") */\n      tag_45\n        /* \"#utility.yul\":1993:2346   */\n      jump\n        /* \"contracts/TimelockVault.sol\":1430:1483  require(_amount > 0, \"Amount must be greater than 0\") */\n    tag_51:\n        /* \"contracts/TimelockVault.sol\":1509:1514  token */\n      sload(0x01)\n        /* \"contracts/TimelockVault.sol\":1502:1559  IERC20(token).transferFrom(_user, address(this), _amount) */\n      mload(0x40)\n      shl(0xe0, 0x23b872dd)\n      dup2\n      mstore\n      sub(shl(0xa0, 0x01), 0x01)\n        /* \"#utility.yul\":2571:2603   */\n      dup5\n      dup2\n      and\n        /* \"contracts/TimelockVault.sol\":1502:1559  IERC20(token).transferFrom(_user, address(this), _amount) */\n      0x04\n      dup4\n      add\n        /* \"#utility.yul\":2553:2604   */\n      mstore\n        /* \"contracts/TimelockVault.sol\":1544:1548  this */\n      address\n        /* \"#utility.yul\":2620:2638   */\n      0x24\n      dup4\n      add\n        /* \"#utility.yul\":2613:2673   */\n      mstore\n        /* \"#utility.yul\":2689:2707   */\n      0x44\n      dup3\n      add\n        /* \"#utility.yul\":2682:2716   */\n      dup5\n      swap1\n      mstore\n        /* \"contracts/TimelockVault.sol\":1509:1514  token */\n      swap1\n      swap2\n      and\n      swap1\n        /* \"contracts/TimelockVault.sol\":1502:1528  IERC20(token).transferFrom */\n      0x23b872dd\n      swap1\n        /* \"#utility.yul\":2526:2544   */\n      0x64\n      add\n        /* \"contracts/TimelockVault.sol\":1502:1559  IERC20(token).transferFrom(_user, address(this), _amount) */\n      0x20\n      mload(0x40)\n      dup1\n      dup4\n      sub\n      dup2\n      0x00\n      dup8\n      gas\n      call\n      iszero\n      dup1\n      iszero\n      tag_57\n      jumpi\n      returndatacopy(0x00, 0x00, returndatasize)\n      revert(0x00, returndatasize)\n    tag_57:\n      pop\n      pop\n      pop\n      pop\n      mload(0x40)\n      returndatasize\n      not(0x1f)\n      0x1f\n      dup3\n      add\n      and\n      dup3\n      add\n      dup1\n      0x40\n      mstore\n      pop\n      dup2\n      add\n      swap1\n      tag_58\n      swap2\n      swap1\n      tag_59\n      jump\t// in\n    tag_58:\n        /* \"contracts/TimelockVault.sol\":1494:1579  require(IERC20(token).transferFrom(_user, address(this), _amount), \"Transfer failed\") */\n      tag_60\n      jumpi\n      mload(0x40)\n      shl(0xe5, 0x461bcd)\n      dup2\n      mstore\n        /* \"#utility.yul\":3211:3213   */\n      0x20\n        /* \"contracts/TimelockVault.sol\":1494:1579  require(IERC20(token).transferFrom(_user, address(this), _amount), \"Transfer failed\") */\n      0x04\n      dup3\n      add\n        /* \"#utility.yul\":3193:3214   */\n      mstore\n        /* \"#utility.yul\":3250:3252   */\n      0x0f\n        /* \"#utility.yul\":3230:3248   */\n      0x24\n      dup3\n      add\n        /* \"#utility.yul\":3223:3253   */\n      mstore\n      shl(0x8a, 0x151c985b9cd9995c8819985a5b1959)\n        /* \"#utility.yul\":3269:3287   */\n      0x44\n      dup3\n      add\n        /* \"#utility.yul\":3262:3307   */\n      mstore\n        /* \"#utility.yul\":3324:3342   */\n      0x64\n      add\n        /* \"contracts/TimelockVault.sol\":1494:1579  require(IERC20(token).transferFrom(_user, address(this), _amount), \"Transfer failed\") */\n      tag_45\n        /* \"#utility.yul\":3009:3348   */\n      jump\n        /* \"contracts/TimelockVault.sol\":1494:1579  require(IERC20(token).transferFrom(_user, address(this), _amount), \"Transfer failed\") */\n    tag_60:\n      sub(shl(0xa0, 0x01), 0x01)\n        /* \"contracts/TimelockVault.sol\":1592:1611  lockedTokens[_user] */\n      dup3\n      and\n      0x00\n      swap1\n      dup2\n      mstore\n        /* \"contracts/TimelockVault.sol\":1592:1604  lockedTokens */\n      0x03\n        /* \"contracts/TimelockVault.sol\":1592:1611  lockedTokens[_user] */\n      0x20\n      mstore\n      0x40\n      dup2\n      keccak256\n        /* \"contracts/TimelockVault.sol\":1592:1622  lockedTokens[_user] += _amount */\n      dup1\n      sload\n        /* \"contracts/TimelockVault.sol\":1615:1622  _amount */\n      dup4\n      swap3\n        /* \"contracts/TimelockVault.sol\":1592:1611  lockedTokens[_user] */\n      swap1\n        /* \"contracts/TimelockVault.sol\":1592:1622  lockedTokens[_user] += _amount */\n      tag_63\n      swap1\n        /* \"contracts/TimelockVault.sol\":1615:1622  _amount */\n      dup5\n      swap1\n        /* \"contracts/TimelockVault.sol\":1592:1622  lockedTokens[_user] += _amount */\n      tag_64\n      jump\t// in\n    tag_63:\n      swap1\n      swap2\n      sstore\n      pop\n      pop\n        /* \"contracts/TimelockVault.sol\":1671:1683  lockDuration */\n      sload(0x02)\n        /* \"contracts/TimelockVault.sol\":1653:1683  block.timestamp + lockDuration */\n      tag_65\n      swap1\n        /* \"contracts/TimelockVault.sol\":1653:1668  block.timestamp */\n      timestamp\n        /* \"contracts/TimelockVault.sol\":1653:1683  block.timestamp + lockDuration */\n      tag_64\n      jump\t// in\n    tag_65:\n      sub(shl(0xa0, 0x01), 0x01)\n        /* \"contracts/TimelockVault.sol\":1633:1650  unlockTime[_user] */\n      dup4\n      and\n      0x00\n      dup2\n      dup2\n      mstore\n        /* \"contracts/TimelockVault.sol\":1633:1643  unlockTime */\n      0x04\n        /* \"contracts/TimelockVault.sol\":1633:1650  unlockTime[_user] */\n      0x20\n      mstore\n      0x40\n      swap1\n      dup2\n      swap1\n      keccak256\n        /* \"contracts/TimelockVault.sol\":1633:1683  unlockTime[_user] = block.timestamp + lockDuration */\n      dup4\n      swap1\n      sstore\n        /* \"contracts/TimelockVault.sol\":1701:1748  TokensLocked(_user, _amount, unlockTime[_user]) */\n      mload\n        /* \"contracts/TimelockVault.sol\":1633:1650  unlockTime[_user] */\n      swap1\n      swap2\n        /* \"contracts/TimelockVault.sol\":1701:1748  TokensLocked(_user, _amount, unlockTime[_user]) */\n      0xd741e738a23fd18a03a26522320d9fc6cac1fed483e215ea9150fbc2fc43385d\n      swap2\n      tag_66\n      swap2\n        /* \"contracts/TimelockVault.sol\":1721:1728  _amount */\n      dup6\n        /* \"#utility.yul\":3754:3779   */\n      dup3\n      mstore\n        /* \"#utility.yul\":3810:3812   */\n      0x20\n        /* \"#utility.yul\":3795:3813   */\n      dup3\n      add\n        /* \"#utility.yul\":3788:3822   */\n      mstore\n        /* \"#utility.yul\":3742:3744   */\n      0x40\n        /* \"#utility.yul\":3727:3745   */\n      add\n      swap1\n        /* \"#utility.yul\":3580:3828   */\n      jump\n        /* \"contracts/TimelockVault.sol\":1701:1748  TokensLocked(_user, _amount, unlockTime[_user]) */\n    tag_66:\n      mload(0x40)\n      dup1\n      swap2\n      sub\n      swap1\n      log2\n        /* \"contracts/TimelockVault.sol\":1287:1756  function lockTokens(address _user, uint256 _amount) external onlyDAO {... */\n      pop\n      pop\n      jump\t// out\n        /* \"contracts/TimelockVault.sol\":1764:2146  function unlockTokens(address _user) external onlyDAO onlyAfterUnlockTime(_user) {... */\n    tag_35:\n        /* \"contracts/TimelockVault.sol\":713:731  governanceContract */\n      and(sub(shl(0xa0, 0x01), 0x01), sload(0x00))\n        /* \"contracts/TimelockVault.sol\":699:709  msg.sender */\n      caller\n        /* \"contracts/TimelockVault.sol\":699:731  msg.sender == governanceContract */\n      eq\n        /* \"contracts/TimelockVault.sol\":691:743  require(msg.sender == governanceContract, \"Not DAO\") */\n      tag_69\n      jumpi\n      mload(0x40)\n      shl(0xe5, 0x461bcd)\n      dup2\n      mstore\n      0x04\n      add\n      tag_45\n      swap1\n      tag_46\n      jump\t// in\n    tag_69:\n      sub(shl(0xa0, 0x01), 0x01)\n        /* \"contracts/TimelockVault.sol\":853:870  unlockTime[_user] */\n      dup2\n      and\n      0x00\n      swap1\n      dup2\n      mstore\n        /* \"contracts/TimelockVault.sol\":853:863  unlockTime */\n      0x04\n        /* \"contracts/TimelockVault.sol\":853:870  unlockTime[_user] */\n      0x20\n      mstore\n      0x40\n      swap1\n      keccak256\n      sload\n        /* \"contracts/TimelockVault.sol\":1838:1843  _user */\n      dup2\n      swap1\n        /* \"contracts/TimelockVault.sol\":834:849  block.timestamp */\n      timestamp\n        /* \"contracts/TimelockVault.sol\":834:870  block.timestamp >= unlockTime[_user] */\n      lt\n      iszero\n        /* \"contracts/TimelockVault.sol\":826:898  require(block.timestamp >= unlockTime[_user], \"Tokens are still locked\") */\n      tag_72\n      jumpi\n      mload(0x40)\n      shl(0xe5, 0x461bcd)\n      dup2\n      mstore\n        /* \"#utility.yul\":4035:4037   */\n      0x20\n        /* \"contracts/TimelockVault.sol\":826:898  require(block.timestamp >= unlockTime[_user], \"Tokens are still locked\") */\n      0x04\n      dup3\n      add\n        /* \"#utility.yul\":4017:4038   */\n      mstore\n        /* \"#utility.yul\":4074:4076   */\n      0x17\n        /* \"#utility.yul\":4054:4072   */\n      0x24\n      dup3\n      add\n        /* \"#utility.yul\":4047:4077   */\n      mstore\n        /* \"#utility.yul\":4113:4138   */\n      0x546f6b656e7320617265207374696c6c206c6f636b6564000000000000000000\n        /* \"#utility.yul\":4093:4111   */\n      0x44\n      dup3\n      add\n        /* \"#utility.yul\":4086:4139   */\n      mstore\n        /* \"#utility.yul\":4156:4174   */\n      0x64\n      add\n        /* \"contracts/TimelockVault.sol\":826:898  require(block.timestamp >= unlockTime[_user], \"Tokens are still locked\") */\n      tag_45\n        /* \"#utility.yul\":3833:4180   */\n      jump\n        /* \"contracts/TimelockVault.sol\":826:898  require(block.timestamp >= unlockTime[_user], \"Tokens are still locked\") */\n    tag_72:\n      sub(shl(0xa0, 0x01), 0x01)\n        /* \"contracts/TimelockVault.sol\":1873:1892  lockedTokens[_user] */\n      dup3\n      and\n        /* \"contracts/TimelockVault.sol\":1856:1870  uint256 amount */\n      0x00\n        /* \"contracts/TimelockVault.sol\":1873:1892  lockedTokens[_user] */\n      swap1\n      dup2\n      mstore\n        /* \"contracts/TimelockVault.sol\":1873:1885  lockedTokens */\n      0x03\n        /* \"contracts/TimelockVault.sol\":1873:1892  lockedTokens[_user] */\n      0x20\n      mstore\n      0x40\n      swap1\n      keccak256\n      sload\n        /* \"contracts/TimelockVault.sol\":1911:1921  amount > 0 */\n      dup1\n        /* \"contracts/TimelockVault.sol\":1903:1945  require(amount > 0, \"No tokens to unlock\") */\n      tag_76\n      jumpi\n      mload(0x40)\n      shl(0xe5, 0x461bcd)\n      dup2\n      mstore\n        /* \"#utility.yul\":4387:4389   */\n      0x20\n        /* \"contracts/TimelockVault.sol\":1903:1945  require(amount > 0, \"No tokens to unlock\") */\n      0x04\n      dup3\n      add\n        /* \"#utility.yul\":4369:4390   */\n      mstore\n        /* \"#utility.yul\":4426:4428   */\n      0x13\n        /* \"#utility.yul\":4406:4424   */\n      0x24\n      dup3\n      add\n        /* \"#utility.yul\":4399:4429   */\n      mstore\n      shl(0x68, 0x4e6f20746f6b656e7320746f20756e6c6f636b)\n        /* \"#utility.yul\":4445:4463   */\n      0x44\n      dup3\n      add\n        /* \"#utility.yul\":4438:4487   */\n      mstore\n        /* \"#utility.yul\":4504:4522   */\n      0x64\n      add\n        /* \"contracts/TimelockVault.sol\":1903:1945  require(amount > 0, \"No tokens to unlock\") */\n      tag_45\n        /* \"#utility.yul\":4185:4528   */\n      jump\n        /* \"contracts/TimelockVault.sol\":1903:1945  require(amount > 0, \"No tokens to unlock\") */\n    tag_76:\n      sub(shl(0xa0, 0x01), 0x01)\n        /* \"contracts/TimelockVault.sol\":1958:1977  lockedTokens[_user] */\n      dup4\n      dup2\n      and\n        /* \"contracts/TimelockVault.sol\":1980:1981  0 */\n      0x00\n        /* \"contracts/TimelockVault.sol\":1958:1977  lockedTokens[_user] */\n      dup2\n      dup2\n      mstore\n        /* \"contracts/TimelockVault.sol\":1958:1970  lockedTokens */\n      0x03\n        /* \"contracts/TimelockVault.sol\":1958:1977  lockedTokens[_user] */\n      0x20\n      swap1\n      dup2\n      mstore\n      0x40\n      dup1\n      dup4\n      keccak256\n        /* \"contracts/TimelockVault.sol\":1958:1981  lockedTokens[_user] = 0 */\n      dup4\n      swap1\n      sstore\n        /* \"contracts/TimelockVault.sol\":1992:2002  unlockTime */\n      0x04\n        /* \"contracts/TimelockVault.sol\":1992:2009  unlockTime[_user] */\n      swap2\n      dup3\n      swap1\n      mstore\n      dup1\n      dup4\n      keccak256\n        /* \"contracts/TimelockVault.sol\":1992:2013  unlockTime[_user] = 0 */\n      swap3\n      swap1\n      swap3\n      sstore\n        /* \"contracts/TimelockVault.sol\":2041:2046  token */\n      sload(0x01)\n        /* \"contracts/TimelockVault.sol\":2034:2071  IERC20(token).transfer(_user, amount) */\n      swap2\n      mload\n      shl(0xe0, 0xa9059cbb)\n      dup2\n      mstore\n      swap1\n      dup2\n      add\n        /* \"#utility.yul\":4707:4758   */\n      swap3\n      swap1\n      swap3\n      mstore\n        /* \"#utility.yul\":4774:4792   */\n      0x24\n      dup3\n      add\n        /* \"#utility.yul\":4767:4801   */\n      dup5\n      swap1\n      mstore\n        /* \"contracts/TimelockVault.sol\":2041:2046  token */\n      swap1\n      swap2\n      and\n      swap1\n        /* \"contracts/TimelockVault.sol\":2034:2056  IERC20(token).transfer */\n      0xa9059cbb\n      swap1\n        /* \"#utility.yul\":4680:4698   */\n      0x44\n      add\n        /* \"contracts/TimelockVault.sol\":2034:2071  IERC20(token).transfer(_user, amount) */\n      0x20\n      mload(0x40)\n      dup1\n      dup4\n      sub\n      dup2\n      0x00\n      dup8\n      gas\n      call\n      iszero\n      dup1\n      iszero\n      tag_82\n      jumpi\n      returndatacopy(0x00, 0x00, returndatasize)\n      revert(0x00, returndatasize)\n    tag_82:\n      pop\n      pop\n      pop\n      pop\n      mload(0x40)\n      returndatasize\n      not(0x1f)\n      0x1f\n      dup3\n      add\n      and\n      dup3\n      add\n      dup1\n      0x40\n      mstore\n      pop\n      dup2\n      add\n      swap1\n      tag_83\n      swap2\n      swap1\n      tag_59\n      jump\t// in\n    tag_83:\n        /* \"contracts/TimelockVault.sol\":2026:2091  require(IERC20(token).transfer(_user, amount), \"Transfer failed\") */\n      tag_84\n      jumpi\n      mload(0x40)\n      shl(0xe5, 0x461bcd)\n      dup2\n      mstore\n        /* \"#utility.yul\":3211:3213   */\n      0x20\n        /* \"contracts/TimelockVault.sol\":2026:2091  require(IERC20(token).transfer(_user, amount), \"Transfer failed\") */\n      0x04\n      dup3\n      add\n        /* \"#utility.yul\":3193:3214   */\n      mstore\n        /* \"#utility.yul\":3250:3252   */\n      0x0f\n        /* \"#utility.yul\":3230:3248   */\n      0x24\n      dup3\n      add\n        /* \"#utility.yul\":3223:3253   */\n      mstore\n      shl(0x8a, 0x151c985b9cd9995c8819985a5b1959)\n        /* \"#utility.yul\":3269:3287   */\n      0x44\n      dup3\n      add\n        /* \"#utility.yul\":3262:3307   */\n      mstore\n        /* \"#utility.yul\":3324:3342   */\n      0x64\n      add\n        /* \"contracts/TimelockVault.sol\":2026:2091  require(IERC20(token).transfer(_user, amount), \"Transfer failed\") */\n      tag_45\n        /* \"#utility.yul\":3009:3348   */\n      jump\n        /* \"contracts/TimelockVault.sol\":2026:2091  require(IERC20(token).transfer(_user, amount), \"Transfer failed\") */\n    tag_84:\n        /* \"contracts/TimelockVault.sol\":2124:2129  _user */\n      dup3\n      sub(shl(0xa0, 0x01), 0x01)\n        /* \"contracts/TimelockVault.sol\":2109:2138  TokensUnlocked(_user, amount) */\n      and\n      0xe7b379c6c1fa169e9079c25e9143b127637eef8ec8c9d5c06ddb4ab3e1195888\n        /* \"contracts/TimelockVault.sol\":2131:2137  amount */\n      dup3\n        /* \"contracts/TimelockVault.sol\":2109:2138  TokensUnlocked(_user, amount) */\n      mload(0x40)\n      tag_86\n      swap2\n        /* \"#utility.yul\":160:185   */\n      dup2\n      mstore\n        /* \"#utility.yul\":148:150   */\n      0x20\n        /* \"#utility.yul\":133:151   */\n      add\n      swap1\n        /* \"#utility.yul\":14:191   */\n      jump\n        /* \"contracts/TimelockVault.sol\":2109:2138  TokensUnlocked(_user, amount) */\n    tag_86:\n      mload(0x40)\n      dup1\n      swap2\n      sub\n      swap1\n      log2\n        /* \"contracts/TimelockVault.sol\":1845:2146  {... */\n      pop\n        /* \"contracts/TimelockVault.sol\":754:755  _ */\n      pop\n        /* \"contracts/TimelockVault.sol\":1764:2146  function unlockTokens(address _user) external onlyDAO onlyAfterUnlockTime(_user) {... */\n      pop\n      jump\t// out\n        /* \"contracts/TimelockVault.sol\":2154:2344  function updateLockDuration(uint256 _newLockDuration) external onlyDAO {... */\n    tag_39:\n        /* \"contracts/TimelockVault.sol\":713:731  governanceContract */\n      and(sub(shl(0xa0, 0x01), 0x01), sload(0x00))\n        /* \"contracts/TimelockVault.sol\":699:709  msg.sender */\n      caller\n        /* \"contracts/TimelockVault.sol\":699:731  msg.sender == governanceContract */\n      eq\n        /* \"contracts/TimelockVault.sol\":691:743  require(msg.sender == governanceContract, \"Not DAO\") */\n      tag_88\n      jumpi\n      mload(0x40)\n      shl(0xe5, 0x461bcd)\n      dup2\n      mstore\n      0x04\n      add\n      tag_45\n      swap1\n      tag_46\n      jump\t// in\n    tag_88:\n        /* \"contracts/TimelockVault.sol\":2263:2264  0 */\n      0x00\n        /* \"contracts/TimelockVault.sol\":2244:2260  _newLockDuration */\n      dup2\n        /* \"contracts/TimelockVault.sol\":2244:2264  _newLockDuration > 0 */\n      gt\n        /* \"contracts/TimelockVault.sol\":2236:2294  require(_newLockDuration > 0, \"Duration must be positive\") */\n      tag_91\n      jumpi\n      mload(0x40)\n      shl(0xe5, 0x461bcd)\n      dup2\n      mstore\n        /* \"#utility.yul\":5014:5016   */\n      0x20\n        /* \"contracts/TimelockVault.sol\":2236:2294  require(_newLockDuration > 0, \"Duration must be positive\") */\n      0x04\n      dup3\n      add\n        /* \"#utility.yul\":4996:5017   */\n      mstore\n        /* \"#utility.yul\":5053:5055   */\n      0x19\n        /* \"#utility.yul\":5033:5051   */\n      0x24\n      dup3\n      add\n        /* \"#utility.yul\":5026:5056   */\n      mstore\n        /* \"#utility.yul\":5092:5119   */\n      0x4475726174696f6e206d75737420626520706f73697469766500000000000000\n        /* \"#utility.yul\":5072:5090   */\n      0x44\n      dup3\n      add\n        /* \"#utility.yul\":5065:5120   */\n      mstore\n        /* \"#utility.yul\":5137:5155   */\n      0x64\n      add\n        /* \"contracts/TimelockVault.sol\":2236:2294  require(_newLockDuration > 0, \"Duration must be positive\") */\n      tag_45\n        /* \"#utility.yul\":4812:5161   */\n      jump\n        /* \"contracts/TimelockVault.sol\":2236:2294  require(_newLockDuration > 0, \"Duration must be positive\") */\n    tag_91:\n        /* \"contracts/TimelockVault.sol\":2305:2317  lockDuration */\n      0x02\n        /* \"contracts/TimelockVault.sol\":2305:2336  lockDuration = _newLockDuration */\n      sstore\n        /* \"contracts/TimelockVault.sol\":2154:2344  function updateLockDuration(uint256 _newLockDuration) external onlyDAO {... */\n      jump\t// out\n        /* \"#utility.yul\":196:369   */\n    tag_94:\n        /* \"#utility.yul\":264:284   */\n      dup1\n      calldataload\n      sub(shl(0xa0, 0x01), 0x01)\n        /* \"#utility.yul\":313:344   */\n      dup2\n      and\n        /* \"#utility.yul\":303:345   */\n      dup2\n      eq\n        /* \"#utility.yul\":293:363   */\n      tag_98\n      jumpi\n        /* \"#utility.yul\":359:360   */\n      0x00\n        /* \"#utility.yul\":356:357   */\n      0x00\n        /* \"#utility.yul\":349:361   */\n      revert\n        /* \"#utility.yul\":293:363   */\n    tag_98:\n        /* \"#utility.yul\":196:369   */\n      swap2\n      swap1\n      pop\n      jump\t// out\n        /* \"#utility.yul\":374:560   */\n    tag_18:\n        /* \"#utility.yul\":433:439   */\n      0x00\n        /* \"#utility.yul\":486:488   */\n      0x20\n        /* \"#utility.yul\":474:483   */\n      dup3\n        /* \"#utility.yul\":465:472   */\n      dup5\n        /* \"#utility.yul\":461:484   */\n      sub\n        /* \"#utility.yul\":457:489   */\n      slt\n        /* \"#utility.yul\":454:506   */\n      iszero\n      tag_100\n      jumpi\n        /* \"#utility.yul\":502:503   */\n      0x00\n        /* \"#utility.yul\":499:500   */\n      0x00\n        /* \"#utility.yul\":492:504   */\n      revert\n        /* \"#utility.yul\":454:506   */\n    tag_100:\n        /* \"#utility.yul\":525:554   */\n      tag_101\n        /* \"#utility.yul\":544:553   */\n      dup3\n        /* \"#utility.yul\":525:554   */\n      tag_94\n      jump\t// in\n    tag_101:\n        /* \"#utility.yul\":515:554   */\n      swap4\n        /* \"#utility.yul\":374:560   */\n      swap3\n      pop\n      pop\n      pop\n      jump\t// out\n        /* \"#utility.yul\":773:1073   */\n    tag_31:\n        /* \"#utility.yul\":841:847   */\n      0x00\n        /* \"#utility.yul\":849:855   */\n      0x00\n        /* \"#utility.yul\":902:904   */\n      0x40\n        /* \"#utility.yul\":890:899   */\n      dup4\n        /* \"#utility.yul\":881:888   */\n      dup6\n        /* \"#utility.yul\":877:900   */\n      sub\n        /* \"#utility.yul\":873:905   */\n      slt\n        /* \"#utility.yul\":870:922   */\n      iszero\n      tag_104\n      jumpi\n        /* \"#utility.yul\":918:919   */\n      0x00\n        /* \"#utility.yul\":915:916   */\n      0x00\n        /* \"#utility.yul\":908:920   */\n      revert\n        /* \"#utility.yul\":870:922   */\n    tag_104:\n        /* \"#utility.yul\":941:970   */\n      tag_105\n        /* \"#utility.yul\":960:969   */\n      dup4\n        /* \"#utility.yul\":941:970   */\n      tag_94\n      jump\t// in\n    tag_105:\n        /* \"#utility.yul\":931:970   */\n      swap5\n        /* \"#utility.yul\":1039:1041   */\n      0x20\n        /* \"#utility.yul\":1024:1042   */\n      swap4\n      swap1\n      swap4\n      add\n        /* \"#utility.yul\":1011:1043   */\n      calldataload\n      swap4\n      pop\n      pop\n      pop\n        /* \"#utility.yul\":773:1073   */\n      jump\t// out\n        /* \"#utility.yul\":1078:1304   */\n    tag_38:\n        /* \"#utility.yul\":1137:1143   */\n      0x00\n        /* \"#utility.yul\":1190:1192   */\n      0x20\n        /* \"#utility.yul\":1178:1187   */\n      dup3\n        /* \"#utility.yul\":1169:1176   */\n      dup5\n        /* \"#utility.yul\":1165:1188   */\n      sub\n        /* \"#utility.yul\":1161:1193   */\n      slt\n        /* \"#utility.yul\":1158:1210   */\n      iszero\n      tag_107\n      jumpi\n        /* \"#utility.yul\":1206:1207   */\n      0x00\n        /* \"#utility.yul\":1203:1204   */\n      0x00\n        /* \"#utility.yul\":1196:1208   */\n      revert\n        /* \"#utility.yul\":1158:1210   */\n    tag_107:\n      pop\n        /* \"#utility.yul\":1251:1274   */\n      calldataload\n      swap2\n        /* \"#utility.yul\":1078:1304   */\n      swap1\n      pop\n      jump\t// out\n        /* \"#utility.yul\":1309:1639   */\n    tag_46:\n        /* \"#utility.yul\":1511:1513   */\n      0x20\n        /* \"#utility.yul\":1493:1514   */\n      dup1\n      dup3\n      mstore\n        /* \"#utility.yul\":1550:1551   */\n      0x07\n        /* \"#utility.yul\":1530:1548   */\n      swap1\n      dup3\n      add\n        /* \"#utility.yul\":1523:1552   */\n      mstore\n      shl(0xc8, 0x4e6f742044414f)\n        /* \"#utility.yul\":1583:1585   */\n      0x40\n        /* \"#utility.yul\":1568:1586   */\n      dup3\n      add\n        /* \"#utility.yul\":1561:1598   */\n      mstore\n        /* \"#utility.yul\":1630:1632   */\n      0x60\n        /* \"#utility.yul\":1615:1633   */\n      add\n      swap1\n        /* \"#utility.yul\":1309:1639   */\n      jump\t// out\n        /* \"#utility.yul\":2727:3004   */\n    tag_59:\n        /* \"#utility.yul\":2794:2800   */\n      0x00\n        /* \"#utility.yul\":2847:2849   */\n      0x20\n        /* \"#utility.yul\":2835:2844   */\n      dup3\n        /* \"#utility.yul\":2826:2833   */\n      dup5\n        /* \"#utility.yul\":2822:2845   */\n      sub\n        /* \"#utility.yul\":2818:2850   */\n      slt\n        /* \"#utility.yul\":2815:2867   */\n      iszero\n      tag_113\n      jumpi\n        /* \"#utility.yul\":2863:2864   */\n      0x00\n        /* \"#utility.yul\":2860:2861   */\n      0x00\n        /* \"#utility.yul\":2853:2865   */\n      revert\n        /* \"#utility.yul\":2815:2867   */\n    tag_113:\n        /* \"#utility.yul\":2895:2904   */\n      dup2\n        /* \"#utility.yul\":2889:2905   */\n      mload\n        /* \"#utility.yul\":2948:2953   */\n      dup1\n        /* \"#utility.yul\":2941:2954   */\n      iszero\n        /* \"#utility.yul\":2934:2955   */\n      iszero\n        /* \"#utility.yul\":2927:2932   */\n      dup2\n        /* \"#utility.yul\":2924:2956   */\n      eq\n        /* \"#utility.yul\":2914:2974   */\n      tag_101\n      jumpi\n        /* \"#utility.yul\":2970:2971   */\n      0x00\n        /* \"#utility.yul\":2967:2968   */\n      0x00\n        /* \"#utility.yul\":2960:2972   */\n      revert\n        /* \"#utility.yul\":3353:3575   */\n    tag_64:\n        /* \"#utility.yul\":3418:3427   */\n      dup1\n      dup3\n      add\n        /* \"#utility.yul\":3439:3449   */\n      dup1\n      dup3\n      gt\n        /* \"#utility.yul\":3436:3569   */\n      iszero\n      tag_117\n      jumpi\n        /* \"#utility.yul\":3491:3501   */\n      0x4e487b71\n        /* \"#utility.yul\":3486:3489   */\n      0xe0\n        /* \"#utility.yul\":3482:3502   */\n      shl\n        /* \"#utility.yul\":3479:3480   */\n      0x00\n        /* \"#utility.yul\":3472:3503   */\n      mstore\n        /* \"#utility.yul\":3526:3530   */\n      0x11\n        /* \"#utility.yul\":3523:3524   */\n      0x04\n        /* \"#utility.yul\":3516:3531   */\n      mstore\n        /* \"#utility.yul\":3554:3558   */\n      0x24\n        /* \"#utility.yul\":3551:3552   */\n      0x00\n        /* \"#utility.yul\":3544:3559   */\n      revert\n        /* \"#utility.yul\":3436:3569   */\n    tag_117:\n        /* \"#utility.yul\":3353:3575   */\n      swap3\n      swap2\n      pop\n      pop\n      jump\t// out\n\n    auxdata: 0xa2646970667358221220007a055296ca2cace7b0ea45f09d169d9360aa91f8f829c7d43a22194ae9a5e664736f6c634300081d0033\n}\n",
				"bytecode": {
					"linkReferences": {},
					"object": "608060405234801561000f575f5ffd5b5060405161088a38038061088a83398101604081905261002e91610131565b6001600160a01b0383166100895760405162461bcd60e51b815260206004820152601a60248201527f496e76616c696420676f7665726e616e6365206164647265737300000000000060448201526064015b60405180910390fd5b6001600160a01b0382166100df5760405162461bcd60e51b815260206004820152601560248201527f496e76616c696420746f6b656e206164647265737300000000000000000000006044820152606401610080565b5f80546001600160a01b039485166001600160a01b031991821617909155600180549390941692169190911790915560025561016a565b80516001600160a01b038116811461012c575f5ffd5b919050565b5f5f5f60608486031215610143575f5ffd5b61014c84610116565b925061015a60208501610116565b9150604084015190509250925092565b610713806101775f395ff3fe608060405234801561000f575f5ffd5b5060043610610085575f3560e01c8063b1c2558611610058578063b1c255861461010d578063cb67f94814610122578063d477edf414610135578063fc0c546a14610148575f5ffd5b806304554443146100895780635eb7413a146100a557806376b467b7146100c4578063b172b222146100e3575b5f5ffd5b61009260025481565b6040519081526020015b60405180910390f35b6100926100b3366004610619565b60036020525f908152604090205481565b6100926100d2366004610619565b60046020525f908152604090205481565b5f546100f5906001600160a01b031681565b6040516001600160a01b03909116815260200161009c565b61012061011b366004610639565b61015b565b005b610120610130366004610619565b610379565b610120610143366004610661565b610581565b6001546100f5906001600160a01b031681565b5f546001600160a01b0316331461018d5760405162461bcd60e51b815260040161018490610678565b60405180910390fd5b6001600160a01b0382166101da5760405162461bcd60e51b8152602060048201526014602482015273496e76616c69642075736572206164647265737360601b6044820152606401610184565b5f81116102295760405162461bcd60e51b815260206004820152601d60248201527f416d6f756e74206d7573742062652067726561746572207468616e20300000006044820152606401610184565b6001546040516323b872dd60e01b81526001600160a01b03848116600483015230602483015260448201849052909116906323b872dd906064016020604051808303815f875af115801561027f573d5f5f3e3d5ffd5b505050506040513d601f19601f820116820180604052508101906102a39190610699565b6102e15760405162461bcd60e51b815260206004820152600f60248201526e151c985b9cd9995c8819985a5b1959608a1b6044820152606401610184565b6001600160a01b0382165f90815260036020526040812080548392906103089084906106b8565b909155505060025461031a90426106b8565b6001600160a01b0383165f81815260046020526040908190208390555190917fd741e738a23fd18a03a26522320d9fc6cac1fed483e215ea9150fbc2fc43385d9161036d91858252602082015260400190565b60405180910390a25050565b5f546001600160a01b031633146103a25760405162461bcd60e51b815260040161018490610678565b6001600160a01b0381165f90815260046020526040902054819042101561040b5760405162461bcd60e51b815260206004820152601760248201527f546f6b656e7320617265207374696c6c206c6f636b65640000000000000000006044820152606401610184565b6001600160a01b0382165f90815260036020526040902054806104665760405162461bcd60e51b81526020600482015260136024820152724e6f20746f6b656e7320746f20756e6c6f636b60681b6044820152606401610184565b6001600160a01b038381165f81815260036020908152604080832083905560049182905280832092909255600154915163a9059cbb60e01b815290810192909252602482018490529091169063a9059cbb906044016020604051808303815f875af11580156104d7573d5f5f3e3d5ffd5b505050506040513d601f19601f820116820180604052508101906104fb9190610699565b6105395760405162461bcd60e51b815260206004820152600f60248201526e151c985b9cd9995c8819985a5b1959608a1b6044820152606401610184565b826001600160a01b03167fe7b379c6c1fa169e9079c25e9143b127637eef8ec8c9d5c06ddb4ab3e11958888260405161057491815260200190565b60405180910390a2505050565b5f546001600160a01b031633146105aa5760405162461bcd60e51b815260040161018490610678565b5f81116105f95760405162461bcd60e51b815260206004820152601960248201527f4475726174696f6e206d75737420626520706f736974697665000000000000006044820152606401610184565b600255565b80356001600160a01b0381168114610614575f5ffd5b919050565b5f60208284031215610629575f5ffd5b610632826105fe565b9392505050565b5f5f6040838503121561064a575f5ffd5b610653836105fe565b946020939093013593505050565b5f60208284031215610671575f5ffd5b5035919050565b6020808252600790820152664e6f742044414f60c81b604082015260600190565b5f602082840312156106a9575f5ffd5b81518015158114610632575f5ffd5b808201808211156106d757634e487b7160e01b5f52601160045260245ffd5b9291505056fea2646970667358221220007a055296ca2cace7b0ea45f09d169d9360aa91f8f829c7d43a22194ae9a5e664736f6c634300081d0033",
					"opcodes": "PUSH1 0x80 PUSH1 0x40 MSTORE CALLVALUE DUP1 ISZERO PUSH2 0xF JUMPI PUSH0 PUSH0 REVERT JUMPDEST POP PUSH1 0x40 MLOAD PUSH2 0x88A CODESIZE SUB DUP1 PUSH2 0x88A DUP4 CODECOPY DUP2 ADD PUSH1 0x40 DUP2 SWAP1 MSTORE PUSH2 0x2E SWAP2 PUSH2 0x131 JUMP JUMPDEST PUSH1 0x1 PUSH1 0x1 PUSH1 0xA0 SHL SUB DUP4 AND PUSH2 0x89 JUMPI PUSH1 0x40 MLOAD PUSH3 0x461BCD PUSH1 0xE5 SHL DUP2 MSTORE PUSH1 0x20 PUSH1 0x4 DUP3 ADD MSTORE PUSH1 0x1A PUSH1 0x24 DUP3 ADD MSTORE PUSH32 0x496E76616C696420676F7665726E616E63652061646472657373000000000000 PUSH1 0x44 DUP3 ADD MSTORE PUSH1 0x64 ADD JUMPDEST PUSH1 0x40 MLOAD DUP1 SWAP2 SUB SWAP1 REVERT JUMPDEST PUSH1 0x1 PUSH1 0x1 PUSH1 0xA0 SHL SUB DUP3 AND PUSH2 0xDF JUMPI PUSH1 0x40 MLOAD PUSH3 0x461BCD PUSH1 0xE5 SHL DUP2 MSTORE PUSH1 0x20 PUSH1 0x4 DUP3 ADD MSTORE PUSH1 0x15 PUSH1 0x24 DUP3 ADD MSTORE PUSH32 0x496E76616C696420746F6B656E20616464726573730000000000000000000000 PUSH1 0x44 DUP3 ADD MSTORE PUSH1 0x64 ADD PUSH2 0x80 JUMP JUMPDEST PUSH0 DUP1 SLOAD PUSH1 0x1 PUSH1 0x1 PUSH1 0xA0 SHL SUB SWAP5 DUP6 AND PUSH1 0x1 PUSH1 0x1 PUSH1 0xA0 SHL SUB NOT SWAP2 DUP3 AND OR SWAP1 SWAP2 SSTORE PUSH1 0x1 DUP1 SLOAD SWAP4 SWAP1 SWAP5 AND SWAP3 AND SWAP2 SWAP1 SWAP2 OR SWAP1 SWAP2 SSTORE PUSH1 0x2 SSTORE PUSH2 0x16A JUMP JUMPDEST DUP1 MLOAD PUSH1 0x1 PUSH1 0x1 PUSH1 0xA0 SHL SUB DUP2 AND DUP2 EQ PUSH2 0x12C JUMPI PUSH0 PUSH0 REVERT JUMPDEST SWAP2 SWAP1 POP JUMP JUMPDEST PUSH0 PUSH0 PUSH0 PUSH1 0x60 DUP5 DUP7 SUB SLT ISZERO PUSH2 0x143 JUMPI PUSH0 PUSH0 REVERT JUMPDEST PUSH2 0x14C DUP5 PUSH2 0x116 JUMP JUMPDEST SWAP3 POP PUSH2 0x15A PUSH1 0x20 DUP6 ADD PUSH2 0x116 JUMP JUMPDEST SWAP2 POP PUSH1 0x40 DUP5 ADD MLOAD SWAP1 POP SWAP3 POP SWAP3 POP SWAP3 JUMP JUMPDEST PUSH2 0x713 DUP1 PUSH2 0x177 PUSH0 CODECOPY PUSH0 RETURN INVALID PUSH1 0x80 PUSH1 0x40 MSTORE CALLVALUE DUP1 ISZERO PUSH2 0xF JUMPI PUSH0 PUSH0 REVERT JUMPDEST POP PUSH1 0x4 CALLDATASIZE LT PUSH2 0x85 JUMPI PUSH0 CALLDATALOAD PUSH1 0xE0 SHR DUP1 PUSH4 0xB1C25586 GT PUSH2 0x58 JUMPI DUP1 PUSH4 0xB1C25586 EQ PUSH2 0x10D JUMPI DUP1 PUSH4 0xCB67F948 EQ PUSH2 0x122 JUMPI DUP1 PUSH4 0xD477EDF4 EQ PUSH2 0x135 JUMPI DUP1 PUSH4 0xFC0C546A EQ PUSH2 0x148 JUMPI PUSH0 PUSH0 REVERT JUMPDEST DUP1 PUSH4 0x4554443 EQ PUSH2 0x89 JUMPI DUP1 PUSH4 0x5EB7413A EQ PUSH2 0xA5 JUMPI DUP1 PUSH4 0x76B467B7 EQ PUSH2 0xC4 JUMPI DUP1 PUSH4 0xB172B222 EQ PUSH2 0xE3 JUMPI JUMPDEST PUSH0 PUSH0 REVERT JUMPDEST PUSH2 0x92 PUSH1 0x2 SLOAD DUP2 JUMP JUMPDEST PUSH1 0x40 MLOAD SWAP1 DUP2 MSTORE PUSH1 0x20 ADD JUMPDEST PUSH1 0x40 MLOAD DUP1 SWAP2 SUB SWAP1 RETURN JUMPDEST PUSH2 0x92 PUSH2 0xB3 CALLDATASIZE PUSH1 0x4 PUSH2 0x619 JUMP JUMPDEST PUSH1 0x3 PUSH1 0x20 MSTORE PUSH0 SWAP1 DUP2 MSTORE PUSH1 0x40 SWAP1 KECCAK256 SLOAD DUP2 JUMP JUMPDEST PUSH2 0x92 PUSH2 0xD2 CALLDATASIZE PUSH1 0x4 PUSH2 0x619 JUMP JUMPDEST PUSH1 0x4 PUSH1 0x20 MSTORE PUSH0 SWAP1 DUP2 MSTORE PUSH1 0x40 SWAP1 KECCAK256 SLOAD DUP2 JUMP JUMPDEST PUSH0 SLOAD PUSH2 0xF5 SWAP1 PUSH1 0x1 PUSH1 0x1 PUSH1 0xA0 SHL SUB AND DUP2 JUMP JUMPDEST PUSH1 0x40 MLOAD PUSH1 0x1 PUSH1 0x1 PUSH1 0xA0 SHL SUB SWAP1 SWAP2 AND DUP2 MSTORE PUSH1 0x20 ADD PUSH2 0x9C JUMP JUMPDEST PUSH2 0x120 PUSH2 0x11B CALLDATASIZE PUSH1 0x4 PUSH2 0x639 JUMP JUMPDEST PUSH2 0x15B JUMP JUMPDEST STOP JUMPDEST PUSH2 0x120 PUSH2 0x130 CALLDATASIZE PUSH1 0x4 PUSH2 0x619 JUMP JUMPDEST PUSH2 0x379 JUMP JUMPDEST PUSH2 0x120 PUSH2 0x143 CALLDATASIZE PUSH1 0x4 PUSH2 0x661 JUMP JUMPDEST PUSH2 0x581 JUMP JUMPDEST PUSH1 0x1 SLOAD PUSH2 0xF5 SWAP1 PUSH1 0x1 PUSH1 0x1 PUSH1 0xA0 SHL SUB AND DUP2 JUMP JUMPDEST PUSH0 SLOAD PUSH1 0x1 PUSH1 0x1 PUSH1 0xA0 SHL SUB AND CALLER EQ PUSH2 0x18D JUMPI PUSH1 0x40 MLOAD PUSH3 0x461BCD PUSH1 0xE5 SHL DUP2 MSTORE PUSH1 0x4 ADD PUSH2 0x184 SWAP1 PUSH2 0x678 JUMP JUMPDEST PUSH1 0x40 MLOAD DUP1 SWAP2 SUB SWAP1 REVERT JUMPDEST PUSH1 0x1 PUSH1 0x1 PUSH1 0xA0 SHL SUB DUP3 AND PUSH2 0x1DA JUMPI PUSH1 0x40 MLOAD PUSH3 0x461BCD PUSH1 0xE5 SHL DUP2 MSTORE PUSH1 0x20 PUSH1 0x4 DUP3 ADD MSTORE PUSH1 0x14 PUSH1 0x24 DUP3 ADD MSTORE PUSH20 0x496E76616C696420757365722061646472657373 PUSH1 0x60 SHL PUSH1 0x44 DUP3 ADD MSTORE PUSH1 0x64 ADD PUSH2 0x184 JUMP JUMPDEST PUSH0 DUP2 GT PUSH2 0x229 JUMPI PUSH1 0x40 MLOAD PUSH3 0x461BCD PUSH1 0xE5 SHL DUP2 MSTORE PUSH1 0x20 PUSH1 0x4 DUP3 ADD MSTORE PUSH1 0x1D PUSH1 0x24 DUP3 ADD MSTORE PUSH32 0x416D6F756E74206D7573742062652067726561746572207468616E2030000000 PUSH1 0x44 DUP3 ADD MSTORE PUSH1 0x64 ADD PUSH2 0x184 JUMP JUMPDEST PUSH1 0x1 SLOAD PUSH1 0x40 MLOAD PUSH4 0x23B872DD PUSH1 0xE0 SHL DUP2 MSTORE PUSH1 0x1 PUSH1 0x1 PUSH1 0xA0 SHL SUB DUP5 DUP2 AND PUSH1 0x4 DUP4 ADD MSTORE ADDRESS PUSH1 0x24 DUP4 ADD MSTORE PUSH1 0x44 DUP3 ADD DUP5 SWAP1 MSTORE SWAP1 SWAP2 AND SWAP1 PUSH4 0x23B872DD SWAP1 PUSH1 0x64 ADD PUSH1 0x20 PUSH1 0x40 MLOAD DUP1 DUP4 SUB DUP2 PUSH0 DUP8 GAS CALL ISZERO DUP1 ISZERO PUSH2 0x27F JUMPI RETURNDATASIZE PUSH0 PUSH0 RETURNDATACOPY RETURNDATASIZE PUSH0 REVERT JUMPDEST POP POP POP POP PUSH1 0x40 MLOAD RETURNDATASIZE PUSH1 0x1F NOT PUSH1 0x1F DUP3 ADD AND DUP3 ADD DUP1 PUSH1 0x40 MSTORE POP DUP2 ADD SWAP1 PUSH2 0x2A3 SWAP2 SWAP1 PUSH2 0x699 JUMP JUMPDEST PUSH2 0x2E1 JUMPI PUSH1 0x40 MLOAD PUSH3 0x461BCD PUSH1 0xE5 SHL DUP2 MSTORE PUSH1 0x20 PUSH1 0x4 DUP3 ADD MSTORE PUSH1 0xF PUSH1 0x24 DUP3 ADD MSTORE PUSH15 0x151C985B9CD9995C8819985A5B1959 PUSH1 0x8A SHL PUSH1 0x44 DUP3 ADD MSTORE PUSH1 0x64 ADD PUSH2 0x184 JUMP JUMPDEST PUSH1 0x1 PUSH1 0x1 PUSH1 0xA0 SHL SUB DUP3 AND PUSH0 SWAP1 DUP2 MSTORE PUSH1 0x3 PUSH1 0x20 MSTORE PUSH1 0x40 DUP2 KECCAK256 DUP1 SLOAD DUP4 SWAP3 SWAP1 PUSH2 0x308 SWAP1 DUP5 SWAP1 PUSH2 0x6B8 JUMP JUMPDEST SWAP1 SWAP2 SSTORE POP POP PUSH1 0x2 SLOAD PUSH2 0x31A SWAP1 TIMESTAMP PUSH2 0x6B8 JUMP JUMPDEST PUSH1 0x1 PUSH1 0x1 PUSH1 0xA0 SHL SUB DUP4 AND PUSH0 DUP2 DUP2 MSTORE PUSH1 0x4 PUSH1 0x20 MSTORE PUSH1 0x40 SWAP1 DUP2 SWAP1 KECCAK256 DUP4 SWAP1 SSTORE MLOAD SWAP1 SWAP2 PUSH32 0xD741E738A23FD18A03A26522320D9FC6CAC1FED483E215EA9150FBC2FC43385D SWAP2 PUSH2 0x36D SWAP2 DUP6 DUP3 MSTORE PUSH1 0x20 DUP3 ADD MSTORE PUSH1 0x40 ADD SWAP1 JUMP JUMPDEST PUSH1 0x40 MLOAD DUP1 SWAP2 SUB SWAP1 LOG2 POP POP JUMP JUMPDEST PUSH0 SLOAD PUSH1 0x1 PUSH1 0x1 PUSH1 0xA0 SHL SUB AND CALLER EQ PUSH2 0x3A2 JUMPI PUSH1 0x40 MLOAD PUSH3 0x461BCD PUSH1 0xE5 SHL DUP2 MSTORE PUSH1 0x4 ADD PUSH2 0x184 SWAP1 PUSH2 0x678 JUMP JUMPDEST PUSH1 0x1 PUSH1 0x1 PUSH1 0xA0 SHL SUB DUP2 AND PUSH0 SWAP1 DUP2 MSTORE PUSH1 0x4 PUSH1 0x20 MSTORE PUSH1 0x40 SWAP1 KECCAK256 SLOAD DUP2 SWAP1 TIMESTAMP LT ISZERO PUSH2 0x40B JUMPI PUSH1 0x40 MLOAD PUSH3 0x461BCD PUSH1 0xE5 SHL DUP2 MSTORE PUSH1 0x20 PUSH1 0x4 DUP3 ADD MSTORE PUSH1 0x17 PUSH1 0x24 DUP3 ADD MSTORE PUSH32 0x546F6B656E7320617265207374696C6C206C6F636B6564000000000000000000 PUSH1 0x44 DUP3 ADD MSTORE PUSH1 0x64 ADD PUSH2 0x184 JUMP JUMPDEST PUSH1 0x1 PUSH1 0x1 PUSH1 0xA0 SHL SUB DUP3 AND PUSH0 SWAP1 DUP2 MSTORE PUSH1 0x3 PUSH1 0x20 MSTORE PUSH1 0x40 SWAP1 KECCAK256 SLOAD DUP1 PUSH2 0x466 JUMPI PUSH1 0x40 MLOAD PUSH3 0x461BCD PUSH1 0xE5 SHL DUP2 MSTORE PUSH1 0x20 PUSH1 0x4 DUP3 ADD MSTORE PUSH1 0x13 PUSH1 0x24 DUP3 ADD MSTORE PUSH19 0x4E6F20746F6B656E7320746F20756E6C6F636B PUSH1 0x68 SHL PUSH1 0x44 DUP3 ADD MSTORE PUSH1 0x64 ADD PUSH2 0x184 JUMP JUMPDEST PUSH1 0x1 PUSH1 0x1 PUSH1 0xA0 SHL SUB DUP4 DUP2 AND PUSH0 DUP2 DUP2 MSTORE PUSH1 0x3 PUSH1 0x20 SWAP1 DUP2 MSTORE PUSH1 0x40 DUP1 DUP4 KECCAK256 DUP4 SWAP1 SSTORE PUSH1 0x4 SWAP2 DUP3 SWAP1 MSTORE DUP1 DUP4 KECCAK256 SWAP3 SWAP1 SWAP3 SSTORE PUSH1 0x1 SLOAD SWAP2 MLOAD PUSH4 0xA9059CBB PUSH1 0xE0 SHL DUP2 MSTORE SWAP1 DUP2 ADD SWAP3 SWAP1 SWAP3 MSTORE PUSH1 0x24 DUP3 ADD DUP5 SWAP1 MSTORE SWAP1 SWAP2 AND SWAP1 PUSH4 0xA9059CBB SWAP1 PUSH1 0x44 ADD PUSH1 0x20 PUSH1 0x40 MLOAD DUP1 DUP4 SUB DUP2 PUSH0 DUP8 GAS CALL ISZERO DUP1 ISZERO PUSH2 0x4D7 JUMPI RETURNDATASIZE PUSH0 PUSH0 RETURNDATACOPY RETURNDATASIZE PUSH0 REVERT JUMPDEST POP POP POP POP PUSH1 0x40 MLOAD RETURNDATASIZE PUSH1 0x1F NOT PUSH1 0x1F DUP3 ADD AND DUP3 ADD DUP1 PUSH1 0x40 MSTORE POP DUP2 ADD SWAP1 PUSH2 0x4FB SWAP2 SWAP1 PUSH2 0x699 JUMP JUMPDEST PUSH2 0x539 JUMPI PUSH1 0x40 MLOAD PUSH3 0x461BCD PUSH1 0xE5 SHL DUP2 MSTORE PUSH1 0x20 PUSH1 0x4 DUP3 ADD MSTORE PUSH1 0xF PUSH1 0x24 DUP3 ADD MSTORE PUSH15 0x151C985B9CD9995C8819985A5B1959 PUSH1 0x8A SHL PUSH1 0x44 DUP3 ADD MSTORE PUSH1 0x64 ADD PUSH2 0x184 JUMP JUMPDEST DUP3 PUSH1 0x1 PUSH1 0x1 PUSH1 0xA0 SHL SUB AND PUSH32 0xE7B379C6C1FA169E9079C25E9143B127637EEF8EC8C9D5C06DDB4AB3E1195888 DUP3 PUSH1 0x40 MLOAD PUSH2 0x574 SWAP2 DUP2 MSTORE PUSH1 0x20 ADD SWAP1 JUMP JUMPDEST PUSH1 0x40 MLOAD DUP1 SWAP2 SUB SWAP1 LOG2 POP POP POP JUMP JUMPDEST PUSH0 SLOAD PUSH1 0x1 PUSH1 0x1 PUSH1 0xA0 SHL SUB AND CALLER EQ PUSH2 0x5AA JUMPI PUSH1 0x40 MLOAD PUSH3 0x461BCD PUSH1 0xE5 SHL DUP2 MSTORE PUSH1 0x4 ADD PUSH2 0x184 SWAP1 PUSH2 0x678 JUMP JUMPDEST PUSH0 DUP2 GT PUSH2 0x5F9 JUMPI PUSH1 0x40 MLOAD PUSH3 0x461BCD PUSH1 0xE5 SHL DUP2 MSTORE PUSH1 0x20 PUSH1 0x4 DUP3 ADD MSTORE PUSH1 0x19 PUSH1 0x24 DUP3 ADD MSTORE PUSH32 0x4475726174696F6E206D75737420626520706F73697469766500000000000000 PUSH1 0x44 DUP3 ADD MSTORE PUSH1 0x64 ADD PUSH2 0x184 JUMP JUMPDEST PUSH1 0x2 SSTORE JUMP JUMPDEST DUP1 CALLDATALOAD PUSH1 0x1 PUSH1 0x1 PUSH1 0xA0 SHL SUB DUP2 AND DUP2 EQ PUSH2 0x614 JUMPI PUSH0 PUSH0 REVERT JUMPDEST SWAP2 SWAP1 POP JUMP JUMPDEST PUSH0 PUSH1 0x20 DUP3 DUP5 SUB SLT ISZERO PUSH2 0x629 JUMPI PUSH0 PUSH0 REVERT JUMPDEST PUSH2 0x632 DUP3 PUSH2 0x5FE JUMP JUMPDEST SWAP4 SWAP3 POP POP POP JUMP JUMPDEST PUSH0 PUSH0 PUSH1 0x40 DUP4 DUP6 SUB SLT ISZERO PUSH2 0x64A JUMPI PUSH0 PUSH0 REVERT JUMPDEST PUSH2 0x653 DUP4 PUSH2 0x5FE JUMP JUMPDEST SWAP5 PUSH1 0x20 SWAP4 SWAP1 SWAP4 ADD CALLDATALOAD SWAP4 POP POP POP JUMP JUMPDEST PUSH0 PUSH1 0x20 DUP3 DUP5 SUB SLT ISZERO PUSH2 0x671 JUMPI PUSH0 PUSH0 REVERT JUMPDEST POP CALLDATALOAD SWAP2 SWAP1 POP JUMP JUMPDEST PUSH1 0x20 DUP1 DUP3 MSTORE PUSH1 0x7 SWAP1 DUP3 ADD MSTORE PUSH7 0x4E6F742044414F PUSH1 0xC8 SHL PUSH1 0x40 DUP3 ADD MSTORE PUSH1 0x60 ADD SWAP1 JUMP JUMPDEST PUSH0 PUSH1 0x20 DUP3 DUP5 SUB SLT ISZERO PUSH2 0x6A9 JUMPI PUSH0 PUSH0 REVERT JUMPDEST DUP2 MLOAD DUP1 ISZERO ISZERO DUP2 EQ PUSH2 0x632 JUMPI PUSH0 PUSH0 REVERT JUMPDEST DUP1 DUP3 ADD DUP1 DUP3 GT ISZERO PUSH2 0x6D7 JUMPI PUSH4 0x4E487B71 PUSH1 0xE0 SHL PUSH0 MSTORE PUSH1 0x11 PUSH1 0x4 MSTORE PUSH1 0x24 PUSH0 REVERT JUMPDEST SWAP3 SWAP2 POP POP JUMP INVALID LOG2 PUSH5 0x6970667358 0x22 SLT KECCAK256 STOP PUSH27 0x55296CA2CACE7B0EA45F09D169D9360AA91F8F829C7D43A22194A 0xE9 0xA5 DUPN 0x64 PUSH20 0x6F6C634300081D00330000000000000000000000 "
				},
				"gasEstimates": {
					"creation": {
						"codeDepositCost": "362200",
						"executionCost": "infinite",
						"totalCost": "infinite"
					},
					"external": {
						"governanceContract()": "2402",
						"lockDuration()": "2284",
						"lockTokens(address,uint256)": "infinite",
						"lockedTokens(address)": "2528",
						"token()": "2402",
						"unlockTime(address)": "2550",
						"unlockTokens(address)": "infinite",
						"updateLockDuration(uint256)": "24527"
					}
				},
				"methodIdentifiers": {
					"governanceContract()": "b172b222",
					"lockDuration()": "04554443",
					"lockTokens(address,uint256)": "b1c25586",
					"lockedTokens(address)": "5eb7413a",
					"token()": "fc0c546a",
					"unlockTime(address)": "76b467b7",
					"unlockTokens(address)": "cb67f948",
					"updateLockDuration(uint256)": "d477edf4"
				}
			},
			"storageLayout": {
				"storage": [
					{
						"astId": 24,
						"contract": "contracts/TimelockVault.sol:TimelockVault",
						"label": "governanceContract",
						"offset": 0,
						"slot": "0",
						"type": "t_address"
					},
					{
						"astId": 26,
						"contract": "contracts/TimelockVault.sol:TimelockVault",
						"label": "token",
						"offset": 0,
						"slot": "1",
						"type": "t_address"
					},
					{
						"astId": 28,
						"contract": "contracts/TimelockVault.sol:TimelockVault",
						"label": "lockDuration",
						"offset": 0,
						"slot": "2",
						"type": "t_uint256"
					},
					{
						"astId": 32,
						"contract": "contracts/TimelockVault.sol:TimelockVault",
						"label": "lockedTokens",
						"offset": 0,
						"slot": "3",
						"type": "t_mapping(t_address,t_uint256)"
					},
					{
						"astId": 36,
						"contract": "contracts/TimelockVault.sol:TimelockVault",
						"label": "unlockTime",
						"offset": 0,
						"slot": "4",
						"type": "t_mapping(t_address,t_uint256)"
					}
				],
				"types": {
					"t_address": {
						"encoding": "inplace",
						"label": "address",
						"numberOfBytes": "20"
					},
					"t_mapping(t_address,t_uint256)": {
						"encoding": "mapping",
						"key": "t_address",
						"label": "mapping(address => uint256)",
						"numberOfBytes": "32",
						"value": "t_uint256"
					},
					"t_uint256": {
						"encoding": "inplace",
						"label": "uint256",
						"numberOfBytes": "32"
					}
				}
			},
			"userdoc": {
				"kind": "user",
				"methods": {},
				"version": 1
			}
		}
	}
}