{
	"contracts/NFTSTaking.sol": {
		"NFTStaking": {
			"abi": [
				{
					"inputs": [
						{
							"internalType": "address",
							"name": "_nftAddress",
							"type": "address"
						},
						{
							"internalType": "address",
							"name": "_rhemToken",
							"type": "address"
						},
						{
							"internalType": "address",
							"name": "_dao",
							"type": "address"
						},
						{
							"internalType": "uint256",
							"name": "_rewardRatePerSecond",
							"type": "uint256"
						},
						{
							"internalType": "uint256",
							"name": "_minimumStakeDuration",
							"type": "uint256"
						}
					],
					"stateMutability": "nonpayable",
					"type": "constructor"
				},
				{
					"anonymous": false,
					"inputs": [
						{
							"indexed": false,
							"internalType": "uint256",
							"name": "duration",
							"type": "uint256"
						}
					],
					"name": "MinimumDurationUpdated",
					"type": "event"
				},
				{
					"anonymous": false,
					"inputs": [
						{
							"indexed": false,
							"internalType": "uint256",
							"name": "newRate",
							"type": "uint256"
						}
					],
					"name": "RewardRateUpdated",
					"type": "event"
				},
				{
					"anonymous": false,
					"inputs": [
						{
							"indexed": true,
							"internalType": "address",
							"name": "user",
							"type": "address"
						},
						{
							"indexed": false,
							"internalType": "uint256",
							"name": "tokenId",
							"type": "uint256"
						}
					],
					"name": "Staked",
					"type": "event"
				},
				{
					"anonymous": false,
					"inputs": [
						{
							"indexed": true,
							"internalType": "address",
							"name": "user",
							"type": "address"
						},
						{
							"indexed": false,
							"internalType": "uint256",
							"name": "tokenId",
							"type": "uint256"
						},
						{
							"indexed": false,
							"internalType": "uint256",
							"name": "reward",
							"type": "uint256"
						}
					],
					"name": "Unstaked",
					"type": "event"
				},
				{
					"inputs": [],
					"name": "dao",
					"outputs": [
						{
							"internalType": "address",
							"name": "",
							"type": "address"
						}
					],
					"stateMutability": "view",
					"type": "function"
				},
				{
					"inputs": [
						{
							"internalType": "address",
							"name": "user",
							"type": "address"
						}
					],
					"name": "getStakedTokens",
					"outputs": [
						{
							"internalType": "uint256[]",
							"name": "",
							"type": "uint256[]"
						}
					],
					"stateMutability": "view",
					"type": "function"
				},
				{
					"inputs": [
						{
							"internalType": "uint256",
							"name": "tokenId",
							"type": "uint256"
						}
					],
					"name": "isTokenStaked",
					"outputs": [
						{
							"internalType": "bool",
							"name": "",
							"type": "bool"
						}
					],
					"stateMutability": "view",
					"type": "function"
				},
				{
					"inputs": [],
					"name": "minimumStakeDuration",
					"outputs": [
						{
							"internalType": "uint256",
							"name": "",
							"type": "uint256"
						}
					],
					"stateMutability": "view",
					"type": "function"
				},
				{
					"inputs": [],
					"name": "nftAddress",
					"outputs": [
						{
							"internalType": "address",
							"name": "",
							"type": "address"
						}
					],
					"stateMutability": "view",
					"type": "function"
				},
				{
					"inputs": [
						{
							"internalType": "uint256",
							"name": "tokenId",
							"type": "uint256"
						}
					],
					"name": "pendingReward",
					"outputs": [
						{
							"internalType": "uint256",
							"name": "",
							"type": "uint256"
						}
					],
					"stateMutability": "view",
					"type": "function"
				},
				{
					"inputs": [],
					"name": "rewardRatePerSecond",
					"outputs": [
						{
							"internalType": "uint256",
							"name": "",
							"type": "uint256"
						}
					],
					"stateMutability": "view",
					"type": "function"
				},
				{
					"inputs": [],
					"name": "rhemToken",
					"outputs": [
						{
							"internalType": "address",
							"name": "",
							"type": "address"
						}
					],
					"stateMutability": "view",
					"type": "function"
				},
				{
					"inputs": [
						{
							"internalType": "uint256",
							"name": "tokenId",
							"type": "uint256"
						}
					],
					"name": "stake",
					"outputs": [],
					"stateMutability": "nonpayable",
					"type": "function"
				},
				{
					"inputs": [
						{
							"internalType": "uint256",
							"name": "",
							"type": "uint256"
						}
					],
					"name": "stakes",
					"outputs": [
						{
							"internalType": "address",
							"name": "staker",
							"type": "address"
						},
						{
							"internalType": "uint256",
							"name": "tokenId",
							"type": "uint256"
						},
						{
							"internalType": "uint256",
							"name": "startTime",
							"type": "uint256"
						},
						{
							"internalType": "bool",
							"name": "active",
							"type": "bool"
						}
					],
					"stateMutability": "view",
					"type": "function"
				},
				{
					"inputs": [
						{
							"internalType": "uint256",
							"name": "tokenId",
							"type": "uint256"
						}
					],
					"name": "unstake",
					"outputs": [],
					"stateMutability": "nonpayable",
					"type": "function"
				},
				{
					"inputs": [
						{
							"internalType": "uint256",
							"name": "duration",
							"type": "uint256"
						}
					],
					"name": "updateMinimumDuration",
					"outputs": [],
					"stateMutability": "nonpayable",
					"type": "function"
				},
				{
					"inputs": [
						{
							"internalType": "uint256",
							"name": "newRate",
							"type": "uint256"
						}
					],
					"name": "updateRewardRate",
					"outputs": [],
					"stateMutability": "nonpayable",
					"type": "function"
				},
				{
					"inputs": [
						{
							"internalType": "address",
							"name": "",
							"type": "address"
						},
						{
							"internalType": "uint256",
							"name": "",
							"type": "uint256"
						}
					],
					"name": "userStakes",
					"outputs": [
						{
							"internalType": "uint256",
							"name": "",
							"type": "uint256"
						}
					],
					"stateMutability": "view",
					"type": "function"
				}
			],
			"devdoc": {
				"kind": "dev",
				"methods": {},
				"version": 1
			},
			"evm": {
				"assembly": "    /* \"contracts/NFTSTaking.sol\":589:4103  contract NFTStaking {... */\n  mstore(0x40, 0x80)\n    /* \"contracts/NFTSTaking.sol\":1448:2007  constructor(... */\n  callvalue\n  dup1\n  iszero\n  tag_1\n  jumpi\n  revert(0x00, 0x00)\ntag_1:\n  pop\n  mload(0x40)\n  sub(codesize, bytecodeSize)\n  dup1\n  bytecodeSize\n  dup4\n  codecopy\n  dup2\n  add\n  0x40\n  dup2\n  swap1\n  mstore\n  tag_2\n  swap2\n  tag_3\n  jump\t// in\ntag_2:\n  sub(shl(0xa0, 0x01), 0x01)\n    /* \"contracts/NFTSTaking.sol\":1647:1672  _nftAddress != address(0) */\n  dup6\n  and\n    /* \"contracts/NFTSTaking.sol\":1639:1688  require(_nftAddress != address(0), \"Invalid NFT\") */\n  tag_6\n  jumpi\n  mload(0x40)\n  shl(0xe5, 0x461bcd)\n  dup2\n  mstore\n    /* \"#utility.yul\":1003:1005   */\n  0x20\n    /* \"contracts/NFTSTaking.sol\":1639:1688  require(_nftAddress != address(0), \"Invalid NFT\") */\n  0x04\n  dup3\n  add\n    /* \"#utility.yul\":985:1006   */\n  mstore\n    /* \"#utility.yul\":1042:1044   */\n  0x0b\n    /* \"#utility.yul\":1022:1040   */\n  0x24\n  dup3\n  add\n    /* \"#utility.yul\":1015:1045   */\n  mstore\n  shl(0xaa, 0x125b9d985b1a5908139195)\n    /* \"#utility.yul\":1061:1079   */\n  0x44\n  dup3\n  add\n    /* \"#utility.yul\":1054:1095   */\n  mstore\n    /* \"#utility.yul\":1112:1130   */\n  0x64\n  add\n    /* \"contracts/NFTSTaking.sol\":1639:1688  require(_nftAddress != address(0), \"Invalid NFT\") */\ntag_7:\n  mload(0x40)\n  dup1\n  swap2\n  sub\n  swap1\n  revert\ntag_6:\n  sub(shl(0xa0, 0x01), 0x01)\n    /* \"contracts/NFTSTaking.sol\":1707:1731  _rhemToken != address(0) */\n  dup5\n  and\n    /* \"contracts/NFTSTaking.sol\":1699:1749  require(_rhemToken != address(0), \"Invalid token\") */\n  tag_9\n  jumpi\n  mload(0x40)\n  shl(0xe5, 0x461bcd)\n  dup2\n  mstore\n    /* \"#utility.yul\":1343:1345   */\n  0x20\n    /* \"contracts/NFTSTaking.sol\":1699:1749  require(_rhemToken != address(0), \"Invalid token\") */\n  0x04\n  dup3\n  add\n    /* \"#utility.yul\":1325:1346   */\n  mstore\n    /* \"#utility.yul\":1382:1384   */\n  0x0d\n    /* \"#utility.yul\":1362:1380   */\n  0x24\n  dup3\n  add\n    /* \"#utility.yul\":1355:1385   */\n  mstore\n  shl(0x99, 0x24b73b30b634b2103a37b5b2b7)\n    /* \"#utility.yul\":1401:1419   */\n  0x44\n  dup3\n  add\n    /* \"#utility.yul\":1394:1437   */\n  mstore\n    /* \"#utility.yul\":1454:1472   */\n  0x64\n  add\n    /* \"contracts/NFTSTaking.sol\":1699:1749  require(_rhemToken != address(0), \"Invalid token\") */\n  tag_7\n    /* \"#utility.yul\":1141:1478   */\n  jump\n    /* \"contracts/NFTSTaking.sol\":1699:1749  require(_rhemToken != address(0), \"Invalid token\") */\ntag_9:\n  sub(shl(0xa0, 0x01), 0x01)\n    /* \"contracts/NFTSTaking.sol\":1768:1786  _dao != address(0) */\n  dup4\n  and\n    /* \"contracts/NFTSTaking.sol\":1760:1802  require(_dao != address(0), \"Invalid DAO\") */\n  tag_12\n  jumpi\n  mload(0x40)\n  shl(0xe5, 0x461bcd)\n  dup2\n  mstore\n    /* \"#utility.yul\":1685:1687   */\n  0x20\n    /* \"contracts/NFTSTaking.sol\":1760:1802  require(_dao != address(0), \"Invalid DAO\") */\n  0x04\n  dup3\n  add\n    /* \"#utility.yul\":1667:1688   */\n  mstore\n    /* \"#utility.yul\":1724:1726   */\n  0x0b\n    /* \"#utility.yul\":1704:1722   */\n  0x24\n  dup3\n  add\n    /* \"#utility.yul\":1697:1727   */\n  mstore\n  shl(0xa8, 0x496e76616c69642044414f)\n    /* \"#utility.yul\":1743:1761   */\n  0x44\n  dup3\n  add\n    /* \"#utility.yul\":1736:1777   */\n  mstore\n    /* \"#utility.yul\":1794:1812   */\n  0x64\n  add\n    /* \"contracts/NFTSTaking.sol\":1760:1802  require(_dao != address(0), \"Invalid DAO\") */\n  tag_7\n    /* \"#utility.yul\":1483:1818   */\n  jump\n    /* \"contracts/NFTSTaking.sol\":1760:1802  require(_dao != address(0), \"Invalid DAO\") */\ntag_12:\n    /* \"contracts/NFTSTaking.sol\":1813:1823  nftAddress */\n  0x01\n    /* \"contracts/NFTSTaking.sol\":1813:1837  nftAddress = _nftAddress */\n  dup1\n  sload\n  not(sub(shl(0xa0, 0x01), 0x01))\n  swap1\n  dup2\n  and\n  sub(shl(0xa0, 0x01), 0x01)\n  swap8\n  dup9\n  and\n  or\n  swap1\n  swap2\n  sstore\n    /* \"contracts/NFTSTaking.sol\":1848:1857  rhemToken */\n  0x02\n    /* \"contracts/NFTSTaking.sol\":1848:1870  rhemToken = _rhemToken */\n  dup1\n  sload\n  dup3\n  and\n  swap6\n  dup8\n  and\n  swap6\n  swap1\n  swap6\n  or\n  swap1\n  swap5\n  sstore\n  0x00\n    /* \"contracts/NFTSTaking.sol\":1881:1891  dao = _dao */\n  dup1\n  sload\n  swap1\n  swap5\n  and\n  swap3\n  swap1\n  swap5\n  and\n  swap2\n  swap1\n  swap2\n  or\n  swap1\n  swap2\n  sstore\n    /* \"contracts/NFTSTaking.sol\":1902:1921  rewardRatePerSecond */\n  0x03\n    /* \"contracts/NFTSTaking.sol\":1902:1944  rewardRatePerSecond = _rewardRatePerSecond */\n  sstore\n    /* \"contracts/NFTSTaking.sol\":1955:1975  minimumStakeDuration */\n  0x04\n    /* \"contracts/NFTSTaking.sol\":1955:1999  minimumStakeDuration = _minimumStakeDuration */\n  sstore\n    /* \"contracts/NFTSTaking.sol\":589:4103  contract NFTStaking {... */\n  jump(tag_17)\n    /* \"#utility.yul\":14:191   */\ntag_16:\n    /* \"#utility.yul\":93:106   */\n  dup1\n  mload\n  sub(shl(0xa0, 0x01), 0x01)\n    /* \"#utility.yul\":135:166   */\n  dup2\n  and\n    /* \"#utility.yul\":125:167   */\n  dup2\n  eq\n    /* \"#utility.yul\":115:185   */\n  tag_19\n  jumpi\n    /* \"#utility.yul\":181:182   */\n  0x00\n    /* \"#utility.yul\":178:179   */\n  0x00\n    /* \"#utility.yul\":171:183   */\n  revert\n    /* \"#utility.yul\":115:185   */\ntag_19:\n    /* \"#utility.yul\":14:191   */\n  swap2\n  swap1\n  pop\n  jump\t// out\n    /* \"#utility.yul\":196:796   */\ntag_3:\n    /* \"#utility.yul\":302:308   */\n  0x00\n    /* \"#utility.yul\":310:316   */\n  0x00\n    /* \"#utility.yul\":318:324   */\n  0x00\n    /* \"#utility.yul\":326:332   */\n  0x00\n    /* \"#utility.yul\":334:340   */\n  0x00\n    /* \"#utility.yul\":387:390   */\n  0xa0\n    /* \"#utility.yul\":375:384   */\n  dup7\n    /* \"#utility.yul\":366:373   */\n  dup9\n    /* \"#utility.yul\":362:385   */\n  sub\n    /* \"#utility.yul\":358:391   */\n  slt\n    /* \"#utility.yul\":355:408   */\n  iszero\n  tag_21\n  jumpi\n    /* \"#utility.yul\":404:405   */\n  0x00\n    /* \"#utility.yul\":401:402   */\n  0x00\n    /* \"#utility.yul\":394:406   */\n  revert\n    /* \"#utility.yul\":355:408   */\ntag_21:\n    /* \"#utility.yul\":427:467   */\n  tag_22\n    /* \"#utility.yul\":457:466   */\n  dup7\n    /* \"#utility.yul\":427:467   */\n  tag_16\n  jump\t// in\ntag_22:\n    /* \"#utility.yul\":417:467   */\n  swap5\n  pop\n    /* \"#utility.yul\":486:535   */\n  tag_23\n    /* \"#utility.yul\":531:533   */\n  0x20\n    /* \"#utility.yul\":520:529   */\n  dup8\n    /* \"#utility.yul\":516:534   */\n  add\n    /* \"#utility.yul\":486:535   */\n  tag_16\n  jump\t// in\ntag_23:\n    /* \"#utility.yul\":476:535   */\n  swap4\n  pop\n    /* \"#utility.yul\":554:603   */\n  tag_24\n    /* \"#utility.yul\":599:601   */\n  0x40\n    /* \"#utility.yul\":588:597   */\n  dup8\n    /* \"#utility.yul\":584:602   */\n  add\n    /* \"#utility.yul\":554:603   */\n  tag_16\n  jump\t// in\ntag_24:\n    /* \"#utility.yul\":665:667   */\n  0x60\n    /* \"#utility.yul\":650:668   */\n  dup8\n  add\n    /* \"#utility.yul\":644:669   */\n  mload\n    /* \"#utility.yul\":759:762   */\n  0x80\n    /* \"#utility.yul\":744:763   */\n  swap1\n  swap8\n  add\n    /* \"#utility.yul\":738:764   */\n  mload\n    /* \"#utility.yul\":196:796   */\n  swap6\n  swap9\n  swap5\n  swap8\n  pop\n    /* \"#utility.yul\":544:603   */\n  swap6\n    /* \"#utility.yul\":644:669   */\n  swap5\n    /* \"#utility.yul\":738:764   */\n  swap4\n    /* \"#utility.yul\":196:796   */\n  swap3\n  pop\n  pop\n  pop\n  jump\t// out\n    /* \"#utility.yul\":1483:1818   */\ntag_17:\n    /* \"contracts/NFTSTaking.sol\":589:4103  contract NFTStaking {... */\n  dataSize(sub_0)\n  dup1\n  dataOffset(sub_0)\n  0x00\n  codecopy\n  0x00\n  return\nstop\n\nsub_0: assembly {\n        /* \"contracts/NFTSTaking.sol\":589:4103  contract NFTStaking {... */\n      mstore(0x40, 0x80)\n      callvalue\n      dup1\n      iszero\n      tag_1\n      jumpi\n      revert(0x00, 0x00)\n    tag_1:\n      pop\n      jumpi(tag_2, lt(calldatasize, 0x04))\n      shr(0xe0, calldataload(0x00))\n      dup1\n      0xa694fc3a\n      gt\n      tag_17\n      jumpi\n      dup1\n      0xb5d5b5fa\n      gt\n      tag_18\n      jumpi\n      dup1\n      0xb5d5b5fa\n      eq\n      tag_13\n      jumpi\n      dup1\n      0xd5a44f86\n      eq\n      tag_14\n      jumpi\n      dup1\n      0xdec7559f\n      eq\n      tag_15\n      jumpi\n      dup1\n      0xf0a52424\n      eq\n      tag_16\n      jumpi\n      revert(0x00, 0x00)\n    tag_18:\n      dup1\n      0xa694fc3a\n      eq\n      tag_10\n      jumpi\n      dup1\n      0xa6d74512\n      eq\n      tag_11\n      jumpi\n      dup1\n      0xa8bd7300\n      eq\n      tag_12\n      jumpi\n      revert(0x00, 0x00)\n    tag_17:\n      dup1\n      0x5bf8633a\n      gt\n      tag_19\n      jumpi\n      dup1\n      0x5bf8633a\n      eq\n      tag_6\n      jumpi\n      dup1\n      0x5d773b2c\n      eq\n      tag_7\n      jumpi\n      dup1\n      0x63c28db1\n      eq\n      tag_8\n      jumpi\n      dup1\n      0x9ef3a261\n      eq\n      tag_9\n      jumpi\n      revert(0x00, 0x00)\n    tag_19:\n      dup1\n      0x12f7086c\n      eq\n      tag_3\n      jumpi\n      dup1\n      0x2e17de78\n      eq\n      tag_4\n      jumpi\n      dup1\n      0x4162169f\n      eq\n      tag_5\n      jumpi\n    tag_2:\n      revert(0x00, 0x00)\n        /* \"contracts/NFTSTaking.sol\":3844:4100  function pendingReward(uint256 tokenId) external view returns (uint256) {... */\n    tag_3:\n      tag_20\n      tag_21\n      calldatasize\n      0x04\n      tag_22\n      jump\t// in\n    tag_21:\n      tag_23\n      jump\t// in\n    tag_20:\n      mload(0x40)\n        /* \"#utility.yul\":391:416   */\n      swap1\n      dup2\n      mstore\n        /* \"#utility.yul\":379:381   */\n      0x20\n        /* \"#utility.yul\":364:382   */\n      add\n        /* \"contracts/NFTSTaking.sol\":3844:4100  function pendingReward(uint256 tokenId) external view returns (uint256) {... */\n    tag_24:\n      mload(0x40)\n      dup1\n      swap2\n      sub\n      swap1\n      return\n        /* \"contracts/NFTSTaking.sol\":2517:3251  function unstake(uint256 tokenId) external {... */\n    tag_4:\n      tag_26\n      tag_27\n      calldatasize\n      0x04\n      tag_22\n      jump\t// in\n    tag_27:\n      tag_28\n      jump\t// in\n    tag_26:\n      stop\n        /* \"contracts/NFTSTaking.sol\":616:634  address public dao */\n    tag_5:\n      sload(0x00)\n      tag_29\n      swap1\n      sub(shl(0xa0, 0x01), 0x01)\n      and\n      dup2\n      jump\n    tag_29:\n      mload(0x40)\n      sub(shl(0xa0, 0x01), 0x01)\n        /* \"#utility.yul\":591:623   */\n      swap1\n      swap2\n      and\n        /* \"#utility.yul\":573:624   */\n      dup2\n      mstore\n        /* \"#utility.yul\":561:563   */\n      0x20\n        /* \"#utility.yul\":546:564   */\n      add\n        /* \"contracts/NFTSTaking.sol\":616:634  address public dao */\n      tag_24\n        /* \"#utility.yul\":427:630   */\n      jump\n        /* \"contracts/NFTSTaking.sol\":641:666  address public nftAddress */\n    tag_6:\n      sload(0x01)\n      tag_29\n      swap1\n      sub(shl(0xa0, 0x01), 0x01)\n      and\n      dup2\n      jump\n        /* \"contracts/NFTSTaking.sol\":706:740  uint256 public rewardRatePerSecond */\n    tag_7:\n      tag_20\n      sload(0x03)\n      dup2\n      jump\n        /* \"contracts/NFTSTaking.sol\":3259:3381  function getStakedTokens(address user) external view returns (uint256[] memory) {... */\n    tag_8:\n      tag_39\n      tag_40\n      calldatasize\n      0x04\n      tag_41\n      jump\t// in\n    tag_40:\n      tag_42\n      jump\t// in\n    tag_39:\n      mload(0x40)\n      tag_24\n      swap2\n      swap1\n      tag_44\n      jump\t// in\n        /* \"contracts/NFTSTaking.sol\":3389:3539  function updateRewardRate(uint256 newRate) external onlyDAO {... */\n    tag_9:\n      tag_26\n      tag_46\n      calldatasize\n      0x04\n      tag_22\n      jump\t// in\n    tag_46:\n      tag_47\n      jump\t// in\n        /* \"contracts/NFTSTaking.sol\":2015:2509  function stake(uint256 tokenId) external {... */\n    tag_10:\n      tag_26\n      tag_49\n      calldatasize\n      0x04\n      tag_22\n      jump\t// in\n    tag_49:\n      tag_50\n      jump\t// in\n        /* \"contracts/NFTSTaking.sol\":673:697  address public rhemToken */\n    tag_11:\n      sload(0x02)\n      tag_29\n      swap1\n      sub(shl(0xa0, 0x01), 0x01)\n      and\n      dup2\n      jump\n        /* \"contracts/NFTSTaking.sol\":787:822  uint256 public minimumStakeDuration */\n    tag_12:\n      tag_20\n      sload(0x04)\n      dup2\n      jump\n        /* \"contracts/NFTSTaking.sol\":1040:1087  mapping(address => uint256[]) public userStakes */\n    tag_13:\n      tag_20\n      tag_58\n      calldatasize\n      0x04\n      tag_59\n      jump\t// in\n    tag_58:\n      tag_60\n      jump\t// in\n        /* \"contracts/NFTSTaking.sol\":965:1008  mapping(uint256 => StakeInfo) public stakes */\n    tag_14:\n      tag_62\n      tag_63\n      calldatasize\n      0x04\n      tag_22\n      jump\t// in\n    tag_63:\n      mstore(0x20, 0x05)\n      0x00\n      swap1\n      dup2\n      mstore\n      0x40\n      swap1\n      keccak256\n      dup1\n      sload\n      0x01\n      dup3\n      add\n      sload\n      0x02\n      dup4\n      add\n      sload\n      0x03\n      swap1\n      swap4\n      add\n      sload\n      sub(shl(0xa0, 0x01), 0x01)\n      swap1\n      swap3\n      and\n      swap3\n      swap1\n      swap2\n      0xff\n      and\n      dup5\n      jump\n    tag_62:\n      0x40\n      dup1\n      mload\n      sub(shl(0xa0, 0x01), 0x01)\n        /* \"#utility.yul\":2254:2286   */\n      swap1\n      swap6\n      and\n        /* \"#utility.yul\":2236:2287   */\n      dup6\n      mstore\n        /* \"#utility.yul\":2318:2320   */\n      0x20\n        /* \"#utility.yul\":2303:2321   */\n      dup6\n      add\n        /* \"#utility.yul\":2296:2330   */\n      swap4\n      swap1\n      swap4\n      mstore\n        /* \"#utility.yul\":2346:2364   */\n      swap2\n      dup4\n      add\n        /* \"#utility.yul\":2339:2373   */\n      mstore\n        /* \"#utility.yul\":2416:2430   */\n      iszero\n        /* \"#utility.yul\":2409:2431   */\n      iszero\n        /* \"#utility.yul\":2404:2406   */\n      0x60\n        /* \"#utility.yul\":2389:2407   */\n      dup3\n      add\n        /* \"#utility.yul\":2382:2432   */\n      mstore\n        /* \"#utility.yul\":2223:2226   */\n      0x80\n        /* \"#utility.yul\":2208:2227   */\n      add\n        /* \"contracts/NFTSTaking.sol\":965:1008  mapping(uint256 => StakeInfo) public stakes */\n      tag_24\n        /* \"#utility.yul\":2011:2438   */\n      jump\n        /* \"contracts/NFTSTaking.sol\":3547:3711  function updateMinimumDuration(uint256 duration) external onlyDAO {... */\n    tag_15:\n      tag_26\n      tag_68\n      calldatasize\n      0x04\n      tag_22\n      jump\t// in\n    tag_68:\n      tag_69\n      jump\t// in\n        /* \"contracts/NFTSTaking.sol\":3719:3836  function isTokenStaked(uint256 tokenId) external view returns (bool) {... */\n    tag_16:\n      tag_70\n      tag_71\n      calldatasize\n      0x04\n      tag_22\n      jump\t// in\n    tag_71:\n        /* \"contracts/NFTSTaking.sol\":3782:3786  bool */\n      0x00\n        /* \"contracts/NFTSTaking.sol\":3806:3821  stakes[tokenId] */\n      swap1\n      dup2\n      mstore\n        /* \"contracts/NFTSTaking.sol\":3806:3812  stakes */\n      0x05\n        /* \"contracts/NFTSTaking.sol\":3806:3821  stakes[tokenId] */\n      0x20\n      mstore\n      0x40\n      swap1\n      keccak256\n        /* \"contracts/NFTSTaking.sol\":3806:3828  stakes[tokenId].active */\n      0x03\n      add\n      sload\n      0xff\n      and\n      swap1\n        /* \"contracts/NFTSTaking.sol\":3719:3836  function isTokenStaked(uint256 tokenId) external view returns (bool) {... */\n      jump\n    tag_70:\n      mload(0x40)\n        /* \"#utility.yul\":2608:2622   */\n      swap1\n      iszero\n        /* \"#utility.yul\":2601:2623   */\n      iszero\n        /* \"#utility.yul\":2583:2624   */\n      dup2\n      mstore\n        /* \"#utility.yul\":2571:2573   */\n      0x20\n        /* \"#utility.yul\":2556:2574   */\n      add\n        /* \"contracts/NFTSTaking.sol\":3719:3836  function isTokenStaked(uint256 tokenId) external view returns (bool) {... */\n      tag_24\n        /* \"#utility.yul\":2443:2630   */\n      jump\n        /* \"contracts/NFTSTaking.sol\":3844:4100  function pendingReward(uint256 tokenId) external view returns (uint256) {... */\n    tag_23:\n        /* \"contracts/NFTSTaking.sol\":3907:3914  uint256 */\n      0x00\n        /* \"contracts/NFTSTaking.sol\":3956:3971  stakes[tokenId] */\n      dup2\n      dup2\n      mstore\n        /* \"contracts/NFTSTaking.sol\":3956:3962  stakes */\n      0x05\n        /* \"contracts/NFTSTaking.sol\":3956:3971  stakes[tokenId] */\n      0x20\n      swap1\n      dup2\n      mstore\n      0x40\n      dup1\n      dup4\n      keccak256\n        /* \"contracts/NFTSTaking.sol\":3927:3971  StakeInfo memory stakeData = stakes[tokenId] */\n      dup2\n      mload\n      0x80\n      dup2\n      add\n      dup4\n      mstore\n      dup2\n      sload\n      sub(shl(0xa0, 0x01), 0x01)\n      and\n      dup2\n      mstore\n      0x01\n      dup3\n      add\n      sload\n      swap4\n      dup2\n      add\n      swap4\n      swap1\n      swap4\n      mstore\n      0x02\n      dup2\n      add\n      sload\n      swap2\n      dup4\n      add\n      swap2\n      swap1\n      swap2\n      mstore\n      0x03\n      add\n      sload\n      0xff\n      and\n      iszero\n      iszero\n      0x60\n      dup3\n      add\n      dup2\n      swap1\n      mstore\n        /* \"contracts/NFTSTaking.sol\":3982:4013  if (!stakeData.active) return 0 */\n      tag_76\n      jumpi\n      pop\n        /* \"contracts/NFTSTaking.sol\":4012:4013  0 */\n      0x00\n      swap3\n        /* \"contracts/NFTSTaking.sol\":3844:4100  function pendingReward(uint256 tokenId) external view returns (uint256) {... */\n      swap2\n      pop\n      pop\n      jump\t// out\n        /* \"contracts/NFTSTaking.sol\":3982:4013  if (!stakeData.active) return 0 */\n    tag_76:\n        /* \"contracts/NFTSTaking.sol\":4073:4092  rewardRatePerSecond */\n      sload(0x03)\n        /* \"contracts/NFTSTaking.sol\":4050:4069  stakeData.startTime */\n      0x40\n      dup3\n      add\n      mload\n        /* \"contracts/NFTSTaking.sol\":4032:4069  block.timestamp - stakeData.startTime */\n      tag_77\n      swap1\n        /* \"contracts/NFTSTaking.sol\":4032:4047  block.timestamp */\n      timestamp\n        /* \"contracts/NFTSTaking.sol\":4032:4069  block.timestamp - stakeData.startTime */\n      tag_78\n      jump\t// in\n    tag_77:\n        /* \"contracts/NFTSTaking.sol\":4031:4092  (block.timestamp - stakeData.startTime) * rewardRatePerSecond */\n      tag_79\n      swap2\n      swap1\n      tag_80\n      jump\t// in\n    tag_79:\n        /* \"contracts/NFTSTaking.sol\":4024:4092  return (block.timestamp - stakeData.startTime) * rewardRatePerSecond */\n      swap4\n        /* \"contracts/NFTSTaking.sol\":3844:4100  function pendingReward(uint256 tokenId) external view returns (uint256) {... */\n      swap3\n      pop\n      pop\n      pop\n      jump\t// out\n        /* \"contracts/NFTSTaking.sol\":2517:3251  function unstake(uint256 tokenId) external {... */\n    tag_28:\n        /* \"contracts/NFTSTaking.sol\":2571:2598  StakeInfo storage stakeData */\n      0x00\n        /* \"contracts/NFTSTaking.sol\":2601:2616  stakes[tokenId] */\n      dup2\n      dup2\n      mstore\n        /* \"contracts/NFTSTaking.sol\":2601:2607  stakes */\n      0x05\n        /* \"contracts/NFTSTaking.sol\":2601:2616  stakes[tokenId] */\n      0x20\n      mstore\n      0x40\n      swap1\n      keccak256\n        /* \"contracts/NFTSTaking.sol\":2635:2651  stakeData.active */\n      0x03\n      dup2\n      add\n      sload\n      0xff\n      and\n        /* \"contracts/NFTSTaking.sol\":2627:2666  require(stakeData.active, \"Not staked\") */\n      tag_82\n      jumpi\n      mload(0x40)\n      shl(0xe5, 0x461bcd)\n      dup2\n      mstore\n        /* \"#utility.yul\":3275:3277   */\n      0x20\n        /* \"contracts/NFTSTaking.sol\":2627:2666  require(stakeData.active, \"Not staked\") */\n      0x04\n      dup3\n      add\n        /* \"#utility.yul\":3257:3278   */\n      mstore\n        /* \"#utility.yul\":3314:3316   */\n      0x0a\n        /* \"#utility.yul\":3294:3312   */\n      0x24\n      dup3\n      add\n        /* \"#utility.yul\":3287:3317   */\n      mstore\n      shl(0xb2, 0x139bdd081cdd185ad959)\n        /* \"#utility.yul\":3333:3351   */\n      0x44\n      dup3\n      add\n        /* \"#utility.yul\":3326:3366   */\n      mstore\n        /* \"#utility.yul\":3383:3401   */\n      0x64\n      add\n        /* \"contracts/NFTSTaking.sol\":2627:2666  require(stakeData.active, \"Not staked\") */\n    tag_83:\n      mload(0x40)\n      dup1\n      swap2\n      sub\n      swap1\n      revert\n    tag_82:\n        /* \"contracts/NFTSTaking.sol\":2685:2701  stakeData.staker */\n      dup1\n      sload\n      sub(shl(0xa0, 0x01), 0x01)\n      and\n        /* \"contracts/NFTSTaking.sol\":2705:2715  msg.sender */\n      caller\n        /* \"contracts/NFTSTaking.sol\":2685:2715  stakeData.staker == msg.sender */\n      eq\n        /* \"contracts/NFTSTaking.sol\":2677:2730  require(stakeData.staker == msg.sender, \"Not staker\") */\n      tag_85\n      jumpi\n      mload(0x40)\n      shl(0xe5, 0x461bcd)\n      dup2\n      mstore\n        /* \"#utility.yul\":3614:3616   */\n      0x20\n        /* \"contracts/NFTSTaking.sol\":2677:2730  require(stakeData.staker == msg.sender, \"Not staker\") */\n      0x04\n      dup3\n      add\n        /* \"#utility.yul\":3596:3617   */\n      mstore\n        /* \"#utility.yul\":3653:3655   */\n      0x0a\n        /* \"#utility.yul\":3633:3651   */\n      0x24\n      dup3\n      add\n        /* \"#utility.yul\":3626:3656   */\n      mstore\n      shl(0xb1, 0x2737ba1039ba30b5b2b9)\n        /* \"#utility.yul\":3672:3690   */\n      0x44\n      dup3\n      add\n        /* \"#utility.yul\":3665:3705   */\n      mstore\n        /* \"#utility.yul\":3722:3740   */\n      0x64\n      add\n        /* \"contracts/NFTSTaking.sol\":2677:2730  require(stakeData.staker == msg.sender, \"Not staker\") */\n      tag_83\n        /* \"#utility.yul\":3412:3746   */\n      jump\n        /* \"contracts/NFTSTaking.sol\":2677:2730  require(stakeData.staker == msg.sender, \"Not staker\") */\n    tag_85:\n        /* \"contracts/NFTSTaking.sol\":2790:2810  minimumStakeDuration */\n      sload(0x04)\n        /* \"contracts/NFTSTaking.sol\":2768:2777  stakeData */\n      dup2\n        /* \"contracts/NFTSTaking.sol\":2768:2787  stakeData.startTime */\n      0x02\n      add\n      sload\n        /* \"contracts/NFTSTaking.sol\":2768:2810  stakeData.startTime + minimumStakeDuration */\n      tag_88\n      swap2\n      swap1\n      tag_89\n      jump\t// in\n    tag_88:\n        /* \"contracts/NFTSTaking.sol\":2749:2764  block.timestamp */\n      timestamp\n        /* \"contracts/NFTSTaking.sol\":2749:2810  block.timestamp >= stakeData.startTime + minimumStakeDuration */\n      lt\n      iszero\n        /* \"contracts/NFTSTaking.sol\":2741:2833  require(block.timestamp >= stakeData.startTime + minimumStakeDuration, \"Stake still locked\") */\n      tag_90\n      jumpi\n      mload(0x40)\n      shl(0xe5, 0x461bcd)\n      dup2\n      mstore\n        /* \"#utility.yul\":4083:4085   */\n      0x20\n        /* \"contracts/NFTSTaking.sol\":2741:2833  require(block.timestamp >= stakeData.startTime + minimumStakeDuration, \"Stake still locked\") */\n      0x04\n      dup3\n      add\n        /* \"#utility.yul\":4065:4086   */\n      mstore\n        /* \"#utility.yul\":4122:4124   */\n      0x12\n        /* \"#utility.yul\":4102:4120   */\n      0x24\n      dup3\n      add\n        /* \"#utility.yul\":4095:4125   */\n      mstore\n      shl(0x72, 0x14dd185ad9481cdd1a5b1b081b1bd8dad959)\n        /* \"#utility.yul\":4141:4159   */\n      0x44\n      dup3\n      add\n        /* \"#utility.yul\":4134:4182   */\n      mstore\n        /* \"#utility.yul\":4199:4217   */\n      0x64\n      add\n        /* \"contracts/NFTSTaking.sol\":2741:2833  require(block.timestamp >= stakeData.startTime + minimumStakeDuration, \"Stake still locked\") */\n      tag_83\n        /* \"#utility.yul\":3881:4223   */\n      jump\n        /* \"contracts/NFTSTaking.sol\":2741:2833  require(block.timestamp >= stakeData.startTime + minimumStakeDuration, \"Stake still locked\") */\n    tag_90:\n        /* \"contracts/NFTSTaking.sol\":2846:2869  uint256 stakingDuration */\n      0x00\n        /* \"contracts/NFTSTaking.sol\":2890:2899  stakeData */\n      dup2\n        /* \"contracts/NFTSTaking.sol\":2890:2909  stakeData.startTime */\n      0x02\n      add\n      sload\n        /* \"contracts/NFTSTaking.sol\":2872:2887  block.timestamp */\n      timestamp\n        /* \"contracts/NFTSTaking.sol\":2872:2909  block.timestamp - stakeData.startTime */\n      tag_93\n      swap2\n      swap1\n      tag_78\n      jump\t// in\n    tag_93:\n        /* \"contracts/NFTSTaking.sol\":2846:2909  uint256 stakingDuration = block.timestamp - stakeData.startTime */\n      swap1\n      pop\n        /* \"contracts/NFTSTaking.sol\":2920:2934  uint256 reward */\n      0x00\n        /* \"contracts/NFTSTaking.sol\":2955:2974  rewardRatePerSecond */\n      sload(0x03)\n        /* \"contracts/NFTSTaking.sol\":2937:2952  stakingDuration */\n      dup3\n        /* \"contracts/NFTSTaking.sol\":2937:2974  stakingDuration * rewardRatePerSecond */\n      tag_94\n      swap2\n      swap1\n      tag_80\n      jump\t// in\n    tag_94:\n        /* \"contracts/NFTSTaking.sol\":2987:3003  stakeData.active */\n      0x03\n      dup5\n      add\n        /* \"contracts/NFTSTaking.sol\":2987:3011  stakeData.active = false */\n      dup1\n      sload\n      not(0xff)\n      and\n      swap1\n      sstore\n        /* \"contracts/NFTSTaking.sol\":3043:3052  rhemToken */\n      sload(0x02)\n        /* \"contracts/NFTSTaking.sol\":3032:3082  IRHEMToken(rhemToken).transfer(msg.sender, reward) */\n      mload(0x40)\n      shl(0xe0, 0xa9059cbb)\n      dup2\n      mstore\n        /* \"contracts/NFTSTaking.sol\":3063:3073  msg.sender */\n      caller\n        /* \"contracts/NFTSTaking.sol\":3032:3082  IRHEMToken(rhemToken).transfer(msg.sender, reward) */\n      0x04\n      dup3\n      add\n        /* \"#utility.yul\":4402:4453   */\n      mstore\n        /* \"#utility.yul\":4469:4487   */\n      0x24\n      dup2\n      add\n        /* \"#utility.yul\":4462:4496   */\n      dup4\n      swap1\n      mstore\n        /* \"contracts/NFTSTaking.sol\":2920:2974  uint256 reward = stakingDuration * rewardRatePerSecond */\n      swap2\n      swap3\n      pop\n      sub(shl(0xa0, 0x01), 0x01)\n        /* \"contracts/NFTSTaking.sol\":3043:3052  rhemToken */\n      and\n      swap1\n        /* \"contracts/NFTSTaking.sol\":3032:3062  IRHEMToken(rhemToken).transfer */\n      0xa9059cbb\n      swap1\n        /* \"#utility.yul\":4375:4393   */\n      0x44\n      add\n        /* \"contracts/NFTSTaking.sol\":3032:3082  IRHEMToken(rhemToken).transfer(msg.sender, reward) */\n      0x20\n      mload(0x40)\n      dup1\n      dup4\n      sub\n      dup2\n      0x00\n      dup8\n      gas\n      call\n      iszero\n      dup1\n      iszero\n      tag_98\n      jumpi\n      returndatacopy(0x00, 0x00, returndatasize)\n      revert(0x00, returndatasize)\n    tag_98:\n      pop\n      pop\n      pop\n      pop\n      mload(0x40)\n      returndatasize\n      not(0x1f)\n      0x1f\n      dup3\n      add\n      and\n      dup3\n      add\n      dup1\n      0x40\n      mstore\n      pop\n      dup2\n      add\n      swap1\n      tag_99\n      swap2\n      swap1\n      tag_100\n      jump\t// in\n    tag_99:\n        /* \"contracts/NFTSTaking.sol\":3024:3109  require(IRHEMToken(rhemToken).transfer(msg.sender, reward), \"Reward transfer failed\") */\n      tag_101\n      jumpi\n      mload(0x40)\n      shl(0xe5, 0x461bcd)\n      dup2\n      mstore\n        /* \"#utility.yul\":4991:4993   */\n      0x20\n        /* \"contracts/NFTSTaking.sol\":3024:3109  require(IRHEMToken(rhemToken).transfer(msg.sender, reward), \"Reward transfer failed\") */\n      0x04\n      dup3\n      add\n        /* \"#utility.yul\":4973:4994   */\n      mstore\n        /* \"#utility.yul\":5030:5032   */\n      0x16\n        /* \"#utility.yul\":5010:5028   */\n      0x24\n      dup3\n      add\n        /* \"#utility.yul\":5003:5033   */\n      mstore\n      shl(0x52, 0x14995dd85c99081d1c985b9cd9995c8819985a5b1959)\n        /* \"#utility.yul\":5049:5067   */\n      0x44\n      dup3\n      add\n        /* \"#utility.yul\":5042:5094   */\n      mstore\n        /* \"#utility.yul\":5111:5129   */\n      0x64\n      add\n        /* \"contracts/NFTSTaking.sol\":3024:3109  require(IRHEMToken(rhemToken).transfer(msg.sender, reward), \"Reward transfer failed\") */\n      tag_83\n        /* \"#utility.yul\":4789:5135   */\n      jump\n        /* \"contracts/NFTSTaking.sol\":3024:3109  require(IRHEMToken(rhemToken).transfer(msg.sender, reward), \"Reward transfer failed\") */\n    tag_101:\n        /* \"contracts/NFTSTaking.sol\":3128:3138  nftAddress */\n      sload(0x01)\n        /* \"contracts/NFTSTaking.sol\":3120:3188  IERC721(nftAddress).transferFrom(address(this), msg.sender, tokenId) */\n      mload(0x40)\n      shl(0xe0, 0x23b872dd)\n      dup2\n      mstore\n        /* \"contracts/NFTSTaking.sol\":3161:3165  this */\n      address\n        /* \"contracts/NFTSTaking.sol\":3120:3188  IERC721(nftAddress).transferFrom(address(this), msg.sender, tokenId) */\n      0x04\n      dup3\n      add\n        /* \"#utility.yul\":5342:5393   */\n      mstore\n        /* \"contracts/NFTSTaking.sol\":3168:3178  msg.sender */\n      caller\n        /* \"#utility.yul\":5409:5427   */\n      0x24\n      dup3\n      add\n        /* \"#utility.yul\":5402:5462   */\n      mstore\n        /* \"#utility.yul\":5478:5496   */\n      0x44\n      dup2\n      add\n        /* \"#utility.yul\":5471:5505   */\n      dup7\n      swap1\n      mstore\n      sub(shl(0xa0, 0x01), 0x01)\n        /* \"contracts/NFTSTaking.sol\":3128:3138  nftAddress */\n      swap1\n      swap2\n      and\n      swap1\n        /* \"contracts/NFTSTaking.sol\":3120:3152  IERC721(nftAddress).transferFrom */\n      0x23b872dd\n      swap1\n        /* \"#utility.yul\":5315:5333   */\n      0x64\n      add\n        /* \"contracts/NFTSTaking.sol\":3120:3188  IERC721(nftAddress).transferFrom(address(this), msg.sender, tokenId) */\n      0x00\n      mload(0x40)\n      dup1\n      dup4\n      sub\n      dup2\n      0x00\n      dup8\n      dup1\n      extcodesize\n      iszero\n      dup1\n      iszero\n      tag_106\n      jumpi\n      revert(0x00, 0x00)\n    tag_106:\n      pop\n      gas\n      call\n      iszero\n      dup1\n      iszero\n      tag_108\n      jumpi\n      returndatacopy(0x00, 0x00, returndatasize)\n      revert(0x00, returndatasize)\n    tag_108:\n      pop\n      pop\n        /* \"contracts/NFTSTaking.sol\":3206:3243  Unstaked(msg.sender, tokenId, reward) */\n      0x40\n      dup1\n      mload\n        /* \"#utility.yul\":5690:5715   */\n      dup8\n      dup2\n      mstore\n        /* \"#utility.yul\":5746:5748   */\n      0x20\n        /* \"#utility.yul\":5731:5749   */\n      dup2\n      add\n        /* \"#utility.yul\":5724:5758   */\n      dup6\n      swap1\n      mstore\n        /* \"contracts/NFTSTaking.sol\":3215:3225  msg.sender */\n      caller\n      swap4\n      pop\n        /* \"contracts/NFTSTaking.sol\":3206:3243  Unstaked(msg.sender, tokenId, reward) */\n      0x7fc4727e062e336010f2c282598ef5f14facb3de68cf8195c2f23e1454b2b74e\n      swap3\n      pop\n        /* \"#utility.yul\":5663:5681   */\n      add\n        /* \"contracts/NFTSTaking.sol\":3206:3243  Unstaked(msg.sender, tokenId, reward) */\n      mload(0x40)\n      dup1\n      swap2\n      sub\n      swap1\n      log2\n        /* \"contracts/NFTSTaking.sol\":2560:3251  {... */\n      pop\n      pop\n      pop\n        /* \"contracts/NFTSTaking.sol\":2517:3251  function unstake(uint256 tokenId) external {... */\n      pop\n      jump\t// out\n        /* \"contracts/NFTSTaking.sol\":3259:3381  function getStakedTokens(address user) external view returns (uint256[] memory) {... */\n    tag_42:\n      sub(shl(0xa0, 0x01), 0x01)\n        /* \"contracts/NFTSTaking.sol\":3357:3373  userStakes[user] */\n      dup2\n      and\n      0x00\n      swap1\n      dup2\n      mstore\n        /* \"contracts/NFTSTaking.sol\":3357:3367  userStakes */\n      0x06\n        /* \"contracts/NFTSTaking.sol\":3357:3373  userStakes[user] */\n      0x20\n      swap1\n      dup2\n      mstore\n      0x40\n      swap2\n      dup3\n      swap1\n      keccak256\n        /* \"contracts/NFTSTaking.sol\":3350:3373  return userStakes[user] */\n      dup1\n      sload\n      dup4\n      mload\n      dup2\n      dup5\n      mul\n      dup2\n      add\n      dup5\n      add\n      swap1\n      swap5\n      mstore\n      dup1\n      dup5\n      mstore\n        /* \"contracts/NFTSTaking.sol\":3321:3337  uint256[] memory */\n      0x60\n      swap4\n        /* \"contracts/NFTSTaking.sol\":3350:3373  return userStakes[user] */\n      swap3\n      dup4\n      add\n        /* \"contracts/NFTSTaking.sol\":3357:3373  userStakes[user] */\n      dup3\n        /* \"contracts/NFTSTaking.sol\":3350:3373  return userStakes[user] */\n      dup3\n      dup1\n      iszero\n      tag_112\n      jumpi\n      0x20\n      mul\n      dup3\n      add\n      swap2\n      swap1\n      0x00\n      mstore\n      keccak256(0x00, 0x20)\n      swap1\n    tag_113:\n      dup2\n      sload\n      dup2\n      mstore\n      0x20\n      add\n      swap1\n      0x01\n      add\n      swap1\n      dup1\n      dup4\n      gt\n      tag_113\n      jumpi\n    tag_112:\n      pop\n      pop\n      pop\n      pop\n      pop\n      swap1\n      pop\n        /* \"contracts/NFTSTaking.sol\":3259:3381  function getStakedTokens(address user) external view returns (uint256[] memory) {... */\n      swap2\n      swap1\n      pop\n      jump\t// out\n        /* \"contracts/NFTSTaking.sol\":3389:3539  function updateRewardRate(uint256 newRate) external onlyDAO {... */\n    tag_47:\n        /* \"contracts/NFTSTaking.sol\":1404:1407  dao */\n      and(sub(shl(0xa0, 0x01), 0x01), sload(0x00))\n        /* \"contracts/NFTSTaking.sol\":1390:1400  msg.sender */\n      caller\n        /* \"contracts/NFTSTaking.sol\":1390:1407  msg.sender == dao */\n      eq\n        /* \"contracts/NFTSTaking.sol\":1382:1420  require(msg.sender == dao, \"Only DAO\") */\n      tag_115\n      jumpi\n      mload(0x40)\n      shl(0xe5, 0x461bcd)\n      dup2\n      mstore\n        /* \"#utility.yul\":5971:5973   */\n      0x20\n        /* \"contracts/NFTSTaking.sol\":1382:1420  require(msg.sender == dao, \"Only DAO\") */\n      0x04\n      dup3\n      add\n        /* \"#utility.yul\":5953:5974   */\n      mstore\n        /* \"#utility.yul\":6010:6011   */\n      0x08\n        /* \"#utility.yul\":5990:6008   */\n      0x24\n      dup3\n      add\n        /* \"#utility.yul\":5983:6012   */\n      mstore\n      shl(0xc0, 0x4f6e6c792044414f)\n        /* \"#utility.yul\":6028:6046   */\n      0x44\n      dup3\n      add\n        /* \"#utility.yul\":6021:6059   */\n      mstore\n        /* \"#utility.yul\":6076:6094   */\n      0x64\n      add\n        /* \"contracts/NFTSTaking.sol\":1382:1420  require(msg.sender == dao, \"Only DAO\") */\n      tag_83\n        /* \"#utility.yul\":5769:6100   */\n      jump\n        /* \"contracts/NFTSTaking.sol\":1382:1420  require(msg.sender == dao, \"Only DAO\") */\n    tag_115:\n        /* \"contracts/NFTSTaking.sol\":3460:3479  rewardRatePerSecond */\n      0x03\n        /* \"contracts/NFTSTaking.sol\":3460:3489  rewardRatePerSecond = newRate */\n      dup2\n      swap1\n      sstore\n        /* \"contracts/NFTSTaking.sol\":3505:3531  RewardRateUpdated(newRate) */\n      mload(0x40)\n        /* \"#utility.yul\":391:416   */\n      dup2\n      dup2\n      mstore\n        /* \"contracts/NFTSTaking.sol\":3505:3531  RewardRateUpdated(newRate) */\n      0x41d466ebd06fb97e7786086ac8b69b7eb7da798592036251291d34e9791cde01\n      swap1\n        /* \"#utility.yul\":379:381   */\n      0x20\n        /* \"#utility.yul\":364:382   */\n      add\n        /* \"contracts/NFTSTaking.sol\":3505:3531  RewardRateUpdated(newRate) */\n    tag_119:\n      mload(0x40)\n      dup1\n      swap2\n      sub\n      swap1\n      log1\n        /* \"contracts/NFTSTaking.sol\":3389:3539  function updateRewardRate(uint256 newRate) external onlyDAO {... */\n      pop\n      jump\t// out\n        /* \"contracts/NFTSTaking.sol\":2015:2509  function stake(uint256 tokenId) external {... */\n    tag_50:\n        /* \"contracts/NFTSTaking.sol\":2083:2093  nftAddress */\n      sload(0x01)\n        /* \"contracts/NFTSTaking.sol\":2075:2111  IERC721(nftAddress).ownerOf(tokenId) */\n      mload(0x40)\n      shl(0xe1, 0x31a9108f)\n      dup2\n      mstore\n      0x04\n      dup2\n      add\n        /* \"#utility.yul\":391:416   */\n      dup4\n      swap1\n      mstore\n        /* \"contracts/NFTSTaking.sol\":2115:2125  msg.sender */\n      caller\n      swap2\n      sub(shl(0xa0, 0x01), 0x01)\n        /* \"contracts/NFTSTaking.sol\":2083:2093  nftAddress */\n      and\n      swap1\n        /* \"contracts/NFTSTaking.sol\":2075:2102  IERC721(nftAddress).ownerOf */\n      0x6352211e\n      swap1\n        /* \"#utility.yul\":364:382   */\n      0x24\n      add\n        /* \"contracts/NFTSTaking.sol\":2075:2111  IERC721(nftAddress).ownerOf(tokenId) */\n      0x20\n      mload(0x40)\n      dup1\n      dup4\n      sub\n      dup2\n      dup7\n      gas\n      staticcall\n      iszero\n      dup1\n      iszero\n      tag_123\n      jumpi\n      returndatacopy(0x00, 0x00, returndatasize)\n      revert(0x00, returndatasize)\n    tag_123:\n      pop\n      pop\n      pop\n      pop\n      mload(0x40)\n      returndatasize\n      not(0x1f)\n      0x1f\n      dup3\n      add\n      and\n      dup3\n      add\n      dup1\n      0x40\n      mstore\n      pop\n      dup2\n      add\n      swap1\n      tag_124\n      swap2\n      swap1\n      tag_125\n      jump\t// in\n    tag_124:\n      sub(shl(0xa0, 0x01), 0x01)\n        /* \"contracts/NFTSTaking.sol\":2075:2125  IERC721(nftAddress).ownerOf(tokenId) == msg.sender */\n      and\n      eq\n        /* \"contracts/NFTSTaking.sol\":2067:2143  require(IERC721(nftAddress).ownerOf(tokenId) == msg.sender, \"Not NFT owner\") */\n      tag_126\n      jumpi\n      mload(0x40)\n      shl(0xe5, 0x461bcd)\n      dup2\n      mstore\n        /* \"#utility.yul\":6563:6565   */\n      0x20\n        /* \"contracts/NFTSTaking.sol\":2067:2143  require(IERC721(nftAddress).ownerOf(tokenId) == msg.sender, \"Not NFT owner\") */\n      0x04\n      dup3\n      add\n        /* \"#utility.yul\":6545:6566   */\n      mstore\n        /* \"#utility.yul\":6602:6604   */\n      0x0d\n        /* \"#utility.yul\":6582:6600   */\n      0x24\n      dup3\n      add\n        /* \"#utility.yul\":6575:6605   */\n      mstore\n      shl(0x99, 0x2737ba1027232a1037bbb732b9)\n        /* \"#utility.yul\":6621:6639   */\n      0x44\n      dup3\n      add\n        /* \"#utility.yul\":6614:6657   */\n      mstore\n        /* \"#utility.yul\":6674:6692   */\n      0x64\n      add\n        /* \"contracts/NFTSTaking.sol\":2067:2143  require(IERC721(nftAddress).ownerOf(tokenId) == msg.sender, \"Not NFT owner\") */\n      tag_83\n        /* \"#utility.yul\":6361:6698   */\n      jump\n        /* \"contracts/NFTSTaking.sol\":2067:2143  require(IERC721(nftAddress).ownerOf(tokenId) == msg.sender, \"Not NFT owner\") */\n    tag_126:\n        /* \"contracts/NFTSTaking.sol\":2164:2174  nftAddress */\n      sload(0x01)\n        /* \"contracts/NFTSTaking.sol\":2156:2224  IERC721(nftAddress).transferFrom(msg.sender, address(this), tokenId) */\n      mload(0x40)\n      shl(0xe0, 0x23b872dd)\n      dup2\n      mstore\n        /* \"contracts/NFTSTaking.sol\":2189:2199  msg.sender */\n      caller\n        /* \"contracts/NFTSTaking.sol\":2156:2224  IERC721(nftAddress).transferFrom(msg.sender, address(this), tokenId) */\n      0x04\n      dup3\n      add\n        /* \"#utility.yul\":5342:5393   */\n      mstore\n        /* \"contracts/NFTSTaking.sol\":2209:2213  this */\n      address\n        /* \"#utility.yul\":5409:5427   */\n      0x24\n      dup3\n      add\n        /* \"#utility.yul\":5402:5462   */\n      mstore\n        /* \"#utility.yul\":5478:5496   */\n      0x44\n      dup2\n      add\n        /* \"#utility.yul\":5471:5505   */\n      dup4\n      swap1\n      mstore\n      sub(shl(0xa0, 0x01), 0x01)\n        /* \"contracts/NFTSTaking.sol\":2164:2174  nftAddress */\n      swap1\n      swap2\n      and\n      swap1\n        /* \"contracts/NFTSTaking.sol\":2156:2188  IERC721(nftAddress).transferFrom */\n      0x23b872dd\n      swap1\n        /* \"#utility.yul\":5315:5333   */\n      0x64\n      add\n        /* \"contracts/NFTSTaking.sol\":2156:2224  IERC721(nftAddress).transferFrom(msg.sender, address(this), tokenId) */\n      0x00\n      mload(0x40)\n      dup1\n      dup4\n      sub\n      dup2\n      0x00\n      dup8\n      dup1\n      extcodesize\n      iszero\n      dup1\n      iszero\n      tag_130\n      jumpi\n      revert(0x00, 0x00)\n    tag_130:\n      pop\n      gas\n      call\n      iszero\n      dup1\n      iszero\n      tag_132\n      jumpi\n      returndatacopy(0x00, 0x00, returndatasize)\n      revert(0x00, returndatasize)\n    tag_132:\n      pop\n      pop\n        /* \"contracts/NFTSTaking.sol\":2255:2409  StakeInfo({... */\n      0x40\n      dup1\n      mload\n      0x80\n      dup2\n      add\n      dup3\n      mstore\n        /* \"contracts/NFTSTaking.sol\":2288:2298  msg.sender */\n      caller\n        /* \"contracts/NFTSTaking.sol\":2255:2409  StakeInfo({... */\n      dup1\n      dup3\n      mstore\n      0x20\n      dup1\n      dup4\n      add\n      dup8\n      dup2\n      mstore\n        /* \"contracts/NFTSTaking.sol\":2355:2370  block.timestamp */\n      timestamp\n        /* \"contracts/NFTSTaking.sol\":2255:2409  StakeInfo({... */\n      dup5\n      dup7\n      add\n      swap1\n      dup2\n      mstore\n        /* \"contracts/NFTSTaking.sol\":2393:2397  true */\n      0x01\n        /* \"contracts/NFTSTaking.sol\":2255:2409  StakeInfo({... */\n      0x60\n      dup7\n      add\n      dup2\n      dup2\n      mstore\n      0x00\n        /* \"contracts/NFTSTaking.sol\":2237:2252  stakes[tokenId] */\n      dup12\n      dup2\n      mstore\n        /* \"contracts/NFTSTaking.sol\":2237:2243  stakes */\n      0x05\n        /* \"contracts/NFTSTaking.sol\":2237:2252  stakes[tokenId] */\n      dup7\n      mstore\n      dup9\n      dup2\n      keccak256\n        /* \"contracts/NFTSTaking.sol\":2237:2409  stakes[tokenId] = StakeInfo({... */\n      swap8\n      mload\n      dup9\n      sload\n      not(sub(shl(0xa0, 0x01), 0x01))\n      and\n      sub(shl(0xa0, 0x01), 0x01)\n      swap1\n      swap2\n      and\n      or\n      dup9\n      sstore\n      swap4\n      mload\n      dup8\n      dup4\n      add\n      sstore\n      swap2\n      mload\n      0x02\n      dup8\n      add\n      sstore\n      swap1\n      mload\n      0x03\n      swap1\n      swap6\n      add\n      dup1\n      sload\n      not(0xff)\n      and\n      swap6\n      iszero\n      iszero\n      swap6\n      swap1\n      swap6\n      or\n      swap1\n      swap5\n      sstore\n        /* \"contracts/NFTSTaking.sol\":2422:2444  userStakes[msg.sender] */\n      dup3\n      dup2\n      mstore\n        /* \"contracts/NFTSTaking.sol\":2422:2432  userStakes */\n      0x06\n        /* \"contracts/NFTSTaking.sol\":2422:2444  userStakes[msg.sender] */\n      dup3\n      mstore\n      dup5\n      dup2\n      keccak256\n        /* \"contracts/NFTSTaking.sol\":2422:2458  userStakes[msg.sender].push(tokenId) */\n      dup1\n      sload\n      swap5\n      dup6\n      add\n      dup2\n      sstore\n      dup2\n      mstore\n      dup2\n      swap1\n      keccak256\n      swap1\n      swap3\n      add\n      dup7\n      swap1\n      sstore\n        /* \"contracts/NFTSTaking.sol\":2474:2501  Staked(msg.sender, tokenId) */\n      swap2\n      mload\n        /* \"#utility.yul\":391:416   */\n      dup6\n      dup2\n      mstore\n        /* \"contracts/NFTSTaking.sol\":2288:2298  msg.sender */\n      swap2\n      swap4\n      pop\n        /* \"contracts/NFTSTaking.sol\":2474:2501  Staked(msg.sender, tokenId) */\n      0x9e71bc8eea02a63969f509818f2dafb9254532904319f9dbda79b67bd34a5f3d\n      swap3\n      pop\n        /* \"#utility.yul\":364:382   */\n      add\n        /* \"contracts/NFTSTaking.sol\":2474:2501  Staked(msg.sender, tokenId) */\n      mload(0x40)\n      dup1\n      swap2\n      sub\n      swap1\n      log2\n        /* \"contracts/NFTSTaking.sol\":2015:2509  function stake(uint256 tokenId) external {... */\n      pop\n      jump\t// out\n        /* \"contracts/NFTSTaking.sol\":1040:1087  mapping(address => uint256[]) public userStakes */\n    tag_60:\n      mstore(0x20, 0x06)\n      dup2\n      0x00\n      mstore\n      keccak256(0x00, 0x40)\n      dup2\n      dup2\n      sload\n      dup2\n      lt\n      tag_135\n      jumpi\n      0x00\n      dup1\n      revert\n    tag_135:\n      swap1\n      0x00\n      mstore\n      keccak256(0x00, 0x20)\n      add\n      0x00\n      swap2\n      pop\n      swap2\n      pop\n      pop\n      sload\n      dup2\n      jump\t// out\n        /* \"contracts/NFTSTaking.sol\":3547:3711  function updateMinimumDuration(uint256 duration) external onlyDAO {... */\n    tag_69:\n        /* \"contracts/NFTSTaking.sol\":1404:1407  dao */\n      and(sub(shl(0xa0, 0x01), 0x01), sload(0x00))\n        /* \"contracts/NFTSTaking.sol\":1390:1400  msg.sender */\n      caller\n        /* \"contracts/NFTSTaking.sol\":1390:1407  msg.sender == dao */\n      eq\n        /* \"contracts/NFTSTaking.sol\":1382:1420  require(msg.sender == dao, \"Only DAO\") */\n      tag_138\n      jumpi\n      mload(0x40)\n      shl(0xe5, 0x461bcd)\n      dup2\n      mstore\n        /* \"#utility.yul\":5971:5973   */\n      0x20\n        /* \"contracts/NFTSTaking.sol\":1382:1420  require(msg.sender == dao, \"Only DAO\") */\n      0x04\n      dup3\n      add\n        /* \"#utility.yul\":5953:5974   */\n      mstore\n        /* \"#utility.yul\":6010:6011   */\n      0x08\n        /* \"#utility.yul\":5990:6008   */\n      0x24\n      dup3\n      add\n        /* \"#utility.yul\":5983:6012   */\n      mstore\n      shl(0xc0, 0x4f6e6c792044414f)\n        /* \"#utility.yul\":6028:6046   */\n      0x44\n      dup3\n      add\n        /* \"#utility.yul\":6021:6059   */\n      mstore\n        /* \"#utility.yul\":6076:6094   */\n      0x64\n      add\n        /* \"contracts/NFTSTaking.sol\":1382:1420  require(msg.sender == dao, \"Only DAO\") */\n      tag_83\n        /* \"#utility.yul\":5769:6100   */\n      jump\n        /* \"contracts/NFTSTaking.sol\":1382:1420  require(msg.sender == dao, \"Only DAO\") */\n    tag_138:\n        /* \"contracts/NFTSTaking.sol\":3624:3644  minimumStakeDuration */\n      0x04\n        /* \"contracts/NFTSTaking.sol\":3624:3655  minimumStakeDuration = duration */\n      dup2\n      swap1\n      sstore\n        /* \"contracts/NFTSTaking.sol\":3671:3703  MinimumDurationUpdated(duration) */\n      mload(0x40)\n        /* \"#utility.yul\":391:416   */\n      dup2\n      dup2\n      mstore\n        /* \"contracts/NFTSTaking.sol\":3671:3703  MinimumDurationUpdated(duration) */\n      0x9818c566ff1cbdfdd3d75b8284cd4ca1d0b6156fd9e1708911ce0e5752ecc5c4\n      swap1\n        /* \"#utility.yul\":379:381   */\n      0x20\n        /* \"#utility.yul\":364:382   */\n      add\n        /* \"contracts/NFTSTaking.sol\":3671:3703  MinimumDurationUpdated(duration) */\n      tag_119\n        /* \"#utility.yul\":245:422   */\n      jump\n        /* \"#utility.yul\":14:240   */\n    tag_22:\n        /* \"#utility.yul\":73:79   */\n      0x00\n        /* \"#utility.yul\":126:128   */\n      0x20\n        /* \"#utility.yul\":114:123   */\n      dup3\n        /* \"#utility.yul\":105:112   */\n      dup5\n        /* \"#utility.yul\":101:124   */\n      sub\n        /* \"#utility.yul\":97:129   */\n      slt\n        /* \"#utility.yul\":94:146   */\n      iszero\n      tag_147\n      jumpi\n        /* \"#utility.yul\":142:143   */\n      0x00\n        /* \"#utility.yul\":139:140   */\n      0x00\n        /* \"#utility.yul\":132:144   */\n      revert\n        /* \"#utility.yul\":94:146   */\n    tag_147:\n      pop\n        /* \"#utility.yul\":187:210   */\n      calldataload\n      swap2\n        /* \"#utility.yul\":14:240   */\n      swap1\n      pop\n      jump\t// out\n        /* \"#utility.yul\":635:766   */\n    tag_143:\n      sub(shl(0xa0, 0x01), 0x01)\n        /* \"#utility.yul\":710:741   */\n      dup2\n      and\n        /* \"#utility.yul\":700:742   */\n      dup2\n      eq\n        /* \"#utility.yul\":690:760   */\n      tag_151\n      jumpi\n        /* \"#utility.yul\":756:757   */\n      0x00\n        /* \"#utility.yul\":753:754   */\n      0x00\n        /* \"#utility.yul\":746:758   */\n      revert\n        /* \"#utility.yul\":690:760   */\n    tag_151:\n        /* \"#utility.yul\":635:766   */\n      pop\n      jump\t// out\n        /* \"#utility.yul\":771:1018   */\n    tag_41:\n        /* \"#utility.yul\":830:836   */\n      0x00\n        /* \"#utility.yul\":883:885   */\n      0x20\n        /* \"#utility.yul\":871:880   */\n      dup3\n        /* \"#utility.yul\":862:869   */\n      dup5\n        /* \"#utility.yul\":858:881   */\n      sub\n        /* \"#utility.yul\":854:886   */\n      slt\n        /* \"#utility.yul\":851:903   */\n      iszero\n      tag_153\n      jumpi\n        /* \"#utility.yul\":899:900   */\n      0x00\n        /* \"#utility.yul\":896:897   */\n      0x00\n        /* \"#utility.yul\":889:901   */\n      revert\n        /* \"#utility.yul\":851:903   */\n    tag_153:\n        /* \"#utility.yul\":938:947   */\n      dup2\n        /* \"#utility.yul\":925:948   */\n      calldataload\n        /* \"#utility.yul\":957:988   */\n      tag_79\n        /* \"#utility.yul\":982:987   */\n      dup2\n        /* \"#utility.yul\":957:988   */\n      tag_143\n      jump\t// in\n        /* \"#utility.yul\":1023:1634   */\n    tag_44:\n        /* \"#utility.yul\":1213:1215   */\n      0x20\n        /* \"#utility.yul\":1225:1246   */\n      dup1\n      dup3\n      mstore\n        /* \"#utility.yul\":1295:1308   */\n      dup3\n      mload\n        /* \"#utility.yul\":1198:1216   */\n      dup3\n      dup3\n      add\n        /* \"#utility.yul\":1317:1339   */\n      dup2\n      swap1\n      mstore\n        /* \"#utility.yul\":1165:1169   */\n      0x00\n      swap2\n        /* \"#utility.yul\":1396:1411   */\n      dup5\n      add\n      swap1\n        /* \"#utility.yul\":1370:1372   */\n      0x40\n        /* \"#utility.yul\":1355:1373   */\n      dup5\n      add\n      swap1\n        /* \"#utility.yul\":1165:1169   */\n      dup4\n        /* \"#utility.yul\":1439:1608   */\n    tag_156:\n        /* \"#utility.yul\":1453:1459   */\n      dup2\n        /* \"#utility.yul\":1450:1451   */\n      dup2\n        /* \"#utility.yul\":1447:1460   */\n      lt\n        /* \"#utility.yul\":1439:1608   */\n      iszero\n      tag_158\n      jumpi\n        /* \"#utility.yul\":1514:1527   */\n      dup4\n      mload\n        /* \"#utility.yul\":1502:1528   */\n      dup4\n      mstore\n        /* \"#utility.yul\":1557:1559   */\n      0x20\n        /* \"#utility.yul\":1583:1598   */\n      swap4\n      dup5\n      add\n      swap4\n        /* \"#utility.yul\":1548:1560   */\n      swap1\n      swap3\n      add\n      swap2\n        /* \"#utility.yul\":1475:1476   */\n      0x01\n        /* \"#utility.yul\":1468:1477   */\n      add\n        /* \"#utility.yul\":1439:1608   */\n      jump(tag_156)\n    tag_158:\n      pop\n        /* \"#utility.yul\":1625:1628   */\n      swap1\n      swap6\n        /* \"#utility.yul\":1023:1634   */\n      swap5\n      pop\n      pop\n      pop\n      pop\n      pop\n      jump\t// out\n        /* \"#utility.yul\":1639:2006   */\n    tag_59:\n        /* \"#utility.yul\":1707:1713   */\n      0x00\n        /* \"#utility.yul\":1715:1721   */\n      0x00\n        /* \"#utility.yul\":1768:1770   */\n      0x40\n        /* \"#utility.yul\":1756:1765   */\n      dup4\n        /* \"#utility.yul\":1747:1754   */\n      dup6\n        /* \"#utility.yul\":1743:1766   */\n      sub\n        /* \"#utility.yul\":1739:1771   */\n      slt\n        /* \"#utility.yul\":1736:1788   */\n      iszero\n      tag_160\n      jumpi\n        /* \"#utility.yul\":1784:1785   */\n      0x00\n        /* \"#utility.yul\":1781:1782   */\n      0x00\n        /* \"#utility.yul\":1774:1786   */\n      revert\n        /* \"#utility.yul\":1736:1788   */\n    tag_160:\n        /* \"#utility.yul\":1823:1832   */\n      dup3\n        /* \"#utility.yul\":1810:1833   */\n      calldataload\n        /* \"#utility.yul\":1842:1873   */\n      tag_161\n        /* \"#utility.yul\":1867:1872   */\n      dup2\n        /* \"#utility.yul\":1842:1873   */\n      tag_143\n      jump\t// in\n    tag_161:\n        /* \"#utility.yul\":1892:1897   */\n      swap5\n        /* \"#utility.yul\":1970:1972   */\n      0x20\n        /* \"#utility.yul\":1955:1973   */\n      swap4\n      swap1\n      swap4\n      add\n        /* \"#utility.yul\":1942:1974   */\n      calldataload\n      swap4\n      pop\n      pop\n      pop\n        /* \"#utility.yul\":1639:2006   */\n      jump\t// out\n        /* \"#utility.yul\":2635:2762   */\n    tag_144:\n        /* \"#utility.yul\":2696:2706   */\n      0x4e487b71\n        /* \"#utility.yul\":2691:2694   */\n      0xe0\n        /* \"#utility.yul\":2687:2707   */\n      shl\n        /* \"#utility.yul\":2684:2685   */\n      0x00\n        /* \"#utility.yul\":2677:2708   */\n      mstore\n        /* \"#utility.yul\":2727:2731   */\n      0x11\n        /* \"#utility.yul\":2724:2725   */\n      0x04\n        /* \"#utility.yul\":2717:2732   */\n      mstore\n        /* \"#utility.yul\":2751:2755   */\n      0x24\n        /* \"#utility.yul\":2748:2749   */\n      0x00\n        /* \"#utility.yul\":2741:2756   */\n      revert\n        /* \"#utility.yul\":2767:2895   */\n    tag_78:\n        /* \"#utility.yul\":2834:2843   */\n      dup2\n      dup2\n      sub\n        /* \"#utility.yul\":2855:2866   */\n      dup2\n      dup2\n      gt\n        /* \"#utility.yul\":2852:2889   */\n      iszero\n      tag_167\n      jumpi\n        /* \"#utility.yul\":2869:2887   */\n      tag_167\n      tag_144\n      jump\t// in\n    tag_167:\n        /* \"#utility.yul\":2767:2895   */\n      swap3\n      swap2\n      pop\n      pop\n      jump\t// out\n        /* \"#utility.yul\":2900:3068   */\n    tag_80:\n        /* \"#utility.yul\":2973:2982   */\n      dup1\n      dup3\n      mul\n        /* \"#utility.yul\":3004:3013   */\n      dup2\n      iszero\n        /* \"#utility.yul\":3021:3036   */\n      dup3\n      dup3\n      div\n        /* \"#utility.yul\":3015:3037   */\n      dup5\n      eq\n        /* \"#utility.yul\":3001:3038   */\n      or\n        /* \"#utility.yul\":2991:3062   */\n      tag_167\n      jumpi\n        /* \"#utility.yul\":3042:3060   */\n      tag_167\n      tag_144\n      jump\t// in\n        /* \"#utility.yul\":3751:3876   */\n    tag_89:\n        /* \"#utility.yul\":3816:3825   */\n      dup1\n      dup3\n      add\n        /* \"#utility.yul\":3837:3847   */\n      dup1\n      dup3\n      gt\n        /* \"#utility.yul\":3834:3870   */\n      iszero\n      tag_167\n      jumpi\n        /* \"#utility.yul\":3850:3868   */\n      tag_167\n      tag_144\n      jump\t// in\n        /* \"#utility.yul\":4507:4784   */\n    tag_100:\n        /* \"#utility.yul\":4574:4580   */\n      0x00\n        /* \"#utility.yul\":4627:4629   */\n      0x20\n        /* \"#utility.yul\":4615:4624   */\n      dup3\n        /* \"#utility.yul\":4606:4613   */\n      dup5\n        /* \"#utility.yul\":4602:4625   */\n      sub\n        /* \"#utility.yul\":4598:4630   */\n      slt\n        /* \"#utility.yul\":4595:4647   */\n      iszero\n      tag_179\n      jumpi\n        /* \"#utility.yul\":4643:4644   */\n      0x00\n        /* \"#utility.yul\":4640:4641   */\n      0x00\n        /* \"#utility.yul\":4633:4645   */\n      revert\n        /* \"#utility.yul\":4595:4647   */\n    tag_179:\n        /* \"#utility.yul\":4675:4684   */\n      dup2\n        /* \"#utility.yul\":4669:4685   */\n      mload\n        /* \"#utility.yul\":4728:4733   */\n      dup1\n        /* \"#utility.yul\":4721:4734   */\n      iszero\n        /* \"#utility.yul\":4714:4735   */\n      iszero\n        /* \"#utility.yul\":4707:4712   */\n      dup2\n        /* \"#utility.yul\":4704:4736   */\n      eq\n        /* \"#utility.yul\":4694:4754   */\n      tag_79\n      jumpi\n        /* \"#utility.yul\":4750:4751   */\n      0x00\n        /* \"#utility.yul\":4747:4748   */\n      0x00\n        /* \"#utility.yul\":4740:4752   */\n      revert\n        /* \"#utility.yul\":6105:6356   */\n    tag_125:\n        /* \"#utility.yul\":6175:6181   */\n      0x00\n        /* \"#utility.yul\":6228:6230   */\n      0x20\n        /* \"#utility.yul\":6216:6225   */\n      dup3\n        /* \"#utility.yul\":6207:6214   */\n      dup5\n        /* \"#utility.yul\":6203:6226   */\n      sub\n        /* \"#utility.yul\":6199:6231   */\n      slt\n        /* \"#utility.yul\":6196:6248   */\n      iszero\n      tag_186\n      jumpi\n        /* \"#utility.yul\":6244:6245   */\n      0x00\n        /* \"#utility.yul\":6241:6242   */\n      0x00\n        /* \"#utility.yul\":6234:6246   */\n      revert\n        /* \"#utility.yul\":6196:6248   */\n    tag_186:\n        /* \"#utility.yul\":6276:6285   */\n      dup2\n        /* \"#utility.yul\":6270:6286   */\n      mload\n        /* \"#utility.yul\":6295:6326   */\n      tag_79\n        /* \"#utility.yul\":6320:6325   */\n      dup2\n        /* \"#utility.yul\":6295:6326   */\n      tag_143\n      jump\t// in\n\n    auxdata: 0xa264697066735822122002d4a47a4e6429e7d7616deb1722185cb387d07a87838b073f92d3c3b6dea22064736f6c634300081d0033\n}\n",
				"bytecode": {
					"linkReferences": {},
					"object": "608060405234801561000f575f5ffd5b50604051610c32380380610c3283398101604081905261002e91610167565b6001600160a01b0385166100775760405162461bcd60e51b815260206004820152600b60248201526a125b9d985b1a590813919560aa1b60448201526064015b60405180910390fd5b6001600160a01b0384166100bd5760405162461bcd60e51b815260206004820152600d60248201526c24b73b30b634b2103a37b5b2b760991b604482015260640161006e565b6001600160a01b0383166101015760405162461bcd60e51b815260206004820152600b60248201526a496e76616c69642044414f60a81b604482015260640161006e565b600180546001600160a01b03199081166001600160a01b0397881617909155600280548216958716959095179094555f805490941692909416919091179091556003556004556101b9565b80516001600160a01b0381168114610162575f5ffd5b919050565b5f5f5f5f5f60a0868803121561017b575f5ffd5b6101848661014c565b94506101926020870161014c565b93506101a06040870161014c565b6060870151608090970151959894975095949392505050565b610a6c806101c65f395ff3fe608060405234801561000f575f5ffd5b50600436106100e5575f3560e01c8063a694fc3a11610088578063b5d5b5fa11610063578063b5d5b5fa146101cc578063d5a44f86146101df578063dec7559f1461024c578063f0a524241461025f575f5ffd5b8063a694fc3a1461019d578063a6d74512146101b0578063a8bd7300146101c3575f5ffd5b80635bf8633a116100c35780635bf8633a1461014e5780635d773b2c1461016157806363c28db11461016a5780639ef3a2611461018a575f5ffd5b806312f7086c146100e95780632e17de781461010f5780634162169f14610124575b5f5ffd5b6100fc6100f73660046108f0565b610294565b6040519081526020015b60405180910390f35b61012261011d3660046108f0565b610310565b005b5f54610136906001600160a01b031681565b6040516001600160a01b039091168152602001610106565b600154610136906001600160a01b031681565b6100fc60035481565b61017d61017836600461091e565b61058b565b6040516101069190610939565b6101226101983660046108f0565b6105f4565b6101226101ab3660046108f0565b610674565b600254610136906001600160a01b031681565b6100fc60045481565b6100fc6101da36600461097b565b61084c565b6102206101ed3660046108f0565b60056020525f908152604090208054600182015460028301546003909301546001600160a01b0390921692909160ff1684565b604080516001600160a01b03909516855260208501939093529183015215156060820152608001610106565b61012261025a3660046108f0565b610877565b61028461026d3660046108f0565b5f9081526005602052604090206003015460ff1690565b6040519015158152602001610106565b5f818152600560209081526040808320815160808101835281546001600160a01b031681526001820154938101939093526002810154918301919091526003015460ff161515606082018190526102ed57505f92915050565b60035460408201516102ff90426109b9565b61030991906109d2565b9392505050565b5f818152600560205260409020600381015460ff166103635760405162461bcd60e51b815260206004820152600a602482015269139bdd081cdd185ad95960b21b60448201526064015b60405180910390fd5b80546001600160a01b031633146103a95760405162461bcd60e51b815260206004820152600a6024820152692737ba1039ba30b5b2b960b11b604482015260640161035a565b60045481600201546103bb91906109e9565b4210156103ff5760405162461bcd60e51b815260206004820152601260248201527114dd185ad9481cdd1a5b1b081b1bd8dad95960721b604482015260640161035a565b5f81600201544261041091906109b9565b90505f6003548261042191906109d2565b60038401805460ff1916905560025460405163a9059cbb60e01b8152336004820152602481018390529192506001600160a01b03169063a9059cbb906044016020604051808303815f875af115801561047c573d5f5f3e3d5ffd5b505050506040513d601f19601f820116820180604052508101906104a091906109fc565b6104e55760405162461bcd60e51b815260206004820152601660248201527514995dd85c99081d1c985b9cd9995c8819985a5b195960521b604482015260640161035a565b6001546040516323b872dd60e01b8152306004820152336024820152604481018690526001600160a01b03909116906323b872dd906064015f604051808303815f87803b158015610534575f5ffd5b505af1158015610546573d5f5f3e3d5ffd5b505060408051878152602081018590523393507f7fc4727e062e336010f2c282598ef5f14facb3de68cf8195c2f23e1454b2b74e92500160405180910390a250505050565b6001600160a01b0381165f908152600660209081526040918290208054835181840281018401909452808452606093928301828280156105e857602002820191905f5260205f20905b8154815260200190600101908083116105d4575b50505050509050919050565b5f546001600160a01b031633146106385760405162461bcd60e51b81526020600482015260086024820152674f6e6c792044414f60c01b604482015260640161035a565b60038190556040518181527f41d466ebd06fb97e7786086ac8b69b7eb7da798592036251291d34e9791cde01906020015b60405180910390a150565b6001546040516331a9108f60e11b81526004810183905233916001600160a01b031690636352211e90602401602060405180830381865afa1580156106bb573d5f5f3e3d5ffd5b505050506040513d601f19601f820116820180604052508101906106df9190610a1b565b6001600160a01b0316146107255760405162461bcd60e51b815260206004820152600d60248201526c2737ba1027232a1037bbb732b960991b604482015260640161035a565b6001546040516323b872dd60e01b8152336004820152306024820152604481018390526001600160a01b03909116906323b872dd906064015f604051808303815f87803b158015610774575f5ffd5b505af1158015610786573d5f5f3e3d5ffd5b505060408051608081018252338082526020808301878152428486019081526001606086018181525f8b815260058652888120975188546001600160a01b0319166001600160a01b039091161788559351878301559151600287015590516003909501805460ff1916951515959095179094558281526006825284812080549485018155815281902090920186905591518581529193507f9e71bc8eea02a63969f509818f2dafb9254532904319f9dbda79b67bd34a5f3d92500160405180910390a250565b6006602052815f5260405f208181548110610865575f80fd5b905f5260205f20015f91509150505481565b5f546001600160a01b031633146108bb5760405162461bcd60e51b81526020600482015260086024820152674f6e6c792044414f60c01b604482015260640161035a565b60048190556040518181527f9818c566ff1cbdfdd3d75b8284cd4ca1d0b6156fd9e1708911ce0e5752ecc5c490602001610669565b5f60208284031215610900575f5ffd5b5035919050565b6001600160a01b038116811461091b575f5ffd5b50565b5f6020828403121561092e575f5ffd5b813561030981610907565b602080825282518282018190525f918401906040840190835b81811015610970578351835260209384019390920191600101610952565b509095945050505050565b5f5f6040838503121561098c575f5ffd5b823561099781610907565b946020939093013593505050565b634e487b7160e01b5f52601160045260245ffd5b818103818111156109cc576109cc6109a5565b92915050565b80820281158282048414176109cc576109cc6109a5565b808201808211156109cc576109cc6109a5565b5f60208284031215610a0c575f5ffd5b81518015158114610309575f5ffd5b5f60208284031215610a2b575f5ffd5b81516103098161090756fea264697066735822122002d4a47a4e6429e7d7616deb1722185cb387d07a87838b073f92d3c3b6dea22064736f6c634300081d0033",
					"opcodes": "PUSH1 0x80 PUSH1 0x40 MSTORE CALLVALUE DUP1 ISZERO PUSH2 0xF JUMPI PUSH0 PUSH0 REVERT JUMPDEST POP PUSH1 0x40 MLOAD PUSH2 0xC32 CODESIZE SUB DUP1 PUSH2 0xC32 DUP4 CODECOPY DUP2 ADD PUSH1 0x40 DUP2 SWAP1 MSTORE PUSH2 0x2E SWAP2 PUSH2 0x167 JUMP JUMPDEST PUSH1 0x1 PUSH1 0x1 PUSH1 0xA0 SHL SUB DUP6 AND PUSH2 0x77 JUMPI PUSH1 0x40 MLOAD PUSH3 0x461BCD PUSH1 0xE5 SHL DUP2 MSTORE PUSH1 0x20 PUSH1 0x4 DUP3 ADD MSTORE PUSH1 0xB PUSH1 0x24 DUP3 ADD MSTORE PUSH11 0x125B9D985B1A5908139195 PUSH1 0xAA SHL PUSH1 0x44 DUP3 ADD MSTORE PUSH1 0x64 ADD JUMPDEST PUSH1 0x40 MLOAD DUP1 SWAP2 SUB SWAP1 REVERT JUMPDEST PUSH1 0x1 PUSH1 0x1 PUSH1 0xA0 SHL SUB DUP5 AND PUSH2 0xBD JUMPI PUSH1 0x40 MLOAD PUSH3 0x461BCD PUSH1 0xE5 SHL DUP2 MSTORE PUSH1 0x20 PUSH1 0x4 DUP3 ADD MSTORE PUSH1 0xD PUSH1 0x24 DUP3 ADD MSTORE PUSH13 0x24B73B30B634B2103A37B5B2B7 PUSH1 0x99 SHL PUSH1 0x44 DUP3 ADD MSTORE PUSH1 0x64 ADD PUSH2 0x6E JUMP JUMPDEST PUSH1 0x1 PUSH1 0x1 PUSH1 0xA0 SHL SUB DUP4 AND PUSH2 0x101 JUMPI PUSH1 0x40 MLOAD PUSH3 0x461BCD PUSH1 0xE5 SHL DUP2 MSTORE PUSH1 0x20 PUSH1 0x4 DUP3 ADD MSTORE PUSH1 0xB PUSH1 0x24 DUP3 ADD MSTORE PUSH11 0x496E76616C69642044414F PUSH1 0xA8 SHL PUSH1 0x44 DUP3 ADD MSTORE PUSH1 0x64 ADD PUSH2 0x6E JUMP JUMPDEST PUSH1 0x1 DUP1 SLOAD PUSH1 0x1 PUSH1 0x1 PUSH1 0xA0 SHL SUB NOT SWAP1 DUP2 AND PUSH1 0x1 PUSH1 0x1 PUSH1 0xA0 SHL SUB SWAP8 DUP9 AND OR SWAP1 SWAP2 SSTORE PUSH1 0x2 DUP1 SLOAD DUP3 AND SWAP6 DUP8 AND SWAP6 SWAP1 SWAP6 OR SWAP1 SWAP5 SSTORE PUSH0 DUP1 SLOAD SWAP1 SWAP5 AND SWAP3 SWAP1 SWAP5 AND SWAP2 SWAP1 SWAP2 OR SWAP1 SWAP2 SSTORE PUSH1 0x3 SSTORE PUSH1 0x4 SSTORE PUSH2 0x1B9 JUMP JUMPDEST DUP1 MLOAD PUSH1 0x1 PUSH1 0x1 PUSH1 0xA0 SHL SUB DUP2 AND DUP2 EQ PUSH2 0x162 JUMPI PUSH0 PUSH0 REVERT JUMPDEST SWAP2 SWAP1 POP JUMP JUMPDEST PUSH0 PUSH0 PUSH0 PUSH0 PUSH0 PUSH1 0xA0 DUP7 DUP9 SUB SLT ISZERO PUSH2 0x17B JUMPI PUSH0 PUSH0 REVERT JUMPDEST PUSH2 0x184 DUP7 PUSH2 0x14C JUMP JUMPDEST SWAP5 POP PUSH2 0x192 PUSH1 0x20 DUP8 ADD PUSH2 0x14C JUMP JUMPDEST SWAP4 POP PUSH2 0x1A0 PUSH1 0x40 DUP8 ADD PUSH2 0x14C JUMP JUMPDEST PUSH1 0x60 DUP8 ADD MLOAD PUSH1 0x80 SWAP1 SWAP8 ADD MLOAD SWAP6 SWAP9 SWAP5 SWAP8 POP SWAP6 SWAP5 SWAP4 SWAP3 POP POP POP JUMP JUMPDEST PUSH2 0xA6C DUP1 PUSH2 0x1C6 PUSH0 CODECOPY PUSH0 RETURN INVALID PUSH1 0x80 PUSH1 0x40 MSTORE CALLVALUE DUP1 ISZERO PUSH2 0xF JUMPI PUSH0 PUSH0 REVERT JUMPDEST POP PUSH1 0x4 CALLDATASIZE LT PUSH2 0xE5 JUMPI PUSH0 CALLDATALOAD PUSH1 0xE0 SHR DUP1 PUSH4 0xA694FC3A GT PUSH2 0x88 JUMPI DUP1 PUSH4 0xB5D5B5FA GT PUSH2 0x63 JUMPI DUP1 PUSH4 0xB5D5B5FA EQ PUSH2 0x1CC JUMPI DUP1 PUSH4 0xD5A44F86 EQ PUSH2 0x1DF JUMPI DUP1 PUSH4 0xDEC7559F EQ PUSH2 0x24C JUMPI DUP1 PUSH4 0xF0A52424 EQ PUSH2 0x25F JUMPI PUSH0 PUSH0 REVERT JUMPDEST DUP1 PUSH4 0xA694FC3A EQ PUSH2 0x19D JUMPI DUP1 PUSH4 0xA6D74512 EQ PUSH2 0x1B0 JUMPI DUP1 PUSH4 0xA8BD7300 EQ PUSH2 0x1C3 JUMPI PUSH0 PUSH0 REVERT JUMPDEST DUP1 PUSH4 0x5BF8633A GT PUSH2 0xC3 JUMPI DUP1 PUSH4 0x5BF8633A EQ PUSH2 0x14E JUMPI DUP1 PUSH4 0x5D773B2C EQ PUSH2 0x161 JUMPI DUP1 PUSH4 0x63C28DB1 EQ PUSH2 0x16A JUMPI DUP1 PUSH4 0x9EF3A261 EQ PUSH2 0x18A JUMPI PUSH0 PUSH0 REVERT JUMPDEST DUP1 PUSH4 0x12F7086C EQ PUSH2 0xE9 JUMPI DUP1 PUSH4 0x2E17DE78 EQ PUSH2 0x10F JUMPI DUP1 PUSH4 0x4162169F EQ PUSH2 0x124 JUMPI JUMPDEST PUSH0 PUSH0 REVERT JUMPDEST PUSH2 0xFC PUSH2 0xF7 CALLDATASIZE PUSH1 0x4 PUSH2 0x8F0 JUMP JUMPDEST PUSH2 0x294 JUMP JUMPDEST PUSH1 0x40 MLOAD SWAP1 DUP2 MSTORE PUSH1 0x20 ADD JUMPDEST PUSH1 0x40 MLOAD DUP1 SWAP2 SUB SWAP1 RETURN JUMPDEST PUSH2 0x122 PUSH2 0x11D CALLDATASIZE PUSH1 0x4 PUSH2 0x8F0 JUMP JUMPDEST PUSH2 0x310 JUMP JUMPDEST STOP JUMPDEST PUSH0 SLOAD PUSH2 0x136 SWAP1 PUSH1 0x1 PUSH1 0x1 PUSH1 0xA0 SHL SUB AND DUP2 JUMP JUMPDEST PUSH1 0x40 MLOAD PUSH1 0x1 PUSH1 0x1 PUSH1 0xA0 SHL SUB SWAP1 SWAP2 AND DUP2 MSTORE PUSH1 0x20 ADD PUSH2 0x106 JUMP JUMPDEST PUSH1 0x1 SLOAD PUSH2 0x136 SWAP1 PUSH1 0x1 PUSH1 0x1 PUSH1 0xA0 SHL SUB AND DUP2 JUMP JUMPDEST PUSH2 0xFC PUSH1 0x3 SLOAD DUP2 JUMP JUMPDEST PUSH2 0x17D PUSH2 0x178 CALLDATASIZE PUSH1 0x4 PUSH2 0x91E JUMP JUMPDEST PUSH2 0x58B JUMP JUMPDEST PUSH1 0x40 MLOAD PUSH2 0x106 SWAP2 SWAP1 PUSH2 0x939 JUMP JUMPDEST PUSH2 0x122 PUSH2 0x198 CALLDATASIZE PUSH1 0x4 PUSH2 0x8F0 JUMP JUMPDEST PUSH2 0x5F4 JUMP JUMPDEST PUSH2 0x122 PUSH2 0x1AB CALLDATASIZE PUSH1 0x4 PUSH2 0x8F0 JUMP JUMPDEST PUSH2 0x674 JUMP JUMPDEST PUSH1 0x2 SLOAD PUSH2 0x136 SWAP1 PUSH1 0x1 PUSH1 0x1 PUSH1 0xA0 SHL SUB AND DUP2 JUMP JUMPDEST PUSH2 0xFC PUSH1 0x4 SLOAD DUP2 JUMP JUMPDEST PUSH2 0xFC PUSH2 0x1DA CALLDATASIZE PUSH1 0x4 PUSH2 0x97B JUMP JUMPDEST PUSH2 0x84C JUMP JUMPDEST PUSH2 0x220 PUSH2 0x1ED CALLDATASIZE PUSH1 0x4 PUSH2 0x8F0 JUMP JUMPDEST PUSH1 0x5 PUSH1 0x20 MSTORE PUSH0 SWAP1 DUP2 MSTORE PUSH1 0x40 SWAP1 KECCAK256 DUP1 SLOAD PUSH1 0x1 DUP3 ADD SLOAD PUSH1 0x2 DUP4 ADD SLOAD PUSH1 0x3 SWAP1 SWAP4 ADD SLOAD PUSH1 0x1 PUSH1 0x1 PUSH1 0xA0 SHL SUB SWAP1 SWAP3 AND SWAP3 SWAP1 SWAP2 PUSH1 0xFF AND DUP5 JUMP JUMPDEST PUSH1 0x40 DUP1 MLOAD PUSH1 0x1 PUSH1 0x1 PUSH1 0xA0 SHL SUB SWAP1 SWAP6 AND DUP6 MSTORE PUSH1 0x20 DUP6 ADD SWAP4 SWAP1 SWAP4 MSTORE SWAP2 DUP4 ADD MSTORE ISZERO ISZERO PUSH1 0x60 DUP3 ADD MSTORE PUSH1 0x80 ADD PUSH2 0x106 JUMP JUMPDEST PUSH2 0x122 PUSH2 0x25A CALLDATASIZE PUSH1 0x4 PUSH2 0x8F0 JUMP JUMPDEST PUSH2 0x877 JUMP JUMPDEST PUSH2 0x284 PUSH2 0x26D CALLDATASIZE PUSH1 0x4 PUSH2 0x8F0 JUMP JUMPDEST PUSH0 SWAP1 DUP2 MSTORE PUSH1 0x5 PUSH1 0x20 MSTORE PUSH1 0x40 SWAP1 KECCAK256 PUSH1 0x3 ADD SLOAD PUSH1 0xFF AND SWAP1 JUMP JUMPDEST PUSH1 0x40 MLOAD SWAP1 ISZERO ISZERO DUP2 MSTORE PUSH1 0x20 ADD PUSH2 0x106 JUMP JUMPDEST PUSH0 DUP2 DUP2 MSTORE PUSH1 0x5 PUSH1 0x20 SWAP1 DUP2 MSTORE PUSH1 0x40 DUP1 DUP4 KECCAK256 DUP2 MLOAD PUSH1 0x80 DUP2 ADD DUP4 MSTORE DUP2 SLOAD PUSH1 0x1 PUSH1 0x1 PUSH1 0xA0 SHL SUB AND DUP2 MSTORE PUSH1 0x1 DUP3 ADD SLOAD SWAP4 DUP2 ADD SWAP4 SWAP1 SWAP4 MSTORE PUSH1 0x2 DUP2 ADD SLOAD SWAP2 DUP4 ADD SWAP2 SWAP1 SWAP2 MSTORE PUSH1 0x3 ADD SLOAD PUSH1 0xFF AND ISZERO ISZERO PUSH1 0x60 DUP3 ADD DUP2 SWAP1 MSTORE PUSH2 0x2ED JUMPI POP PUSH0 SWAP3 SWAP2 POP POP JUMP JUMPDEST PUSH1 0x3 SLOAD PUSH1 0x40 DUP3 ADD MLOAD PUSH2 0x2FF SWAP1 TIMESTAMP PUSH2 0x9B9 JUMP JUMPDEST PUSH2 0x309 SWAP2 SWAP1 PUSH2 0x9D2 JUMP JUMPDEST SWAP4 SWAP3 POP POP POP JUMP JUMPDEST PUSH0 DUP2 DUP2 MSTORE PUSH1 0x5 PUSH1 0x20 MSTORE PUSH1 0x40 SWAP1 KECCAK256 PUSH1 0x3 DUP2 ADD SLOAD PUSH1 0xFF AND PUSH2 0x363 JUMPI PUSH1 0x40 MLOAD PUSH3 0x461BCD PUSH1 0xE5 SHL DUP2 MSTORE PUSH1 0x20 PUSH1 0x4 DUP3 ADD MSTORE PUSH1 0xA PUSH1 0x24 DUP3 ADD MSTORE PUSH10 0x139BDD081CDD185AD959 PUSH1 0xB2 SHL PUSH1 0x44 DUP3 ADD MSTORE PUSH1 0x64 ADD JUMPDEST PUSH1 0x40 MLOAD DUP1 SWAP2 SUB SWAP1 REVERT JUMPDEST DUP1 SLOAD PUSH1 0x1 PUSH1 0x1 PUSH1 0xA0 SHL SUB AND CALLER EQ PUSH2 0x3A9 JUMPI PUSH1 0x40 MLOAD PUSH3 0x461BCD PUSH1 0xE5 SHL DUP2 MSTORE PUSH1 0x20 PUSH1 0x4 DUP3 ADD MSTORE PUSH1 0xA PUSH1 0x24 DUP3 ADD MSTORE PUSH10 0x2737BA1039BA30B5B2B9 PUSH1 0xB1 SHL PUSH1 0x44 DUP3 ADD MSTORE PUSH1 0x64 ADD PUSH2 0x35A JUMP JUMPDEST PUSH1 0x4 SLOAD DUP2 PUSH1 0x2 ADD SLOAD PUSH2 0x3BB SWAP2 SWAP1 PUSH2 0x9E9 JUMP JUMPDEST TIMESTAMP LT ISZERO PUSH2 0x3FF JUMPI PUSH1 0x40 MLOAD PUSH3 0x461BCD PUSH1 0xE5 SHL DUP2 MSTORE PUSH1 0x20 PUSH1 0x4 DUP3 ADD MSTORE PUSH1 0x12 PUSH1 0x24 DUP3 ADD MSTORE PUSH18 0x14DD185AD9481CDD1A5B1B081B1BD8DAD959 PUSH1 0x72 SHL PUSH1 0x44 DUP3 ADD MSTORE PUSH1 0x64 ADD PUSH2 0x35A JUMP JUMPDEST PUSH0 DUP2 PUSH1 0x2 ADD SLOAD TIMESTAMP PUSH2 0x410 SWAP2 SWAP1 PUSH2 0x9B9 JUMP JUMPDEST SWAP1 POP PUSH0 PUSH1 0x3 SLOAD DUP3 PUSH2 0x421 SWAP2 SWAP1 PUSH2 0x9D2 JUMP JUMPDEST PUSH1 0x3 DUP5 ADD DUP1 SLOAD PUSH1 0xFF NOT AND SWAP1 SSTORE PUSH1 0x2 SLOAD PUSH1 0x40 MLOAD PUSH4 0xA9059CBB PUSH1 0xE0 SHL DUP2 MSTORE CALLER PUSH1 0x4 DUP3 ADD MSTORE PUSH1 0x24 DUP2 ADD DUP4 SWAP1 MSTORE SWAP2 SWAP3 POP PUSH1 0x1 PUSH1 0x1 PUSH1 0xA0 SHL SUB AND SWAP1 PUSH4 0xA9059CBB SWAP1 PUSH1 0x44 ADD PUSH1 0x20 PUSH1 0x40 MLOAD DUP1 DUP4 SUB DUP2 PUSH0 DUP8 GAS CALL ISZERO DUP1 ISZERO PUSH2 0x47C JUMPI RETURNDATASIZE PUSH0 PUSH0 RETURNDATACOPY RETURNDATASIZE PUSH0 REVERT JUMPDEST POP POP POP POP PUSH1 0x40 MLOAD RETURNDATASIZE PUSH1 0x1F NOT PUSH1 0x1F DUP3 ADD AND DUP3 ADD DUP1 PUSH1 0x40 MSTORE POP DUP2 ADD SWAP1 PUSH2 0x4A0 SWAP2 SWAP1 PUSH2 0x9FC JUMP JUMPDEST PUSH2 0x4E5 JUMPI PUSH1 0x40 MLOAD PUSH3 0x461BCD PUSH1 0xE5 SHL DUP2 MSTORE PUSH1 0x20 PUSH1 0x4 DUP3 ADD MSTORE PUSH1 0x16 PUSH1 0x24 DUP3 ADD MSTORE PUSH22 0x14995DD85C99081D1C985B9CD9995C8819985A5B1959 PUSH1 0x52 SHL PUSH1 0x44 DUP3 ADD MSTORE PUSH1 0x64 ADD PUSH2 0x35A JUMP JUMPDEST PUSH1 0x1 SLOAD PUSH1 0x40 MLOAD PUSH4 0x23B872DD PUSH1 0xE0 SHL DUP2 MSTORE ADDRESS PUSH1 0x4 DUP3 ADD MSTORE CALLER PUSH1 0x24 DUP3 ADD MSTORE PUSH1 0x44 DUP2 ADD DUP7 SWAP1 MSTORE PUSH1 0x1 PUSH1 0x1 PUSH1 0xA0 SHL SUB SWAP1 SWAP2 AND SWAP1 PUSH4 0x23B872DD SWAP1 PUSH1 0x64 ADD PUSH0 PUSH1 0x40 MLOAD DUP1 DUP4 SUB DUP2 PUSH0 DUP8 DUP1 EXTCODESIZE ISZERO DUP1 ISZERO PUSH2 0x534 JUMPI PUSH0 PUSH0 REVERT JUMPDEST POP GAS CALL ISZERO DUP1 ISZERO PUSH2 0x546 JUMPI RETURNDATASIZE PUSH0 PUSH0 RETURNDATACOPY RETURNDATASIZE PUSH0 REVERT JUMPDEST POP POP PUSH1 0x40 DUP1 MLOAD DUP8 DUP2 MSTORE PUSH1 0x20 DUP2 ADD DUP6 SWAP1 MSTORE CALLER SWAP4 POP PUSH32 0x7FC4727E062E336010F2C282598EF5F14FACB3DE68CF8195C2F23E1454B2B74E SWAP3 POP ADD PUSH1 0x40 MLOAD DUP1 SWAP2 SUB SWAP1 LOG2 POP POP POP POP JUMP JUMPDEST PUSH1 0x1 PUSH1 0x1 PUSH1 0xA0 SHL SUB DUP2 AND PUSH0 SWAP1 DUP2 MSTORE PUSH1 0x6 PUSH1 0x20 SWAP1 DUP2 MSTORE PUSH1 0x40 SWAP2 DUP3 SWAP1 KECCAK256 DUP1 SLOAD DUP4 MLOAD DUP2 DUP5 MUL DUP2 ADD DUP5 ADD SWAP1 SWAP5 MSTORE DUP1 DUP5 MSTORE PUSH1 0x60 SWAP4 SWAP3 DUP4 ADD DUP3 DUP3 DUP1 ISZERO PUSH2 0x5E8 JUMPI PUSH1 0x20 MUL DUP3 ADD SWAP2 SWAP1 PUSH0 MSTORE PUSH1 0x20 PUSH0 KECCAK256 SWAP1 JUMPDEST DUP2 SLOAD DUP2 MSTORE PUSH1 0x20 ADD SWAP1 PUSH1 0x1 ADD SWAP1 DUP1 DUP4 GT PUSH2 0x5D4 JUMPI JUMPDEST POP POP POP POP POP SWAP1 POP SWAP2 SWAP1 POP JUMP JUMPDEST PUSH0 SLOAD PUSH1 0x1 PUSH1 0x1 PUSH1 0xA0 SHL SUB AND CALLER EQ PUSH2 0x638 JUMPI PUSH1 0x40 MLOAD PUSH3 0x461BCD PUSH1 0xE5 SHL DUP2 MSTORE PUSH1 0x20 PUSH1 0x4 DUP3 ADD MSTORE PUSH1 0x8 PUSH1 0x24 DUP3 ADD MSTORE PUSH8 0x4F6E6C792044414F PUSH1 0xC0 SHL PUSH1 0x44 DUP3 ADD MSTORE PUSH1 0x64 ADD PUSH2 0x35A JUMP JUMPDEST PUSH1 0x3 DUP2 SWAP1 SSTORE PUSH1 0x40 MLOAD DUP2 DUP2 MSTORE PUSH32 0x41D466EBD06FB97E7786086AC8B69B7EB7DA798592036251291D34E9791CDE01 SWAP1 PUSH1 0x20 ADD JUMPDEST PUSH1 0x40 MLOAD DUP1 SWAP2 SUB SWAP1 LOG1 POP JUMP JUMPDEST PUSH1 0x1 SLOAD PUSH1 0x40 MLOAD PUSH4 0x31A9108F PUSH1 0xE1 SHL DUP2 MSTORE PUSH1 0x4 DUP2 ADD DUP4 SWAP1 MSTORE CALLER SWAP2 PUSH1 0x1 PUSH1 0x1 PUSH1 0xA0 SHL SUB AND SWAP1 PUSH4 0x6352211E SWAP1 PUSH1 0x24 ADD PUSH1 0x20 PUSH1 0x40 MLOAD DUP1 DUP4 SUB DUP2 DUP7 GAS STATICCALL ISZERO DUP1 ISZERO PUSH2 0x6BB JUMPI RETURNDATASIZE PUSH0 PUSH0 RETURNDATACOPY RETURNDATASIZE PUSH0 REVERT JUMPDEST POP POP POP POP PUSH1 0x40 MLOAD RETURNDATASIZE PUSH1 0x1F NOT PUSH1 0x1F DUP3 ADD AND DUP3 ADD DUP1 PUSH1 0x40 MSTORE POP DUP2 ADD SWAP1 PUSH2 0x6DF SWAP2 SWAP1 PUSH2 0xA1B JUMP JUMPDEST PUSH1 0x1 PUSH1 0x1 PUSH1 0xA0 SHL SUB AND EQ PUSH2 0x725 JUMPI PUSH1 0x40 MLOAD PUSH3 0x461BCD PUSH1 0xE5 SHL DUP2 MSTORE PUSH1 0x20 PUSH1 0x4 DUP3 ADD MSTORE PUSH1 0xD PUSH1 0x24 DUP3 ADD MSTORE PUSH13 0x2737BA1027232A1037BBB732B9 PUSH1 0x99 SHL PUSH1 0x44 DUP3 ADD MSTORE PUSH1 0x64 ADD PUSH2 0x35A JUMP JUMPDEST PUSH1 0x1 SLOAD PUSH1 0x40 MLOAD PUSH4 0x23B872DD PUSH1 0xE0 SHL DUP2 MSTORE CALLER PUSH1 0x4 DUP3 ADD MSTORE ADDRESS PUSH1 0x24 DUP3 ADD MSTORE PUSH1 0x44 DUP2 ADD DUP4 SWAP1 MSTORE PUSH1 0x1 PUSH1 0x1 PUSH1 0xA0 SHL SUB SWAP1 SWAP2 AND SWAP1 PUSH4 0x23B872DD SWAP1 PUSH1 0x64 ADD PUSH0 PUSH1 0x40 MLOAD DUP1 DUP4 SUB DUP2 PUSH0 DUP8 DUP1 EXTCODESIZE ISZERO DUP1 ISZERO PUSH2 0x774 JUMPI PUSH0 PUSH0 REVERT JUMPDEST POP GAS CALL ISZERO DUP1 ISZERO PUSH2 0x786 JUMPI RETURNDATASIZE PUSH0 PUSH0 RETURNDATACOPY RETURNDATASIZE PUSH0 REVERT JUMPDEST POP POP PUSH1 0x40 DUP1 MLOAD PUSH1 0x80 DUP2 ADD DUP3 MSTORE CALLER DUP1 DUP3 MSTORE PUSH1 0x20 DUP1 DUP4 ADD DUP8 DUP2 MSTORE TIMESTAMP DUP5 DUP7 ADD SWAP1 DUP2 MSTORE PUSH1 0x1 PUSH1 0x60 DUP7 ADD DUP2 DUP2 MSTORE PUSH0 DUP12 DUP2 MSTORE PUSH1 0x5 DUP7 MSTORE DUP9 DUP2 KECCAK256 SWAP8 MLOAD DUP9 SLOAD PUSH1 0x1 PUSH1 0x1 PUSH1 0xA0 SHL SUB NOT AND PUSH1 0x1 PUSH1 0x1 PUSH1 0xA0 SHL SUB SWAP1 SWAP2 AND OR DUP9 SSTORE SWAP4 MLOAD DUP8 DUP4 ADD SSTORE SWAP2 MLOAD PUSH1 0x2 DUP8 ADD SSTORE SWAP1 MLOAD PUSH1 0x3 SWAP1 SWAP6 ADD DUP1 SLOAD PUSH1 0xFF NOT AND SWAP6 ISZERO ISZERO SWAP6 SWAP1 SWAP6 OR SWAP1 SWAP5 SSTORE DUP3 DUP2 MSTORE PUSH1 0x6 DUP3 MSTORE DUP5 DUP2 KECCAK256 DUP1 SLOAD SWAP5 DUP6 ADD DUP2 SSTORE DUP2 MSTORE DUP2 SWAP1 KECCAK256 SWAP1 SWAP3 ADD DUP7 SWAP1 SSTORE SWAP2 MLOAD DUP6 DUP2 MSTORE SWAP2 SWAP4 POP PUSH32 0x9E71BC8EEA02A63969F509818F2DAFB9254532904319F9DBDA79B67BD34A5F3D SWAP3 POP ADD PUSH1 0x40 MLOAD DUP1 SWAP2 SUB SWAP1 LOG2 POP JUMP JUMPDEST PUSH1 0x6 PUSH1 0x20 MSTORE DUP2 PUSH0 MSTORE PUSH1 0x40 PUSH0 KECCAK256 DUP2 DUP2 SLOAD DUP2 LT PUSH2 0x865 JUMPI PUSH0 DUP1 REVERT JUMPDEST SWAP1 PUSH0 MSTORE PUSH1 0x20 PUSH0 KECCAK256 ADD PUSH0 SWAP2 POP SWAP2 POP POP SLOAD DUP2 JUMP JUMPDEST PUSH0 SLOAD PUSH1 0x1 PUSH1 0x1 PUSH1 0xA0 SHL SUB AND CALLER EQ PUSH2 0x8BB JUMPI PUSH1 0x40 MLOAD PUSH3 0x461BCD PUSH1 0xE5 SHL DUP2 MSTORE PUSH1 0x20 PUSH1 0x4 DUP3 ADD MSTORE PUSH1 0x8 PUSH1 0x24 DUP3 ADD MSTORE PUSH8 0x4F6E6C792044414F PUSH1 0xC0 SHL PUSH1 0x44 DUP3 ADD MSTORE PUSH1 0x64 ADD PUSH2 0x35A JUMP JUMPDEST PUSH1 0x4 DUP2 SWAP1 SSTORE PUSH1 0x40 MLOAD DUP2 DUP2 MSTORE PUSH32 0x9818C566FF1CBDFDD3D75B8284CD4CA1D0B6156FD9E1708911CE0E5752ECC5C4 SWAP1 PUSH1 0x20 ADD PUSH2 0x669 JUMP JUMPDEST PUSH0 PUSH1 0x20 DUP3 DUP5 SUB SLT ISZERO PUSH2 0x900 JUMPI PUSH0 PUSH0 REVERT JUMPDEST POP CALLDATALOAD SWAP2 SWAP1 POP JUMP JUMPDEST PUSH1 0x1 PUSH1 0x1 PUSH1 0xA0 SHL SUB DUP2 AND DUP2 EQ PUSH2 0x91B JUMPI PUSH0 PUSH0 REVERT JUMPDEST POP JUMP JUMPDEST PUSH0 PUSH1 0x20 DUP3 DUP5 SUB SLT ISZERO PUSH2 0x92E JUMPI PUSH0 PUSH0 REVERT JUMPDEST DUP2 CALLDATALOAD PUSH2 0x309 DUP2 PUSH2 0x907 JUMP JUMPDEST PUSH1 0x20 DUP1 DUP3 MSTORE DUP3 MLOAD DUP3 DUP3 ADD DUP2 SWAP1 MSTORE PUSH0 SWAP2 DUP5 ADD SWAP1 PUSH1 0x40 DUP5 ADD SWAP1 DUP4 JUMPDEST DUP2 DUP2 LT ISZERO PUSH2 0x970 JUMPI DUP4 MLOAD DUP4 MSTORE PUSH1 0x20 SWAP4 DUP5 ADD SWAP4 SWAP1 SWAP3 ADD SWAP2 PUSH1 0x1 ADD PUSH2 0x952 JUMP JUMPDEST POP SWAP1 SWAP6 SWAP5 POP POP POP POP POP JUMP JUMPDEST PUSH0 PUSH0 PUSH1 0x40 DUP4 DUP6 SUB SLT ISZERO PUSH2 0x98C JUMPI PUSH0 PUSH0 REVERT JUMPDEST DUP3 CALLDATALOAD PUSH2 0x997 DUP2 PUSH2 0x907 JUMP JUMPDEST SWAP5 PUSH1 0x20 SWAP4 SWAP1 SWAP4 ADD CALLDATALOAD SWAP4 POP POP POP JUMP JUMPDEST PUSH4 0x4E487B71 PUSH1 0xE0 SHL PUSH0 MSTORE PUSH1 0x11 PUSH1 0x4 MSTORE PUSH1 0x24 PUSH0 REVERT JUMPDEST DUP2 DUP2 SUB DUP2 DUP2 GT ISZERO PUSH2 0x9CC JUMPI PUSH2 0x9CC PUSH2 0x9A5 JUMP JUMPDEST SWAP3 SWAP2 POP POP JUMP JUMPDEST DUP1 DUP3 MUL DUP2 ISZERO DUP3 DUP3 DIV DUP5 EQ OR PUSH2 0x9CC JUMPI PUSH2 0x9CC PUSH2 0x9A5 JUMP JUMPDEST DUP1 DUP3 ADD DUP1 DUP3 GT ISZERO PUSH2 0x9CC JUMPI PUSH2 0x9CC PUSH2 0x9A5 JUMP JUMPDEST PUSH0 PUSH1 0x20 DUP3 DUP5 SUB SLT ISZERO PUSH2 0xA0C JUMPI PUSH0 PUSH0 REVERT JUMPDEST DUP2 MLOAD DUP1 ISZERO ISZERO DUP2 EQ PUSH2 0x309 JUMPI PUSH0 PUSH0 REVERT JUMPDEST PUSH0 PUSH1 0x20 DUP3 DUP5 SUB SLT ISZERO PUSH2 0xA2B JUMPI PUSH0 PUSH0 REVERT JUMPDEST DUP2 MLOAD PUSH2 0x309 DUP2 PUSH2 0x907 JUMP INVALID LOG2 PUSH5 0x6970667358 0x22 SLT KECCAK256 MUL 0xD4 LOG4 PUSH27 0x4E6429E7D7616DEB1722185CB387D07A87838B073F92D3C3B6DEA2 KECCAK256 PUSH5 0x736F6C6343 STOP ADDMOD SAR STOP CALLER "
				},
				"gasEstimates": {
					"creation": {
						"codeDepositCost": "533600",
						"executionCost": "infinite",
						"totalCost": "infinite"
					},
					"external": {
						"dao()": "2403",
						"getStakedTokens(address)": "infinite",
						"isTokenStaked(uint256)": "2541",
						"minimumStakeDuration()": "2350",
						"nftAddress()": "2359",
						"pendingReward(uint256)": "infinite",
						"rewardRatePerSecond()": "2328",
						"rhemToken()": "2381",
						"stake(uint256)": "infinite",
						"stakes(uint256)": "8935",
						"unstake(uint256)": "infinite",
						"updateMinimumDuration(uint256)": "25604",
						"updateRewardRate(uint256)": "25616",
						"userStakes(address,uint256)": "4741"
					}
				},
				"methodIdentifiers": {
					"dao()": "4162169f",
					"getStakedTokens(address)": "63c28db1",
					"isTokenStaked(uint256)": "f0a52424",
					"minimumStakeDuration()": "a8bd7300",
					"nftAddress()": "5bf8633a",
					"pendingReward(uint256)": "12f7086c",
					"rewardRatePerSecond()": "5d773b2c",
					"rhemToken()": "a6d74512",
					"stake(uint256)": "a694fc3a",
					"stakes(uint256)": "d5a44f86",
					"unstake(uint256)": "2e17de78",
					"updateMinimumDuration(uint256)": "dec7559f",
					"updateRewardRate(uint256)": "9ef3a261",
					"userStakes(address,uint256)": "b5d5b5fa"
				}
			},
			"storageLayout": {
				"storage": [
					{
						"astId": 46,
						"contract": "contracts/NFTSTaking.sol:NFTStaking",
						"label": "dao",
						"offset": 0,
						"slot": "0",
						"type": "t_address"
					},
					{
						"astId": 48,
						"contract": "contracts/NFTSTaking.sol:NFTStaking",
						"label": "nftAddress",
						"offset": 0,
						"slot": "1",
						"type": "t_address"
					},
					{
						"astId": 50,
						"contract": "contracts/NFTSTaking.sol:NFTStaking",
						"label": "rhemToken",
						"offset": 0,
						"slot": "2",
						"type": "t_address"
					},
					{
						"astId": 52,
						"contract": "contracts/NFTSTaking.sol:NFTStaking",
						"label": "rewardRatePerSecond",
						"offset": 0,
						"slot": "3",
						"type": "t_uint256"
					},
					{
						"astId": 54,
						"contract": "contracts/NFTSTaking.sol:NFTStaking",
						"label": "minimumStakeDuration",
						"offset": 0,
						"slot": "4",
						"type": "t_uint256"
					},
					{
						"astId": 68,
						"contract": "contracts/NFTSTaking.sol:NFTStaking",
						"label": "stakes",
						"offset": 0,
						"slot": "5",
						"type": "t_mapping(t_uint256,t_struct(StakeInfo)63_storage)"
					},
					{
						"astId": 73,
						"contract": "contracts/NFTSTaking.sol:NFTStaking",
						"label": "userStakes",
						"offset": 0,
						"slot": "6",
						"type": "t_mapping(t_address,t_array(t_uint256)dyn_storage)"
					}
				],
				"types": {
					"t_address": {
						"encoding": "inplace",
						"label": "address",
						"numberOfBytes": "20"
					},
					"t_array(t_uint256)dyn_storage": {
						"base": "t_uint256",
						"encoding": "dynamic_array",
						"label": "uint256[]",
						"numberOfBytes": "32"
					},
					"t_bool": {
						"encoding": "inplace",
						"label": "bool",
						"numberOfBytes": "1"
					},
					"t_mapping(t_address,t_array(t_uint256)dyn_storage)": {
						"encoding": "mapping",
						"key": "t_address",
						"label": "mapping(address => uint256[])",
						"numberOfBytes": "32",
						"value": "t_array(t_uint256)dyn_storage"
					},
					"t_mapping(t_uint256,t_struct(StakeInfo)63_storage)": {
						"encoding": "mapping",
						"key": "t_uint256",
						"label": "mapping(uint256 => struct NFTStaking.StakeInfo)",
						"numberOfBytes": "32",
						"value": "t_struct(StakeInfo)63_storage"
					},
					"t_struct(StakeInfo)63_storage": {
						"encoding": "inplace",
						"label": "struct NFTStaking.StakeInfo",
						"members": [
							{
								"astId": 56,
								"contract": "contracts/NFTSTaking.sol:NFTStaking",
								"label": "staker",
								"offset": 0,
								"slot": "0",
								"type": "t_address"
							},
							{
								"astId": 58,
								"contract": "contracts/NFTSTaking.sol:NFTStaking",
								"label": "tokenId",
								"offset": 0,
								"slot": "1",
								"type": "t_uint256"
							},
							{
								"astId": 60,
								"contract": "contracts/NFTSTaking.sol:NFTStaking",
								"label": "startTime",
								"offset": 0,
								"slot": "2",
								"type": "t_uint256"
							},
							{
								"astId": 62,
								"contract": "contracts/NFTSTaking.sol:NFTStaking",
								"label": "active",
								"offset": 0,
								"slot": "3",
								"type": "t_bool"
							}
						],
						"numberOfBytes": "128"
					},
					"t_uint256": {
						"encoding": "inplace",
						"label": "uint256",
						"numberOfBytes": "32"
					}
				}
			},
			"userdoc": {
				"kind": "user",
				"methods": {},
				"version": 1
			}
		}
	}
}