{
	"contracts/NFTMarketplace.sol": {
		"NFTMarketplace": {
			"abi": [
				{
					"inputs": [
						{
							"internalType": "address",
							"name": "_nft",
							"type": "address"
						},
						{
							"internalType": "address",
							"name": "_rhem",
							"type": "address"
						},
						{
							"internalType": "address",
							"name": "_dao",
							"type": "address"
						},
						{
							"internalType": "address",
							"name": "_devWallet",
							"type": "address"
						}
					],
					"stateMutability": "nonpayable",
					"type": "constructor"
				},
				{
					"anonymous": false,
					"inputs": [
						{
							"indexed": false,
							"internalType": "uint256",
							"name": "listingFee",
							"type": "uint256"
						},
						{
							"indexed": false,
							"internalType": "uint256",
							"name": "saleFee",
							"type": "uint256"
						}
					],
					"name": "FeesUpdated",
					"type": "event"
				},
				{
					"anonymous": false,
					"inputs": [
						{
							"indexed": true,
							"internalType": "address",
							"name": "seller",
							"type": "address"
						},
						{
							"indexed": true,
							"internalType": "uint256",
							"name": "tokenId",
							"type": "uint256"
						},
						{
							"indexed": false,
							"internalType": "uint256",
							"name": "price",
							"type": "uint256"
						}
					],
					"name": "NFTListed",
					"type": "event"
				},
				{
					"anonymous": false,
					"inputs": [
						{
							"indexed": true,
							"internalType": "address",
							"name": "buyer",
							"type": "address"
						},
						{
							"indexed": true,
							"internalType": "address",
							"name": "seller",
							"type": "address"
						},
						{
							"indexed": true,
							"internalType": "uint256",
							"name": "tokenId",
							"type": "uint256"
						},
						{
							"indexed": false,
							"internalType": "uint256",
							"name": "price",
							"type": "uint256"
						}
					],
					"name": "NFTPurchased",
					"type": "event"
				},
				{
					"anonymous": false,
					"inputs": [
						{
							"indexed": true,
							"internalType": "address",
							"name": "seller",
							"type": "address"
						},
						{
							"indexed": true,
							"internalType": "uint256",
							"name": "tokenId",
							"type": "uint256"
						}
					],
					"name": "NFTUnlisted",
					"type": "event"
				},
				{
					"inputs": [
						{
							"internalType": "uint256",
							"name": "tokenId",
							"type": "uint256"
						}
					],
					"name": "buyNFT",
					"outputs": [],
					"stateMutability": "nonpayable",
					"type": "function"
				},
				{
					"inputs": [],
					"name": "dao",
					"outputs": [
						{
							"internalType": "address",
							"name": "",
							"type": "address"
						}
					],
					"stateMutability": "view",
					"type": "function"
				},
				{
					"inputs": [],
					"name": "devWallet",
					"outputs": [
						{
							"internalType": "address",
							"name": "",
							"type": "address"
						}
					],
					"stateMutability": "view",
					"type": "function"
				},
				{
					"inputs": [
						{
							"internalType": "uint256",
							"name": "tokenId",
							"type": "uint256"
						}
					],
					"name": "getListing",
					"outputs": [
						{
							"internalType": "address",
							"name": "",
							"type": "address"
						},
						{
							"internalType": "uint256",
							"name": "",
							"type": "uint256"
						}
					],
					"stateMutability": "view",
					"type": "function"
				},
				{
					"inputs": [
						{
							"internalType": "uint256",
							"name": "tokenId",
							"type": "uint256"
						},
						{
							"internalType": "uint256",
							"name": "price",
							"type": "uint256"
						}
					],
					"name": "listNFT",
					"outputs": [],
					"stateMutability": "nonpayable",
					"type": "function"
				},
				{
					"inputs": [],
					"name": "listingFee",
					"outputs": [
						{
							"internalType": "uint256",
							"name": "",
							"type": "uint256"
						}
					],
					"stateMutability": "view",
					"type": "function"
				},
				{
					"inputs": [
						{
							"internalType": "uint256",
							"name": "",
							"type": "uint256"
						}
					],
					"name": "listings",
					"outputs": [
						{
							"internalType": "address",
							"name": "seller",
							"type": "address"
						},
						{
							"internalType": "uint256",
							"name": "price",
							"type": "uint256"
						}
					],
					"stateMutability": "view",
					"type": "function"
				},
				{
					"inputs": [
						{
							"internalType": "string",
							"name": "uri",
							"type": "string"
						}
					],
					"name": "mintNFT",
					"outputs": [],
					"stateMutability": "nonpayable",
					"type": "function"
				},
				{
					"inputs": [],
					"name": "nftContract",
					"outputs": [
						{
							"internalType": "address",
							"name": "",
							"type": "address"
						}
					],
					"stateMutability": "view",
					"type": "function"
				},
				{
					"inputs": [],
					"name": "rhemToken",
					"outputs": [
						{
							"internalType": "address",
							"name": "",
							"type": "address"
						}
					],
					"stateMutability": "view",
					"type": "function"
				},
				{
					"inputs": [],
					"name": "saleFee",
					"outputs": [
						{
							"internalType": "uint256",
							"name": "",
							"type": "uint256"
						}
					],
					"stateMutability": "view",
					"type": "function"
				},
				{
					"inputs": [
						{
							"internalType": "uint256",
							"name": "tokenId",
							"type": "uint256"
						}
					],
					"name": "unlistNFT",
					"outputs": [],
					"stateMutability": "nonpayable",
					"type": "function"
				},
				{
					"inputs": [
						{
							"internalType": "uint256",
							"name": "_listingFee",
							"type": "uint256"
						},
						{
							"internalType": "uint256",
							"name": "_saleFee",
							"type": "uint256"
						}
					],
					"name": "updateFees",
					"outputs": [],
					"stateMutability": "nonpayable",
					"type": "function"
				}
			],
			"devdoc": {
				"kind": "dev",
				"methods": {},
				"version": 1
			},
			"evm": {
				"assembly": "    /* \"contracts/NFTMarketplace.sol\":503:3995  contract NFTMarketplace {... */\n  mstore(0x40, 0x80)\n    /* \"contracts/NFTMarketplace.sol\":1334:1770  constructor(address _nft, address _rhem, address _dao, address _devWallet) {... */\n  callvalue\n  dup1\n  iszero\n  tag_1\n  jumpi\n  revert(0x00, 0x00)\ntag_1:\n  pop\n  mload(0x40)\n  sub(codesize, bytecodeSize)\n  dup1\n  bytecodeSize\n  dup4\n  codecopy\n  dup2\n  add\n  0x40\n  dup2\n  swap1\n  mstore\n  tag_2\n  swap2\n  tag_3\n  jump\t// in\ntag_2:\n  sub(shl(0xa0, 0x01), 0x01)\n    /* \"contracts/NFTMarketplace.sol\":1428:1446  _nft != address(0) */\n  dup5\n  and\n  iszero\n  dup1\n  iszero\n  swap1\n    /* \"contracts/NFTMarketplace.sol\":1428:1469  _nft != address(0) && _rhem != address(0) */\n  tag_6\n  jumpi\n  pop\n  sub(shl(0xa0, 0x01), 0x01)\n    /* \"contracts/NFTMarketplace.sol\":1450:1469  _rhem != address(0) */\n  dup4\n  and\n  iszero\n  iszero\n    /* \"contracts/NFTMarketplace.sol\":1428:1469  _nft != address(0) && _rhem != address(0) */\ntag_6:\n    /* \"contracts/NFTMarketplace.sol\":1428:1491  _nft != address(0) && _rhem != address(0) && _dao != address(0) */\n  dup1\n  iszero\n  tag_7\n  jumpi\n  pop\n  sub(shl(0xa0, 0x01), 0x01)\n    /* \"contracts/NFTMarketplace.sol\":1473:1491  _dao != address(0) */\n  dup3\n  and\n  iszero\n  iszero\n    /* \"contracts/NFTMarketplace.sol\":1428:1491  _nft != address(0) && _rhem != address(0) && _dao != address(0) */\ntag_7:\n    /* \"contracts/NFTMarketplace.sol\":1428:1519  _nft != address(0) && _rhem != address(0) && _dao != address(0) && _devWallet != address(0) */\n  dup1\n  iszero\n  tag_8\n  jumpi\n  pop\n  sub(shl(0xa0, 0x01), 0x01)\n    /* \"contracts/NFTMarketplace.sol\":1495:1519  _devWallet != address(0) */\n  dup2\n  and\n  iszero\n  iszero\n    /* \"contracts/NFTMarketplace.sol\":1428:1519  _nft != address(0) && _rhem != address(0) && _dao != address(0) && _devWallet != address(0) */\ntag_8:\n    /* \"contracts/NFTMarketplace.sol\":1420:1539  require(_nft != address(0) && _rhem != address(0) && _dao != address(0) && _devWallet != address(0), \"Invalid address\") */\n  tag_9\n  jumpi\n  mload(0x40)\n  shl(0xe5, 0x461bcd)\n  dup2\n  mstore\n    /* \"#utility.yul\":867:869   */\n  0x20\n    /* \"contracts/NFTMarketplace.sol\":1420:1539  require(_nft != address(0) && _rhem != address(0) && _dao != address(0) && _devWallet != address(0), \"Invalid address\") */\n  0x04\n  dup3\n  add\n    /* \"#utility.yul\":849:870   */\n  mstore\n    /* \"#utility.yul\":906:908   */\n  0x0f\n    /* \"#utility.yul\":886:904   */\n  0x24\n  dup3\n  add\n    /* \"#utility.yul\":879:909   */\n  mstore\n  shl(0x88, 0x496e76616c69642061646472657373)\n    /* \"#utility.yul\":925:943   */\n  0x44\n  dup3\n  add\n    /* \"#utility.yul\":918:963   */\n  mstore\n    /* \"#utility.yul\":980:998   */\n  0x64\n  add\n    /* \"contracts/NFTMarketplace.sol\":1420:1539  require(_nft != address(0) && _rhem != address(0) && _dao != address(0) && _devWallet != address(0), \"Invalid address\") */\n  mload(0x40)\n  dup1\n  swap2\n  sub\n  swap1\n  revert\ntag_9:\n    /* \"contracts/NFTMarketplace.sol\":1550:1561  nftContract */\n  0x00\n    /* \"contracts/NFTMarketplace.sol\":1550:1568  nftContract = _nft */\n  dup1\n  sload\n  sub(shl(0xa0, 0x01), 0x01)\n  swap6\n  dup7\n  and\n  not(sub(shl(0xa0, 0x01), 0x01))\n  swap2\n  dup3\n  and\n  or\n  swap1\n  swap2\n  sstore\n  0x01\n    /* \"contracts/NFTMarketplace.sol\":1579:1596  rhemToken = _rhem */\n  dup1\n  sload\n  swap5\n  dup7\n  and\n  swap5\n  dup3\n  and\n  swap5\n  swap1\n  swap5\n  or\n  swap1\n  swap4\n  sstore\n    /* \"contracts/NFTMarketplace.sol\":1607:1610  dao */\n  0x02\n    /* \"contracts/NFTMarketplace.sol\":1607:1617  dao = _dao */\n  dup1\n  sload\n  swap3\n  dup6\n  and\n  swap3\n  dup5\n  and\n  swap3\n  swap1\n  swap3\n  or\n  swap1\n  swap2\n  sstore\n    /* \"contracts/NFTMarketplace.sol\":1628:1637  devWallet */\n  0x03\n    /* \"contracts/NFTMarketplace.sol\":1628:1650  devWallet = _devWallet */\n  dup1\n  sload\n  swap2\n  swap1\n  swap4\n  and\n  swap2\n  and\n  or\n  swap1\n  sstore\n    /* \"contracts/NFTMarketplace.sol\":1674:1678  1e18 */\n  0x0de0b6b3a7640000\n    /* \"contracts/NFTMarketplace.sol\":1661:1671  listingFee */\n  0x04\n    /* \"contracts/NFTMarketplace.sol\":1661:1678  listingFee = 1e18 */\n  sstore\n    /* \"contracts/NFTMarketplace.sol\":1717:1719  75 */\n  0x4b\n    /* \"contracts/NFTMarketplace.sol\":1707:1714  saleFee */\n  0x05\n    /* \"contracts/NFTMarketplace.sol\":1707:1719  saleFee = 75 */\n  sstore\n    /* \"contracts/NFTMarketplace.sol\":503:3995  contract NFTMarketplace {... */\n  jump(tag_14)\n    /* \"#utility.yul\":14:191   */\ntag_13:\n    /* \"#utility.yul\":93:106   */\n  dup1\n  mload\n  sub(shl(0xa0, 0x01), 0x01)\n    /* \"#utility.yul\":135:166   */\n  dup2\n  and\n    /* \"#utility.yul\":125:167   */\n  dup2\n  eq\n    /* \"#utility.yul\":115:185   */\n  tag_16\n  jumpi\n    /* \"#utility.yul\":181:182   */\n  0x00\n    /* \"#utility.yul\":178:179   */\n  0x00\n    /* \"#utility.yul\":171:183   */\n  revert\n    /* \"#utility.yul\":115:185   */\ntag_16:\n    /* \"#utility.yul\":14:191   */\n  swap2\n  swap1\n  pop\n  jump\t// out\n    /* \"#utility.yul\":196:660   */\ntag_3:\n    /* \"#utility.yul\":293:299   */\n  0x00\n    /* \"#utility.yul\":301:307   */\n  0x00\n    /* \"#utility.yul\":309:315   */\n  0x00\n    /* \"#utility.yul\":317:323   */\n  0x00\n    /* \"#utility.yul\":370:373   */\n  0x80\n    /* \"#utility.yul\":358:367   */\n  dup6\n    /* \"#utility.yul\":349:356   */\n  dup8\n    /* \"#utility.yul\":345:368   */\n  sub\n    /* \"#utility.yul\":341:374   */\n  slt\n    /* \"#utility.yul\":338:391   */\n  iszero\n  tag_18\n  jumpi\n    /* \"#utility.yul\":387:388   */\n  0x00\n    /* \"#utility.yul\":384:385   */\n  0x00\n    /* \"#utility.yul\":377:389   */\n  revert\n    /* \"#utility.yul\":338:391   */\ntag_18:\n    /* \"#utility.yul\":410:450   */\n  tag_19\n    /* \"#utility.yul\":440:449   */\n  dup6\n    /* \"#utility.yul\":410:450   */\n  tag_13\n  jump\t// in\ntag_19:\n    /* \"#utility.yul\":400:450   */\n  swap4\n  pop\n    /* \"#utility.yul\":469:518   */\n  tag_20\n    /* \"#utility.yul\":514:516   */\n  0x20\n    /* \"#utility.yul\":503:512   */\n  dup7\n    /* \"#utility.yul\":499:517   */\n  add\n    /* \"#utility.yul\":469:518   */\n  tag_13\n  jump\t// in\ntag_20:\n    /* \"#utility.yul\":459:518   */\n  swap3\n  pop\n    /* \"#utility.yul\":537:586   */\n  tag_21\n    /* \"#utility.yul\":582:584   */\n  0x40\n    /* \"#utility.yul\":571:580   */\n  dup7\n    /* \"#utility.yul\":567:585   */\n  add\n    /* \"#utility.yul\":537:586   */\n  tag_13\n  jump\t// in\ntag_21:\n    /* \"#utility.yul\":527:586   */\n  swap2\n  pop\n    /* \"#utility.yul\":605:654   */\n  tag_22\n    /* \"#utility.yul\":650:652   */\n  0x60\n    /* \"#utility.yul\":639:648   */\n  dup7\n    /* \"#utility.yul\":635:653   */\n  add\n    /* \"#utility.yul\":605:654   */\n  tag_13\n  jump\t// in\ntag_22:\n    /* \"#utility.yul\":595:654   */\n  swap1\n  pop\n    /* \"#utility.yul\":196:660   */\n  swap3\n  swap6\n  swap2\n  swap5\n  pop\n  swap3\n  pop\n  jump\t// out\n    /* \"#utility.yul\":665:1004   */\ntag_14:\n    /* \"contracts/NFTMarketplace.sol\":503:3995  contract NFTMarketplace {... */\n  dataSize(sub_0)\n  dup1\n  dataOffset(sub_0)\n  0x00\n  codecopy\n  0x00\n  return\nstop\n\nsub_0: assembly {\n        /* \"contracts/NFTMarketplace.sol\":503:3995  contract NFTMarketplace {... */\n      mstore(0x40, 0x80)\n      callvalue\n      dup1\n      iszero\n      tag_1\n      jumpi\n      revert(0x00, 0x00)\n    tag_1:\n      pop\n      jumpi(tag_2, lt(calldatasize, 0x04))\n      shr(0xe0, calldataload(0x00))\n      dup1\n      0x8ea5220f\n      gt\n      tag_16\n      jumpi\n      dup1\n      0xa6d74512\n      gt\n      tag_17\n      jumpi\n      dup1\n      0xa6d74512\n      eq\n      tag_12\n      jumpi\n      dup1\n      0xd56d229d\n      eq\n      tag_13\n      jumpi\n      dup1\n      0xde74e57b\n      eq\n      tag_14\n      jumpi\n      dup1\n      0xfb37e883\n      eq\n      tag_15\n      jumpi\n      revert(0x00, 0x00)\n    tag_17:\n      dup1\n      0x8ea5220f\n      eq\n      tag_9\n      jumpi\n      dup1\n      0x94383f14\n      eq\n      tag_10\n      jumpi\n      dup1\n      0x961f0944\n      eq\n      tag_11\n      jumpi\n      revert(0x00, 0x00)\n    tag_16:\n      dup1\n      0x107a274a\n      eq\n      tag_3\n      jumpi\n      dup1\n      0x178021e3\n      eq\n      tag_4\n      jumpi\n      dup1\n      0x4162169f\n      eq\n      tag_5\n      jumpi\n      dup1\n      0x51ed8288\n      eq\n      tag_6\n      jumpi\n      dup1\n      0x6a1b7ecc\n      eq\n      tag_7\n      jumpi\n      dup1\n      0x6db79437\n      eq\n      tag_8\n      jumpi\n    tag_2:\n      revert(0x00, 0x00)\n        /* \"contracts/NFTMarketplace.sol\":3804:3992  function getListing(uint256 tokenId) external view returns (address, uint256) {... */\n    tag_3:\n      tag_18\n      tag_19\n      calldatasize\n      0x04\n      tag_20\n      jump\t// in\n    tag_19:\n        /* \"contracts/NFTMarketplace.sol\":3864:3871  address */\n      0x00\n        /* \"contracts/NFTMarketplace.sol\":3918:3935  listings[tokenId] */\n      swap1\n      dup2\n      mstore\n        /* \"contracts/NFTMarketplace.sol\":3918:3926  listings */\n      0x06\n        /* \"contracts/NFTMarketplace.sol\":3918:3935  listings[tokenId] */\n      0x20\n      swap1\n      dup2\n      mstore\n      0x40\n      swap2\n      dup3\n      swap1\n      keccak256\n        /* \"contracts/NFTMarketplace.sol\":3893:3935  Listing memory listing = listings[tokenId] */\n      dup3\n      mload\n      dup1\n      dup5\n      add\n      swap1\n      swap4\n      mstore\n      dup1\n      sload\n      sub(shl(0xa0, 0x01), 0x01)\n      and\n      dup1\n      dup5\n      mstore\n      0x01\n      swap1\n      swap2\n      add\n      sload\n      swap3\n      swap1\n      swap2\n      add\n      dup3\n      swap1\n      mstore\n      swap2\n        /* \"contracts/NFTMarketplace.sol\":3804:3992  function getListing(uint256 tokenId) external view returns (address, uint256) {... */\n      jump\n    tag_18:\n      0x40\n      dup1\n      mload\n      sub(shl(0xa0, 0x01), 0x01)\n        /* \"#utility.yul\":437:469   */\n      swap1\n      swap4\n      and\n        /* \"#utility.yul\":419:470   */\n      dup4\n      mstore\n        /* \"#utility.yul\":501:503   */\n      0x20\n        /* \"#utility.yul\":486:504   */\n      dup4\n      add\n        /* \"#utility.yul\":479:513   */\n      swap2\n      swap1\n      swap2\n      mstore\n        /* \"#utility.yul\":392:410   */\n      add\n        /* \"contracts/NFTMarketplace.sol\":3804:3992  function getListing(uint256 tokenId) external view returns (address, uint256) {... */\n    tag_22:\n      mload(0x40)\n      dup1\n      swap2\n      sub\n      swap1\n      return\n        /* \"contracts/NFTMarketplace.sol\":699:721  uint256 public saleFee */\n    tag_4:\n      tag_24\n      sload(0x05)\n      dup2\n      jump\n    tag_24:\n      mload(0x40)\n        /* \"#utility.yul\":670:695   */\n      swap1\n      dup2\n      mstore\n        /* \"#utility.yul\":658:660   */\n      0x20\n        /* \"#utility.yul\":643:661   */\n      add\n        /* \"contracts/NFTMarketplace.sol\":699:721  uint256 public saleFee */\n      tag_22\n        /* \"#utility.yul\":524:701   */\n      jump\n        /* \"contracts/NFTMarketplace.sol\":598:616  address public dao */\n    tag_5:\n      sload(0x02)\n      tag_28\n      swap1\n      sub(shl(0xa0, 0x01), 0x01)\n      and\n      dup2\n      jump\n    tag_28:\n      mload(0x40)\n      sub(shl(0xa0, 0x01), 0x01)\n        /* \"#utility.yul\":870:902   */\n      swap1\n      swap2\n      and\n        /* \"#utility.yul\":852:903   */\n      dup2\n      mstore\n        /* \"#utility.yul\":840:842   */\n      0x20\n        /* \"#utility.yul\":825:843   */\n      add\n        /* \"contracts/NFTMarketplace.sol\":598:616  address public dao */\n      tag_22\n        /* \"#utility.yul\":706:909   */\n      jump\n        /* \"contracts/NFTMarketplace.sol\":2715:3676  function buyNFT(uint256 tokenId) external {... */\n    tag_6:\n      tag_32\n      tag_33\n      calldatasize\n      0x04\n      tag_20\n      jump\t// in\n    tag_33:\n      tag_34\n      jump\t// in\n    tag_32:\n      stop\n        /* \"contracts/NFTMarketplace.sol\":654:679  uint256 public listingFee */\n    tag_7:\n      tag_24\n      sload(0x04)\n      dup2\n      jump\n        /* \"contracts/NFTMarketplace.sol\":1778:2028  function updateFees(uint256 _listingFee, uint256 _saleFee) external onlyDAO {... */\n    tag_8:\n      tag_32\n      tag_39\n      calldatasize\n      0x04\n      tag_40\n      jump\t// in\n    tag_39:\n      tag_41\n      jump\t// in\n        /* \"contracts/NFTMarketplace.sol\":623:647  address public devWallet */\n    tag_9:\n      sload(0x03)\n      tag_28\n      swap1\n      sub(shl(0xa0, 0x01), 0x01)\n      and\n      dup2\n      jump\n        /* \"contracts/NFTMarketplace.sol\":2036:2448  function listNFT(uint256 tokenId, uint256 price) external {... */\n    tag_10:\n      tag_32\n      tag_46\n      calldatasize\n      0x04\n      tag_40\n      jump\t// in\n    tag_46:\n      tag_47\n      jump\t// in\n        /* \"contracts/NFTMarketplace.sol\":2456:2707  function unlistNFT(uint256 tokenId) external {... */\n    tag_11:\n      tag_32\n      tag_49\n      calldatasize\n      0x04\n      tag_20\n      jump\t// in\n    tag_49:\n      tag_50\n      jump\t// in\n        /* \"contracts/NFTMarketplace.sol\":567:591  address public rhemToken */\n    tag_12:\n      sload(0x01)\n      tag_28\n      swap1\n      sub(shl(0xa0, 0x01), 0x01)\n      and\n      dup2\n      jump\n        /* \"contracts/NFTMarketplace.sol\":534:560  address public nftContract */\n    tag_13:\n      sload(0x00)\n      tag_28\n      swap1\n      sub(shl(0xa0, 0x01), 0x01)\n      and\n      dup2\n      jump\n        /* \"contracts/NFTMarketplace.sol\":852:895  mapping(uint256 => Listing) public listings */\n    tag_14:\n      tag_18\n      tag_58\n      calldatasize\n      0x04\n      tag_20\n      jump\t// in\n    tag_58:\n      mstore(0x20, 0x06)\n      0x00\n      swap1\n      dup2\n      mstore\n      0x40\n      swap1\n      keccak256\n      dup1\n      sload\n      0x01\n      swap1\n      swap2\n      add\n      sload\n      sub(shl(0xa0, 0x01), 0x01)\n      swap1\n      swap2\n      and\n      swap1\n      dup3\n      jump\n        /* \"contracts/NFTMarketplace.sol\":3684:3796  function mintNFT(string calldata uri) external onlyDAO {... */\n    tag_15:\n      tag_32\n      tag_62\n      calldatasize\n      0x04\n      tag_63\n      jump\t// in\n    tag_62:\n      tag_64\n      jump\t// in\n        /* \"contracts/NFTMarketplace.sol\":2715:3676  function buyNFT(uint256 tokenId) external {... */\n    tag_34:\n        /* \"contracts/NFTMarketplace.sol\":2768:2790  Listing memory listing */\n      0x00\n        /* \"contracts/NFTMarketplace.sol\":2793:2810  listings[tokenId] */\n      dup2\n      dup2\n      mstore\n        /* \"contracts/NFTMarketplace.sol\":2793:2801  listings */\n      0x06\n        /* \"contracts/NFTMarketplace.sol\":2793:2810  listings[tokenId] */\n      0x20\n      swap1\n      dup2\n      mstore\n      0x40\n      swap2\n      dup3\n      swap1\n      keccak256\n        /* \"contracts/NFTMarketplace.sol\":2768:2810  Listing memory listing = listings[tokenId] */\n      dup3\n      mload\n      dup1\n      dup5\n      add\n      swap1\n      swap4\n      mstore\n      dup1\n      sload\n      sub(shl(0xa0, 0x01), 0x01)\n      and\n      dup4\n      mstore\n      0x01\n      add\n      sload\n      swap1\n      dup3\n      add\n      dup2\n      swap1\n      mstore\n        /* \"contracts/NFTMarketplace.sol\":2821:2861  require(listing.price > 0, \"Not listed\") */\n      tag_67\n      jumpi\n      mload(0x40)\n      shl(0xe5, 0x461bcd)\n      dup2\n      mstore\n        /* \"#utility.yul\":2059:2061   */\n      0x20\n        /* \"contracts/NFTMarketplace.sol\":2821:2861  require(listing.price > 0, \"Not listed\") */\n      0x04\n      dup3\n      add\n        /* \"#utility.yul\":2041:2062   */\n      mstore\n        /* \"#utility.yul\":2098:2100   */\n      0x0a\n        /* \"#utility.yul\":2078:2096   */\n      0x24\n      dup3\n      add\n        /* \"#utility.yul\":2071:2101   */\n      mstore\n      shl(0xb2, 0x139bdd081b1a5cdd1959)\n        /* \"#utility.yul\":2117:2135   */\n      0x44\n      dup3\n      add\n        /* \"#utility.yul\":2110:2150   */\n      mstore\n        /* \"#utility.yul\":2167:2185   */\n      0x64\n      add\n        /* \"contracts/NFTMarketplace.sol\":2821:2861  require(listing.price > 0, \"Not listed\") */\n    tag_68:\n      mload(0x40)\n      dup1\n      swap2\n      sub\n      swap1\n      revert\n    tag_67:\n        /* \"contracts/NFTMarketplace.sol\":2874:2885  uint256 fee */\n      0x00\n        /* \"contracts/NFTMarketplace.sol\":2916:2921  10000 */\n      0x2710\n        /* \"contracts/NFTMarketplace.sol\":2905:2912  saleFee */\n      sload(0x05)\n        /* \"contracts/NFTMarketplace.sol\":2889:2896  listing */\n      dup4\n        /* \"contracts/NFTMarketplace.sol\":2889:2902  listing.price */\n      0x20\n      add\n      mload\n        /* \"contracts/NFTMarketplace.sol\":2889:2912  listing.price * saleFee */\n      tag_70\n      swap2\n      swap1\n      tag_71\n      jump\t// in\n    tag_70:\n        /* \"contracts/NFTMarketplace.sol\":2888:2921  (listing.price * saleFee) / 10000 */\n      tag_72\n      swap2\n      swap1\n      tag_73\n      jump\t// in\n    tag_72:\n        /* \"contracts/NFTMarketplace.sol\":2874:2921  uint256 fee = (listing.price * saleFee) / 10000 */\n      swap1\n      pop\n        /* \"contracts/NFTMarketplace.sol\":2932:2947  uint256 burnFee */\n      0x00\n        /* \"contracts/NFTMarketplace.sol\":2973:2978  10000 */\n      0x2710\n        /* \"contracts/NFTMarketplace.sol\":2951:2958  listing */\n      dup4\n        /* \"contracts/NFTMarketplace.sol\":2951:2964  listing.price */\n      0x20\n      add\n      mload\n        /* \"contracts/NFTMarketplace.sol\":2967:2969  50 */\n      0x32\n        /* \"contracts/NFTMarketplace.sol\":2951:2969  listing.price * 50 */\n      tag_74\n      swap2\n      swap1\n      tag_71\n      jump\t// in\n    tag_74:\n        /* \"contracts/NFTMarketplace.sol\":2950:2978  (listing.price * 50) / 10000 */\n      tag_75\n      swap2\n      swap1\n      tag_73\n      jump\t// in\n    tag_75:\n        /* \"contracts/NFTMarketplace.sol\":2932:2978  uint256 burnFee = (listing.price * 50) / 10000 */\n      swap1\n      pop\n        /* \"contracts/NFTMarketplace.sol\":2997:3011  uint256 devFee */\n      0x00\n        /* \"contracts/NFTMarketplace.sol\":3014:3027  fee - burnFee */\n      tag_76\n        /* \"contracts/NFTMarketplace.sol\":2932:2978  uint256 burnFee = (listing.price * 50) / 10000 */\n      dup3\n        /* \"contracts/NFTMarketplace.sol\":3014:3017  fee */\n      dup5\n        /* \"contracts/NFTMarketplace.sol\":3014:3027  fee - burnFee */\n      tag_77\n      jump\t// in\n    tag_76:\n        /* \"contracts/NFTMarketplace.sol\":2997:3027  uint256 devFee = fee - burnFee */\n      swap1\n      pop\n        /* \"contracts/NFTMarketplace.sol\":3038:3058  uint256 sellerAmount */\n      0x00\n        /* \"contracts/NFTMarketplace.sol\":3077:3080  fee */\n      dup4\n        /* \"contracts/NFTMarketplace.sol\":3061:3068  listing */\n      dup6\n        /* \"contracts/NFTMarketplace.sol\":3061:3074  listing.price */\n      0x20\n      add\n      mload\n        /* \"contracts/NFTMarketplace.sol\":3061:3080  listing.price - fee */\n      tag_78\n      swap2\n      swap1\n      tag_77\n      jump\t// in\n    tag_78:\n        /* \"contracts/NFTMarketplace.sol\":3108:3117  rhemToken */\n      sload(0x01)\n        /* \"contracts/NFTMarketplace.sol\":3159:3172  listing.price */\n      0x20\n      dup8\n      add\n      mload\n        /* \"contracts/NFTMarketplace.sol\":3101:3173  IERC20(rhemToken).transferFrom(msg.sender, address(this), listing.price) */\n      mload(0x40)\n      shl(0xe0, 0x23b872dd)\n      dup2\n      mstore\n        /* \"contracts/NFTMarketplace.sol\":3132:3142  msg.sender */\n      caller\n        /* \"contracts/NFTMarketplace.sol\":3101:3173  IERC20(rhemToken).transferFrom(msg.sender, address(this), listing.price) */\n      0x04\n      dup3\n      add\n        /* \"#utility.yul\":3058:3109   */\n      mstore\n        /* \"contracts/NFTMarketplace.sol\":3152:3156  this */\n      address\n        /* \"#utility.yul\":3125:3143   */\n      0x24\n      dup3\n      add\n        /* \"#utility.yul\":3118:3178   */\n      mstore\n        /* \"#utility.yul\":3194:3212   */\n      0x44\n      dup2\n      add\n        /* \"#utility.yul\":3187:3221   */\n      swap2\n      swap1\n      swap2\n      mstore\n        /* \"contracts/NFTMarketplace.sol\":3038:3080  uint256 sellerAmount = listing.price - fee */\n      swap2\n      swap3\n      pop\n      sub(shl(0xa0, 0x01), 0x01)\n        /* \"contracts/NFTMarketplace.sol\":3108:3117  rhemToken */\n      and\n      swap1\n        /* \"contracts/NFTMarketplace.sol\":3101:3131  IERC20(rhemToken).transferFrom */\n      0x23b872dd\n      swap1\n        /* \"#utility.yul\":3031:3049   */\n      0x64\n      add\n        /* \"contracts/NFTMarketplace.sol\":3101:3173  IERC20(rhemToken).transferFrom(msg.sender, address(this), listing.price) */\n      0x20\n      mload(0x40)\n      dup1\n      dup4\n      sub\n      dup2\n      0x00\n      dup8\n      gas\n      call\n      iszero\n      dup1\n      iszero\n      tag_82\n      jumpi\n      returndatacopy(0x00, 0x00, returndatasize)\n      revert(0x00, returndatasize)\n    tag_82:\n      pop\n      pop\n      pop\n      pop\n      mload(0x40)\n      returndatasize\n      not(0x1f)\n      0x1f\n      dup3\n      add\n      and\n      dup3\n      add\n      dup1\n      0x40\n      mstore\n      pop\n      dup2\n      add\n      swap1\n      tag_83\n      swap2\n      swap1\n      tag_84\n      jump\t// in\n    tag_83:\n        /* \"contracts/NFTMarketplace.sol\":3093:3192  require(IERC20(rhemToken).transferFrom(msg.sender, address(this), listing.price), \"Payment failed\") */\n      tag_85\n      jumpi\n      mload(0x40)\n      shl(0xe5, 0x461bcd)\n      dup2\n      mstore\n        /* \"#utility.yul\":3716:3718   */\n      0x20\n        /* \"contracts/NFTMarketplace.sol\":3093:3192  require(IERC20(rhemToken).transferFrom(msg.sender, address(this), listing.price), \"Payment failed\") */\n      0x04\n      dup3\n      add\n        /* \"#utility.yul\":3698:3719   */\n      mstore\n        /* \"#utility.yul\":3755:3757   */\n      0x0e\n        /* \"#utility.yul\":3735:3753   */\n      0x24\n      dup3\n      add\n        /* \"#utility.yul\":3728:3758   */\n      mstore\n      shl(0x92, 0x14185e5b595b9d0819985a5b1959)\n        /* \"#utility.yul\":3774:3792   */\n      0x44\n      dup3\n      add\n        /* \"#utility.yul\":3767:3811   */\n      mstore\n        /* \"#utility.yul\":3828:3846   */\n      0x64\n      add\n        /* \"contracts/NFTMarketplace.sol\":3093:3192  require(IERC20(rhemToken).transferFrom(msg.sender, address(this), listing.price), \"Payment failed\") */\n      tag_68\n        /* \"#utility.yul\":3514:3852   */\n      jump\n        /* \"contracts/NFTMarketplace.sol\":3093:3192  require(IERC20(rhemToken).transferFrom(msg.sender, address(this), listing.price), \"Payment failed\") */\n    tag_85:\n        /* \"contracts/NFTMarketplace.sol\":3218:3227  rhemToken */\n      sload(0x01)\n        /* \"contracts/NFTMarketplace.sol\":3238:3252  listing.seller */\n      dup6\n      mload\n        /* \"contracts/NFTMarketplace.sol\":3211:3267  IERC20(rhemToken).transfer(listing.seller, sellerAmount) */\n      mload(0x40)\n      shl(0xe0, 0xa9059cbb)\n      dup2\n      mstore\n      sub(shl(0xa0, 0x01), 0x01)\n        /* \"#utility.yul\":437:469   */\n      swap2\n      dup3\n      and\n        /* \"contracts/NFTMarketplace.sol\":3211:3267  IERC20(rhemToken).transfer(listing.seller, sellerAmount) */\n      0x04\n      dup3\n      add\n        /* \"#utility.yul\":419:470   */\n      mstore\n        /* \"#utility.yul\":486:504   */\n      0x24\n      dup2\n      add\n        /* \"#utility.yul\":479:513   */\n      dup5\n      swap1\n      mstore\n        /* \"contracts/NFTMarketplace.sol\":3218:3227  rhemToken */\n      swap2\n      and\n      swap1\n        /* \"contracts/NFTMarketplace.sol\":3211:3237  IERC20(rhemToken).transfer */\n      0xa9059cbb\n      swap1\n        /* \"#utility.yul\":392:410   */\n      0x44\n      add\n        /* \"contracts/NFTMarketplace.sol\":3211:3267  IERC20(rhemToken).transfer(listing.seller, sellerAmount) */\n      0x20\n      mload(0x40)\n      dup1\n      dup4\n      sub\n      dup2\n      0x00\n      dup8\n      gas\n      call\n      iszero\n      dup1\n      iszero\n      tag_90\n      jumpi\n      returndatacopy(0x00, 0x00, returndatasize)\n      revert(0x00, returndatasize)\n    tag_90:\n      pop\n      pop\n      pop\n      pop\n      mload(0x40)\n      returndatasize\n      not(0x1f)\n      0x1f\n      dup3\n      add\n      and\n      dup3\n      add\n      dup1\n      0x40\n      mstore\n      pop\n      dup2\n      add\n      swap1\n      tag_91\n      swap2\n      swap1\n      tag_84\n      jump\t// in\n    tag_91:\n        /* \"contracts/NFTMarketplace.sol\":3203:3296  require(IERC20(rhemToken).transfer(listing.seller, sellerAmount), \"Payment to seller failed\") */\n      tag_92\n      jumpi\n      mload(0x40)\n      shl(0xe5, 0x461bcd)\n      dup2\n      mstore\n        /* \"#utility.yul\":4059:4061   */\n      0x20\n        /* \"contracts/NFTMarketplace.sol\":3203:3296  require(IERC20(rhemToken).transfer(listing.seller, sellerAmount), \"Payment to seller failed\") */\n      0x04\n      dup3\n      add\n        /* \"#utility.yul\":4041:4062   */\n      mstore\n        /* \"#utility.yul\":4098:4100   */\n      0x18\n        /* \"#utility.yul\":4078:4096   */\n      0x24\n      dup3\n      add\n        /* \"#utility.yul\":4071:4101   */\n      mstore\n        /* \"#utility.yul\":4137:4163   */\n      0x5061796d656e7420746f2073656c6c6572206661696c65640000000000000000\n        /* \"#utility.yul\":4117:4135   */\n      0x44\n      dup3\n      add\n        /* \"#utility.yul\":4110:4164   */\n      mstore\n        /* \"#utility.yul\":4181:4199   */\n      0x64\n      add\n        /* \"contracts/NFTMarketplace.sol\":3203:3296  require(IERC20(rhemToken).transfer(listing.seller, sellerAmount), \"Payment to seller failed\") */\n      tag_68\n        /* \"#utility.yul\":3857:4205   */\n      jump\n        /* \"contracts/NFTMarketplace.sol\":3203:3296  require(IERC20(rhemToken).transfer(listing.seller, sellerAmount), \"Payment to seller failed\") */\n    tag_92:\n        /* \"contracts/NFTMarketplace.sol\":3322:3331  rhemToken */\n      sload(0x01)\n        /* \"contracts/NFTMarketplace.sol\":3315:3362  IERC20(rhemToken).transfer(address(0), burnFee) */\n      mload(0x40)\n      shl(0xe0, 0xa9059cbb)\n      dup2\n      mstore\n        /* \"contracts/NFTMarketplace.sol\":3322:3331  rhemToken */\n      0x00\n        /* \"contracts/NFTMarketplace.sol\":3315:3362  IERC20(rhemToken).transfer(address(0), burnFee) */\n      0x04\n      dup3\n      add\n        /* \"#utility.yul\":419:470   */\n      mstore\n        /* \"#utility.yul\":486:504   */\n      0x24\n      dup2\n      add\n        /* \"#utility.yul\":479:513   */\n      dup6\n      swap1\n      mstore\n      sub(shl(0xa0, 0x01), 0x01)\n        /* \"contracts/NFTMarketplace.sol\":3322:3331  rhemToken */\n      swap1\n      swap2\n      and\n      swap1\n        /* \"contracts/NFTMarketplace.sol\":3315:3341  IERC20(rhemToken).transfer */\n      0xa9059cbb\n      swap1\n        /* \"#utility.yul\":392:410   */\n      0x44\n      add\n        /* \"contracts/NFTMarketplace.sol\":3315:3362  IERC20(rhemToken).transfer(address(0), burnFee) */\n      0x20\n      mload(0x40)\n      dup1\n      dup4\n      sub\n      dup2\n      0x00\n      dup8\n      gas\n      call\n      iszero\n      dup1\n      iszero\n      tag_97\n      jumpi\n      returndatacopy(0x00, 0x00, returndatasize)\n      revert(0x00, returndatasize)\n    tag_97:\n      pop\n      pop\n      pop\n      pop\n      mload(0x40)\n      returndatasize\n      not(0x1f)\n      0x1f\n      dup3\n      add\n      and\n      dup3\n      add\n      dup1\n      0x40\n      mstore\n      pop\n      dup2\n      add\n      swap1\n      tag_98\n      swap2\n      swap1\n      tag_84\n      jump\t// in\n    tag_98:\n        /* \"contracts/NFTMarketplace.sol\":3307:3378  require(IERC20(rhemToken).transfer(address(0), burnFee), \"Burn failed\") */\n      tag_99\n      jumpi\n      mload(0x40)\n      shl(0xe5, 0x461bcd)\n      dup2\n      mstore\n        /* \"#utility.yul\":4412:4414   */\n      0x20\n        /* \"contracts/NFTMarketplace.sol\":3307:3378  require(IERC20(rhemToken).transfer(address(0), burnFee), \"Burn failed\") */\n      0x04\n      dup3\n      add\n        /* \"#utility.yul\":4394:4415   */\n      mstore\n        /* \"#utility.yul\":4451:4453   */\n      0x0b\n        /* \"#utility.yul\":4431:4449   */\n      0x24\n      dup3\n      add\n        /* \"#utility.yul\":4424:4454   */\n      mstore\n      shl(0xaa, 0x109d5c9b8819985a5b1959)\n        /* \"#utility.yul\":4470:4488   */\n      0x44\n      dup3\n      add\n        /* \"#utility.yul\":4463:4504   */\n      mstore\n        /* \"#utility.yul\":4521:4539   */\n      0x64\n      add\n        /* \"contracts/NFTMarketplace.sol\":3307:3378  require(IERC20(rhemToken).transfer(address(0), burnFee), \"Burn failed\") */\n      tag_68\n        /* \"#utility.yul\":4210:4545   */\n      jump\n        /* \"contracts/NFTMarketplace.sol\":3307:3378  require(IERC20(rhemToken).transfer(address(0), burnFee), \"Burn failed\") */\n    tag_99:\n        /* \"contracts/NFTMarketplace.sol\":3404:3413  rhemToken */\n      sload(0x01)\n        /* \"contracts/NFTMarketplace.sol\":3424:3433  devWallet */\n      sload(0x03)\n        /* \"contracts/NFTMarketplace.sol\":3397:3442  IERC20(rhemToken).transfer(devWallet, devFee) */\n      mload(0x40)\n      shl(0xe0, 0xa9059cbb)\n      dup2\n      mstore\n      sub(shl(0xa0, 0x01), 0x01)\n        /* \"contracts/NFTMarketplace.sol\":3424:3433  devWallet */\n      swap2\n      dup3\n      and\n        /* \"contracts/NFTMarketplace.sol\":3397:3442  IERC20(rhemToken).transfer(devWallet, devFee) */\n      0x04\n      dup3\n      add\n        /* \"#utility.yul\":419:470   */\n      mstore\n        /* \"#utility.yul\":486:504   */\n      0x24\n      dup2\n      add\n        /* \"#utility.yul\":479:513   */\n      dup6\n      swap1\n      mstore\n        /* \"contracts/NFTMarketplace.sol\":3404:3413  rhemToken */\n      swap2\n      and\n      swap1\n        /* \"contracts/NFTMarketplace.sol\":3397:3423  IERC20(rhemToken).transfer */\n      0xa9059cbb\n      swap1\n        /* \"#utility.yul\":392:410   */\n      0x44\n      add\n        /* \"contracts/NFTMarketplace.sol\":3397:3442  IERC20(rhemToken).transfer(devWallet, devFee) */\n      0x20\n      mload(0x40)\n      dup1\n      dup4\n      sub\n      dup2\n      0x00\n      dup8\n      gas\n      call\n      iszero\n      dup1\n      iszero\n      tag_104\n      jumpi\n      returndatacopy(0x00, 0x00, returndatasize)\n      revert(0x00, returndatasize)\n    tag_104:\n      pop\n      pop\n      pop\n      pop\n      mload(0x40)\n      returndatasize\n      not(0x1f)\n      0x1f\n      dup3\n      add\n      and\n      dup3\n      add\n      dup1\n      0x40\n      mstore\n      pop\n      dup2\n      add\n      swap1\n      tag_105\n      swap2\n      swap1\n      tag_84\n      jump\t// in\n    tag_105:\n        /* \"contracts/NFTMarketplace.sol\":3389:3461  require(IERC20(rhemToken).transfer(devWallet, devFee), \"Dev fee failed\") */\n      tag_106\n      jumpi\n      mload(0x40)\n      shl(0xe5, 0x461bcd)\n      dup2\n      mstore\n        /* \"#utility.yul\":4752:4754   */\n      0x20\n        /* \"contracts/NFTMarketplace.sol\":3389:3461  require(IERC20(rhemToken).transfer(devWallet, devFee), \"Dev fee failed\") */\n      0x04\n      dup3\n      add\n        /* \"#utility.yul\":4734:4755   */\n      mstore\n        /* \"#utility.yul\":4791:4793   */\n      0x0e\n        /* \"#utility.yul\":4771:4789   */\n      0x24\n      dup3\n      add\n        /* \"#utility.yul\":4764:4794   */\n      mstore\n      shl(0x92, 0x11195d881999594819985a5b1959)\n        /* \"#utility.yul\":4810:4828   */\n      0x44\n      dup3\n      add\n        /* \"#utility.yul\":4803:4847   */\n      mstore\n        /* \"#utility.yul\":4864:4882   */\n      0x64\n      add\n        /* \"contracts/NFTMarketplace.sol\":3389:3461  require(IERC20(rhemToken).transfer(devWallet, devFee), \"Dev fee failed\") */\n      tag_68\n        /* \"#utility.yul\":4550:4888   */\n      jump\n        /* \"contracts/NFTMarketplace.sol\":3389:3461  require(IERC20(rhemToken).transfer(devWallet, devFee), \"Dev fee failed\") */\n    tag_106:\n        /* \"contracts/NFTMarketplace.sol\":3485:3496  nftContract */\n      sload(0x00)\n        /* \"contracts/NFTMarketplace.sol\":3515:3529  listing.seller */\n      dup6\n      mload\n        /* \"contracts/NFTMarketplace.sol\":3474:3551  ICustomNFT(nftContract).safeTransferFrom(listing.seller, msg.sender, tokenId) */\n      mload(0x40)\n      shl(0xe1, 0x21421707)\n      dup2\n      mstore\n      sub(shl(0xa0, 0x01), 0x01)\n        /* \"#utility.yul\":3076:3108   */\n      swap2\n      dup3\n      and\n        /* \"contracts/NFTMarketplace.sol\":3474:3551  ICustomNFT(nftContract).safeTransferFrom(listing.seller, msg.sender, tokenId) */\n      0x04\n      dup3\n      add\n        /* \"#utility.yul\":3058:3109   */\n      mstore\n        /* \"contracts/NFTMarketplace.sol\":3531:3541  msg.sender */\n      caller\n        /* \"#utility.yul\":3125:3143   */\n      0x24\n      dup3\n      add\n        /* \"#utility.yul\":3118:3178   */\n      mstore\n        /* \"#utility.yul\":3194:3212   */\n      0x44\n      dup2\n      add\n        /* \"#utility.yul\":3187:3221   */\n      dup10\n      swap1\n      mstore\n        /* \"contracts/NFTMarketplace.sol\":3485:3496  nftContract */\n      swap2\n      and\n      swap1\n        /* \"contracts/NFTMarketplace.sol\":3474:3514  ICustomNFT(nftContract).safeTransferFrom */\n      0x42842e0e\n      swap1\n        /* \"#utility.yul\":3031:3049   */\n      0x64\n      add\n        /* \"contracts/NFTMarketplace.sol\":3474:3551  ICustomNFT(nftContract).safeTransferFrom(listing.seller, msg.sender, tokenId) */\n      0x00\n      mload(0x40)\n      dup1\n      dup4\n      sub\n      dup2\n      0x00\n      dup8\n      dup1\n      extcodesize\n      iszero\n      dup1\n      iszero\n      tag_110\n      jumpi\n      revert(0x00, 0x00)\n    tag_110:\n      pop\n      gas\n      call\n      iszero\n      dup1\n      iszero\n      tag_112\n      jumpi\n      returndatacopy(0x00, 0x00, returndatasize)\n      revert(0x00, returndatasize)\n    tag_112:\n      pop\n      pop\n      pop\n        /* \"contracts/NFTMarketplace.sol\":3569:3586  listings[tokenId] */\n      0x00\n      dup8\n      dup2\n      mstore\n        /* \"contracts/NFTMarketplace.sol\":3569:3577  listings */\n      0x06\n        /* \"contracts/NFTMarketplace.sol\":3569:3586  listings[tokenId] */\n      0x20\n      swap1\n      dup2\n      mstore\n      0x40\n      dup1\n      dup4\n      keccak256\n        /* \"contracts/NFTMarketplace.sol\":3562:3586  delete listings[tokenId] */\n      dup1\n      sload\n      not(sub(shl(0xa0, 0x01), 0x01))\n      and\n      dup2\n      sstore\n      0x01\n      add\n      swap3\n      swap1\n      swap3\n      sstore\n        /* \"contracts/NFTMarketplace.sol\":3629:3643  listing.seller */\n      dup8\n      mload\n        /* \"contracts/NFTMarketplace.sol\":3654:3667  listing.price */\n      dup9\n      dup3\n      add\n      mload\n        /* \"contracts/NFTMarketplace.sol\":3604:3668  NFTPurchased(msg.sender, listing.seller, tokenId, listing.price) */\n      swap3\n      mload\n        /* \"#utility.yul\":670:695   */\n      swap3\n      dup4\n      mstore\n        /* \"contracts/NFTMarketplace.sol\":3569:3586  listings[tokenId] */\n      dup10\n      swap4\n      pop\n      sub(shl(0xa0, 0x01), 0x01)\n        /* \"contracts/NFTMarketplace.sol\":3604:3668  NFTPurchased(msg.sender, listing.seller, tokenId, listing.price) */\n      and\n      swap2\n        /* \"contracts/NFTMarketplace.sol\":3617:3627  msg.sender */\n      caller\n      swap2\n        /* \"contracts/NFTMarketplace.sol\":3604:3668  NFTPurchased(msg.sender, listing.seller, tokenId, listing.price) */\n      0x84a34755616a04d6e547597ec5933d7ca8cf181bb354026be7e93e147edf0ab7\n      swap2\n        /* \"#utility.yul\":643:661   */\n      add\n        /* \"contracts/NFTMarketplace.sol\":3604:3668  NFTPurchased(msg.sender, listing.seller, tokenId, listing.price) */\n      mload(0x40)\n      dup1\n      swap2\n      sub\n      swap1\n      log4\n        /* \"contracts/NFTMarketplace.sol\":2757:3676  {... */\n      pop\n      pop\n      pop\n      pop\n      pop\n        /* \"contracts/NFTMarketplace.sol\":2715:3676  function buyNFT(uint256 tokenId) external {... */\n      pop\n      jump\t// out\n        /* \"contracts/NFTMarketplace.sol\":1778:2028  function updateFees(uint256 _listingFee, uint256 _saleFee) external onlyDAO {... */\n    tag_41:\n        /* \"contracts/NFTMarketplace.sol\":1290:1293  dao */\n      and(sub(shl(0xa0, 0x01), 0x01), sload(0x02))\n        /* \"contracts/NFTMarketplace.sol\":1276:1286  msg.sender */\n      caller\n        /* \"contracts/NFTMarketplace.sol\":1276:1293  msg.sender == dao */\n      eq\n        /* \"contracts/NFTMarketplace.sol\":1268:1306  require(msg.sender == dao, \"Only DAO\") */\n      tag_115\n      jumpi\n      mload(0x40)\n      shl(0xe5, 0x461bcd)\n      dup2\n      mstore\n        /* \"#utility.yul\":5095:5097   */\n      0x20\n        /* \"contracts/NFTMarketplace.sol\":1268:1306  require(msg.sender == dao, \"Only DAO\") */\n      0x04\n      dup3\n      add\n        /* \"#utility.yul\":5077:5098   */\n      mstore\n        /* \"#utility.yul\":5134:5135   */\n      0x08\n        /* \"#utility.yul\":5114:5132   */\n      0x24\n      dup3\n      add\n        /* \"#utility.yul\":5107:5136   */\n      mstore\n      shl(0xc0, 0x4f6e6c792044414f)\n        /* \"#utility.yul\":5152:5170   */\n      0x44\n      dup3\n      add\n        /* \"#utility.yul\":5145:5183   */\n      mstore\n        /* \"#utility.yul\":5200:5218   */\n      0x64\n      add\n        /* \"contracts/NFTMarketplace.sol\":1268:1306  require(msg.sender == dao, \"Only DAO\") */\n      tag_68\n        /* \"#utility.yul\":4893:5224   */\n      jump\n        /* \"contracts/NFTMarketplace.sol\":1268:1306  require(msg.sender == dao, \"Only DAO\") */\n    tag_115:\n        /* \"contracts/NFTMarketplace.sol\":1885:1889  1000 */\n      0x03e8\n        /* \"contracts/NFTMarketplace.sol\":1873:1881  _saleFee */\n      dup2\n        /* \"contracts/NFTMarketplace.sol\":1873:1889  _saleFee <= 1000 */\n      gt\n      iszero\n        /* \"contracts/NFTMarketplace.sol\":1865:1906  require(_saleFee <= 1000, \"Too high fee\") */\n      tag_119\n      jumpi\n      mload(0x40)\n      shl(0xe5, 0x461bcd)\n      dup2\n      mstore\n        /* \"#utility.yul\":5431:5433   */\n      0x20\n        /* \"contracts/NFTMarketplace.sol\":1865:1906  require(_saleFee <= 1000, \"Too high fee\") */\n      0x04\n      dup3\n      add\n        /* \"#utility.yul\":5413:5434   */\n      mstore\n        /* \"#utility.yul\":5470:5472   */\n      0x0c\n        /* \"#utility.yul\":5450:5468   */\n      0x24\n      dup3\n      add\n        /* \"#utility.yul\":5443:5473   */\n      mstore\n      shl(0xa0, 0x546f6f206869676820666565)\n        /* \"#utility.yul\":5489:5507   */\n      0x44\n      dup3\n      add\n        /* \"#utility.yul\":5482:5524   */\n      mstore\n        /* \"#utility.yul\":5541:5559   */\n      0x64\n      add\n        /* \"contracts/NFTMarketplace.sol\":1865:1906  require(_saleFee <= 1000, \"Too high fee\") */\n      tag_68\n        /* \"#utility.yul\":5229:5565   */\n      jump\n        /* \"contracts/NFTMarketplace.sol\":1865:1906  require(_saleFee <= 1000, \"Too high fee\") */\n    tag_119:\n        /* \"contracts/NFTMarketplace.sol\":1917:1927  listingFee */\n      0x04\n        /* \"contracts/NFTMarketplace.sol\":1917:1941  listingFee = _listingFee */\n      dup3\n      swap1\n      sstore\n        /* \"contracts/NFTMarketplace.sol\":1952:1959  saleFee */\n      0x05\n        /* \"contracts/NFTMarketplace.sol\":1952:1970  saleFee = _saleFee */\n      dup2\n      swap1\n      sstore\n        /* \"contracts/NFTMarketplace.sol\":1986:2020  FeesUpdated(_listingFee, _saleFee) */\n      0x40\n      dup1\n      mload\n        /* \"#utility.yul\":5744:5769   */\n      dup4\n      dup2\n      mstore\n        /* \"#utility.yul\":5800:5802   */\n      0x20\n        /* \"#utility.yul\":5785:5803   */\n      dup2\n      add\n        /* \"#utility.yul\":5778:5812   */\n      dup4\n      swap1\n      mstore\n        /* \"contracts/NFTMarketplace.sol\":1986:2020  FeesUpdated(_listingFee, _saleFee) */\n      0x5c6323bf1c2d7aaea2c091a4751c1c87af7f2864650c336507a77d0557af37a1\n      swap2\n        /* \"#utility.yul\":5717:5735   */\n      add\n        /* \"contracts/NFTMarketplace.sol\":1986:2020  FeesUpdated(_listingFee, _saleFee) */\n      mload(0x40)\n      dup1\n      swap2\n      sub\n      swap1\n      log1\n        /* \"contracts/NFTMarketplace.sol\":1778:2028  function updateFees(uint256 _listingFee, uint256 _saleFee) external onlyDAO {... */\n      pop\n      pop\n      jump\t// out\n        /* \"contracts/NFTMarketplace.sol\":2036:2448  function listNFT(uint256 tokenId, uint256 price) external {... */\n    tag_47:\n        /* \"contracts/NFTMarketplace.sol\":2124:2135  nftContract */\n      sload(0x00)\n        /* \"contracts/NFTMarketplace.sol\":2113:2153  ICustomNFT(nftContract).ownerOf(tokenId) */\n      mload(0x40)\n      shl(0xe1, 0x31a9108f)\n      dup2\n      mstore\n      0x04\n      dup2\n      add\n        /* \"#utility.yul\":670:695   */\n      dup5\n      swap1\n      mstore\n        /* \"contracts/NFTMarketplace.sol\":2157:2167  msg.sender */\n      caller\n      swap2\n      sub(shl(0xa0, 0x01), 0x01)\n        /* \"contracts/NFTMarketplace.sol\":2124:2135  nftContract */\n      and\n      swap1\n        /* \"contracts/NFTMarketplace.sol\":2113:2144  ICustomNFT(nftContract).ownerOf */\n      0x6352211e\n      swap1\n        /* \"#utility.yul\":643:661   */\n      0x24\n      add\n        /* \"contracts/NFTMarketplace.sol\":2113:2153  ICustomNFT(nftContract).ownerOf(tokenId) */\n      0x20\n      mload(0x40)\n      dup1\n      dup4\n      sub\n      dup2\n      dup7\n      gas\n      staticcall\n      iszero\n      dup1\n      iszero\n      tag_127\n      jumpi\n      returndatacopy(0x00, 0x00, returndatasize)\n      revert(0x00, returndatasize)\n    tag_127:\n      pop\n      pop\n      pop\n      pop\n      mload(0x40)\n      returndatasize\n      not(0x1f)\n      0x1f\n      dup3\n      add\n      and\n      dup3\n      add\n      dup1\n      0x40\n      mstore\n      pop\n      dup2\n      add\n      swap1\n      tag_128\n      swap2\n      swap1\n      tag_129\n      jump\t// in\n    tag_128:\n      sub(shl(0xa0, 0x01), 0x01)\n        /* \"contracts/NFTMarketplace.sol\":2113:2167  ICustomNFT(nftContract).ownerOf(tokenId) == msg.sender */\n      and\n      eq\n        /* \"contracts/NFTMarketplace.sol\":2105:2181  require(ICustomNFT(nftContract).ownerOf(tokenId) == msg.sender, \"Not owner\") */\n      tag_130\n      jumpi\n      mload(0x40)\n      shl(0xe5, 0x461bcd)\n      dup2\n      mstore\n        /* \"#utility.yul\":6320:6322   */\n      0x20\n        /* \"contracts/NFTMarketplace.sol\":2105:2181  require(ICustomNFT(nftContract).ownerOf(tokenId) == msg.sender, \"Not owner\") */\n      0x04\n      dup3\n      add\n        /* \"#utility.yul\":6302:6323   */\n      mstore\n        /* \"#utility.yul\":6359:6360   */\n      0x09\n        /* \"#utility.yul\":6339:6357   */\n      0x24\n      dup3\n      add\n        /* \"#utility.yul\":6332:6361   */\n      mstore\n      shl(0xb9, 0x2737ba1037bbb732b9)\n        /* \"#utility.yul\":6377:6395   */\n      0x44\n      dup3\n      add\n        /* \"#utility.yul\":6370:6409   */\n      mstore\n        /* \"#utility.yul\":6426:6444   */\n      0x64\n      add\n        /* \"contracts/NFTMarketplace.sol\":2105:2181  require(ICustomNFT(nftContract).ownerOf(tokenId) == msg.sender, \"Not owner\") */\n      tag_68\n        /* \"#utility.yul\":6118:6450   */\n      jump\n        /* \"contracts/NFTMarketplace.sol\":2105:2181  require(ICustomNFT(nftContract).ownerOf(tokenId) == msg.sender, \"Not owner\") */\n    tag_130:\n        /* \"contracts/NFTMarketplace.sol\":2208:2209  0 */\n      0x00\n        /* \"contracts/NFTMarketplace.sol\":2200:2205  price */\n      dup2\n        /* \"contracts/NFTMarketplace.sol\":2200:2209  price > 0 */\n      gt\n        /* \"contracts/NFTMarketplace.sol\":2192:2227  require(price > 0, \"Invalid price\") */\n      tag_133\n      jumpi\n      mload(0x40)\n      shl(0xe5, 0x461bcd)\n      dup2\n      mstore\n        /* \"#utility.yul\":6657:6659   */\n      0x20\n        /* \"contracts/NFTMarketplace.sol\":2192:2227  require(price > 0, \"Invalid price\") */\n      0x04\n      dup3\n      add\n        /* \"#utility.yul\":6639:6660   */\n      mstore\n        /* \"#utility.yul\":6696:6698   */\n      0x0d\n        /* \"#utility.yul\":6676:6694   */\n      0x24\n      dup3\n      add\n        /* \"#utility.yul\":6669:6699   */\n      mstore\n      shl(0x98, 0x496e76616c6964207072696365)\n        /* \"#utility.yul\":6715:6733   */\n      0x44\n      dup3\n      add\n        /* \"#utility.yul\":6708:6751   */\n      mstore\n        /* \"#utility.yul\":6768:6786   */\n      0x64\n      add\n        /* \"contracts/NFTMarketplace.sol\":2192:2227  require(price > 0, \"Invalid price\") */\n      tag_68\n        /* \"#utility.yul\":6455:6792   */\n      jump\n        /* \"contracts/NFTMarketplace.sol\":2192:2227  require(price > 0, \"Invalid price\") */\n    tag_133:\n        /* \"contracts/NFTMarketplace.sol\":2253:2262  rhemToken */\n      sload(0x01)\n        /* \"contracts/NFTMarketplace.sol\":2289:2292  dao */\n      sload(0x02)\n        /* \"contracts/NFTMarketplace.sol\":2294:2304  listingFee */\n      0x04\n      dup1\n      sload\n        /* \"contracts/NFTMarketplace.sol\":2246:2305  IERC20(rhemToken).transferFrom(msg.sender, dao, listingFee) */\n      mload(0x40)\n      shl(0xe0, 0x23b872dd)\n      dup2\n      mstore\n        /* \"contracts/NFTMarketplace.sol\":2277:2287  msg.sender */\n      caller\n        /* \"contracts/NFTMarketplace.sol\":2246:2305  IERC20(rhemToken).transferFrom(msg.sender, dao, listingFee) */\n      swap3\n      dup2\n      add\n        /* \"#utility.yul\":3058:3109   */\n      swap3\n      swap1\n      swap3\n      mstore\n      sub(shl(0xa0, 0x01), 0x01)\n        /* \"contracts/NFTMarketplace.sol\":2289:2292  dao */\n      swap3\n      dup4\n      and\n        /* \"#utility.yul\":3125:3143   */\n      0x24\n      dup4\n      add\n        /* \"#utility.yul\":3118:3178   */\n      mstore\n        /* \"#utility.yul\":3194:3212   */\n      0x44\n      dup3\n      add\n        /* \"#utility.yul\":3187:3221   */\n      mstore\n        /* \"contracts/NFTMarketplace.sol\":2253:2262  rhemToken */\n      swap2\n      and\n      swap1\n        /* \"contracts/NFTMarketplace.sol\":2246:2276  IERC20(rhemToken).transferFrom */\n      0x23b872dd\n      swap1\n        /* \"#utility.yul\":3031:3049   */\n      0x64\n      add\n        /* \"contracts/NFTMarketplace.sol\":2246:2305  IERC20(rhemToken).transferFrom(msg.sender, dao, listingFee) */\n      0x20\n      mload(0x40)\n      dup1\n      dup4\n      sub\n      dup2\n      0x00\n      dup8\n      gas\n      call\n      iszero\n      dup1\n      iszero\n      tag_138\n      jumpi\n      returndatacopy(0x00, 0x00, returndatasize)\n      revert(0x00, returndatasize)\n    tag_138:\n      pop\n      pop\n      pop\n      pop\n      mload(0x40)\n      returndatasize\n      not(0x1f)\n      0x1f\n      dup3\n      add\n      and\n      dup3\n      add\n      dup1\n      0x40\n      mstore\n      pop\n      dup2\n      add\n      swap1\n      tag_139\n      swap2\n      swap1\n      tag_84\n      jump\t// in\n    tag_139:\n        /* \"contracts/NFTMarketplace.sol\":2238:2328  require(IERC20(rhemToken).transferFrom(msg.sender, dao, listingFee), \"Listing fee failed\") */\n      tag_140\n      jumpi\n      mload(0x40)\n      shl(0xe5, 0x461bcd)\n      dup2\n      mstore\n        /* \"#utility.yul\":6999:7001   */\n      0x20\n        /* \"contracts/NFTMarketplace.sol\":2238:2328  require(IERC20(rhemToken).transferFrom(msg.sender, dao, listingFee), \"Listing fee failed\") */\n      0x04\n      dup3\n      add\n        /* \"#utility.yul\":6981:7002   */\n      mstore\n        /* \"#utility.yul\":7038:7040   */\n      0x12\n        /* \"#utility.yul\":7018:7036   */\n      0x24\n      dup3\n      add\n        /* \"#utility.yul\":7011:7041   */\n      mstore\n      shl(0x72, 0x131a5cdd1a5b99c81999594819985a5b1959)\n        /* \"#utility.yul\":7057:7075   */\n      0x44\n      dup3\n      add\n        /* \"#utility.yul\":7050:7098   */\n      mstore\n        /* \"#utility.yul\":7115:7133   */\n      0x64\n      add\n        /* \"contracts/NFTMarketplace.sol\":2238:2328  require(IERC20(rhemToken).transferFrom(msg.sender, dao, listingFee), \"Listing fee failed\") */\n      tag_68\n        /* \"#utility.yul\":6797:7139   */\n      jump\n        /* \"contracts/NFTMarketplace.sol\":2238:2328  require(IERC20(rhemToken).transferFrom(msg.sender, dao, listingFee), \"Listing fee failed\") */\n    tag_140:\n        /* \"contracts/NFTMarketplace.sol\":2361:2387  Listing(msg.sender, price) */\n      0x40\n      dup1\n      mload\n      dup1\n      dup3\n      add\n      dup3\n      mstore\n        /* \"contracts/NFTMarketplace.sol\":2369:2379  msg.sender */\n      caller\n        /* \"contracts/NFTMarketplace.sol\":2361:2387  Listing(msg.sender, price) */\n      dup1\n      dup3\n      mstore\n      0x20\n      dup1\n      dup4\n      add\n      dup6\n      dup2\n      mstore\n      0x00\n        /* \"contracts/NFTMarketplace.sol\":2341:2358  listings[tokenId] */\n      dup8\n      dup2\n      mstore\n        /* \"contracts/NFTMarketplace.sol\":2341:2349  listings */\n      0x06\n        /* \"contracts/NFTMarketplace.sol\":2341:2358  listings[tokenId] */\n      dup4\n      mstore\n      dup6\n      swap1\n      keccak256\n        /* \"contracts/NFTMarketplace.sol\":2341:2387  listings[tokenId] = Listing(msg.sender, price) */\n      swap4\n      mload\n      dup5\n      sload\n      not(sub(shl(0xa0, 0x01), 0x01))\n      and\n      sub(shl(0xa0, 0x01), 0x01)\n      swap1\n      swap2\n      and\n      or\n      dup5\n      sstore\n      mload\n      0x01\n      swap1\n      swap4\n      add\n      swap3\n      swap1\n      swap3\n      sstore\n        /* \"contracts/NFTMarketplace.sol\":2403:2440  NFTListed(msg.sender, tokenId, price) */\n      swap2\n      mload\n        /* \"#utility.yul\":670:695   */\n      dup4\n      dup2\n      mstore\n        /* \"contracts/NFTMarketplace.sol\":2341:2358  listings[tokenId] */\n      dup5\n      swap3\n        /* \"contracts/NFTMarketplace.sol\":2369:2379  msg.sender */\n      swap2\n        /* \"contracts/NFTMarketplace.sol\":2403:2440  NFTListed(msg.sender, tokenId, price) */\n      0xbbf44e68296791df5535457da734bf1017c4b233a740af6d7a89b9f1af4ecb42\n      swap2\n        /* \"#utility.yul\":643:661   */\n      add\n        /* \"contracts/NFTMarketplace.sol\":2403:2440  NFTListed(msg.sender, tokenId, price) */\n      mload(0x40)\n      dup1\n      swap2\n      sub\n      swap1\n      log3\n        /* \"contracts/NFTMarketplace.sol\":2036:2448  function listNFT(uint256 tokenId, uint256 price) external {... */\n      pop\n      pop\n      jump\t// out\n        /* \"contracts/NFTMarketplace.sol\":2456:2707  function unlistNFT(uint256 tokenId) external {... */\n    tag_50:\n        /* \"contracts/NFTMarketplace.sol\":2512:2534  Listing memory listing */\n      0x00\n        /* \"contracts/NFTMarketplace.sol\":2537:2554  listings[tokenId] */\n      dup2\n      dup2\n      mstore\n        /* \"contracts/NFTMarketplace.sol\":2537:2545  listings */\n      0x06\n        /* \"contracts/NFTMarketplace.sol\":2537:2554  listings[tokenId] */\n      0x20\n      swap1\n      dup2\n      mstore\n      0x40\n      swap2\n      dup3\n      swap1\n      keccak256\n        /* \"contracts/NFTMarketplace.sol\":2512:2554  Listing memory listing = listings[tokenId] */\n      dup3\n      mload\n      dup1\n      dup5\n      add\n      swap1\n      swap4\n      mstore\n      dup1\n      sload\n      sub(shl(0xa0, 0x01), 0x01)\n      and\n      dup1\n      dup5\n      mstore\n      0x01\n      swap1\n      swap2\n      add\n      sload\n      swap2\n      dup4\n      add\n      swap2\n      swap1\n      swap2\n      mstore\n        /* \"contracts/NFTMarketplace.sol\":2591:2601  msg.sender */\n      caller\n        /* \"contracts/NFTMarketplace.sol\":2573:2601  listing.seller == msg.sender */\n      eq\n        /* \"contracts/NFTMarketplace.sol\":2565:2616  require(listing.seller == msg.sender, \"Not seller\") */\n      tag_145\n      jumpi\n      mload(0x40)\n      shl(0xe5, 0x461bcd)\n      dup2\n      mstore\n        /* \"#utility.yul\":7346:7348   */\n      0x20\n        /* \"contracts/NFTMarketplace.sol\":2565:2616  require(listing.seller == msg.sender, \"Not seller\") */\n      0x04\n      dup3\n      add\n        /* \"#utility.yul\":7328:7349   */\n      mstore\n        /* \"#utility.yul\":7385:7387   */\n      0x0a\n        /* \"#utility.yul\":7365:7383   */\n      0x24\n      dup3\n      add\n        /* \"#utility.yul\":7358:7388   */\n      mstore\n      shl(0xb1, 0x2737ba1039b2b63632b9)\n        /* \"#utility.yul\":7404:7422   */\n      0x44\n      dup3\n      add\n        /* \"#utility.yul\":7397:7437   */\n      mstore\n        /* \"#utility.yul\":7454:7472   */\n      0x64\n      add\n        /* \"contracts/NFTMarketplace.sol\":2565:2616  require(listing.seller == msg.sender, \"Not seller\") */\n      tag_68\n        /* \"#utility.yul\":7144:7478   */\n      jump\n        /* \"contracts/NFTMarketplace.sol\":2565:2616  require(listing.seller == msg.sender, \"Not seller\") */\n    tag_145:\n        /* \"contracts/NFTMarketplace.sol\":2634:2651  listings[tokenId] */\n      0x00\n      dup3\n      dup2\n      mstore\n        /* \"contracts/NFTMarketplace.sol\":2634:2642  listings */\n      0x06\n        /* \"contracts/NFTMarketplace.sol\":2634:2651  listings[tokenId] */\n      0x20\n      mstore\n      0x40\n      dup1\n      dup3\n      keccak256\n        /* \"contracts/NFTMarketplace.sol\":2627:2651  delete listings[tokenId] */\n      dup1\n      sload\n      not(sub(shl(0xa0, 0x01), 0x01))\n      and\n      dup2\n      sstore\n      0x01\n      add\n      dup3\n      swap1\n      sstore\n        /* \"contracts/NFTMarketplace.sol\":2667:2699  NFTUnlisted(msg.sender, tokenId) */\n      mload\n        /* \"contracts/NFTMarketplace.sol\":2643:2650  tokenId */\n      dup4\n      swap2\n        /* \"contracts/NFTMarketplace.sol\":2679:2689  msg.sender */\n      caller\n      swap2\n        /* \"contracts/NFTMarketplace.sol\":2667:2699  NFTUnlisted(msg.sender, tokenId) */\n      0x8a7922f72dc2a50a632acdde12b7d222aefa2fdb7f3ca1364b419734569d0e80\n      swap2\n        /* \"contracts/NFTMarketplace.sol\":2634:2651  listings[tokenId] */\n      swap1\n        /* \"contracts/NFTMarketplace.sol\":2667:2699  NFTUnlisted(msg.sender, tokenId) */\n      log3\n        /* \"contracts/NFTMarketplace.sol\":2501:2707  {... */\n      pop\n        /* \"contracts/NFTMarketplace.sol\":2456:2707  function unlistNFT(uint256 tokenId) external {... */\n      pop\n      jump\t// out\n        /* \"contracts/NFTMarketplace.sol\":3684:3796  function mintNFT(string calldata uri) external onlyDAO {... */\n    tag_64:\n        /* \"contracts/NFTMarketplace.sol\":1290:1293  dao */\n      and(sub(shl(0xa0, 0x01), 0x01), sload(0x02))\n        /* \"contracts/NFTMarketplace.sol\":1276:1286  msg.sender */\n      caller\n        /* \"contracts/NFTMarketplace.sol\":1276:1293  msg.sender == dao */\n      eq\n        /* \"contracts/NFTMarketplace.sol\":1268:1306  require(msg.sender == dao, \"Only DAO\") */\n      tag_149\n      jumpi\n      mload(0x40)\n      shl(0xe5, 0x461bcd)\n      dup2\n      mstore\n        /* \"#utility.yul\":5095:5097   */\n      0x20\n        /* \"contracts/NFTMarketplace.sol\":1268:1306  require(msg.sender == dao, \"Only DAO\") */\n      0x04\n      dup3\n      add\n        /* \"#utility.yul\":5077:5098   */\n      mstore\n        /* \"#utility.yul\":5134:5135   */\n      0x08\n        /* \"#utility.yul\":5114:5132   */\n      0x24\n      dup3\n      add\n        /* \"#utility.yul\":5107:5136   */\n      mstore\n      shl(0xc0, 0x4f6e6c792044414f)\n        /* \"#utility.yul\":5152:5170   */\n      0x44\n      dup3\n      add\n        /* \"#utility.yul\":5145:5183   */\n      mstore\n        /* \"#utility.yul\":5200:5218   */\n      0x64\n      add\n        /* \"contracts/NFTMarketplace.sol\":1268:1306  require(msg.sender == dao, \"Only DAO\") */\n      tag_68\n        /* \"#utility.yul\":4893:5224   */\n      jump\n        /* \"contracts/NFTMarketplace.sol\":1268:1306  require(msg.sender == dao, \"Only DAO\") */\n    tag_149:\n        /* \"contracts/NFTMarketplace.sol\":3761:3772  nftContract */\n      sload(0x00)\n        /* \"contracts/NFTMarketplace.sol\":3779:3782  dao */\n      sload(0x02)\n        /* \"contracts/NFTMarketplace.sol\":3750:3788  ICustomNFT(nftContract).mint(dao, uri) */\n      mload(0x40)\n      shl(0xe0, 0xd0def521)\n      dup2\n      mstore\n      sub(shl(0xa0, 0x01), 0x01)\n        /* \"contracts/NFTMarketplace.sol\":3761:3772  nftContract */\n      swap3\n      dup4\n      and\n      swap3\n        /* \"contracts/NFTMarketplace.sol\":3750:3778  ICustomNFT(nftContract).mint */\n      0xd0def521\n      swap3\n        /* \"contracts/NFTMarketplace.sol\":3750:3788  ICustomNFT(nftContract).mint(dao, uri) */\n      tag_152\n      swap3\n        /* \"contracts/NFTMarketplace.sol\":3779:3782  dao */\n      swap2\n      and\n      swap1\n        /* \"contracts/NFTMarketplace.sol\":3784:3787  uri */\n      dup7\n      swap1\n      dup7\n      swap1\n        /* \"contracts/NFTMarketplace.sol\":3750:3788  ICustomNFT(nftContract).mint(dao, uri) */\n      0x04\n      add\n      tag_153\n      jump\t// in\n    tag_152:\n      0x00\n      mload(0x40)\n      dup1\n      dup4\n      sub\n      dup2\n      0x00\n      dup8\n      dup1\n      extcodesize\n      iszero\n      dup1\n      iszero\n      tag_154\n      jumpi\n      revert(0x00, 0x00)\n    tag_154:\n      pop\n      gas\n      call\n      iszero\n      dup1\n      iszero\n      tag_156\n      jumpi\n      returndatacopy(0x00, 0x00, returndatasize)\n      revert(0x00, returndatasize)\n    tag_156:\n      pop\n      pop\n      pop\n      pop\n        /* \"contracts/NFTMarketplace.sol\":3684:3796  function mintNFT(string calldata uri) external onlyDAO {... */\n      pop\n      pop\n      jump\t// out\n        /* \"#utility.yul\":14:240   */\n    tag_20:\n        /* \"#utility.yul\":73:79   */\n      0x00\n        /* \"#utility.yul\":126:128   */\n      0x20\n        /* \"#utility.yul\":114:123   */\n      dup3\n        /* \"#utility.yul\":105:112   */\n      dup5\n        /* \"#utility.yul\":101:124   */\n      sub\n        /* \"#utility.yul\":97:129   */\n      slt\n        /* \"#utility.yul\":94:146   */\n      iszero\n      tag_160\n      jumpi\n        /* \"#utility.yul\":142:143   */\n      0x00\n        /* \"#utility.yul\":139:140   */\n      0x00\n        /* \"#utility.yul\":132:144   */\n      revert\n        /* \"#utility.yul\":94:146   */\n    tag_160:\n      pop\n        /* \"#utility.yul\":187:210   */\n      calldataload\n      swap2\n        /* \"#utility.yul\":14:240   */\n      swap1\n      pop\n      jump\t// out\n        /* \"#utility.yul\":914:1260   */\n    tag_40:\n        /* \"#utility.yul\":982:988   */\n      0x00\n        /* \"#utility.yul\":990:996   */\n      0x00\n        /* \"#utility.yul\":1043:1045   */\n      0x40\n        /* \"#utility.yul\":1031:1040   */\n      dup4\n        /* \"#utility.yul\":1022:1029   */\n      dup6\n        /* \"#utility.yul\":1018:1041   */\n      sub\n        /* \"#utility.yul\":1014:1046   */\n      slt\n        /* \"#utility.yul\":1011:1063   */\n      iszero\n      tag_165\n      jumpi\n        /* \"#utility.yul\":1059:1060   */\n      0x00\n        /* \"#utility.yul\":1056:1057   */\n      0x00\n        /* \"#utility.yul\":1049:1061   */\n      revert\n        /* \"#utility.yul\":1011:1063   */\n    tag_165:\n      pop\n      pop\n        /* \"#utility.yul\":1104:1127   */\n      dup1\n      calldataload\n      swap3\n        /* \"#utility.yul\":1224:1226   */\n      0x20\n        /* \"#utility.yul\":1209:1227   */\n      swap1\n      swap2\n      add\n        /* \"#utility.yul\":1196:1228   */\n      calldataload\n      swap2\n      pop\n        /* \"#utility.yul\":914:1260   */\n      jump\t// out\n        /* \"#utility.yul\":1265:1852   */\n    tag_63:\n        /* \"#utility.yul\":1336:1342   */\n      0x00\n        /* \"#utility.yul\":1344:1350   */\n      0x00\n        /* \"#utility.yul\":1397:1399   */\n      0x20\n        /* \"#utility.yul\":1385:1394   */\n      dup4\n        /* \"#utility.yul\":1376:1383   */\n      dup6\n        /* \"#utility.yul\":1372:1395   */\n      sub\n        /* \"#utility.yul\":1368:1400   */\n      slt\n        /* \"#utility.yul\":1365:1417   */\n      iszero\n      tag_167\n      jumpi\n        /* \"#utility.yul\":1413:1414   */\n      0x00\n        /* \"#utility.yul\":1410:1411   */\n      0x00\n        /* \"#utility.yul\":1403:1415   */\n      revert\n        /* \"#utility.yul\":1365:1417   */\n    tag_167:\n        /* \"#utility.yul\":1453:1462   */\n      dup3\n        /* \"#utility.yul\":1440:1463   */\n      calldataload\n        /* \"#utility.yul\":1486:1504   */\n      0xffffffffffffffff\n        /* \"#utility.yul\":1478:1484   */\n      dup2\n        /* \"#utility.yul\":1475:1505   */\n      gt\n        /* \"#utility.yul\":1472:1522   */\n      iszero\n      tag_168\n      jumpi\n        /* \"#utility.yul\":1518:1519   */\n      0x00\n        /* \"#utility.yul\":1515:1516   */\n      0x00\n        /* \"#utility.yul\":1508:1520   */\n      revert\n        /* \"#utility.yul\":1472:1522   */\n    tag_168:\n        /* \"#utility.yul\":1541:1563   */\n      dup4\n      add\n        /* \"#utility.yul\":1594:1598   */\n      0x1f\n        /* \"#utility.yul\":1586:1599   */\n      dup2\n      add\n        /* \"#utility.yul\":1582:1609   */\n      dup6\n      sgt\n        /* \"#utility.yul\":1572:1627   */\n      tag_169\n      jumpi\n        /* \"#utility.yul\":1623:1624   */\n      0x00\n        /* \"#utility.yul\":1620:1621   */\n      0x00\n        /* \"#utility.yul\":1613:1625   */\n      revert\n        /* \"#utility.yul\":1572:1627   */\n    tag_169:\n        /* \"#utility.yul\":1663:1665   */\n      dup1\n        /* \"#utility.yul\":1650:1666   */\n      calldataload\n        /* \"#utility.yul\":1689:1707   */\n      0xffffffffffffffff\n        /* \"#utility.yul\":1681:1687   */\n      dup2\n        /* \"#utility.yul\":1678:1708   */\n      gt\n        /* \"#utility.yul\":1675:1725   */\n      iszero\n      tag_170\n      jumpi\n        /* \"#utility.yul\":1721:1722   */\n      0x00\n        /* \"#utility.yul\":1718:1719   */\n      0x00\n        /* \"#utility.yul\":1711:1723   */\n      revert\n        /* \"#utility.yul\":1675:1725   */\n    tag_170:\n        /* \"#utility.yul\":1766:1773   */\n      dup6\n        /* \"#utility.yul\":1761:1763   */\n      0x20\n        /* \"#utility.yul\":1752:1758   */\n      dup3\n        /* \"#utility.yul\":1748:1750   */\n      dup5\n        /* \"#utility.yul\":1744:1759   */\n      add\n        /* \"#utility.yul\":1740:1764   */\n      add\n        /* \"#utility.yul\":1737:1774   */\n      gt\n        /* \"#utility.yul\":1734:1791   */\n      iszero\n      tag_171\n      jumpi\n        /* \"#utility.yul\":1787:1788   */\n      0x00\n        /* \"#utility.yul\":1784:1785   */\n      0x00\n        /* \"#utility.yul\":1777:1789   */\n      revert\n        /* \"#utility.yul\":1734:1791   */\n    tag_171:\n        /* \"#utility.yul\":1818:1820   */\n      0x20\n        /* \"#utility.yul\":1810:1821   */\n      swap2\n      swap1\n      swap2\n      add\n      swap6\n        /* \"#utility.yul\":1840:1846   */\n      swap1\n      swap5\n      pop\n        /* \"#utility.yul\":1265:1852   */\n      swap3\n      pop\n      pop\n      pop\n      jump\t// out\n        /* \"#utility.yul\":2196:2323   */\n    tag_157:\n        /* \"#utility.yul\":2257:2267   */\n      0x4e487b71\n        /* \"#utility.yul\":2252:2255   */\n      0xe0\n        /* \"#utility.yul\":2248:2268   */\n      shl\n        /* \"#utility.yul\":2245:2246   */\n      0x00\n        /* \"#utility.yul\":2238:2269   */\n      mstore\n        /* \"#utility.yul\":2288:2292   */\n      0x11\n        /* \"#utility.yul\":2285:2286   */\n      0x04\n        /* \"#utility.yul\":2278:2293   */\n      mstore\n        /* \"#utility.yul\":2312:2316   */\n      0x24\n        /* \"#utility.yul\":2309:2310   */\n      0x00\n        /* \"#utility.yul\":2302:2317   */\n      revert\n        /* \"#utility.yul\":2328:2496   */\n    tag_71:\n        /* \"#utility.yul\":2401:2410   */\n      dup1\n      dup3\n      mul\n        /* \"#utility.yul\":2432:2441   */\n      dup2\n      iszero\n        /* \"#utility.yul\":2449:2464   */\n      dup3\n      dup3\n      div\n        /* \"#utility.yul\":2443:2465   */\n      dup5\n      eq\n        /* \"#utility.yul\":2429:2466   */\n      or\n        /* \"#utility.yul\":2419:2490   */\n      tag_176\n      jumpi\n        /* \"#utility.yul\":2470:2488   */\n      tag_176\n      tag_157\n      jump\t// in\n    tag_176:\n        /* \"#utility.yul\":2328:2496   */\n      swap3\n      swap2\n      pop\n      pop\n      jump\t// out\n        /* \"#utility.yul\":2501:2718   */\n    tag_73:\n        /* \"#utility.yul\":2541:2542   */\n      0x00\n        /* \"#utility.yul\":2567:2568   */\n      dup3\n        /* \"#utility.yul\":2557:2689   */\n      tag_178\n      jumpi\n        /* \"#utility.yul\":2611:2621   */\n      0x4e487b71\n        /* \"#utility.yul\":2606:2609   */\n      0xe0\n        /* \"#utility.yul\":2602:2622   */\n      shl\n        /* \"#utility.yul\":2599:2600   */\n      0x00\n        /* \"#utility.yul\":2592:2623   */\n      mstore\n        /* \"#utility.yul\":2646:2650   */\n      0x12\n        /* \"#utility.yul\":2643:2644   */\n      0x04\n        /* \"#utility.yul\":2636:2651   */\n      mstore\n        /* \"#utility.yul\":2674:2678   */\n      0x24\n        /* \"#utility.yul\":2671:2672   */\n      0x00\n        /* \"#utility.yul\":2664:2679   */\n      revert\n        /* \"#utility.yul\":2557:2689   */\n    tag_178:\n      pop\n        /* \"#utility.yul\":2703:2712   */\n      div\n      swap1\n        /* \"#utility.yul\":2501:2718   */\n      jump\t// out\n        /* \"#utility.yul\":2723:2851   */\n    tag_77:\n        /* \"#utility.yul\":2790:2799   */\n      dup2\n      dup2\n      sub\n        /* \"#utility.yul\":2811:2822   */\n      dup2\n      dup2\n      gt\n        /* \"#utility.yul\":2808:2845   */\n      iszero\n      tag_176\n      jumpi\n        /* \"#utility.yul\":2825:2843   */\n      tag_176\n      tag_157\n      jump\t// in\n        /* \"#utility.yul\":3232:3509   */\n    tag_84:\n        /* \"#utility.yul\":3299:3305   */\n      0x00\n        /* \"#utility.yul\":3352:3354   */\n      0x20\n        /* \"#utility.yul\":3340:3349   */\n      dup3\n        /* \"#utility.yul\":3331:3338   */\n      dup5\n        /* \"#utility.yul\":3327:3350   */\n      sub\n        /* \"#utility.yul\":3323:3355   */\n      slt\n        /* \"#utility.yul\":3320:3372   */\n      iszero\n      tag_184\n      jumpi\n        /* \"#utility.yul\":3368:3369   */\n      0x00\n        /* \"#utility.yul\":3365:3366   */\n      0x00\n        /* \"#utility.yul\":3358:3370   */\n      revert\n        /* \"#utility.yul\":3320:3372   */\n    tag_184:\n        /* \"#utility.yul\":3400:3409   */\n      dup2\n        /* \"#utility.yul\":3394:3410   */\n      mload\n        /* \"#utility.yul\":3453:3458   */\n      dup1\n        /* \"#utility.yul\":3446:3459   */\n      iszero\n        /* \"#utility.yul\":3439:3460   */\n      iszero\n        /* \"#utility.yul\":3432:3437   */\n      dup2\n        /* \"#utility.yul\":3429:3461   */\n      eq\n        /* \"#utility.yul\":3419:3479   */\n      tag_185\n      jumpi\n        /* \"#utility.yul\":3475:3476   */\n      0x00\n        /* \"#utility.yul\":3472:3473   */\n      0x00\n        /* \"#utility.yul\":3465:3477   */\n      revert\n        /* \"#utility.yul\":3419:3479   */\n    tag_185:\n        /* \"#utility.yul\":3498:3503   */\n      swap4\n        /* \"#utility.yul\":3232:3509   */\n      swap3\n      pop\n      pop\n      pop\n      jump\t// out\n        /* \"#utility.yul\":5823:6113   */\n    tag_129:\n        /* \"#utility.yul\":5893:5899   */\n      0x00\n        /* \"#utility.yul\":5946:5948   */\n      0x20\n        /* \"#utility.yul\":5934:5943   */\n      dup3\n        /* \"#utility.yul\":5925:5932   */\n      dup5\n        /* \"#utility.yul\":5921:5944   */\n      sub\n        /* \"#utility.yul\":5917:5949   */\n      slt\n        /* \"#utility.yul\":5914:5966   */\n      iszero\n      tag_194\n      jumpi\n        /* \"#utility.yul\":5962:5963   */\n      0x00\n        /* \"#utility.yul\":5959:5960   */\n      0x00\n        /* \"#utility.yul\":5952:5964   */\n      revert\n        /* \"#utility.yul\":5914:5966   */\n    tag_194:\n        /* \"#utility.yul\":5988:6004   */\n      dup2\n      mload\n      sub(shl(0xa0, 0x01), 0x01)\n        /* \"#utility.yul\":6033:6064   */\n      dup2\n      and\n        /* \"#utility.yul\":6023:6065   */\n      dup2\n      eq\n        /* \"#utility.yul\":6013:6083   */\n      tag_185\n      jumpi\n        /* \"#utility.yul\":6079:6080   */\n      0x00\n        /* \"#utility.yul\":6076:6077   */\n      0x00\n        /* \"#utility.yul\":6069:6081   */\n      revert\n        /* \"#utility.yul\":7483:7970   */\n    tag_153:\n      sub(shl(0xa0, 0x01), 0x01)\n        /* \"#utility.yul\":7670:7702   */\n      dup5\n      and\n        /* \"#utility.yul\":7652:7703   */\n      dup2\n      mstore\n        /* \"#utility.yul\":7739:7741   */\n      0x40\n        /* \"#utility.yul\":7734:7736   */\n      0x20\n        /* \"#utility.yul\":7719:7737   */\n      dup3\n      add\n        /* \"#utility.yul\":7712:7742   */\n      dup2\n      swap1\n      mstore\n        /* \"#utility.yul\":7758:7776   */\n      dup2\n      add\n        /* \"#utility.yul\":7751:7785   */\n      dup3\n      swap1\n      mstore\n        /* \"#utility.yul\":7778:7784   */\n      dup2\n        /* \"#utility.yul\":7827:7833   */\n      dup4\n        /* \"#utility.yul\":7822:7824   */\n      0x60\n        /* \"#utility.yul\":7807:7825   */\n      dup4\n      add\n        /* \"#utility.yul\":7794:7842   */\n      calldatacopy\n        /* \"#utility.yul\":7891:7892   */\n      0x00\n        /* \"#utility.yul\":7862:7884   */\n      dup2\n      dup4\n      add\n        /* \"#utility.yul\":7886:7888   */\n      0x60\n        /* \"#utility.yul\":7858:7889   */\n      swap1\n      dup2\n      add\n        /* \"#utility.yul\":7851:7893   */\n      swap2\n      swap1\n      swap2\n      mstore\n        /* \"#utility.yul\":7954:7956   */\n      0x1f\n        /* \"#utility.yul\":7933:7948   */\n      swap1\n      swap3\n      add\n      not(0x1f)\n        /* \"#utility.yul\":7929:7958   */\n      and\n        /* \"#utility.yul\":7914:7959   */\n      add\n        /* \"#utility.yul\":7910:7964   */\n      add\n      swap3\n        /* \"#utility.yul\":7483:7970   */\n      swap2\n      pop\n      pop\n      jump\t// out\n\n    auxdata: 0xa264697066735822122002b1b64cd43cd422c6f48d99326ed749c1cb99b44524b3347d744b5cefd4627164736f6c634300081d0033\n}\n",
				"bytecode": {
					"linkReferences": {},
					"object": "608060405234801561000f575f5ffd5b50604051610e8f380380610e8f83398101604081905261002e91610136565b6001600160a01b0384161580159061004e57506001600160a01b03831615155b801561006257506001600160a01b03821615155b801561007657506001600160a01b03811615155b6100b85760405162461bcd60e51b815260206004820152600f60248201526e496e76616c6964206164647265737360881b604482015260640160405180910390fd5b5f80546001600160a01b039586166001600160a01b0319918216179091556001805494861694821694909417909355600280549285169284169290921790915560038054919093169116179055670de0b6b3a7640000600455604b600555610187565b80516001600160a01b0381168114610131575f5ffd5b919050565b5f5f5f5f60808587031215610149575f5ffd5b6101528561011b565b93506101606020860161011b565b925061016e6040860161011b565b915061017c6060860161011b565b905092959194509250565b610cfb806101945f395ff3fe608060405234801561000f575f5ffd5b50600436106100cb575f3560e01c80638ea5220f11610088578063a6d7451211610063578063a6d74512146101e4578063d56d229d146101f7578063de74e57b14610209578063fb37e8831461023b575f5ffd5b80638ea5220f146101ab57806394383f14146101be578063961f0944146101d1575f5ffd5b8063107a274a146100cf578063178021e3146101385780634162169f1461014f57806351ed82881461017a5780636a1b7ecc1461018f5780636db7943714610198575b5f5ffd5b6101146100dd366004610b32565b5f90815260066020908152604091829020825180840190935280546001600160a01b03168084526001909101549290910182905291565b604080516001600160a01b0390931683526020830191909152015b60405180910390f35b61014160055481565b60405190815260200161012f565b600254610162906001600160a01b031681565b6040516001600160a01b03909116815260200161012f565b61018d610188366004610b32565b61024e565b005b61014160045481565b61018d6101a6366004610b49565b6106d1565b600354610162906001600160a01b031681565b61018d6101cc366004610b49565b61079e565b61018d6101df366004610b32565b6109c7565b600154610162906001600160a01b031681565b5f54610162906001600160a01b031681565b610114610217366004610b32565b60066020525f9081526040902080546001909101546001600160a01b039091169082565b61018d610249366004610b69565b610a85565b5f81815260066020908152604091829020825180840190935280546001600160a01b03168352600101549082018190526102bc5760405162461bcd60e51b815260206004820152600a602482015269139bdd081b1a5cdd195960b21b60448201526064015b60405180910390fd5b5f61271060055483602001516102d29190610beb565b6102dc9190610c08565b90505f612710836020015160326102f39190610beb565b6102fd9190610c08565b90505f61030a8284610c27565b90505f83856020015161031d9190610c27565b60015460208701516040516323b872dd60e01b815233600482015230602482015260448101919091529192506001600160a01b0316906323b872dd906064016020604051808303815f875af1158015610378573d5f5f3e3d5ffd5b505050506040513d601f19601f8201168201806040525081019061039c9190610c3a565b6103d95760405162461bcd60e51b815260206004820152600e60248201526d14185e5b595b9d0819985a5b195960921b60448201526064016102b3565b600154855160405163a9059cbb60e01b81526001600160a01b0391821660048201526024810184905291169063a9059cbb906044016020604051808303815f875af115801561042a573d5f5f3e3d5ffd5b505050506040513d601f19601f8201168201806040525081019061044e9190610c3a565b61049a5760405162461bcd60e51b815260206004820152601860248201527f5061796d656e7420746f2073656c6c6572206661696c6564000000000000000060448201526064016102b3565b60015460405163a9059cbb60e01b81525f6004820152602481018590526001600160a01b039091169063a9059cbb906044016020604051808303815f875af11580156104e8573d5f5f3e3d5ffd5b505050506040513d601f19601f8201168201806040525081019061050c9190610c3a565b6105465760405162461bcd60e51b815260206004820152600b60248201526a109d5c9b8819985a5b195960aa1b60448201526064016102b3565b60015460035460405163a9059cbb60e01b81526001600160a01b0391821660048201526024810185905291169063a9059cbb906044016020604051808303815f875af1158015610598573d5f5f3e3d5ffd5b505050506040513d601f19601f820116820180604052508101906105bc9190610c3a565b6105f95760405162461bcd60e51b815260206004820152600e60248201526d11195d881999594819985a5b195960921b60448201526064016102b3565b5f548551604051632142170760e11b81526001600160a01b039182166004820152336024820152604481018990529116906342842e0e906064015f604051808303815f87803b15801561064a575f5ffd5b505af115801561065c573d5f5f3e3d5ffd5b5050505f87815260066020908152604080832080546001600160a01b03191681556001019290925587518882015192519283528993506001600160a01b03169133917f84a34755616a04d6e547597ec5933d7ca8cf181bb354026be7e93e147edf0ab7910160405180910390a4505050505050565b6002546001600160a01b031633146107165760405162461bcd60e51b81526020600482015260086024820152674f6e6c792044414f60c01b60448201526064016102b3565b6103e88111156107575760405162461bcd60e51b815260206004820152600c60248201526b546f6f20686967682066656560a01b60448201526064016102b3565b6004829055600581905560408051838152602081018390527f5c6323bf1c2d7aaea2c091a4751c1c87af7f2864650c336507a77d0557af37a1910160405180910390a15050565b5f546040516331a9108f60e11b81526004810184905233916001600160a01b031690636352211e90602401602060405180830381865afa1580156107e4573d5f5f3e3d5ffd5b505050506040513d601f19601f820116820180604052508101906108089190610c60565b6001600160a01b03161461084a5760405162461bcd60e51b81526020600482015260096024820152682737ba1037bbb732b960b91b60448201526064016102b3565b5f81116108895760405162461bcd60e51b815260206004820152600d60248201526c496e76616c696420707269636560981b60448201526064016102b3565b600154600254600480546040516323b872dd60e01b815233928101929092526001600160a01b03928316602483015260448201529116906323b872dd906064016020604051808303815f875af11580156108e5573d5f5f3e3d5ffd5b505050506040513d601f19601f820116820180604052508101906109099190610c3a565b61094a5760405162461bcd60e51b8152602060048201526012602482015271131a5cdd1a5b99c81999594819985a5b195960721b60448201526064016102b3565b6040805180820182523380825260208083018581525f87815260068352859020935184546001600160a01b0319166001600160a01b039091161784555160019093019290925591518381528492917fbbf44e68296791df5535457da734bf1017c4b233a740af6d7a89b9f1af4ecb42910160405180910390a35050565b5f81815260066020908152604091829020825180840190935280546001600160a01b0316808452600190910154918301919091523314610a365760405162461bcd60e51b815260206004820152600a6024820152692737ba1039b2b63632b960b11b60448201526064016102b3565b5f8281526006602052604080822080546001600160a01b031916815560010182905551839133917f8a7922f72dc2a50a632acdde12b7d222aefa2fdb7f3ca1364b419734569d0e809190a35050565b6002546001600160a01b03163314610aca5760405162461bcd60e51b81526020600482015260086024820152674f6e6c792044414f60c01b60448201526064016102b3565b5f5460025460405163d0def52160e01b81526001600160a01b039283169263d0def52192610b019291169086908690600401610c86565b5f604051808303815f87803b158015610b18575f5ffd5b505af1158015610b2a573d5f5f3e3d5ffd5b505050505050565b5f60208284031215610b42575f5ffd5b5035919050565b5f5f60408385031215610b5a575f5ffd5b50508035926020909101359150565b5f5f60208385031215610b7a575f5ffd5b823567ffffffffffffffff811115610b90575f5ffd5b8301601f81018513610ba0575f5ffd5b803567ffffffffffffffff811115610bb6575f5ffd5b856020828401011115610bc7575f5ffd5b6020919091019590945092505050565b634e487b7160e01b5f52601160045260245ffd5b8082028115828204841417610c0257610c02610bd7565b92915050565b5f82610c2257634e487b7160e01b5f52601260045260245ffd5b500490565b81810381811115610c0257610c02610bd7565b5f60208284031215610c4a575f5ffd5b81518015158114610c59575f5ffd5b9392505050565b5f60208284031215610c70575f5ffd5b81516001600160a01b0381168114610c59575f5ffd5b6001600160a01b03841681526040602082018190528101829052818360608301375f818301606090810191909152601f909201601f191601019291505056fea264697066735822122002b1b64cd43cd422c6f48d99326ed749c1cb99b44524b3347d744b5cefd4627164736f6c634300081d0033",
					"opcodes": "PUSH1 0x80 PUSH1 0x40 MSTORE CALLVALUE DUP1 ISZERO PUSH2 0xF JUMPI PUSH0 PUSH0 REVERT JUMPDEST POP PUSH1 0x40 MLOAD PUSH2 0xE8F CODESIZE SUB DUP1 PUSH2 0xE8F DUP4 CODECOPY DUP2 ADD PUSH1 0x40 DUP2 SWAP1 MSTORE PUSH2 0x2E SWAP2 PUSH2 0x136 JUMP JUMPDEST PUSH1 0x1 PUSH1 0x1 PUSH1 0xA0 SHL SUB DUP5 AND ISZERO DUP1 ISZERO SWAP1 PUSH2 0x4E JUMPI POP PUSH1 0x1 PUSH1 0x1 PUSH1 0xA0 SHL SUB DUP4 AND ISZERO ISZERO JUMPDEST DUP1 ISZERO PUSH2 0x62 JUMPI POP PUSH1 0x1 PUSH1 0x1 PUSH1 0xA0 SHL SUB DUP3 AND ISZERO ISZERO JUMPDEST DUP1 ISZERO PUSH2 0x76 JUMPI POP PUSH1 0x1 PUSH1 0x1 PUSH1 0xA0 SHL SUB DUP2 AND ISZERO ISZERO JUMPDEST PUSH2 0xB8 JUMPI PUSH1 0x40 MLOAD PUSH3 0x461BCD PUSH1 0xE5 SHL DUP2 MSTORE PUSH1 0x20 PUSH1 0x4 DUP3 ADD MSTORE PUSH1 0xF PUSH1 0x24 DUP3 ADD MSTORE PUSH15 0x496E76616C69642061646472657373 PUSH1 0x88 SHL PUSH1 0x44 DUP3 ADD MSTORE PUSH1 0x64 ADD PUSH1 0x40 MLOAD DUP1 SWAP2 SUB SWAP1 REVERT JUMPDEST PUSH0 DUP1 SLOAD PUSH1 0x1 PUSH1 0x1 PUSH1 0xA0 SHL SUB SWAP6 DUP7 AND PUSH1 0x1 PUSH1 0x1 PUSH1 0xA0 SHL SUB NOT SWAP2 DUP3 AND OR SWAP1 SWAP2 SSTORE PUSH1 0x1 DUP1 SLOAD SWAP5 DUP7 AND SWAP5 DUP3 AND SWAP5 SWAP1 SWAP5 OR SWAP1 SWAP4 SSTORE PUSH1 0x2 DUP1 SLOAD SWAP3 DUP6 AND SWAP3 DUP5 AND SWAP3 SWAP1 SWAP3 OR SWAP1 SWAP2 SSTORE PUSH1 0x3 DUP1 SLOAD SWAP2 SWAP1 SWAP4 AND SWAP2 AND OR SWAP1 SSTORE PUSH8 0xDE0B6B3A7640000 PUSH1 0x4 SSTORE PUSH1 0x4B PUSH1 0x5 SSTORE PUSH2 0x187 JUMP JUMPDEST DUP1 MLOAD PUSH1 0x1 PUSH1 0x1 PUSH1 0xA0 SHL SUB DUP2 AND DUP2 EQ PUSH2 0x131 JUMPI PUSH0 PUSH0 REVERT JUMPDEST SWAP2 SWAP1 POP JUMP JUMPDEST PUSH0 PUSH0 PUSH0 PUSH0 PUSH1 0x80 DUP6 DUP8 SUB SLT ISZERO PUSH2 0x149 JUMPI PUSH0 PUSH0 REVERT JUMPDEST PUSH2 0x152 DUP6 PUSH2 0x11B JUMP JUMPDEST SWAP4 POP PUSH2 0x160 PUSH1 0x20 DUP7 ADD PUSH2 0x11B JUMP JUMPDEST SWAP3 POP PUSH2 0x16E PUSH1 0x40 DUP7 ADD PUSH2 0x11B JUMP JUMPDEST SWAP2 POP PUSH2 0x17C PUSH1 0x60 DUP7 ADD PUSH2 0x11B JUMP JUMPDEST SWAP1 POP SWAP3 SWAP6 SWAP2 SWAP5 POP SWAP3 POP JUMP JUMPDEST PUSH2 0xCFB DUP1 PUSH2 0x194 PUSH0 CODECOPY PUSH0 RETURN INVALID PUSH1 0x80 PUSH1 0x40 MSTORE CALLVALUE DUP1 ISZERO PUSH2 0xF JUMPI PUSH0 PUSH0 REVERT JUMPDEST POP PUSH1 0x4 CALLDATASIZE LT PUSH2 0xCB JUMPI PUSH0 CALLDATALOAD PUSH1 0xE0 SHR DUP1 PUSH4 0x8EA5220F GT PUSH2 0x88 JUMPI DUP1 PUSH4 0xA6D74512 GT PUSH2 0x63 JUMPI DUP1 PUSH4 0xA6D74512 EQ PUSH2 0x1E4 JUMPI DUP1 PUSH4 0xD56D229D EQ PUSH2 0x1F7 JUMPI DUP1 PUSH4 0xDE74E57B EQ PUSH2 0x209 JUMPI DUP1 PUSH4 0xFB37E883 EQ PUSH2 0x23B JUMPI PUSH0 PUSH0 REVERT JUMPDEST DUP1 PUSH4 0x8EA5220F EQ PUSH2 0x1AB JUMPI DUP1 PUSH4 0x94383F14 EQ PUSH2 0x1BE JUMPI DUP1 PUSH4 0x961F0944 EQ PUSH2 0x1D1 JUMPI PUSH0 PUSH0 REVERT JUMPDEST DUP1 PUSH4 0x107A274A EQ PUSH2 0xCF JUMPI DUP1 PUSH4 0x178021E3 EQ PUSH2 0x138 JUMPI DUP1 PUSH4 0x4162169F EQ PUSH2 0x14F JUMPI DUP1 PUSH4 0x51ED8288 EQ PUSH2 0x17A JUMPI DUP1 PUSH4 0x6A1B7ECC EQ PUSH2 0x18F JUMPI DUP1 PUSH4 0x6DB79437 EQ PUSH2 0x198 JUMPI JUMPDEST PUSH0 PUSH0 REVERT JUMPDEST PUSH2 0x114 PUSH2 0xDD CALLDATASIZE PUSH1 0x4 PUSH2 0xB32 JUMP JUMPDEST PUSH0 SWAP1 DUP2 MSTORE PUSH1 0x6 PUSH1 0x20 SWAP1 DUP2 MSTORE PUSH1 0x40 SWAP2 DUP3 SWAP1 KECCAK256 DUP3 MLOAD DUP1 DUP5 ADD SWAP1 SWAP4 MSTORE DUP1 SLOAD PUSH1 0x1 PUSH1 0x1 PUSH1 0xA0 SHL SUB AND DUP1 DUP5 MSTORE PUSH1 0x1 SWAP1 SWAP2 ADD SLOAD SWAP3 SWAP1 SWAP2 ADD DUP3 SWAP1 MSTORE SWAP2 JUMP JUMPDEST PUSH1 0x40 DUP1 MLOAD PUSH1 0x1 PUSH1 0x1 PUSH1 0xA0 SHL SUB SWAP1 SWAP4 AND DUP4 MSTORE PUSH1 0x20 DUP4 ADD SWAP2 SWAP1 SWAP2 MSTORE ADD JUMPDEST PUSH1 0x40 MLOAD DUP1 SWAP2 SUB SWAP1 RETURN JUMPDEST PUSH2 0x141 PUSH1 0x5 SLOAD DUP2 JUMP JUMPDEST PUSH1 0x40 MLOAD SWAP1 DUP2 MSTORE PUSH1 0x20 ADD PUSH2 0x12F JUMP JUMPDEST PUSH1 0x2 SLOAD PUSH2 0x162 SWAP1 PUSH1 0x1 PUSH1 0x1 PUSH1 0xA0 SHL SUB AND DUP2 JUMP JUMPDEST PUSH1 0x40 MLOAD PUSH1 0x1 PUSH1 0x1 PUSH1 0xA0 SHL SUB SWAP1 SWAP2 AND DUP2 MSTORE PUSH1 0x20 ADD PUSH2 0x12F JUMP JUMPDEST PUSH2 0x18D PUSH2 0x188 CALLDATASIZE PUSH1 0x4 PUSH2 0xB32 JUMP JUMPDEST PUSH2 0x24E JUMP JUMPDEST STOP JUMPDEST PUSH2 0x141 PUSH1 0x4 SLOAD DUP2 JUMP JUMPDEST PUSH2 0x18D PUSH2 0x1A6 CALLDATASIZE PUSH1 0x4 PUSH2 0xB49 JUMP JUMPDEST PUSH2 0x6D1 JUMP JUMPDEST PUSH1 0x3 SLOAD PUSH2 0x162 SWAP1 PUSH1 0x1 PUSH1 0x1 PUSH1 0xA0 SHL SUB AND DUP2 JUMP JUMPDEST PUSH2 0x18D PUSH2 0x1CC CALLDATASIZE PUSH1 0x4 PUSH2 0xB49 JUMP JUMPDEST PUSH2 0x79E JUMP JUMPDEST PUSH2 0x18D PUSH2 0x1DF CALLDATASIZE PUSH1 0x4 PUSH2 0xB32 JUMP JUMPDEST PUSH2 0x9C7 JUMP JUMPDEST PUSH1 0x1 SLOAD PUSH2 0x162 SWAP1 PUSH1 0x1 PUSH1 0x1 PUSH1 0xA0 SHL SUB AND DUP2 JUMP JUMPDEST PUSH0 SLOAD PUSH2 0x162 SWAP1 PUSH1 0x1 PUSH1 0x1 PUSH1 0xA0 SHL SUB AND DUP2 JUMP JUMPDEST PUSH2 0x114 PUSH2 0x217 CALLDATASIZE PUSH1 0x4 PUSH2 0xB32 JUMP JUMPDEST PUSH1 0x6 PUSH1 0x20 MSTORE PUSH0 SWAP1 DUP2 MSTORE PUSH1 0x40 SWAP1 KECCAK256 DUP1 SLOAD PUSH1 0x1 SWAP1 SWAP2 ADD SLOAD PUSH1 0x1 PUSH1 0x1 PUSH1 0xA0 SHL SUB SWAP1 SWAP2 AND SWAP1 DUP3 JUMP JUMPDEST PUSH2 0x18D PUSH2 0x249 CALLDATASIZE PUSH1 0x4 PUSH2 0xB69 JUMP JUMPDEST PUSH2 0xA85 JUMP JUMPDEST PUSH0 DUP2 DUP2 MSTORE PUSH1 0x6 PUSH1 0x20 SWAP1 DUP2 MSTORE PUSH1 0x40 SWAP2 DUP3 SWAP1 KECCAK256 DUP3 MLOAD DUP1 DUP5 ADD SWAP1 SWAP4 MSTORE DUP1 SLOAD PUSH1 0x1 PUSH1 0x1 PUSH1 0xA0 SHL SUB AND DUP4 MSTORE PUSH1 0x1 ADD SLOAD SWAP1 DUP3 ADD DUP2 SWAP1 MSTORE PUSH2 0x2BC JUMPI PUSH1 0x40 MLOAD PUSH3 0x461BCD PUSH1 0xE5 SHL DUP2 MSTORE PUSH1 0x20 PUSH1 0x4 DUP3 ADD MSTORE PUSH1 0xA PUSH1 0x24 DUP3 ADD MSTORE PUSH10 0x139BDD081B1A5CDD1959 PUSH1 0xB2 SHL PUSH1 0x44 DUP3 ADD MSTORE PUSH1 0x64 ADD JUMPDEST PUSH1 0x40 MLOAD DUP1 SWAP2 SUB SWAP1 REVERT JUMPDEST PUSH0 PUSH2 0x2710 PUSH1 0x5 SLOAD DUP4 PUSH1 0x20 ADD MLOAD PUSH2 0x2D2 SWAP2 SWAP1 PUSH2 0xBEB JUMP JUMPDEST PUSH2 0x2DC SWAP2 SWAP1 PUSH2 0xC08 JUMP JUMPDEST SWAP1 POP PUSH0 PUSH2 0x2710 DUP4 PUSH1 0x20 ADD MLOAD PUSH1 0x32 PUSH2 0x2F3 SWAP2 SWAP1 PUSH2 0xBEB JUMP JUMPDEST PUSH2 0x2FD SWAP2 SWAP1 PUSH2 0xC08 JUMP JUMPDEST SWAP1 POP PUSH0 PUSH2 0x30A DUP3 DUP5 PUSH2 0xC27 JUMP JUMPDEST SWAP1 POP PUSH0 DUP4 DUP6 PUSH1 0x20 ADD MLOAD PUSH2 0x31D SWAP2 SWAP1 PUSH2 0xC27 JUMP JUMPDEST PUSH1 0x1 SLOAD PUSH1 0x20 DUP8 ADD MLOAD PUSH1 0x40 MLOAD PUSH4 0x23B872DD PUSH1 0xE0 SHL DUP2 MSTORE CALLER PUSH1 0x4 DUP3 ADD MSTORE ADDRESS PUSH1 0x24 DUP3 ADD MSTORE PUSH1 0x44 DUP2 ADD SWAP2 SWAP1 SWAP2 MSTORE SWAP2 SWAP3 POP PUSH1 0x1 PUSH1 0x1 PUSH1 0xA0 SHL SUB AND SWAP1 PUSH4 0x23B872DD SWAP1 PUSH1 0x64 ADD PUSH1 0x20 PUSH1 0x40 MLOAD DUP1 DUP4 SUB DUP2 PUSH0 DUP8 GAS CALL ISZERO DUP1 ISZERO PUSH2 0x378 JUMPI RETURNDATASIZE PUSH0 PUSH0 RETURNDATACOPY RETURNDATASIZE PUSH0 REVERT JUMPDEST POP POP POP POP PUSH1 0x40 MLOAD RETURNDATASIZE PUSH1 0x1F NOT PUSH1 0x1F DUP3 ADD AND DUP3 ADD DUP1 PUSH1 0x40 MSTORE POP DUP2 ADD SWAP1 PUSH2 0x39C SWAP2 SWAP1 PUSH2 0xC3A JUMP JUMPDEST PUSH2 0x3D9 JUMPI PUSH1 0x40 MLOAD PUSH3 0x461BCD PUSH1 0xE5 SHL DUP2 MSTORE PUSH1 0x20 PUSH1 0x4 DUP3 ADD MSTORE PUSH1 0xE PUSH1 0x24 DUP3 ADD MSTORE PUSH14 0x14185E5B595B9D0819985A5B1959 PUSH1 0x92 SHL PUSH1 0x44 DUP3 ADD MSTORE PUSH1 0x64 ADD PUSH2 0x2B3 JUMP JUMPDEST PUSH1 0x1 SLOAD DUP6 MLOAD PUSH1 0x40 MLOAD PUSH4 0xA9059CBB PUSH1 0xE0 SHL DUP2 MSTORE PUSH1 0x1 PUSH1 0x1 PUSH1 0xA0 SHL SUB SWAP2 DUP3 AND PUSH1 0x4 DUP3 ADD MSTORE PUSH1 0x24 DUP2 ADD DUP5 SWAP1 MSTORE SWAP2 AND SWAP1 PUSH4 0xA9059CBB SWAP1 PUSH1 0x44 ADD PUSH1 0x20 PUSH1 0x40 MLOAD DUP1 DUP4 SUB DUP2 PUSH0 DUP8 GAS CALL ISZERO DUP1 ISZERO PUSH2 0x42A JUMPI RETURNDATASIZE PUSH0 PUSH0 RETURNDATACOPY RETURNDATASIZE PUSH0 REVERT JUMPDEST POP POP POP POP PUSH1 0x40 MLOAD RETURNDATASIZE PUSH1 0x1F NOT PUSH1 0x1F DUP3 ADD AND DUP3 ADD DUP1 PUSH1 0x40 MSTORE POP DUP2 ADD SWAP1 PUSH2 0x44E SWAP2 SWAP1 PUSH2 0xC3A JUMP JUMPDEST PUSH2 0x49A JUMPI PUSH1 0x40 MLOAD PUSH3 0x461BCD PUSH1 0xE5 SHL DUP2 MSTORE PUSH1 0x20 PUSH1 0x4 DUP3 ADD MSTORE PUSH1 0x18 PUSH1 0x24 DUP3 ADD MSTORE PUSH32 0x5061796D656E7420746F2073656C6C6572206661696C65640000000000000000 PUSH1 0x44 DUP3 ADD MSTORE PUSH1 0x64 ADD PUSH2 0x2B3 JUMP JUMPDEST PUSH1 0x1 SLOAD PUSH1 0x40 MLOAD PUSH4 0xA9059CBB PUSH1 0xE0 SHL DUP2 MSTORE PUSH0 PUSH1 0x4 DUP3 ADD MSTORE PUSH1 0x24 DUP2 ADD DUP6 SWAP1 MSTORE PUSH1 0x1 PUSH1 0x1 PUSH1 0xA0 SHL SUB SWAP1 SWAP2 AND SWAP1 PUSH4 0xA9059CBB SWAP1 PUSH1 0x44 ADD PUSH1 0x20 PUSH1 0x40 MLOAD DUP1 DUP4 SUB DUP2 PUSH0 DUP8 GAS CALL ISZERO DUP1 ISZERO PUSH2 0x4E8 JUMPI RETURNDATASIZE PUSH0 PUSH0 RETURNDATACOPY RETURNDATASIZE PUSH0 REVERT JUMPDEST POP POP POP POP PUSH1 0x40 MLOAD RETURNDATASIZE PUSH1 0x1F NOT PUSH1 0x1F DUP3 ADD AND DUP3 ADD DUP1 PUSH1 0x40 MSTORE POP DUP2 ADD SWAP1 PUSH2 0x50C SWAP2 SWAP1 PUSH2 0xC3A JUMP JUMPDEST PUSH2 0x546 JUMPI PUSH1 0x40 MLOAD PUSH3 0x461BCD PUSH1 0xE5 SHL DUP2 MSTORE PUSH1 0x20 PUSH1 0x4 DUP3 ADD MSTORE PUSH1 0xB PUSH1 0x24 DUP3 ADD MSTORE PUSH11 0x109D5C9B8819985A5B1959 PUSH1 0xAA SHL PUSH1 0x44 DUP3 ADD MSTORE PUSH1 0x64 ADD PUSH2 0x2B3 JUMP JUMPDEST PUSH1 0x1 SLOAD PUSH1 0x3 SLOAD PUSH1 0x40 MLOAD PUSH4 0xA9059CBB PUSH1 0xE0 SHL DUP2 MSTORE PUSH1 0x1 PUSH1 0x1 PUSH1 0xA0 SHL SUB SWAP2 DUP3 AND PUSH1 0x4 DUP3 ADD MSTORE PUSH1 0x24 DUP2 ADD DUP6 SWAP1 MSTORE SWAP2 AND SWAP1 PUSH4 0xA9059CBB SWAP1 PUSH1 0x44 ADD PUSH1 0x20 PUSH1 0x40 MLOAD DUP1 DUP4 SUB DUP2 PUSH0 DUP8 GAS CALL ISZERO DUP1 ISZERO PUSH2 0x598 JUMPI RETURNDATASIZE PUSH0 PUSH0 RETURNDATACOPY RETURNDATASIZE PUSH0 REVERT JUMPDEST POP POP POP POP PUSH1 0x40 MLOAD RETURNDATASIZE PUSH1 0x1F NOT PUSH1 0x1F DUP3 ADD AND DUP3 ADD DUP1 PUSH1 0x40 MSTORE POP DUP2 ADD SWAP1 PUSH2 0x5BC SWAP2 SWAP1 PUSH2 0xC3A JUMP JUMPDEST PUSH2 0x5F9 JUMPI PUSH1 0x40 MLOAD PUSH3 0x461BCD PUSH1 0xE5 SHL DUP2 MSTORE PUSH1 0x20 PUSH1 0x4 DUP3 ADD MSTORE PUSH1 0xE PUSH1 0x24 DUP3 ADD MSTORE PUSH14 0x11195D881999594819985A5B1959 PUSH1 0x92 SHL PUSH1 0x44 DUP3 ADD MSTORE PUSH1 0x64 ADD PUSH2 0x2B3 JUMP JUMPDEST PUSH0 SLOAD DUP6 MLOAD PUSH1 0x40 MLOAD PUSH4 0x21421707 PUSH1 0xE1 SHL DUP2 MSTORE PUSH1 0x1 PUSH1 0x1 PUSH1 0xA0 SHL SUB SWAP2 DUP3 AND PUSH1 0x4 DUP3 ADD MSTORE CALLER PUSH1 0x24 DUP3 ADD MSTORE PUSH1 0x44 DUP2 ADD DUP10 SWAP1 MSTORE SWAP2 AND SWAP1 PUSH4 0x42842E0E SWAP1 PUSH1 0x64 ADD PUSH0 PUSH1 0x40 MLOAD DUP1 DUP4 SUB DUP2 PUSH0 DUP8 DUP1 EXTCODESIZE ISZERO DUP1 ISZERO PUSH2 0x64A JUMPI PUSH0 PUSH0 REVERT JUMPDEST POP GAS CALL ISZERO DUP1 ISZERO PUSH2 0x65C JUMPI RETURNDATASIZE PUSH0 PUSH0 RETURNDATACOPY RETURNDATASIZE PUSH0 REVERT JUMPDEST POP POP POP PUSH0 DUP8 DUP2 MSTORE PUSH1 0x6 PUSH1 0x20 SWAP1 DUP2 MSTORE PUSH1 0x40 DUP1 DUP4 KECCAK256 DUP1 SLOAD PUSH1 0x1 PUSH1 0x1 PUSH1 0xA0 SHL SUB NOT AND DUP2 SSTORE PUSH1 0x1 ADD SWAP3 SWAP1 SWAP3 SSTORE DUP8 MLOAD DUP9 DUP3 ADD MLOAD SWAP3 MLOAD SWAP3 DUP4 MSTORE DUP10 SWAP4 POP PUSH1 0x1 PUSH1 0x1 PUSH1 0xA0 SHL SUB AND SWAP2 CALLER SWAP2 PUSH32 0x84A34755616A04D6E547597EC5933D7CA8CF181BB354026BE7E93E147EDF0AB7 SWAP2 ADD PUSH1 0x40 MLOAD DUP1 SWAP2 SUB SWAP1 LOG4 POP POP POP POP POP POP JUMP JUMPDEST PUSH1 0x2 SLOAD PUSH1 0x1 PUSH1 0x1 PUSH1 0xA0 SHL SUB AND CALLER EQ PUSH2 0x716 JUMPI PUSH1 0x40 MLOAD PUSH3 0x461BCD PUSH1 0xE5 SHL DUP2 MSTORE PUSH1 0x20 PUSH1 0x4 DUP3 ADD MSTORE PUSH1 0x8 PUSH1 0x24 DUP3 ADD MSTORE PUSH8 0x4F6E6C792044414F PUSH1 0xC0 SHL PUSH1 0x44 DUP3 ADD MSTORE PUSH1 0x64 ADD PUSH2 0x2B3 JUMP JUMPDEST PUSH2 0x3E8 DUP2 GT ISZERO PUSH2 0x757 JUMPI PUSH1 0x40 MLOAD PUSH3 0x461BCD PUSH1 0xE5 SHL DUP2 MSTORE PUSH1 0x20 PUSH1 0x4 DUP3 ADD MSTORE PUSH1 0xC PUSH1 0x24 DUP3 ADD MSTORE PUSH12 0x546F6F206869676820666565 PUSH1 0xA0 SHL PUSH1 0x44 DUP3 ADD MSTORE PUSH1 0x64 ADD PUSH2 0x2B3 JUMP JUMPDEST PUSH1 0x4 DUP3 SWAP1 SSTORE PUSH1 0x5 DUP2 SWAP1 SSTORE PUSH1 0x40 DUP1 MLOAD DUP4 DUP2 MSTORE PUSH1 0x20 DUP2 ADD DUP4 SWAP1 MSTORE PUSH32 0x5C6323BF1C2D7AAEA2C091A4751C1C87AF7F2864650C336507A77D0557AF37A1 SWAP2 ADD PUSH1 0x40 MLOAD DUP1 SWAP2 SUB SWAP1 LOG1 POP POP JUMP JUMPDEST PUSH0 SLOAD PUSH1 0x40 MLOAD PUSH4 0x31A9108F PUSH1 0xE1 SHL DUP2 MSTORE PUSH1 0x4 DUP2 ADD DUP5 SWAP1 MSTORE CALLER SWAP2 PUSH1 0x1 PUSH1 0x1 PUSH1 0xA0 SHL SUB AND SWAP1 PUSH4 0x6352211E SWAP1 PUSH1 0x24 ADD PUSH1 0x20 PUSH1 0x40 MLOAD DUP1 DUP4 SUB DUP2 DUP7 GAS STATICCALL ISZERO DUP1 ISZERO PUSH2 0x7E4 JUMPI RETURNDATASIZE PUSH0 PUSH0 RETURNDATACOPY RETURNDATASIZE PUSH0 REVERT JUMPDEST POP POP POP POP PUSH1 0x40 MLOAD RETURNDATASIZE PUSH1 0x1F NOT PUSH1 0x1F DUP3 ADD AND DUP3 ADD DUP1 PUSH1 0x40 MSTORE POP DUP2 ADD SWAP1 PUSH2 0x808 SWAP2 SWAP1 PUSH2 0xC60 JUMP JUMPDEST PUSH1 0x1 PUSH1 0x1 PUSH1 0xA0 SHL SUB AND EQ PUSH2 0x84A JUMPI PUSH1 0x40 MLOAD PUSH3 0x461BCD PUSH1 0xE5 SHL DUP2 MSTORE PUSH1 0x20 PUSH1 0x4 DUP3 ADD MSTORE PUSH1 0x9 PUSH1 0x24 DUP3 ADD MSTORE PUSH9 0x2737BA1037BBB732B9 PUSH1 0xB9 SHL PUSH1 0x44 DUP3 ADD MSTORE PUSH1 0x64 ADD PUSH2 0x2B3 JUMP JUMPDEST PUSH0 DUP2 GT PUSH2 0x889 JUMPI PUSH1 0x40 MLOAD PUSH3 0x461BCD PUSH1 0xE5 SHL DUP2 MSTORE PUSH1 0x20 PUSH1 0x4 DUP3 ADD MSTORE PUSH1 0xD PUSH1 0x24 DUP3 ADD MSTORE PUSH13 0x496E76616C6964207072696365 PUSH1 0x98 SHL PUSH1 0x44 DUP3 ADD MSTORE PUSH1 0x64 ADD PUSH2 0x2B3 JUMP JUMPDEST PUSH1 0x1 SLOAD PUSH1 0x2 SLOAD PUSH1 0x4 DUP1 SLOAD PUSH1 0x40 MLOAD PUSH4 0x23B872DD PUSH1 0xE0 SHL DUP2 MSTORE CALLER SWAP3 DUP2 ADD SWAP3 SWAP1 SWAP3 MSTORE PUSH1 0x1 PUSH1 0x1 PUSH1 0xA0 SHL SUB SWAP3 DUP4 AND PUSH1 0x24 DUP4 ADD MSTORE PUSH1 0x44 DUP3 ADD MSTORE SWAP2 AND SWAP1 PUSH4 0x23B872DD SWAP1 PUSH1 0x64 ADD PUSH1 0x20 PUSH1 0x40 MLOAD DUP1 DUP4 SUB DUP2 PUSH0 DUP8 GAS CALL ISZERO DUP1 ISZERO PUSH2 0x8E5 JUMPI RETURNDATASIZE PUSH0 PUSH0 RETURNDATACOPY RETURNDATASIZE PUSH0 REVERT JUMPDEST POP POP POP POP PUSH1 0x40 MLOAD RETURNDATASIZE PUSH1 0x1F NOT PUSH1 0x1F DUP3 ADD AND DUP3 ADD DUP1 PUSH1 0x40 MSTORE POP DUP2 ADD SWAP1 PUSH2 0x909 SWAP2 SWAP1 PUSH2 0xC3A JUMP JUMPDEST PUSH2 0x94A JUMPI PUSH1 0x40 MLOAD PUSH3 0x461BCD PUSH1 0xE5 SHL DUP2 MSTORE PUSH1 0x20 PUSH1 0x4 DUP3 ADD MSTORE PUSH1 0x12 PUSH1 0x24 DUP3 ADD MSTORE PUSH18 0x131A5CDD1A5B99C81999594819985A5B1959 PUSH1 0x72 SHL PUSH1 0x44 DUP3 ADD MSTORE PUSH1 0x64 ADD PUSH2 0x2B3 JUMP JUMPDEST PUSH1 0x40 DUP1 MLOAD DUP1 DUP3 ADD DUP3 MSTORE CALLER DUP1 DUP3 MSTORE PUSH1 0x20 DUP1 DUP4 ADD DUP6 DUP2 MSTORE PUSH0 DUP8 DUP2 MSTORE PUSH1 0x6 DUP4 MSTORE DUP6 SWAP1 KECCAK256 SWAP4 MLOAD DUP5 SLOAD PUSH1 0x1 PUSH1 0x1 PUSH1 0xA0 SHL SUB NOT AND PUSH1 0x1 PUSH1 0x1 PUSH1 0xA0 SHL SUB SWAP1 SWAP2 AND OR DUP5 SSTORE MLOAD PUSH1 0x1 SWAP1 SWAP4 ADD SWAP3 SWAP1 SWAP3 SSTORE SWAP2 MLOAD DUP4 DUP2 MSTORE DUP5 SWAP3 SWAP2 PUSH32 0xBBF44E68296791DF5535457DA734BF1017C4B233A740AF6D7A89B9F1AF4ECB42 SWAP2 ADD PUSH1 0x40 MLOAD DUP1 SWAP2 SUB SWAP1 LOG3 POP POP JUMP JUMPDEST PUSH0 DUP2 DUP2 MSTORE PUSH1 0x6 PUSH1 0x20 SWAP1 DUP2 MSTORE PUSH1 0x40 SWAP2 DUP3 SWAP1 KECCAK256 DUP3 MLOAD DUP1 DUP5 ADD SWAP1 SWAP4 MSTORE DUP1 SLOAD PUSH1 0x1 PUSH1 0x1 PUSH1 0xA0 SHL SUB AND DUP1 DUP5 MSTORE PUSH1 0x1 SWAP1 SWAP2 ADD SLOAD SWAP2 DUP4 ADD SWAP2 SWAP1 SWAP2 MSTORE CALLER EQ PUSH2 0xA36 JUMPI PUSH1 0x40 MLOAD PUSH3 0x461BCD PUSH1 0xE5 SHL DUP2 MSTORE PUSH1 0x20 PUSH1 0x4 DUP3 ADD MSTORE PUSH1 0xA PUSH1 0x24 DUP3 ADD MSTORE PUSH10 0x2737BA1039B2B63632B9 PUSH1 0xB1 SHL PUSH1 0x44 DUP3 ADD MSTORE PUSH1 0x64 ADD PUSH2 0x2B3 JUMP JUMPDEST PUSH0 DUP3 DUP2 MSTORE PUSH1 0x6 PUSH1 0x20 MSTORE PUSH1 0x40 DUP1 DUP3 KECCAK256 DUP1 SLOAD PUSH1 0x1 PUSH1 0x1 PUSH1 0xA0 SHL SUB NOT AND DUP2 SSTORE PUSH1 0x1 ADD DUP3 SWAP1 SSTORE MLOAD DUP4 SWAP2 CALLER SWAP2 PUSH32 0x8A7922F72DC2A50A632ACDDE12B7D222AEFA2FDB7F3CA1364B419734569D0E80 SWAP2 SWAP1 LOG3 POP POP JUMP JUMPDEST PUSH1 0x2 SLOAD PUSH1 0x1 PUSH1 0x1 PUSH1 0xA0 SHL SUB AND CALLER EQ PUSH2 0xACA JUMPI PUSH1 0x40 MLOAD PUSH3 0x461BCD PUSH1 0xE5 SHL DUP2 MSTORE PUSH1 0x20 PUSH1 0x4 DUP3 ADD MSTORE PUSH1 0x8 PUSH1 0x24 DUP3 ADD MSTORE PUSH8 0x4F6E6C792044414F PUSH1 0xC0 SHL PUSH1 0x44 DUP3 ADD MSTORE PUSH1 0x64 ADD PUSH2 0x2B3 JUMP JUMPDEST PUSH0 SLOAD PUSH1 0x2 SLOAD PUSH1 0x40 MLOAD PUSH4 0xD0DEF521 PUSH1 0xE0 SHL DUP2 MSTORE PUSH1 0x1 PUSH1 0x1 PUSH1 0xA0 SHL SUB SWAP3 DUP4 AND SWAP3 PUSH4 0xD0DEF521 SWAP3 PUSH2 0xB01 SWAP3 SWAP2 AND SWAP1 DUP7 SWAP1 DUP7 SWAP1 PUSH1 0x4 ADD PUSH2 0xC86 JUMP JUMPDEST PUSH0 PUSH1 0x40 MLOAD DUP1 DUP4 SUB DUP2 PUSH0 DUP8 DUP1 EXTCODESIZE ISZERO DUP1 ISZERO PUSH2 0xB18 JUMPI PUSH0 PUSH0 REVERT JUMPDEST POP GAS CALL ISZERO DUP1 ISZERO PUSH2 0xB2A JUMPI RETURNDATASIZE PUSH0 PUSH0 RETURNDATACOPY RETURNDATASIZE PUSH0 REVERT JUMPDEST POP POP POP POP POP POP JUMP JUMPDEST PUSH0 PUSH1 0x20 DUP3 DUP5 SUB SLT ISZERO PUSH2 0xB42 JUMPI PUSH0 PUSH0 REVERT JUMPDEST POP CALLDATALOAD SWAP2 SWAP1 POP JUMP JUMPDEST PUSH0 PUSH0 PUSH1 0x40 DUP4 DUP6 SUB SLT ISZERO PUSH2 0xB5A JUMPI PUSH0 PUSH0 REVERT JUMPDEST POP POP DUP1 CALLDATALOAD SWAP3 PUSH1 0x20 SWAP1 SWAP2 ADD CALLDATALOAD SWAP2 POP JUMP JUMPDEST PUSH0 PUSH0 PUSH1 0x20 DUP4 DUP6 SUB SLT ISZERO PUSH2 0xB7A JUMPI PUSH0 PUSH0 REVERT JUMPDEST DUP3 CALLDATALOAD PUSH8 0xFFFFFFFFFFFFFFFF DUP2 GT ISZERO PUSH2 0xB90 JUMPI PUSH0 PUSH0 REVERT JUMPDEST DUP4 ADD PUSH1 0x1F DUP2 ADD DUP6 SGT PUSH2 0xBA0 JUMPI PUSH0 PUSH0 REVERT JUMPDEST DUP1 CALLDATALOAD PUSH8 0xFFFFFFFFFFFFFFFF DUP2 GT ISZERO PUSH2 0xBB6 JUMPI PUSH0 PUSH0 REVERT JUMPDEST DUP6 PUSH1 0x20 DUP3 DUP5 ADD ADD GT ISZERO PUSH2 0xBC7 JUMPI PUSH0 PUSH0 REVERT JUMPDEST PUSH1 0x20 SWAP2 SWAP1 SWAP2 ADD SWAP6 SWAP1 SWAP5 POP SWAP3 POP POP POP JUMP JUMPDEST PUSH4 0x4E487B71 PUSH1 0xE0 SHL PUSH0 MSTORE PUSH1 0x11 PUSH1 0x4 MSTORE PUSH1 0x24 PUSH0 REVERT JUMPDEST DUP1 DUP3 MUL DUP2 ISZERO DUP3 DUP3 DIV DUP5 EQ OR PUSH2 0xC02 JUMPI PUSH2 0xC02 PUSH2 0xBD7 JUMP JUMPDEST SWAP3 SWAP2 POP POP JUMP JUMPDEST PUSH0 DUP3 PUSH2 0xC22 JUMPI PUSH4 0x4E487B71 PUSH1 0xE0 SHL PUSH0 MSTORE PUSH1 0x12 PUSH1 0x4 MSTORE PUSH1 0x24 PUSH0 REVERT JUMPDEST POP DIV SWAP1 JUMP JUMPDEST DUP2 DUP2 SUB DUP2 DUP2 GT ISZERO PUSH2 0xC02 JUMPI PUSH2 0xC02 PUSH2 0xBD7 JUMP JUMPDEST PUSH0 PUSH1 0x20 DUP3 DUP5 SUB SLT ISZERO PUSH2 0xC4A JUMPI PUSH0 PUSH0 REVERT JUMPDEST DUP2 MLOAD DUP1 ISZERO ISZERO DUP2 EQ PUSH2 0xC59 JUMPI PUSH0 PUSH0 REVERT JUMPDEST SWAP4 SWAP3 POP POP POP JUMP JUMPDEST PUSH0 PUSH1 0x20 DUP3 DUP5 SUB SLT ISZERO PUSH2 0xC70 JUMPI PUSH0 PUSH0 REVERT JUMPDEST DUP2 MLOAD PUSH1 0x1 PUSH1 0x1 PUSH1 0xA0 SHL SUB DUP2 AND DUP2 EQ PUSH2 0xC59 JUMPI PUSH0 PUSH0 REVERT JUMPDEST PUSH1 0x1 PUSH1 0x1 PUSH1 0xA0 SHL SUB DUP5 AND DUP2 MSTORE PUSH1 0x40 PUSH1 0x20 DUP3 ADD DUP2 SWAP1 MSTORE DUP2 ADD DUP3 SWAP1 MSTORE DUP2 DUP4 PUSH1 0x60 DUP4 ADD CALLDATACOPY PUSH0 DUP2 DUP4 ADD PUSH1 0x60 SWAP1 DUP2 ADD SWAP2 SWAP1 SWAP2 MSTORE PUSH1 0x1F SWAP1 SWAP3 ADD PUSH1 0x1F NOT AND ADD ADD SWAP3 SWAP2 POP POP JUMP INVALID LOG2 PUSH5 0x6970667358 0x22 SLT KECCAK256 MUL 0xB1 0xB6 0x4C 0xD4 EXTCODECOPY 0xD4 0x22 0xC6 DELEGATECALL DUP14 SWAP10 ORIGIN PUSH15 0xD749C1CB99B44524B3347D744B5CEF 0xD4 PUSH3 0x716473 PUSH16 0x6C634300081D00330000000000000000 "
				},
				"gasEstimates": {
					"creation": {
						"codeDepositCost": "664600",
						"executionCost": "infinite",
						"totalCost": "infinite"
					},
					"external": {
						"buyNFT(uint256)": "infinite",
						"dao()": "2381",
						"devWallet()": "2359",
						"getListing(uint256)": "4675",
						"listNFT(uint256,uint256)": "infinite",
						"listingFee()": "2383",
						"listings(uint256)": "4677",
						"mintNFT(string)": "infinite",
						"nftContract()": "2379",
						"rhemToken()": "2358",
						"saleFee()": "2317",
						"unlistNFT(uint256)": "35518",
						"updateFees(uint256,uint256)": "48074"
					}
				},
				"methodIdentifiers": {
					"buyNFT(uint256)": "51ed8288",
					"dao()": "4162169f",
					"devWallet()": "8ea5220f",
					"getListing(uint256)": "107a274a",
					"listNFT(uint256,uint256)": "94383f14",
					"listingFee()": "6a1b7ecc",
					"listings(uint256)": "de74e57b",
					"mintNFT(string)": "fb37e883",
					"nftContract()": "d56d229d",
					"rhemToken()": "a6d74512",
					"saleFee()": "178021e3",
					"unlistNFT(uint256)": "961f0944",
					"updateFees(uint256,uint256)": "6db79437"
				}
			},
			"storageLayout": {
				"storage": [
					{
						"astId": 48,
						"contract": "contracts/NFTMarketplace.sol:NFTMarketplace",
						"label": "nftContract",
						"offset": 0,
						"slot": "0",
						"type": "t_address"
					},
					{
						"astId": 50,
						"contract": "contracts/NFTMarketplace.sol:NFTMarketplace",
						"label": "rhemToken",
						"offset": 0,
						"slot": "1",
						"type": "t_address"
					},
					{
						"astId": 52,
						"contract": "contracts/NFTMarketplace.sol:NFTMarketplace",
						"label": "dao",
						"offset": 0,
						"slot": "2",
						"type": "t_address"
					},
					{
						"astId": 54,
						"contract": "contracts/NFTMarketplace.sol:NFTMarketplace",
						"label": "devWallet",
						"offset": 0,
						"slot": "3",
						"type": "t_address"
					},
					{
						"astId": 56,
						"contract": "contracts/NFTMarketplace.sol:NFTMarketplace",
						"label": "listingFee",
						"offset": 0,
						"slot": "4",
						"type": "t_uint256"
					},
					{
						"astId": 58,
						"contract": "contracts/NFTMarketplace.sol:NFTMarketplace",
						"label": "saleFee",
						"offset": 0,
						"slot": "5",
						"type": "t_uint256"
					},
					{
						"astId": 68,
						"contract": "contracts/NFTMarketplace.sol:NFTMarketplace",
						"label": "listings",
						"offset": 0,
						"slot": "6",
						"type": "t_mapping(t_uint256,t_struct(Listing)63_storage)"
					}
				],
				"types": {
					"t_address": {
						"encoding": "inplace",
						"label": "address",
						"numberOfBytes": "20"
					},
					"t_mapping(t_uint256,t_struct(Listing)63_storage)": {
						"encoding": "mapping",
						"key": "t_uint256",
						"label": "mapping(uint256 => struct NFTMarketplace.Listing)",
						"numberOfBytes": "32",
						"value": "t_struct(Listing)63_storage"
					},
					"t_struct(Listing)63_storage": {
						"encoding": "inplace",
						"label": "struct NFTMarketplace.Listing",
						"members": [
							{
								"astId": 60,
								"contract": "contracts/NFTMarketplace.sol:NFTMarketplace",
								"label": "seller",
								"offset": 0,
								"slot": "0",
								"type": "t_address"
							},
							{
								"astId": 62,
								"contract": "contracts/NFTMarketplace.sol:NFTMarketplace",
								"label": "price",
								"offset": 0,
								"slot": "1",
								"type": "t_uint256"
							}
						],
						"numberOfBytes": "64"
					},
					"t_uint256": {
						"encoding": "inplace",
						"label": "uint256",
						"numberOfBytes": "32"
					}
				}
			},
			"userdoc": {
				"kind": "user",
				"methods": {},
				"version": 1
			}
		}
	}
}