{
	"contracts/LiquidityLocker.sol": {
		"LiquidityLocker": {
			"abi": [
				{
					"inputs": [
						{
							"internalType": "address",
							"name": "_token",
							"type": "address"
						},
						{
							"internalType": "address",
							"name": "_dao",
							"type": "address"
						}
					],
					"stateMutability": "nonpayable",
					"type": "constructor"
				},
				{
					"anonymous": false,
					"inputs": [
						{
							"indexed": true,
							"internalType": "address",
							"name": "locker",
							"type": "address"
						},
						{
							"indexed": false,
							"internalType": "uint256",
							"name": "amount",
							"type": "uint256"
						}
					],
					"name": "LockDeleted",
					"type": "event"
				},
				{
					"anonymous": false,
					"inputs": [
						{
							"indexed": true,
							"internalType": "address",
							"name": "locker",
							"type": "address"
						},
						{
							"indexed": false,
							"internalType": "uint256",
							"name": "amount",
							"type": "uint256"
						},
						{
							"indexed": false,
							"internalType": "uint256",
							"name": "unlockTime",
							"type": "uint256"
						}
					],
					"name": "TokensLocked",
					"type": "event"
				},
				{
					"anonymous": false,
					"inputs": [
						{
							"indexed": true,
							"internalType": "address",
							"name": "locker",
							"type": "address"
						},
						{
							"indexed": false,
							"internalType": "uint256",
							"name": "amount",
							"type": "uint256"
						}
					],
					"name": "TokensUnlocked",
					"type": "event"
				},
				{
					"inputs": [],
					"name": "dao",
					"outputs": [
						{
							"internalType": "address",
							"name": "",
							"type": "address"
						}
					],
					"stateMutability": "view",
					"type": "function"
				},
				{
					"inputs": [
						{
							"internalType": "address",
							"name": "dex",
							"type": "address"
						}
					],
					"name": "getLock",
					"outputs": [
						{
							"components": [
								{
									"internalType": "address",
									"name": "locker",
									"type": "address"
								},
								{
									"internalType": "uint256",
									"name": "amount",
									"type": "uint256"
								},
								{
									"internalType": "uint256",
									"name": "unlockTime",
									"type": "uint256"
								}
							],
							"internalType": "struct LiquidityLocker.Lock",
							"name": "",
							"type": "tuple"
						}
					],
					"stateMutability": "view",
					"type": "function"
				},
				{
					"inputs": [
						{
							"internalType": "address",
							"name": "",
							"type": "address"
						}
					],
					"name": "hasLocked",
					"outputs": [
						{
							"internalType": "bool",
							"name": "",
							"type": "bool"
						}
					],
					"stateMutability": "view",
					"type": "function"
				},
				{
					"inputs": [
						{
							"internalType": "address",
							"name": "dex",
							"type": "address"
						}
					],
					"name": "isLocked",
					"outputs": [
						{
							"internalType": "bool",
							"name": "",
							"type": "bool"
						}
					],
					"stateMutability": "view",
					"type": "function"
				},
				{
					"inputs": [
						{
							"internalType": "address",
							"name": "from",
							"type": "address"
						},
						{
							"internalType": "uint256",
							"name": "amount",
							"type": "uint256"
						},
						{
							"internalType": "address",
							"name": "dex",
							"type": "address"
						},
						{
							"internalType": "uint256",
							"name": "unlockTime",
							"type": "uint256"
						}
					],
					"name": "lockLiquidity",
					"outputs": [],
					"stateMutability": "nonpayable",
					"type": "function"
				},
				{
					"inputs": [
						{
							"internalType": "address",
							"name": "",
							"type": "address"
						}
					],
					"name": "locks",
					"outputs": [
						{
							"internalType": "address",
							"name": "locker",
							"type": "address"
						},
						{
							"internalType": "uint256",
							"name": "amount",
							"type": "uint256"
						},
						{
							"internalType": "uint256",
							"name": "unlockTime",
							"type": "uint256"
						}
					],
					"stateMutability": "view",
					"type": "function"
				},
				{
					"inputs": [
						{
							"internalType": "address",
							"name": "dex",
							"type": "address"
						}
					],
					"name": "release",
					"outputs": [],
					"stateMutability": "nonpayable",
					"type": "function"
				},
				{
					"inputs": [],
					"name": "token",
					"outputs": [
						{
							"internalType": "address",
							"name": "",
							"type": "address"
						}
					],
					"stateMutability": "view",
					"type": "function"
				},
				{
					"inputs": [],
					"name": "totalLocked",
					"outputs": [
						{
							"internalType": "uint256",
							"name": "",
							"type": "uint256"
						}
					],
					"stateMutability": "view",
					"type": "function"
				}
			],
			"devdoc": {
				"kind": "dev",
				"methods": {},
				"version": 1
			},
			"evm": {
				"assembly": "    /* \"contracts/LiquidityLocker.sol\":61:2312  contract LiquidityLocker {... */\n  mstore(0x40, 0x80)\n    /* \"contracts/LiquidityLocker.sol\":695:901  constructor(address _token, address _dao) {... */\n  callvalue\n  dup1\n  iszero\n  tag_1\n  jumpi\n  revert(0x00, 0x00)\ntag_1:\n  pop\n  mload(0x40)\n  sub(codesize, bytecodeSize)\n  dup1\n  bytecodeSize\n  dup4\n  codecopy\n  dup2\n  add\n  0x40\n  dup2\n  swap1\n  mstore\n  tag_2\n  swap2\n  tag_3\n  jump\t// in\ntag_2:\n  sub(shl(0xa0, 0x01), 0x01)\n    /* \"contracts/LiquidityLocker.sol\":756:776  _token != address(0) */\n  dup3\n  and\n    /* \"contracts/LiquidityLocker.sol\":748:794  require(_token != address(0), \"Invalid token\") */\n  tag_6\n  jumpi\n  mload(0x40)\n  shl(0xe5, 0x461bcd)\n  dup2\n  mstore\n    /* \"#utility.yul\":696:698   */\n  0x20\n    /* \"contracts/LiquidityLocker.sol\":748:794  require(_token != address(0), \"Invalid token\") */\n  0x04\n  dup3\n  add\n    /* \"#utility.yul\":678:699   */\n  mstore\n    /* \"#utility.yul\":735:737   */\n  0x0d\n    /* \"#utility.yul\":715:733   */\n  0x24\n  dup3\n  add\n    /* \"#utility.yul\":708:738   */\n  mstore\n  shl(0x99, 0x24b73b30b634b2103a37b5b2b7)\n    /* \"#utility.yul\":754:772   */\n  0x44\n  dup3\n  add\n    /* \"#utility.yul\":747:790   */\n  mstore\n    /* \"#utility.yul\":807:825   */\n  0x64\n  add\n    /* \"contracts/LiquidityLocker.sol\":748:794  require(_token != address(0), \"Invalid token\") */\ntag_7:\n  mload(0x40)\n  dup1\n  swap2\n  sub\n  swap1\n  revert\ntag_6:\n  sub(shl(0xa0, 0x01), 0x01)\n    /* \"contracts/LiquidityLocker.sol\":813:831  _dao != address(0) */\n  dup2\n  and\n    /* \"contracts/LiquidityLocker.sol\":805:847  require(_dao != address(0), \"Invalid DAO\") */\n  tag_9\n  jumpi\n  mload(0x40)\n  shl(0xe5, 0x461bcd)\n  dup2\n  mstore\n    /* \"#utility.yul\":1038:1040   */\n  0x20\n    /* \"contracts/LiquidityLocker.sol\":805:847  require(_dao != address(0), \"Invalid DAO\") */\n  0x04\n  dup3\n  add\n    /* \"#utility.yul\":1020:1041   */\n  mstore\n    /* \"#utility.yul\":1077:1079   */\n  0x0b\n    /* \"#utility.yul\":1057:1075   */\n  0x24\n  dup3\n  add\n    /* \"#utility.yul\":1050:1080   */\n  mstore\n  shl(0xa8, 0x496e76616c69642044414f)\n    /* \"#utility.yul\":1096:1114   */\n  0x44\n  dup3\n  add\n    /* \"#utility.yul\":1089:1130   */\n  mstore\n    /* \"#utility.yul\":1147:1165   */\n  0x64\n  add\n    /* \"contracts/LiquidityLocker.sol\":805:847  require(_dao != address(0), \"Invalid DAO\") */\n  tag_7\n    /* \"#utility.yul\":836:1171   */\n  jump\n    /* \"contracts/LiquidityLocker.sol\":805:847  require(_dao != address(0), \"Invalid DAO\") */\ntag_9:\n    /* \"contracts/LiquidityLocker.sol\":858:863  token */\n  0x00\n    /* \"contracts/LiquidityLocker.sol\":858:872  token = _token */\n  dup1\n  sload\n  sub(shl(0xa0, 0x01), 0x01)\n  swap4\n  dup5\n  and\n  not(sub(shl(0xa0, 0x01), 0x01))\n  swap2\n  dup3\n  and\n  or\n  swap1\n  swap2\n  sstore\n  0x01\n    /* \"contracts/LiquidityLocker.sol\":883:893  dao = _dao */\n  dup1\n  sload\n  swap3\n  swap1\n  swap4\n  and\n  swap2\n  and\n  or\n  swap1\n  sstore\n    /* \"contracts/LiquidityLocker.sol\":61:2312  contract LiquidityLocker {... */\n  jump(tag_14)\n    /* \"#utility.yul\":14:191   */\ntag_13:\n    /* \"#utility.yul\":93:106   */\n  dup1\n  mload\n  sub(shl(0xa0, 0x01), 0x01)\n    /* \"#utility.yul\":135:166   */\n  dup2\n  and\n    /* \"#utility.yul\":125:167   */\n  dup2\n  eq\n    /* \"#utility.yul\":115:185   */\n  tag_16\n  jumpi\n    /* \"#utility.yul\":181:182   */\n  0x00\n    /* \"#utility.yul\":178:179   */\n  0x00\n    /* \"#utility.yul\":171:183   */\n  revert\n    /* \"#utility.yul\":115:185   */\ntag_16:\n    /* \"#utility.yul\":14:191   */\n  swap2\n  swap1\n  pop\n  jump\t// out\n    /* \"#utility.yul\":196:489   */\ntag_3:\n    /* \"#utility.yul\":275:281   */\n  0x00\n    /* \"#utility.yul\":283:289   */\n  0x00\n    /* \"#utility.yul\":336:338   */\n  0x40\n    /* \"#utility.yul\":324:333   */\n  dup4\n    /* \"#utility.yul\":315:322   */\n  dup6\n    /* \"#utility.yul\":311:334   */\n  sub\n    /* \"#utility.yul\":307:339   */\n  slt\n    /* \"#utility.yul\":304:356   */\n  iszero\n  tag_18\n  jumpi\n    /* \"#utility.yul\":352:353   */\n  0x00\n    /* \"#utility.yul\":349:350   */\n  0x00\n    /* \"#utility.yul\":342:354   */\n  revert\n    /* \"#utility.yul\":304:356   */\ntag_18:\n    /* \"#utility.yul\":375:415   */\n  tag_19\n    /* \"#utility.yul\":405:414   */\n  dup4\n    /* \"#utility.yul\":375:415   */\n  tag_13\n  jump\t// in\ntag_19:\n    /* \"#utility.yul\":365:415   */\n  swap2\n  pop\n    /* \"#utility.yul\":434:483   */\n  tag_20\n    /* \"#utility.yul\":479:481   */\n  0x20\n    /* \"#utility.yul\":468:477   */\n  dup5\n    /* \"#utility.yul\":464:482   */\n  add\n    /* \"#utility.yul\":434:483   */\n  tag_13\n  jump\t// in\ntag_20:\n    /* \"#utility.yul\":424:483   */\n  swap1\n  pop\n    /* \"#utility.yul\":196:489   */\n  swap3\n  pop\n  swap3\n  swap1\n  pop\n  jump\t// out\n    /* \"#utility.yul\":836:1171   */\ntag_14:\n    /* \"contracts/LiquidityLocker.sol\":61:2312  contract LiquidityLocker {... */\n  dataSize(sub_0)\n  dup1\n  dataOffset(sub_0)\n  0x00\n  codecopy\n  0x00\n  return\nstop\n\nsub_0: assembly {\n        /* \"contracts/LiquidityLocker.sol\":61:2312  contract LiquidityLocker {... */\n      mstore(0x40, 0x80)\n      callvalue\n      dup1\n      iszero\n      tag_1\n      jumpi\n      revert(0x00, 0x00)\n    tag_1:\n      pop\n      jumpi(tag_2, lt(calldatasize, 0x04))\n      shr(0xe0, calldataload(0x00))\n      dup1\n      0x5de9a137\n      gt\n      tag_12\n      jumpi\n      dup1\n      0x5de9a137\n      eq\n      tag_7\n      jumpi\n      dup1\n      0x65274982\n      eq\n      tag_8\n      jumpi\n      dup1\n      0x6b9db4e6\n      eq\n      tag_9\n      jumpi\n      dup1\n      0xd932373f\n      eq\n      tag_10\n      jumpi\n      dup1\n      0xfc0c546a\n      eq\n      tag_11\n      jumpi\n      revert(0x00, 0x00)\n    tag_12:\n      dup1\n      0x19165587\n      eq\n      tag_3\n      jumpi\n      dup1\n      0x4162169f\n      eq\n      tag_4\n      jumpi\n      dup1\n      0x4a4fbeec\n      eq\n      tag_5\n      jumpi\n      dup1\n      0x56891412\n      eq\n      tag_6\n      jumpi\n    tag_2:\n      revert(0x00, 0x00)\n        /* \"contracts/LiquidityLocker.sol\":1509:2091  function release(address dex) external onlyDAO {... */\n    tag_3:\n      tag_13\n      tag_14\n      calldatasize\n      0x04\n      tag_15\n      jump\t// in\n    tag_14:\n      tag_16\n      jump\t// in\n    tag_13:\n      stop\n        /* \"contracts/LiquidityLocker.sol\":120:138  address public dao */\n    tag_4:\n      sload(0x01)\n      tag_17\n      swap1\n      sub(shl(0xa0, 0x01), 0x01)\n      and\n      dup2\n      jump\n    tag_17:\n      mload(0x40)\n      sub(shl(0xa0, 0x01), 0x01)\n        /* \"#utility.yul\":547:579   */\n      swap1\n      swap2\n      and\n        /* \"#utility.yul\":529:580   */\n      dup2\n      mstore\n        /* \"#utility.yul\":517:519   */\n      0x20\n        /* \"#utility.yul\":502:520   */\n      add\n        /* \"contracts/LiquidityLocker.sol\":120:138  address public dao */\n    tag_19:\n      mload(0x40)\n      dup1\n      swap2\n      sub\n      swap1\n      return\n        /* \"contracts/LiquidityLocker.sol\":2209:2309  function isLocked(address dex) external view returns (bool) {... */\n    tag_5:\n      tag_21\n      tag_22\n      calldatasize\n      0x04\n      tag_15\n      jump\t// in\n    tag_22:\n      sub(shl(0xa0, 0x01), 0x01)\n        /* \"contracts/LiquidityLocker.sol\":2287:2301  hasLocked[dex] */\n      and\n        /* \"contracts/LiquidityLocker.sol\":2263:2267  bool */\n      0x00\n        /* \"contracts/LiquidityLocker.sol\":2287:2301  hasLocked[dex] */\n      swap1\n      dup2\n      mstore\n        /* \"contracts/LiquidityLocker.sol\":2287:2296  hasLocked */\n      0x03\n        /* \"contracts/LiquidityLocker.sol\":2287:2301  hasLocked[dex] */\n      0x20\n      mstore\n      0x40\n      swap1\n      keccak256\n      sload\n      0xff\n      and\n      swap1\n        /* \"contracts/LiquidityLocker.sol\":2209:2309  function isLocked(address dex) external view returns (bool) {... */\n      jump\n    tag_21:\n      mload(0x40)\n        /* \"#utility.yul\":756:770   */\n      swap1\n      iszero\n        /* \"#utility.yul\":749:771   */\n      iszero\n        /* \"#utility.yul\":731:772   */\n      dup2\n      mstore\n        /* \"#utility.yul\":719:721   */\n      0x20\n        /* \"#utility.yul\":704:722   */\n      add\n        /* \"contracts/LiquidityLocker.sol\":2209:2309  function isLocked(address dex) external view returns (bool) {... */\n      tag_19\n        /* \"#utility.yul\":591:778   */\n      jump\n        /* \"contracts/LiquidityLocker.sol\":346:372  uint256 public totalLocked */\n    tag_6:\n      tag_26\n      sload(0x04)\n      dup2\n      jump\n    tag_26:\n      mload(0x40)\n        /* \"#utility.yul\":929:954   */\n      swap1\n      dup2\n      mstore\n        /* \"#utility.yul\":917:919   */\n      0x20\n        /* \"#utility.yul\":902:920   */\n      add\n        /* \"contracts/LiquidityLocker.sol\":346:372  uint256 public totalLocked */\n      tag_19\n        /* \"#utility.yul\":783:960   */\n      jump\n        /* \"contracts/LiquidityLocker.sol\":254:291  mapping(address => Lock) public locks */\n    tag_7:\n      tag_30\n      tag_31\n      calldatasize\n      0x04\n      tag_15\n      jump\t// in\n    tag_31:\n      0x02\n      0x20\n      dup2\n      swap1\n      mstore\n      0x00\n      swap2\n      dup3\n      mstore\n      0x40\n      swap1\n      swap2\n      keccak256\n      dup1\n      sload\n      0x01\n      dup3\n      add\n      sload\n      swap2\n      swap1\n      swap3\n      add\n      sload\n      sub(shl(0xa0, 0x01), 0x01)\n      swap1\n      swap3\n      and\n      swap2\n      dup4\n      jump\n    tag_30:\n      0x40\n      dup1\n      mload\n      sub(shl(0xa0, 0x01), 0x01)\n        /* \"#utility.yul\":1185:1217   */\n      swap1\n      swap5\n      and\n        /* \"#utility.yul\":1167:1218   */\n      dup5\n      mstore\n        /* \"#utility.yul\":1249:1251   */\n      0x20\n        /* \"#utility.yul\":1234:1252   */\n      dup5\n      add\n        /* \"#utility.yul\":1227:1261   */\n      swap3\n      swap1\n      swap3\n      mstore\n        /* \"#utility.yul\":1277:1295   */\n      swap1\n      dup3\n      add\n        /* \"#utility.yul\":1270:1304   */\n      mstore\n        /* \"#utility.yul\":1155:1157   */\n      0x60\n        /* \"#utility.yul\":1140:1158   */\n      add\n        /* \"contracts/LiquidityLocker.sol\":254:291  mapping(address => Lock) public locks */\n      tag_19\n        /* \"#utility.yul\":965:1310   */\n      jump\n        /* \"contracts/LiquidityLocker.sol\":909:1501  function lockLiquidity(address from, uint256 amount, address dex, uint256 unlockTime) external onlyDAO {... */\n    tag_8:\n      tag_13\n      tag_36\n      calldatasize\n      0x04\n      tag_37\n      jump\t// in\n    tag_36:\n      tag_38\n      jump\t// in\n        /* \"contracts/LiquidityLocker.sol\":2099:2201  function getLock(address dex) external view returns (Lock memory) {... */\n    tag_9:\n      tag_39\n      tag_40\n      calldatasize\n      0x04\n      tag_15\n      jump\t// in\n    tag_40:\n      tag_41\n      jump\t// in\n    tag_39:\n      0x40\n      dup1\n      mload\n        /* \"#utility.yul\":2023:2036   */\n      dup3\n      mload\n      sub(shl(0xa0, 0x01), 0x01)\n        /* \"#utility.yul\":2019:2058   */\n      and\n        /* \"#utility.yul\":2001:2059   */\n      dup2\n      mstore\n        /* \"#utility.yul\":2115:2119   */\n      0x20\n        /* \"#utility.yul\":2103:2120   */\n      dup1\n      dup5\n      add\n        /* \"#utility.yul\":2097:2121   */\n      mload\n        /* \"#utility.yul\":2075:2095   */\n      swap1\n      dup3\n      add\n        /* \"#utility.yul\":2068:2122   */\n      mstore\n        /* \"#utility.yul\":2166:2183   */\n      swap2\n      dup2\n      add\n        /* \"#utility.yul\":2160:2184   */\n      mload\n        /* \"#utility.yul\":2138:2158   */\n      swap1\n      dup3\n      add\n        /* \"#utility.yul\":2131:2185   */\n      mstore\n        /* \"#utility.yul\":1989:1991   */\n      0x60\n        /* \"#utility.yul\":1974:1992   */\n      add\n        /* \"contracts/LiquidityLocker.sol\":2099:2201  function getLock(address dex) external view returns (Lock memory) {... */\n      tag_19\n        /* \"#utility.yul\":1815:2191   */\n      jump\n        /* \"contracts/LiquidityLocker.sol\":298:339  mapping(address => bool) public hasLocked */\n    tag_10:\n      tag_21\n      tag_45\n      calldatasize\n      0x04\n      tag_15\n      jump\t// in\n    tag_45:\n      mstore(0x20, 0x03)\n      0x00\n      swap1\n      dup2\n      mstore\n      0x40\n      swap1\n      keccak256\n      sload\n      0xff\n      and\n      dup2\n      jump\n        /* \"contracts/LiquidityLocker.sol\":93:113  address public token */\n    tag_11:\n      sload(0x00)\n      tag_17\n      swap1\n      sub(shl(0xa0, 0x01), 0x01)\n      and\n      dup2\n      jump\n        /* \"contracts/LiquidityLocker.sol\":1509:2091  function release(address dex) external onlyDAO {... */\n    tag_16:\n        /* \"contracts/LiquidityLocker.sol\":651:654  dao */\n      and(sub(shl(0xa0, 0x01), 0x01), sload(0x01))\n        /* \"contracts/LiquidityLocker.sol\":637:647  msg.sender */\n      caller\n        /* \"contracts/LiquidityLocker.sol\":637:654  msg.sender == dao */\n      eq\n        /* \"contracts/LiquidityLocker.sol\":629:667  require(msg.sender == dao, \"Only DAO\") */\n      tag_52\n      jumpi\n      mload(0x40)\n      shl(0xe5, 0x461bcd)\n      dup2\n      mstore\n        /* \"#utility.yul\":2398:2400   */\n      0x20\n        /* \"contracts/LiquidityLocker.sol\":629:667  require(msg.sender == dao, \"Only DAO\") */\n      0x04\n      dup3\n      add\n        /* \"#utility.yul\":2380:2401   */\n      mstore\n        /* \"#utility.yul\":2437:2438   */\n      0x08\n        /* \"#utility.yul\":2417:2435   */\n      0x24\n      dup3\n      add\n        /* \"#utility.yul\":2410:2439   */\n      mstore\n      shl(0xc0, 0x4f6e6c792044414f)\n        /* \"#utility.yul\":2455:2473   */\n      0x44\n      dup3\n      add\n        /* \"#utility.yul\":2448:2486   */\n      mstore\n        /* \"#utility.yul\":2503:2521   */\n      0x64\n      add\n        /* \"contracts/LiquidityLocker.sol\":629:667  require(msg.sender == dao, \"Only DAO\") */\n    tag_53:\n      mload(0x40)\n      dup1\n      swap2\n      sub\n      swap1\n      revert\n    tag_52:\n      sub(shl(0xa0, 0x01), 0x01)\n        /* \"contracts/LiquidityLocker.sol\":1587:1597  locks[dex] */\n      dup2\n      and\n        /* \"contracts/LiquidityLocker.sol\":1567:1584  Lock storage lock */\n      0x00\n        /* \"contracts/LiquidityLocker.sol\":1587:1597  locks[dex] */\n      swap1\n      dup2\n      mstore\n        /* \"contracts/LiquidityLocker.sol\":1587:1592  locks */\n      0x02\n        /* \"contracts/LiquidityLocker.sol\":1587:1597  locks[dex] */\n      0x20\n      mstore\n      0x40\n      swap1\n      keccak256\n        /* \"contracts/LiquidityLocker.sol\":1616:1627  lock.amount */\n      0x01\n      dup2\n      add\n      sload\n        /* \"contracts/LiquidityLocker.sol\":1608:1650  require(lock.amount > 0, \"Nothing locked\") */\n      tag_56\n      jumpi\n      mload(0x40)\n      shl(0xe5, 0x461bcd)\n      dup2\n      mstore\n        /* \"#utility.yul\":2734:2736   */\n      0x20\n        /* \"contracts/LiquidityLocker.sol\":1608:1650  require(lock.amount > 0, \"Nothing locked\") */\n      0x04\n      dup3\n      add\n        /* \"#utility.yul\":2716:2737   */\n      mstore\n        /* \"#utility.yul\":2773:2775   */\n      0x0e\n        /* \"#utility.yul\":2753:2771   */\n      0x24\n      dup3\n      add\n        /* \"#utility.yul\":2746:2776   */\n      mstore\n      shl(0x92, 0x139bdd1a1a5b99c81b1bd8dad959)\n        /* \"#utility.yul\":2792:2810   */\n      0x44\n      dup3\n      add\n        /* \"#utility.yul\":2785:2829   */\n      mstore\n        /* \"#utility.yul\":2846:2864   */\n      0x64\n      add\n        /* \"contracts/LiquidityLocker.sol\":1608:1650  require(lock.amount > 0, \"Nothing locked\") */\n      tag_53\n        /* \"#utility.yul\":2532:2870   */\n      jump\n        /* \"contracts/LiquidityLocker.sol\":1608:1650  require(lock.amount > 0, \"Nothing locked\") */\n    tag_56:\n        /* \"contracts/LiquidityLocker.sol\":1688:1692  lock */\n      dup1\n        /* \"contracts/LiquidityLocker.sol\":1688:1703  lock.unlockTime */\n      0x02\n      add\n      sload\n        /* \"contracts/LiquidityLocker.sol\":1669:1684  block.timestamp */\n      timestamp\n        /* \"contracts/LiquidityLocker.sol\":1669:1703  block.timestamp >= lock.unlockTime */\n      lt\n      iszero\n        /* \"contracts/LiquidityLocker.sol\":1661:1720  require(block.timestamp >= lock.unlockTime, \"Still locked\") */\n      tag_59\n      jumpi\n      mload(0x40)\n      shl(0xe5, 0x461bcd)\n      dup2\n      mstore\n        /* \"#utility.yul\":3077:3079   */\n      0x20\n        /* \"contracts/LiquidityLocker.sol\":1661:1720  require(block.timestamp >= lock.unlockTime, \"Still locked\") */\n      0x04\n      dup3\n      add\n        /* \"#utility.yul\":3059:3080   */\n      mstore\n        /* \"#utility.yul\":3116:3118   */\n      0x0c\n        /* \"#utility.yul\":3096:3114   */\n      0x24\n      dup3\n      add\n        /* \"#utility.yul\":3089:3119   */\n      mstore\n      shl(0xa2, 0x14dd1a5b1b081b1bd8dad959)\n        /* \"#utility.yul\":3135:3153   */\n      0x44\n      dup3\n      add\n        /* \"#utility.yul\":3128:3170   */\n      mstore\n        /* \"#utility.yul\":3187:3205   */\n      0x64\n      add\n        /* \"contracts/LiquidityLocker.sol\":1661:1720  require(block.timestamp >= lock.unlockTime, \"Still locked\") */\n      tag_53\n        /* \"#utility.yul\":2875:3211   */\n      jump\n        /* \"contracts/LiquidityLocker.sol\":1661:1720  require(block.timestamp >= lock.unlockTime, \"Still locked\") */\n    tag_59:\n        /* \"contracts/LiquidityLocker.sol\":1750:1761  lock.amount */\n      0x01\n      dup1\n      dup3\n      add\n      sload\n        /* \"contracts/LiquidityLocker.sol\":1785:1796  lock.locker */\n      dup3\n      sload\n      sub(shl(0xa0, 0x01), 0x01)\n        /* \"contracts/LiquidityLocker.sol\":1816:1826  locks[dex] */\n      dup6\n      dup2\n      and\n        /* \"contracts/LiquidityLocker.sol\":1733:1747  uint256 amount */\n      0x00\n        /* \"contracts/LiquidityLocker.sol\":1816:1826  locks[dex] */\n      swap1\n      dup2\n      mstore\n        /* \"contracts/LiquidityLocker.sol\":1816:1821  locks */\n      0x02\n        /* \"contracts/LiquidityLocker.sol\":1816:1826  locks[dex] */\n      0x20\n      dup2\n      dup2\n      mstore\n      0x40\n      dup1\n      dup5\n      keccak256\n        /* \"contracts/LiquidityLocker.sol\":1809:1826  delete locks[dex] */\n      dup1\n      sload\n      not(sub(shl(0xa0, 0x01), 0x01))\n      and\n      dup2\n      sstore\n      swap8\n      dup9\n      add\n      dup5\n      swap1\n      sstore\n      swap7\n      swap1\n      swap2\n      add\n      dup3\n      swap1\n      sstore\n        /* \"contracts/LiquidityLocker.sol\":1844:1853  hasLocked */\n      0x03\n        /* \"contracts/LiquidityLocker.sol\":1844:1858  hasLocked[dex] */\n      swap1\n      mstore\n      swap4\n      dup5\n      keccak256\n        /* \"contracts/LiquidityLocker.sol\":1837:1858  delete hasLocked[dex] */\n      dup1\n      sload\n      not(0xff)\n      and\n      swap1\n      sstore\n        /* \"contracts/LiquidityLocker.sol\":1869:1880  totalLocked */\n      0x04\n        /* \"contracts/LiquidityLocker.sol\":1869:1890  totalLocked -= amount */\n      dup1\n      sload\n        /* \"contracts/LiquidityLocker.sol\":1750:1761  lock.amount */\n      swap4\n      swap5\n        /* \"contracts/LiquidityLocker.sol\":1785:1796  lock.locker */\n      swap2\n      swap1\n      swap3\n      and\n      swap3\n        /* \"contracts/LiquidityLocker.sol\":1750:1761  lock.amount */\n      dup5\n      swap3\n        /* \"contracts/LiquidityLocker.sol\":1869:1880  totalLocked */\n      swap2\n        /* \"contracts/LiquidityLocker.sol\":1733:1747  uint256 amount */\n      swap1\n        /* \"contracts/LiquidityLocker.sol\":1869:1890  totalLocked -= amount */\n      tag_62\n      swap1\n        /* \"contracts/LiquidityLocker.sol\":1750:1761  lock.amount */\n      dup5\n      swap1\n        /* \"contracts/LiquidityLocker.sol\":1869:1890  totalLocked -= amount */\n      tag_63\n      jump\t// in\n    tag_62:\n      swap1\n      swap2\n      sstore\n      pop\n      pop\n        /* \"contracts/LiquidityLocker.sol\":1904:1916  bool success */\n      0x00\n        /* \"contracts/LiquidityLocker.sol\":1927:1932  token */\n      dup1\n      sload\n        /* \"contracts/LiquidityLocker.sol\":1920:1954  IERC20(token).transfer(to, amount) */\n      mload(0x40)\n      shl(0xe0, 0xa9059cbb)\n      dup2\n      mstore\n      sub(shl(0xa0, 0x01), 0x01)\n        /* \"#utility.yul\":3673:3705   */\n      dup5\n      dup2\n      and\n        /* \"contracts/LiquidityLocker.sol\":1920:1954  IERC20(token).transfer(to, amount) */\n      0x04\n      dup4\n      add\n        /* \"#utility.yul\":3655:3706   */\n      mstore\n        /* \"#utility.yul\":3722:3740   */\n      0x24\n      dup3\n      add\n        /* \"#utility.yul\":3715:3749   */\n      dup7\n      swap1\n      mstore\n        /* \"contracts/LiquidityLocker.sol\":1927:1932  token */\n      swap1\n      swap2\n      and\n      swap1\n        /* \"contracts/LiquidityLocker.sol\":1920:1942  IERC20(token).transfer */\n      0xa9059cbb\n      swap1\n        /* \"#utility.yul\":3628:3646   */\n      0x44\n      add\n        /* \"contracts/LiquidityLocker.sol\":1920:1954  IERC20(token).transfer(to, amount) */\n      0x20\n      mload(0x40)\n      dup1\n      dup4\n      sub\n      dup2\n      0x00\n      dup8\n      gas\n      call\n      iszero\n      dup1\n      iszero\n      tag_67\n      jumpi\n      returndatacopy(0x00, 0x00, returndatasize)\n      revert(0x00, returndatasize)\n    tag_67:\n      pop\n      pop\n      pop\n      pop\n      mload(0x40)\n      returndatasize\n      not(0x1f)\n      0x1f\n      dup3\n      add\n      and\n      dup3\n      add\n      dup1\n      0x40\n      mstore\n      pop\n      dup2\n      add\n      swap1\n      tag_68\n      swap2\n      swap1\n      tag_69\n      jump\t// in\n    tag_68:\n        /* \"contracts/LiquidityLocker.sol\":1903:1954  (bool success) = IERC20(token).transfer(to, amount) */\n      swap1\n      pop\n        /* \"contracts/LiquidityLocker.sol\":1973:1980  success */\n      dup1\n        /* \"contracts/LiquidityLocker.sol\":1965:2000  require(success, \"Transfer failed\") */\n      tag_70\n      jumpi\n      mload(0x40)\n      shl(0xe5, 0x461bcd)\n      dup2\n      mstore\n        /* \"#utility.yul\":4244:4246   */\n      0x20\n        /* \"contracts/LiquidityLocker.sol\":1965:2000  require(success, \"Transfer failed\") */\n      0x04\n      dup3\n      add\n        /* \"#utility.yul\":4226:4247   */\n      mstore\n        /* \"#utility.yul\":4283:4285   */\n      0x0f\n        /* \"#utility.yul\":4263:4281   */\n      0x24\n      dup3\n      add\n        /* \"#utility.yul\":4256:4286   */\n      mstore\n      shl(0x8a, 0x151c985b9cd9995c8819985a5b1959)\n        /* \"#utility.yul\":4302:4320   */\n      0x44\n      dup3\n      add\n        /* \"#utility.yul\":4295:4340   */\n      mstore\n        /* \"#utility.yul\":4357:4375   */\n      0x64\n      add\n        /* \"contracts/LiquidityLocker.sol\":1965:2000  require(success, \"Transfer failed\") */\n      tag_53\n        /* \"#utility.yul\":4042:4381   */\n      jump\n        /* \"contracts/LiquidityLocker.sol\":1965:2000  require(success, \"Transfer failed\") */\n    tag_70:\n        /* \"contracts/LiquidityLocker.sol\":2033:2035  to */\n      dup2\n      sub(shl(0xa0, 0x01), 0x01)\n        /* \"contracts/LiquidityLocker.sol\":2018:2044  TokensUnlocked(to, amount) */\n      and\n      0xe7b379c6c1fa169e9079c25e9143b127637eef8ec8c9d5c06ddb4ab3e1195888\n        /* \"contracts/LiquidityLocker.sol\":2037:2043  amount */\n      dup5\n        /* \"contracts/LiquidityLocker.sol\":2018:2044  TokensUnlocked(to, amount) */\n      mload(0x40)\n      tag_73\n      swap2\n        /* \"#utility.yul\":929:954   */\n      dup2\n      mstore\n        /* \"#utility.yul\":917:919   */\n      0x20\n        /* \"#utility.yul\":902:920   */\n      add\n      swap1\n        /* \"#utility.yul\":783:960   */\n      jump\n        /* \"contracts/LiquidityLocker.sol\":2018:2044  TokensUnlocked(to, amount) */\n    tag_73:\n      mload(0x40)\n      dup1\n      swap2\n      sub\n      swap1\n      log2\n        /* \"contracts/LiquidityLocker.sol\":2072:2074  to */\n      dup2\n      sub(shl(0xa0, 0x01), 0x01)\n        /* \"contracts/LiquidityLocker.sol\":2060:2083  LockDeleted(to, amount) */\n      and\n      0xde0f1e241fd11a38067a9ef29a33adea54e2337ceaa2d5e42f54dc2c45f8c321\n        /* \"contracts/LiquidityLocker.sol\":2076:2082  amount */\n      dup5\n        /* \"contracts/LiquidityLocker.sol\":2060:2083  LockDeleted(to, amount) */\n      mload(0x40)\n      tag_74\n      swap2\n        /* \"#utility.yul\":929:954   */\n      dup2\n      mstore\n        /* \"#utility.yul\":917:919   */\n      0x20\n        /* \"#utility.yul\":902:920   */\n      add\n      swap1\n        /* \"#utility.yul\":783:960   */\n      jump\n        /* \"contracts/LiquidityLocker.sol\":2060:2083  LockDeleted(to, amount) */\n    tag_74:\n      mload(0x40)\n      dup1\n      swap2\n      sub\n      swap1\n      log2\n        /* \"contracts/LiquidityLocker.sol\":1556:2091  {... */\n      pop\n      pop\n      pop\n      pop\n        /* \"contracts/LiquidityLocker.sol\":1509:2091  function release(address dex) external onlyDAO {... */\n      pop\n      jump\t// out\n        /* \"contracts/LiquidityLocker.sol\":909:1501  function lockLiquidity(address from, uint256 amount, address dex, uint256 unlockTime) external onlyDAO {... */\n    tag_38:\n        /* \"contracts/LiquidityLocker.sol\":651:654  dao */\n      and(sub(shl(0xa0, 0x01), 0x01), sload(0x01))\n        /* \"contracts/LiquidityLocker.sol\":637:647  msg.sender */\n      caller\n        /* \"contracts/LiquidityLocker.sol\":637:654  msg.sender == dao */\n      eq\n        /* \"contracts/LiquidityLocker.sol\":629:667  require(msg.sender == dao, \"Only DAO\") */\n      tag_77\n      jumpi\n      mload(0x40)\n      shl(0xe5, 0x461bcd)\n      dup2\n      mstore\n        /* \"#utility.yul\":2398:2400   */\n      0x20\n        /* \"contracts/LiquidityLocker.sol\":629:667  require(msg.sender == dao, \"Only DAO\") */\n      0x04\n      dup3\n      add\n        /* \"#utility.yul\":2380:2401   */\n      mstore\n        /* \"#utility.yul\":2437:2438   */\n      0x08\n        /* \"#utility.yul\":2417:2435   */\n      0x24\n      dup3\n      add\n        /* \"#utility.yul\":2410:2439   */\n      mstore\n      shl(0xc0, 0x4f6e6c792044414f)\n        /* \"#utility.yul\":2455:2473   */\n      0x44\n      dup3\n      add\n        /* \"#utility.yul\":2448:2486   */\n      mstore\n        /* \"#utility.yul\":2503:2521   */\n      0x64\n      add\n        /* \"contracts/LiquidityLocker.sol\":629:667  require(msg.sender == dao, \"Only DAO\") */\n      tag_53\n        /* \"#utility.yul\":2196:2527   */\n      jump\n        /* \"contracts/LiquidityLocker.sol\":629:667  require(msg.sender == dao, \"Only DAO\") */\n    tag_77:\n        /* \"contracts/LiquidityLocker.sol\":1040:1041  0 */\n      0x00\n        /* \"contracts/LiquidityLocker.sol\":1031:1037  amount */\n      dup4\n        /* \"contracts/LiquidityLocker.sol\":1031:1041  amount > 0 */\n      gt\n        /* \"contracts/LiquidityLocker.sol\":1023:1057  require(amount > 0, \"Zero amount\") */\n      tag_80\n      jumpi\n      mload(0x40)\n      shl(0xe5, 0x461bcd)\n      dup2\n      mstore\n        /* \"#utility.yul\":4588:4590   */\n      0x20\n        /* \"contracts/LiquidityLocker.sol\":1023:1057  require(amount > 0, \"Zero amount\") */\n      0x04\n      dup3\n      add\n        /* \"#utility.yul\":4570:4591   */\n      mstore\n        /* \"#utility.yul\":4627:4629   */\n      0x0b\n        /* \"#utility.yul\":4607:4625   */\n      0x24\n      dup3\n      add\n        /* \"#utility.yul\":4600:4630   */\n      mstore\n      shl(0xaa, 0x16995c9bc8185b5bdd5b9d)\n        /* \"#utility.yul\":4646:4664   */\n      0x44\n      dup3\n      add\n        /* \"#utility.yul\":4639:4680   */\n      mstore\n        /* \"#utility.yul\":4697:4715   */\n      0x64\n      add\n        /* \"contracts/LiquidityLocker.sol\":1023:1057  require(amount > 0, \"Zero amount\") */\n      tag_53\n        /* \"#utility.yul\":4386:4721   */\n      jump\n        /* \"contracts/LiquidityLocker.sol\":1023:1057  require(amount > 0, \"Zero amount\") */\n    tag_80:\n        /* \"contracts/LiquidityLocker.sol\":1089:1113  block.timestamp + 1 days */\n      tag_83\n        /* \"contracts/LiquidityLocker.sol\":1089:1104  block.timestamp */\n      timestamp\n        /* \"contracts/LiquidityLocker.sol\":1107:1113  1 days */\n      0x015180\n        /* \"contracts/LiquidityLocker.sol\":1089:1113  block.timestamp + 1 days */\n      tag_84\n      jump\t// in\n    tag_83:\n        /* \"contracts/LiquidityLocker.sol\":1076:1086  unlockTime */\n      dup2\n        /* \"contracts/LiquidityLocker.sol\":1076:1113  unlockTime > block.timestamp + 1 days */\n      gt\n        /* \"contracts/LiquidityLocker.sol\":1068:1133  require(unlockTime > block.timestamp + 1 days, \"Unlock too soon\") */\n      tag_85\n      jumpi\n      mload(0x40)\n      shl(0xe5, 0x461bcd)\n      dup2\n      mstore\n        /* \"#utility.yul\":5058:5060   */\n      0x20\n        /* \"contracts/LiquidityLocker.sol\":1068:1133  require(unlockTime > block.timestamp + 1 days, \"Unlock too soon\") */\n      0x04\n      dup3\n      add\n        /* \"#utility.yul\":5040:5061   */\n      mstore\n        /* \"#utility.yul\":5097:5099   */\n      0x0f\n        /* \"#utility.yul\":5077:5095   */\n      0x24\n      dup3\n      add\n        /* \"#utility.yul\":5070:5100   */\n      mstore\n      shl(0x89, 0x2ab73637b1b5903a37b79039b7b7b7)\n        /* \"#utility.yul\":5116:5134   */\n      0x44\n      dup3\n      add\n        /* \"#utility.yul\":5109:5154   */\n      mstore\n        /* \"#utility.yul\":5171:5189   */\n      0x64\n      add\n        /* \"contracts/LiquidityLocker.sol\":1068:1133  require(unlockTime > block.timestamp + 1 days, \"Unlock too soon\") */\n      tag_53\n        /* \"#utility.yul\":4856:5195   */\n      jump\n        /* \"contracts/LiquidityLocker.sol\":1068:1133  require(unlockTime > block.timestamp + 1 days, \"Unlock too soon\") */\n    tag_85:\n      sub(shl(0xa0, 0x01), 0x01)\n        /* \"contracts/LiquidityLocker.sol\":1153:1167  hasLocked[dex] */\n      dup3\n      and\n      0x00\n      swap1\n      dup2\n      mstore\n        /* \"contracts/LiquidityLocker.sol\":1153:1162  hasLocked */\n      0x03\n        /* \"contracts/LiquidityLocker.sol\":1153:1167  hasLocked[dex] */\n      0x20\n      mstore\n      0x40\n      swap1\n      keccak256\n      sload\n      0xff\n      and\n        /* \"contracts/LiquidityLocker.sol\":1152:1167  !hasLocked[dex] */\n      iszero\n        /* \"contracts/LiquidityLocker.sol\":1144:1186  require(!hasLocked[dex], \"Already locked\") */\n      tag_88\n      jumpi\n      mload(0x40)\n      shl(0xe5, 0x461bcd)\n      dup2\n      mstore\n        /* \"#utility.yul\":5402:5404   */\n      0x20\n        /* \"contracts/LiquidityLocker.sol\":1144:1186  require(!hasLocked[dex], \"Already locked\") */\n      0x04\n      dup3\n      add\n        /* \"#utility.yul\":5384:5405   */\n      mstore\n        /* \"#utility.yul\":5441:5443   */\n      0x0e\n        /* \"#utility.yul\":5421:5439   */\n      0x24\n      dup3\n      add\n        /* \"#utility.yul\":5414:5444   */\n      mstore\n      shl(0x92, 0x105b1c9958591e481b1bd8dad959)\n        /* \"#utility.yul\":5460:5478   */\n      0x44\n      dup3\n      add\n        /* \"#utility.yul\":5453:5497   */\n      mstore\n        /* \"#utility.yul\":5514:5532   */\n      0x64\n      add\n        /* \"contracts/LiquidityLocker.sol\":1144:1186  require(!hasLocked[dex], \"Already locked\") */\n      tag_53\n        /* \"#utility.yul\":5200:5538   */\n      jump\n        /* \"contracts/LiquidityLocker.sol\":1144:1186  require(!hasLocked[dex], \"Already locked\") */\n    tag_88:\n        /* \"contracts/LiquidityLocker.sol\":1200:1212  bool success */\n      0x00\n        /* \"contracts/LiquidityLocker.sol\":1223:1228  token */\n      dup1\n      sload\n        /* \"contracts/LiquidityLocker.sol\":1216:1271  IERC20(token).transferFrom(from, address(this), amount) */\n      mload(0x40)\n      shl(0xe0, 0x23b872dd)\n      dup2\n      mstore\n      sub(shl(0xa0, 0x01), 0x01)\n        /* \"#utility.yul\":5763:5795   */\n      dup8\n      dup2\n      and\n        /* \"contracts/LiquidityLocker.sol\":1216:1271  IERC20(token).transferFrom(from, address(this), amount) */\n      0x04\n      dup4\n      add\n        /* \"#utility.yul\":5745:5796   */\n      mstore\n        /* \"contracts/LiquidityLocker.sol\":1257:1261  this */\n      address\n        /* \"#utility.yul\":5812:5830   */\n      0x24\n      dup4\n      add\n        /* \"#utility.yul\":5805:5865   */\n      mstore\n        /* \"#utility.yul\":5881:5899   */\n      0x44\n      dup3\n      add\n        /* \"#utility.yul\":5874:5908   */\n      dup8\n      swap1\n      mstore\n        /* \"contracts/LiquidityLocker.sol\":1223:1228  token */\n      swap1\n      swap2\n      and\n      swap1\n        /* \"contracts/LiquidityLocker.sol\":1216:1242  IERC20(token).transferFrom */\n      0x23b872dd\n      swap1\n        /* \"#utility.yul\":5718:5736   */\n      0x64\n      add\n        /* \"contracts/LiquidityLocker.sol\":1216:1271  IERC20(token).transferFrom(from, address(this), amount) */\n      0x20\n      mload(0x40)\n      dup1\n      dup4\n      sub\n      dup2\n      0x00\n      dup8\n      gas\n      call\n      iszero\n      dup1\n      iszero\n      tag_94\n      jumpi\n      returndatacopy(0x00, 0x00, returndatasize)\n      revert(0x00, returndatasize)\n    tag_94:\n      pop\n      pop\n      pop\n      pop\n      mload(0x40)\n      returndatasize\n      not(0x1f)\n      0x1f\n      dup3\n      add\n      and\n      dup3\n      add\n      dup1\n      0x40\n      mstore\n      pop\n      dup2\n      add\n      swap1\n      tag_95\n      swap2\n      swap1\n      tag_69\n      jump\t// in\n    tag_95:\n        /* \"contracts/LiquidityLocker.sol\":1199:1271  (bool success) = IERC20(token).transferFrom(from, address(this), amount) */\n      swap1\n      pop\n        /* \"contracts/LiquidityLocker.sol\":1290:1297  success */\n      dup1\n        /* \"contracts/LiquidityLocker.sol\":1282:1317  require(success, \"Transfer failed\") */\n      tag_96\n      jumpi\n      mload(0x40)\n      shl(0xe5, 0x461bcd)\n      dup2\n      mstore\n        /* \"#utility.yul\":4244:4246   */\n      0x20\n        /* \"contracts/LiquidityLocker.sol\":1282:1317  require(success, \"Transfer failed\") */\n      0x04\n      dup3\n      add\n        /* \"#utility.yul\":4226:4247   */\n      mstore\n        /* \"#utility.yul\":4283:4285   */\n      0x0f\n        /* \"#utility.yul\":4263:4281   */\n      0x24\n      dup3\n      add\n        /* \"#utility.yul\":4256:4286   */\n      mstore\n      shl(0x8a, 0x151c985b9cd9995c8819985a5b1959)\n        /* \"#utility.yul\":4302:4320   */\n      0x44\n      dup3\n      add\n        /* \"#utility.yul\":4295:4340   */\n      mstore\n        /* \"#utility.yul\":4357:4375   */\n      0x64\n      add\n        /* \"contracts/LiquidityLocker.sol\":1282:1317  require(success, \"Transfer failed\") */\n      tag_53\n        /* \"#utility.yul\":4042:4381   */\n      jump\n        /* \"contracts/LiquidityLocker.sol\":1282:1317  require(success, \"Transfer failed\") */\n    tag_96:\n        /* \"contracts/LiquidityLocker.sol\":1343:1373  Lock(from, amount, unlockTime) */\n      0x40\n      dup1\n      mload\n      0x60\n      dup2\n      add\n      dup3\n      mstore\n      sub(shl(0xa0, 0x01), 0x01)\n      dup8\n      dup2\n      and\n      dup3\n      mstore\n      0x20\n      dup1\n      dup4\n      add\n      dup9\n      dup2\n      mstore\n      dup4\n      dup6\n      add\n      dup8\n      dup2\n      mstore\n        /* \"contracts/LiquidityLocker.sol\":1330:1340  locks[dex] */\n      dup9\n      dup5\n      and\n      0x00\n      swap1\n      dup2\n      mstore\n        /* \"contracts/LiquidityLocker.sol\":1330:1335  locks */\n      0x02\n        /* \"contracts/LiquidityLocker.sol\":1330:1340  locks[dex] */\n      dup1\n      dup6\n      mstore\n      dup8\n      dup3\n      keccak256\n        /* \"contracts/LiquidityLocker.sol\":1330:1373  locks[dex] = Lock(from, amount, unlockTime) */\n      swap7\n      mload\n      dup8\n      sload\n      not(sub(shl(0xa0, 0x01), 0x01))\n      and\n      swap7\n      and\n      swap6\n      swap1\n      swap6\n      or\n      dup7\n      sstore\n      swap2\n      mload\n      0x01\n      dup1\n      dup8\n      add\n      swap2\n      swap1\n      swap2\n      sstore\n      swap1\n      mload\n      swap5\n      swap1\n      swap4\n      add\n      swap4\n      swap1\n      swap4\n      sstore\n        /* \"contracts/LiquidityLocker.sol\":1384:1393  hasLocked */\n      0x03\n        /* \"contracts/LiquidityLocker.sol\":1384:1398  hasLocked[dex] */\n      swap1\n      mstore\n      swap2\n      dup2\n      keccak256\n        /* \"contracts/LiquidityLocker.sol\":1384:1405  hasLocked[dex] = true */\n      dup1\n      sload\n      not(0xff)\n      and\n      swap1\n      swap3\n      or\n      swap1\n      swap2\n      sstore\n        /* \"contracts/LiquidityLocker.sol\":1416:1427  totalLocked */\n      0x04\n        /* \"contracts/LiquidityLocker.sol\":1416:1437  totalLocked += amount */\n      dup1\n      sload\n        /* \"contracts/LiquidityLocker.sol\":1343:1373  Lock(from, amount, unlockTime) */\n      dup7\n      swap3\n      swap1\n        /* \"contracts/LiquidityLocker.sol\":1416:1437  totalLocked += amount */\n      tag_98\n      swap1\n        /* \"contracts/LiquidityLocker.sol\":1343:1373  Lock(from, amount, unlockTime) */\n      dup5\n      swap1\n        /* \"contracts/LiquidityLocker.sol\":1416:1437  totalLocked += amount */\n      tag_84\n      jump\t// in\n    tag_98:\n      swap1\n      swap2\n      sstore\n      pop\n      pop\n        /* \"contracts/LiquidityLocker.sol\":1455:1493  TokensLocked(from, amount, unlockTime) */\n      0x40\n      dup1\n      mload\n        /* \"#utility.yul\":6093:6118   */\n      dup6\n      dup2\n      mstore\n        /* \"#utility.yul\":6149:6151   */\n      0x20\n        /* \"#utility.yul\":6134:6152   */\n      dup2\n      add\n        /* \"#utility.yul\":6127:6161   */\n      dup5\n      swap1\n      mstore\n      sub(shl(0xa0, 0x01), 0x01)\n        /* \"contracts/LiquidityLocker.sol\":1455:1493  TokensLocked(from, amount, unlockTime) */\n      dup8\n      and\n      swap2\n      0xd741e738a23fd18a03a26522320d9fc6cac1fed483e215ea9150fbc2fc43385d\n      swap2\n        /* \"#utility.yul\":6066:6084   */\n      add\n        /* \"contracts/LiquidityLocker.sol\":1455:1493  TokensLocked(from, amount, unlockTime) */\n      tag_74\n        /* \"#utility.yul\":5919:6167   */\n      jump\n        /* \"contracts/LiquidityLocker.sol\":2099:2201  function getLock(address dex) external view returns (Lock memory) {... */\n    tag_41:\n        /* \"contracts/LiquidityLocker.sol\":2152:2163  Lock memory */\n      tag_101\n      mload(0x40)\n      dup1\n      0x60\n      add\n      0x40\n      mstore\n      dup1\n      and(sub(shl(0xa0, 0x01), 0x01), 0x00)\n      dup2\n      mstore\n      0x20\n      add\n      0x00\n      dup2\n      mstore\n      0x20\n      add\n      0x00\n      dup2\n      mstore\n      pop\n      swap1\n      jump\n    tag_101:\n      pop\n      sub(shl(0xa0, 0x01), 0x01)\n        /* \"contracts/LiquidityLocker.sol\":2183:2193  locks[dex] */\n      swap1\n      dup2\n      and\n      0x00\n      swap1\n      dup2\n      mstore\n        /* \"contracts/LiquidityLocker.sol\":2183:2188  locks */\n      0x02\n        /* \"contracts/LiquidityLocker.sol\":2183:2193  locks[dex] */\n      0x20\n      dup2\n      dup2\n      mstore\n      0x40\n      swap3\n      dup4\n      swap1\n      keccak256\n        /* \"contracts/LiquidityLocker.sol\":2176:2193  return locks[dex] */\n      dup4\n      mload\n      0x60\n      dup2\n      add\n      dup6\n      mstore\n      dup2\n      sload\n      swap1\n      swap6\n      and\n      dup6\n      mstore\n      0x01\n      dup2\n      add\n      sload\n      swap2\n      dup6\n      add\n      swap2\n      swap1\n      swap2\n      mstore\n      add\n      sload\n      swap1\n      dup3\n      add\n      mstore\n      swap1\n        /* \"contracts/LiquidityLocker.sol\":2099:2201  function getLock(address dex) external view returns (Lock memory) {... */\n      jump\t// out\n        /* \"#utility.yul\":14:187   */\n    tag_104:\n        /* \"#utility.yul\":82:102   */\n      dup1\n      calldataload\n      sub(shl(0xa0, 0x01), 0x01)\n        /* \"#utility.yul\":131:162   */\n      dup2\n      and\n        /* \"#utility.yul\":121:163   */\n      dup2\n      eq\n        /* \"#utility.yul\":111:181   */\n      tag_108\n      jumpi\n        /* \"#utility.yul\":177:178   */\n      0x00\n        /* \"#utility.yul\":174:175   */\n      0x00\n        /* \"#utility.yul\":167:179   */\n      revert\n        /* \"#utility.yul\":111:181   */\n    tag_108:\n        /* \"#utility.yul\":14:187   */\n      swap2\n      swap1\n      pop\n      jump\t// out\n        /* \"#utility.yul\":192:378   */\n    tag_15:\n        /* \"#utility.yul\":251:257   */\n      0x00\n        /* \"#utility.yul\":304:306   */\n      0x20\n        /* \"#utility.yul\":292:301   */\n      dup3\n        /* \"#utility.yul\":283:290   */\n      dup5\n        /* \"#utility.yul\":279:302   */\n      sub\n        /* \"#utility.yul\":275:307   */\n      slt\n        /* \"#utility.yul\":272:324   */\n      iszero\n      tag_110\n      jumpi\n        /* \"#utility.yul\":320:321   */\n      0x00\n        /* \"#utility.yul\":317:318   */\n      0x00\n        /* \"#utility.yul\":310:322   */\n      revert\n        /* \"#utility.yul\":272:324   */\n    tag_110:\n        /* \"#utility.yul\":343:372   */\n      tag_111\n        /* \"#utility.yul\":362:371   */\n      dup3\n        /* \"#utility.yul\":343:372   */\n      tag_104\n      jump\t// in\n    tag_111:\n        /* \"#utility.yul\":333:372   */\n      swap4\n        /* \"#utility.yul\":192:378   */\n      swap3\n      pop\n      pop\n      pop\n      jump\t// out\n        /* \"#utility.yul\":1315:1810   */\n    tag_37:\n        /* \"#utility.yul\":1401:1407   */\n      0x00\n        /* \"#utility.yul\":1409:1415   */\n      0x00\n        /* \"#utility.yul\":1417:1423   */\n      0x00\n        /* \"#utility.yul\":1425:1431   */\n      0x00\n        /* \"#utility.yul\":1478:1481   */\n      0x80\n        /* \"#utility.yul\":1466:1475   */\n      dup6\n        /* \"#utility.yul\":1457:1464   */\n      dup8\n        /* \"#utility.yul\":1453:1476   */\n      sub\n        /* \"#utility.yul\":1449:1482   */\n      slt\n        /* \"#utility.yul\":1446:1499   */\n      iszero\n      tag_117\n      jumpi\n        /* \"#utility.yul\":1495:1496   */\n      0x00\n        /* \"#utility.yul\":1492:1493   */\n      0x00\n        /* \"#utility.yul\":1485:1497   */\n      revert\n        /* \"#utility.yul\":1446:1499   */\n    tag_117:\n        /* \"#utility.yul\":1518:1547   */\n      tag_118\n        /* \"#utility.yul\":1537:1546   */\n      dup6\n        /* \"#utility.yul\":1518:1547   */\n      tag_104\n      jump\t// in\n    tag_118:\n        /* \"#utility.yul\":1508:1547   */\n      swap4\n      pop\n        /* \"#utility.yul\":1616:1618   */\n      0x20\n        /* \"#utility.yul\":1601:1619   */\n      dup6\n      add\n        /* \"#utility.yul\":1588:1620   */\n      calldataload\n      swap3\n      pop\n        /* \"#utility.yul\":1663:1701   */\n      tag_119\n        /* \"#utility.yul\":1697:1699   */\n      0x40\n        /* \"#utility.yul\":1682:1700   */\n      dup7\n      add\n        /* \"#utility.yul\":1663:1701   */\n      tag_104\n      jump\t// in\n    tag_119:\n        /* \"#utility.yul\":1315:1810   */\n      swap4\n      swap7\n      swap3\n      swap6\n      pop\n        /* \"#utility.yul\":1653:1701   */\n      swap3\n      swap4\n        /* \"#utility.yul\":1774:1776   */\n      0x60\n        /* \"#utility.yul\":1759:1777   */\n      add\n        /* \"#utility.yul\":1746:1778   */\n      calldataload\n      swap3\n      pop\n      pop\n        /* \"#utility.yul\":1315:1810   */\n      jump\t// out\n        /* \"#utility.yul\":3216:3343   */\n    tag_105:\n        /* \"#utility.yul\":3277:3287   */\n      0x4e487b71\n        /* \"#utility.yul\":3272:3275   */\n      0xe0\n        /* \"#utility.yul\":3268:3288   */\n      shl\n        /* \"#utility.yul\":3265:3266   */\n      0x00\n        /* \"#utility.yul\":3258:3289   */\n      mstore\n        /* \"#utility.yul\":3308:3312   */\n      0x11\n        /* \"#utility.yul\":3305:3306   */\n      0x04\n        /* \"#utility.yul\":3298:3313   */\n      mstore\n        /* \"#utility.yul\":3332:3336   */\n      0x24\n        /* \"#utility.yul\":3329:3330   */\n      0x00\n        /* \"#utility.yul\":3322:3337   */\n      revert\n        /* \"#utility.yul\":3348:3476   */\n    tag_63:\n        /* \"#utility.yul\":3415:3424   */\n      dup2\n      dup2\n      sub\n        /* \"#utility.yul\":3436:3447   */\n      dup2\n      dup2\n      gt\n        /* \"#utility.yul\":3433:3470   */\n      iszero\n      tag_127\n      jumpi\n        /* \"#utility.yul\":3450:3468   */\n      tag_127\n      tag_105\n      jump\t// in\n    tag_127:\n        /* \"#utility.yul\":3348:3476   */\n      swap3\n      swap2\n      pop\n      pop\n      jump\t// out\n        /* \"#utility.yul\":3760:4037   */\n    tag_69:\n        /* \"#utility.yul\":3827:3833   */\n      0x00\n        /* \"#utility.yul\":3880:3882   */\n      0x20\n        /* \"#utility.yul\":3868:3877   */\n      dup3\n        /* \"#utility.yul\":3859:3866   */\n      dup5\n        /* \"#utility.yul\":3855:3878   */\n      sub\n        /* \"#utility.yul\":3851:3883   */\n      slt\n        /* \"#utility.yul\":3848:3900   */\n      iszero\n      tag_130\n      jumpi\n        /* \"#utility.yul\":3896:3897   */\n      0x00\n        /* \"#utility.yul\":3893:3894   */\n      0x00\n        /* \"#utility.yul\":3886:3898   */\n      revert\n        /* \"#utility.yul\":3848:3900   */\n    tag_130:\n        /* \"#utility.yul\":3928:3937   */\n      dup2\n        /* \"#utility.yul\":3922:3938   */\n      mload\n        /* \"#utility.yul\":3981:3986   */\n      dup1\n        /* \"#utility.yul\":3974:3987   */\n      iszero\n        /* \"#utility.yul\":3967:3988   */\n      iszero\n        /* \"#utility.yul\":3960:3965   */\n      dup2\n        /* \"#utility.yul\":3957:3989   */\n      eq\n        /* \"#utility.yul\":3947:4007   */\n      tag_111\n      jumpi\n        /* \"#utility.yul\":4003:4004   */\n      0x00\n        /* \"#utility.yul\":4000:4001   */\n      0x00\n        /* \"#utility.yul\":3993:4005   */\n      revert\n        /* \"#utility.yul\":4726:4851   */\n    tag_84:\n        /* \"#utility.yul\":4791:4800   */\n      dup1\n      dup3\n      add\n        /* \"#utility.yul\":4812:4822   */\n      dup1\n      dup3\n      gt\n        /* \"#utility.yul\":4809:4845   */\n      iszero\n      tag_127\n      jumpi\n        /* \"#utility.yul\":4825:4843   */\n      tag_127\n      tag_105\n      jump\t// in\n\n    auxdata: 0xa26469706673582212203921378f1cfbc2e5fc3dc61e9a0efaf5a4130f1c93a38e3c138a115e6218348264736f6c634300081d0033\n}\n",
				"bytecode": {
					"linkReferences": {},
					"object": "608060405234801561000f575f5ffd5b50604051610a11380380610a1183398101604081905261002e91610108565b6001600160a01b0382166100795760405162461bcd60e51b815260206004820152600d60248201526c24b73b30b634b2103a37b5b2b760991b60448201526064015b60405180910390fd5b6001600160a01b0381166100bd5760405162461bcd60e51b815260206004820152600b60248201526a496e76616c69642044414f60a81b6044820152606401610070565b5f80546001600160a01b039384166001600160a01b03199182161790915560018054929093169116179055610139565b80516001600160a01b0381168114610103575f5ffd5b919050565b5f5f60408385031215610119575f5ffd5b610122836100ed565b9150610130602084016100ed565b90509250929050565b6108cb806101465f395ff3fe608060405234801561000f575f5ffd5b5060043610610090575f3560e01c80635de9a137116100635780635de9a1371461012b57806365274982146101895780636b9db4e61461019c578063d932373f146101da578063fc0c546a146101fc575f5ffd5b806319165587146100945780634162169f146100a95780634a4fbeec146100d95780635689141214610114575b5f5ffd5b6100a76100a23660046107d5565b61020e565b005b6001546100bc906001600160a01b031681565b6040516001600160a01b0390911681526020015b60405180910390f35b6101046100e73660046107d5565b6001600160a01b03165f9081526003602052604090205460ff1690565b60405190151581526020016100d0565b61011d60045481565b6040519081526020016100d0565b6101646101393660046107d5565b600260208190525f91825260409091208054600182015491909201546001600160a01b039092169183565b604080516001600160a01b0390941684526020840192909252908201526060016100d0565b6100a76101973660046107f5565b6104a2565b6101af6101aa3660046107d5565b61074f565b6040805182516001600160a01b031681526020808401519082015291810151908201526060016100d0565b6101046101e83660046107d5565b60036020525f908152604090205460ff1681565b5f546100bc906001600160a01b031681565b6001546001600160a01b031633146102585760405162461bcd60e51b81526020600482015260086024820152674f6e6c792044414f60c01b60448201526064015b60405180910390fd5b6001600160a01b0381165f90815260026020526040902060018101546102b15760405162461bcd60e51b815260206004820152600e60248201526d139bdd1a1a5b99c81b1bd8dad95960921b604482015260640161024f565b80600201544210156102f45760405162461bcd60e51b815260206004820152600c60248201526b14dd1a5b1b081b1bd8dad95960a21b604482015260640161024f565b60018082015482546001600160a01b038581165f90815260026020818152604080842080546001600160a01b03191681559788018490559690910182905560039052938420805460ff1916905560048054939491909216928492919061035b90849061084a565b90915550505f805460405163a9059cbb60e01b81526001600160a01b038481166004830152602482018690529091169063a9059cbb906044016020604051808303815f875af11580156103b0573d5f5f3e3d5ffd5b505050506040513d601f19601f820116820180604052508101906103d49190610863565b9050806104155760405162461bcd60e51b815260206004820152600f60248201526e151c985b9cd9995c8819985a5b1959608a1b604482015260640161024f565b816001600160a01b03167fe7b379c6c1fa169e9079c25e9143b127637eef8ec8c9d5c06ddb4ab3e11958888460405161045091815260200190565b60405180910390a2816001600160a01b03167fde0f1e241fd11a38067a9ef29a33adea54e2337ceaa2d5e42f54dc2c45f8c3218460405161049391815260200190565b60405180910390a25050505050565b6001546001600160a01b031633146104e75760405162461bcd60e51b81526020600482015260086024820152674f6e6c792044414f60c01b604482015260640161024f565b5f83116105245760405162461bcd60e51b815260206004820152600b60248201526a16995c9bc8185b5bdd5b9d60aa1b604482015260640161024f565b6105314262015180610882565b81116105715760405162461bcd60e51b815260206004820152600f60248201526e2ab73637b1b5903a37b79039b7b7b760891b604482015260640161024f565b6001600160a01b0382165f9081526003602052604090205460ff16156105ca5760405162461bcd60e51b815260206004820152600e60248201526d105b1c9958591e481b1bd8dad95960921b604482015260640161024f565b5f80546040516323b872dd60e01b81526001600160a01b03878116600483015230602483015260448201879052909116906323b872dd906064016020604051808303815f875af1158015610620573d5f5f3e3d5ffd5b505050506040513d601f19601f820116820180604052508101906106449190610863565b9050806106855760405162461bcd60e51b815260206004820152600f60248201526e151c985b9cd9995c8819985a5b1959608a1b604482015260640161024f565b604080516060810182526001600160a01b03878116825260208083018881528385018781528884165f9081526002808552878220965187546001600160a01b031916961695909517865591516001808701919091559051949093019390935560039052918120805460ff191690921790915560048054869290610709908490610882565b909155505060408051858152602081018490526001600160a01b038716917fd741e738a23fd18a03a26522320d9fc6cac1fed483e215ea9150fbc2fc43385d9101610493565b61077960405180606001604052805f6001600160a01b031681526020015f81526020015f81525090565b506001600160a01b039081165f9081526002602081815260409283902083516060810185528154909516855260018101549185019190915201549082015290565b80356001600160a01b03811681146107d0575f5ffd5b919050565b5f602082840312156107e5575f5ffd5b6107ee826107ba565b9392505050565b5f5f5f5f60808587031215610808575f5ffd5b610811856107ba565b935060208501359250610826604086016107ba565b9396929550929360600135925050565b634e487b7160e01b5f52601160045260245ffd5b8181038181111561085d5761085d610836565b92915050565b5f60208284031215610873575f5ffd5b815180151581146107ee575f5ffd5b8082018082111561085d5761085d61083656fea26469706673582212203921378f1cfbc2e5fc3dc61e9a0efaf5a4130f1c93a38e3c138a115e6218348264736f6c634300081d0033",
					"opcodes": "PUSH1 0x80 PUSH1 0x40 MSTORE CALLVALUE DUP1 ISZERO PUSH2 0xF JUMPI PUSH0 PUSH0 REVERT JUMPDEST POP PUSH1 0x40 MLOAD PUSH2 0xA11 CODESIZE SUB DUP1 PUSH2 0xA11 DUP4 CODECOPY DUP2 ADD PUSH1 0x40 DUP2 SWAP1 MSTORE PUSH2 0x2E SWAP2 PUSH2 0x108 JUMP JUMPDEST PUSH1 0x1 PUSH1 0x1 PUSH1 0xA0 SHL SUB DUP3 AND PUSH2 0x79 JUMPI PUSH1 0x40 MLOAD PUSH3 0x461BCD PUSH1 0xE5 SHL DUP2 MSTORE PUSH1 0x20 PUSH1 0x4 DUP3 ADD MSTORE PUSH1 0xD PUSH1 0x24 DUP3 ADD MSTORE PUSH13 0x24B73B30B634B2103A37B5B2B7 PUSH1 0x99 SHL PUSH1 0x44 DUP3 ADD MSTORE PUSH1 0x64 ADD JUMPDEST PUSH1 0x40 MLOAD DUP1 SWAP2 SUB SWAP1 REVERT JUMPDEST PUSH1 0x1 PUSH1 0x1 PUSH1 0xA0 SHL SUB DUP2 AND PUSH2 0xBD JUMPI PUSH1 0x40 MLOAD PUSH3 0x461BCD PUSH1 0xE5 SHL DUP2 MSTORE PUSH1 0x20 PUSH1 0x4 DUP3 ADD MSTORE PUSH1 0xB PUSH1 0x24 DUP3 ADD MSTORE PUSH11 0x496E76616C69642044414F PUSH1 0xA8 SHL PUSH1 0x44 DUP3 ADD MSTORE PUSH1 0x64 ADD PUSH2 0x70 JUMP JUMPDEST PUSH0 DUP1 SLOAD PUSH1 0x1 PUSH1 0x1 PUSH1 0xA0 SHL SUB SWAP4 DUP5 AND PUSH1 0x1 PUSH1 0x1 PUSH1 0xA0 SHL SUB NOT SWAP2 DUP3 AND OR SWAP1 SWAP2 SSTORE PUSH1 0x1 DUP1 SLOAD SWAP3 SWAP1 SWAP4 AND SWAP2 AND OR SWAP1 SSTORE PUSH2 0x139 JUMP JUMPDEST DUP1 MLOAD PUSH1 0x1 PUSH1 0x1 PUSH1 0xA0 SHL SUB DUP2 AND DUP2 EQ PUSH2 0x103 JUMPI PUSH0 PUSH0 REVERT JUMPDEST SWAP2 SWAP1 POP JUMP JUMPDEST PUSH0 PUSH0 PUSH1 0x40 DUP4 DUP6 SUB SLT ISZERO PUSH2 0x119 JUMPI PUSH0 PUSH0 REVERT JUMPDEST PUSH2 0x122 DUP4 PUSH2 0xED JUMP JUMPDEST SWAP2 POP PUSH2 0x130 PUSH1 0x20 DUP5 ADD PUSH2 0xED JUMP JUMPDEST SWAP1 POP SWAP3 POP SWAP3 SWAP1 POP JUMP JUMPDEST PUSH2 0x8CB DUP1 PUSH2 0x146 PUSH0 CODECOPY PUSH0 RETURN INVALID PUSH1 0x80 PUSH1 0x40 MSTORE CALLVALUE DUP1 ISZERO PUSH2 0xF JUMPI PUSH0 PUSH0 REVERT JUMPDEST POP PUSH1 0x4 CALLDATASIZE LT PUSH2 0x90 JUMPI PUSH0 CALLDATALOAD PUSH1 0xE0 SHR DUP1 PUSH4 0x5DE9A137 GT PUSH2 0x63 JUMPI DUP1 PUSH4 0x5DE9A137 EQ PUSH2 0x12B JUMPI DUP1 PUSH4 0x65274982 EQ PUSH2 0x189 JUMPI DUP1 PUSH4 0x6B9DB4E6 EQ PUSH2 0x19C JUMPI DUP1 PUSH4 0xD932373F EQ PUSH2 0x1DA JUMPI DUP1 PUSH4 0xFC0C546A EQ PUSH2 0x1FC JUMPI PUSH0 PUSH0 REVERT JUMPDEST DUP1 PUSH4 0x19165587 EQ PUSH2 0x94 JUMPI DUP1 PUSH4 0x4162169F EQ PUSH2 0xA9 JUMPI DUP1 PUSH4 0x4A4FBEEC EQ PUSH2 0xD9 JUMPI DUP1 PUSH4 0x56891412 EQ PUSH2 0x114 JUMPI JUMPDEST PUSH0 PUSH0 REVERT JUMPDEST PUSH2 0xA7 PUSH2 0xA2 CALLDATASIZE PUSH1 0x4 PUSH2 0x7D5 JUMP JUMPDEST PUSH2 0x20E JUMP JUMPDEST STOP JUMPDEST PUSH1 0x1 SLOAD PUSH2 0xBC SWAP1 PUSH1 0x1 PUSH1 0x1 PUSH1 0xA0 SHL SUB AND DUP2 JUMP JUMPDEST PUSH1 0x40 MLOAD PUSH1 0x1 PUSH1 0x1 PUSH1 0xA0 SHL SUB SWAP1 SWAP2 AND DUP2 MSTORE PUSH1 0x20 ADD JUMPDEST PUSH1 0x40 MLOAD DUP1 SWAP2 SUB SWAP1 RETURN JUMPDEST PUSH2 0x104 PUSH2 0xE7 CALLDATASIZE PUSH1 0x4 PUSH2 0x7D5 JUMP JUMPDEST PUSH1 0x1 PUSH1 0x1 PUSH1 0xA0 SHL SUB AND PUSH0 SWAP1 DUP2 MSTORE PUSH1 0x3 PUSH1 0x20 MSTORE PUSH1 0x40 SWAP1 KECCAK256 SLOAD PUSH1 0xFF AND SWAP1 JUMP JUMPDEST PUSH1 0x40 MLOAD SWAP1 ISZERO ISZERO DUP2 MSTORE PUSH1 0x20 ADD PUSH2 0xD0 JUMP JUMPDEST PUSH2 0x11D PUSH1 0x4 SLOAD DUP2 JUMP JUMPDEST PUSH1 0x40 MLOAD SWAP1 DUP2 MSTORE PUSH1 0x20 ADD PUSH2 0xD0 JUMP JUMPDEST PUSH2 0x164 PUSH2 0x139 CALLDATASIZE PUSH1 0x4 PUSH2 0x7D5 JUMP JUMPDEST PUSH1 0x2 PUSH1 0x20 DUP2 SWAP1 MSTORE PUSH0 SWAP2 DUP3 MSTORE PUSH1 0x40 SWAP1 SWAP2 KECCAK256 DUP1 SLOAD PUSH1 0x1 DUP3 ADD SLOAD SWAP2 SWAP1 SWAP3 ADD SLOAD PUSH1 0x1 PUSH1 0x1 PUSH1 0xA0 SHL SUB SWAP1 SWAP3 AND SWAP2 DUP4 JUMP JUMPDEST PUSH1 0x40 DUP1 MLOAD PUSH1 0x1 PUSH1 0x1 PUSH1 0xA0 SHL SUB SWAP1 SWAP5 AND DUP5 MSTORE PUSH1 0x20 DUP5 ADD SWAP3 SWAP1 SWAP3 MSTORE SWAP1 DUP3 ADD MSTORE PUSH1 0x60 ADD PUSH2 0xD0 JUMP JUMPDEST PUSH2 0xA7 PUSH2 0x197 CALLDATASIZE PUSH1 0x4 PUSH2 0x7F5 JUMP JUMPDEST PUSH2 0x4A2 JUMP JUMPDEST PUSH2 0x1AF PUSH2 0x1AA CALLDATASIZE PUSH1 0x4 PUSH2 0x7D5 JUMP JUMPDEST PUSH2 0x74F JUMP JUMPDEST PUSH1 0x40 DUP1 MLOAD DUP3 MLOAD PUSH1 0x1 PUSH1 0x1 PUSH1 0xA0 SHL SUB AND DUP2 MSTORE PUSH1 0x20 DUP1 DUP5 ADD MLOAD SWAP1 DUP3 ADD MSTORE SWAP2 DUP2 ADD MLOAD SWAP1 DUP3 ADD MSTORE PUSH1 0x60 ADD PUSH2 0xD0 JUMP JUMPDEST PUSH2 0x104 PUSH2 0x1E8 CALLDATASIZE PUSH1 0x4 PUSH2 0x7D5 JUMP JUMPDEST PUSH1 0x3 PUSH1 0x20 MSTORE PUSH0 SWAP1 DUP2 MSTORE PUSH1 0x40 SWAP1 KECCAK256 SLOAD PUSH1 0xFF AND DUP2 JUMP JUMPDEST PUSH0 SLOAD PUSH2 0xBC SWAP1 PUSH1 0x1 PUSH1 0x1 PUSH1 0xA0 SHL SUB AND DUP2 JUMP JUMPDEST PUSH1 0x1 SLOAD PUSH1 0x1 PUSH1 0x1 PUSH1 0xA0 SHL SUB AND CALLER EQ PUSH2 0x258 JUMPI PUSH1 0x40 MLOAD PUSH3 0x461BCD PUSH1 0xE5 SHL DUP2 MSTORE PUSH1 0x20 PUSH1 0x4 DUP3 ADD MSTORE PUSH1 0x8 PUSH1 0x24 DUP3 ADD MSTORE PUSH8 0x4F6E6C792044414F PUSH1 0xC0 SHL PUSH1 0x44 DUP3 ADD MSTORE PUSH1 0x64 ADD JUMPDEST PUSH1 0x40 MLOAD DUP1 SWAP2 SUB SWAP1 REVERT JUMPDEST PUSH1 0x1 PUSH1 0x1 PUSH1 0xA0 SHL SUB DUP2 AND PUSH0 SWAP1 DUP2 MSTORE PUSH1 0x2 PUSH1 0x20 MSTORE PUSH1 0x40 SWAP1 KECCAK256 PUSH1 0x1 DUP2 ADD SLOAD PUSH2 0x2B1 JUMPI PUSH1 0x40 MLOAD PUSH3 0x461BCD PUSH1 0xE5 SHL DUP2 MSTORE PUSH1 0x20 PUSH1 0x4 DUP3 ADD MSTORE PUSH1 0xE PUSH1 0x24 DUP3 ADD MSTORE PUSH14 0x139BDD1A1A5B99C81B1BD8DAD959 PUSH1 0x92 SHL PUSH1 0x44 DUP3 ADD MSTORE PUSH1 0x64 ADD PUSH2 0x24F JUMP JUMPDEST DUP1 PUSH1 0x2 ADD SLOAD TIMESTAMP LT ISZERO PUSH2 0x2F4 JUMPI PUSH1 0x40 MLOAD PUSH3 0x461BCD PUSH1 0xE5 SHL DUP2 MSTORE PUSH1 0x20 PUSH1 0x4 DUP3 ADD MSTORE PUSH1 0xC PUSH1 0x24 DUP3 ADD MSTORE PUSH12 0x14DD1A5B1B081B1BD8DAD959 PUSH1 0xA2 SHL PUSH1 0x44 DUP3 ADD MSTORE PUSH1 0x64 ADD PUSH2 0x24F JUMP JUMPDEST PUSH1 0x1 DUP1 DUP3 ADD SLOAD DUP3 SLOAD PUSH1 0x1 PUSH1 0x1 PUSH1 0xA0 SHL SUB DUP6 DUP2 AND PUSH0 SWAP1 DUP2 MSTORE PUSH1 0x2 PUSH1 0x20 DUP2 DUP2 MSTORE PUSH1 0x40 DUP1 DUP5 KECCAK256 DUP1 SLOAD PUSH1 0x1 PUSH1 0x1 PUSH1 0xA0 SHL SUB NOT AND DUP2 SSTORE SWAP8 DUP9 ADD DUP5 SWAP1 SSTORE SWAP7 SWAP1 SWAP2 ADD DUP3 SWAP1 SSTORE PUSH1 0x3 SWAP1 MSTORE SWAP4 DUP5 KECCAK256 DUP1 SLOAD PUSH1 0xFF NOT AND SWAP1 SSTORE PUSH1 0x4 DUP1 SLOAD SWAP4 SWAP5 SWAP2 SWAP1 SWAP3 AND SWAP3 DUP5 SWAP3 SWAP2 SWAP1 PUSH2 0x35B SWAP1 DUP5 SWAP1 PUSH2 0x84A JUMP JUMPDEST SWAP1 SWAP2 SSTORE POP POP PUSH0 DUP1 SLOAD PUSH1 0x40 MLOAD PUSH4 0xA9059CBB PUSH1 0xE0 SHL DUP2 MSTORE PUSH1 0x1 PUSH1 0x1 PUSH1 0xA0 SHL SUB DUP5 DUP2 AND PUSH1 0x4 DUP4 ADD MSTORE PUSH1 0x24 DUP3 ADD DUP7 SWAP1 MSTORE SWAP1 SWAP2 AND SWAP1 PUSH4 0xA9059CBB SWAP1 PUSH1 0x44 ADD PUSH1 0x20 PUSH1 0x40 MLOAD DUP1 DUP4 SUB DUP2 PUSH0 DUP8 GAS CALL ISZERO DUP1 ISZERO PUSH2 0x3B0 JUMPI RETURNDATASIZE PUSH0 PUSH0 RETURNDATACOPY RETURNDATASIZE PUSH0 REVERT JUMPDEST POP POP POP POP PUSH1 0x40 MLOAD RETURNDATASIZE PUSH1 0x1F NOT PUSH1 0x1F DUP3 ADD AND DUP3 ADD DUP1 PUSH1 0x40 MSTORE POP DUP2 ADD SWAP1 PUSH2 0x3D4 SWAP2 SWAP1 PUSH2 0x863 JUMP JUMPDEST SWAP1 POP DUP1 PUSH2 0x415 JUMPI PUSH1 0x40 MLOAD PUSH3 0x461BCD PUSH1 0xE5 SHL DUP2 MSTORE PUSH1 0x20 PUSH1 0x4 DUP3 ADD MSTORE PUSH1 0xF PUSH1 0x24 DUP3 ADD MSTORE PUSH15 0x151C985B9CD9995C8819985A5B1959 PUSH1 0x8A SHL PUSH1 0x44 DUP3 ADD MSTORE PUSH1 0x64 ADD PUSH2 0x24F JUMP JUMPDEST DUP2 PUSH1 0x1 PUSH1 0x1 PUSH1 0xA0 SHL SUB AND PUSH32 0xE7B379C6C1FA169E9079C25E9143B127637EEF8EC8C9D5C06DDB4AB3E1195888 DUP5 PUSH1 0x40 MLOAD PUSH2 0x450 SWAP2 DUP2 MSTORE PUSH1 0x20 ADD SWAP1 JUMP JUMPDEST PUSH1 0x40 MLOAD DUP1 SWAP2 SUB SWAP1 LOG2 DUP2 PUSH1 0x1 PUSH1 0x1 PUSH1 0xA0 SHL SUB AND PUSH32 0xDE0F1E241FD11A38067A9EF29A33ADEA54E2337CEAA2D5E42F54DC2C45F8C321 DUP5 PUSH1 0x40 MLOAD PUSH2 0x493 SWAP2 DUP2 MSTORE PUSH1 0x20 ADD SWAP1 JUMP JUMPDEST PUSH1 0x40 MLOAD DUP1 SWAP2 SUB SWAP1 LOG2 POP POP POP POP POP JUMP JUMPDEST PUSH1 0x1 SLOAD PUSH1 0x1 PUSH1 0x1 PUSH1 0xA0 SHL SUB AND CALLER EQ PUSH2 0x4E7 JUMPI PUSH1 0x40 MLOAD PUSH3 0x461BCD PUSH1 0xE5 SHL DUP2 MSTORE PUSH1 0x20 PUSH1 0x4 DUP3 ADD MSTORE PUSH1 0x8 PUSH1 0x24 DUP3 ADD MSTORE PUSH8 0x4F6E6C792044414F PUSH1 0xC0 SHL PUSH1 0x44 DUP3 ADD MSTORE PUSH1 0x64 ADD PUSH2 0x24F JUMP JUMPDEST PUSH0 DUP4 GT PUSH2 0x524 JUMPI PUSH1 0x40 MLOAD PUSH3 0x461BCD PUSH1 0xE5 SHL DUP2 MSTORE PUSH1 0x20 PUSH1 0x4 DUP3 ADD MSTORE PUSH1 0xB PUSH1 0x24 DUP3 ADD MSTORE PUSH11 0x16995C9BC8185B5BDD5B9D PUSH1 0xAA SHL PUSH1 0x44 DUP3 ADD MSTORE PUSH1 0x64 ADD PUSH2 0x24F JUMP JUMPDEST PUSH2 0x531 TIMESTAMP PUSH3 0x15180 PUSH2 0x882 JUMP JUMPDEST DUP2 GT PUSH2 0x571 JUMPI PUSH1 0x40 MLOAD PUSH3 0x461BCD PUSH1 0xE5 SHL DUP2 MSTORE PUSH1 0x20 PUSH1 0x4 DUP3 ADD MSTORE PUSH1 0xF PUSH1 0x24 DUP3 ADD MSTORE PUSH15 0x2AB73637B1B5903A37B79039B7B7B7 PUSH1 0x89 SHL PUSH1 0x44 DUP3 ADD MSTORE PUSH1 0x64 ADD PUSH2 0x24F JUMP JUMPDEST PUSH1 0x1 PUSH1 0x1 PUSH1 0xA0 SHL SUB DUP3 AND PUSH0 SWAP1 DUP2 MSTORE PUSH1 0x3 PUSH1 0x20 MSTORE PUSH1 0x40 SWAP1 KECCAK256 SLOAD PUSH1 0xFF AND ISZERO PUSH2 0x5CA JUMPI PUSH1 0x40 MLOAD PUSH3 0x461BCD PUSH1 0xE5 SHL DUP2 MSTORE PUSH1 0x20 PUSH1 0x4 DUP3 ADD MSTORE PUSH1 0xE PUSH1 0x24 DUP3 ADD MSTORE PUSH14 0x105B1C9958591E481B1BD8DAD959 PUSH1 0x92 SHL PUSH1 0x44 DUP3 ADD MSTORE PUSH1 0x64 ADD PUSH2 0x24F JUMP JUMPDEST PUSH0 DUP1 SLOAD PUSH1 0x40 MLOAD PUSH4 0x23B872DD PUSH1 0xE0 SHL DUP2 MSTORE PUSH1 0x1 PUSH1 0x1 PUSH1 0xA0 SHL SUB DUP8 DUP2 AND PUSH1 0x4 DUP4 ADD MSTORE ADDRESS PUSH1 0x24 DUP4 ADD MSTORE PUSH1 0x44 DUP3 ADD DUP8 SWAP1 MSTORE SWAP1 SWAP2 AND SWAP1 PUSH4 0x23B872DD SWAP1 PUSH1 0x64 ADD PUSH1 0x20 PUSH1 0x40 MLOAD DUP1 DUP4 SUB DUP2 PUSH0 DUP8 GAS CALL ISZERO DUP1 ISZERO PUSH2 0x620 JUMPI RETURNDATASIZE PUSH0 PUSH0 RETURNDATACOPY RETURNDATASIZE PUSH0 REVERT JUMPDEST POP POP POP POP PUSH1 0x40 MLOAD RETURNDATASIZE PUSH1 0x1F NOT PUSH1 0x1F DUP3 ADD AND DUP3 ADD DUP1 PUSH1 0x40 MSTORE POP DUP2 ADD SWAP1 PUSH2 0x644 SWAP2 SWAP1 PUSH2 0x863 JUMP JUMPDEST SWAP1 POP DUP1 PUSH2 0x685 JUMPI PUSH1 0x40 MLOAD PUSH3 0x461BCD PUSH1 0xE5 SHL DUP2 MSTORE PUSH1 0x20 PUSH1 0x4 DUP3 ADD MSTORE PUSH1 0xF PUSH1 0x24 DUP3 ADD MSTORE PUSH15 0x151C985B9CD9995C8819985A5B1959 PUSH1 0x8A SHL PUSH1 0x44 DUP3 ADD MSTORE PUSH1 0x64 ADD PUSH2 0x24F JUMP JUMPDEST PUSH1 0x40 DUP1 MLOAD PUSH1 0x60 DUP2 ADD DUP3 MSTORE PUSH1 0x1 PUSH1 0x1 PUSH1 0xA0 SHL SUB DUP8 DUP2 AND DUP3 MSTORE PUSH1 0x20 DUP1 DUP4 ADD DUP9 DUP2 MSTORE DUP4 DUP6 ADD DUP8 DUP2 MSTORE DUP9 DUP5 AND PUSH0 SWAP1 DUP2 MSTORE PUSH1 0x2 DUP1 DUP6 MSTORE DUP8 DUP3 KECCAK256 SWAP7 MLOAD DUP8 SLOAD PUSH1 0x1 PUSH1 0x1 PUSH1 0xA0 SHL SUB NOT AND SWAP7 AND SWAP6 SWAP1 SWAP6 OR DUP7 SSTORE SWAP2 MLOAD PUSH1 0x1 DUP1 DUP8 ADD SWAP2 SWAP1 SWAP2 SSTORE SWAP1 MLOAD SWAP5 SWAP1 SWAP4 ADD SWAP4 SWAP1 SWAP4 SSTORE PUSH1 0x3 SWAP1 MSTORE SWAP2 DUP2 KECCAK256 DUP1 SLOAD PUSH1 0xFF NOT AND SWAP1 SWAP3 OR SWAP1 SWAP2 SSTORE PUSH1 0x4 DUP1 SLOAD DUP7 SWAP3 SWAP1 PUSH2 0x709 SWAP1 DUP5 SWAP1 PUSH2 0x882 JUMP JUMPDEST SWAP1 SWAP2 SSTORE POP POP PUSH1 0x40 DUP1 MLOAD DUP6 DUP2 MSTORE PUSH1 0x20 DUP2 ADD DUP5 SWAP1 MSTORE PUSH1 0x1 PUSH1 0x1 PUSH1 0xA0 SHL SUB DUP8 AND SWAP2 PUSH32 0xD741E738A23FD18A03A26522320D9FC6CAC1FED483E215EA9150FBC2FC43385D SWAP2 ADD PUSH2 0x493 JUMP JUMPDEST PUSH2 0x779 PUSH1 0x40 MLOAD DUP1 PUSH1 0x60 ADD PUSH1 0x40 MSTORE DUP1 PUSH0 PUSH1 0x1 PUSH1 0x1 PUSH1 0xA0 SHL SUB AND DUP2 MSTORE PUSH1 0x20 ADD PUSH0 DUP2 MSTORE PUSH1 0x20 ADD PUSH0 DUP2 MSTORE POP SWAP1 JUMP JUMPDEST POP PUSH1 0x1 PUSH1 0x1 PUSH1 0xA0 SHL SUB SWAP1 DUP2 AND PUSH0 SWAP1 DUP2 MSTORE PUSH1 0x2 PUSH1 0x20 DUP2 DUP2 MSTORE PUSH1 0x40 SWAP3 DUP4 SWAP1 KECCAK256 DUP4 MLOAD PUSH1 0x60 DUP2 ADD DUP6 MSTORE DUP2 SLOAD SWAP1 SWAP6 AND DUP6 MSTORE PUSH1 0x1 DUP2 ADD SLOAD SWAP2 DUP6 ADD SWAP2 SWAP1 SWAP2 MSTORE ADD SLOAD SWAP1 DUP3 ADD MSTORE SWAP1 JUMP JUMPDEST DUP1 CALLDATALOAD PUSH1 0x1 PUSH1 0x1 PUSH1 0xA0 SHL SUB DUP2 AND DUP2 EQ PUSH2 0x7D0 JUMPI PUSH0 PUSH0 REVERT JUMPDEST SWAP2 SWAP1 POP JUMP JUMPDEST PUSH0 PUSH1 0x20 DUP3 DUP5 SUB SLT ISZERO PUSH2 0x7E5 JUMPI PUSH0 PUSH0 REVERT JUMPDEST PUSH2 0x7EE DUP3 PUSH2 0x7BA JUMP JUMPDEST SWAP4 SWAP3 POP POP POP JUMP JUMPDEST PUSH0 PUSH0 PUSH0 PUSH0 PUSH1 0x80 DUP6 DUP8 SUB SLT ISZERO PUSH2 0x808 JUMPI PUSH0 PUSH0 REVERT JUMPDEST PUSH2 0x811 DUP6 PUSH2 0x7BA JUMP JUMPDEST SWAP4 POP PUSH1 0x20 DUP6 ADD CALLDATALOAD SWAP3 POP PUSH2 0x826 PUSH1 0x40 DUP7 ADD PUSH2 0x7BA JUMP JUMPDEST SWAP4 SWAP7 SWAP3 SWAP6 POP SWAP3 SWAP4 PUSH1 0x60 ADD CALLDATALOAD SWAP3 POP POP JUMP JUMPDEST PUSH4 0x4E487B71 PUSH1 0xE0 SHL PUSH0 MSTORE PUSH1 0x11 PUSH1 0x4 MSTORE PUSH1 0x24 PUSH0 REVERT JUMPDEST DUP2 DUP2 SUB DUP2 DUP2 GT ISZERO PUSH2 0x85D JUMPI PUSH2 0x85D PUSH2 0x836 JUMP JUMPDEST SWAP3 SWAP2 POP POP JUMP JUMPDEST PUSH0 PUSH1 0x20 DUP3 DUP5 SUB SLT ISZERO PUSH2 0x873 JUMPI PUSH0 PUSH0 REVERT JUMPDEST DUP2 MLOAD DUP1 ISZERO ISZERO DUP2 EQ PUSH2 0x7EE JUMPI PUSH0 PUSH0 REVERT JUMPDEST DUP1 DUP3 ADD DUP1 DUP3 GT ISZERO PUSH2 0x85D JUMPI PUSH2 0x85D PUSH2 0x836 JUMP INVALID LOG2 PUSH5 0x6970667358 0x22 SLT KECCAK256 CODECOPY 0x21 CALLDATACOPY DUP16 SHR EXTSTATICCALL 0xC2 JUMPF 0xFC3D 0xC6 0x1E SWAP11 0xE STATICCALL CREATE2 LOG4 SGT 0xF SHR SWAP4 LOG3 DUP15 EXTCODECOPY SGT DUP11 GT MCOPY PUSH3 0x183482 PUSH5 0x736F6C6343 STOP ADDMOD SAR STOP CALLER "
				},
				"gasEstimates": {
					"creation": {
						"codeDepositCost": "450200",
						"executionCost": "infinite",
						"totalCost": "infinite"
					},
					"external": {
						"dao()": "2348",
						"getLock(address)": "7088",
						"hasLocked(address)": "2594",
						"isLocked(address)": "2591",
						"lockLiquidity(address,uint256,address,uint256)": "infinite",
						"locks(address)": "6839",
						"release(address)": "infinite",
						"token()": "2412",
						"totalLocked()": "2361"
					}
				},
				"methodIdentifiers": {
					"dao()": "4162169f",
					"getLock(address)": "6b9db4e6",
					"hasLocked(address)": "d932373f",
					"isLocked(address)": "4a4fbeec",
					"lockLiquidity(address,uint256,address,uint256)": "65274982",
					"locks(address)": "5de9a137",
					"release(address)": "19165587",
					"token()": "fc0c546a",
					"totalLocked()": "56891412"
				}
			},
			"storageLayout": {
				"storage": [
					{
						"astId": 3,
						"contract": "contracts/LiquidityLocker.sol:LiquidityLocker",
						"label": "token",
						"offset": 0,
						"slot": "0",
						"type": "t_address"
					},
					{
						"astId": 5,
						"contract": "contracts/LiquidityLocker.sol:LiquidityLocker",
						"label": "dao",
						"offset": 0,
						"slot": "1",
						"type": "t_address"
					},
					{
						"astId": 17,
						"contract": "contracts/LiquidityLocker.sol:LiquidityLocker",
						"label": "locks",
						"offset": 0,
						"slot": "2",
						"type": "t_mapping(t_address,t_struct(Lock)12_storage)"
					},
					{
						"astId": 21,
						"contract": "contracts/LiquidityLocker.sol:LiquidityLocker",
						"label": "hasLocked",
						"offset": 0,
						"slot": "3",
						"type": "t_mapping(t_address,t_bool)"
					},
					{
						"astId": 23,
						"contract": "contracts/LiquidityLocker.sol:LiquidityLocker",
						"label": "totalLocked",
						"offset": 0,
						"slot": "4",
						"type": "t_uint256"
					}
				],
				"types": {
					"t_address": {
						"encoding": "inplace",
						"label": "address",
						"numberOfBytes": "20"
					},
					"t_bool": {
						"encoding": "inplace",
						"label": "bool",
						"numberOfBytes": "1"
					},
					"t_mapping(t_address,t_bool)": {
						"encoding": "mapping",
						"key": "t_address",
						"label": "mapping(address => bool)",
						"numberOfBytes": "32",
						"value": "t_bool"
					},
					"t_mapping(t_address,t_struct(Lock)12_storage)": {
						"encoding": "mapping",
						"key": "t_address",
						"label": "mapping(address => struct LiquidityLocker.Lock)",
						"numberOfBytes": "32",
						"value": "t_struct(Lock)12_storage"
					},
					"t_struct(Lock)12_storage": {
						"encoding": "inplace",
						"label": "struct LiquidityLocker.Lock",
						"members": [
							{
								"astId": 7,
								"contract": "contracts/LiquidityLocker.sol:LiquidityLocker",
								"label": "locker",
								"offset": 0,
								"slot": "0",
								"type": "t_address"
							},
							{
								"astId": 9,
								"contract": "contracts/LiquidityLocker.sol:LiquidityLocker",
								"label": "amount",
								"offset": 0,
								"slot": "1",
								"type": "t_uint256"
							},
							{
								"astId": 11,
								"contract": "contracts/LiquidityLocker.sol:LiquidityLocker",
								"label": "unlockTime",
								"offset": 0,
								"slot": "2",
								"type": "t_uint256"
							}
						],
						"numberOfBytes": "96"
					},
					"t_uint256": {
						"encoding": "inplace",
						"label": "uint256",
						"numberOfBytes": "32"
					}
				}
			},
			"userdoc": {
				"kind": "user",
				"methods": {},
				"version": 1
			}
		}
	}
}