{
	"contracts/LiquidtyLocker.sol": {
		"LiquidityLocker": {
			"abi": [
				{
					"inputs": [],
					"name": "InvalidInitialization",
					"type": "error"
				},
				{
					"inputs": [],
					"name": "NotInitializing",
					"type": "error"
				},
				{
					"inputs": [
						{
							"internalType": "address",
							"name": "owner",
							"type": "address"
						}
					],
					"name": "OwnableInvalidOwner",
					"type": "error"
				},
				{
					"inputs": [
						{
							"internalType": "address",
							"name": "account",
							"type": "address"
						}
					],
					"name": "OwnableUnauthorizedAccount",
					"type": "error"
				},
				{
					"anonymous": false,
					"inputs": [
						{
							"indexed": false,
							"internalType": "uint64",
							"name": "version",
							"type": "uint64"
						}
					],
					"name": "Initialized",
					"type": "event"
				},
				{
					"anonymous": false,
					"inputs": [
						{
							"indexed": true,
							"internalType": "address",
							"name": "previousOwner",
							"type": "address"
						},
						{
							"indexed": true,
							"internalType": "address",
							"name": "newOwner",
							"type": "address"
						}
					],
					"name": "OwnershipTransferStarted",
					"type": "event"
				},
				{
					"anonymous": false,
					"inputs": [
						{
							"indexed": true,
							"internalType": "address",
							"name": "previousOwner",
							"type": "address"
						},
						{
							"indexed": true,
							"internalType": "address",
							"name": "newOwner",
							"type": "address"
						}
					],
					"name": "OwnershipTransferred",
					"type": "event"
				},
				{
					"anonymous": false,
					"inputs": [
						{
							"indexed": true,
							"internalType": "address",
							"name": "user",
							"type": "address"
						},
						{
							"indexed": false,
							"internalType": "uint256",
							"name": "amount",
							"type": "uint256"
						},
						{
							"indexed": false,
							"internalType": "uint256",
							"name": "unlockTime",
							"type": "uint256"
						}
					],
					"name": "TokensLocked",
					"type": "event"
				},
				{
					"anonymous": false,
					"inputs": [
						{
							"indexed": true,
							"internalType": "address",
							"name": "user",
							"type": "address"
						},
						{
							"indexed": false,
							"internalType": "uint256",
							"name": "amount",
							"type": "uint256"
						}
					],
					"name": "TokensUnlocked",
					"type": "event"
				},
				{
					"inputs": [],
					"name": "acceptOwnership",
					"outputs": [],
					"stateMutability": "nonpayable",
					"type": "function"
				},
				{
					"inputs": [],
					"name": "governanceContract",
					"outputs": [
						{
							"internalType": "address",
							"name": "",
							"type": "address"
						}
					],
					"stateMutability": "view",
					"type": "function"
				},
				{
					"inputs": [
						{
							"internalType": "address",
							"name": "_token",
							"type": "address"
						},
						{
							"internalType": "address",
							"name": "_governance",
							"type": "address"
						}
					],
					"name": "initialize",
					"outputs": [],
					"stateMutability": "nonpayable",
					"type": "function"
				},
				{
					"inputs": [
						{
							"internalType": "address",
							"name": "user",
							"type": "address"
						},
						{
							"internalType": "uint256",
							"name": "amount",
							"type": "uint256"
						},
						{
							"internalType": "address",
							"name": "dex",
							"type": "address"
						},
						{
							"internalType": "uint256",
							"name": "unlockTime",
							"type": "uint256"
						}
					],
					"name": "lockForDEX",
					"outputs": [],
					"stateMutability": "nonpayable",
					"type": "function"
				},
				{
					"inputs": [
						{
							"internalType": "address",
							"name": "",
							"type": "address"
						}
					],
					"name": "locks",
					"outputs": [
						{
							"internalType": "address",
							"name": "user",
							"type": "address"
						},
						{
							"internalType": "uint256",
							"name": "amount",
							"type": "uint256"
						},
						{
							"internalType": "uint256",
							"name": "unlockTime",
							"type": "uint256"
						}
					],
					"stateMutability": "view",
					"type": "function"
				},
				{
					"inputs": [],
					"name": "owner",
					"outputs": [
						{
							"internalType": "address",
							"name": "",
							"type": "address"
						}
					],
					"stateMutability": "view",
					"type": "function"
				},
				{
					"inputs": [],
					"name": "pendingOwner",
					"outputs": [
						{
							"internalType": "address",
							"name": "",
							"type": "address"
						}
					],
					"stateMutability": "view",
					"type": "function"
				},
				{
					"inputs": [],
					"name": "renounceOwnership",
					"outputs": [],
					"stateMutability": "nonpayable",
					"type": "function"
				},
				{
					"inputs": [],
					"name": "token",
					"outputs": [
						{
							"internalType": "address",
							"name": "",
							"type": "address"
						}
					],
					"stateMutability": "view",
					"type": "function"
				},
				{
					"inputs": [
						{
							"internalType": "address",
							"name": "newOwner",
							"type": "address"
						}
					],
					"name": "transferOwnership",
					"outputs": [],
					"stateMutability": "nonpayable",
					"type": "function"
				},
				{
					"inputs": [
						{
							"internalType": "address",
							"name": "dex",
							"type": "address"
						}
					],
					"name": "unlockTokens",
					"outputs": [],
					"stateMutability": "nonpayable",
					"type": "function"
				}
			],
			"devdoc": {
				"errors": {
					"InvalidInitialization()": [
						{
							"details": "The contract is already initialized."
						}
					],
					"NotInitializing()": [
						{
							"details": "The contract is not initializing."
						}
					],
					"OwnableInvalidOwner(address)": [
						{
							"details": "The owner is not a valid owner account. (eg. `address(0)`)"
						}
					],
					"OwnableUnauthorizedAccount(address)": [
						{
							"details": "The caller account is not authorized to perform an operation."
						}
					]
				},
				"events": {
					"Initialized(uint64)": {
						"details": "Triggered when the contract has been initialized or reinitialized."
					}
				},
				"kind": "dev",
				"methods": {
					"acceptOwnership()": {
						"details": "The new owner accepts the ownership transfer."
					},
					"owner()": {
						"details": "Returns the address of the current owner."
					},
					"pendingOwner()": {
						"details": "Returns the address of the pending owner."
					},
					"renounceOwnership()": {
						"details": "Leaves the contract without owner. It will not be possible to call `onlyOwner` functions. Can only be called by the current owner. NOTE: Renouncing ownership will leave the contract without an owner, thereby disabling any functionality that is only available to the owner."
					},
					"transferOwnership(address)": {
						"details": "Starts the ownership transfer of the contract to a new account. Replaces the pending transfer if there is one. Can only be called by the current owner. Setting `newOwner` to the zero address is allowed; this can be used to cancel an initiated ownership transfer."
					}
				},
				"version": 1
			},
			"evm": {
				"assembly": "    /* \"contracts/LiquidtyLocker.sol\":303:2121  contract LiquidityLocker is Initializable, Ownable2StepUpgradeable {... */\n  mstore(0x40, 0x80)\n  callvalue\n  dup1\n  iszero\n  tag_1\n  jumpi\n  0x00\n  dup1\n  revert\ntag_1:\n  pop\n  dataSize(sub_0)\n  dup1\n  dataOffset(sub_0)\n  0x00\n  codecopy\n  0x00\n  return\nstop\n\nsub_0: assembly {\n        /* \"contracts/LiquidtyLocker.sol\":303:2121  contract LiquidityLocker is Initializable, Ownable2StepUpgradeable {... */\n      mstore(0x40, 0x80)\n      callvalue\n      dup1\n      iszero\n      tag_1\n      jumpi\n      0x00\n      dup1\n      revert\n    tag_1:\n      pop\n      jumpi(tag_2, lt(calldatasize, 0x04))\n      shr(0xe0, calldataload(0x00))\n      dup1\n      0x8da5cb5b\n      gt\n      tag_14\n      jumpi\n      dup1\n      0x8da5cb5b\n      eq\n      tag_8\n      jumpi\n      dup1\n      0xb172b222\n      eq\n      tag_9\n      jumpi\n      dup1\n      0xcb67f948\n      eq\n      tag_10\n      jumpi\n      dup1\n      0xe30c3978\n      eq\n      tag_11\n      jumpi\n      dup1\n      0xf2fde38b\n      eq\n      tag_12\n      jumpi\n      dup1\n      0xfc0c546a\n      eq\n      tag_13\n      jumpi\n      0x00\n      dup1\n      revert\n    tag_14:\n      dup1\n      0x40678be4\n      eq\n      tag_3\n      jumpi\n      dup1\n      0x485cc955\n      eq\n      tag_4\n      jumpi\n      dup1\n      0x5de9a137\n      eq\n      tag_5\n      jumpi\n      dup1\n      0x715018a6\n      eq\n      tag_6\n      jumpi\n      dup1\n      0x79ba5097\n      eq\n      tag_7\n      jumpi\n    tag_2:\n      0x00\n      dup1\n      revert\n        /* \"contracts/LiquidtyLocker.sol\":1248:1705  function lockForDEX(address user, uint256 amount, address dex, uint256 unlockTime) external onlyDAO {... */\n    tag_3:\n      tag_15\n      tag_16\n      calldatasize\n      0x04\n      tag_17\n      jump\t// in\n    tag_16:\n      tag_18\n      jump\t// in\n    tag_15:\n      stop\n        /* \"contracts/LiquidtyLocker.sol\":867:1240  function initialize(address _token, address _governance) public initializer {... */\n    tag_4:\n      tag_15\n      tag_20\n      calldatasize\n      0x04\n      tag_21\n      jump\t// in\n    tag_20:\n      tag_22\n      jump\t// in\n        /* \"contracts/LiquidtyLocker.sol\":551:588  mapping(address => Lock) public locks */\n    tag_5:\n      tag_23\n      tag_24\n      calldatasize\n      0x04\n      tag_25\n      jump\t// in\n    tag_24:\n      0x02\n      0x20\n      dup2\n      swap1\n      mstore\n      0x00\n      swap2\n      dup3\n      mstore\n      0x40\n      swap1\n      swap2\n      keccak256\n      dup1\n      sload\n      0x01\n      dup3\n      add\n      sload\n      swap2\n      swap1\n      swap3\n      add\n      sload\n      sub(shl(0xa0, 0x01), 0x01)\n      swap1\n      swap3\n      and\n      swap2\n      dup4\n      jump\n    tag_23:\n      0x40\n      dup1\n      mload\n      sub(shl(0xa0, 0x01), 0x01)\n        /* \"#utility.yul\":1270:1302   */\n      swap1\n      swap5\n      and\n        /* \"#utility.yul\":1252:1303   */\n      dup5\n      mstore\n        /* \"#utility.yul\":1334:1336   */\n      0x20\n        /* \"#utility.yul\":1319:1337   */\n      dup5\n      add\n        /* \"#utility.yul\":1312:1346   */\n      swap3\n      swap1\n      swap3\n      mstore\n        /* \"#utility.yul\":1362:1380   */\n      swap1\n      dup3\n      add\n        /* \"#utility.yul\":1355:1389   */\n      mstore\n        /* \"#utility.yul\":1240:1242   */\n      0x60\n        /* \"#utility.yul\":1225:1243   */\n      add\n        /* \"contracts/LiquidtyLocker.sol\":551:588  mapping(address => Lock) public locks */\n    tag_27:\n      mload(0x40)\n      dup1\n      swap2\n      sub\n      swap1\n      return\n        /* \"@openzeppelin/contracts-upgradeable/access/OwnableUpgradeable.sol\":3155:3256  function renounceOwnership() public virtual onlyOwner {... */\n    tag_6:\n      tag_15\n      tag_30\n      jump\t// in\n        /* \"@openzeppelin/contracts-upgradeable/access/Ownable2StepUpgradeable.sol\":3257:3486  function acceptOwnership() public virtual {... */\n    tag_7:\n      tag_15\n      tag_32\n      jump\t// in\n        /* \"@openzeppelin/contracts-upgradeable/access/OwnableUpgradeable.sol\":2441:2585  function owner() public view virtual returns (address) {... */\n    tag_8:\n      tag_33\n      tag_34\n      jump\t// in\n    tag_33:\n      mload(0x40)\n      sub(shl(0xa0, 0x01), 0x01)\n        /* \"#utility.yul\":1564:1596   */\n      swap1\n      swap2\n      and\n        /* \"#utility.yul\":1546:1597   */\n      dup2\n      mstore\n        /* \"#utility.yul\":1534:1536   */\n      0x20\n        /* \"#utility.yul\":1519:1537   */\n      add\n        /* \"@openzeppelin/contracts-upgradeable/access/OwnableUpgradeable.sol\":2441:2585  function owner() public view virtual returns (address) {... */\n      tag_27\n        /* \"#utility.yul\":1400:1603   */\n      jump\n        /* \"contracts/LiquidtyLocker.sol\":404:437  address public governanceContract */\n    tag_9:\n      sload(0x01)\n      tag_33\n      swap1\n      sub(shl(0xa0, 0x01), 0x01)\n      and\n      dup2\n      jump\n        /* \"contracts/LiquidtyLocker.sol\":1713:2118  function unlockTokens(address dex) external {... */\n    tag_10:\n      tag_15\n      tag_41\n      calldatasize\n      0x04\n      tag_25\n      jump\t// in\n    tag_41:\n      tag_42\n      jump\t// in\n        /* \"@openzeppelin/contracts-upgradeable/access/Ownable2StepUpgradeable.sol\":2038:2206  function pendingOwner() public view virtual returns (address) {... */\n    tag_11:\n      tag_33\n      tag_44\n      jump\t// in\n        /* \"@openzeppelin/contracts-upgradeable/access/Ownable2StepUpgradeable.sol\":2524:2771  function transferOwnership(address newOwner) public virtual override onlyOwner {... */\n    tag_12:\n      tag_15\n      tag_47\n      calldatasize\n      0x04\n      tag_25\n      jump\t// in\n    tag_47:\n      tag_48\n      jump\t// in\n        /* \"contracts/LiquidtyLocker.sol\":377:397  address public token */\n    tag_13:\n      sload(0x00)\n      tag_33\n      swap1\n      sub(shl(0xa0, 0x01), 0x01)\n      and\n      dup2\n      jump\n        /* \"contracts/LiquidtyLocker.sol\":1248:1705  function lockForDEX(address user, uint256 amount, address dex, uint256 unlockTime) external onlyDAO {... */\n    tag_18:\n        /* \"contracts/LiquidtyLocker.sol\":799:817  governanceContract */\n      and(sub(shl(0xa0, 0x01), 0x01), sload(0x01))\n        /* \"contracts/LiquidtyLocker.sol\":785:795  msg.sender */\n      caller\n        /* \"contracts/LiquidtyLocker.sol\":785:817  msg.sender == governanceContract */\n      eq\n        /* \"contracts/LiquidtyLocker.sol\":777:839  require(msg.sender == governanceContract, \"Only DAO can call\") */\n      tag_53\n      jumpi\n      mload(0x40)\n      shl(0xe5, 0x461bcd)\n      dup2\n      mstore\n        /* \"#utility.yul\":1810:1812   */\n      0x20\n        /* \"contracts/LiquidtyLocker.sol\":777:839  require(msg.sender == governanceContract, \"Only DAO can call\") */\n      0x04\n      dup3\n      add\n        /* \"#utility.yul\":1792:1813   */\n      mstore\n        /* \"#utility.yul\":1849:1851   */\n      0x11\n        /* \"#utility.yul\":1829:1847   */\n      0x24\n      dup3\n      add\n        /* \"#utility.yul\":1822:1852   */\n      mstore\n      shl(0x7a, 0x13db9b1e48111053c818d85b8818d85b1b)\n        /* \"#utility.yul\":1868:1886   */\n      0x44\n      dup3\n      add\n        /* \"#utility.yul\":1861:1908   */\n      mstore\n        /* \"#utility.yul\":1925:1943   */\n      0x64\n      add\n        /* \"contracts/LiquidtyLocker.sol\":777:839  require(msg.sender == governanceContract, \"Only DAO can call\") */\n    tag_54:\n      mload(0x40)\n      dup1\n      swap2\n      sub\n      swap1\n      revert\n    tag_53:\n        /* \"contracts/LiquidtyLocker.sol\":1376:1377  0 */\n      0x00\n        /* \"contracts/LiquidtyLocker.sol\":1367:1373  amount */\n      dup4\n        /* \"contracts/LiquidtyLocker.sol\":1367:1377  amount > 0 */\n      gt\n        /* \"contracts/LiquidtyLocker.sol\":1359:1411  require(amount > 0, \"Amount must be greater than 0\") */\n      tag_57\n      jumpi\n      mload(0x40)\n      shl(0xe5, 0x461bcd)\n      dup2\n      mstore\n        /* \"#utility.yul\":2156:2158   */\n      0x20\n        /* \"contracts/LiquidtyLocker.sol\":1359:1411  require(amount > 0, \"Amount must be greater than 0\") */\n      0x04\n      dup3\n      add\n        /* \"#utility.yul\":2138:2159   */\n      mstore\n        /* \"#utility.yul\":2195:2197   */\n      0x1d\n        /* \"#utility.yul\":2175:2193   */\n      0x24\n      dup3\n      add\n        /* \"#utility.yul\":2168:2198   */\n      mstore\n        /* \"#utility.yul\":2234:2265   */\n      0x416d6f756e74206d7573742062652067726561746572207468616e2030000000\n        /* \"#utility.yul\":2214:2232   */\n      0x44\n      dup3\n      add\n        /* \"#utility.yul\":2207:2266   */\n      mstore\n        /* \"#utility.yul\":2283:2301   */\n      0x64\n      add\n        /* \"contracts/LiquidtyLocker.sol\":1359:1411  require(amount > 0, \"Amount must be greater than 0\") */\n      tag_54\n        /* \"#utility.yul\":1954:2307   */\n      jump\n        /* \"contracts/LiquidtyLocker.sol\":1359:1411  require(amount > 0, \"Amount must be greater than 0\") */\n    tag_57:\n        /* \"contracts/LiquidtyLocker.sol\":1443:1458  block.timestamp */\n      timestamp\n        /* \"contracts/LiquidtyLocker.sol\":1430:1440  unlockTime */\n      dup2\n        /* \"contracts/LiquidtyLocker.sol\":1430:1458  unlockTime > block.timestamp */\n      gt\n        /* \"contracts/LiquidtyLocker.sol\":1422:1482  require(unlockTime > block.timestamp, \"Invalid unlock time\") */\n      tag_60\n      jumpi\n      mload(0x40)\n      shl(0xe5, 0x461bcd)\n      dup2\n      mstore\n        /* \"#utility.yul\":2514:2516   */\n      0x20\n        /* \"contracts/LiquidtyLocker.sol\":1422:1482  require(unlockTime > block.timestamp, \"Invalid unlock time\") */\n      0x04\n      dup3\n      add\n        /* \"#utility.yul\":2496:2517   */\n      mstore\n        /* \"#utility.yul\":2553:2555   */\n      0x13\n        /* \"#utility.yul\":2533:2551   */\n      0x24\n      dup3\n      add\n        /* \"#utility.yul\":2526:2556   */\n      mstore\n      shl(0x68, 0x496e76616c696420756e6c6f636b2074696d65)\n        /* \"#utility.yul\":2572:2590   */\n      0x44\n      dup3\n      add\n        /* \"#utility.yul\":2565:2614   */\n      mstore\n        /* \"#utility.yul\":2631:2649   */\n      0x64\n      add\n        /* \"contracts/LiquidtyLocker.sol\":1422:1482  require(unlockTime > block.timestamp, \"Invalid unlock time\") */\n      tag_54\n        /* \"#utility.yul\":2312:2655   */\n      jump\n        /* \"contracts/LiquidtyLocker.sol\":1422:1482  require(unlockTime > block.timestamp, \"Invalid unlock time\") */\n    tag_60:\n        /* \"contracts/LiquidtyLocker.sol\":1519:1524  token */\n      sload(0x00)\n        /* \"contracts/LiquidtyLocker.sol\":1501:1567  IERC20Upgradeable(token).transferFrom(user, address(this), amount) */\n      mload(0x40)\n      shl(0xe0, 0x23b872dd)\n      dup2\n      mstore\n      sub(shl(0xa0, 0x01), 0x01)\n        /* \"#utility.yul\":2918:2933   */\n      dup7\n      dup2\n      and\n        /* \"contracts/LiquidtyLocker.sol\":1501:1567  IERC20Upgradeable(token).transferFrom(user, address(this), amount) */\n      0x04\n      dup4\n      add\n        /* \"#utility.yul\":2900:2934   */\n      mstore\n        /* \"contracts/LiquidtyLocker.sol\":1553:1557  this */\n      address\n        /* \"#utility.yul\":2950:2968   */\n      0x24\n      dup4\n      add\n        /* \"#utility.yul\":2943:2986   */\n      mstore\n        /* \"#utility.yul\":3002:3020   */\n      0x44\n      dup3\n      add\n        /* \"#utility.yul\":2995:3029   */\n      dup7\n      swap1\n      mstore\n        /* \"contracts/LiquidtyLocker.sol\":1519:1524  token */\n      swap1\n      swap2\n      and\n      swap1\n        /* \"contracts/LiquidtyLocker.sol\":1501:1538  IERC20Upgradeable(token).transferFrom */\n      0x23b872dd\n      swap1\n        /* \"#utility.yul\":2835:2853   */\n      0x64\n      add\n        /* \"contracts/LiquidtyLocker.sol\":1501:1567  IERC20Upgradeable(token).transferFrom(user, address(this), amount) */\n      0x20\n      mload(0x40)\n      dup1\n      dup4\n      sub\n      dup2\n      0x00\n      dup8\n      gas\n      call\n      iszero\n      dup1\n      iszero\n      tag_66\n      jumpi\n      returndatasize\n      0x00\n      dup1\n      returndatacopy\n      revert(0x00, returndatasize)\n    tag_66:\n      pop\n      pop\n      pop\n      pop\n      mload(0x40)\n      returndatasize\n      not(0x1f)\n      0x1f\n      dup3\n      add\n      and\n      dup3\n      add\n      dup1\n      0x40\n      mstore\n      pop\n      dup2\n      add\n      swap1\n      tag_67\n      swap2\n      swap1\n      tag_68\n      jump\t// in\n    tag_67:\n        /* \"contracts/LiquidtyLocker.sol\":1493:1587  require(IERC20Upgradeable(token).transferFrom(user, address(this), amount), \"Transfer failed\") */\n      tag_69\n      jumpi\n      mload(0x40)\n      shl(0xe5, 0x461bcd)\n      dup2\n      mstore\n        /* \"#utility.yul\":3524:3526   */\n      0x20\n        /* \"contracts/LiquidtyLocker.sol\":1493:1587  require(IERC20Upgradeable(token).transferFrom(user, address(this), amount), \"Transfer failed\") */\n      0x04\n      dup3\n      add\n        /* \"#utility.yul\":3506:3527   */\n      mstore\n        /* \"#utility.yul\":3563:3565   */\n      0x0f\n        /* \"#utility.yul\":3543:3561   */\n      0x24\n      dup3\n      add\n        /* \"#utility.yul\":3536:3566   */\n      mstore\n      shl(0x8a, 0x151c985b9cd9995c8819985a5b1959)\n        /* \"#utility.yul\":3582:3600   */\n      0x44\n      dup3\n      add\n        /* \"#utility.yul\":3575:3620   */\n      mstore\n        /* \"#utility.yul\":3637:3655   */\n      0x64\n      add\n        /* \"contracts/LiquidtyLocker.sol\":1493:1587  require(IERC20Upgradeable(token).transferFrom(user, address(this), amount), \"Transfer failed\") */\n      tag_54\n        /* \"#utility.yul\":3322:3661   */\n      jump\n        /* \"contracts/LiquidtyLocker.sol\":1493:1587  require(IERC20Upgradeable(token).transferFrom(user, address(this), amount), \"Transfer failed\") */\n    tag_69:\n        /* \"contracts/LiquidtyLocker.sol\":1613:1643  Lock(user, amount, unlockTime) */\n      0x40\n      dup1\n      mload\n      0x60\n      dup2\n      add\n      dup3\n      mstore\n      sub(shl(0xa0, 0x01), 0x01)\n      dup7\n      dup2\n      and\n      dup1\n      dup4\n      mstore\n      0x20\n      dup1\n      dup5\n      add\n      dup9\n      dup2\n      mstore\n      dup5\n      dup7\n      add\n      dup8\n      dup2\n      mstore\n        /* \"contracts/LiquidtyLocker.sol\":1600:1610  locks[dex] */\n      dup9\n      dup6\n      and\n      0x00\n      swap1\n      dup2\n      mstore\n        /* \"contracts/LiquidtyLocker.sol\":1600:1605  locks */\n      0x02\n        /* \"contracts/LiquidtyLocker.sol\":1600:1610  locks[dex] */\n      dup1\n      dup6\n      mstore\n      swap1\n      dup9\n      swap1\n      keccak256\n        /* \"contracts/LiquidtyLocker.sol\":1600:1643  locks[dex] = Lock(user, amount, unlockTime) */\n      swap7\n      mload\n      dup8\n      sload\n      not(sub(shl(0xa0, 0x01), 0x01))\n      and\n      swap7\n      and\n      swap6\n      swap1\n      swap6\n      or\n      dup7\n      sstore\n      swap1\n      mload\n      0x01\n      dup7\n      add\n      sstore\n      mload\n      swap4\n      swap1\n      swap3\n      add\n      swap3\n      swap1\n      swap3\n      sstore\n        /* \"contracts/LiquidtyLocker.sol\":1659:1697  TokensLocked(user, amount, unlockTime) */\n      dup3\n      mload\n        /* \"#utility.yul\":3840:3865   */\n      dup7\n      dup2\n      mstore\n        /* \"#utility.yul\":3881:3899   */\n      swap1\n      dup2\n      add\n        /* \"#utility.yul\":3874:3908   */\n      dup5\n      swap1\n      mstore\n        /* \"contracts/LiquidtyLocker.sol\":1613:1643  Lock(user, amount, unlockTime) */\n      swap1\n      swap2\n        /* \"contracts/LiquidtyLocker.sol\":1659:1697  TokensLocked(user, amount, unlockTime) */\n      0xd741e738a23fd18a03a26522320d9fc6cac1fed483e215ea9150fbc2fc43385d\n      swap2\n        /* \"#utility.yul\":3813:3831   */\n      add\n        /* \"contracts/LiquidtyLocker.sol\":1659:1697  TokensLocked(user, amount, unlockTime) */\n      mload(0x40)\n      dup1\n      swap2\n      sub\n      swap1\n      log2\n        /* \"contracts/LiquidtyLocker.sol\":1248:1705  function lockForDEX(address user, uint256 amount, address dex, uint256 unlockTime) external onlyDAO {... */\n      pop\n      pop\n      pop\n      pop\n      jump\t// out\n        /* \"contracts/LiquidtyLocker.sol\":867:1240  function initialize(address _token, address _governance) public initializer {... */\n    tag_22:\n        /* \"@openzeppelin/contracts-upgradeable/proxy/utils/Initializable.sol\":3147:3213  0xf0c57e16840df040f15088dc2f81fe391c3923bec73e23a9662efc9c229c6a00 */\n      0xf0c57e16840df040f15088dc2f81fe391c3923bec73e23a9662efc9c229c6a00\n        /* \"@openzeppelin/contracts-upgradeable/proxy/utils/Initializable.sol\":4302:4317  $._initializing */\n      dup1\n      sload\n      shl(0x40, 0x01)\n      dup2\n      div\n      0xff\n      and\n        /* \"@openzeppelin/contracts-upgradeable/proxy/utils/Initializable.sol\":4301:4317  !$._initializing */\n      iszero\n      swap1\n        /* \"@openzeppelin/contracts-upgradeable/proxy/utils/Initializable.sol\":4348:4362  $._initialized */\n      0xffffffffffffffff\n      and\n        /* \"@openzeppelin/contracts-upgradeable/proxy/utils/Initializable.sol\":4158:4188  InitializableStorage storage $ */\n      0x00\n        /* \"@openzeppelin/contracts-upgradeable/proxy/utils/Initializable.sol\":4724:4740  initialized == 0 */\n      dup2\n      iszero\n        /* \"@openzeppelin/contracts-upgradeable/proxy/utils/Initializable.sol\":4724:4758  initialized == 0 && isTopLevelCall */\n      dup1\n      iszero\n      tag_77\n      jumpi\n      pop\n        /* \"@openzeppelin/contracts-upgradeable/proxy/utils/Initializable.sol\":4744:4758  isTopLevelCall */\n      dup3\n        /* \"@openzeppelin/contracts-upgradeable/proxy/utils/Initializable.sol\":4724:4758  initialized == 0 && isTopLevelCall */\n    tag_77:\n        /* \"@openzeppelin/contracts-upgradeable/proxy/utils/Initializable.sol\":4704:4758  bool initialSetup = initialized == 0 && isTopLevelCall */\n      swap1\n      pop\n        /* \"@openzeppelin/contracts-upgradeable/proxy/utils/Initializable.sol\":4768:4785  bool construction */\n      0x00\n        /* \"@openzeppelin/contracts-upgradeable/proxy/utils/Initializable.sol\":4788:4799  initialized */\n      dup3\n        /* \"@openzeppelin/contracts-upgradeable/proxy/utils/Initializable.sol\":4788:4804  initialized == 1 */\n      0xffffffffffffffff\n      and\n        /* \"@openzeppelin/contracts-upgradeable/proxy/utils/Initializable.sol\":4803:4804  1 */\n      0x01\n        /* \"@openzeppelin/contracts-upgradeable/proxy/utils/Initializable.sol\":4788:4804  initialized == 1 */\n      eq\n        /* \"@openzeppelin/contracts-upgradeable/proxy/utils/Initializable.sol\":4788:4838  initialized == 1 && address(this).code.length == 0 */\n      dup1\n      iszero\n      tag_78\n      jumpi\n      pop\n        /* \"@openzeppelin/contracts-upgradeable/proxy/utils/Initializable.sol\":4816:4820  this */\n      address\n        /* \"@openzeppelin/contracts-upgradeable/proxy/utils/Initializable.sol\":4808:4833  address(this).code.length */\n      extcodesize\n        /* \"@openzeppelin/contracts-upgradeable/proxy/utils/Initializable.sol\":4808:4838  address(this).code.length == 0 */\n      iszero\n        /* \"@openzeppelin/contracts-upgradeable/proxy/utils/Initializable.sol\":4788:4838  initialized == 1 && address(this).code.length == 0 */\n    tag_78:\n        /* \"@openzeppelin/contracts-upgradeable/proxy/utils/Initializable.sol\":4768:4838  bool construction = initialized == 1 && address(this).code.length == 0 */\n      swap1\n      pop\n        /* \"@openzeppelin/contracts-upgradeable/proxy/utils/Initializable.sol\":4854:4866  initialSetup */\n      dup2\n        /* \"@openzeppelin/contracts-upgradeable/proxy/utils/Initializable.sol\":4853:4866  !initialSetup */\n      iszero\n        /* \"@openzeppelin/contracts-upgradeable/proxy/utils/Initializable.sol\":4853:4883  !initialSetup && !construction */\n      dup1\n      iszero\n      tag_79\n      jumpi\n      pop\n        /* \"@openzeppelin/contracts-upgradeable/proxy/utils/Initializable.sol\":4871:4883  construction */\n      dup1\n        /* \"@openzeppelin/contracts-upgradeable/proxy/utils/Initializable.sol\":4870:4883  !construction */\n      iszero\n        /* \"@openzeppelin/contracts-upgradeable/proxy/utils/Initializable.sol\":4853:4883  !initialSetup && !construction */\n    tag_79:\n        /* \"@openzeppelin/contracts-upgradeable/proxy/utils/Initializable.sol\":4849:4940  if (!initialSetup && !construction) {... */\n      iszero\n      tag_80\n      jumpi\n        /* \"@openzeppelin/contracts-upgradeable/proxy/utils/Initializable.sol\":4906:4929  InvalidInitialization() */\n      mload(0x40)\n      shl(0xe0, 0xf92ee8a9)\n      dup2\n      mstore\n      0x04\n      add\n      mload(0x40)\n      dup1\n      swap2\n      sub\n      swap1\n      revert\n        /* \"@openzeppelin/contracts-upgradeable/proxy/utils/Initializable.sol\":4849:4940  if (!initialSetup && !construction) {... */\n    tag_80:\n        /* \"@openzeppelin/contracts-upgradeable/proxy/utils/Initializable.sol\":4949:4967  $._initialized = 1 */\n      dup5\n      sload\n      not(0xffffffffffffffff)\n      and\n        /* \"@openzeppelin/contracts-upgradeable/proxy/utils/Initializable.sol\":4966:4967  1 */\n      0x01\n        /* \"@openzeppelin/contracts-upgradeable/proxy/utils/Initializable.sol\":4949:4967  $._initialized = 1 */\n      or\n      dup6\n      sstore\n        /* \"@openzeppelin/contracts-upgradeable/proxy/utils/Initializable.sol\":4977:5044  if (isTopLevelCall) {... */\n      dup4\n      iszero\n      tag_81\n      jumpi\n        /* \"@openzeppelin/contracts-upgradeable/proxy/utils/Initializable.sol\":5011:5033  $._initializing = true */\n      dup5\n      sload\n      not(shl(0x40, 0xff))\n      and\n      shl(0x40, 0x01)\n      or\n      dup6\n      sstore\n        /* \"@openzeppelin/contracts-upgradeable/proxy/utils/Initializable.sol\":4977:5044  if (isTopLevelCall) {... */\n    tag_81:\n      sub(shl(0xa0, 0x01), 0x01)\n        /* \"contracts/LiquidtyLocker.sol\":962:982  _token != address(0) */\n      dup8\n      and\n        /* \"contracts/LiquidtyLocker.sol\":954:1008  require(_token != address(0), \"Invalid token address\") */\n      tag_83\n      jumpi\n      mload(0x40)\n      shl(0xe5, 0x461bcd)\n      dup2\n      mstore\n        /* \"#utility.yul\":4121:4123   */\n      0x20\n        /* \"contracts/LiquidtyLocker.sol\":954:1008  require(_token != address(0), \"Invalid token address\") */\n      0x04\n      dup3\n      add\n        /* \"#utility.yul\":4103:4124   */\n      mstore\n        /* \"#utility.yul\":4160:4162   */\n      0x15\n        /* \"#utility.yul\":4140:4158   */\n      0x24\n      dup3\n      add\n        /* \"#utility.yul\":4133:4163   */\n      mstore\n      shl(0x58, 0x496e76616c696420746f6b656e2061646472657373)\n        /* \"#utility.yul\":4179:4197   */\n      0x44\n      dup3\n      add\n        /* \"#utility.yul\":4172:4223   */\n      mstore\n        /* \"#utility.yul\":4240:4258   */\n      0x64\n      add\n        /* \"contracts/LiquidtyLocker.sol\":954:1008  require(_token != address(0), \"Invalid token address\") */\n      tag_54\n        /* \"#utility.yul\":3919:4264   */\n      jump\n        /* \"contracts/LiquidtyLocker.sol\":954:1008  require(_token != address(0), \"Invalid token address\") */\n    tag_83:\n      sub(shl(0xa0, 0x01), 0x01)\n        /* \"contracts/LiquidtyLocker.sol\":1027:1052  _governance != address(0) */\n      dup7\n      and\n        /* \"contracts/LiquidtyLocker.sol\":1019:1083  require(_governance != address(0), \"Invalid governance address\") */\n      tag_86\n      jumpi\n      mload(0x40)\n      shl(0xe5, 0x461bcd)\n      dup2\n      mstore\n        /* \"#utility.yul\":4471:4473   */\n      0x20\n        /* \"contracts/LiquidtyLocker.sol\":1019:1083  require(_governance != address(0), \"Invalid governance address\") */\n      0x04\n      dup3\n      add\n        /* \"#utility.yul\":4453:4474   */\n      mstore\n        /* \"#utility.yul\":4510:4512   */\n      0x1a\n        /* \"#utility.yul\":4490:4508   */\n      0x24\n      dup3\n      add\n        /* \"#utility.yul\":4483:4513   */\n      mstore\n        /* \"#utility.yul\":4549:4577   */\n      0x496e76616c696420676f7665726e616e63652061646472657373000000000000\n        /* \"#utility.yul\":4529:4547   */\n      0x44\n      dup3\n      add\n        /* \"#utility.yul\":4522:4578   */\n      mstore\n        /* \"#utility.yul\":4595:4613   */\n      0x64\n      add\n        /* \"contracts/LiquidtyLocker.sol\":1019:1083  require(_governance != address(0), \"Invalid governance address\") */\n      tag_54\n        /* \"#utility.yul\":4269:4619   */\n      jump\n        /* \"contracts/LiquidtyLocker.sol\":1019:1083  require(_governance != address(0), \"Invalid governance address\") */\n    tag_86:\n        /* \"contracts/LiquidtyLocker.sol\":1094:1115  __Ownable2Step_init() */\n      tag_89\n        /* \"contracts/LiquidtyLocker.sol\":1094:1113  __Ownable2Step_init */\n      tag_90\n        /* \"contracts/LiquidtyLocker.sol\":1094:1115  __Ownable2Step_init() */\n      jump\t// in\n    tag_89:\n        /* \"contracts/LiquidtyLocker.sol\":1126:1131  token */\n      0x00\n        /* \"contracts/LiquidtyLocker.sol\":1126:1140  token = _token */\n      dup1\n      sload\n      sub(shl(0xa0, 0x01), 0x01)\n      dup1\n      dup11\n      and\n      not(sub(shl(0xa0, 0x01), 0x01))\n      swap3\n      dup4\n      and\n      or\n      swap1\n      swap3\n      sstore\n      0x01\n        /* \"contracts/LiquidtyLocker.sol\":1151:1183  governanceContract = _governance */\n      dup1\n      sload\n      swap3\n      dup10\n      and\n      swap3\n      swap1\n      swap2\n      and\n      dup3\n      or\n      swap1\n      sstore\n        /* \"contracts/LiquidtyLocker.sol\":1194:1232  _transferOwnership(governanceContract) */\n      tag_91\n      swap1\n        /* \"contracts/LiquidtyLocker.sol\":1194:1212  _transferOwnership */\n      tag_92\n        /* \"contracts/LiquidtyLocker.sol\":1194:1232  _transferOwnership(governanceContract) */\n      jump\t// in\n    tag_91:\n        /* \"@openzeppelin/contracts-upgradeable/proxy/utils/Initializable.sol\":5068:5082  isTopLevelCall */\n      dup4\n        /* \"@openzeppelin/contracts-upgradeable/proxy/utils/Initializable.sol\":5064:5165  if (isTopLevelCall) {... */\n      iszero\n      tag_93\n      jumpi\n        /* \"@openzeppelin/contracts-upgradeable/proxy/utils/Initializable.sol\":5098:5121  $._initializing = false */\n      dup5\n      sload\n      not(shl(0x40, 0xff))\n      and\n      dup6\n      sstore\n        /* \"@openzeppelin/contracts-upgradeable/proxy/utils/Initializable.sol\":5140:5154  Initialized(1) */\n      mload(0x40)\n      0x01\n        /* \"#utility.yul\":4777:4827   */\n      dup2\n      mstore\n        /* \"@openzeppelin/contracts-upgradeable/proxy/utils/Initializable.sol\":5140:5154  Initialized(1) */\n      0xc7f505b2f371ae2175ee4913f4499e1f2633a7b5936321eed1cdaeb6115181d2\n      swap1\n        /* \"#utility.yul\":4765:4767   */\n      0x20\n        /* \"#utility.yul\":4750:4768   */\n      add\n        /* \"@openzeppelin/contracts-upgradeable/proxy/utils/Initializable.sol\":5140:5154  Initialized(1) */\n      mload(0x40)\n      dup1\n      swap2\n      sub\n      swap1\n      log1\n        /* \"@openzeppelin/contracts-upgradeable/proxy/utils/Initializable.sol\":5064:5165  if (isTopLevelCall) {... */\n    tag_93:\n        /* \"@openzeppelin/contracts-upgradeable/proxy/utils/Initializable.sol\":4092:5171  {... */\n      pop\n      pop\n      pop\n      pop\n      pop\n        /* \"contracts/LiquidtyLocker.sol\":867:1240  function initialize(address _token, address _governance) public initializer {... */\n      pop\n      pop\n      jump\t// out\n        /* \"@openzeppelin/contracts-upgradeable/access/OwnableUpgradeable.sol\":3155:3256  function renounceOwnership() public virtual onlyOwner {... */\n    tag_30:\n        /* \"@openzeppelin/contracts-upgradeable/access/OwnableUpgradeable.sol\":2334:2347  _checkOwner() */\n      tag_97\n        /* \"@openzeppelin/contracts-upgradeable/access/OwnableUpgradeable.sol\":2334:2345  _checkOwner */\n      tag_98\n        /* \"@openzeppelin/contracts-upgradeable/access/OwnableUpgradeable.sol\":2334:2347  _checkOwner() */\n      jump\t// in\n    tag_97:\n        /* \"@openzeppelin/contracts-upgradeable/access/OwnableUpgradeable.sol\":3219:3249  _transferOwnership(address(0)) */\n      tag_100\n        /* \"@openzeppelin/contracts-upgradeable/access/OwnableUpgradeable.sol\":3246:3247  0 */\n      0x00\n        /* \"@openzeppelin/contracts-upgradeable/access/OwnableUpgradeable.sol\":3219:3237  _transferOwnership */\n      tag_92\n        /* \"@openzeppelin/contracts-upgradeable/access/OwnableUpgradeable.sol\":3219:3249  _transferOwnership(address(0)) */\n      jump\t// in\n    tag_100:\n        /* \"@openzeppelin/contracts-upgradeable/access/OwnableUpgradeable.sol\":3155:3256  function renounceOwnership() public virtual onlyOwner {... */\n      jump\t// out\n        /* \"@openzeppelin/contracts-upgradeable/access/Ownable2StepUpgradeable.sol\":3257:3486  function acceptOwnership() public virtual {... */\n    tag_32:\n        /* \"@openzeppelin/contracts-upgradeable/utils/ContextUpgradeable.sol\":966:976  msg.sender */\n      caller\n      dup1\n        /* \"@openzeppelin/contracts-upgradeable/access/Ownable2StepUpgradeable.sol\":3352:3366  pendingOwner() */\n      tag_104\n        /* \"@openzeppelin/contracts-upgradeable/access/Ownable2StepUpgradeable.sol\":3352:3364  pendingOwner */\n      tag_44\n        /* \"@openzeppelin/contracts-upgradeable/access/Ownable2StepUpgradeable.sol\":3352:3366  pendingOwner() */\n      jump\t// in\n    tag_104:\n      sub(shl(0xa0, 0x01), 0x01)\n        /* \"@openzeppelin/contracts-upgradeable/access/Ownable2StepUpgradeable.sol\":3352:3376  pendingOwner() != sender */\n      and\n      eq\n        /* \"@openzeppelin/contracts-upgradeable/access/Ownable2StepUpgradeable.sol\":3348:3444  if (pendingOwner() != sender) {... */\n      tag_105\n      jumpi\n        /* \"@openzeppelin/contracts-upgradeable/access/Ownable2StepUpgradeable.sol\":3399:3433  OwnableUnauthorizedAccount(sender) */\n      mload(0x40)\n      shl(0xe0, 0x118cdaa7)\n      dup2\n      mstore\n      sub(shl(0xa0, 0x01), 0x01)\n        /* \"#utility.yul\":1564:1596   */\n      dup3\n      and\n        /* \"@openzeppelin/contracts-upgradeable/access/Ownable2StepUpgradeable.sol\":3399:3433  OwnableUnauthorizedAccount(sender) */\n      0x04\n      dup3\n      add\n        /* \"#utility.yul\":1546:1597   */\n      mstore\n        /* \"#utility.yul\":1519:1537   */\n      0x24\n      add\n        /* \"@openzeppelin/contracts-upgradeable/access/Ownable2StepUpgradeable.sol\":3399:3433  OwnableUnauthorizedAccount(sender) */\n      tag_54\n        /* \"#utility.yul\":1400:1603   */\n      jump\n        /* \"@openzeppelin/contracts-upgradeable/access/Ownable2StepUpgradeable.sol\":3348:3444  if (pendingOwner() != sender) {... */\n    tag_105:\n        /* \"@openzeppelin/contracts-upgradeable/access/Ownable2StepUpgradeable.sol\":3453:3479  _transferOwnership(sender) */\n      tag_107\n        /* \"@openzeppelin/contracts-upgradeable/access/Ownable2StepUpgradeable.sol\":3472:3478  sender */\n      dup2\n        /* \"@openzeppelin/contracts-upgradeable/access/Ownable2StepUpgradeable.sol\":3453:3471  _transferOwnership */\n      tag_92\n        /* \"@openzeppelin/contracts-upgradeable/access/Ownable2StepUpgradeable.sol\":3453:3479  _transferOwnership(sender) */\n      jump\t// in\n    tag_107:\n        /* \"@openzeppelin/contracts-upgradeable/access/Ownable2StepUpgradeable.sol\":3299:3486  {... */\n      pop\n        /* \"@openzeppelin/contracts-upgradeable/access/Ownable2StepUpgradeable.sol\":3257:3486  function acceptOwnership() public virtual {... */\n      jump\t// out\n        /* \"@openzeppelin/contracts-upgradeable/access/OwnableUpgradeable.sol\":2441:2585  function owner() public view virtual returns (address) {... */\n    tag_34:\n        /* \"@openzeppelin/contracts-upgradeable/access/OwnableUpgradeable.sol\":2487:2494  address */\n      0x00\n      dup1\n        /* \"@openzeppelin/contracts-upgradeable/access/OwnableUpgradeable.sol\":1313:1335  OwnableStorageLocation */\n      0x9016d09d72d40fdae2fd8ceac6b6234c7706214fd39c1cd1e609a0528c199300\n        /* \"@openzeppelin/contracts-upgradeable/access/OwnableUpgradeable.sol\":2533:2553  _getOwnableStorage() */\n    tag_109:\n        /* \"@openzeppelin/contracts-upgradeable/access/OwnableUpgradeable.sol\":2570:2578  $._owner */\n      sload\n      sub(shl(0xa0, 0x01), 0x01)\n      and\n      swap3\n        /* \"@openzeppelin/contracts-upgradeable/access/OwnableUpgradeable.sol\":2441:2585  function owner() public view virtual returns (address) {... */\n      swap2\n      pop\n      pop\n      jump\t// out\n        /* \"contracts/LiquidtyLocker.sol\":1713:2118  function unlockTokens(address dex) external {... */\n    tag_42:\n      sub(shl(0xa0, 0x01), 0x01)\n        /* \"contracts/LiquidtyLocker.sol\":1788:1798  locks[dex] */\n      dup2\n      and\n        /* \"contracts/LiquidtyLocker.sol\":1768:1785  Lock storage lock */\n      0x00\n        /* \"contracts/LiquidtyLocker.sol\":1788:1798  locks[dex] */\n      swap1\n      dup2\n      mstore\n        /* \"contracts/LiquidtyLocker.sol\":1788:1793  locks */\n      0x02\n        /* \"contracts/LiquidtyLocker.sol\":1788:1798  locks[dex] */\n      0x20\n      mstore\n      0x40\n      swap1\n      keccak256\n        /* \"contracts/LiquidtyLocker.sol\":1817:1828  lock.amount */\n      0x01\n      dup2\n      add\n      sload\n        /* \"contracts/LiquidtyLocker.sol\":1809:1853  require(lock.amount > 0, \"No tokens locked\") */\n      tag_112\n      jumpi\n      mload(0x40)\n      shl(0xe5, 0x461bcd)\n      dup2\n      mstore\n        /* \"#utility.yul\":5040:5042   */\n      0x20\n        /* \"contracts/LiquidtyLocker.sol\":1809:1853  require(lock.amount > 0, \"No tokens locked\") */\n      0x04\n      dup3\n      add\n        /* \"#utility.yul\":5022:5043   */\n      mstore\n        /* \"#utility.yul\":5079:5081   */\n      0x10\n        /* \"#utility.yul\":5059:5077   */\n      0x24\n      dup3\n      add\n        /* \"#utility.yul\":5052:5082   */\n      mstore\n      shl(0x82, 0x139bc81d1bdad95b9cc81b1bd8dad959)\n        /* \"#utility.yul\":5098:5116   */\n      0x44\n      dup3\n      add\n        /* \"#utility.yul\":5091:5137   */\n      mstore\n        /* \"#utility.yul\":5154:5172   */\n      0x64\n      add\n        /* \"contracts/LiquidtyLocker.sol\":1809:1853  require(lock.amount > 0, \"No tokens locked\") */\n      tag_54\n        /* \"#utility.yul\":4838:5178   */\n      jump\n        /* \"contracts/LiquidtyLocker.sol\":1809:1853  require(lock.amount > 0, \"No tokens locked\") */\n    tag_112:\n        /* \"contracts/LiquidtyLocker.sol\":1891:1895  lock */\n      dup1\n        /* \"contracts/LiquidtyLocker.sol\":1891:1906  lock.unlockTime */\n      0x02\n      add\n      sload\n        /* \"contracts/LiquidtyLocker.sol\":1872:1887  block.timestamp */\n      timestamp\n        /* \"contracts/LiquidtyLocker.sol\":1872:1906  block.timestamp >= lock.unlockTime */\n      lt\n      iszero\n        /* \"contracts/LiquidtyLocker.sol\":1864:1930  require(block.timestamp >= lock.unlockTime, \"Tokens still locked\") */\n      tag_115\n      jumpi\n      mload(0x40)\n      shl(0xe5, 0x461bcd)\n      dup2\n      mstore\n        /* \"#utility.yul\":5385:5387   */\n      0x20\n        /* \"contracts/LiquidtyLocker.sol\":1864:1930  require(block.timestamp >= lock.unlockTime, \"Tokens still locked\") */\n      0x04\n      dup3\n      add\n        /* \"#utility.yul\":5367:5388   */\n      mstore\n        /* \"#utility.yul\":5424:5426   */\n      0x13\n        /* \"#utility.yul\":5404:5422   */\n      0x24\n      dup3\n      add\n        /* \"#utility.yul\":5397:5427   */\n      mstore\n      shl(0x6a, 0x151bdad95b9cc81cdd1a5b1b081b1bd8dad959)\n        /* \"#utility.yul\":5443:5461   */\n      0x44\n      dup3\n      add\n        /* \"#utility.yul\":5436:5485   */\n      mstore\n        /* \"#utility.yul\":5502:5520   */\n      0x64\n      add\n        /* \"contracts/LiquidtyLocker.sol\":1864:1930  require(block.timestamp >= lock.unlockTime, \"Tokens still locked\") */\n      tag_54\n        /* \"#utility.yul\":5183:5526   */\n      jump\n        /* \"contracts/LiquidtyLocker.sol\":1864:1930  require(block.timestamp >= lock.unlockTime, \"Tokens still locked\") */\n    tag_115:\n        /* \"contracts/LiquidtyLocker.sol\":1967:1972  token */\n      sload(0x00)\n        /* \"contracts/LiquidtyLocker.sol\":1983:1992  lock.user */\n      dup2\n      sload\n        /* \"contracts/LiquidtyLocker.sol\":1967:1972  token */\n      0x01\n        /* \"contracts/LiquidtyLocker.sol\":1994:2005  lock.amount */\n      dup4\n      add\n      sload\n        /* \"contracts/LiquidtyLocker.sol\":1949:2006  IERC20Upgradeable(token).transfer(lock.user, lock.amount) */\n      mload(0x40)\n      shl(0xe0, 0xa9059cbb)\n      dup2\n      mstore\n      sub(shl(0xa0, 0x01), 0x01)\n        /* \"contracts/LiquidtyLocker.sol\":1983:1992  lock.user */\n      swap3\n      dup4\n      and\n        /* \"contracts/LiquidtyLocker.sol\":1949:2006  IERC20Upgradeable(token).transfer(lock.user, lock.amount) */\n      0x04\n      dup3\n      add\n        /* \"#utility.yul\":5705:5756   */\n      mstore\n        /* \"#utility.yul\":5772:5790   */\n      0x24\n      dup2\n      add\n        /* \"#utility.yul\":5765:5799   */\n      swap2\n      swap1\n      swap2\n      mstore\n        /* \"contracts/LiquidtyLocker.sol\":1967:1972  token */\n      swap2\n      and\n      swap1\n        /* \"contracts/LiquidtyLocker.sol\":1949:1982  IERC20Upgradeable(token).transfer */\n      0xa9059cbb\n      swap1\n        /* \"#utility.yul\":5678:5696   */\n      0x44\n      add\n        /* \"contracts/LiquidtyLocker.sol\":1949:2006  IERC20Upgradeable(token).transfer(lock.user, lock.amount) */\n      0x20\n      mload(0x40)\n      dup1\n      dup4\n      sub\n      dup2\n      0x00\n      dup8\n      gas\n      call\n      iszero\n      dup1\n      iszero\n      tag_121\n      jumpi\n      returndatasize\n      0x00\n      dup1\n      returndatacopy\n      revert(0x00, returndatasize)\n    tag_121:\n      pop\n      pop\n      pop\n      pop\n      mload(0x40)\n      returndatasize\n      not(0x1f)\n      0x1f\n      dup3\n      add\n      and\n      dup3\n      add\n      dup1\n      0x40\n      mstore\n      pop\n      dup2\n      add\n      swap1\n      tag_122\n      swap2\n      swap1\n      tag_68\n      jump\t// in\n    tag_122:\n        /* \"contracts/LiquidtyLocker.sol\":1941:2026  require(IERC20Upgradeable(token).transfer(lock.user, lock.amount), \"Transfer failed\") */\n      tag_123\n      jumpi\n      mload(0x40)\n      shl(0xe5, 0x461bcd)\n      dup2\n      mstore\n        /* \"#utility.yul\":3524:3526   */\n      0x20\n        /* \"contracts/LiquidtyLocker.sol\":1941:2026  require(IERC20Upgradeable(token).transfer(lock.user, lock.amount), \"Transfer failed\") */\n      0x04\n      dup3\n      add\n        /* \"#utility.yul\":3506:3527   */\n      mstore\n        /* \"#utility.yul\":3563:3565   */\n      0x0f\n        /* \"#utility.yul\":3543:3561   */\n      0x24\n      dup3\n      add\n        /* \"#utility.yul\":3536:3566   */\n      mstore\n      shl(0x8a, 0x151c985b9cd9995c8819985a5b1959)\n        /* \"#utility.yul\":3582:3600   */\n      0x44\n      dup3\n      add\n        /* \"#utility.yul\":3575:3620   */\n      mstore\n        /* \"#utility.yul\":3637:3655   */\n      0x64\n      add\n        /* \"contracts/LiquidtyLocker.sol\":1941:2026  require(IERC20Upgradeable(token).transfer(lock.user, lock.amount), \"Transfer failed\") */\n      tag_54\n        /* \"#utility.yul\":3322:3661   */\n      jump\n        /* \"contracts/LiquidtyLocker.sol\":1941:2026  require(IERC20Upgradeable(token).transfer(lock.user, lock.amount), \"Transfer failed\") */\n    tag_123:\n        /* \"contracts/LiquidtyLocker.sol\":2059:2068  lock.user */\n      dup1\n      sload\n      0x01\n        /* \"contracts/LiquidtyLocker.sol\":2070:2081  lock.amount */\n      dup3\n      add\n      sload\n        /* \"contracts/LiquidtyLocker.sol\":2044:2082  TokensUnlocked(lock.user, lock.amount) */\n      mload(0x40)\n        /* \"#utility.yul\":5956:5981   */\n      swap1\n      dup2\n      mstore\n      sub(shl(0xa0, 0x01), 0x01)\n        /* \"contracts/LiquidtyLocker.sol\":2059:2068  lock.user */\n      swap1\n      swap2\n      and\n      swap1\n        /* \"contracts/LiquidtyLocker.sol\":2044:2082  TokensUnlocked(lock.user, lock.amount) */\n      0xe7b379c6c1fa169e9079c25e9143b127637eef8ec8c9d5c06ddb4ab3e1195888\n      swap1\n        /* \"#utility.yul\":5944:5946   */\n      0x20\n        /* \"#utility.yul\":5929:5947   */\n      add\n        /* \"contracts/LiquidtyLocker.sol\":2044:2082  TokensUnlocked(lock.user, lock.amount) */\n      mload(0x40)\n      dup1\n      swap2\n      sub\n      swap1\n      log2\n      pop\n      sub(shl(0xa0, 0x01), 0x01)\n        /* \"contracts/LiquidtyLocker.sol\":2100:2110  locks[dex] */\n      and\n      0x00\n      swap1\n      dup2\n      mstore\n        /* \"contracts/LiquidtyLocker.sol\":2100:2105  locks */\n      0x02\n        /* \"contracts/LiquidtyLocker.sol\":2100:2110  locks[dex] */\n      0x20\n      dup2\n      swap1\n      mstore\n      0x40\n      dup3\n      keccak256\n        /* \"contracts/LiquidtyLocker.sol\":2093:2110  delete locks[dex] */\n      dup1\n      sload\n      not(sub(shl(0xa0, 0x01), 0x01))\n      and\n      dup2\n      sstore\n      0x01\n      dup2\n      add\n      dup4\n      swap1\n      sstore\n      add\n      sstore\n        /* \"contracts/LiquidtyLocker.sol\":1713:2118  function unlockTokens(address dex) external {... */\n      jump\t// out\n        /* \"@openzeppelin/contracts-upgradeable/access/Ownable2StepUpgradeable.sol\":2038:2206  function pendingOwner() public view virtual returns (address) {... */\n    tag_44:\n        /* \"@openzeppelin/contracts-upgradeable/access/Ownable2StepUpgradeable.sol\":2091:2098  address */\n      0x00\n      dup1\n        /* \"@openzeppelin/contracts-upgradeable/access/Ownable2StepUpgradeable.sol\":1676:1703  Ownable2StepStorageLocation */\n      0x237e158222e3e6968b72b9db0d8043aacf074ad9f650f0d1606b4d82ee432c00\n        /* \"@openzeppelin/contracts-upgradeable/access/Ownable2StepUpgradeable.sol\":2142:2167  _getOwnable2StepStorage() */\n      tag_109\n        /* \"@openzeppelin/contracts-upgradeable/access/Ownable2StepUpgradeable.sol\":1545:1719  function _getOwnable2StepStorage() private pure returns (Ownable2StepStorage storage $) {... */\n      jump\n        /* \"@openzeppelin/contracts-upgradeable/access/Ownable2StepUpgradeable.sol\":2524:2771  function transferOwnership(address newOwner) public virtual override onlyOwner {... */\n    tag_48:\n        /* \"@openzeppelin/contracts-upgradeable/access/OwnableUpgradeable.sol\":2334:2347  _checkOwner() */\n      tag_131\n        /* \"@openzeppelin/contracts-upgradeable/access/OwnableUpgradeable.sol\":2334:2345  _checkOwner */\n      tag_98\n        /* \"@openzeppelin/contracts-upgradeable/access/OwnableUpgradeable.sol\":2334:2347  _checkOwner() */\n      jump\t// in\n    tag_131:\n        /* \"@openzeppelin/contracts-upgradeable/access/Ownable2StepUpgradeable.sol\":1676:1703  Ownable2StepStorageLocation */\n      0x237e158222e3e6968b72b9db0d8043aacf074ad9f650f0d1606b4d82ee432c00\n        /* \"@openzeppelin/contracts-upgradeable/access/Ownable2StepUpgradeable.sol\":2680:2706  $._pendingOwner = newOwner */\n      dup1\n      sload\n      not(sub(shl(0xa0, 0x01), 0x01))\n      and\n      sub(shl(0xa0, 0x01), 0x01)\n      dup4\n      and\n      swap1\n      dup2\n      or\n      dup3\n      sstore\n        /* \"@openzeppelin/contracts-upgradeable/access/Ownable2StepUpgradeable.sol\":2746:2753  owner() */\n      tag_134\n        /* \"@openzeppelin/contracts-upgradeable/access/Ownable2StepUpgradeable.sol\":2746:2751  owner */\n      tag_34\n        /* \"@openzeppelin/contracts-upgradeable/access/Ownable2StepUpgradeable.sol\":2746:2753  owner() */\n      jump\t// in\n    tag_134:\n      sub(shl(0xa0, 0x01), 0x01)\n        /* \"@openzeppelin/contracts-upgradeable/access/Ownable2StepUpgradeable.sol\":2721:2764  OwnershipTransferStarted(owner(), newOwner) */\n      and\n      0x38d16b8cac22d99fc7c124b9cd0de2d3fa1faef420bfe791d8c362d765e22700\n      mload(0x40)\n      mload(0x40)\n      dup1\n      swap2\n      sub\n      swap1\n      log3\n        /* \"@openzeppelin/contracts-upgradeable/access/Ownable2StepUpgradeable.sol\":2603:2771  {... */\n      pop\n        /* \"@openzeppelin/contracts-upgradeable/access/Ownable2StepUpgradeable.sol\":2524:2771  function transferOwnership(address newOwner) public virtual override onlyOwner {... */\n      pop\n      jump\t// out\n        /* \"@openzeppelin/contracts-upgradeable/access/Ownable2StepUpgradeable.sol\":1819:1883  function __Ownable2Step_init() internal onlyInitializing {... */\n    tag_90:\n        /* \"@openzeppelin/contracts-upgradeable/proxy/utils/Initializable.sol\":6929:6949  _checkInitializing() */\n      tag_100\n        /* \"@openzeppelin/contracts-upgradeable/proxy/utils/Initializable.sol\":6929:6947  _checkInitializing */\n      tag_140\n        /* \"@openzeppelin/contracts-upgradeable/proxy/utils/Initializable.sol\":6929:6949  _checkInitializing() */\n      jump\t// in\n        /* \"@openzeppelin/contracts-upgradeable/access/Ownable2StepUpgradeable.sol\":2955:3177  function _transferOwnership(address newOwner) internal virtual override {... */\n    tag_92:\n        /* \"@openzeppelin/contracts-upgradeable/access/Ownable2StepUpgradeable.sol\":1676:1703  Ownable2StepStorageLocation */\n      0x237e158222e3e6968b72b9db0d8043aacf074ad9f650f0d1606b4d82ee432c00\n        /* \"@openzeppelin/contracts-upgradeable/access/Ownable2StepUpgradeable.sol\":3104:3126  delete $._pendingOwner */\n      dup1\n      sload\n      not(sub(shl(0xa0, 0x01), 0x01))\n      and\n      dup2\n      sstore\n        /* \"@openzeppelin/contracts-upgradeable/access/Ownable2StepUpgradeable.sol\":3136:3170  super._transferOwnership(newOwner) */\n      tag_144\n        /* \"@openzeppelin/contracts-upgradeable/access/Ownable2StepUpgradeable.sol\":3161:3169  newOwner */\n      dup3\n        /* \"@openzeppelin/contracts-upgradeable/access/Ownable2StepUpgradeable.sol\":3136:3160  super._transferOwnership */\n      tag_145\n        /* \"@openzeppelin/contracts-upgradeable/access/Ownable2StepUpgradeable.sol\":3136:3170  super._transferOwnership(newOwner) */\n      jump\t// in\n    tag_144:\n        /* \"@openzeppelin/contracts-upgradeable/access/Ownable2StepUpgradeable.sol\":3027:3177  {... */\n      pop\n        /* \"@openzeppelin/contracts-upgradeable/access/Ownable2StepUpgradeable.sol\":2955:3177  function _transferOwnership(address newOwner) internal virtual override {... */\n      pop\n      jump\t// out\n        /* \"@openzeppelin/contracts-upgradeable/access/OwnableUpgradeable.sol\":2658:2820  function _checkOwner() internal view virtual {... */\n    tag_98:\n        /* \"@openzeppelin/contracts-upgradeable/utils/ContextUpgradeable.sol\":966:976  msg.sender */\n      caller\n        /* \"@openzeppelin/contracts-upgradeable/access/OwnableUpgradeable.sol\":2717:2724  owner() */\n      tag_148\n        /* \"@openzeppelin/contracts-upgradeable/access/OwnableUpgradeable.sol\":2717:2722  owner */\n      tag_34\n        /* \"@openzeppelin/contracts-upgradeable/access/OwnableUpgradeable.sol\":2717:2724  owner() */\n      jump\t// in\n    tag_148:\n      sub(shl(0xa0, 0x01), 0x01)\n        /* \"@openzeppelin/contracts-upgradeable/access/OwnableUpgradeable.sol\":2717:2740  owner() != _msgSender() */\n      and\n      eq\n        /* \"@openzeppelin/contracts-upgradeable/access/OwnableUpgradeable.sol\":2713:2814  if (owner() != _msgSender()) {... */\n      tag_100\n      jumpi\n        /* \"@openzeppelin/contracts-upgradeable/access/OwnableUpgradeable.sol\":2763:2803  OwnableUnauthorizedAccount(_msgSender()) */\n      mload(0x40)\n      shl(0xe0, 0x118cdaa7)\n      dup2\n      mstore\n        /* \"@openzeppelin/contracts-upgradeable/utils/ContextUpgradeable.sol\":966:976  msg.sender */\n      caller\n        /* \"@openzeppelin/contracts-upgradeable/access/OwnableUpgradeable.sol\":2763:2803  OwnableUnauthorizedAccount(_msgSender()) */\n      0x04\n      dup3\n      add\n        /* \"#utility.yul\":1546:1597   */\n      mstore\n        /* \"#utility.yul\":1519:1537   */\n      0x24\n      add\n        /* \"@openzeppelin/contracts-upgradeable/access/OwnableUpgradeable.sol\":2763:2803  OwnableUnauthorizedAccount(_msgSender()) */\n      tag_54\n        /* \"#utility.yul\":1400:1603   */\n      jump\n        /* \"@openzeppelin/contracts-upgradeable/proxy/utils/Initializable.sol\":7082:7223  function _checkInitializing() internal view virtual {... */\n    tag_140:\n        /* \"@openzeppelin/contracts-upgradeable/proxy/utils/Initializable.sol\":3147:3213  0xf0c57e16840df040f15088dc2f81fe391c3923bec73e23a9662efc9c229c6a00 */\n      0xf0c57e16840df040f15088dc2f81fe391c3923bec73e23a9662efc9c229c6a00\n        /* \"@openzeppelin/contracts-upgradeable/proxy/utils/Initializable.sol\":8558:8598  _getInitializableStorage()._initializing */\n      sload\n      shl(0x40, 0x01)\n      swap1\n      div\n      0xff\n      and\n        /* \"@openzeppelin/contracts-upgradeable/proxy/utils/Initializable.sol\":7144:7217  if (!_isInitializing()) {... */\n      tag_100\n      jumpi\n        /* \"@openzeppelin/contracts-upgradeable/proxy/utils/Initializable.sol\":7189:7206  NotInitializing() */\n      mload(0x40)\n      shl(0xe3, 0x1afcd79f)\n      dup2\n      mstore\n      0x04\n      add\n      mload(0x40)\n      dup1\n      swap2\n      sub\n      swap1\n      revert\n        /* \"@openzeppelin/contracts-upgradeable/access/OwnableUpgradeable.sol\":3774:4022  function _transferOwnership(address newOwner) internal virtual {... */\n    tag_145:\n        /* \"@openzeppelin/contracts-upgradeable/access/OwnableUpgradeable.sol\":1313:1335  OwnableStorageLocation */\n      0x9016d09d72d40fdae2fd8ceac6b6234c7706214fd39c1cd1e609a0528c199300\n        /* \"@openzeppelin/contracts-upgradeable/access/OwnableUpgradeable.sol\":3923:3931  $._owner */\n      dup1\n      sload\n      not(sub(shl(0xa0, 0x01), 0x01))\n        /* \"@openzeppelin/contracts-upgradeable/access/OwnableUpgradeable.sol\":3941:3960  $._owner = newOwner */\n      dup2\n      and\n      sub(shl(0xa0, 0x01), 0x01)\n      dup5\n      dup2\n      and\n      swap2\n      dup3\n      or\n      dup5\n      sstore\n        /* \"@openzeppelin/contracts-upgradeable/access/OwnableUpgradeable.sol\":3975:4015  OwnershipTransferred(oldOwner, newOwner) */\n      mload(0x40)\n        /* \"@openzeppelin/contracts-upgradeable/access/OwnableUpgradeable.sol\":3923:3931  $._owner */\n      swap3\n      and\n      swap2\n      dup3\n      swap1\n        /* \"@openzeppelin/contracts-upgradeable/access/OwnableUpgradeable.sol\":3975:4015  OwnershipTransferred(oldOwner, newOwner) */\n      0x8be0079c531659141344cd1fd0a4f28419497f9722a3daafe3b4186f6b6457e0\n      swap1\n        /* \"@openzeppelin/contracts-upgradeable/access/OwnableUpgradeable.sol\":3847:3871  OwnableStorage storage $ */\n      0x00\n      swap1\n        /* \"@openzeppelin/contracts-upgradeable/access/OwnableUpgradeable.sol\":3975:4015  OwnershipTransferred(oldOwner, newOwner) */\n      log3\n        /* \"@openzeppelin/contracts-upgradeable/access/OwnableUpgradeable.sol\":3837:4022  {... */\n      pop\n      pop\n        /* \"@openzeppelin/contracts-upgradeable/access/OwnableUpgradeable.sol\":3774:4022  function _transferOwnership(address newOwner) internal virtual {... */\n      pop\n      jump\t// out\n        /* \"#utility.yul\":14:187   */\n    tag_164:\n        /* \"#utility.yul\":82:102   */\n      dup1\n      calldataload\n      sub(shl(0xa0, 0x01), 0x01)\n        /* \"#utility.yul\":131:162   */\n      dup2\n      and\n        /* \"#utility.yul\":121:163   */\n      dup2\n      eq\n        /* \"#utility.yul\":111:181   */\n      tag_167\n      jumpi\n        /* \"#utility.yul\":177:178   */\n      0x00\n        /* \"#utility.yul\":174:175   */\n      dup1\n        /* \"#utility.yul\":167:179   */\n      revert\n        /* \"#utility.yul\":111:181   */\n    tag_167:\n        /* \"#utility.yul\":14:187   */\n      swap2\n      swap1\n      pop\n      jump\t// out\n        /* \"#utility.yul\":192:589   */\n    tag_17:\n        /* \"#utility.yul\":278:284   */\n      0x00\n        /* \"#utility.yul\":286:292   */\n      dup1\n        /* \"#utility.yul\":294:300   */\n      0x00\n        /* \"#utility.yul\":302:308   */\n      dup1\n        /* \"#utility.yul\":355:358   */\n      0x80\n        /* \"#utility.yul\":343:352   */\n      dup6\n        /* \"#utility.yul\":334:341   */\n      dup8\n        /* \"#utility.yul\":330:353   */\n      sub\n        /* \"#utility.yul\":326:359   */\n      slt\n        /* \"#utility.yul\":323:376   */\n      iszero\n      tag_169\n      jumpi\n        /* \"#utility.yul\":372:373   */\n      0x00\n        /* \"#utility.yul\":369:370   */\n      dup1\n        /* \"#utility.yul\":362:374   */\n      revert\n        /* \"#utility.yul\":323:376   */\n    tag_169:\n        /* \"#utility.yul\":395:424   */\n      tag_170\n        /* \"#utility.yul\":414:423   */\n      dup6\n        /* \"#utility.yul\":395:424   */\n      tag_164\n      jump\t// in\n    tag_170:\n        /* \"#utility.yul\":385:424   */\n      swap4\n      pop\n        /* \"#utility.yul\":471:473   */\n      0x20\n        /* \"#utility.yul\":460:469   */\n      dup6\n        /* \"#utility.yul\":456:474   */\n      add\n        /* \"#utility.yul\":443:475   */\n      calldataload\n        /* \"#utility.yul\":433:475   */\n      swap3\n      pop\n        /* \"#utility.yul\":494:532   */\n      tag_171\n        /* \"#utility.yul\":528:530   */\n      0x40\n        /* \"#utility.yul\":517:526   */\n      dup7\n        /* \"#utility.yul\":513:531   */\n      add\n        /* \"#utility.yul\":494:532   */\n      tag_164\n      jump\t// in\n    tag_171:\n        /* \"#utility.yul\":192:589   */\n      swap4\n      swap7\n      swap3\n      swap6\n      pop\n        /* \"#utility.yul\":484:532   */\n      swap3\n      swap4\n        /* \"#utility.yul\":579:581   */\n      0x60\n        /* \"#utility.yul\":564:582   */\n      add\n        /* \"#utility.yul\":551:583   */\n      calldataload\n      swap3\n      pop\n      pop\n        /* \"#utility.yul\":192:589   */\n      jump\t// out\n        /* \"#utility.yul\":594:854   */\n    tag_21:\n        /* \"#utility.yul\":662:668   */\n      0x00\n        /* \"#utility.yul\":670:676   */\n      dup1\n        /* \"#utility.yul\":723:725   */\n      0x40\n        /* \"#utility.yul\":711:720   */\n      dup4\n        /* \"#utility.yul\":702:709   */\n      dup6\n        /* \"#utility.yul\":698:721   */\n      sub\n        /* \"#utility.yul\":694:726   */\n      slt\n        /* \"#utility.yul\":691:743   */\n      iszero\n      tag_173\n      jumpi\n        /* \"#utility.yul\":739:740   */\n      0x00\n        /* \"#utility.yul\":736:737   */\n      dup1\n        /* \"#utility.yul\":729:741   */\n      revert\n        /* \"#utility.yul\":691:743   */\n    tag_173:\n        /* \"#utility.yul\":762:791   */\n      tag_174\n        /* \"#utility.yul\":781:790   */\n      dup4\n        /* \"#utility.yul\":762:791   */\n      tag_164\n      jump\t// in\n    tag_174:\n        /* \"#utility.yul\":752:791   */\n      swap2\n      pop\n        /* \"#utility.yul\":810:848   */\n      tag_175\n        /* \"#utility.yul\":844:846   */\n      0x20\n        /* \"#utility.yul\":833:842   */\n      dup5\n        /* \"#utility.yul\":829:847   */\n      add\n        /* \"#utility.yul\":810:848   */\n      tag_164\n      jump\t// in\n    tag_175:\n        /* \"#utility.yul\":800:848   */\n      swap1\n      pop\n        /* \"#utility.yul\":594:854   */\n      swap3\n      pop\n      swap3\n      swap1\n      pop\n      jump\t// out\n        /* \"#utility.yul\":859:1045   */\n    tag_25:\n        /* \"#utility.yul\":918:924   */\n      0x00\n        /* \"#utility.yul\":971:973   */\n      0x20\n        /* \"#utility.yul\":959:968   */\n      dup3\n        /* \"#utility.yul\":950:957   */\n      dup5\n        /* \"#utility.yul\":946:969   */\n      sub\n        /* \"#utility.yul\":942:974   */\n      slt\n        /* \"#utility.yul\":939:991   */\n      iszero\n      tag_177\n      jumpi\n        /* \"#utility.yul\":987:988   */\n      0x00\n        /* \"#utility.yul\":984:985   */\n      dup1\n        /* \"#utility.yul\":977:989   */\n      revert\n        /* \"#utility.yul\":939:991   */\n    tag_177:\n        /* \"#utility.yul\":1010:1039   */\n      tag_178\n        /* \"#utility.yul\":1029:1038   */\n      dup3\n        /* \"#utility.yul\":1010:1039   */\n      tag_164\n      jump\t// in\n    tag_178:\n        /* \"#utility.yul\":1000:1039   */\n      swap4\n        /* \"#utility.yul\":859:1045   */\n      swap3\n      pop\n      pop\n      pop\n      jump\t// out\n        /* \"#utility.yul\":3040:3317   */\n    tag_68:\n        /* \"#utility.yul\":3107:3113   */\n      0x00\n        /* \"#utility.yul\":3160:3162   */\n      0x20\n        /* \"#utility.yul\":3148:3157   */\n      dup3\n        /* \"#utility.yul\":3139:3146   */\n      dup5\n        /* \"#utility.yul\":3135:3158   */\n      sub\n        /* \"#utility.yul\":3131:3163   */\n      slt\n        /* \"#utility.yul\":3128:3180   */\n      iszero\n      tag_186\n      jumpi\n        /* \"#utility.yul\":3176:3177   */\n      0x00\n        /* \"#utility.yul\":3173:3174   */\n      dup1\n        /* \"#utility.yul\":3166:3178   */\n      revert\n        /* \"#utility.yul\":3128:3180   */\n    tag_186:\n        /* \"#utility.yul\":3208:3217   */\n      dup2\n        /* \"#utility.yul\":3202:3218   */\n      mload\n        /* \"#utility.yul\":3261:3266   */\n      dup1\n        /* \"#utility.yul\":3254:3267   */\n      iszero\n        /* \"#utility.yul\":3247:3268   */\n      iszero\n        /* \"#utility.yul\":3240:3245   */\n      dup2\n        /* \"#utility.yul\":3237:3269   */\n      eq\n        /* \"#utility.yul\":3227:3287   */\n      tag_178\n      jumpi\n        /* \"#utility.yul\":3283:3284   */\n      0x00\n        /* \"#utility.yul\":3280:3281   */\n      dup1\n        /* \"#utility.yul\":3273:3285   */\n      revert\n\n    auxdata: 0xa2646970667358221220fd19e1bc840714369b9ca6675dadbaeec4b6270758b38c40672af0e2e2e23e1664736f6c63430008140033\n}\n",
				"bytecode": {
					"linkReferences": {},
					"object": "608060405234801561000f575f80fd5b50610b1a8061001d5f395ff3fe608060405234801561000f575f80fd5b50600436106100a6575f3560e01c80638da5cb5b1161006e5780638da5cb5b14610145578063b172b22214610165578063cb67f94814610178578063e30c39781461018b578063f2fde38b14610193578063fc0c546a146101a6575f80fd5b806340678be4146100aa578063485cc955146100bf5780635de9a137146100d2578063715018a61461013557806379ba50971461013d575b5f80fd5b6100bd6100b8366004610a33565b6101b8565b005b6100bd6100cd366004610a74565b6103f0565b61010b6100e0366004610aa5565b600260208190525f91825260409091208054600182015491909201546001600160a01b039092169183565b604080516001600160a01b0390941684526020840192909252908201526060015b60405180910390f35b6100bd6105d8565b6100bd6105eb565b61014d610633565b6040516001600160a01b03909116815260200161012c565b60015461014d906001600160a01b031681565b6100bd610186366004610aa5565b610667565b61014d61083c565b6100bd6101a1366004610aa5565b610864565b5f5461014d906001600160a01b031681565b6001546001600160a01b0316331461020b5760405162461bcd60e51b815260206004820152601160248201527013db9b1e48111053c818d85b8818d85b1b607a1b60448201526064015b60405180910390fd5b5f831161025a5760405162461bcd60e51b815260206004820152601d60248201527f416d6f756e74206d7573742062652067726561746572207468616e20300000006044820152606401610202565b42811161029f5760405162461bcd60e51b8152602060048201526013602482015272496e76616c696420756e6c6f636b2074696d6560681b6044820152606401610202565b5f546040516323b872dd60e01b81526001600160a01b03868116600483015230602483015260448201869052909116906323b872dd906064016020604051808303815f875af11580156102f4573d5f803e3d5ffd5b505050506040513d601f19601f820116820180604052508101906103189190610ac5565b6103565760405162461bcd60e51b815260206004820152600f60248201526e151c985b9cd9995c8819985a5b1959608a1b6044820152606401610202565b604080516060810182526001600160a01b0386811680835260208084018881528486018781528885165f908152600280855290889020965187546001600160a01b031916961695909517865590516001860155519390920192909255825186815290810184905290917fd741e738a23fd18a03a26522320d9fc6cac1fed483e215ea9150fbc2fc43385d910160405180910390a250505050565b7ff0c57e16840df040f15088dc2f81fe391c3923bec73e23a9662efc9c229c6a008054600160401b810460ff16159067ffffffffffffffff165f811580156104355750825b90505f8267ffffffffffffffff1660011480156104515750303b155b90508115801561045f575080155b1561047d5760405163f92ee8a960e01b815260040160405180910390fd5b845467ffffffffffffffff1916600117855583156104a757845460ff60401b1916600160401b1785555b6001600160a01b0387166104f55760405162461bcd60e51b8152602060048201526015602482015274496e76616c696420746f6b656e206164647265737360581b6044820152606401610202565b6001600160a01b03861661054b5760405162461bcd60e51b815260206004820152601a60248201527f496e76616c696420676f7665726e616e636520616464726573730000000000006044820152606401610202565b6105536108e9565b5f80546001600160a01b03808a166001600160a01b031992831617909255600180549289169290911682179055610589906108f1565b83156105cf57845460ff60401b19168555604051600181527fc7f505b2f371ae2175ee4913f4499e1f2633a7b5936321eed1cdaeb6115181d29060200160405180910390a15b50505050505050565b6105e061092d565b6105e95f6108f1565b565b33806105f561083c565b6001600160a01b0316146106275760405163118cdaa760e01b81526001600160a01b0382166004820152602401610202565b610630816108f1565b50565b5f807f9016d09d72d40fdae2fd8ceac6b6234c7706214fd39c1cd1e609a0528c1993005b546001600160a01b031692915050565b6001600160a01b0381165f90815260026020526040902060018101546106c25760405162461bcd60e51b815260206004820152601060248201526f139bc81d1bdad95b9cc81b1bd8dad95960821b6044820152606401610202565b806002015442101561070c5760405162461bcd60e51b8152602060048201526013602482015272151bdad95b9cc81cdd1a5b1b081b1bd8dad959606a1b6044820152606401610202565b5f548154600183015460405163a9059cbb60e01b81526001600160a01b039283166004820152602481019190915291169063a9059cbb906044016020604051808303815f875af1158015610762573d5f803e3d5ffd5b505050506040513d601f19601f820116820180604052508101906107869190610ac5565b6107c45760405162461bcd60e51b815260206004820152600f60248201526e151c985b9cd9995c8819985a5b1959608a1b6044820152606401610202565b805460018201546040519081526001600160a01b03909116907fe7b379c6c1fa169e9079c25e9143b127637eef8ec8c9d5c06ddb4ab3e11958889060200160405180910390a2506001600160a01b03165f908152600260208190526040822080546001600160a01b0319168155600181018390550155565b5f807f237e158222e3e6968b72b9db0d8043aacf074ad9f650f0d1606b4d82ee432c00610657565b61086c61092d565b7f237e158222e3e6968b72b9db0d8043aacf074ad9f650f0d1606b4d82ee432c0080546001600160a01b0319166001600160a01b03831690811782556108b0610633565b6001600160a01b03167f38d16b8cac22d99fc7c124b9cd0de2d3fa1faef420bfe791d8c362d765e2270060405160405180910390a35050565b6105e961095f565b7f237e158222e3e6968b72b9db0d8043aacf074ad9f650f0d1606b4d82ee432c0080546001600160a01b0319168155610929826109a8565b5050565b33610936610633565b6001600160a01b0316146105e95760405163118cdaa760e01b8152336004820152602401610202565b7ff0c57e16840df040f15088dc2f81fe391c3923bec73e23a9662efc9c229c6a0054600160401b900460ff166105e957604051631afcd79f60e31b815260040160405180910390fd5b7f9016d09d72d40fdae2fd8ceac6b6234c7706214fd39c1cd1e609a0528c19930080546001600160a01b031981166001600160a01b03848116918217845560405192169182907f8be0079c531659141344cd1fd0a4f28419497f9722a3daafe3b4186f6b6457e0905f90a3505050565b80356001600160a01b0381168114610a2e575f80fd5b919050565b5f805f8060808587031215610a46575f80fd5b610a4f85610a18565b935060208501359250610a6460408601610a18565b9396929550929360600135925050565b5f8060408385031215610a85575f80fd5b610a8e83610a18565b9150610a9c60208401610a18565b90509250929050565b5f60208284031215610ab5575f80fd5b610abe82610a18565b9392505050565b5f60208284031215610ad5575f80fd5b81518015158114610abe575f80fdfea2646970667358221220fd19e1bc840714369b9ca6675dadbaeec4b6270758b38c40672af0e2e2e23e1664736f6c63430008140033",
					"opcodes": "PUSH1 0x80 PUSH1 0x40 MSTORE CALLVALUE DUP1 ISZERO PUSH2 0xF JUMPI PUSH0 DUP1 REVERT JUMPDEST POP PUSH2 0xB1A DUP1 PUSH2 0x1D PUSH0 CODECOPY PUSH0 RETURN INVALID PUSH1 0x80 PUSH1 0x40 MSTORE CALLVALUE DUP1 ISZERO PUSH2 0xF JUMPI PUSH0 DUP1 REVERT JUMPDEST POP PUSH1 0x4 CALLDATASIZE LT PUSH2 0xA6 JUMPI PUSH0 CALLDATALOAD PUSH1 0xE0 SHR DUP1 PUSH4 0x8DA5CB5B GT PUSH2 0x6E JUMPI DUP1 PUSH4 0x8DA5CB5B EQ PUSH2 0x145 JUMPI DUP1 PUSH4 0xB172B222 EQ PUSH2 0x165 JUMPI DUP1 PUSH4 0xCB67F948 EQ PUSH2 0x178 JUMPI DUP1 PUSH4 0xE30C3978 EQ PUSH2 0x18B JUMPI DUP1 PUSH4 0xF2FDE38B EQ PUSH2 0x193 JUMPI DUP1 PUSH4 0xFC0C546A EQ PUSH2 0x1A6 JUMPI PUSH0 DUP1 REVERT JUMPDEST DUP1 PUSH4 0x40678BE4 EQ PUSH2 0xAA JUMPI DUP1 PUSH4 0x485CC955 EQ PUSH2 0xBF JUMPI DUP1 PUSH4 0x5DE9A137 EQ PUSH2 0xD2 JUMPI DUP1 PUSH4 0x715018A6 EQ PUSH2 0x135 JUMPI DUP1 PUSH4 0x79BA5097 EQ PUSH2 0x13D JUMPI JUMPDEST PUSH0 DUP1 REVERT JUMPDEST PUSH2 0xBD PUSH2 0xB8 CALLDATASIZE PUSH1 0x4 PUSH2 0xA33 JUMP JUMPDEST PUSH2 0x1B8 JUMP JUMPDEST STOP JUMPDEST PUSH2 0xBD PUSH2 0xCD CALLDATASIZE PUSH1 0x4 PUSH2 0xA74 JUMP JUMPDEST PUSH2 0x3F0 JUMP JUMPDEST PUSH2 0x10B PUSH2 0xE0 CALLDATASIZE PUSH1 0x4 PUSH2 0xAA5 JUMP JUMPDEST PUSH1 0x2 PUSH1 0x20 DUP2 SWAP1 MSTORE PUSH0 SWAP2 DUP3 MSTORE PUSH1 0x40 SWAP1 SWAP2 KECCAK256 DUP1 SLOAD PUSH1 0x1 DUP3 ADD SLOAD SWAP2 SWAP1 SWAP3 ADD SLOAD PUSH1 0x1 PUSH1 0x1 PUSH1 0xA0 SHL SUB SWAP1 SWAP3 AND SWAP2 DUP4 JUMP JUMPDEST PUSH1 0x40 DUP1 MLOAD PUSH1 0x1 PUSH1 0x1 PUSH1 0xA0 SHL SUB SWAP1 SWAP5 AND DUP5 MSTORE PUSH1 0x20 DUP5 ADD SWAP3 SWAP1 SWAP3 MSTORE SWAP1 DUP3 ADD MSTORE PUSH1 0x60 ADD JUMPDEST PUSH1 0x40 MLOAD DUP1 SWAP2 SUB SWAP1 RETURN JUMPDEST PUSH2 0xBD PUSH2 0x5D8 JUMP JUMPDEST PUSH2 0xBD PUSH2 0x5EB JUMP JUMPDEST PUSH2 0x14D PUSH2 0x633 JUMP JUMPDEST PUSH1 0x40 MLOAD PUSH1 0x1 PUSH1 0x1 PUSH1 0xA0 SHL SUB SWAP1 SWAP2 AND DUP2 MSTORE PUSH1 0x20 ADD PUSH2 0x12C JUMP JUMPDEST PUSH1 0x1 SLOAD PUSH2 0x14D SWAP1 PUSH1 0x1 PUSH1 0x1 PUSH1 0xA0 SHL SUB AND DUP2 JUMP JUMPDEST PUSH2 0xBD PUSH2 0x186 CALLDATASIZE PUSH1 0x4 PUSH2 0xAA5 JUMP JUMPDEST PUSH2 0x667 JUMP JUMPDEST PUSH2 0x14D PUSH2 0x83C JUMP JUMPDEST PUSH2 0xBD PUSH2 0x1A1 CALLDATASIZE PUSH1 0x4 PUSH2 0xAA5 JUMP JUMPDEST PUSH2 0x864 JUMP JUMPDEST PUSH0 SLOAD PUSH2 0x14D SWAP1 PUSH1 0x1 PUSH1 0x1 PUSH1 0xA0 SHL SUB AND DUP2 JUMP JUMPDEST PUSH1 0x1 SLOAD PUSH1 0x1 PUSH1 0x1 PUSH1 0xA0 SHL SUB AND CALLER EQ PUSH2 0x20B JUMPI PUSH1 0x40 MLOAD PUSH3 0x461BCD PUSH1 0xE5 SHL DUP2 MSTORE PUSH1 0x20 PUSH1 0x4 DUP3 ADD MSTORE PUSH1 0x11 PUSH1 0x24 DUP3 ADD MSTORE PUSH17 0x13DB9B1E48111053C818D85B8818D85B1B PUSH1 0x7A SHL PUSH1 0x44 DUP3 ADD MSTORE PUSH1 0x64 ADD JUMPDEST PUSH1 0x40 MLOAD DUP1 SWAP2 SUB SWAP1 REVERT JUMPDEST PUSH0 DUP4 GT PUSH2 0x25A JUMPI PUSH1 0x40 MLOAD PUSH3 0x461BCD PUSH1 0xE5 SHL DUP2 MSTORE PUSH1 0x20 PUSH1 0x4 DUP3 ADD MSTORE PUSH1 0x1D PUSH1 0x24 DUP3 ADD MSTORE PUSH32 0x416D6F756E74206D7573742062652067726561746572207468616E2030000000 PUSH1 0x44 DUP3 ADD MSTORE PUSH1 0x64 ADD PUSH2 0x202 JUMP JUMPDEST TIMESTAMP DUP2 GT PUSH2 0x29F JUMPI PUSH1 0x40 MLOAD PUSH3 0x461BCD PUSH1 0xE5 SHL DUP2 MSTORE PUSH1 0x20 PUSH1 0x4 DUP3 ADD MSTORE PUSH1 0x13 PUSH1 0x24 DUP3 ADD MSTORE PUSH19 0x496E76616C696420756E6C6F636B2074696D65 PUSH1 0x68 SHL PUSH1 0x44 DUP3 ADD MSTORE PUSH1 0x64 ADD PUSH2 0x202 JUMP JUMPDEST PUSH0 SLOAD PUSH1 0x40 MLOAD PUSH4 0x23B872DD PUSH1 0xE0 SHL DUP2 MSTORE PUSH1 0x1 PUSH1 0x1 PUSH1 0xA0 SHL SUB DUP7 DUP2 AND PUSH1 0x4 DUP4 ADD MSTORE ADDRESS PUSH1 0x24 DUP4 ADD MSTORE PUSH1 0x44 DUP3 ADD DUP7 SWAP1 MSTORE SWAP1 SWAP2 AND SWAP1 PUSH4 0x23B872DD SWAP1 PUSH1 0x64 ADD PUSH1 0x20 PUSH1 0x40 MLOAD DUP1 DUP4 SUB DUP2 PUSH0 DUP8 GAS CALL ISZERO DUP1 ISZERO PUSH2 0x2F4 JUMPI RETURNDATASIZE PUSH0 DUP1 RETURNDATACOPY RETURNDATASIZE PUSH0 REVERT JUMPDEST POP POP POP POP PUSH1 0x40 MLOAD RETURNDATASIZE PUSH1 0x1F NOT PUSH1 0x1F DUP3 ADD AND DUP3 ADD DUP1 PUSH1 0x40 MSTORE POP DUP2 ADD SWAP1 PUSH2 0x318 SWAP2 SWAP1 PUSH2 0xAC5 JUMP JUMPDEST PUSH2 0x356 JUMPI PUSH1 0x40 MLOAD PUSH3 0x461BCD PUSH1 0xE5 SHL DUP2 MSTORE PUSH1 0x20 PUSH1 0x4 DUP3 ADD MSTORE PUSH1 0xF PUSH1 0x24 DUP3 ADD MSTORE PUSH15 0x151C985B9CD9995C8819985A5B1959 PUSH1 0x8A SHL PUSH1 0x44 DUP3 ADD MSTORE PUSH1 0x64 ADD PUSH2 0x202 JUMP JUMPDEST PUSH1 0x40 DUP1 MLOAD PUSH1 0x60 DUP2 ADD DUP3 MSTORE PUSH1 0x1 PUSH1 0x1 PUSH1 0xA0 SHL SUB DUP7 DUP2 AND DUP1 DUP4 MSTORE PUSH1 0x20 DUP1 DUP5 ADD DUP9 DUP2 MSTORE DUP5 DUP7 ADD DUP8 DUP2 MSTORE DUP9 DUP6 AND PUSH0 SWAP1 DUP2 MSTORE PUSH1 0x2 DUP1 DUP6 MSTORE SWAP1 DUP9 SWAP1 KECCAK256 SWAP7 MLOAD DUP8 SLOAD PUSH1 0x1 PUSH1 0x1 PUSH1 0xA0 SHL SUB NOT AND SWAP7 AND SWAP6 SWAP1 SWAP6 OR DUP7 SSTORE SWAP1 MLOAD PUSH1 0x1 DUP7 ADD SSTORE MLOAD SWAP4 SWAP1 SWAP3 ADD SWAP3 SWAP1 SWAP3 SSTORE DUP3 MLOAD DUP7 DUP2 MSTORE SWAP1 DUP2 ADD DUP5 SWAP1 MSTORE SWAP1 SWAP2 PUSH32 0xD741E738A23FD18A03A26522320D9FC6CAC1FED483E215EA9150FBC2FC43385D SWAP2 ADD PUSH1 0x40 MLOAD DUP1 SWAP2 SUB SWAP1 LOG2 POP POP POP POP JUMP JUMPDEST PUSH32 0xF0C57E16840DF040F15088DC2F81FE391C3923BEC73E23A9662EFC9C229C6A00 DUP1 SLOAD PUSH1 0x1 PUSH1 0x40 SHL DUP2 DIV PUSH1 0xFF AND ISZERO SWAP1 PUSH8 0xFFFFFFFFFFFFFFFF AND PUSH0 DUP2 ISZERO DUP1 ISZERO PUSH2 0x435 JUMPI POP DUP3 JUMPDEST SWAP1 POP PUSH0 DUP3 PUSH8 0xFFFFFFFFFFFFFFFF AND PUSH1 0x1 EQ DUP1 ISZERO PUSH2 0x451 JUMPI POP ADDRESS EXTCODESIZE ISZERO JUMPDEST SWAP1 POP DUP2 ISZERO DUP1 ISZERO PUSH2 0x45F JUMPI POP DUP1 ISZERO JUMPDEST ISZERO PUSH2 0x47D JUMPI PUSH1 0x40 MLOAD PUSH4 0xF92EE8A9 PUSH1 0xE0 SHL DUP2 MSTORE PUSH1 0x4 ADD PUSH1 0x40 MLOAD DUP1 SWAP2 SUB SWAP1 REVERT JUMPDEST DUP5 SLOAD PUSH8 0xFFFFFFFFFFFFFFFF NOT AND PUSH1 0x1 OR DUP6 SSTORE DUP4 ISZERO PUSH2 0x4A7 JUMPI DUP5 SLOAD PUSH1 0xFF PUSH1 0x40 SHL NOT AND PUSH1 0x1 PUSH1 0x40 SHL OR DUP6 SSTORE JUMPDEST PUSH1 0x1 PUSH1 0x1 PUSH1 0xA0 SHL SUB DUP8 AND PUSH2 0x4F5 JUMPI PUSH1 0x40 MLOAD PUSH3 0x461BCD PUSH1 0xE5 SHL DUP2 MSTORE PUSH1 0x20 PUSH1 0x4 DUP3 ADD MSTORE PUSH1 0x15 PUSH1 0x24 DUP3 ADD MSTORE PUSH21 0x496E76616C696420746F6B656E2061646472657373 PUSH1 0x58 SHL PUSH1 0x44 DUP3 ADD MSTORE PUSH1 0x64 ADD PUSH2 0x202 JUMP JUMPDEST PUSH1 0x1 PUSH1 0x1 PUSH1 0xA0 SHL SUB DUP7 AND PUSH2 0x54B JUMPI PUSH1 0x40 MLOAD PUSH3 0x461BCD PUSH1 0xE5 SHL DUP2 MSTORE PUSH1 0x20 PUSH1 0x4 DUP3 ADD MSTORE PUSH1 0x1A PUSH1 0x24 DUP3 ADD MSTORE PUSH32 0x496E76616C696420676F7665726E616E63652061646472657373000000000000 PUSH1 0x44 DUP3 ADD MSTORE PUSH1 0x64 ADD PUSH2 0x202 JUMP JUMPDEST PUSH2 0x553 PUSH2 0x8E9 JUMP JUMPDEST PUSH0 DUP1 SLOAD PUSH1 0x1 PUSH1 0x1 PUSH1 0xA0 SHL SUB DUP1 DUP11 AND PUSH1 0x1 PUSH1 0x1 PUSH1 0xA0 SHL SUB NOT SWAP3 DUP4 AND OR SWAP1 SWAP3 SSTORE PUSH1 0x1 DUP1 SLOAD SWAP3 DUP10 AND SWAP3 SWAP1 SWAP2 AND DUP3 OR SWAP1 SSTORE PUSH2 0x589 SWAP1 PUSH2 0x8F1 JUMP JUMPDEST DUP4 ISZERO PUSH2 0x5CF JUMPI DUP5 SLOAD PUSH1 0xFF PUSH1 0x40 SHL NOT AND DUP6 SSTORE PUSH1 0x40 MLOAD PUSH1 0x1 DUP2 MSTORE PUSH32 0xC7F505B2F371AE2175EE4913F4499E1F2633A7B5936321EED1CDAEB6115181D2 SWAP1 PUSH1 0x20 ADD PUSH1 0x40 MLOAD DUP1 SWAP2 SUB SWAP1 LOG1 JUMPDEST POP POP POP POP POP POP POP JUMP JUMPDEST PUSH2 0x5E0 PUSH2 0x92D JUMP JUMPDEST PUSH2 0x5E9 PUSH0 PUSH2 0x8F1 JUMP JUMPDEST JUMP JUMPDEST CALLER DUP1 PUSH2 0x5F5 PUSH2 0x83C JUMP JUMPDEST PUSH1 0x1 PUSH1 0x1 PUSH1 0xA0 SHL SUB AND EQ PUSH2 0x627 JUMPI PUSH1 0x40 MLOAD PUSH4 0x118CDAA7 PUSH1 0xE0 SHL DUP2 MSTORE PUSH1 0x1 PUSH1 0x1 PUSH1 0xA0 SHL SUB DUP3 AND PUSH1 0x4 DUP3 ADD MSTORE PUSH1 0x24 ADD PUSH2 0x202 JUMP JUMPDEST PUSH2 0x630 DUP2 PUSH2 0x8F1 JUMP JUMPDEST POP JUMP JUMPDEST PUSH0 DUP1 PUSH32 0x9016D09D72D40FDAE2FD8CEAC6B6234C7706214FD39C1CD1E609A0528C199300 JUMPDEST SLOAD PUSH1 0x1 PUSH1 0x1 PUSH1 0xA0 SHL SUB AND SWAP3 SWAP2 POP POP JUMP JUMPDEST PUSH1 0x1 PUSH1 0x1 PUSH1 0xA0 SHL SUB DUP2 AND PUSH0 SWAP1 DUP2 MSTORE PUSH1 0x2 PUSH1 0x20 MSTORE PUSH1 0x40 SWAP1 KECCAK256 PUSH1 0x1 DUP2 ADD SLOAD PUSH2 0x6C2 JUMPI PUSH1 0x40 MLOAD PUSH3 0x461BCD PUSH1 0xE5 SHL DUP2 MSTORE PUSH1 0x20 PUSH1 0x4 DUP3 ADD MSTORE PUSH1 0x10 PUSH1 0x24 DUP3 ADD MSTORE PUSH16 0x139BC81D1BDAD95B9CC81B1BD8DAD959 PUSH1 0x82 SHL PUSH1 0x44 DUP3 ADD MSTORE PUSH1 0x64 ADD PUSH2 0x202 JUMP JUMPDEST DUP1 PUSH1 0x2 ADD SLOAD TIMESTAMP LT ISZERO PUSH2 0x70C JUMPI PUSH1 0x40 MLOAD PUSH3 0x461BCD PUSH1 0xE5 SHL DUP2 MSTORE PUSH1 0x20 PUSH1 0x4 DUP3 ADD MSTORE PUSH1 0x13 PUSH1 0x24 DUP3 ADD MSTORE PUSH19 0x151BDAD95B9CC81CDD1A5B1B081B1BD8DAD959 PUSH1 0x6A SHL PUSH1 0x44 DUP3 ADD MSTORE PUSH1 0x64 ADD PUSH2 0x202 JUMP JUMPDEST PUSH0 SLOAD DUP2 SLOAD PUSH1 0x1 DUP4 ADD SLOAD PUSH1 0x40 MLOAD PUSH4 0xA9059CBB PUSH1 0xE0 SHL DUP2 MSTORE PUSH1 0x1 PUSH1 0x1 PUSH1 0xA0 SHL SUB SWAP3 DUP4 AND PUSH1 0x4 DUP3 ADD MSTORE PUSH1 0x24 DUP2 ADD SWAP2 SWAP1 SWAP2 MSTORE SWAP2 AND SWAP1 PUSH4 0xA9059CBB SWAP1 PUSH1 0x44 ADD PUSH1 0x20 PUSH1 0x40 MLOAD DUP1 DUP4 SUB DUP2 PUSH0 DUP8 GAS CALL ISZERO DUP1 ISZERO PUSH2 0x762 JUMPI RETURNDATASIZE PUSH0 DUP1 RETURNDATACOPY RETURNDATASIZE PUSH0 REVERT JUMPDEST POP POP POP POP PUSH1 0x40 MLOAD RETURNDATASIZE PUSH1 0x1F NOT PUSH1 0x1F DUP3 ADD AND DUP3 ADD DUP1 PUSH1 0x40 MSTORE POP DUP2 ADD SWAP1 PUSH2 0x786 SWAP2 SWAP1 PUSH2 0xAC5 JUMP JUMPDEST PUSH2 0x7C4 JUMPI PUSH1 0x40 MLOAD PUSH3 0x461BCD PUSH1 0xE5 SHL DUP2 MSTORE PUSH1 0x20 PUSH1 0x4 DUP3 ADD MSTORE PUSH1 0xF PUSH1 0x24 DUP3 ADD MSTORE PUSH15 0x151C985B9CD9995C8819985A5B1959 PUSH1 0x8A SHL PUSH1 0x44 DUP3 ADD MSTORE PUSH1 0x64 ADD PUSH2 0x202 JUMP JUMPDEST DUP1 SLOAD PUSH1 0x1 DUP3 ADD SLOAD PUSH1 0x40 MLOAD SWAP1 DUP2 MSTORE PUSH1 0x1 PUSH1 0x1 PUSH1 0xA0 SHL SUB SWAP1 SWAP2 AND SWAP1 PUSH32 0xE7B379C6C1FA169E9079C25E9143B127637EEF8EC8C9D5C06DDB4AB3E1195888 SWAP1 PUSH1 0x20 ADD PUSH1 0x40 MLOAD DUP1 SWAP2 SUB SWAP1 LOG2 POP PUSH1 0x1 PUSH1 0x1 PUSH1 0xA0 SHL SUB AND PUSH0 SWAP1 DUP2 MSTORE PUSH1 0x2 PUSH1 0x20 DUP2 SWAP1 MSTORE PUSH1 0x40 DUP3 KECCAK256 DUP1 SLOAD PUSH1 0x1 PUSH1 0x1 PUSH1 0xA0 SHL SUB NOT AND DUP2 SSTORE PUSH1 0x1 DUP2 ADD DUP4 SWAP1 SSTORE ADD SSTORE JUMP JUMPDEST PUSH0 DUP1 PUSH32 0x237E158222E3E6968B72B9DB0D8043AACF074AD9F650F0D1606B4D82EE432C00 PUSH2 0x657 JUMP JUMPDEST PUSH2 0x86C PUSH2 0x92D JUMP JUMPDEST PUSH32 0x237E158222E3E6968B72B9DB0D8043AACF074AD9F650F0D1606B4D82EE432C00 DUP1 SLOAD PUSH1 0x1 PUSH1 0x1 PUSH1 0xA0 SHL SUB NOT AND PUSH1 0x1 PUSH1 0x1 PUSH1 0xA0 SHL SUB DUP4 AND SWAP1 DUP2 OR DUP3 SSTORE PUSH2 0x8B0 PUSH2 0x633 JUMP JUMPDEST PUSH1 0x1 PUSH1 0x1 PUSH1 0xA0 SHL SUB AND PUSH32 0x38D16B8CAC22D99FC7C124B9CD0DE2D3FA1FAEF420BFE791D8C362D765E22700 PUSH1 0x40 MLOAD PUSH1 0x40 MLOAD DUP1 SWAP2 SUB SWAP1 LOG3 POP POP JUMP JUMPDEST PUSH2 0x5E9 PUSH2 0x95F JUMP JUMPDEST PUSH32 0x237E158222E3E6968B72B9DB0D8043AACF074AD9F650F0D1606B4D82EE432C00 DUP1 SLOAD PUSH1 0x1 PUSH1 0x1 PUSH1 0xA0 SHL SUB NOT AND DUP2 SSTORE PUSH2 0x929 DUP3 PUSH2 0x9A8 JUMP JUMPDEST POP POP JUMP JUMPDEST CALLER PUSH2 0x936 PUSH2 0x633 JUMP JUMPDEST PUSH1 0x1 PUSH1 0x1 PUSH1 0xA0 SHL SUB AND EQ PUSH2 0x5E9 JUMPI PUSH1 0x40 MLOAD PUSH4 0x118CDAA7 PUSH1 0xE0 SHL DUP2 MSTORE CALLER PUSH1 0x4 DUP3 ADD MSTORE PUSH1 0x24 ADD PUSH2 0x202 JUMP JUMPDEST PUSH32 0xF0C57E16840DF040F15088DC2F81FE391C3923BEC73E23A9662EFC9C229C6A00 SLOAD PUSH1 0x1 PUSH1 0x40 SHL SWAP1 DIV PUSH1 0xFF AND PUSH2 0x5E9 JUMPI PUSH1 0x40 MLOAD PUSH4 0x1AFCD79F PUSH1 0xE3 SHL DUP2 MSTORE PUSH1 0x4 ADD PUSH1 0x40 MLOAD DUP1 SWAP2 SUB SWAP1 REVERT JUMPDEST PUSH32 0x9016D09D72D40FDAE2FD8CEAC6B6234C7706214FD39C1CD1E609A0528C199300 DUP1 SLOAD PUSH1 0x1 PUSH1 0x1 PUSH1 0xA0 SHL SUB NOT DUP2 AND PUSH1 0x1 PUSH1 0x1 PUSH1 0xA0 SHL SUB DUP5 DUP2 AND SWAP2 DUP3 OR DUP5 SSTORE PUSH1 0x40 MLOAD SWAP3 AND SWAP2 DUP3 SWAP1 PUSH32 0x8BE0079C531659141344CD1FD0A4F28419497F9722A3DAAFE3B4186F6B6457E0 SWAP1 PUSH0 SWAP1 LOG3 POP POP POP JUMP JUMPDEST DUP1 CALLDATALOAD PUSH1 0x1 PUSH1 0x1 PUSH1 0xA0 SHL SUB DUP2 AND DUP2 EQ PUSH2 0xA2E JUMPI PUSH0 DUP1 REVERT JUMPDEST SWAP2 SWAP1 POP JUMP JUMPDEST PUSH0 DUP1 PUSH0 DUP1 PUSH1 0x80 DUP6 DUP8 SUB SLT ISZERO PUSH2 0xA46 JUMPI PUSH0 DUP1 REVERT JUMPDEST PUSH2 0xA4F DUP6 PUSH2 0xA18 JUMP JUMPDEST SWAP4 POP PUSH1 0x20 DUP6 ADD CALLDATALOAD SWAP3 POP PUSH2 0xA64 PUSH1 0x40 DUP7 ADD PUSH2 0xA18 JUMP JUMPDEST SWAP4 SWAP7 SWAP3 SWAP6 POP SWAP3 SWAP4 PUSH1 0x60 ADD CALLDATALOAD SWAP3 POP POP JUMP JUMPDEST PUSH0 DUP1 PUSH1 0x40 DUP4 DUP6 SUB SLT ISZERO PUSH2 0xA85 JUMPI PUSH0 DUP1 REVERT JUMPDEST PUSH2 0xA8E DUP4 PUSH2 0xA18 JUMP JUMPDEST SWAP2 POP PUSH2 0xA9C PUSH1 0x20 DUP5 ADD PUSH2 0xA18 JUMP JUMPDEST SWAP1 POP SWAP3 POP SWAP3 SWAP1 POP JUMP JUMPDEST PUSH0 PUSH1 0x20 DUP3 DUP5 SUB SLT ISZERO PUSH2 0xAB5 JUMPI PUSH0 DUP1 REVERT JUMPDEST PUSH2 0xABE DUP3 PUSH2 0xA18 JUMP JUMPDEST SWAP4 SWAP3 POP POP POP JUMP JUMPDEST PUSH0 PUSH1 0x20 DUP3 DUP5 SUB SLT ISZERO PUSH2 0xAD5 JUMPI PUSH0 DUP1 REVERT JUMPDEST DUP2 MLOAD DUP1 ISZERO ISZERO DUP2 EQ PUSH2 0xABE JUMPI PUSH0 DUP1 REVERT INVALID LOG2 PUSH5 0x6970667358 0x22 SLT KECCAK256 REVERT NOT 0xE1 0xBC DUP5 SMOD EQ CALLDATASIZE SWAP12 SWAP13 0xA6 PUSH8 0x5DADBAEEC4B62707 PC 0xB3 DUP13 BLOCKHASH PUSH8 0x2AF0E2E2E23E1664 PUSH20 0x6F6C634300081400330000000000000000000000 "
				},
				"gasEstimates": {
					"creation": {
						"codeDepositCost": "568400",
						"executionCost": "598",
						"totalCost": "568998"
					},
					"external": {
						"acceptOwnership()": "52538",
						"governanceContract()": "2358",
						"initialize(address,address)": "infinite",
						"lockForDEX(address,uint256,address,uint256)": "infinite",
						"locks(address)": "6873",
						"owner()": "2358",
						"pendingOwner()": "2435",
						"renounceOwnership()": "infinite",
						"token()": "2445",
						"transferOwnership(address)": "infinite",
						"unlockTokens(address)": "infinite"
					}
				},
				"methodIdentifiers": {
					"acceptOwnership()": "79ba5097",
					"governanceContract()": "b172b222",
					"initialize(address,address)": "485cc955",
					"lockForDEX(address,uint256,address,uint256)": "40678be4",
					"locks(address)": "5de9a137",
					"owner()": "8da5cb5b",
					"pendingOwner()": "e30c3978",
					"renounceOwnership()": "715018a6",
					"token()": "fc0c546a",
					"transferOwnership(address)": "f2fde38b",
					"unlockTokens(address)": "cb67f948"
				}
			},
			"storageLayout": {
				"storage": [
					{
						"astId": 734,
						"contract": "contracts/LiquidtyLocker.sol:LiquidityLocker",
						"label": "token",
						"offset": 0,
						"slot": "0",
						"type": "t_address"
					},
					{
						"astId": 736,
						"contract": "contracts/LiquidtyLocker.sol:LiquidityLocker",
						"label": "governanceContract",
						"offset": 0,
						"slot": "1",
						"type": "t_address"
					},
					{
						"astId": 748,
						"contract": "contracts/LiquidtyLocker.sol:LiquidityLocker",
						"label": "locks",
						"offset": 0,
						"slot": "2",
						"type": "t_mapping(t_address,t_struct(Lock)743_storage)"
					}
				],
				"types": {
					"t_address": {
						"encoding": "inplace",
						"label": "address",
						"numberOfBytes": "20"
					},
					"t_mapping(t_address,t_struct(Lock)743_storage)": {
						"encoding": "mapping",
						"key": "t_address",
						"label": "mapping(address => struct LiquidityLocker.Lock)",
						"numberOfBytes": "32",
						"value": "t_struct(Lock)743_storage"
					},
					"t_struct(Lock)743_storage": {
						"encoding": "inplace",
						"label": "struct LiquidityLocker.Lock",
						"members": [
							{
								"astId": 738,
								"contract": "contracts/LiquidtyLocker.sol:LiquidityLocker",
								"label": "user",
								"offset": 0,
								"slot": "0",
								"type": "t_address"
							},
							{
								"astId": 740,
								"contract": "contracts/LiquidtyLocker.sol:LiquidityLocker",
								"label": "amount",
								"offset": 0,
								"slot": "1",
								"type": "t_uint256"
							},
							{
								"astId": 742,
								"contract": "contracts/LiquidtyLocker.sol:LiquidityLocker",
								"label": "unlockTime",
								"offset": 0,
								"slot": "2",
								"type": "t_uint256"
							}
						],
						"numberOfBytes": "96"
					},
					"t_uint256": {
						"encoding": "inplace",
						"label": "uint256",
						"numberOfBytes": "32"
					}
				}
			},
			"userdoc": {
				"kind": "user",
				"methods": {},
				"version": 1
			}
		}
	}
}