{
	"contracts/RhesusMacaqueCoin.sol": {
		"RhesusMacaqueCoin": {
			"abi": [
				{
					"inputs": [
						{
							"internalType": "address",
							"name": "_dao",
							"type": "address"
						},
						{
							"internalType": "address",
							"name": "_communityWallet",
							"type": "address"
						},
						{
							"internalType": "address",
							"name": "_timelock",
							"type": "address"
						},
						{
							"internalType": "bytes32",
							"name": "_merkleRoot",
							"type": "bytes32"
						}
					],
					"stateMutability": "nonpayable",
					"type": "constructor"
				},
				{
					"anonymous": false,
					"inputs": [
						{
							"indexed": true,
							"internalType": "address",
							"name": "owner",
							"type": "address"
						},
						{
							"indexed": true,
							"internalType": "address",
							"name": "spender",
							"type": "address"
						},
						{
							"indexed": false,
							"internalType": "uint256",
							"name": "value",
							"type": "uint256"
						}
					],
					"name": "Approval",
					"type": "event"
				},
				{
					"anonymous": false,
					"inputs": [
						{
							"indexed": false,
							"internalType": "uint256",
							"name": "id",
							"type": "uint256"
						}
					],
					"name": "Snapshot",
					"type": "event"
				},
				{
					"anonymous": false,
					"inputs": [
						{
							"indexed": false,
							"internalType": "uint256",
							"name": "amount",
							"type": "uint256"
						}
					],
					"name": "TokensBurned",
					"type": "event"
				},
				{
					"anonymous": false,
					"inputs": [
						{
							"indexed": true,
							"internalType": "address",
							"name": "from",
							"type": "address"
						},
						{
							"indexed": true,
							"internalType": "address",
							"name": "to",
							"type": "address"
						},
						{
							"indexed": false,
							"internalType": "uint256",
							"name": "value",
							"type": "uint256"
						}
					],
					"name": "Transfer",
					"type": "event"
				},
				{
					"inputs": [],
					"name": "CAP",
					"outputs": [
						{
							"internalType": "uint256",
							"name": "",
							"type": "uint256"
						}
					],
					"stateMutability": "view",
					"type": "function"
				},
				{
					"inputs": [
						{
							"internalType": "address",
							"name": "",
							"type": "address"
						}
					],
					"name": "airdropClaimed",
					"outputs": [
						{
							"internalType": "bool",
							"name": "",
							"type": "bool"
						}
					],
					"stateMutability": "view",
					"type": "function"
				},
				{
					"inputs": [
						{
							"internalType": "address",
							"name": "owner",
							"type": "address"
						},
						{
							"internalType": "address",
							"name": "spender",
							"type": "address"
						}
					],
					"name": "allowance",
					"outputs": [
						{
							"internalType": "uint256",
							"name": "",
							"type": "uint256"
						}
					],
					"stateMutability": "view",
					"type": "function"
				},
				{
					"inputs": [
						{
							"internalType": "address",
							"name": "spender",
							"type": "address"
						},
						{
							"internalType": "uint256",
							"name": "amount",
							"type": "uint256"
						}
					],
					"name": "approve",
					"outputs": [
						{
							"internalType": "bool",
							"name": "",
							"type": "bool"
						}
					],
					"stateMutability": "nonpayable",
					"type": "function"
				},
				{
					"inputs": [
						{
							"internalType": "address",
							"name": "account",
							"type": "address"
						}
					],
					"name": "balanceOf",
					"outputs": [
						{
							"internalType": "uint256",
							"name": "",
							"type": "uint256"
						}
					],
					"stateMutability": "view",
					"type": "function"
				},
				{
					"inputs": [
						{
							"internalType": "uint256",
							"name": "amount",
							"type": "uint256"
						}
					],
					"name": "burn",
					"outputs": [],
					"stateMutability": "nonpayable",
					"type": "function"
				},
				{
					"inputs": [
						{
							"internalType": "uint256",
							"name": "amount",
							"type": "uint256"
						},
						{
							"internalType": "bytes32[]",
							"name": "proof",
							"type": "bytes32[]"
						}
					],
					"name": "claimAirdrop",
					"outputs": [],
					"stateMutability": "nonpayable",
					"type": "function"
				},
				{
					"inputs": [],
					"name": "communityWallet",
					"outputs": [
						{
							"internalType": "address",
							"name": "",
							"type": "address"
						}
					],
					"stateMutability": "view",
					"type": "function"
				},
				{
					"inputs": [],
					"name": "dao",
					"outputs": [
						{
							"internalType": "address",
							"name": "",
							"type": "address"
						}
					],
					"stateMutability": "view",
					"type": "function"
				},
				{
					"inputs": [],
					"name": "decimals",
					"outputs": [
						{
							"internalType": "uint8",
							"name": "",
							"type": "uint8"
						}
					],
					"stateMutability": "view",
					"type": "function"
				},
				{
					"inputs": [
						{
							"internalType": "address",
							"name": "account",
							"type": "address"
						},
						{
							"internalType": "uint256",
							"name": "snapshotId",
							"type": "uint256"
						}
					],
					"name": "getPastVotes",
					"outputs": [
						{
							"internalType": "uint256",
							"name": "",
							"type": "uint256"
						}
					],
					"stateMutability": "view",
					"type": "function"
				},
				{
					"inputs": [],
					"name": "merkleRoot",
					"outputs": [
						{
							"internalType": "bytes32",
							"name": "",
							"type": "bytes32"
						}
					],
					"stateMutability": "view",
					"type": "function"
				},
				{
					"inputs": [],
					"name": "name",
					"outputs": [
						{
							"internalType": "string",
							"name": "",
							"type": "string"
						}
					],
					"stateMutability": "view",
					"type": "function"
				},
				{
					"inputs": [],
					"name": "snapshot",
					"outputs": [
						{
							"internalType": "uint256",
							"name": "",
							"type": "uint256"
						}
					],
					"stateMutability": "nonpayable",
					"type": "function"
				},
				{
					"inputs": [],
					"name": "symbol",
					"outputs": [
						{
							"internalType": "string",
							"name": "",
							"type": "string"
						}
					],
					"stateMutability": "view",
					"type": "function"
				},
				{
					"inputs": [],
					"name": "timelock",
					"outputs": [
						{
							"internalType": "address",
							"name": "",
							"type": "address"
						}
					],
					"stateMutability": "view",
					"type": "function"
				},
				{
					"inputs": [],
					"name": "totalSupply",
					"outputs": [
						{
							"internalType": "uint256",
							"name": "",
							"type": "uint256"
						}
					],
					"stateMutability": "view",
					"type": "function"
				},
				{
					"inputs": [
						{
							"internalType": "address",
							"name": "recipient",
							"type": "address"
						},
						{
							"internalType": "uint256",
							"name": "amount",
							"type": "uint256"
						}
					],
					"name": "transfer",
					"outputs": [
						{
							"internalType": "bool",
							"name": "",
							"type": "bool"
						}
					],
					"stateMutability": "nonpayable",
					"type": "function"
				},
				{
					"inputs": [
						{
							"internalType": "address",
							"name": "from",
							"type": "address"
						},
						{
							"internalType": "address",
							"name": "to",
							"type": "address"
						},
						{
							"internalType": "uint256",
							"name": "amount",
							"type": "uint256"
						}
					],
					"name": "transferFrom",
					"outputs": [
						{
							"internalType": "bool",
							"name": "",
							"type": "bool"
						}
					],
					"stateMutability": "nonpayable",
					"type": "function"
				},
				{
					"inputs": [
						{
							"internalType": "bytes32[]",
							"name": "proof",
							"type": "bytes32[]"
						},
						{
							"internalType": "bytes32",
							"name": "leaf",
							"type": "bytes32"
						}
					],
					"name": "verify",
					"outputs": [
						{
							"internalType": "bool",
							"name": "",
							"type": "bool"
						}
					],
					"stateMutability": "view",
					"type": "function"
				}
			],
			"devdoc": {
				"details": "Fully hardcoded ERC20 token with snapshot, capped supply, burn, DAO governance, and Merkle airdrop",
				"kind": "dev",
				"methods": {},
				"title": "RHEMToken",
				"version": 1
			},
			"evm": {
				"assembly": "    /* \"contracts/RhesusMacaqueCoin.sol\":200:6216  contract RhesusMacaqueCoin {... */\n  mstore(0x40, 0x80)\n    /* \"contracts/RhesusMacaqueCoin.sol\":1341:2235  constructor(address _dao, address _communityWallet, address _timelock, bytes32 _merkleRoot) {... */\n  callvalue\n  dup1\n  iszero\n  tag_1\n  jumpi\n  revert(0x00, 0x00)\ntag_1:\n  pop\n  mload(0x40)\n  sub(codesize, bytecodeSize)\n  dup1\n  bytecodeSize\n  dup4\n  codecopy\n  dup2\n  add\n  0x40\n  dup2\n  swap1\n  mstore\n  tag_2\n  swap2\n  tag_3\n  jump\t// in\ntag_2:\n  sub(shl(0xa0, 0x01), 0x01)\n    /* \"contracts/RhesusMacaqueCoin.sol\":1452:1470  _dao != address(0) */\n  dup5\n  and\n  iszero\n  dup1\n  iszero\n  swap1\n    /* \"contracts/RhesusMacaqueCoin.sol\":1452:1504  _dao != address(0) && _communityWallet != address(0) */\n  tag_6\n  jumpi\n  pop\n  sub(shl(0xa0, 0x01), 0x01)\n    /* \"contracts/RhesusMacaqueCoin.sol\":1474:1504  _communityWallet != address(0) */\n  dup4\n  and\n  iszero\n  iszero\n    /* \"contracts/RhesusMacaqueCoin.sol\":1452:1504  _dao != address(0) && _communityWallet != address(0) */\ntag_6:\n    /* \"contracts/RhesusMacaqueCoin.sol\":1452:1531  _dao != address(0) && _communityWallet != address(0) && _timelock != address(0) */\n  dup1\n  iszero\n  tag_7\n  jumpi\n  pop\n  sub(shl(0xa0, 0x01), 0x01)\n    /* \"contracts/RhesusMacaqueCoin.sol\":1508:1531  _timelock != address(0) */\n  dup3\n  and\n  iszero\n  iszero\n    /* \"contracts/RhesusMacaqueCoin.sol\":1452:1531  _dao != address(0) && _communityWallet != address(0) && _timelock != address(0) */\ntag_7:\n    /* \"contracts/RhesusMacaqueCoin.sol\":1444:1548  require(_dao != address(0) && _communityWallet != address(0) && _timelock != address(0), \"Zero address\") */\n  tag_8\n  jumpi\n  mload(0x40)\n  shl(0xe5, 0x461bcd)\n  dup2\n  mstore\n    /* \"#utility.yul\":843:845   */\n  0x20\n    /* \"contracts/RhesusMacaqueCoin.sol\":1444:1548  require(_dao != address(0) && _communityWallet != address(0) && _timelock != address(0), \"Zero address\") */\n  0x04\n  dup3\n  add\n    /* \"#utility.yul\":825:846   */\n  mstore\n    /* \"#utility.yul\":882:884   */\n  0x0c\n    /* \"#utility.yul\":862:880   */\n  0x24\n  dup3\n  add\n    /* \"#utility.yul\":855:885   */\n  mstore\n  shl(0xa0, 0x5a65726f2061646472657373)\n    /* \"#utility.yul\":901:919   */\n  0x44\n  dup3\n  add\n    /* \"#utility.yul\":894:936   */\n  mstore\n    /* \"#utility.yul\":953:971   */\n  0x64\n  add\n    /* \"contracts/RhesusMacaqueCoin.sol\":1444:1548  require(_dao != address(0) && _communityWallet != address(0) && _timelock != address(0), \"Zero address\") */\ntag_9:\n  mload(0x40)\n  dup1\n  swap2\n  sub\n  swap1\n  revert\ntag_8:\n    /* \"contracts/RhesusMacaqueCoin.sol\":1559:1562  dao */\n  0x03\n    /* \"contracts/RhesusMacaqueCoin.sol\":1559:1569  dao = _dao */\n  dup1\n  sload\n  sub(shl(0xa0, 0x01), 0x01)\n  dup1\n  dup8\n  and\n  not(sub(shl(0xa0, 0x01), 0x01))\n  swap3\n  dup4\n  and\n  or\n  swap1\n  swap3\n  sstore\n    /* \"contracts/RhesusMacaqueCoin.sol\":1580:1595  communityWallet */\n  0x02\n    /* \"contracts/RhesusMacaqueCoin.sol\":1580:1614  communityWallet = _communityWallet */\n  dup1\n  sload\n  dup7\n  dup5\n  and\n  swap1\n  dup4\n  and\n  or\n  swap1\n  sstore\n    /* \"contracts/RhesusMacaqueCoin.sol\":1559:1569  dao = _dao */\n  0x01\n    /* \"contracts/RhesusMacaqueCoin.sol\":1625:1645  timelock = _timelock */\n  dup1\n  sload\n  swap3\n  dup6\n  and\n  swap3\n  swap1\n  swap2\n  and\n  dup3\n  or\n  swap1\n  sstore\n    /* \"contracts/RhesusMacaqueCoin.sol\":1656:1666  merkleRoot */\n  0x09\n    /* \"contracts/RhesusMacaqueCoin.sol\":1656:1680  merkleRoot = _merkleRoot */\n  dup3\n  swap1\n  sstore\n    /* \"contracts/RhesusMacaqueCoin.sol\":446:468  1_000_000_000 * 10**18 */\n  0x033b2e3c9fd0803ce8000000\n  swap1\n    /* \"contracts/RhesusMacaqueCoin.sol\":1761:1795  _mint(timelock, (full * 15) / 100) */\n  tag_11\n  swap1\n    /* \"contracts/RhesusMacaqueCoin.sol\":1791:1794  100 */\n  0x64\n    /* \"contracts/RhesusMacaqueCoin.sol\":1778:1787  full * 15 */\n  tag_12\n    /* \"contracts/RhesusMacaqueCoin.sol\":446:468  1_000_000_000 * 10**18 */\n  dup5\n    /* \"contracts/RhesusMacaqueCoin.sol\":1785:1787  15 */\n  0x0f\n    /* \"contracts/RhesusMacaqueCoin.sol\":1778:1787  full * 15 */\n  tag_13\n  jump\t// in\ntag_12:\n    /* \"contracts/RhesusMacaqueCoin.sol\":1777:1794  (full * 15) / 100 */\n  tag_14\n  swap2\n  swap1\n  tag_15\n  jump\t// in\ntag_14:\n    /* \"contracts/RhesusMacaqueCoin.sol\":1761:1766  _mint */\n  tag_16\n    /* \"contracts/RhesusMacaqueCoin.sol\":1761:1795  _mint(timelock, (full * 15) / 100) */\n  jump\t// in\ntag_11:\n    /* \"contracts/RhesusMacaqueCoin.sol\":1849:1864  communityWallet */\n  sload(0x02)\n    /* \"contracts/RhesusMacaqueCoin.sol\":1843:1884  _mint(communityWallet, (full * 15) / 100) */\n  tag_17\n  swap1\n  sub(shl(0xa0, 0x01), 0x01)\n    /* \"contracts/RhesusMacaqueCoin.sol\":1849:1864  communityWallet */\n  and\n    /* \"contracts/RhesusMacaqueCoin.sol\":1880:1883  100 */\n  0x64\n    /* \"contracts/RhesusMacaqueCoin.sol\":1867:1876  full * 15 */\n  tag_12\n    /* \"contracts/RhesusMacaqueCoin.sol\":1867:1871  full */\n  dup5\n    /* \"contracts/RhesusMacaqueCoin.sol\":1874:1876  15 */\n  0x0f\n    /* \"contracts/RhesusMacaqueCoin.sol\":1867:1876  full * 15 */\n  tag_13\n  jump\t// in\n    /* \"contracts/RhesusMacaqueCoin.sol\":1843:1884  _mint(communityWallet, (full * 15) / 100) */\ntag_17:\n    /* \"contracts/RhesusMacaqueCoin.sol\":1926:1965  _mint(address(this), (full * 40) / 100) */\n  tag_20\n    /* \"contracts/RhesusMacaqueCoin.sol\":1940:1944  this */\n  address\n    /* \"contracts/RhesusMacaqueCoin.sol\":1961:1964  100 */\n  0x64\n    /* \"contracts/RhesusMacaqueCoin.sol\":1948:1957  full * 40 */\n  tag_12\n    /* \"contracts/RhesusMacaqueCoin.sol\":1948:1952  full */\n  dup5\n    /* \"contracts/RhesusMacaqueCoin.sol\":1955:1957  40 */\n  0x28\n    /* \"contracts/RhesusMacaqueCoin.sol\":1948:1957  full * 40 */\n  tag_13\n  jump\t// in\n    /* \"contracts/RhesusMacaqueCoin.sol\":1926:1965  _mint(address(this), (full * 40) / 100) */\ntag_20:\n    /* \"contracts/RhesusMacaqueCoin.sol\":2021:2024  dao */\n  sload(0x03)\n    /* \"contracts/RhesusMacaqueCoin.sol\":2015:2044  _mint(dao, (full * 10) / 100) */\n  tag_23\n  swap1\n  sub(shl(0xa0, 0x01), 0x01)\n    /* \"contracts/RhesusMacaqueCoin.sol\":2021:2024  dao */\n  and\n    /* \"contracts/RhesusMacaqueCoin.sol\":2040:2043  100 */\n  0x64\n    /* \"contracts/RhesusMacaqueCoin.sol\":2027:2036  full * 10 */\n  tag_12\n    /* \"contracts/RhesusMacaqueCoin.sol\":2027:2031  full */\n  dup5\n    /* \"contracts/RhesusMacaqueCoin.sol\":2034:2036  10 */\n  0x0a\n    /* \"contracts/RhesusMacaqueCoin.sol\":2027:2036  full * 10 */\n  tag_13\n  jump\t// in\n    /* \"contracts/RhesusMacaqueCoin.sol\":2015:2044  _mint(dao, (full * 10) / 100) */\ntag_23:\n    /* \"contracts/RhesusMacaqueCoin.sol\":2085:2121  _mint(msg.sender, (full * 20) / 100) */\n  tag_26\n    /* \"contracts/RhesusMacaqueCoin.sol\":2091:2101  msg.sender */\n  caller\n    /* \"contracts/RhesusMacaqueCoin.sol\":2117:2120  100 */\n  0x64\n    /* \"contracts/RhesusMacaqueCoin.sol\":2104:2113  full * 20 */\n  tag_12\n    /* \"contracts/RhesusMacaqueCoin.sol\":2104:2108  full */\n  dup5\n    /* \"contracts/RhesusMacaqueCoin.sol\":2111:2113  20 */\n  0x14\n    /* \"contracts/RhesusMacaqueCoin.sol\":2104:2113  full * 20 */\n  tag_13\n  jump\t// in\n    /* \"contracts/RhesusMacaqueCoin.sol\":2085:2121  _mint(msg.sender, (full * 20) / 100) */\ntag_26:\n    /* \"contracts/RhesusMacaqueCoin.sol\":446:468  1_000_000_000 * 10**18 */\n  0x033b2e3c9fd0803ce8000000\n    /* \"contracts/RhesusMacaqueCoin.sol\":2189:2201  _totalSupply */\n  sload(0x00)\n    /* \"contracts/RhesusMacaqueCoin.sol\":2189:2208  _totalSupply == CAP */\n  eq\n    /* \"contracts/RhesusMacaqueCoin.sol\":2181:2227  require(_totalSupply == CAP, \"Incorrect mint\") */\n  tag_29\n  jumpi\n  mload(0x40)\n  shl(0xe5, 0x461bcd)\n  dup2\n  mstore\n    /* \"#utility.yul\":1711:1713   */\n  0x20\n    /* \"contracts/RhesusMacaqueCoin.sol\":2181:2227  require(_totalSupply == CAP, \"Incorrect mint\") */\n  0x04\n  dup3\n  add\n    /* \"#utility.yul\":1693:1714   */\n  mstore\n    /* \"#utility.yul\":1750:1752   */\n  0x0e\n    /* \"#utility.yul\":1730:1748   */\n  0x24\n  dup3\n  add\n    /* \"#utility.yul\":1723:1753   */\n  mstore\n  shl(0x92, 0x125b98dbdc9c9958dd081b5a5b9d)\n    /* \"#utility.yul\":1769:1787   */\n  0x44\n  dup3\n  add\n    /* \"#utility.yul\":1762:1806   */\n  mstore\n    /* \"#utility.yul\":1823:1841   */\n  0x64\n  add\n    /* \"contracts/RhesusMacaqueCoin.sol\":2181:2227  require(_totalSupply == CAP, \"Incorrect mint\") */\n  tag_9\n    /* \"#utility.yul\":1509:1847   */\n  jump\n    /* \"contracts/RhesusMacaqueCoin.sol\":2181:2227  require(_totalSupply == CAP, \"Incorrect mint\") */\ntag_29:\n    /* \"contracts/RhesusMacaqueCoin.sol\":1433:2235  {... */\n  pop\n    /* \"contracts/RhesusMacaqueCoin.sol\":1341:2235  constructor(address _dao, address _communityWallet, address _timelock, bytes32 _merkleRoot) {... */\n  pop\n  pop\n  pop\n  pop\n    /* \"contracts/RhesusMacaqueCoin.sol\":200:6216  contract RhesusMacaqueCoin {... */\n  jump(tag_48)\n    /* \"contracts/RhesusMacaqueCoin.sol\":3609:3878  function _mint(address to, uint256 amount) internal {... */\ntag_16:\n    /* \"contracts/RhesusMacaqueCoin.sol\":446:468  1_000_000_000 * 10**18 */\n  0x033b2e3c9fd0803ce8000000\n    /* \"contracts/RhesusMacaqueCoin.sol\":3695:3701  amount */\n  dup2\n    /* \"contracts/RhesusMacaqueCoin.sol\":3680:3692  _totalSupply */\n  sload(0x00)\n    /* \"contracts/RhesusMacaqueCoin.sol\":3680:3701  _totalSupply + amount */\n  tag_34\n  swap2\n  swap1\n  tag_35\n  jump\t// in\ntag_34:\n    /* \"contracts/RhesusMacaqueCoin.sol\":3680:3708  _totalSupply + amount <= CAP */\n  gt\n  iszero\n    /* \"contracts/RhesusMacaqueCoin.sol\":3672:3725  require(_totalSupply + amount <= CAP, \"Cap exceeded\") */\n  tag_36\n  jumpi\n  mload(0x40)\n  shl(0xe5, 0x461bcd)\n  dup2\n  mstore\n    /* \"#utility.yul\":2184:2186   */\n  0x20\n    /* \"contracts/RhesusMacaqueCoin.sol\":3672:3725  require(_totalSupply + amount <= CAP, \"Cap exceeded\") */\n  0x04\n  dup3\n  add\n    /* \"#utility.yul\":2166:2187   */\n  mstore\n    /* \"#utility.yul\":2223:2225   */\n  0x0c\n    /* \"#utility.yul\":2203:2221   */\n  0x24\n  dup3\n  add\n    /* \"#utility.yul\":2196:2226   */\n  mstore\n  shl(0xa2, 0x10d85c08195e18d959591959)\n    /* \"#utility.yul\":2242:2260   */\n  0x44\n  dup3\n  add\n    /* \"#utility.yul\":2235:2277   */\n  mstore\n    /* \"#utility.yul\":2294:2312   */\n  0x64\n  add\n    /* \"contracts/RhesusMacaqueCoin.sol\":3672:3725  require(_totalSupply + amount <= CAP, \"Cap exceeded\") */\n  tag_9\n    /* \"#utility.yul\":1982:2318   */\n  jump\n    /* \"contracts/RhesusMacaqueCoin.sol\":3672:3725  require(_totalSupply + amount <= CAP, \"Cap exceeded\") */\ntag_36:\n    /* \"contracts/RhesusMacaqueCoin.sol\":3752:3758  amount */\n  dup1\n    /* \"contracts/RhesusMacaqueCoin.sol\":3736:3748  _totalSupply */\n  0x00\n  0x00\n    /* \"contracts/RhesusMacaqueCoin.sol\":3736:3758  _totalSupply += amount */\n  dup3\n  dup3\n  sload\n  tag_39\n  swap2\n  swap1\n  tag_35\n  jump\t// in\ntag_39:\n  swap1\n  swap2\n  sstore\n  pop\n  pop\n  sub(shl(0xa0, 0x01), 0x01)\n    /* \"contracts/RhesusMacaqueCoin.sol\":3769:3782  _balances[to] */\n  dup3\n  and\n  0x00\n  swap1\n  dup2\n  mstore\n    /* \"contracts/RhesusMacaqueCoin.sol\":3769:3778  _balances */\n  0x04\n    /* \"contracts/RhesusMacaqueCoin.sol\":3769:3782  _balances[to] */\n  0x20\n  mstore\n  0x40\n  dup2\n  keccak256\n    /* \"contracts/RhesusMacaqueCoin.sol\":3769:3792  _balances[to] += amount */\n  dup1\n  sload\n    /* \"contracts/RhesusMacaqueCoin.sol\":3786:3792  amount */\n  dup4\n  swap3\n    /* \"contracts/RhesusMacaqueCoin.sol\":3769:3782  _balances[to] */\n  swap1\n    /* \"contracts/RhesusMacaqueCoin.sol\":3769:3792  _balances[to] += amount */\n  tag_40\n  swap1\n    /* \"contracts/RhesusMacaqueCoin.sol\":3786:3792  amount */\n  dup5\n  swap1\n    /* \"contracts/RhesusMacaqueCoin.sol\":3769:3792  _balances[to] += amount */\n  tag_35\n  jump\t// in\ntag_40:\n  swap1\n  swap2\n  sstore\n  pop\n  pop\n  sub(shl(0xa0, 0x01), 0x01)\n    /* \"contracts/RhesusMacaqueCoin.sol\":5157:5172  _balances[user] */\n  dup3\n  and\n  0x00\n  dup2\n  dup2\n  mstore\n    /* \"contracts/RhesusMacaqueCoin.sol\":5157:5166  _balances */\n  0x04\n    /* \"contracts/RhesusMacaqueCoin.sol\":5157:5172  _balances[user] */\n  0x20\n  swap1\n  dup2\n  mstore\n  0x40\n  dup1\n  dup4\n  keccak256\n  sload\n    /* \"contracts/RhesusMacaqueCoin.sol\":5120:5130  _snapshots */\n  0x06\n    /* \"contracts/RhesusMacaqueCoin.sol\":5120:5136  _snapshots[user] */\n  dup4\n  mstore\n  dup2\n  dup5\n  keccak256\n    /* \"contracts/RhesusMacaqueCoin.sol\":5137:5153  _snapshotCounter */\n  0x08\n  dup1\n  sload\n    /* \"contracts/RhesusMacaqueCoin.sol\":5120:5154  _snapshots[user][_snapshotCounter] */\n  dup7\n  mstore\n  swap1\n  dup5\n  mstore\n  dup3\n  dup6\n  keccak256\n    /* \"contracts/RhesusMacaqueCoin.sol\":5120:5172  _snapshots[user][_snapshotCounter] = _balances[user] */\n  swap2\n  swap1\n  swap2\n  sstore\n    /* \"contracts/RhesusMacaqueCoin.sol\":5210:5226  _snapshotCounter */\n  sload\n    /* \"contracts/RhesusMacaqueCoin.sol\":5183:5207  _currentSnapshotId[user] */\n  dup5\n  dup5\n  mstore\n    /* \"contracts/RhesusMacaqueCoin.sol\":5183:5201  _currentSnapshotId */\n  0x07\n    /* \"contracts/RhesusMacaqueCoin.sol\":5183:5207  _currentSnapshotId[user] */\n  dup4\n  mstore\n  dup2\n  dup5\n  keccak256\n    /* \"contracts/RhesusMacaqueCoin.sol\":5183:5226  _currentSnapshotId[user] = _snapshotCounter */\n  sstore\n    /* \"contracts/RhesusMacaqueCoin.sol\":3838:3870  Transfer(address(0), to, amount) */\n  dup1\n  mload\n    /* \"#utility.yul\":2469:2494   */\n  dup6\n  dup2\n  mstore\n    /* \"contracts/RhesusMacaqueCoin.sol\":3838:3870  Transfer(address(0), to, amount) */\n  swap1\n  mload\n  0xddf252ad1be2c89b69c2b068fc378daa952ba7f163c4a11628f55a4df523b3ef\n  swap3\n  swap2\n  dup2\n  swap1\n  sub\n  swap1\n  swap2\n  add\n  swap1\n  log3\n    /* \"contracts/RhesusMacaqueCoin.sol\":3609:3878  function _mint(address to, uint256 amount) internal {... */\n  pop\n  pop\n  jump\t// out\n    /* \"#utility.yul\":14:191   */\ntag_46:\n    /* \"#utility.yul\":93:106   */\n  dup1\n  mload\n  sub(shl(0xa0, 0x01), 0x01)\n    /* \"#utility.yul\":135:166   */\n  dup2\n  and\n    /* \"#utility.yul\":125:167   */\n  dup2\n  eq\n    /* \"#utility.yul\":115:185   */\n  tag_50\n  jumpi\n    /* \"#utility.yul\":181:182   */\n  0x00\n    /* \"#utility.yul\":178:179   */\n  0x00\n    /* \"#utility.yul\":171:183   */\n  revert\n    /* \"#utility.yul\":115:185   */\ntag_50:\n    /* \"#utility.yul\":14:191   */\n  swap2\n  swap1\n  pop\n  jump\t// out\n    /* \"#utility.yul\":196:636   */\ntag_3:\n    /* \"#utility.yul\":293:299   */\n  0x00\n    /* \"#utility.yul\":301:307   */\n  0x00\n    /* \"#utility.yul\":309:315   */\n  0x00\n    /* \"#utility.yul\":317:323   */\n  0x00\n    /* \"#utility.yul\":370:373   */\n  0x80\n    /* \"#utility.yul\":358:367   */\n  dup6\n    /* \"#utility.yul\":349:356   */\n  dup8\n    /* \"#utility.yul\":345:368   */\n  sub\n    /* \"#utility.yul\":341:374   */\n  slt\n    /* \"#utility.yul\":338:391   */\n  iszero\n  tag_52\n  jumpi\n    /* \"#utility.yul\":387:388   */\n  0x00\n    /* \"#utility.yul\":384:385   */\n  0x00\n    /* \"#utility.yul\":377:389   */\n  revert\n    /* \"#utility.yul\":338:391   */\ntag_52:\n    /* \"#utility.yul\":410:450   */\n  tag_53\n    /* \"#utility.yul\":440:449   */\n  dup6\n    /* \"#utility.yul\":410:450   */\n  tag_46\n  jump\t// in\ntag_53:\n    /* \"#utility.yul\":400:450   */\n  swap4\n  pop\n    /* \"#utility.yul\":469:518   */\n  tag_54\n    /* \"#utility.yul\":514:516   */\n  0x20\n    /* \"#utility.yul\":503:512   */\n  dup7\n    /* \"#utility.yul\":499:517   */\n  add\n    /* \"#utility.yul\":469:518   */\n  tag_46\n  jump\t// in\ntag_54:\n    /* \"#utility.yul\":459:518   */\n  swap3\n  pop\n    /* \"#utility.yul\":537:586   */\n  tag_55\n    /* \"#utility.yul\":582:584   */\n  0x40\n    /* \"#utility.yul\":571:580   */\n  dup7\n    /* \"#utility.yul\":567:585   */\n  add\n    /* \"#utility.yul\":537:586   */\n  tag_46\n  jump\t// in\ntag_55:\n    /* \"#utility.yul\":626:628   */\n  0x60\n    /* \"#utility.yul\":611:629   */\n  swap6\n  swap1\n  swap6\n  add\n    /* \"#utility.yul\":605:630   */\n  mload\n    /* \"#utility.yul\":196:636   */\n  swap4\n  swap7\n  swap3\n  swap6\n  pop\n  pop\n  pop\n  jump\t// out\n    /* \"#utility.yul\":982:1109   */\ntag_47:\n    /* \"#utility.yul\":1043:1053   */\n  0x4e487b71\n    /* \"#utility.yul\":1038:1041   */\n  0xe0\n    /* \"#utility.yul\":1034:1054   */\n  shl\n    /* \"#utility.yul\":1031:1032   */\n  0x00\n    /* \"#utility.yul\":1024:1055   */\n  mstore\n    /* \"#utility.yul\":1074:1078   */\n  0x11\n    /* \"#utility.yul\":1071:1072   */\n  0x04\n    /* \"#utility.yul\":1064:1079   */\n  mstore\n    /* \"#utility.yul\":1098:1102   */\n  0x24\n    /* \"#utility.yul\":1095:1096   */\n  0x00\n    /* \"#utility.yul\":1088:1103   */\n  revert\n    /* \"#utility.yul\":1114:1282   */\ntag_13:\n    /* \"#utility.yul\":1187:1196   */\n  dup1\n  dup3\n  mul\n    /* \"#utility.yul\":1218:1227   */\n  dup2\n  iszero\n    /* \"#utility.yul\":1235:1250   */\n  dup3\n  dup3\n  div\n    /* \"#utility.yul\":1229:1251   */\n  dup5\n  eq\n    /* \"#utility.yul\":1215:1252   */\n  or\n    /* \"#utility.yul\":1205:1276   */\n  tag_60\n  jumpi\n    /* \"#utility.yul\":1256:1274   */\n  tag_60\n  tag_47\n  jump\t// in\ntag_60:\n    /* \"#utility.yul\":1114:1282   */\n  swap3\n  swap2\n  pop\n  pop\n  jump\t// out\n    /* \"#utility.yul\":1287:1504   */\ntag_15:\n    /* \"#utility.yul\":1327:1328   */\n  0x00\n    /* \"#utility.yul\":1353:1354   */\n  dup3\n    /* \"#utility.yul\":1343:1475   */\n  tag_62\n  jumpi\n    /* \"#utility.yul\":1397:1407   */\n  0x4e487b71\n    /* \"#utility.yul\":1392:1395   */\n  0xe0\n    /* \"#utility.yul\":1388:1408   */\n  shl\n    /* \"#utility.yul\":1385:1386   */\n  0x00\n    /* \"#utility.yul\":1378:1409   */\n  mstore\n    /* \"#utility.yul\":1432:1436   */\n  0x12\n    /* \"#utility.yul\":1429:1430   */\n  0x04\n    /* \"#utility.yul\":1422:1437   */\n  mstore\n    /* \"#utility.yul\":1460:1464   */\n  0x24\n    /* \"#utility.yul\":1457:1458   */\n  0x00\n    /* \"#utility.yul\":1450:1465   */\n  revert\n    /* \"#utility.yul\":1343:1475   */\ntag_62:\n  pop\n    /* \"#utility.yul\":1489:1498   */\n  div\n  swap1\n    /* \"#utility.yul\":1287:1504   */\n  jump\t// out\n    /* \"#utility.yul\":1852:1977   */\ntag_35:\n    /* \"#utility.yul\":1917:1926   */\n  dup1\n  dup3\n  add\n    /* \"#utility.yul\":1938:1948   */\n  dup1\n  dup3\n  gt\n    /* \"#utility.yul\":1935:1971   */\n  iszero\n  tag_60\n  jumpi\n    /* \"#utility.yul\":1951:1969   */\n  tag_60\n  tag_47\n  jump\t// in\n    /* \"#utility.yul\":2323:2500   */\ntag_48:\n    /* \"contracts/RhesusMacaqueCoin.sol\":200:6216  contract RhesusMacaqueCoin {... */\n  dataSize(sub_0)\n  dup1\n  dataOffset(sub_0)\n  0x00\n  codecopy\n  0x00\n  return\nstop\n\nsub_0: assembly {\n        /* \"contracts/RhesusMacaqueCoin.sol\":200:6216  contract RhesusMacaqueCoin {... */\n      mstore(0x40, 0x80)\n      callvalue\n      dup1\n      iszero\n      tag_1\n      jumpi\n      revert(0x00, 0x00)\n    tag_1:\n      pop\n      jumpi(tag_2, lt(calldatasize, 0x04))\n      shr(0xe0, calldataload(0x00))\n      dup1\n      0x70a08231\n      gt\n      tag_23\n      jumpi\n      dup1\n      0xc7574839\n      gt\n      tag_24\n      jumpi\n      dup1\n      0xc7574839\n      eq\n      tag_18\n      jumpi\n      dup1\n      0xd1b6dd30\n      eq\n      tag_19\n      jumpi\n      dup1\n      0xd33219b4\n      eq\n      tag_20\n      jumpi\n      dup1\n      0xdd62ed3e\n      eq\n      tag_21\n      jumpi\n      dup1\n      0xec81b483\n      eq\n      tag_22\n      jumpi\n      revert(0x00, 0x00)\n    tag_24:\n      dup1\n      0x70a08231\n      eq\n      tag_13\n      jumpi\n      dup1\n      0x95d89b41\n      eq\n      tag_14\n      jumpi\n      dup1\n      0x9711715a\n      eq\n      tag_15\n      jumpi\n      dup1\n      0x972a2a62\n      eq\n      tag_16\n      jumpi\n      dup1\n      0xa9059cbb\n      eq\n      tag_17\n      jumpi\n      revert(0x00, 0x00)\n    tag_23:\n      dup1\n      0x2eb4a7ab\n      gt\n      tag_25\n      jumpi\n      dup1\n      0x2eb4a7ab\n      eq\n      tag_8\n      jumpi\n      dup1\n      0x313ce567\n      eq\n      tag_9\n      jumpi\n      dup1\n      0x3a46b1a8\n      eq\n      tag_10\n      jumpi\n      dup1\n      0x4162169f\n      eq\n      tag_11\n      jumpi\n      dup1\n      0x42966c68\n      eq\n      tag_12\n      jumpi\n      revert(0x00, 0x00)\n    tag_25:\n      dup1\n      0x06fdde03\n      eq\n      tag_3\n      jumpi\n      dup1\n      0x095ea7b3\n      eq\n      tag_4\n      jumpi\n      dup1\n      0x0bcae1ac\n      eq\n      tag_5\n      jumpi\n      dup1\n      0x18160ddd\n      eq\n      tag_6\n      jumpi\n      dup1\n      0x23b872dd\n      eq\n      tag_7\n      jumpi\n    tag_2:\n      revert(0x00, 0x00)\n        /* \"contracts/RhesusMacaqueCoin.sol\":234:285  string public constant name = \"Rhesus Macaque Coin\" */\n    tag_3:\n      tag_26\n      mload(0x40)\n      dup1\n      0x40\n      add\n      0x40\n      mstore\n      dup1\n      0x13\n      dup2\n      mstore\n      0x20\n      add\n      shl(0x69, 0x293432b9bab99026b0b1b0b8bab29021b7b4b7)\n      dup2\n      mstore\n      pop\n      dup2\n      jump\n    tag_26:\n      mload(0x40)\n      tag_28\n      swap2\n      swap1\n      tag_29\n      jump\t// in\n    tag_28:\n      mload(0x40)\n      dup1\n      swap2\n      sub\n      swap1\n      return\n        /* \"contracts/RhesusMacaqueCoin.sol\":3098:3307  function approve(address spender, uint256 amount) external returns (bool) {... */\n    tag_4:\n      tag_30\n      tag_31\n      calldatasize\n      0x04\n      tag_32\n      jump\t// in\n    tag_31:\n      tag_33\n      jump\t// in\n    tag_30:\n      mload(0x40)\n        /* \"#utility.yul\":1085:1099   */\n      swap1\n      iszero\n        /* \"#utility.yul\":1078:1100   */\n      iszero\n        /* \"#utility.yul\":1060:1101   */\n      dup2\n      mstore\n        /* \"#utility.yul\":1048:1050   */\n      0x20\n        /* \"#utility.yul\":1033:1051   */\n      add\n        /* \"contracts/RhesusMacaqueCoin.sol\":3098:3307  function approve(address spender, uint256 amount) external returns (bool) {... */\n      tag_28\n        /* \"#utility.yul\":920:1107   */\n      jump\n        /* \"contracts/RhesusMacaqueCoin.sol\":5413:5788  function claimAirdrop(uint256 amount, bytes32[] calldata proof) external {... */\n    tag_5:\n      tag_36\n      tag_37\n      calldatasize\n      0x04\n      tag_38\n      jump\t// in\n    tag_37:\n      tag_39\n      jump\t// in\n    tag_36:\n      stop\n        /* \"contracts/RhesusMacaqueCoin.sol\":2361:2452  function totalSupply() public view returns (uint256) {... */\n    tag_6:\n        /* \"contracts/RhesusMacaqueCoin.sol\":2405:2412  uint256 */\n      0x00\n        /* \"contracts/RhesusMacaqueCoin.sol\":2432:2444  _totalSupply */\n      sload\n        /* \"contracts/RhesusMacaqueCoin.sol\":2361:2452  function totalSupply() public view returns (uint256) {... */\n    tag_40:\n      mload(0x40)\n        /* \"#utility.yul\":2186:2211   */\n      swap1\n      dup2\n      mstore\n        /* \"#utility.yul\":2174:2176   */\n      0x20\n        /* \"#utility.yul\":2159:2177   */\n      add\n        /* \"contracts/RhesusMacaqueCoin.sol\":2361:2452  function totalSupply() public view returns (uint256) {... */\n      tag_28\n        /* \"#utility.yul\":2040:2217   */\n      jump\n        /* \"contracts/RhesusMacaqueCoin.sol\":3315:3601  function transferFrom(address from, address to, uint256 amount) external returns (bool) {... */\n    tag_7:\n      tag_30\n      tag_45\n      calldatasize\n      0x04\n      tag_46\n      jump\t// in\n    tag_45:\n      tag_47\n      jump\t// in\n        /* \"contracts/RhesusMacaqueCoin.sol\":921:946  bytes32 public merkleRoot */\n    tag_8:\n      tag_40\n      sload(0x09)\n      dup2\n      jump\n        /* \"contracts/RhesusMacaqueCoin.sol\":337:372  uint8 public constant decimals = 18 */\n    tag_9:\n      tag_53\n        /* \"contracts/RhesusMacaqueCoin.sol\":370:372  18 */\n      0x12\n        /* \"contracts/RhesusMacaqueCoin.sol\":337:372  uint8 public constant decimals = 18 */\n      dup2\n      jump\n    tag_53:\n      mload(0x40)\n        /* \"#utility.yul\":2955:2959   */\n      0xff\n        /* \"#utility.yul\":2943:2960   */\n      swap1\n      swap2\n      and\n        /* \"#utility.yul\":2925:2961   */\n      dup2\n      mstore\n        /* \"#utility.yul\":2913:2915   */\n      0x20\n        /* \"#utility.yul\":2898:2916   */\n      add\n        /* \"contracts/RhesusMacaqueCoin.sol\":337:372  uint8 public constant decimals = 18 */\n      tag_28\n        /* \"#utility.yul\":2783:2967   */\n      jump\n        /* \"contracts/RhesusMacaqueCoin.sol\":2634:2782  function getPastVotes(address account, uint256 snapshotId) external view returns (uint256) {... */\n    tag_10:\n      tag_40\n      tag_58\n      calldatasize\n      0x04\n      tag_32\n      jump\t// in\n    tag_58:\n      sub(shl(0xa0, 0x01), 0x01)\n        /* \"contracts/RhesusMacaqueCoin.sol\":2743:2762  _snapshots[account] */\n      swap2\n      swap1\n      swap2\n      and\n        /* \"contracts/RhesusMacaqueCoin.sol\":2716:2723  uint256 */\n      0x00\n        /* \"contracts/RhesusMacaqueCoin.sol\":2743:2762  _snapshots[account] */\n      swap1\n      dup2\n      mstore\n        /* \"contracts/RhesusMacaqueCoin.sol\":2743:2753  _snapshots */\n      0x06\n        /* \"contracts/RhesusMacaqueCoin.sol\":2743:2762  _snapshots[account] */\n      0x20\n      swap1\n      dup2\n      mstore\n      0x40\n      dup1\n      dup4\n      keccak256\n        /* \"contracts/RhesusMacaqueCoin.sol\":2743:2774  _snapshots[account][snapshotId] */\n      swap4\n      dup4\n      mstore\n      swap3\n      swap1\n      mstore\n      keccak256\n      sload\n      swap1\n        /* \"contracts/RhesusMacaqueCoin.sol\":2634:2782  function getPastVotes(address account, uint256 snapshotId) external view returns (uint256) {... */\n      jump\n        /* \"contracts/RhesusMacaqueCoin.sol\":544:562  address public dao */\n    tag_11:\n      sload(0x03)\n      tag_61\n      swap1\n      sub(shl(0xa0, 0x01), 0x01)\n      and\n      dup2\n      jump\n    tag_61:\n      mload(0x40)\n      sub(shl(0xa0, 0x01), 0x01)\n        /* \"#utility.yul\":3136:3168   */\n      swap1\n      swap2\n      and\n        /* \"#utility.yul\":3118:3169   */\n      dup2\n      mstore\n        /* \"#utility.yul\":3106:3108   */\n      0x20\n        /* \"#utility.yul\":3091:3109   */\n      add\n        /* \"contracts/RhesusMacaqueCoin.sol\":544:562  address public dao */\n      tag_28\n        /* \"#utility.yul\":2972:3175   */\n      jump\n        /* \"contracts/RhesusMacaqueCoin.sol\":5283:5366  function burn(uint256 amount) external {... */\n    tag_12:\n      tag_36\n      tag_66\n      calldatasize\n      0x04\n      tag_67\n      jump\t// in\n    tag_66:\n      tag_68\n      jump\t// in\n        /* \"contracts/RhesusMacaqueCoin.sol\":2243:2353  function balanceOf(address account) public view returns (uint256) {... */\n    tag_13:\n      tag_40\n      tag_70\n      calldatasize\n      0x04\n      tag_71\n      jump\t// in\n    tag_70:\n      sub(shl(0xa0, 0x01), 0x01)\n        /* \"contracts/RhesusMacaqueCoin.sol\":2327:2345  _balances[account] */\n      and\n        /* \"contracts/RhesusMacaqueCoin.sol\":2300:2307  uint256 */\n      0x00\n        /* \"contracts/RhesusMacaqueCoin.sol\":2327:2345  _balances[account] */\n      swap1\n      dup2\n      mstore\n        /* \"contracts/RhesusMacaqueCoin.sol\":2327:2336  _balances */\n      0x04\n        /* \"contracts/RhesusMacaqueCoin.sol\":2327:2345  _balances[account] */\n      0x20\n      mstore\n      0x40\n      swap1\n      keccak256\n      sload\n      swap1\n        /* \"contracts/RhesusMacaqueCoin.sol\":2243:2353  function balanceOf(address account) public view returns (uint256) {... */\n      jump\n        /* \"contracts/RhesusMacaqueCoin.sol\":292:330  string public constant symbol = \"RHEM\" */\n    tag_14:\n      tag_26\n      mload(0x40)\n      dup1\n      0x40\n      add\n      0x40\n      mstore\n      dup1\n      0x04\n      dup2\n      mstore\n      0x20\n      add\n      shl(0xe0, 0x5248454d)\n      dup2\n      mstore\n      pop\n      dup2\n      jump\n        /* \"contracts/RhesusMacaqueCoin.sol\":2460:2626  function snapshot() public onlyDAO returns (uint256) {... */\n    tag_15:\n      tag_40\n      tag_78\n      jump\t// in\n        /* \"contracts/RhesusMacaqueCoin.sol\":5796:6213  function verify(bytes32[] calldata proof, bytes32 leaf) public view returns (bool) {... */\n    tag_16:\n      tag_30\n      tag_81\n      calldatasize\n      0x04\n      tag_82\n      jump\t// in\n    tag_81:\n      tag_83\n      jump\t// in\n        /* \"contracts/RhesusMacaqueCoin.sol\":2790:2946  function transfer(address recipient, uint256 amount) public returns (bool) {... */\n    tag_17:\n      tag_30\n      tag_86\n      calldatasize\n      0x04\n      tag_32\n      jump\t// in\n    tag_86:\n      tag_87\n      jump\t// in\n        /* \"contracts/RhesusMacaqueCoin.sol\":507:537  address public communityWallet */\n    tag_18:\n      sload(0x02)\n      tag_61\n      swap1\n      sub(shl(0xa0, 0x01), 0x01)\n      and\n      dup2\n      jump\n        /* \"contracts/RhesusMacaqueCoin.sol\":953:999  mapping(address => bool) public airdropClaimed */\n    tag_19:\n      tag_30\n      tag_93\n      calldatasize\n      0x04\n      tag_71\n      jump\t// in\n    tag_93:\n      mstore(0x20, 0x0a)\n      0x00\n      swap1\n      dup2\n      mstore\n      0x40\n      swap1\n      keccak256\n      sload\n      0xff\n      and\n      dup2\n      jump\n        /* \"contracts/RhesusMacaqueCoin.sol\":477:500  address public timelock */\n    tag_20:\n      sload(0x01)\n      tag_61\n      swap1\n      sub(shl(0xa0, 0x01), 0x01)\n      and\n      dup2\n      jump\n        /* \"contracts/RhesusMacaqueCoin.sol\":2954:3090  function allowance(address owner, address spender) external view returns (uint256) {... */\n    tag_21:\n      tag_40\n      tag_100\n      calldatasize\n      0x04\n      tag_101\n      jump\t// in\n    tag_100:\n      sub(shl(0xa0, 0x01), 0x01)\n        /* \"contracts/RhesusMacaqueCoin.sol\":3055:3073  _allowances[owner] */\n      swap2\n      dup3\n      and\n        /* \"contracts/RhesusMacaqueCoin.sol\":3028:3035  uint256 */\n      0x00\n        /* \"contracts/RhesusMacaqueCoin.sol\":3055:3073  _allowances[owner] */\n      swap1\n      dup2\n      mstore\n        /* \"contracts/RhesusMacaqueCoin.sol\":3055:3066  _allowances */\n      0x05\n        /* \"contracts/RhesusMacaqueCoin.sol\":3055:3073  _allowances[owner] */\n      0x20\n      swap1\n      dup2\n      mstore\n      0x40\n      dup1\n      dup4\n      keccak256\n        /* \"contracts/RhesusMacaqueCoin.sol\":3055:3082  _allowances[owner][spender] */\n      swap4\n      swap1\n      swap5\n      and\n      dup3\n      mstore\n      swap2\n      swap1\n      swap2\n      mstore\n      keccak256\n      sload\n      swap1\n        /* \"contracts/RhesusMacaqueCoin.sol\":2954:3090  function allowance(address owner, address spender) external view returns (uint256) {... */\n      jump\n        /* \"contracts/RhesusMacaqueCoin.sol\":416:468  uint256 public constant CAP = 1_000_000_000 * 10**18 */\n    tag_22:\n      tag_40\n        /* \"contracts/RhesusMacaqueCoin.sol\":446:468  1_000_000_000 * 10**18 */\n      0x033b2e3c9fd0803ce8000000\n        /* \"contracts/RhesusMacaqueCoin.sol\":416:468  uint256 public constant CAP = 1_000_000_000 * 10**18 */\n      dup2\n      jump\n        /* \"contracts/RhesusMacaqueCoin.sol\":3098:3307  function approve(address spender, uint256 amount) external returns (bool) {... */\n    tag_33:\n        /* \"contracts/RhesusMacaqueCoin.sol\":3195:3205  msg.sender */\n      caller\n        /* \"contracts/RhesusMacaqueCoin.sol\":3166:3170  bool */\n      0x00\n        /* \"contracts/RhesusMacaqueCoin.sol\":3183:3206  _allowances[msg.sender] */\n      dup2\n      dup2\n      mstore\n        /* \"contracts/RhesusMacaqueCoin.sol\":3183:3194  _allowances */\n      0x05\n        /* \"contracts/RhesusMacaqueCoin.sol\":3183:3206  _allowances[msg.sender] */\n      0x20\n      swap1\n      dup2\n      mstore\n      0x40\n      dup1\n      dup4\n      keccak256\n      sub(shl(0xa0, 0x01), 0x01)\n        /* \"contracts/RhesusMacaqueCoin.sol\":3183:3215  _allowances[msg.sender][spender] */\n      dup8\n      and\n      dup1\n      dup6\n      mstore\n      swap3\n      mstore\n      dup1\n      dup4\n      keccak256\n        /* \"contracts/RhesusMacaqueCoin.sol\":3183:3224  _allowances[msg.sender][spender] = amount */\n      dup6\n      swap1\n      sstore\n        /* \"contracts/RhesusMacaqueCoin.sol\":3240:3277  Approval(msg.sender, spender, amount) */\n      mload\n        /* \"contracts/RhesusMacaqueCoin.sol\":3166:3170  bool */\n      swap2\n      swap3\n        /* \"contracts/RhesusMacaqueCoin.sol\":3183:3215  _allowances[msg.sender][spender] */\n      swap1\n      swap2\n        /* \"contracts/RhesusMacaqueCoin.sol\":3240:3277  Approval(msg.sender, spender, amount) */\n      0x8c5be1e5ebec7d5bd14f71427d1e84f3dd0314c0f7b2291e5b200ac8c7c3b925\n      swap1\n      tag_108\n      swap1\n        /* \"contracts/RhesusMacaqueCoin.sol\":3218:3224  amount */\n      dup7\n        /* \"#utility.yul\":2186:2211   */\n      dup2\n      mstore\n        /* \"#utility.yul\":2174:2176   */\n      0x20\n        /* \"#utility.yul\":2159:2177   */\n      add\n      swap1\n        /* \"#utility.yul\":2040:2217   */\n      jump\n        /* \"contracts/RhesusMacaqueCoin.sol\":3240:3277  Approval(msg.sender, spender, amount) */\n    tag_108:\n      mload(0x40)\n      dup1\n      swap2\n      sub\n      swap1\n      log3\n      pop\n        /* \"contracts/RhesusMacaqueCoin.sol\":3295:3299  true */\n      0x01\n        /* \"contracts/RhesusMacaqueCoin.sol\":3098:3307  function approve(address spender, uint256 amount) external returns (bool) {... */\n    tag_107:\n      swap3\n      swap2\n      pop\n      pop\n      jump\t// out\n        /* \"contracts/RhesusMacaqueCoin.sol\":5413:5788  function claimAirdrop(uint256 amount, bytes32[] calldata proof) external {... */\n    tag_39:\n        /* \"contracts/RhesusMacaqueCoin.sol\":5521:5531  msg.sender */\n      caller\n        /* \"contracts/RhesusMacaqueCoin.sol\":5506:5532  airdropClaimed[msg.sender] */\n      0x00\n      swap1\n      dup2\n      mstore\n        /* \"contracts/RhesusMacaqueCoin.sol\":5506:5520  airdropClaimed */\n      0x0a\n        /* \"contracts/RhesusMacaqueCoin.sol\":5506:5532  airdropClaimed[msg.sender] */\n      0x20\n      mstore\n      0x40\n      swap1\n      keccak256\n      sload\n      0xff\n      and\n        /* \"contracts/RhesusMacaqueCoin.sol\":5505:5532  !airdropClaimed[msg.sender] */\n      iszero\n        /* \"contracts/RhesusMacaqueCoin.sol\":5497:5552  require(!airdropClaimed[msg.sender], \"Already claimed\") */\n      tag_110\n      jumpi\n      mload(0x40)\n      shl(0xe5, 0x461bcd)\n      dup2\n      mstore\n        /* \"#utility.yul\":4579:4581   */\n      0x20\n        /* \"contracts/RhesusMacaqueCoin.sol\":5497:5552  require(!airdropClaimed[msg.sender], \"Already claimed\") */\n      0x04\n      dup3\n      add\n        /* \"#utility.yul\":4561:4582   */\n      mstore\n        /* \"#utility.yul\":4618:4620   */\n      0x0f\n        /* \"#utility.yul\":4598:4616   */\n      0x24\n      dup3\n      add\n        /* \"#utility.yul\":4591:4621   */\n      mstore\n      shl(0x8a, 0x105b1c9958591e4818db185a5b5959)\n        /* \"#utility.yul\":4637:4655   */\n      0x44\n      dup3\n      add\n        /* \"#utility.yul\":4630:4675   */\n      mstore\n        /* \"#utility.yul\":4692:4710   */\n      0x64\n      add\n        /* \"contracts/RhesusMacaqueCoin.sol\":5497:5552  require(!airdropClaimed[msg.sender], \"Already claimed\") */\n    tag_111:\n      mload(0x40)\n      dup1\n      swap2\n      sub\n      swap1\n      revert\n    tag_110:\n        /* \"contracts/RhesusMacaqueCoin.sol\":5588:5624  abi.encodePacked(msg.sender, amount) */\n      mload(0x40)\n      not(0xffffffffffffffffffffffff)\n        /* \"contracts/RhesusMacaqueCoin.sol\":5605:5615  msg.sender */\n      caller\n        /* \"#utility.yul\":4898:4900   */\n      0x60\n        /* \"#utility.yul\":4894:4909   */\n      shl\n        /* \"#utility.yul\":4890:4943   */\n      and\n        /* \"contracts/RhesusMacaqueCoin.sol\":5588:5624  abi.encodePacked(msg.sender, amount) */\n      0x20\n      dup3\n      add\n        /* \"#utility.yul\":4878:4944   */\n      mstore\n        /* \"#utility.yul\":4960:4972   */\n      0x34\n      dup2\n      add\n        /* \"#utility.yul\":4953:4981   */\n      dup5\n      swap1\n      mstore\n        /* \"contracts/RhesusMacaqueCoin.sol\":5563:5575  bytes32 leaf */\n      0x00\n      swap1\n        /* \"#utility.yul\":4997:5009   */\n      0x54\n      add\n        /* \"contracts/RhesusMacaqueCoin.sol\":5588:5624  abi.encodePacked(msg.sender, amount) */\n      mload(0x40)\n      0x20\n      dup2\n      dup4\n      sub\n      sub\n      dup2\n      mstore\n      swap1\n      0x40\n      mstore\n        /* \"contracts/RhesusMacaqueCoin.sol\":5578:5625  keccak256(abi.encodePacked(msg.sender, amount)) */\n      dup1\n      mload\n      swap1\n      0x20\n      add\n      keccak256\n        /* \"contracts/RhesusMacaqueCoin.sol\":5563:5625  bytes32 leaf = keccak256(abi.encodePacked(msg.sender, amount)) */\n      swap1\n      pop\n        /* \"contracts/RhesusMacaqueCoin.sol\":5644:5663  verify(proof, leaf) */\n      tag_115\n        /* \"contracts/RhesusMacaqueCoin.sol\":5651:5656  proof */\n      dup4\n      dup4\n        /* \"contracts/RhesusMacaqueCoin.sol\":5658:5662  leaf */\n      dup4\n        /* \"contracts/RhesusMacaqueCoin.sol\":5644:5650  verify */\n      tag_83\n        /* \"contracts/RhesusMacaqueCoin.sol\":5644:5663  verify(proof, leaf) */\n      jump\t// in\n    tag_115:\n        /* \"contracts/RhesusMacaqueCoin.sol\":5636:5681  require(verify(proof, leaf), \"Invalid proof\") */\n      tag_116\n      jumpi\n      mload(0x40)\n      shl(0xe5, 0x461bcd)\n      dup2\n      mstore\n        /* \"#utility.yul\":5222:5224   */\n      0x20\n        /* \"contracts/RhesusMacaqueCoin.sol\":5636:5681  require(verify(proof, leaf), \"Invalid proof\") */\n      0x04\n      dup3\n      add\n        /* \"#utility.yul\":5204:5225   */\n      mstore\n        /* \"#utility.yul\":5261:5263   */\n      0x0d\n        /* \"#utility.yul\":5241:5259   */\n      0x24\n      dup3\n      add\n        /* \"#utility.yul\":5234:5264   */\n      mstore\n      shl(0x99, 0x24b73b30b634b210383937b7b3)\n        /* \"#utility.yul\":5280:5298   */\n      0x44\n      dup3\n      add\n        /* \"#utility.yul\":5273:5316   */\n      mstore\n        /* \"#utility.yul\":5333:5351   */\n      0x64\n      add\n        /* \"contracts/RhesusMacaqueCoin.sol\":5636:5681  require(verify(proof, leaf), \"Invalid proof\") */\n      tag_111\n        /* \"#utility.yul\":5020:5357   */\n      jump\n        /* \"contracts/RhesusMacaqueCoin.sol\":5636:5681  require(verify(proof, leaf), \"Invalid proof\") */\n    tag_116:\n        /* \"contracts/RhesusMacaqueCoin.sol\":5707:5717  msg.sender */\n      caller\n        /* \"contracts/RhesusMacaqueCoin.sol\":5692:5718  airdropClaimed[msg.sender] */\n      0x00\n      dup2\n      dup2\n      mstore\n        /* \"contracts/RhesusMacaqueCoin.sol\":5692:5706  airdropClaimed */\n      0x0a\n        /* \"contracts/RhesusMacaqueCoin.sol\":5692:5718  airdropClaimed[msg.sender] */\n      0x20\n      mstore\n      0x40\n      swap1\n      keccak256\n        /* \"contracts/RhesusMacaqueCoin.sol\":5692:5725  airdropClaimed[msg.sender] = true */\n      dup1\n      sload\n      not(0xff)\n      and\n        /* \"contracts/RhesusMacaqueCoin.sol\":5721:5725  true */\n      0x01\n        /* \"contracts/RhesusMacaqueCoin.sol\":5692:5725  airdropClaimed[msg.sender] = true */\n      or\n      swap1\n      sstore\n        /* \"contracts/RhesusMacaqueCoin.sol\":5736:5780  _transfer(address(this), msg.sender, amount) */\n      tag_119\n      swap1\n        /* \"contracts/RhesusMacaqueCoin.sol\":5754:5758  this */\n      address\n      swap1\n        /* \"contracts/RhesusMacaqueCoin.sol\":5773:5779  amount */\n      dup7\n        /* \"contracts/RhesusMacaqueCoin.sol\":5736:5745  _transfer */\n      tag_120\n        /* \"contracts/RhesusMacaqueCoin.sol\":5736:5780  _transfer(address(this), msg.sender, amount) */\n      jump\t// in\n    tag_119:\n        /* \"contracts/RhesusMacaqueCoin.sol\":5486:5788  {... */\n      pop\n        /* \"contracts/RhesusMacaqueCoin.sol\":5413:5788  function claimAirdrop(uint256 amount, bytes32[] calldata proof) external {... */\n      pop\n      pop\n      pop\n      jump\t// out\n        /* \"contracts/RhesusMacaqueCoin.sol\":3315:3601  function transferFrom(address from, address to, uint256 amount) external returns (bool) {... */\n    tag_47:\n      sub(shl(0xa0, 0x01), 0x01)\n        /* \"contracts/RhesusMacaqueCoin.sol\":3422:3439  _allowances[from] */\n      dup4\n      and\n        /* \"contracts/RhesusMacaqueCoin.sol\":3397:3401  bool */\n      0x00\n        /* \"contracts/RhesusMacaqueCoin.sol\":3422:3439  _allowances[from] */\n      swap1\n      dup2\n      mstore\n        /* \"contracts/RhesusMacaqueCoin.sol\":3422:3433  _allowances */\n      0x05\n        /* \"contracts/RhesusMacaqueCoin.sol\":3422:3439  _allowances[from] */\n      0x20\n      swap1\n      dup2\n      mstore\n      0x40\n      dup1\n      dup4\n      keccak256\n        /* \"contracts/RhesusMacaqueCoin.sol\":3440:3450  msg.sender */\n      caller\n        /* \"contracts/RhesusMacaqueCoin.sol\":3422:3451  _allowances[from][msg.sender] */\n      dup5\n      mstore\n      swap1\n      swap2\n      mstore\n      dup2\n      keccak256\n      sload\n        /* \"contracts/RhesusMacaqueCoin.sol\":3422:3461  _allowances[from][msg.sender] >= amount */\n      dup3\n      gt\n      iszero\n        /* \"contracts/RhesusMacaqueCoin.sol\":3414:3483  require(_allowances[from][msg.sender] >= amount, \"Allowance too low\") */\n      tag_123\n      jumpi\n      mload(0x40)\n      shl(0xe5, 0x461bcd)\n      dup2\n      mstore\n        /* \"#utility.yul\":5564:5566   */\n      0x20\n        /* \"contracts/RhesusMacaqueCoin.sol\":3414:3483  require(_allowances[from][msg.sender] >= amount, \"Allowance too low\") */\n      0x04\n      dup3\n      add\n        /* \"#utility.yul\":5546:5567   */\n      mstore\n        /* \"#utility.yul\":5603:5605   */\n      0x11\n        /* \"#utility.yul\":5583:5601   */\n      0x24\n      dup3\n      add\n        /* \"#utility.yul\":5576:5606   */\n      mstore\n      shl(0x78, 0x416c6c6f77616e636520746f6f206c6f77)\n        /* \"#utility.yul\":5622:5640   */\n      0x44\n      dup3\n      add\n        /* \"#utility.yul\":5615:5662   */\n      mstore\n        /* \"#utility.yul\":5679:5697   */\n      0x64\n      add\n        /* \"contracts/RhesusMacaqueCoin.sol\":3414:3483  require(_allowances[from][msg.sender] >= amount, \"Allowance too low\") */\n      tag_111\n        /* \"#utility.yul\":5362:5703   */\n      jump\n        /* \"contracts/RhesusMacaqueCoin.sol\":3414:3483  require(_allowances[from][msg.sender] >= amount, \"Allowance too low\") */\n    tag_123:\n      sub(shl(0xa0, 0x01), 0x01)\n        /* \"contracts/RhesusMacaqueCoin.sol\":3494:3511  _allowances[from] */\n      dup5\n      and\n      0x00\n      swap1\n      dup2\n      mstore\n        /* \"contracts/RhesusMacaqueCoin.sol\":3494:3505  _allowances */\n      0x05\n        /* \"contracts/RhesusMacaqueCoin.sol\":3494:3511  _allowances[from] */\n      0x20\n      swap1\n      dup2\n      mstore\n      0x40\n      dup1\n      dup4\n      keccak256\n        /* \"contracts/RhesusMacaqueCoin.sol\":3512:3522  msg.sender */\n      caller\n        /* \"contracts/RhesusMacaqueCoin.sol\":3494:3523  _allowances[from][msg.sender] */\n      dup5\n      mstore\n      swap1\n      swap2\n      mstore\n      dup2\n      keccak256\n        /* \"contracts/RhesusMacaqueCoin.sol\":3494:3533  _allowances[from][msg.sender] -= amount */\n      dup1\n      sload\n        /* \"contracts/RhesusMacaqueCoin.sol\":3527:3533  amount */\n      dup5\n      swap3\n        /* \"contracts/RhesusMacaqueCoin.sol\":3494:3511  _allowances[from] */\n      swap1\n        /* \"contracts/RhesusMacaqueCoin.sol\":3494:3533  _allowances[from][msg.sender] -= amount */\n      tag_126\n      swap1\n        /* \"contracts/RhesusMacaqueCoin.sol\":3527:3533  amount */\n      dup5\n      swap1\n        /* \"contracts/RhesusMacaqueCoin.sol\":3494:3533  _allowances[from][msg.sender] -= amount */\n      tag_127\n      jump\t// in\n    tag_126:\n      swap1\n      swap2\n      sstore\n      pop\n        /* \"contracts/RhesusMacaqueCoin.sol\":3544:3571  _transfer(from, to, amount) */\n      tag_128\n      swap1\n      pop\n        /* \"contracts/RhesusMacaqueCoin.sol\":3554:3558  from */\n      dup5\n        /* \"contracts/RhesusMacaqueCoin.sol\":3560:3562  to */\n      dup5\n        /* \"contracts/RhesusMacaqueCoin.sol\":3564:3570  amount */\n      dup5\n        /* \"contracts/RhesusMacaqueCoin.sol\":3544:3553  _transfer */\n      tag_120\n        /* \"contracts/RhesusMacaqueCoin.sol\":3544:3571  _transfer(from, to, amount) */\n      jump\t// in\n    tag_128:\n      pop\n        /* \"contracts/RhesusMacaqueCoin.sol\":3589:3593  true */\n      0x01\n        /* \"contracts/RhesusMacaqueCoin.sol\":3315:3601  function transferFrom(address from, address to, uint256 amount) external returns (bool) {... */\n      swap4\n      swap3\n      pop\n      pop\n      pop\n      jump\t// out\n        /* \"contracts/RhesusMacaqueCoin.sol\":5283:5366  function burn(uint256 amount) external {... */\n    tag_68:\n        /* \"contracts/RhesusMacaqueCoin.sol\":5333:5358  _burn(msg.sender, amount) */\n      tag_131\n        /* \"contracts/RhesusMacaqueCoin.sol\":5339:5349  msg.sender */\n      caller\n        /* \"contracts/RhesusMacaqueCoin.sol\":5351:5357  amount */\n      dup3\n        /* \"contracts/RhesusMacaqueCoin.sol\":5333:5338  _burn */\n      tag_132\n        /* \"contracts/RhesusMacaqueCoin.sol\":5333:5358  _burn(msg.sender, amount) */\n      jump\t// in\n    tag_131:\n        /* \"contracts/RhesusMacaqueCoin.sol\":5283:5366  function burn(uint256 amount) external {... */\n      pop\n      jump\t// out\n        /* \"contracts/RhesusMacaqueCoin.sol\":2460:2626  function snapshot() public onlyDAO returns (uint256) {... */\n    tag_78:\n        /* \"contracts/RhesusMacaqueCoin.sol\":1298:1301  dao */\n      sload(0x03)\n        /* \"contracts/RhesusMacaqueCoin.sol\":2504:2511  uint256 */\n      0x00\n      swap1\n      sub(shl(0xa0, 0x01), 0x01)\n        /* \"contracts/RhesusMacaqueCoin.sol\":1298:1301  dao */\n      and\n        /* \"contracts/RhesusMacaqueCoin.sol\":1284:1294  msg.sender */\n      caller\n        /* \"contracts/RhesusMacaqueCoin.sol\":1284:1301  msg.sender == dao */\n      eq\n        /* \"contracts/RhesusMacaqueCoin.sol\":1276:1313  require(msg.sender == dao, \"Not DAO\") */\n      tag_135\n      jumpi\n      mload(0x40)\n      shl(0xe5, 0x461bcd)\n      dup2\n      mstore\n        /* \"#utility.yul\":6175:6177   */\n      0x20\n        /* \"contracts/RhesusMacaqueCoin.sol\":1276:1313  require(msg.sender == dao, \"Not DAO\") */\n      0x04\n      dup3\n      add\n        /* \"#utility.yul\":6157:6178   */\n      mstore\n        /* \"#utility.yul\":6214:6215   */\n      0x07\n        /* \"#utility.yul\":6194:6212   */\n      0x24\n      dup3\n      add\n        /* \"#utility.yul\":6187:6216   */\n      mstore\n      shl(0xc8, 0x4e6f742044414f)\n        /* \"#utility.yul\":6232:6250   */\n      0x44\n      dup3\n      add\n        /* \"#utility.yul\":6225:6262   */\n      mstore\n        /* \"#utility.yul\":6279:6297   */\n      0x64\n      add\n        /* \"contracts/RhesusMacaqueCoin.sol\":1276:1313  require(msg.sender == dao, \"Not DAO\") */\n      tag_111\n        /* \"#utility.yul\":5973:6303   */\n      jump\n        /* \"contracts/RhesusMacaqueCoin.sol\":1276:1313  require(msg.sender == dao, \"Not DAO\") */\n    tag_135:\n        /* \"contracts/RhesusMacaqueCoin.sol\":2524:2540  _snapshotCounter */\n      0x08\n        /* \"contracts/RhesusMacaqueCoin.sol\":2524:2542  _snapshotCounter++ */\n      dup1\n      sload\n      swap1\n        /* \"contracts/RhesusMacaqueCoin.sol\":2524:2540  _snapshotCounter */\n      0x00\n        /* \"contracts/RhesusMacaqueCoin.sol\":2524:2542  _snapshotCounter++ */\n      tag_139\n      dup4\n      tag_140\n      jump\t// in\n    tag_139:\n      swap2\n      swap1\n      pop\n      sstore\n      pop\n        /* \"contracts/RhesusMacaqueCoin.sol\":2558:2584  Snapshot(_snapshotCounter) */\n      0x8030e83b04d87bef53480e26263266d6ca66863aa8506aca6f2559d18aa1cb67\n        /* \"contracts/RhesusMacaqueCoin.sol\":2567:2583  _snapshotCounter */\n      sload(0x08)\n        /* \"contracts/RhesusMacaqueCoin.sol\":2558:2584  Snapshot(_snapshotCounter) */\n      mload(0x40)\n      tag_141\n      swap2\n        /* \"#utility.yul\":2186:2211   */\n      dup2\n      mstore\n        /* \"#utility.yul\":2174:2176   */\n      0x20\n        /* \"#utility.yul\":2159:2177   */\n      add\n      swap1\n        /* \"#utility.yul\":2040:2217   */\n      jump\n        /* \"contracts/RhesusMacaqueCoin.sol\":2558:2584  Snapshot(_snapshotCounter) */\n    tag_141:\n      mload(0x40)\n      dup1\n      swap2\n      sub\n      swap1\n      log1\n      pop\n        /* \"contracts/RhesusMacaqueCoin.sol\":2602:2618  _snapshotCounter */\n      sload(0x08)\n        /* \"contracts/RhesusMacaqueCoin.sol\":2460:2626  function snapshot() public onlyDAO returns (uint256) {... */\n      swap1\n      jump\t// out\n        /* \"contracts/RhesusMacaqueCoin.sol\":5796:6213  function verify(bytes32[] calldata proof, bytes32 leaf) public view returns (bool) {... */\n    tag_83:\n        /* \"contracts/RhesusMacaqueCoin.sol\":5873:5877  bool */\n      0x00\n        /* \"contracts/RhesusMacaqueCoin.sol\":5905:5909  leaf */\n      dup2\n        /* \"contracts/RhesusMacaqueCoin.sol\":5873:5877  bool */\n      dup2\n        /* \"contracts/RhesusMacaqueCoin.sol\":5920:6170  for (uint256 i = 0; i < proof.length; i++) {... */\n    tag_143:\n        /* \"contracts/RhesusMacaqueCoin.sol\":5940:5956  i < proof.length */\n      dup5\n      dup2\n      lt\n        /* \"contracts/RhesusMacaqueCoin.sol\":5920:6170  for (uint256 i = 0; i < proof.length; i++) {... */\n      iszero\n      tag_144\n      jumpi\n        /* \"contracts/RhesusMacaqueCoin.sol\":5978:5993  bytes32 element */\n      0x00\n        /* \"contracts/RhesusMacaqueCoin.sol\":5996:6001  proof */\n      dup7\n      dup7\n        /* \"contracts/RhesusMacaqueCoin.sol\":6002:6003  i */\n      dup4\n        /* \"contracts/RhesusMacaqueCoin.sol\":5996:6004  proof[i] */\n      dup2\n      dup2\n      lt\n      tag_147\n      jumpi\n      tag_147\n      tag_148\n      jump\t// in\n    tag_147:\n      swap1\n      pop\n      0x20\n      mul\n      add\n      calldataload\n        /* \"contracts/RhesusMacaqueCoin.sol\":5978:6004  bytes32 element = proof[i] */\n      swap1\n      pop\n        /* \"contracts/RhesusMacaqueCoin.sol\":6031:6038  element */\n      dup1\n        /* \"contracts/RhesusMacaqueCoin.sol\":6023:6027  hash */\n      dup4\n        /* \"contracts/RhesusMacaqueCoin.sol\":6023:6038  hash <= element */\n      gt\n        /* \"contracts/RhesusMacaqueCoin.sol\":6019:6158  if (hash <= element) hash = keccak256(abi.encodePacked(hash, element));... */\n      tag_149\n      jumpi\n        /* \"contracts/RhesusMacaqueCoin.sol\":6057:6088  abi.encodePacked(hash, element) */\n      0x40\n      dup1\n      mload\n      0x20\n      dup2\n      add\n        /* \"#utility.yul\":6737:6756   */\n      dup6\n      swap1\n      mstore\n        /* \"#utility.yul\":6772:6784   */\n      swap1\n      dup2\n      add\n        /* \"#utility.yul\":6765:6793   */\n      dup3\n      swap1\n      mstore\n        /* \"#utility.yul\":6809:6821   */\n      0x60\n      add\n        /* \"contracts/RhesusMacaqueCoin.sol\":6057:6088  abi.encodePacked(hash, element) */\n      mload(0x40)\n      0x20\n      dup2\n      dup4\n      sub\n      sub\n      dup2\n      mstore\n      swap1\n      0x40\n      mstore\n        /* \"contracts/RhesusMacaqueCoin.sol\":6047:6089  keccak256(abi.encodePacked(hash, element)) */\n      dup1\n      mload\n      swap1\n      0x20\n      add\n      keccak256\n        /* \"contracts/RhesusMacaqueCoin.sol\":6040:6089  hash = keccak256(abi.encodePacked(hash, element)) */\n      swap3\n      pop\n        /* \"contracts/RhesusMacaqueCoin.sol\":6019:6158  if (hash <= element) hash = keccak256(abi.encodePacked(hash, element));... */\n      jump(tag_152)\n    tag_149:\n        /* \"contracts/RhesusMacaqueCoin.sol\":6126:6157  abi.encodePacked(element, hash) */\n      0x40\n      dup1\n      mload\n      0x20\n      dup2\n      add\n        /* \"#utility.yul\":6737:6756   */\n      dup4\n      swap1\n      mstore\n        /* \"#utility.yul\":6772:6784   */\n      swap1\n      dup2\n      add\n        /* \"#utility.yul\":6765:6793   */\n      dup5\n      swap1\n      mstore\n        /* \"#utility.yul\":6809:6821   */\n      0x60\n      add\n        /* \"contracts/RhesusMacaqueCoin.sol\":6126:6157  abi.encodePacked(element, hash) */\n      mload(0x40)\n      0x20\n      dup2\n      dup4\n      sub\n      sub\n      dup2\n      mstore\n      swap1\n      0x40\n      mstore\n        /* \"contracts/RhesusMacaqueCoin.sol\":6116:6158  keccak256(abi.encodePacked(element, hash)) */\n      dup1\n      mload\n      swap1\n      0x20\n      add\n      keccak256\n        /* \"contracts/RhesusMacaqueCoin.sol\":6109:6158  hash = keccak256(abi.encodePacked(element, hash)) */\n      swap3\n      pop\n        /* \"contracts/RhesusMacaqueCoin.sol\":6019:6158  if (hash <= element) hash = keccak256(abi.encodePacked(hash, element));... */\n    tag_152:\n      pop\n        /* \"contracts/RhesusMacaqueCoin.sol\":5958:5961  i++ */\n      0x01\n      add\n        /* \"contracts/RhesusMacaqueCoin.sol\":5920:6170  for (uint256 i = 0; i < proof.length; i++) {... */\n      jump(tag_143)\n    tag_144:\n      pop\n        /* \"contracts/RhesusMacaqueCoin.sol\":6195:6205  merkleRoot */\n      sload(0x09)\n        /* \"contracts/RhesusMacaqueCoin.sol\":6187:6205  hash == merkleRoot */\n      eq\n      swap5\n        /* \"contracts/RhesusMacaqueCoin.sol\":5796:6213  function verify(bytes32[] calldata proof, bytes32 leaf) public view returns (bool) {... */\n      swap4\n      pop\n      pop\n      pop\n      pop\n      jump\t// out\n        /* \"contracts/RhesusMacaqueCoin.sol\":2790:2946  function transfer(address recipient, uint256 amount) public returns (bool) {... */\n    tag_87:\n        /* \"contracts/RhesusMacaqueCoin.sol\":2859:2863  bool */\n      0x00\n        /* \"contracts/RhesusMacaqueCoin.sol\":2876:2916  _transfer(msg.sender, recipient, amount) */\n      tag_155\n        /* \"contracts/RhesusMacaqueCoin.sol\":2886:2896  msg.sender */\n      caller\n        /* \"contracts/RhesusMacaqueCoin.sol\":2898:2907  recipient */\n      dup5\n        /* \"contracts/RhesusMacaqueCoin.sol\":2909:2915  amount */\n      dup5\n        /* \"contracts/RhesusMacaqueCoin.sol\":2876:2885  _transfer */\n      tag_120\n        /* \"contracts/RhesusMacaqueCoin.sol\":2876:2916  _transfer(msg.sender, recipient, amount) */\n      jump\t// in\n    tag_155:\n      pop\n        /* \"contracts/RhesusMacaqueCoin.sol\":2934:2938  true */\n      0x01\n        /* \"contracts/RhesusMacaqueCoin.sol\":2790:2946  function transfer(address recipient, uint256 amount) public returns (bool) {... */\n      swap3\n      swap2\n      pop\n      pop\n      jump\t// out\n        /* \"contracts/RhesusMacaqueCoin.sol\":4212:5053  function _transfer(address from, address to, uint256 amount) internal {... */\n    tag_120:\n      sub(shl(0xa0, 0x01), 0x01)\n        /* \"contracts/RhesusMacaqueCoin.sol\":4301:4316  _balances[from] */\n      dup4\n      and\n      0x00\n      swap1\n      dup2\n      mstore\n        /* \"contracts/RhesusMacaqueCoin.sol\":4301:4310  _balances */\n      0x04\n        /* \"contracts/RhesusMacaqueCoin.sol\":4301:4316  _balances[from] */\n      0x20\n      mstore\n      0x40\n      swap1\n      keccak256\n      sload\n        /* \"contracts/RhesusMacaqueCoin.sol\":4301:4326  _balances[from] >= amount */\n      dup2\n      gt\n      iszero\n        /* \"contracts/RhesusMacaqueCoin.sol\":4293:4343  require(_balances[from] >= amount, \"Insufficient\") */\n      tag_158\n      jumpi\n      mload(0x40)\n      shl(0xe5, 0x461bcd)\n      dup2\n      mstore\n        /* \"#utility.yul\":7034:7036   */\n      0x20\n        /* \"contracts/RhesusMacaqueCoin.sol\":4293:4343  require(_balances[from] >= amount, \"Insufficient\") */\n      0x04\n      dup3\n      add\n        /* \"#utility.yul\":7016:7037   */\n      mstore\n        /* \"#utility.yul\":7073:7075   */\n      0x0c\n        /* \"#utility.yul\":7053:7071   */\n      0x24\n      dup3\n      add\n        /* \"#utility.yul\":7046:7076   */\n      mstore\n      shl(0xa2, 0x125b9cdd59999a58da595b9d)\n        /* \"#utility.yul\":7092:7110   */\n      0x44\n      dup3\n      add\n        /* \"#utility.yul\":7085:7127   */\n      mstore\n        /* \"#utility.yul\":7144:7162   */\n      0x64\n      add\n        /* \"contracts/RhesusMacaqueCoin.sol\":4293:4343  require(_balances[from] >= amount, \"Insufficient\") */\n      tag_111\n        /* \"#utility.yul\":6832:7168   */\n      jump\n        /* \"contracts/RhesusMacaqueCoin.sol\":4293:4343  require(_balances[from] >= amount, \"Insufficient\") */\n    tag_158:\n      sub(shl(0xa0, 0x01), 0x01)\n        /* \"contracts/RhesusMacaqueCoin.sol\":4362:4378  to != address(0) */\n      dup3\n      and\n        /* \"contracts/RhesusMacaqueCoin.sol\":4354:4395  require(to != address(0), \"Zero address\") */\n      tag_161\n      jumpi\n      mload(0x40)\n      shl(0xe5, 0x461bcd)\n      dup2\n      mstore\n        /* \"#utility.yul\":7375:7377   */\n      0x20\n        /* \"contracts/RhesusMacaqueCoin.sol\":4354:4395  require(to != address(0), \"Zero address\") */\n      0x04\n      dup3\n      add\n        /* \"#utility.yul\":7357:7378   */\n      mstore\n        /* \"#utility.yul\":7414:7416   */\n      0x0c\n        /* \"#utility.yul\":7394:7412   */\n      0x24\n      dup3\n      add\n        /* \"#utility.yul\":7387:7417   */\n      mstore\n      shl(0xa0, 0x5a65726f2061646472657373)\n        /* \"#utility.yul\":7433:7451   */\n      0x44\n      dup3\n      add\n        /* \"#utility.yul\":7426:7468   */\n      mstore\n        /* \"#utility.yul\":7485:7503   */\n      0x64\n      add\n        /* \"contracts/RhesusMacaqueCoin.sol\":4354:4395  require(to != address(0), \"Zero address\") */\n      tag_111\n        /* \"#utility.yul\":7173:7509   */\n      jump\n        /* \"contracts/RhesusMacaqueCoin.sol\":4354:4395  require(to != address(0), \"Zero address\") */\n    tag_161:\n        /* \"contracts/RhesusMacaqueCoin.sol\":4408:4423  uint256 burnFee */\n      0x00\n        /* \"contracts/RhesusMacaqueCoin.sol\":4441:4445  1000 */\n      0x03e8\n        /* \"contracts/RhesusMacaqueCoin.sol\":4427:4437  amount * 5 */\n      tag_164\n        /* \"contracts/RhesusMacaqueCoin.sol\":4427:4433  amount */\n      dup4\n        /* \"contracts/RhesusMacaqueCoin.sol\":4436:4437  5 */\n      0x05\n        /* \"contracts/RhesusMacaqueCoin.sol\":4427:4437  amount * 5 */\n      tag_165\n      jump\t// in\n    tag_164:\n        /* \"contracts/RhesusMacaqueCoin.sol\":4426:4445  (amount * 5) / 1000 */\n      tag_166\n      swap2\n      swap1\n      tag_167\n      jump\t// in\n    tag_166:\n        /* \"contracts/RhesusMacaqueCoin.sol\":4408:4445  uint256 burnFee = (amount * 5) / 1000 */\n      swap1\n      pop\n        /* \"contracts/RhesusMacaqueCoin.sol\":4474:4488  uint256 devFee */\n      0x00\n        /* \"contracts/RhesusMacaqueCoin.sol\":4507:4512  10000 */\n      0x2710\n        /* \"contracts/RhesusMacaqueCoin.sol\":4492:4503  amount * 25 */\n      tag_168\n        /* \"contracts/RhesusMacaqueCoin.sol\":4492:4498  amount */\n      dup5\n        /* \"contracts/RhesusMacaqueCoin.sol\":4501:4503  25 */\n      0x19\n        /* \"contracts/RhesusMacaqueCoin.sol\":4492:4503  amount * 25 */\n      tag_165\n      jump\t// in\n    tag_168:\n        /* \"contracts/RhesusMacaqueCoin.sol\":4491:4512  (amount * 25) / 10000 */\n      tag_169\n      swap2\n      swap1\n      tag_167\n      jump\t// in\n    tag_169:\n        /* \"contracts/RhesusMacaqueCoin.sol\":4474:4512  uint256 devFee = (amount * 25) / 10000 */\n      swap1\n      pop\n        /* \"contracts/RhesusMacaqueCoin.sol\":4541:4560  uint256 finalAmount */\n      0x00\n        /* \"contracts/RhesusMacaqueCoin.sol\":4474:4512  uint256 devFee = (amount * 25) / 10000 */\n      dup2\n        /* \"contracts/RhesusMacaqueCoin.sol\":4563:4579  amount - burnFee */\n      tag_170\n        /* \"contracts/RhesusMacaqueCoin.sol\":4572:4579  burnFee */\n      dup5\n        /* \"contracts/RhesusMacaqueCoin.sol\":4563:4569  amount */\n      dup7\n        /* \"contracts/RhesusMacaqueCoin.sol\":4563:4579  amount - burnFee */\n      tag_127\n      jump\t// in\n    tag_170:\n        /* \"contracts/RhesusMacaqueCoin.sol\":4563:4588  amount - burnFee - devFee */\n      tag_171\n      swap2\n      swap1\n      tag_127\n      jump\t// in\n    tag_171:\n      sub(shl(0xa0, 0x01), 0x01)\n        /* \"contracts/RhesusMacaqueCoin.sol\":4601:4616  _balances[from] */\n      dup8\n      and\n      0x00\n      swap1\n      dup2\n      mstore\n        /* \"contracts/RhesusMacaqueCoin.sol\":4601:4610  _balances */\n      0x04\n        /* \"contracts/RhesusMacaqueCoin.sol\":4601:4616  _balances[from] */\n      0x20\n      mstore\n      0x40\n      dup2\n      keccak256\n        /* \"contracts/RhesusMacaqueCoin.sol\":4601:4626  _balances[from] -= amount */\n      dup1\n      sload\n        /* \"contracts/RhesusMacaqueCoin.sol\":4541:4588  uint256 finalAmount = amount - burnFee - devFee */\n      swap3\n      swap4\n      pop\n        /* \"contracts/RhesusMacaqueCoin.sol\":4620:4626  amount */\n      dup7\n      swap3\n        /* \"contracts/RhesusMacaqueCoin.sol\":4601:4616  _balances[from] */\n      swap1\n      swap2\n      swap1\n        /* \"contracts/RhesusMacaqueCoin.sol\":4601:4626  _balances[from] -= amount */\n      tag_172\n      swap1\n        /* \"contracts/RhesusMacaqueCoin.sol\":4620:4626  amount */\n      dup5\n      swap1\n        /* \"contracts/RhesusMacaqueCoin.sol\":4601:4626  _balances[from] -= amount */\n      tag_127\n      jump\t// in\n    tag_172:\n      swap1\n      swap2\n      sstore\n      pop\n      pop\n      sub(shl(0xa0, 0x01), 0x01)\n        /* \"contracts/RhesusMacaqueCoin.sol\":4637:4650  _balances[to] */\n      dup6\n      and\n      0x00\n      swap1\n      dup2\n      mstore\n        /* \"contracts/RhesusMacaqueCoin.sol\":4637:4646  _balances */\n      0x04\n        /* \"contracts/RhesusMacaqueCoin.sol\":4637:4650  _balances[to] */\n      0x20\n      mstore\n      0x40\n      dup2\n      keccak256\n        /* \"contracts/RhesusMacaqueCoin.sol\":4637:4665  _balances[to] += finalAmount */\n      dup1\n      sload\n        /* \"contracts/RhesusMacaqueCoin.sol\":4654:4665  finalAmount */\n      dup4\n      swap3\n        /* \"contracts/RhesusMacaqueCoin.sol\":4637:4650  _balances[to] */\n      swap1\n        /* \"contracts/RhesusMacaqueCoin.sol\":4637:4665  _balances[to] += finalAmount */\n      tag_173\n      swap1\n        /* \"contracts/RhesusMacaqueCoin.sol\":4654:4665  finalAmount */\n      dup5\n      swap1\n        /* \"contracts/RhesusMacaqueCoin.sol\":4637:4665  _balances[to] += finalAmount */\n      tag_174\n      jump\t// in\n    tag_173:\n      swap1\n      swap2\n      sstore\n      pop\n      pop\n        /* \"contracts/RhesusMacaqueCoin.sol\":4686:4701  communityWallet */\n      and(sub(shl(0xa0, 0x01), 0x01), sload(0x02))\n        /* \"contracts/RhesusMacaqueCoin.sol\":4676:4702  _balances[communityWallet] */\n      0x00\n      swap1\n      dup2\n      mstore\n        /* \"contracts/RhesusMacaqueCoin.sol\":4676:4685  _balances */\n      0x04\n        /* \"contracts/RhesusMacaqueCoin.sol\":4676:4702  _balances[communityWallet] */\n      0x20\n      mstore\n      0x40\n      dup2\n      keccak256\n        /* \"contracts/RhesusMacaqueCoin.sol\":4676:4712  _balances[communityWallet] += devFee */\n      dup1\n      sload\n        /* \"contracts/RhesusMacaqueCoin.sol\":4706:4712  devFee */\n      dup5\n      swap3\n        /* \"contracts/RhesusMacaqueCoin.sol\":4676:4702  _balances[communityWallet] */\n      swap1\n        /* \"contracts/RhesusMacaqueCoin.sol\":4676:4712  _balances[communityWallet] += devFee */\n      tag_175\n      swap1\n        /* \"contracts/RhesusMacaqueCoin.sol\":4706:4712  devFee */\n      dup5\n      swap1\n        /* \"contracts/RhesusMacaqueCoin.sol\":4676:4712  _balances[communityWallet] += devFee */\n      tag_174\n      jump\t// in\n    tag_175:\n      swap3\n      pop\n      pop\n      dup2\n      swap1\n      sstore\n      pop\n        /* \"contracts/RhesusMacaqueCoin.sol\":4739:4746  burnFee */\n      dup3\n        /* \"contracts/RhesusMacaqueCoin.sol\":4723:4735  _totalSupply */\n      0x00\n      0x00\n        /* \"contracts/RhesusMacaqueCoin.sol\":4723:4746  _totalSupply -= burnFee */\n      dup3\n      dup3\n      sload\n      tag_176\n      swap2\n      swap1\n      tag_127\n      jump\t// in\n    tag_176:\n      swap1\n      swap2\n      sstore\n      pop\n        /* \"contracts/RhesusMacaqueCoin.sol\":4759:4780  _updateSnapshot(from) */\n      tag_177\n      swap1\n      pop\n        /* \"contracts/RhesusMacaqueCoin.sol\":4775:4779  from */\n      dup7\n        /* \"contracts/RhesusMacaqueCoin.sol\":4759:4774  _updateSnapshot */\n      tag_178\n        /* \"contracts/RhesusMacaqueCoin.sol\":4759:4780  _updateSnapshot(from) */\n      jump\t// in\n    tag_177:\n        /* \"contracts/RhesusMacaqueCoin.sol\":4791:4810  _updateSnapshot(to) */\n      tag_179\n        /* \"contracts/RhesusMacaqueCoin.sol\":4807:4809  to */\n      dup6\n        /* \"contracts/RhesusMacaqueCoin.sol\":4791:4806  _updateSnapshot */\n      tag_178\n        /* \"contracts/RhesusMacaqueCoin.sol\":4791:4810  _updateSnapshot(to) */\n      jump\t// in\n    tag_179:\n        /* \"contracts/RhesusMacaqueCoin.sol\":4837:4852  communityWallet */\n      sload(0x02)\n        /* \"contracts/RhesusMacaqueCoin.sol\":4821:4853  _updateSnapshot(communityWallet) */\n      tag_180\n      swap1\n      sub(shl(0xa0, 0x01), 0x01)\n        /* \"contracts/RhesusMacaqueCoin.sol\":4837:4852  communityWallet */\n      and\n        /* \"contracts/RhesusMacaqueCoin.sol\":4821:4836  _updateSnapshot */\n      tag_178\n        /* \"contracts/RhesusMacaqueCoin.sol\":4821:4853  _updateSnapshot(communityWallet) */\n      jump\t// in\n    tag_180:\n        /* \"contracts/RhesusMacaqueCoin.sol\":4886:4888  to */\n      dup5\n      sub(shl(0xa0, 0x01), 0x01)\n        /* \"contracts/RhesusMacaqueCoin.sol\":4871:4902  Transfer(from, to, finalAmount) */\n      and\n        /* \"contracts/RhesusMacaqueCoin.sol\":4880:4884  from */\n      dup7\n      sub(shl(0xa0, 0x01), 0x01)\n        /* \"contracts/RhesusMacaqueCoin.sol\":4871:4902  Transfer(from, to, finalAmount) */\n      and\n      mload(0x00)\n      codecopy(0x00, data_ada389e1fc24a8587c776340efb91b36e675792ab631816100d55df0b5cf3cbc, 0x20)\n      mload(0x00)\n      swap1\n      0x00\n      mstore\n        /* \"contracts/RhesusMacaqueCoin.sol\":4890:4901  finalAmount */\n      dup4\n        /* \"contracts/RhesusMacaqueCoin.sol\":4871:4902  Transfer(from, to, finalAmount) */\n      mload(0x40)\n      tag_181\n      swap2\n        /* \"#utility.yul\":2186:2211   */\n      dup2\n      mstore\n        /* \"#utility.yul\":2174:2176   */\n      0x20\n        /* \"#utility.yul\":2159:2177   */\n      add\n      swap1\n        /* \"#utility.yul\":2040:2217   */\n      jump\n        /* \"contracts/RhesusMacaqueCoin.sol\":4871:4902  Transfer(from, to, finalAmount) */\n    tag_181:\n      mload(0x40)\n      dup1\n      swap2\n      sub\n      swap1\n      log3\n        /* \"contracts/RhesusMacaqueCoin.sol\":4933:4948  communityWallet */\n      sload(0x02)\n        /* \"contracts/RhesusMacaqueCoin.sol\":4918:4957  Transfer(from, communityWallet, devFee) */\n      mload(0x40)\n        /* \"#utility.yul\":2186:2211   */\n      dup4\n      dup2\n      mstore\n      sub(shl(0xa0, 0x01), 0x01)\n        /* \"contracts/RhesusMacaqueCoin.sol\":4933:4948  communityWallet */\n      swap2\n      dup3\n      and\n      swap2\n        /* \"contracts/RhesusMacaqueCoin.sol\":4918:4957  Transfer(from, communityWallet, devFee) */\n      dup9\n      and\n      swap1\n      mload(0x00)\n      codecopy(0x00, data_ada389e1fc24a8587c776340efb91b36e675792ab631816100d55df0b5cf3cbc, 0x20)\n      mload(0x00)\n      swap1\n      0x00\n      mstore\n      swap1\n        /* \"#utility.yul\":2174:2176   */\n      0x20\n        /* \"#utility.yul\":2159:2177   */\n      add\n        /* \"contracts/RhesusMacaqueCoin.sol\":4918:4957  Transfer(from, communityWallet, devFee) */\n      mload(0x40)\n      dup1\n      swap2\n      sub\n      swap1\n      log3\n        /* \"contracts/RhesusMacaqueCoin.sol\":4973:5008  Transfer(from, address(0), burnFee) */\n      mload(0x40)\n        /* \"#utility.yul\":2186:2211   */\n      dup4\n      dup2\n      mstore\n        /* \"contracts/RhesusMacaqueCoin.sol\":4996:4997  0 */\n      0x00\n      swap1\n      sub(shl(0xa0, 0x01), 0x01)\n        /* \"contracts/RhesusMacaqueCoin.sol\":4973:5008  Transfer(from, address(0), burnFee) */\n      dup9\n      and\n      swap1\n      mload(0x00)\n      codecopy(0x00, data_ada389e1fc24a8587c776340efb91b36e675792ab631816100d55df0b5cf3cbc, 0x20)\n      mload(0x00)\n      swap1\n      0x00\n      mstore\n      swap1\n        /* \"#utility.yul\":2174:2176   */\n      0x20\n        /* \"#utility.yul\":2159:2177   */\n      add\n        /* \"contracts/RhesusMacaqueCoin.sol\":4973:5008  Transfer(from, address(0), burnFee) */\n      mload(0x40)\n      dup1\n      swap2\n      sub\n      swap1\n      log3\n        /* \"contracts/RhesusMacaqueCoin.sol\":5024:5045  TokensBurned(burnFee) */\n      mload(0x40)\n        /* \"#utility.yul\":2186:2211   */\n      dup4\n      dup2\n      mstore\n        /* \"contracts/RhesusMacaqueCoin.sol\":5024:5045  TokensBurned(burnFee) */\n      0x6ef4855b666dcc7884561072e4358b28dfe01feb1b7f4dcebc00e62d50394ac7\n      swap1\n        /* \"#utility.yul\":2174:2176   */\n      0x20\n        /* \"#utility.yul\":2159:2177   */\n      add\n        /* \"contracts/RhesusMacaqueCoin.sol\":5024:5045  TokensBurned(burnFee) */\n      mload(0x40)\n      dup1\n      swap2\n      sub\n      swap1\n      log1\n        /* \"contracts/RhesusMacaqueCoin.sol\":4282:5053  {... */\n      pop\n      pop\n      pop\n        /* \"contracts/RhesusMacaqueCoin.sol\":4212:5053  function _transfer(address from, address to, uint256 amount) internal {... */\n      pop\n      pop\n      pop\n      jump\t// out\n        /* \"contracts/RhesusMacaqueCoin.sol\":3886:4204  function _burn(address from, uint256 amount) internal {... */\n    tag_132:\n      sub(shl(0xa0, 0x01), 0x01)\n        /* \"contracts/RhesusMacaqueCoin.sol\":3959:3974  _balances[from] */\n      dup3\n      and\n      0x00\n      swap1\n      dup2\n      mstore\n        /* \"contracts/RhesusMacaqueCoin.sol\":3959:3968  _balances */\n      0x04\n        /* \"contracts/RhesusMacaqueCoin.sol\":3959:3974  _balances[from] */\n      0x20\n      mstore\n      0x40\n      swap1\n      keccak256\n      sload\n        /* \"contracts/RhesusMacaqueCoin.sol\":3959:3984  _balances[from] >= amount */\n      dup2\n      gt\n      iszero\n        /* \"contracts/RhesusMacaqueCoin.sol\":3951:4009  require(_balances[from] >= amount, \"Insufficient balance\") */\n      tag_186\n      jumpi\n      mload(0x40)\n      shl(0xe5, 0x461bcd)\n      dup2\n      mstore\n        /* \"#utility.yul\":8241:8243   */\n      0x20\n        /* \"contracts/RhesusMacaqueCoin.sol\":3951:4009  require(_balances[from] >= amount, \"Insufficient balance\") */\n      0x04\n      dup3\n      add\n        /* \"#utility.yul\":8223:8244   */\n      mstore\n        /* \"#utility.yul\":8280:8282   */\n      0x14\n        /* \"#utility.yul\":8260:8278   */\n      0x24\n      dup3\n      add\n        /* \"#utility.yul\":8253:8283   */\n      mstore\n      shl(0x60, 0x496e73756666696369656e742062616c616e6365)\n        /* \"#utility.yul\":8299:8317   */\n      0x44\n      dup3\n      add\n        /* \"#utility.yul\":8292:8342   */\n      mstore\n        /* \"#utility.yul\":8359:8377   */\n      0x64\n      add\n        /* \"contracts/RhesusMacaqueCoin.sol\":3951:4009  require(_balances[from] >= amount, \"Insufficient balance\") */\n      tag_111\n        /* \"#utility.yul\":8039:8383   */\n      jump\n        /* \"contracts/RhesusMacaqueCoin.sol\":3951:4009  require(_balances[from] >= amount, \"Insufficient balance\") */\n    tag_186:\n      sub(shl(0xa0, 0x01), 0x01)\n        /* \"contracts/RhesusMacaqueCoin.sol\":4020:4035  _balances[from] */\n      dup3\n      and\n      0x00\n      swap1\n      dup2\n      mstore\n        /* \"contracts/RhesusMacaqueCoin.sol\":4020:4029  _balances */\n      0x04\n        /* \"contracts/RhesusMacaqueCoin.sol\":4020:4035  _balances[from] */\n      0x20\n      mstore\n      0x40\n      dup2\n      keccak256\n        /* \"contracts/RhesusMacaqueCoin.sol\":4020:4045  _balances[from] -= amount */\n      dup1\n      sload\n        /* \"contracts/RhesusMacaqueCoin.sol\":4039:4045  amount */\n      dup4\n      swap3\n        /* \"contracts/RhesusMacaqueCoin.sol\":4020:4035  _balances[from] */\n      swap1\n        /* \"contracts/RhesusMacaqueCoin.sol\":4020:4045  _balances[from] -= amount */\n      tag_189\n      swap1\n        /* \"contracts/RhesusMacaqueCoin.sol\":4039:4045  amount */\n      dup5\n      swap1\n        /* \"contracts/RhesusMacaqueCoin.sol\":4020:4045  _balances[from] -= amount */\n      tag_127\n      jump\t// in\n    tag_189:\n      swap3\n      pop\n      pop\n      dup2\n      swap1\n      sstore\n      pop\n        /* \"contracts/RhesusMacaqueCoin.sol\":4072:4078  amount */\n      dup1\n        /* \"contracts/RhesusMacaqueCoin.sol\":4056:4068  _totalSupply */\n      0x00\n      0x00\n        /* \"contracts/RhesusMacaqueCoin.sol\":4056:4078  _totalSupply -= amount */\n      dup3\n      dup3\n      sload\n      tag_190\n      swap2\n      swap1\n      tag_127\n      jump\t// in\n    tag_190:\n      swap1\n      swap2\n      sstore\n      pop\n        /* \"contracts/RhesusMacaqueCoin.sol\":4089:4110  _updateSnapshot(from) */\n      tag_191\n      swap1\n      pop\n        /* \"contracts/RhesusMacaqueCoin.sol\":4105:4109  from */\n      dup3\n        /* \"contracts/RhesusMacaqueCoin.sol\":4089:4104  _updateSnapshot */\n      tag_178\n        /* \"contracts/RhesusMacaqueCoin.sol\":4089:4110  _updateSnapshot(from) */\n      jump\t// in\n    tag_191:\n        /* \"contracts/RhesusMacaqueCoin.sol\":4126:4160  Transfer(from, address(0), amount) */\n      mload(0x40)\n        /* \"#utility.yul\":2186:2211   */\n      dup2\n      dup2\n      mstore\n        /* \"contracts/RhesusMacaqueCoin.sol\":4149:4150  0 */\n      0x00\n      swap1\n      sub(shl(0xa0, 0x01), 0x01)\n        /* \"contracts/RhesusMacaqueCoin.sol\":4126:4160  Transfer(from, address(0), amount) */\n      dup5\n      and\n      swap1\n      mload(0x00)\n      codecopy(0x00, data_ada389e1fc24a8587c776340efb91b36e675792ab631816100d55df0b5cf3cbc, 0x20)\n      mload(0x00)\n      swap1\n      0x00\n      mstore\n      swap1\n        /* \"#utility.yul\":2174:2176   */\n      0x20\n        /* \"#utility.yul\":2159:2177   */\n      add\n        /* \"contracts/RhesusMacaqueCoin.sol\":4126:4160  Transfer(from, address(0), amount) */\n      mload(0x40)\n      dup1\n      swap2\n      sub\n      swap1\n      log3\n        /* \"contracts/RhesusMacaqueCoin.sol\":4176:4196  TokensBurned(amount) */\n      mload(0x40)\n        /* \"#utility.yul\":2186:2211   */\n      dup2\n      dup2\n      mstore\n        /* \"contracts/RhesusMacaqueCoin.sol\":4176:4196  TokensBurned(amount) */\n      0x6ef4855b666dcc7884561072e4358b28dfe01feb1b7f4dcebc00e62d50394ac7\n      swap1\n        /* \"#utility.yul\":2174:2176   */\n      0x20\n        /* \"#utility.yul\":2159:2177   */\n      add\n        /* \"contracts/RhesusMacaqueCoin.sol\":4176:4196  TokensBurned(amount) */\n      mload(0x40)\n      dup1\n      swap2\n      sub\n      swap1\n      log1\n        /* \"contracts/RhesusMacaqueCoin.sol\":3886:4204  function _burn(address from, uint256 amount) internal {... */\n      pop\n      pop\n      jump\t// out\n        /* \"contracts/RhesusMacaqueCoin.sol\":5061:5234  function _updateSnapshot(address user) internal {... */\n    tag_178:\n      sub(shl(0xa0, 0x01), 0x01)\n        /* \"contracts/RhesusMacaqueCoin.sol\":5157:5172  _balances[user] */\n      and\n      0x00\n      dup2\n      dup2\n      mstore\n        /* \"contracts/RhesusMacaqueCoin.sol\":5157:5166  _balances */\n      0x04\n        /* \"contracts/RhesusMacaqueCoin.sol\":5157:5172  _balances[user] */\n      0x20\n      swap1\n      dup2\n      mstore\n      0x40\n      dup1\n      dup4\n      keccak256\n      sload\n        /* \"contracts/RhesusMacaqueCoin.sol\":5120:5130  _snapshots */\n      0x06\n        /* \"contracts/RhesusMacaqueCoin.sol\":5120:5136  _snapshots[user] */\n      dup4\n      mstore\n      dup2\n      dup5\n      keccak256\n        /* \"contracts/RhesusMacaqueCoin.sol\":5137:5153  _snapshotCounter */\n      0x08\n      dup1\n      sload\n        /* \"contracts/RhesusMacaqueCoin.sol\":5120:5154  _snapshots[user][_snapshotCounter] */\n      dup7\n      mstore\n      swap1\n      dup5\n      mstore\n      dup3\n      dup6\n      keccak256\n        /* \"contracts/RhesusMacaqueCoin.sol\":5120:5172  _snapshots[user][_snapshotCounter] = _balances[user] */\n      swap2\n      swap1\n      swap2\n      sstore\n        /* \"contracts/RhesusMacaqueCoin.sol\":5210:5226  _snapshotCounter */\n      sload\n        /* \"contracts/RhesusMacaqueCoin.sol\":5183:5207  _currentSnapshotId[user] */\n      swap4\n      dup4\n      mstore\n        /* \"contracts/RhesusMacaqueCoin.sol\":5183:5201  _currentSnapshotId */\n      0x07\n        /* \"contracts/RhesusMacaqueCoin.sol\":5183:5207  _currentSnapshotId[user] */\n      swap1\n      swap2\n      mstore\n      swap1\n      keccak256\n        /* \"contracts/RhesusMacaqueCoin.sol\":5183:5226  _currentSnapshotId[user] = _snapshotCounter */\n      sstore\n        /* \"contracts/RhesusMacaqueCoin.sol\":5061:5234  function _updateSnapshot(address user) internal {... */\n      jump\t// out\n        /* \"#utility.yul\":14:432   */\n    tag_29:\n        /* \"#utility.yul\":163:165   */\n      0x20\n        /* \"#utility.yul\":152:161   */\n      dup2\n        /* \"#utility.yul\":145:166   */\n      mstore\n        /* \"#utility.yul\":126:130   */\n      0x00\n        /* \"#utility.yul\":195:201   */\n      dup3\n        /* \"#utility.yul\":189:202   */\n      mload\n        /* \"#utility.yul\":238:244   */\n      dup1\n        /* \"#utility.yul\":233:235   */\n      0x20\n        /* \"#utility.yul\":222:231   */\n      dup5\n        /* \"#utility.yul\":218:236   */\n      add\n        /* \"#utility.yul\":211:245   */\n      mstore\n        /* \"#utility.yul\":297:303   */\n      dup1\n        /* \"#utility.yul\":292:294   */\n      0x20\n        /* \"#utility.yul\":284:290   */\n      dup6\n        /* \"#utility.yul\":280:295   */\n      add\n        /* \"#utility.yul\":275:277   */\n      0x40\n        /* \"#utility.yul\":264:273   */\n      dup6\n        /* \"#utility.yul\":260:278   */\n      add\n        /* \"#utility.yul\":254:304   */\n      mcopy\n        /* \"#utility.yul\":353:354   */\n      0x00\n        /* \"#utility.yul\":348:350   */\n      0x40\n        /* \"#utility.yul\":339:345   */\n      dup3\n        /* \"#utility.yul\":328:337   */\n      dup6\n        /* \"#utility.yul\":324:346   */\n      add\n        /* \"#utility.yul\":320:351   */\n      add\n        /* \"#utility.yul\":313:355   */\n      mstore\n        /* \"#utility.yul\":423:425   */\n      0x40\n        /* \"#utility.yul\":416:418   */\n      0x1f\n        /* \"#utility.yul\":412:419   */\n      not\n        /* \"#utility.yul\":407:409   */\n      0x1f\n        /* \"#utility.yul\":399:405   */\n      dup4\n        /* \"#utility.yul\":395:410   */\n      add\n        /* \"#utility.yul\":391:420   */\n      and\n        /* \"#utility.yul\":380:389   */\n      dup5\n        /* \"#utility.yul\":376:421   */\n      add\n        /* \"#utility.yul\":372:426   */\n      add\n        /* \"#utility.yul\":364:426   */\n      swap2\n      pop\n      pop\n        /* \"#utility.yul\":14:432   */\n      swap3\n      swap2\n      pop\n      pop\n      jump\t// out\n        /* \"#utility.yul\":437:610   */\n    tag_195:\n        /* \"#utility.yul\":505:525   */\n      dup1\n      calldataload\n      sub(shl(0xa0, 0x01), 0x01)\n        /* \"#utility.yul\":554:585   */\n      dup2\n      and\n        /* \"#utility.yul\":544:586   */\n      dup2\n      eq\n        /* \"#utility.yul\":534:604   */\n      tag_201\n      jumpi\n        /* \"#utility.yul\":600:601   */\n      0x00\n        /* \"#utility.yul\":597:598   */\n      0x00\n        /* \"#utility.yul\":590:602   */\n      revert\n        /* \"#utility.yul\":534:604   */\n    tag_201:\n        /* \"#utility.yul\":437:610   */\n      swap2\n      swap1\n      pop\n      jump\t// out\n        /* \"#utility.yul\":615:915   */\n    tag_32:\n        /* \"#utility.yul\":683:689   */\n      0x00\n        /* \"#utility.yul\":691:697   */\n      0x00\n        /* \"#utility.yul\":744:746   */\n      0x40\n        /* \"#utility.yul\":732:741   */\n      dup4\n        /* \"#utility.yul\":723:730   */\n      dup6\n        /* \"#utility.yul\":719:742   */\n      sub\n        /* \"#utility.yul\":715:747   */\n      slt\n        /* \"#utility.yul\":712:764   */\n      iszero\n      tag_203\n      jumpi\n        /* \"#utility.yul\":760:761   */\n      0x00\n        /* \"#utility.yul\":757:758   */\n      0x00\n        /* \"#utility.yul\":750:762   */\n      revert\n        /* \"#utility.yul\":712:764   */\n    tag_203:\n        /* \"#utility.yul\":783:812   */\n      tag_204\n        /* \"#utility.yul\":802:811   */\n      dup4\n        /* \"#utility.yul\":783:812   */\n      tag_195\n      jump\t// in\n    tag_204:\n        /* \"#utility.yul\":773:812   */\n      swap5\n        /* \"#utility.yul\":881:883   */\n      0x20\n        /* \"#utility.yul\":866:884   */\n      swap4\n      swap1\n      swap4\n      add\n        /* \"#utility.yul\":853:885   */\n      calldataload\n      swap4\n      pop\n      pop\n      pop\n        /* \"#utility.yul\":615:915   */\n      jump\t// out\n        /* \"#utility.yul\":1112:1479   */\n    tag_196:\n        /* \"#utility.yul\":1175:1183   */\n      0x00\n        /* \"#utility.yul\":1185:1191   */\n      0x00\n        /* \"#utility.yul\":1239:1242   */\n      dup4\n        /* \"#utility.yul\":1232:1236   */\n      0x1f\n        /* \"#utility.yul\":1224:1230   */\n      dup5\n        /* \"#utility.yul\":1220:1237   */\n      add\n        /* \"#utility.yul\":1216:1243   */\n      slt\n        /* \"#utility.yul\":1206:1261   */\n      tag_207\n      jumpi\n        /* \"#utility.yul\":1257:1258   */\n      0x00\n        /* \"#utility.yul\":1254:1255   */\n      0x00\n        /* \"#utility.yul\":1247:1259   */\n      revert\n        /* \"#utility.yul\":1206:1261   */\n    tag_207:\n      pop\n        /* \"#utility.yul\":1280:1300   */\n      dup2\n      calldataload\n        /* \"#utility.yul\":1323:1341   */\n      0xffffffffffffffff\n        /* \"#utility.yul\":1312:1342   */\n      dup2\n      gt\n        /* \"#utility.yul\":1309:1359   */\n      iszero\n      tag_208\n      jumpi\n        /* \"#utility.yul\":1355:1356   */\n      0x00\n        /* \"#utility.yul\":1352:1353   */\n      0x00\n        /* \"#utility.yul\":1345:1357   */\n      revert\n        /* \"#utility.yul\":1309:1359   */\n    tag_208:\n        /* \"#utility.yul\":1392:1396   */\n      0x20\n        /* \"#utility.yul\":1384:1390   */\n      dup4\n        /* \"#utility.yul\":1380:1397   */\n      add\n        /* \"#utility.yul\":1368:1397   */\n      swap2\n      pop\n        /* \"#utility.yul\":1452:1455   */\n      dup4\n        /* \"#utility.yul\":1445:1449   */\n      0x20\n        /* \"#utility.yul\":1435:1441   */\n      dup3\n        /* \"#utility.yul\":1432:1433   */\n      0x05\n        /* \"#utility.yul\":1428:1442   */\n      shl\n        /* \"#utility.yul\":1420:1426   */\n      dup6\n        /* \"#utility.yul\":1416:1443   */\n      add\n        /* \"#utility.yul\":1412:1450   */\n      add\n        /* \"#utility.yul\":1409:1456   */\n      gt\n        /* \"#utility.yul\":1406:1473   */\n      iszero\n      tag_209\n      jumpi\n        /* \"#utility.yul\":1469:1470   */\n      0x00\n        /* \"#utility.yul\":1466:1467   */\n      0x00\n        /* \"#utility.yul\":1459:1471   */\n      revert\n        /* \"#utility.yul\":1406:1473   */\n    tag_209:\n        /* \"#utility.yul\":1112:1479   */\n      swap3\n      pop\n      swap3\n      swap1\n      pop\n      jump\t// out\n        /* \"#utility.yul\":1484:2035   */\n    tag_38:\n        /* \"#utility.yul\":1579:1585   */\n      0x00\n        /* \"#utility.yul\":1587:1593   */\n      0x00\n        /* \"#utility.yul\":1595:1601   */\n      0x00\n        /* \"#utility.yul\":1648:1650   */\n      0x40\n        /* \"#utility.yul\":1636:1645   */\n      dup5\n        /* \"#utility.yul\":1627:1634   */\n      dup7\n        /* \"#utility.yul\":1623:1646   */\n      sub\n        /* \"#utility.yul\":1619:1651   */\n      slt\n        /* \"#utility.yul\":1616:1668   */\n      iszero\n      tag_211\n      jumpi\n        /* \"#utility.yul\":1664:1665   */\n      0x00\n        /* \"#utility.yul\":1661:1662   */\n      0x00\n        /* \"#utility.yul\":1654:1666   */\n      revert\n        /* \"#utility.yul\":1616:1668   */\n    tag_211:\n        /* \"#utility.yul\":1709:1732   */\n      dup4\n      calldataload\n      swap3\n      pop\n        /* \"#utility.yul\":1807:1809   */\n      0x20\n        /* \"#utility.yul\":1792:1810   */\n      dup5\n      add\n        /* \"#utility.yul\":1779:1811   */\n      calldataload\n        /* \"#utility.yul\":1834:1852   */\n      0xffffffffffffffff\n        /* \"#utility.yul\":1823:1853   */\n      dup2\n      gt\n        /* \"#utility.yul\":1820:1870   */\n      iszero\n      tag_212\n      jumpi\n        /* \"#utility.yul\":1866:1867   */\n      0x00\n        /* \"#utility.yul\":1863:1864   */\n      0x00\n        /* \"#utility.yul\":1856:1868   */\n      revert\n        /* \"#utility.yul\":1820:1870   */\n    tag_212:\n        /* \"#utility.yul\":1905:1975   */\n      tag_213\n        /* \"#utility.yul\":1967:1974   */\n      dup7\n        /* \"#utility.yul\":1958:1964   */\n      dup3\n        /* \"#utility.yul\":1947:1956   */\n      dup8\n        /* \"#utility.yul\":1943:1965   */\n      add\n        /* \"#utility.yul\":1905:1975   */\n      tag_196\n      jump\t// in\n    tag_213:\n        /* \"#utility.yul\":1484:2035   */\n      swap5\n      swap8\n        /* \"#utility.yul\":1994:2002   */\n      swap1\n      swap7\n      pop\n        /* \"#utility.yul\":1879:1975   */\n      swap4\n      swap5\n      pop\n      pop\n      pop\n      pop\n        /* \"#utility.yul\":1484:2035   */\n      jump\t// out\n        /* \"#utility.yul\":2222:2596   */\n    tag_46:\n        /* \"#utility.yul\":2299:2305   */\n      0x00\n        /* \"#utility.yul\":2307:2313   */\n      0x00\n        /* \"#utility.yul\":2315:2321   */\n      0x00\n        /* \"#utility.yul\":2368:2370   */\n      0x60\n        /* \"#utility.yul\":2356:2365   */\n      dup5\n        /* \"#utility.yul\":2347:2354   */\n      dup7\n        /* \"#utility.yul\":2343:2366   */\n      sub\n        /* \"#utility.yul\":2339:2371   */\n      slt\n        /* \"#utility.yul\":2336:2388   */\n      iszero\n      tag_216\n      jumpi\n        /* \"#utility.yul\":2384:2385   */\n      0x00\n        /* \"#utility.yul\":2381:2382   */\n      0x00\n        /* \"#utility.yul\":2374:2386   */\n      revert\n        /* \"#utility.yul\":2336:2388   */\n    tag_216:\n        /* \"#utility.yul\":2407:2436   */\n      tag_217\n        /* \"#utility.yul\":2426:2435   */\n      dup5\n        /* \"#utility.yul\":2407:2436   */\n      tag_195\n      jump\t// in\n    tag_217:\n        /* \"#utility.yul\":2397:2436   */\n      swap3\n      pop\n        /* \"#utility.yul\":2455:2493   */\n      tag_218\n        /* \"#utility.yul\":2489:2491   */\n      0x20\n        /* \"#utility.yul\":2478:2487   */\n      dup6\n        /* \"#utility.yul\":2474:2492   */\n      add\n        /* \"#utility.yul\":2455:2493   */\n      tag_195\n      jump\t// in\n    tag_218:\n        /* \"#utility.yul\":2222:2596   */\n      swap3\n      swap6\n        /* \"#utility.yul\":2445:2493   */\n      swap3\n      swap5\n      pop\n      pop\n      pop\n        /* \"#utility.yul\":2562:2564   */\n      0x40\n        /* \"#utility.yul\":2547:2565   */\n      swap2\n      swap1\n      swap2\n      add\n        /* \"#utility.yul\":2534:2566   */\n      calldataload\n      swap1\n        /* \"#utility.yul\":2222:2596   */\n      jump\t// out\n        /* \"#utility.yul\":3180:3406   */\n    tag_67:\n        /* \"#utility.yul\":3239:3245   */\n      0x00\n        /* \"#utility.yul\":3292:3294   */\n      0x20\n        /* \"#utility.yul\":3280:3289   */\n      dup3\n        /* \"#utility.yul\":3271:3278   */\n      dup5\n        /* \"#utility.yul\":3267:3290   */\n      sub\n        /* \"#utility.yul\":3263:3295   */\n      slt\n        /* \"#utility.yul\":3260:3312   */\n      iszero\n      tag_223\n      jumpi\n        /* \"#utility.yul\":3308:3309   */\n      0x00\n        /* \"#utility.yul\":3305:3306   */\n      0x00\n        /* \"#utility.yul\":3298:3310   */\n      revert\n        /* \"#utility.yul\":3260:3312   */\n    tag_223:\n      pop\n        /* \"#utility.yul\":3353:3376   */\n      calldataload\n      swap2\n        /* \"#utility.yul\":3180:3406   */\n      swap1\n      pop\n      jump\t// out\n        /* \"#utility.yul\":3411:3597   */\n    tag_71:\n        /* \"#utility.yul\":3470:3476   */\n      0x00\n        /* \"#utility.yul\":3523:3525   */\n      0x20\n        /* \"#utility.yul\":3511:3520   */\n      dup3\n        /* \"#utility.yul\":3502:3509   */\n      dup5\n        /* \"#utility.yul\":3498:3521   */\n      sub\n        /* \"#utility.yul\":3494:3526   */\n      slt\n        /* \"#utility.yul\":3491:3543   */\n      iszero\n      tag_225\n      jumpi\n        /* \"#utility.yul\":3539:3540   */\n      0x00\n        /* \"#utility.yul\":3536:3537   */\n      0x00\n        /* \"#utility.yul\":3529:3541   */\n      revert\n        /* \"#utility.yul\":3491:3543   */\n    tag_225:\n        /* \"#utility.yul\":3562:3591   */\n      tag_226\n        /* \"#utility.yul\":3581:3590   */\n      dup3\n        /* \"#utility.yul\":3562:3591   */\n      tag_195\n      jump\t// in\n    tag_226:\n        /* \"#utility.yul\":3552:3591   */\n      swap4\n        /* \"#utility.yul\":3411:3597   */\n      swap3\n      pop\n      pop\n      pop\n      jump\t// out\n        /* \"#utility.yul\":3602:4107   */\n    tag_82:\n        /* \"#utility.yul\":3697:3703   */\n      0x00\n        /* \"#utility.yul\":3705:3711   */\n      0x00\n        /* \"#utility.yul\":3713:3719   */\n      0x00\n        /* \"#utility.yul\":3766:3768   */\n      0x40\n        /* \"#utility.yul\":3754:3763   */\n      dup5\n        /* \"#utility.yul\":3745:3752   */\n      dup7\n        /* \"#utility.yul\":3741:3764   */\n      sub\n        /* \"#utility.yul\":3737:3769   */\n      slt\n        /* \"#utility.yul\":3734:3786   */\n      iszero\n      tag_228\n      jumpi\n        /* \"#utility.yul\":3782:3783   */\n      0x00\n        /* \"#utility.yul\":3779:3780   */\n      0x00\n        /* \"#utility.yul\":3772:3784   */\n      revert\n        /* \"#utility.yul\":3734:3786   */\n    tag_228:\n        /* \"#utility.yul\":3822:3831   */\n      dup4\n        /* \"#utility.yul\":3809:3832   */\n      calldataload\n        /* \"#utility.yul\":3855:3873   */\n      0xffffffffffffffff\n        /* \"#utility.yul\":3847:3853   */\n      dup2\n        /* \"#utility.yul\":3844:3874   */\n      gt\n        /* \"#utility.yul\":3841:3891   */\n      iszero\n      tag_229\n      jumpi\n        /* \"#utility.yul\":3887:3888   */\n      0x00\n        /* \"#utility.yul\":3884:3885   */\n      0x00\n        /* \"#utility.yul\":3877:3889   */\n      revert\n        /* \"#utility.yul\":3841:3891   */\n    tag_229:\n        /* \"#utility.yul\":3926:3996   */\n      tag_230\n        /* \"#utility.yul\":3988:3995   */\n      dup7\n        /* \"#utility.yul\":3979:3985   */\n      dup3\n        /* \"#utility.yul\":3968:3977   */\n      dup8\n        /* \"#utility.yul\":3964:3986   */\n      add\n        /* \"#utility.yul\":3926:3996   */\n      tag_196\n      jump\t// in\n    tag_230:\n        /* \"#utility.yul\":4015:4023   */\n      swap1\n      swap8\n        /* \"#utility.yul\":3900:3996   */\n      swap1\n      swap7\n      pop\n        /* \"#utility.yul\":4097:4099   */\n      0x20\n        /* \"#utility.yul\":4082:4100   */\n      swap6\n      swap1\n      swap6\n      add\n        /* \"#utility.yul\":4069:4101   */\n      calldataload\n      swap5\n        /* \"#utility.yul\":3602:4107   */\n      swap4\n      pop\n      pop\n      pop\n      pop\n      jump\t// out\n        /* \"#utility.yul\":4112:4372   */\n    tag_101:\n        /* \"#utility.yul\":4180:4186   */\n      0x00\n        /* \"#utility.yul\":4188:4194   */\n      0x00\n        /* \"#utility.yul\":4241:4243   */\n      0x40\n        /* \"#utility.yul\":4229:4238   */\n      dup4\n        /* \"#utility.yul\":4220:4227   */\n      dup6\n        /* \"#utility.yul\":4216:4239   */\n      sub\n        /* \"#utility.yul\":4212:4244   */\n      slt\n        /* \"#utility.yul\":4209:4261   */\n      iszero\n      tag_232\n      jumpi\n        /* \"#utility.yul\":4257:4258   */\n      0x00\n        /* \"#utility.yul\":4254:4255   */\n      0x00\n        /* \"#utility.yul\":4247:4259   */\n      revert\n        /* \"#utility.yul\":4209:4261   */\n    tag_232:\n        /* \"#utility.yul\":4280:4309   */\n      tag_233\n        /* \"#utility.yul\":4299:4308   */\n      dup4\n        /* \"#utility.yul\":4280:4309   */\n      tag_195\n      jump\t// in\n    tag_233:\n        /* \"#utility.yul\":4270:4309   */\n      swap2\n      pop\n        /* \"#utility.yul\":4328:4366   */\n      tag_234\n        /* \"#utility.yul\":4362:4364   */\n      0x20\n        /* \"#utility.yul\":4351:4360   */\n      dup5\n        /* \"#utility.yul\":4347:4365   */\n      add\n        /* \"#utility.yul\":4328:4366   */\n      tag_195\n      jump\t// in\n    tag_234:\n        /* \"#utility.yul\":4318:4366   */\n      swap1\n      pop\n        /* \"#utility.yul\":4112:4372   */\n      swap3\n      pop\n      swap3\n      swap1\n      pop\n      jump\t// out\n        /* \"#utility.yul\":5708:5835   */\n    tag_197:\n        /* \"#utility.yul\":5769:5779   */\n      0x4e487b71\n        /* \"#utility.yul\":5764:5767   */\n      0xe0\n        /* \"#utility.yul\":5760:5780   */\n      shl\n        /* \"#utility.yul\":5757:5758   */\n      0x00\n        /* \"#utility.yul\":5750:5781   */\n      mstore\n        /* \"#utility.yul\":5800:5804   */\n      0x11\n        /* \"#utility.yul\":5797:5798   */\n      0x04\n        /* \"#utility.yul\":5790:5805   */\n      mstore\n        /* \"#utility.yul\":5824:5828   */\n      0x24\n        /* \"#utility.yul\":5821:5822   */\n      0x00\n        /* \"#utility.yul\":5814:5829   */\n      revert\n        /* \"#utility.yul\":5840:5968   */\n    tag_127:\n        /* \"#utility.yul\":5907:5916   */\n      dup2\n      dup2\n      sub\n        /* \"#utility.yul\":5928:5939   */\n      dup2\n      dup2\n      gt\n        /* \"#utility.yul\":5925:5962   */\n      iszero\n      tag_107\n      jumpi\n        /* \"#utility.yul\":5942:5960   */\n      tag_107\n      tag_197\n      jump\t// in\n        /* \"#utility.yul\":6308:6443   */\n    tag_140:\n        /* \"#utility.yul\":6347:6350   */\n      0x00\n        /* \"#utility.yul\":6368:6385   */\n      0x01\n      dup3\n      add\n        /* \"#utility.yul\":6365:6408   */\n      tag_246\n      jumpi\n        /* \"#utility.yul\":6388:6406   */\n      tag_246\n      tag_197\n      jump\t// in\n    tag_246:\n      pop\n        /* \"#utility.yul\":6435:6436   */\n      0x01\n        /* \"#utility.yul\":6424:6437   */\n      add\n      swap1\n        /* \"#utility.yul\":6308:6443   */\n      jump\t// out\n        /* \"#utility.yul\":6448:6575   */\n    tag_148:\n        /* \"#utility.yul\":6509:6519   */\n      0x4e487b71\n        /* \"#utility.yul\":6504:6507   */\n      0xe0\n        /* \"#utility.yul\":6500:6520   */\n      shl\n        /* \"#utility.yul\":6497:6498   */\n      0x00\n        /* \"#utility.yul\":6490:6521   */\n      mstore\n        /* \"#utility.yul\":6540:6544   */\n      0x32\n        /* \"#utility.yul\":6537:6538   */\n      0x04\n        /* \"#utility.yul\":6530:6545   */\n      mstore\n        /* \"#utility.yul\":6564:6568   */\n      0x24\n        /* \"#utility.yul\":6561:6562   */\n      0x00\n        /* \"#utility.yul\":6554:6569   */\n      revert\n        /* \"#utility.yul\":7514:7682   */\n    tag_165:\n        /* \"#utility.yul\":7587:7596   */\n      dup1\n      dup3\n      mul\n        /* \"#utility.yul\":7618:7627   */\n      dup2\n      iszero\n        /* \"#utility.yul\":7635:7650   */\n      dup3\n      dup3\n      div\n        /* \"#utility.yul\":7629:7651   */\n      dup5\n      eq\n        /* \"#utility.yul\":7615:7652   */\n      or\n        /* \"#utility.yul\":7605:7676   */\n      tag_107\n      jumpi\n        /* \"#utility.yul\":7656:7674   */\n      tag_107\n      tag_197\n      jump\t// in\n        /* \"#utility.yul\":7687:7904   */\n    tag_167:\n        /* \"#utility.yul\":7727:7728   */\n      0x00\n        /* \"#utility.yul\":7753:7754   */\n      dup3\n        /* \"#utility.yul\":7743:7875   */\n      tag_255\n      jumpi\n        /* \"#utility.yul\":7797:7807   */\n      0x4e487b71\n        /* \"#utility.yul\":7792:7795   */\n      0xe0\n        /* \"#utility.yul\":7788:7808   */\n      shl\n        /* \"#utility.yul\":7785:7786   */\n      0x00\n        /* \"#utility.yul\":7778:7809   */\n      mstore\n        /* \"#utility.yul\":7832:7836   */\n      0x12\n        /* \"#utility.yul\":7829:7830   */\n      0x04\n        /* \"#utility.yul\":7822:7837   */\n      mstore\n        /* \"#utility.yul\":7860:7864   */\n      0x24\n        /* \"#utility.yul\":7857:7858   */\n      0x00\n        /* \"#utility.yul\":7850:7865   */\n      revert\n        /* \"#utility.yul\":7743:7875   */\n    tag_255:\n      pop\n        /* \"#utility.yul\":7889:7898   */\n      div\n      swap1\n        /* \"#utility.yul\":7687:7904   */\n      jump\t// out\n        /* \"#utility.yul\":7909:8034   */\n    tag_174:\n        /* \"#utility.yul\":7974:7983   */\n      dup1\n      dup3\n      add\n        /* \"#utility.yul\":7995:8005   */\n      dup1\n      dup3\n      gt\n        /* \"#utility.yul\":7992:8028   */\n      iszero\n      tag_107\n      jumpi\n        /* \"#utility.yul\":8008:8026   */\n      tag_107\n      tag_197\n      jump\t// in\n    stop\n    data_ada389e1fc24a8587c776340efb91b36e675792ab631816100d55df0b5cf3cbc ddf252ad1be2c89b69c2b068fc378daa952ba7f163c4a11628f55a4df523b3ef\n\n    auxdata: 0xa26469706673582212201794988787466158c75ee30e94cece0ca41d310b960ebae180f0cbaa721ff97564736f6c634300081d0033\n}\n",
				"bytecode": {
					"linkReferences": {},
					"object": "608060405234801561000f575f5ffd5b5060405161115138038061115183398101604081905261002e916102ea565b6001600160a01b0384161580159061004e57506001600160a01b03831615155b801561006257506001600160a01b03821615155b6100a25760405162461bcd60e51b815260206004820152600c60248201526b5a65726f206164647265737360a01b60448201526064015b60405180910390fd5b600380546001600160a01b038087166001600160a01b0319928316179092556002805486841690831617905560018054928516929091168217905560098290556b033b2e3c9fd0803ce80000009061011090606461010184600f610346565b61010b9190610363565b6101c3565b60025461012d906001600160a01b0316606461010184600f610346565b61013e306064610101846028610346565b60035461015b906001600160a01b0316606461010184600a610346565b61016c336064610101846014610346565b6b033b2e3c9fd0803ce80000005f54146101b95760405162461bcd60e51b815260206004820152600e60248201526d125b98dbdc9c9958dd081b5a5b9d60921b6044820152606401610099565b5050505050610395565b6b033b2e3c9fd0803ce8000000815f546101dd9190610382565b111561021a5760405162461bcd60e51b815260206004820152600c60248201526b10d85c08195e18d95959195960a21b6044820152606401610099565b805f5f82825461022a9190610382565b90915550506001600160a01b0382165f9081526004602052604081208054839290610256908490610382565b90915550506001600160a01b0382165f818152600460209081526040808320546006835281842060088054865290845282852091909155548484526007835281842055805185815290517fddf252ad1be2c89b69c2b068fc378daa952ba7f163c4a11628f55a4df523b3ef929181900390910190a35050565b80516001600160a01b03811681146102e5575f5ffd5b919050565b5f5f5f5f608085870312156102fd575f5ffd5b610306856102cf565b9350610314602086016102cf565b9250610322604086016102cf565b6060959095015193969295505050565b634e487b7160e01b5f52601160045260245ffd5b808202811582820484141761035d5761035d610332565b92915050565b5f8261037d57634e487b7160e01b5f52601260045260245ffd5b500490565b8082018082111561035d5761035d610332565b610daf806103a25f395ff3fe608060405234801561000f575f5ffd5b5060043610610127575f3560e01c806370a08231116100a9578063c75748391161006e578063c7574839146102de578063d1b6dd30146102f1578063d33219b414610313578063dd62ed3e14610326578063ec81b4831461035e575f5ffd5b806370a082311461026557806395d89b411461028d5780639711715a146102b0578063972a2a62146102b8578063a9059cbb146102cb575f5ffd5b80632eb4a7ab116100ef5780632eb4a7ab146101cf578063313ce567146101d85780633a46b1a8146101f25780634162169f1461022757806342966c6814610252575f5ffd5b806306fdde031461012b578063095ea7b3146101735780630bcae1ac1461019657806318160ddd146101ab57806323b872dd146101bc575b5f5ffd5b61015d60405180604001604052806013815260200172293432b9bab99026b0b1b0b8bab29021b7b4b760691b81525081565b60405161016a9190610acb565b60405180910390f35b610186610181366004610b1b565b610371565b604051901515815260200161016a565b6101a96101a4366004610b8b565b6103dd565b005b5f545b60405190815260200161016a565b6101866101ca366004610bd3565b6104e4565b6101ae60095481565b6101e0601281565b60405160ff909116815260200161016a565b6101ae610200366004610b1b565b6001600160a01b03919091165f908152600660209081526040808320938352929052205490565b60035461023a906001600160a01b031681565b6040516001600160a01b03909116815260200161016a565b6101a9610260366004610c0d565b610597565b6101ae610273366004610c24565b6001600160a01b03165f9081526004602052604090205490565b61015d604051806040016040528060048152602001635248454d60e01b81525081565b6101ae6105a4565b6101866102c6366004610c44565b610640565b6101866102d9366004610b1b565b6106e3565b60025461023a906001600160a01b031681565b6101866102ff366004610c24565b600a6020525f908152604090205460ff1681565b60015461023a906001600160a01b031681565b6101ae610334366004610c8c565b6001600160a01b039182165f90815260056020908152604080832093909416825291909152205490565b6101ae6b033b2e3c9fd0803ce800000081565b335f8181526005602090815260408083206001600160a01b038716808552925280832085905551919290917f8c5be1e5ebec7d5bd14f71427d1e84f3dd0314c0f7b2291e5b200ac8c7c3b925906103cb9086815260200190565b60405180910390a35060015b92915050565b335f908152600a602052604090205460ff16156104335760405162461bcd60e51b815260206004820152600f60248201526e105b1c9958591e4818db185a5b5959608a1b60448201526064015b60405180910390fd5b6040516bffffffffffffffffffffffff193360601b166020820152603481018490525f9060540160405160208183030381529060405280519060200120905061047d838383610640565b6104b95760405162461bcd60e51b815260206004820152600d60248201526c24b73b30b634b210383937b7b360991b604482015260640161042a565b335f818152600a60205260409020805460ff191660011790556104de903090866106f8565b50505050565b6001600160a01b0383165f90815260056020908152604080832033845290915281205482111561054a5760405162461bcd60e51b8152602060048201526011602482015270416c6c6f77616e636520746f6f206c6f7760781b604482015260640161042a565b6001600160a01b0384165f9081526005602090815260408083203384529091528120805484929061057c908490610cd1565b9091555061058d90508484846106f8565b5060019392505050565b6105a1338261097d565b50565b6003545f906001600160a01b031633146105ea5760405162461bcd60e51b81526020600482015260076024820152664e6f742044414f60c81b604482015260640161042a565b60088054905f6105f983610ce4565b91905055507f8030e83b04d87bef53480e26263266d6ca66863aa8506aca6f2559d18aa1cb6760085460405161063191815260200190565b60405180910390a15060085490565b5f81815b848110156106d6575f86868381811061065f5761065f610cfc565b9050602002013590508083116106a05760408051602081018590529081018290526060016040516020818303038152906040528051906020012092506106cd565b60408051602081018390529081018490526060016040516020818303038152906040528051906020012092505b50600101610644565b5060095414949350505050565b5f6106ef3384846106f8565b50600192915050565b6001600160a01b0383165f9081526004602052604090205481111561074e5760405162461bcd60e51b815260206004820152600c60248201526b125b9cdd59999a58da595b9d60a21b604482015260640161042a565b6001600160a01b0382166107935760405162461bcd60e51b815260206004820152600c60248201526b5a65726f206164647265737360a01b604482015260640161042a565b5f6103e86107a2836005610d10565b6107ac9190610d27565b90505f6127106107bd846019610d10565b6107c79190610d27565b90505f816107d58486610cd1565b6107df9190610cd1565b6001600160a01b0387165f9081526004602052604081208054929350869290919061080b908490610cd1565b90915550506001600160a01b0385165f9081526004602052604081208054839290610837908490610d46565b90915550506002546001600160a01b03165f9081526004602052604081208054849290610865908490610d46565b92505081905550825f5f82825461087c9190610cd1565b9091555061088b905086610a8c565b61089485610a8c565b6002546108a9906001600160a01b0316610a8c565b846001600160a01b0316866001600160a01b03165f516020610d5a5f395f51905f52836040516108db91815260200190565b60405180910390a36002546040518381526001600160a01b03918216918816905f516020610d5a5f395f51905f529060200160405180910390a36040518381525f906001600160a01b038816905f516020610d5a5f395f51905f529060200160405180910390a36040518381527f6ef4855b666dcc7884561072e4358b28dfe01feb1b7f4dcebc00e62d50394ac79060200160405180910390a1505050505050565b6001600160a01b0382165f908152600460205260409020548111156109db5760405162461bcd60e51b8152602060048201526014602482015273496e73756666696369656e742062616c616e636560601b604482015260640161042a565b6001600160a01b0382165f9081526004602052604081208054839290610a02908490610cd1565b92505081905550805f5f828254610a199190610cd1565b90915550610a28905082610a8c565b6040518181525f906001600160a01b038416905f516020610d5a5f395f51905f529060200160405180910390a36040518181527f6ef4855b666dcc7884561072e4358b28dfe01feb1b7f4dcebc00e62d50394ac79060200160405180910390a15050565b6001600160a01b03165f818152600460209081526040808320546006835281842060088054865290845282852091909155549383526007909152902055565b602081525f82518060208401528060208501604085015e5f604082850101526040601f19601f83011684010191505092915050565b80356001600160a01b0381168114610b16575f5ffd5b919050565b5f5f60408385031215610b2c575f5ffd5b610b3583610b00565b946020939093013593505050565b5f5f83601f840112610b53575f5ffd5b50813567ffffffffffffffff811115610b6a575f5ffd5b6020830191508360208260051b8501011115610b84575f5ffd5b9250929050565b5f5f5f60408486031215610b9d575f5ffd5b83359250602084013567ffffffffffffffff811115610bba575f5ffd5b610bc686828701610b43565b9497909650939450505050565b5f5f5f60608486031215610be5575f5ffd5b610bee84610b00565b9250610bfc60208501610b00565b929592945050506040919091013590565b5f60208284031215610c1d575f5ffd5b5035919050565b5f60208284031215610c34575f5ffd5b610c3d82610b00565b9392505050565b5f5f5f60408486031215610c56575f5ffd5b833567ffffffffffffffff811115610c6c575f5ffd5b610c7886828701610b43565b909790965060209590950135949350505050565b5f5f60408385031215610c9d575f5ffd5b610ca683610b00565b9150610cb460208401610b00565b90509250929050565b634e487b7160e01b5f52601160045260245ffd5b818103818111156103d7576103d7610cbd565b5f60018201610cf557610cf5610cbd565b5060010190565b634e487b7160e01b5f52603260045260245ffd5b80820281158282048414176103d7576103d7610cbd565b5f82610d4157634e487b7160e01b5f52601260045260245ffd5b500490565b808201808211156103d7576103d7610cbd56feddf252ad1be2c89b69c2b068fc378daa952ba7f163c4a11628f55a4df523b3efa26469706673582212201794988787466158c75ee30e94cece0ca41d310b960ebae180f0cbaa721ff97564736f6c634300081d0033",
					"opcodes": "PUSH1 0x80 PUSH1 0x40 MSTORE CALLVALUE DUP1 ISZERO PUSH2 0xF JUMPI PUSH0 PUSH0 REVERT JUMPDEST POP PUSH1 0x40 MLOAD PUSH2 0x1151 CODESIZE SUB DUP1 PUSH2 0x1151 DUP4 CODECOPY DUP2 ADD PUSH1 0x40 DUP2 SWAP1 MSTORE PUSH2 0x2E SWAP2 PUSH2 0x2EA JUMP JUMPDEST PUSH1 0x1 PUSH1 0x1 PUSH1 0xA0 SHL SUB DUP5 AND ISZERO DUP1 ISZERO SWAP1 PUSH2 0x4E JUMPI POP PUSH1 0x1 PUSH1 0x1 PUSH1 0xA0 SHL SUB DUP4 AND ISZERO ISZERO JUMPDEST DUP1 ISZERO PUSH2 0x62 JUMPI POP PUSH1 0x1 PUSH1 0x1 PUSH1 0xA0 SHL SUB DUP3 AND ISZERO ISZERO JUMPDEST PUSH2 0xA2 JUMPI PUSH1 0x40 MLOAD PUSH3 0x461BCD PUSH1 0xE5 SHL DUP2 MSTORE PUSH1 0x20 PUSH1 0x4 DUP3 ADD MSTORE PUSH1 0xC PUSH1 0x24 DUP3 ADD MSTORE PUSH12 0x5A65726F2061646472657373 PUSH1 0xA0 SHL PUSH1 0x44 DUP3 ADD MSTORE PUSH1 0x64 ADD JUMPDEST PUSH1 0x40 MLOAD DUP1 SWAP2 SUB SWAP1 REVERT JUMPDEST PUSH1 0x3 DUP1 SLOAD PUSH1 0x1 PUSH1 0x1 PUSH1 0xA0 SHL SUB DUP1 DUP8 AND PUSH1 0x1 PUSH1 0x1 PUSH1 0xA0 SHL SUB NOT SWAP3 DUP4 AND OR SWAP1 SWAP3 SSTORE PUSH1 0x2 DUP1 SLOAD DUP7 DUP5 AND SWAP1 DUP4 AND OR SWAP1 SSTORE PUSH1 0x1 DUP1 SLOAD SWAP3 DUP6 AND SWAP3 SWAP1 SWAP2 AND DUP3 OR SWAP1 SSTORE PUSH1 0x9 DUP3 SWAP1 SSTORE PUSH12 0x33B2E3C9FD0803CE8000000 SWAP1 PUSH2 0x110 SWAP1 PUSH1 0x64 PUSH2 0x101 DUP5 PUSH1 0xF PUSH2 0x346 JUMP JUMPDEST PUSH2 0x10B SWAP2 SWAP1 PUSH2 0x363 JUMP JUMPDEST PUSH2 0x1C3 JUMP JUMPDEST PUSH1 0x2 SLOAD PUSH2 0x12D SWAP1 PUSH1 0x1 PUSH1 0x1 PUSH1 0xA0 SHL SUB AND PUSH1 0x64 PUSH2 0x101 DUP5 PUSH1 0xF PUSH2 0x346 JUMP JUMPDEST PUSH2 0x13E ADDRESS PUSH1 0x64 PUSH2 0x101 DUP5 PUSH1 0x28 PUSH2 0x346 JUMP JUMPDEST PUSH1 0x3 SLOAD PUSH2 0x15B SWAP1 PUSH1 0x1 PUSH1 0x1 PUSH1 0xA0 SHL SUB AND PUSH1 0x64 PUSH2 0x101 DUP5 PUSH1 0xA PUSH2 0x346 JUMP JUMPDEST PUSH2 0x16C CALLER PUSH1 0x64 PUSH2 0x101 DUP5 PUSH1 0x14 PUSH2 0x346 JUMP JUMPDEST PUSH12 0x33B2E3C9FD0803CE8000000 PUSH0 SLOAD EQ PUSH2 0x1B9 JUMPI PUSH1 0x40 MLOAD PUSH3 0x461BCD PUSH1 0xE5 SHL DUP2 MSTORE PUSH1 0x20 PUSH1 0x4 DUP3 ADD MSTORE PUSH1 0xE PUSH1 0x24 DUP3 ADD MSTORE PUSH14 0x125B98DBDC9C9958DD081B5A5B9D PUSH1 0x92 SHL PUSH1 0x44 DUP3 ADD MSTORE PUSH1 0x64 ADD PUSH2 0x99 JUMP JUMPDEST POP POP POP POP POP PUSH2 0x395 JUMP JUMPDEST PUSH12 0x33B2E3C9FD0803CE8000000 DUP2 PUSH0 SLOAD PUSH2 0x1DD SWAP2 SWAP1 PUSH2 0x382 JUMP JUMPDEST GT ISZERO PUSH2 0x21A JUMPI PUSH1 0x40 MLOAD PUSH3 0x461BCD PUSH1 0xE5 SHL DUP2 MSTORE PUSH1 0x20 PUSH1 0x4 DUP3 ADD MSTORE PUSH1 0xC PUSH1 0x24 DUP3 ADD MSTORE PUSH12 0x10D85C08195E18D959591959 PUSH1 0xA2 SHL PUSH1 0x44 DUP3 ADD MSTORE PUSH1 0x64 ADD PUSH2 0x99 JUMP JUMPDEST DUP1 PUSH0 PUSH0 DUP3 DUP3 SLOAD PUSH2 0x22A SWAP2 SWAP1 PUSH2 0x382 JUMP JUMPDEST SWAP1 SWAP2 SSTORE POP POP PUSH1 0x1 PUSH1 0x1 PUSH1 0xA0 SHL SUB DUP3 AND PUSH0 SWAP1 DUP2 MSTORE PUSH1 0x4 PUSH1 0x20 MSTORE PUSH1 0x40 DUP2 KECCAK256 DUP1 SLOAD DUP4 SWAP3 SWAP1 PUSH2 0x256 SWAP1 DUP5 SWAP1 PUSH2 0x382 JUMP JUMPDEST SWAP1 SWAP2 SSTORE POP POP PUSH1 0x1 PUSH1 0x1 PUSH1 0xA0 SHL SUB DUP3 AND PUSH0 DUP2 DUP2 MSTORE PUSH1 0x4 PUSH1 0x20 SWAP1 DUP2 MSTORE PUSH1 0x40 DUP1 DUP4 KECCAK256 SLOAD PUSH1 0x6 DUP4 MSTORE DUP2 DUP5 KECCAK256 PUSH1 0x8 DUP1 SLOAD DUP7 MSTORE SWAP1 DUP5 MSTORE DUP3 DUP6 KECCAK256 SWAP2 SWAP1 SWAP2 SSTORE SLOAD DUP5 DUP5 MSTORE PUSH1 0x7 DUP4 MSTORE DUP2 DUP5 KECCAK256 SSTORE DUP1 MLOAD DUP6 DUP2 MSTORE SWAP1 MLOAD PUSH32 0xDDF252AD1BE2C89B69C2B068FC378DAA952BA7F163C4A11628F55A4DF523B3EF SWAP3 SWAP2 DUP2 SWAP1 SUB SWAP1 SWAP2 ADD SWAP1 LOG3 POP POP JUMP JUMPDEST DUP1 MLOAD PUSH1 0x1 PUSH1 0x1 PUSH1 0xA0 SHL SUB DUP2 AND DUP2 EQ PUSH2 0x2E5 JUMPI PUSH0 PUSH0 REVERT JUMPDEST SWAP2 SWAP1 POP JUMP JUMPDEST PUSH0 PUSH0 PUSH0 PUSH0 PUSH1 0x80 DUP6 DUP8 SUB SLT ISZERO PUSH2 0x2FD JUMPI PUSH0 PUSH0 REVERT JUMPDEST PUSH2 0x306 DUP6 PUSH2 0x2CF JUMP JUMPDEST SWAP4 POP PUSH2 0x314 PUSH1 0x20 DUP7 ADD PUSH2 0x2CF JUMP JUMPDEST SWAP3 POP PUSH2 0x322 PUSH1 0x40 DUP7 ADD PUSH2 0x2CF JUMP JUMPDEST PUSH1 0x60 SWAP6 SWAP1 SWAP6 ADD MLOAD SWAP4 SWAP7 SWAP3 SWAP6 POP POP POP JUMP JUMPDEST PUSH4 0x4E487B71 PUSH1 0xE0 SHL PUSH0 MSTORE PUSH1 0x11 PUSH1 0x4 MSTORE PUSH1 0x24 PUSH0 REVERT JUMPDEST DUP1 DUP3 MUL DUP2 ISZERO DUP3 DUP3 DIV DUP5 EQ OR PUSH2 0x35D JUMPI PUSH2 0x35D PUSH2 0x332 JUMP JUMPDEST SWAP3 SWAP2 POP POP JUMP JUMPDEST PUSH0 DUP3 PUSH2 0x37D JUMPI PUSH4 0x4E487B71 PUSH1 0xE0 SHL PUSH0 MSTORE PUSH1 0x12 PUSH1 0x4 MSTORE PUSH1 0x24 PUSH0 REVERT JUMPDEST POP DIV SWAP1 JUMP JUMPDEST DUP1 DUP3 ADD DUP1 DUP3 GT ISZERO PUSH2 0x35D JUMPI PUSH2 0x35D PUSH2 0x332 JUMP JUMPDEST PUSH2 0xDAF DUP1 PUSH2 0x3A2 PUSH0 CODECOPY PUSH0 RETURN INVALID PUSH1 0x80 PUSH1 0x40 MSTORE CALLVALUE DUP1 ISZERO PUSH2 0xF JUMPI PUSH0 PUSH0 REVERT JUMPDEST POP PUSH1 0x4 CALLDATASIZE LT PUSH2 0x127 JUMPI PUSH0 CALLDATALOAD PUSH1 0xE0 SHR DUP1 PUSH4 0x70A08231 GT PUSH2 0xA9 JUMPI DUP1 PUSH4 0xC7574839 GT PUSH2 0x6E JUMPI DUP1 PUSH4 0xC7574839 EQ PUSH2 0x2DE JUMPI DUP1 PUSH4 0xD1B6DD30 EQ PUSH2 0x2F1 JUMPI DUP1 PUSH4 0xD33219B4 EQ PUSH2 0x313 JUMPI DUP1 PUSH4 0xDD62ED3E EQ PUSH2 0x326 JUMPI DUP1 PUSH4 0xEC81B483 EQ PUSH2 0x35E JUMPI PUSH0 PUSH0 REVERT JUMPDEST DUP1 PUSH4 0x70A08231 EQ PUSH2 0x265 JUMPI DUP1 PUSH4 0x95D89B41 EQ PUSH2 0x28D JUMPI DUP1 PUSH4 0x9711715A EQ PUSH2 0x2B0 JUMPI DUP1 PUSH4 0x972A2A62 EQ PUSH2 0x2B8 JUMPI DUP1 PUSH4 0xA9059CBB EQ PUSH2 0x2CB JUMPI PUSH0 PUSH0 REVERT JUMPDEST DUP1 PUSH4 0x2EB4A7AB GT PUSH2 0xEF JUMPI DUP1 PUSH4 0x2EB4A7AB EQ PUSH2 0x1CF JUMPI DUP1 PUSH4 0x313CE567 EQ PUSH2 0x1D8 JUMPI DUP1 PUSH4 0x3A46B1A8 EQ PUSH2 0x1F2 JUMPI DUP1 PUSH4 0x4162169F EQ PUSH2 0x227 JUMPI DUP1 PUSH4 0x42966C68 EQ PUSH2 0x252 JUMPI PUSH0 PUSH0 REVERT JUMPDEST DUP1 PUSH4 0x6FDDE03 EQ PUSH2 0x12B JUMPI DUP1 PUSH4 0x95EA7B3 EQ PUSH2 0x173 JUMPI DUP1 PUSH4 0xBCAE1AC EQ PUSH2 0x196 JUMPI DUP1 PUSH4 0x18160DDD EQ PUSH2 0x1AB JUMPI DUP1 PUSH4 0x23B872DD EQ PUSH2 0x1BC JUMPI JUMPDEST PUSH0 PUSH0 REVERT JUMPDEST PUSH2 0x15D PUSH1 0x40 MLOAD DUP1 PUSH1 0x40 ADD PUSH1 0x40 MSTORE DUP1 PUSH1 0x13 DUP2 MSTORE PUSH1 0x20 ADD PUSH19 0x293432B9BAB99026B0B1B0B8BAB29021B7B4B7 PUSH1 0x69 SHL DUP2 MSTORE POP DUP2 JUMP JUMPDEST PUSH1 0x40 MLOAD PUSH2 0x16A SWAP2 SWAP1 PUSH2 0xACB JUMP JUMPDEST PUSH1 0x40 MLOAD DUP1 SWAP2 SUB SWAP1 RETURN JUMPDEST PUSH2 0x186 PUSH2 0x181 CALLDATASIZE PUSH1 0x4 PUSH2 0xB1B JUMP JUMPDEST PUSH2 0x371 JUMP JUMPDEST PUSH1 0x40 MLOAD SWAP1 ISZERO ISZERO DUP2 MSTORE PUSH1 0x20 ADD PUSH2 0x16A JUMP JUMPDEST PUSH2 0x1A9 PUSH2 0x1A4 CALLDATASIZE PUSH1 0x4 PUSH2 0xB8B JUMP JUMPDEST PUSH2 0x3DD JUMP JUMPDEST STOP JUMPDEST PUSH0 SLOAD JUMPDEST PUSH1 0x40 MLOAD SWAP1 DUP2 MSTORE PUSH1 0x20 ADD PUSH2 0x16A JUMP JUMPDEST PUSH2 0x186 PUSH2 0x1CA CALLDATASIZE PUSH1 0x4 PUSH2 0xBD3 JUMP JUMPDEST PUSH2 0x4E4 JUMP JUMPDEST PUSH2 0x1AE PUSH1 0x9 SLOAD DUP2 JUMP JUMPDEST PUSH2 0x1E0 PUSH1 0x12 DUP2 JUMP JUMPDEST PUSH1 0x40 MLOAD PUSH1 0xFF SWAP1 SWAP2 AND DUP2 MSTORE PUSH1 0x20 ADD PUSH2 0x16A JUMP JUMPDEST PUSH2 0x1AE PUSH2 0x200 CALLDATASIZE PUSH1 0x4 PUSH2 0xB1B JUMP JUMPDEST PUSH1 0x1 PUSH1 0x1 PUSH1 0xA0 SHL SUB SWAP2 SWAP1 SWAP2 AND PUSH0 SWAP1 DUP2 MSTORE PUSH1 0x6 PUSH1 0x20 SWAP1 DUP2 MSTORE PUSH1 0x40 DUP1 DUP4 KECCAK256 SWAP4 DUP4 MSTORE SWAP3 SWAP1 MSTORE KECCAK256 SLOAD SWAP1 JUMP JUMPDEST PUSH1 0x3 SLOAD PUSH2 0x23A SWAP1 PUSH1 0x1 PUSH1 0x1 PUSH1 0xA0 SHL SUB AND DUP2 JUMP JUMPDEST PUSH1 0x40 MLOAD PUSH1 0x1 PUSH1 0x1 PUSH1 0xA0 SHL SUB SWAP1 SWAP2 AND DUP2 MSTORE PUSH1 0x20 ADD PUSH2 0x16A JUMP JUMPDEST PUSH2 0x1A9 PUSH2 0x260 CALLDATASIZE PUSH1 0x4 PUSH2 0xC0D JUMP JUMPDEST PUSH2 0x597 JUMP JUMPDEST PUSH2 0x1AE PUSH2 0x273 CALLDATASIZE PUSH1 0x4 PUSH2 0xC24 JUMP JUMPDEST PUSH1 0x1 PUSH1 0x1 PUSH1 0xA0 SHL SUB AND PUSH0 SWAP1 DUP2 MSTORE PUSH1 0x4 PUSH1 0x20 MSTORE PUSH1 0x40 SWAP1 KECCAK256 SLOAD SWAP1 JUMP JUMPDEST PUSH2 0x15D PUSH1 0x40 MLOAD DUP1 PUSH1 0x40 ADD PUSH1 0x40 MSTORE DUP1 PUSH1 0x4 DUP2 MSTORE PUSH1 0x20 ADD PUSH4 0x5248454D PUSH1 0xE0 SHL DUP2 MSTORE POP DUP2 JUMP JUMPDEST PUSH2 0x1AE PUSH2 0x5A4 JUMP JUMPDEST PUSH2 0x186 PUSH2 0x2C6 CALLDATASIZE PUSH1 0x4 PUSH2 0xC44 JUMP JUMPDEST PUSH2 0x640 JUMP JUMPDEST PUSH2 0x186 PUSH2 0x2D9 CALLDATASIZE PUSH1 0x4 PUSH2 0xB1B JUMP JUMPDEST PUSH2 0x6E3 JUMP JUMPDEST PUSH1 0x2 SLOAD PUSH2 0x23A SWAP1 PUSH1 0x1 PUSH1 0x1 PUSH1 0xA0 SHL SUB AND DUP2 JUMP JUMPDEST PUSH2 0x186 PUSH2 0x2FF CALLDATASIZE PUSH1 0x4 PUSH2 0xC24 JUMP JUMPDEST PUSH1 0xA PUSH1 0x20 MSTORE PUSH0 SWAP1 DUP2 MSTORE PUSH1 0x40 SWAP1 KECCAK256 SLOAD PUSH1 0xFF AND DUP2 JUMP JUMPDEST PUSH1 0x1 SLOAD PUSH2 0x23A SWAP1 PUSH1 0x1 PUSH1 0x1 PUSH1 0xA0 SHL SUB AND DUP2 JUMP JUMPDEST PUSH2 0x1AE PUSH2 0x334 CALLDATASIZE PUSH1 0x4 PUSH2 0xC8C JUMP JUMPDEST PUSH1 0x1 PUSH1 0x1 PUSH1 0xA0 SHL SUB SWAP2 DUP3 AND PUSH0 SWAP1 DUP2 MSTORE PUSH1 0x5 PUSH1 0x20 SWAP1 DUP2 MSTORE PUSH1 0x40 DUP1 DUP4 KECCAK256 SWAP4 SWAP1 SWAP5 AND DUP3 MSTORE SWAP2 SWAP1 SWAP2 MSTORE KECCAK256 SLOAD SWAP1 JUMP JUMPDEST PUSH2 0x1AE PUSH12 0x33B2E3C9FD0803CE8000000 DUP2 JUMP JUMPDEST CALLER PUSH0 DUP2 DUP2 MSTORE PUSH1 0x5 PUSH1 0x20 SWAP1 DUP2 MSTORE PUSH1 0x40 DUP1 DUP4 KECCAK256 PUSH1 0x1 PUSH1 0x1 PUSH1 0xA0 SHL SUB DUP8 AND DUP1 DUP6 MSTORE SWAP3 MSTORE DUP1 DUP4 KECCAK256 DUP6 SWAP1 SSTORE MLOAD SWAP2 SWAP3 SWAP1 SWAP2 PUSH32 0x8C5BE1E5EBEC7D5BD14F71427D1E84F3DD0314C0F7B2291E5B200AC8C7C3B925 SWAP1 PUSH2 0x3CB SWAP1 DUP7 DUP2 MSTORE PUSH1 0x20 ADD SWAP1 JUMP JUMPDEST PUSH1 0x40 MLOAD DUP1 SWAP2 SUB SWAP1 LOG3 POP PUSH1 0x1 JUMPDEST SWAP3 SWAP2 POP POP JUMP JUMPDEST CALLER PUSH0 SWAP1 DUP2 MSTORE PUSH1 0xA PUSH1 0x20 MSTORE PUSH1 0x40 SWAP1 KECCAK256 SLOAD PUSH1 0xFF AND ISZERO PUSH2 0x433 JUMPI PUSH1 0x40 MLOAD PUSH3 0x461BCD PUSH1 0xE5 SHL DUP2 MSTORE PUSH1 0x20 PUSH1 0x4 DUP3 ADD MSTORE PUSH1 0xF PUSH1 0x24 DUP3 ADD MSTORE PUSH15 0x105B1C9958591E4818DB185A5B5959 PUSH1 0x8A SHL PUSH1 0x44 DUP3 ADD MSTORE PUSH1 0x64 ADD JUMPDEST PUSH1 0x40 MLOAD DUP1 SWAP2 SUB SWAP1 REVERT JUMPDEST PUSH1 0x40 MLOAD PUSH12 0xFFFFFFFFFFFFFFFFFFFFFFFF NOT CALLER PUSH1 0x60 SHL AND PUSH1 0x20 DUP3 ADD MSTORE PUSH1 0x34 DUP2 ADD DUP5 SWAP1 MSTORE PUSH0 SWAP1 PUSH1 0x54 ADD PUSH1 0x40 MLOAD PUSH1 0x20 DUP2 DUP4 SUB SUB DUP2 MSTORE SWAP1 PUSH1 0x40 MSTORE DUP1 MLOAD SWAP1 PUSH1 0x20 ADD KECCAK256 SWAP1 POP PUSH2 0x47D DUP4 DUP4 DUP4 PUSH2 0x640 JUMP JUMPDEST PUSH2 0x4B9 JUMPI PUSH1 0x40 MLOAD PUSH3 0x461BCD PUSH1 0xE5 SHL DUP2 MSTORE PUSH1 0x20 PUSH1 0x4 DUP3 ADD MSTORE PUSH1 0xD PUSH1 0x24 DUP3 ADD MSTORE PUSH13 0x24B73B30B634B210383937B7B3 PUSH1 0x99 SHL PUSH1 0x44 DUP3 ADD MSTORE PUSH1 0x64 ADD PUSH2 0x42A JUMP JUMPDEST CALLER PUSH0 DUP2 DUP2 MSTORE PUSH1 0xA PUSH1 0x20 MSTORE PUSH1 0x40 SWAP1 KECCAK256 DUP1 SLOAD PUSH1 0xFF NOT AND PUSH1 0x1 OR SWAP1 SSTORE PUSH2 0x4DE SWAP1 ADDRESS SWAP1 DUP7 PUSH2 0x6F8 JUMP JUMPDEST POP POP POP POP JUMP JUMPDEST PUSH1 0x1 PUSH1 0x1 PUSH1 0xA0 SHL SUB DUP4 AND PUSH0 SWAP1 DUP2 MSTORE PUSH1 0x5 PUSH1 0x20 SWAP1 DUP2 MSTORE PUSH1 0x40 DUP1 DUP4 KECCAK256 CALLER DUP5 MSTORE SWAP1 SWAP2 MSTORE DUP2 KECCAK256 SLOAD DUP3 GT ISZERO PUSH2 0x54A JUMPI PUSH1 0x40 MLOAD PUSH3 0x461BCD PUSH1 0xE5 SHL DUP2 MSTORE PUSH1 0x20 PUSH1 0x4 DUP3 ADD MSTORE PUSH1 0x11 PUSH1 0x24 DUP3 ADD MSTORE PUSH17 0x416C6C6F77616E636520746F6F206C6F77 PUSH1 0x78 SHL PUSH1 0x44 DUP3 ADD MSTORE PUSH1 0x64 ADD PUSH2 0x42A JUMP JUMPDEST PUSH1 0x1 PUSH1 0x1 PUSH1 0xA0 SHL SUB DUP5 AND PUSH0 SWAP1 DUP2 MSTORE PUSH1 0x5 PUSH1 0x20 SWAP1 DUP2 MSTORE PUSH1 0x40 DUP1 DUP4 KECCAK256 CALLER DUP5 MSTORE SWAP1 SWAP2 MSTORE DUP2 KECCAK256 DUP1 SLOAD DUP5 SWAP3 SWAP1 PUSH2 0x57C SWAP1 DUP5 SWAP1 PUSH2 0xCD1 JUMP JUMPDEST SWAP1 SWAP2 SSTORE POP PUSH2 0x58D SWAP1 POP DUP5 DUP5 DUP5 PUSH2 0x6F8 JUMP JUMPDEST POP PUSH1 0x1 SWAP4 SWAP3 POP POP POP JUMP JUMPDEST PUSH2 0x5A1 CALLER DUP3 PUSH2 0x97D JUMP JUMPDEST POP JUMP JUMPDEST PUSH1 0x3 SLOAD PUSH0 SWAP1 PUSH1 0x1 PUSH1 0x1 PUSH1 0xA0 SHL SUB AND CALLER EQ PUSH2 0x5EA JUMPI PUSH1 0x40 MLOAD PUSH3 0x461BCD PUSH1 0xE5 SHL DUP2 MSTORE PUSH1 0x20 PUSH1 0x4 DUP3 ADD MSTORE PUSH1 0x7 PUSH1 0x24 DUP3 ADD MSTORE PUSH7 0x4E6F742044414F PUSH1 0xC8 SHL PUSH1 0x44 DUP3 ADD MSTORE PUSH1 0x64 ADD PUSH2 0x42A JUMP JUMPDEST PUSH1 0x8 DUP1 SLOAD SWAP1 PUSH0 PUSH2 0x5F9 DUP4 PUSH2 0xCE4 JUMP JUMPDEST SWAP2 SWAP1 POP SSTORE POP PUSH32 0x8030E83B04D87BEF53480E26263266D6CA66863AA8506ACA6F2559D18AA1CB67 PUSH1 0x8 SLOAD PUSH1 0x40 MLOAD PUSH2 0x631 SWAP2 DUP2 MSTORE PUSH1 0x20 ADD SWAP1 JUMP JUMPDEST PUSH1 0x40 MLOAD DUP1 SWAP2 SUB SWAP1 LOG1 POP PUSH1 0x8 SLOAD SWAP1 JUMP JUMPDEST PUSH0 DUP2 DUP2 JUMPDEST DUP5 DUP2 LT ISZERO PUSH2 0x6D6 JUMPI PUSH0 DUP7 DUP7 DUP4 DUP2 DUP2 LT PUSH2 0x65F JUMPI PUSH2 0x65F PUSH2 0xCFC JUMP JUMPDEST SWAP1 POP PUSH1 0x20 MUL ADD CALLDATALOAD SWAP1 POP DUP1 DUP4 GT PUSH2 0x6A0 JUMPI PUSH1 0x40 DUP1 MLOAD PUSH1 0x20 DUP2 ADD DUP6 SWAP1 MSTORE SWAP1 DUP2 ADD DUP3 SWAP1 MSTORE PUSH1 0x60 ADD PUSH1 0x40 MLOAD PUSH1 0x20 DUP2 DUP4 SUB SUB DUP2 MSTORE SWAP1 PUSH1 0x40 MSTORE DUP1 MLOAD SWAP1 PUSH1 0x20 ADD KECCAK256 SWAP3 POP PUSH2 0x6CD JUMP JUMPDEST PUSH1 0x40 DUP1 MLOAD PUSH1 0x20 DUP2 ADD DUP4 SWAP1 MSTORE SWAP1 DUP2 ADD DUP5 SWAP1 MSTORE PUSH1 0x60 ADD PUSH1 0x40 MLOAD PUSH1 0x20 DUP2 DUP4 SUB SUB DUP2 MSTORE SWAP1 PUSH1 0x40 MSTORE DUP1 MLOAD SWAP1 PUSH1 0x20 ADD KECCAK256 SWAP3 POP JUMPDEST POP PUSH1 0x1 ADD PUSH2 0x644 JUMP JUMPDEST POP PUSH1 0x9 SLOAD EQ SWAP5 SWAP4 POP POP POP POP JUMP JUMPDEST PUSH0 PUSH2 0x6EF CALLER DUP5 DUP5 PUSH2 0x6F8 JUMP JUMPDEST POP PUSH1 0x1 SWAP3 SWAP2 POP POP JUMP JUMPDEST PUSH1 0x1 PUSH1 0x1 PUSH1 0xA0 SHL SUB DUP4 AND PUSH0 SWAP1 DUP2 MSTORE PUSH1 0x4 PUSH1 0x20 MSTORE PUSH1 0x40 SWAP1 KECCAK256 SLOAD DUP2 GT ISZERO PUSH2 0x74E JUMPI PUSH1 0x40 MLOAD PUSH3 0x461BCD PUSH1 0xE5 SHL DUP2 MSTORE PUSH1 0x20 PUSH1 0x4 DUP3 ADD MSTORE PUSH1 0xC PUSH1 0x24 DUP3 ADD MSTORE PUSH12 0x125B9CDD59999A58DA595B9D PUSH1 0xA2 SHL PUSH1 0x44 DUP3 ADD MSTORE PUSH1 0x64 ADD PUSH2 0x42A JUMP JUMPDEST PUSH1 0x1 PUSH1 0x1 PUSH1 0xA0 SHL SUB DUP3 AND PUSH2 0x793 JUMPI PUSH1 0x40 MLOAD PUSH3 0x461BCD PUSH1 0xE5 SHL DUP2 MSTORE PUSH1 0x20 PUSH1 0x4 DUP3 ADD MSTORE PUSH1 0xC PUSH1 0x24 DUP3 ADD MSTORE PUSH12 0x5A65726F2061646472657373 PUSH1 0xA0 SHL PUSH1 0x44 DUP3 ADD MSTORE PUSH1 0x64 ADD PUSH2 0x42A JUMP JUMPDEST PUSH0 PUSH2 0x3E8 PUSH2 0x7A2 DUP4 PUSH1 0x5 PUSH2 0xD10 JUMP JUMPDEST PUSH2 0x7AC SWAP2 SWAP1 PUSH2 0xD27 JUMP JUMPDEST SWAP1 POP PUSH0 PUSH2 0x2710 PUSH2 0x7BD DUP5 PUSH1 0x19 PUSH2 0xD10 JUMP JUMPDEST PUSH2 0x7C7 SWAP2 SWAP1 PUSH2 0xD27 JUMP JUMPDEST SWAP1 POP PUSH0 DUP2 PUSH2 0x7D5 DUP5 DUP7 PUSH2 0xCD1 JUMP JUMPDEST PUSH2 0x7DF SWAP2 SWAP1 PUSH2 0xCD1 JUMP JUMPDEST PUSH1 0x1 PUSH1 0x1 PUSH1 0xA0 SHL SUB DUP8 AND PUSH0 SWAP1 DUP2 MSTORE PUSH1 0x4 PUSH1 0x20 MSTORE PUSH1 0x40 DUP2 KECCAK256 DUP1 SLOAD SWAP3 SWAP4 POP DUP7 SWAP3 SWAP1 SWAP2 SWAP1 PUSH2 0x80B SWAP1 DUP5 SWAP1 PUSH2 0xCD1 JUMP JUMPDEST SWAP1 SWAP2 SSTORE POP POP PUSH1 0x1 PUSH1 0x1 PUSH1 0xA0 SHL SUB DUP6 AND PUSH0 SWAP1 DUP2 MSTORE PUSH1 0x4 PUSH1 0x20 MSTORE PUSH1 0x40 DUP2 KECCAK256 DUP1 SLOAD DUP4 SWAP3 SWAP1 PUSH2 0x837 SWAP1 DUP5 SWAP1 PUSH2 0xD46 JUMP JUMPDEST SWAP1 SWAP2 SSTORE POP POP PUSH1 0x2 SLOAD PUSH1 0x1 PUSH1 0x1 PUSH1 0xA0 SHL SUB AND PUSH0 SWAP1 DUP2 MSTORE PUSH1 0x4 PUSH1 0x20 MSTORE PUSH1 0x40 DUP2 KECCAK256 DUP1 SLOAD DUP5 SWAP3 SWAP1 PUSH2 0x865 SWAP1 DUP5 SWAP1 PUSH2 0xD46 JUMP JUMPDEST SWAP3 POP POP DUP2 SWAP1 SSTORE POP DUP3 PUSH0 PUSH0 DUP3 DUP3 SLOAD PUSH2 0x87C SWAP2 SWAP1 PUSH2 0xCD1 JUMP JUMPDEST SWAP1 SWAP2 SSTORE POP PUSH2 0x88B SWAP1 POP DUP7 PUSH2 0xA8C JUMP JUMPDEST PUSH2 0x894 DUP6 PUSH2 0xA8C JUMP JUMPDEST PUSH1 0x2 SLOAD PUSH2 0x8A9 SWAP1 PUSH1 0x1 PUSH1 0x1 PUSH1 0xA0 SHL SUB AND PUSH2 0xA8C JUMP JUMPDEST DUP5 PUSH1 0x1 PUSH1 0x1 PUSH1 0xA0 SHL SUB AND DUP7 PUSH1 0x1 PUSH1 0x1 PUSH1 0xA0 SHL SUB AND PUSH0 MLOAD PUSH1 0x20 PUSH2 0xD5A PUSH0 CODECOPY PUSH0 MLOAD SWAP1 PUSH0 MSTORE DUP4 PUSH1 0x40 MLOAD PUSH2 0x8DB SWAP2 DUP2 MSTORE PUSH1 0x20 ADD SWAP1 JUMP JUMPDEST PUSH1 0x40 MLOAD DUP1 SWAP2 SUB SWAP1 LOG3 PUSH1 0x2 SLOAD PUSH1 0x40 MLOAD DUP4 DUP2 MSTORE PUSH1 0x1 PUSH1 0x1 PUSH1 0xA0 SHL SUB SWAP2 DUP3 AND SWAP2 DUP9 AND SWAP1 PUSH0 MLOAD PUSH1 0x20 PUSH2 0xD5A PUSH0 CODECOPY PUSH0 MLOAD SWAP1 PUSH0 MSTORE SWAP1 PUSH1 0x20 ADD PUSH1 0x40 MLOAD DUP1 SWAP2 SUB SWAP1 LOG3 PUSH1 0x40 MLOAD DUP4 DUP2 MSTORE PUSH0 SWAP1 PUSH1 0x1 PUSH1 0x1 PUSH1 0xA0 SHL SUB DUP9 AND SWAP1 PUSH0 MLOAD PUSH1 0x20 PUSH2 0xD5A PUSH0 CODECOPY PUSH0 MLOAD SWAP1 PUSH0 MSTORE SWAP1 PUSH1 0x20 ADD PUSH1 0x40 MLOAD DUP1 SWAP2 SUB SWAP1 LOG3 PUSH1 0x40 MLOAD DUP4 DUP2 MSTORE PUSH32 0x6EF4855B666DCC7884561072E4358B28DFE01FEB1B7F4DCEBC00E62D50394AC7 SWAP1 PUSH1 0x20 ADD PUSH1 0x40 MLOAD DUP1 SWAP2 SUB SWAP1 LOG1 POP POP POP POP POP POP JUMP JUMPDEST PUSH1 0x1 PUSH1 0x1 PUSH1 0xA0 SHL SUB DUP3 AND PUSH0 SWAP1 DUP2 MSTORE PUSH1 0x4 PUSH1 0x20 MSTORE PUSH1 0x40 SWAP1 KECCAK256 SLOAD DUP2 GT ISZERO PUSH2 0x9DB JUMPI PUSH1 0x40 MLOAD PUSH3 0x461BCD PUSH1 0xE5 SHL DUP2 MSTORE PUSH1 0x20 PUSH1 0x4 DUP3 ADD MSTORE PUSH1 0x14 PUSH1 0x24 DUP3 ADD MSTORE PUSH20 0x496E73756666696369656E742062616C616E6365 PUSH1 0x60 SHL PUSH1 0x44 DUP3 ADD MSTORE PUSH1 0x64 ADD PUSH2 0x42A JUMP JUMPDEST PUSH1 0x1 PUSH1 0x1 PUSH1 0xA0 SHL SUB DUP3 AND PUSH0 SWAP1 DUP2 MSTORE PUSH1 0x4 PUSH1 0x20 MSTORE PUSH1 0x40 DUP2 KECCAK256 DUP1 SLOAD DUP4 SWAP3 SWAP1 PUSH2 0xA02 SWAP1 DUP5 SWAP1 PUSH2 0xCD1 JUMP JUMPDEST SWAP3 POP POP DUP2 SWAP1 SSTORE POP DUP1 PUSH0 PUSH0 DUP3 DUP3 SLOAD PUSH2 0xA19 SWAP2 SWAP1 PUSH2 0xCD1 JUMP JUMPDEST SWAP1 SWAP2 SSTORE POP PUSH2 0xA28 SWAP1 POP DUP3 PUSH2 0xA8C JUMP JUMPDEST PUSH1 0x40 MLOAD DUP2 DUP2 MSTORE PUSH0 SWAP1 PUSH1 0x1 PUSH1 0x1 PUSH1 0xA0 SHL SUB DUP5 AND SWAP1 PUSH0 MLOAD PUSH1 0x20 PUSH2 0xD5A PUSH0 CODECOPY PUSH0 MLOAD SWAP1 PUSH0 MSTORE SWAP1 PUSH1 0x20 ADD PUSH1 0x40 MLOAD DUP1 SWAP2 SUB SWAP1 LOG3 PUSH1 0x40 MLOAD DUP2 DUP2 MSTORE PUSH32 0x6EF4855B666DCC7884561072E4358B28DFE01FEB1B7F4DCEBC00E62D50394AC7 SWAP1 PUSH1 0x20 ADD PUSH1 0x40 MLOAD DUP1 SWAP2 SUB SWAP1 LOG1 POP POP JUMP JUMPDEST PUSH1 0x1 PUSH1 0x1 PUSH1 0xA0 SHL SUB AND PUSH0 DUP2 DUP2 MSTORE PUSH1 0x4 PUSH1 0x20 SWAP1 DUP2 MSTORE PUSH1 0x40 DUP1 DUP4 KECCAK256 SLOAD PUSH1 0x6 DUP4 MSTORE DUP2 DUP5 KECCAK256 PUSH1 0x8 DUP1 SLOAD DUP7 MSTORE SWAP1 DUP5 MSTORE DUP3 DUP6 KECCAK256 SWAP2 SWAP1 SWAP2 SSTORE SLOAD SWAP4 DUP4 MSTORE PUSH1 0x7 SWAP1 SWAP2 MSTORE SWAP1 KECCAK256 SSTORE JUMP JUMPDEST PUSH1 0x20 DUP2 MSTORE PUSH0 DUP3 MLOAD DUP1 PUSH1 0x20 DUP5 ADD MSTORE DUP1 PUSH1 0x20 DUP6 ADD PUSH1 0x40 DUP6 ADD MCOPY PUSH0 PUSH1 0x40 DUP3 DUP6 ADD ADD MSTORE PUSH1 0x40 PUSH1 0x1F NOT PUSH1 0x1F DUP4 ADD AND DUP5 ADD ADD SWAP2 POP POP SWAP3 SWAP2 POP POP JUMP JUMPDEST DUP1 CALLDATALOAD PUSH1 0x1 PUSH1 0x1 PUSH1 0xA0 SHL SUB DUP2 AND DUP2 EQ PUSH2 0xB16 JUMPI PUSH0 PUSH0 REVERT JUMPDEST SWAP2 SWAP1 POP JUMP JUMPDEST PUSH0 PUSH0 PUSH1 0x40 DUP4 DUP6 SUB SLT ISZERO PUSH2 0xB2C JUMPI PUSH0 PUSH0 REVERT JUMPDEST PUSH2 0xB35 DUP4 PUSH2 0xB00 JUMP JUMPDEST SWAP5 PUSH1 0x20 SWAP4 SWAP1 SWAP4 ADD CALLDATALOAD SWAP4 POP POP POP JUMP JUMPDEST PUSH0 PUSH0 DUP4 PUSH1 0x1F DUP5 ADD SLT PUSH2 0xB53 JUMPI PUSH0 PUSH0 REVERT JUMPDEST POP DUP2 CALLDATALOAD PUSH8 0xFFFFFFFFFFFFFFFF DUP2 GT ISZERO PUSH2 0xB6A JUMPI PUSH0 PUSH0 REVERT JUMPDEST PUSH1 0x20 DUP4 ADD SWAP2 POP DUP4 PUSH1 0x20 DUP3 PUSH1 0x5 SHL DUP6 ADD ADD GT ISZERO PUSH2 0xB84 JUMPI PUSH0 PUSH0 REVERT JUMPDEST SWAP3 POP SWAP3 SWAP1 POP JUMP JUMPDEST PUSH0 PUSH0 PUSH0 PUSH1 0x40 DUP5 DUP7 SUB SLT ISZERO PUSH2 0xB9D JUMPI PUSH0 PUSH0 REVERT JUMPDEST DUP4 CALLDATALOAD SWAP3 POP PUSH1 0x20 DUP5 ADD CALLDATALOAD PUSH8 0xFFFFFFFFFFFFFFFF DUP2 GT ISZERO PUSH2 0xBBA JUMPI PUSH0 PUSH0 REVERT JUMPDEST PUSH2 0xBC6 DUP7 DUP3 DUP8 ADD PUSH2 0xB43 JUMP JUMPDEST SWAP5 SWAP8 SWAP1 SWAP7 POP SWAP4 SWAP5 POP POP POP POP JUMP JUMPDEST PUSH0 PUSH0 PUSH0 PUSH1 0x60 DUP5 DUP7 SUB SLT ISZERO PUSH2 0xBE5 JUMPI PUSH0 PUSH0 REVERT JUMPDEST PUSH2 0xBEE DUP5 PUSH2 0xB00 JUMP JUMPDEST SWAP3 POP PUSH2 0xBFC PUSH1 0x20 DUP6 ADD PUSH2 0xB00 JUMP JUMPDEST SWAP3 SWAP6 SWAP3 SWAP5 POP POP POP PUSH1 0x40 SWAP2 SWAP1 SWAP2 ADD CALLDATALOAD SWAP1 JUMP JUMPDEST PUSH0 PUSH1 0x20 DUP3 DUP5 SUB SLT ISZERO PUSH2 0xC1D JUMPI PUSH0 PUSH0 REVERT JUMPDEST POP CALLDATALOAD SWAP2 SWAP1 POP JUMP JUMPDEST PUSH0 PUSH1 0x20 DUP3 DUP5 SUB SLT ISZERO PUSH2 0xC34 JUMPI PUSH0 PUSH0 REVERT JUMPDEST PUSH2 0xC3D DUP3 PUSH2 0xB00 JUMP JUMPDEST SWAP4 SWAP3 POP POP POP JUMP JUMPDEST PUSH0 PUSH0 PUSH0 PUSH1 0x40 DUP5 DUP7 SUB SLT ISZERO PUSH2 0xC56 JUMPI PUSH0 PUSH0 REVERT JUMPDEST DUP4 CALLDATALOAD PUSH8 0xFFFFFFFFFFFFFFFF DUP2 GT ISZERO PUSH2 0xC6C JUMPI PUSH0 PUSH0 REVERT JUMPDEST PUSH2 0xC78 DUP7 DUP3 DUP8 ADD PUSH2 0xB43 JUMP JUMPDEST SWAP1 SWAP8 SWAP1 SWAP7 POP PUSH1 0x20 SWAP6 SWAP1 SWAP6 ADD CALLDATALOAD SWAP5 SWAP4 POP POP POP POP JUMP JUMPDEST PUSH0 PUSH0 PUSH1 0x40 DUP4 DUP6 SUB SLT ISZERO PUSH2 0xC9D JUMPI PUSH0 PUSH0 REVERT JUMPDEST PUSH2 0xCA6 DUP4 PUSH2 0xB00 JUMP JUMPDEST SWAP2 POP PUSH2 0xCB4 PUSH1 0x20 DUP5 ADD PUSH2 0xB00 JUMP JUMPDEST SWAP1 POP SWAP3 POP SWAP3 SWAP1 POP JUMP JUMPDEST PUSH4 0x4E487B71 PUSH1 0xE0 SHL PUSH0 MSTORE PUSH1 0x11 PUSH1 0x4 MSTORE PUSH1 0x24 PUSH0 REVERT JUMPDEST DUP2 DUP2 SUB DUP2 DUP2 GT ISZERO PUSH2 0x3D7 JUMPI PUSH2 0x3D7 PUSH2 0xCBD JUMP JUMPDEST PUSH0 PUSH1 0x1 DUP3 ADD PUSH2 0xCF5 JUMPI PUSH2 0xCF5 PUSH2 0xCBD JUMP JUMPDEST POP PUSH1 0x1 ADD SWAP1 JUMP JUMPDEST PUSH4 0x4E487B71 PUSH1 0xE0 SHL PUSH0 MSTORE PUSH1 0x32 PUSH1 0x4 MSTORE PUSH1 0x24 PUSH0 REVERT JUMPDEST DUP1 DUP3 MUL DUP2 ISZERO DUP3 DUP3 DIV DUP5 EQ OR PUSH2 0x3D7 JUMPI PUSH2 0x3D7 PUSH2 0xCBD JUMP JUMPDEST PUSH0 DUP3 PUSH2 0xD41 JUMPI PUSH4 0x4E487B71 PUSH1 0xE0 SHL PUSH0 MSTORE PUSH1 0x12 PUSH1 0x4 MSTORE PUSH1 0x24 PUSH0 REVERT JUMPDEST POP DIV SWAP1 JUMP JUMPDEST DUP1 DUP3 ADD DUP1 DUP3 GT ISZERO PUSH2 0x3D7 JUMPI PUSH2 0x3D7 PUSH2 0xCBD JUMP INVALID 0xDD CALLCODE MSTORE 0xAD SHL 0xE2 0xC8 SWAP12 PUSH10 0xC2B068FC378DAA952BA7 CALL PUSH4 0xC4A11628 CREATE2 GAS 0x4D CREATE2 0x23 0xB3 0xEF LOG2 PUSH5 0x6970667358 0x22 SLT KECCAK256 OR SWAP5 SWAP9 DUP8 DUP8 CHAINID PUSH2 0x58C7 MCOPY CALLF 0xE94 0xCE 0xCE 0xC LOG4 SAR BALANCE SIGNEXTEND SWAP7 0xE 0xBA RJUMPI 0x80F0 0xCB 0xAA PUSH19 0x1FF97564736F6C634300081D00330000000000 "
				},
				"gasEstimates": {
					"creation": {
						"codeDepositCost": "700600",
						"executionCost": "infinite",
						"totalCost": "infinite"
					},
					"external": {
						"CAP()": "304",
						"airdropClaimed(address)": "2572",
						"allowance(address,address)": "infinite",
						"approve(address,uint256)": "24542",
						"balanceOf(address)": "2557",
						"burn(uint256)": "infinite",
						"claimAirdrop(uint256,bytes32[])": "infinite",
						"communityWallet()": "2358",
						"dao()": "2425",
						"decimals()": "248",
						"getPastVotes(address,uint256)": "2699",
						"merkleRoot()": "2317",
						"name()": "infinite",
						"snapshot()": "31970",
						"symbol()": "infinite",
						"timelock()": "2402",
						"totalSupply()": "2369",
						"transfer(address,uint256)": "infinite",
						"transferFrom(address,address,uint256)": "infinite",
						"verify(bytes32[],bytes32)": "infinite"
					},
					"internal": {
						"_burn(address,uint256)": "infinite",
						"_mint(address,uint256)": "infinite",
						"_transfer(address,address,uint256)": "infinite",
						"_updateSnapshot(address)": "50811"
					}
				},
				"methodIdentifiers": {
					"CAP()": "ec81b483",
					"airdropClaimed(address)": "d1b6dd30",
					"allowance(address,address)": "dd62ed3e",
					"approve(address,uint256)": "095ea7b3",
					"balanceOf(address)": "70a08231",
					"burn(uint256)": "42966c68",
					"claimAirdrop(uint256,bytes32[])": "0bcae1ac",
					"communityWallet()": "c7574839",
					"dao()": "4162169f",
					"decimals()": "313ce567",
					"getPastVotes(address,uint256)": "3a46b1a8",
					"merkleRoot()": "2eb4a7ab",
					"name()": "06fdde03",
					"snapshot()": "9711715a",
					"symbol()": "95d89b41",
					"timelock()": "d33219b4",
					"totalSupply()": "18160ddd",
					"transfer(address,uint256)": "a9059cbb",
					"transferFrom(address,address,uint256)": "23b872dd",
					"verify(bytes32[],bytes32)": "972a2a62"
				}
			},
			"storageLayout": {
				"storage": [
					{
						"astId": 13,
						"contract": "contracts/RhesusMacaqueCoin.sol:RhesusMacaqueCoin",
						"label": "_totalSupply",
						"offset": 0,
						"slot": "0",
						"type": "t_uint256"
					},
					{
						"astId": 22,
						"contract": "contracts/RhesusMacaqueCoin.sol:RhesusMacaqueCoin",
						"label": "timelock",
						"offset": 0,
						"slot": "1",
						"type": "t_address"
					},
					{
						"astId": 24,
						"contract": "contracts/RhesusMacaqueCoin.sol:RhesusMacaqueCoin",
						"label": "communityWallet",
						"offset": 0,
						"slot": "2",
						"type": "t_address"
					},
					{
						"astId": 26,
						"contract": "contracts/RhesusMacaqueCoin.sol:RhesusMacaqueCoin",
						"label": "dao",
						"offset": 0,
						"slot": "3",
						"type": "t_address"
					},
					{
						"astId": 30,
						"contract": "contracts/RhesusMacaqueCoin.sol:RhesusMacaqueCoin",
						"label": "_balances",
						"offset": 0,
						"slot": "4",
						"type": "t_mapping(t_address,t_uint256)"
					},
					{
						"astId": 36,
						"contract": "contracts/RhesusMacaqueCoin.sol:RhesusMacaqueCoin",
						"label": "_allowances",
						"offset": 0,
						"slot": "5",
						"type": "t_mapping(t_address,t_mapping(t_address,t_uint256))"
					},
					{
						"astId": 42,
						"contract": "contracts/RhesusMacaqueCoin.sol:RhesusMacaqueCoin",
						"label": "_snapshots",
						"offset": 0,
						"slot": "6",
						"type": "t_mapping(t_address,t_mapping(t_uint256,t_uint256))"
					},
					{
						"astId": 46,
						"contract": "contracts/RhesusMacaqueCoin.sol:RhesusMacaqueCoin",
						"label": "_currentSnapshotId",
						"offset": 0,
						"slot": "7",
						"type": "t_mapping(t_address,t_uint256)"
					},
					{
						"astId": 48,
						"contract": "contracts/RhesusMacaqueCoin.sol:RhesusMacaqueCoin",
						"label": "_snapshotCounter",
						"offset": 0,
						"slot": "8",
						"type": "t_uint256"
					},
					{
						"astId": 50,
						"contract": "contracts/RhesusMacaqueCoin.sol:RhesusMacaqueCoin",
						"label": "merkleRoot",
						"offset": 0,
						"slot": "9",
						"type": "t_bytes32"
					},
					{
						"astId": 54,
						"contract": "contracts/RhesusMacaqueCoin.sol:RhesusMacaqueCoin",
						"label": "airdropClaimed",
						"offset": 0,
						"slot": "10",
						"type": "t_mapping(t_address,t_bool)"
					}
				],
				"types": {
					"t_address": {
						"encoding": "inplace",
						"label": "address",
						"numberOfBytes": "20"
					},
					"t_bool": {
						"encoding": "inplace",
						"label": "bool",
						"numberOfBytes": "1"
					},
					"t_bytes32": {
						"encoding": "inplace",
						"label": "bytes32",
						"numberOfBytes": "32"
					},
					"t_mapping(t_address,t_bool)": {
						"encoding": "mapping",
						"key": "t_address",
						"label": "mapping(address => bool)",
						"numberOfBytes": "32",
						"value": "t_bool"
					},
					"t_mapping(t_address,t_mapping(t_address,t_uint256))": {
						"encoding": "mapping",
						"key": "t_address",
						"label": "mapping(address => mapping(address => uint256))",
						"numberOfBytes": "32",
						"value": "t_mapping(t_address,t_uint256)"
					},
					"t_mapping(t_address,t_mapping(t_uint256,t_uint256))": {
						"encoding": "mapping",
						"key": "t_address",
						"label": "mapping(address => mapping(uint256 => uint256))",
						"numberOfBytes": "32",
						"value": "t_mapping(t_uint256,t_uint256)"
					},
					"t_mapping(t_address,t_uint256)": {
						"encoding": "mapping",
						"key": "t_address",
						"label": "mapping(address => uint256)",
						"numberOfBytes": "32",
						"value": "t_uint256"
					},
					"t_mapping(t_uint256,t_uint256)": {
						"encoding": "mapping",
						"key": "t_uint256",
						"label": "mapping(uint256 => uint256)",
						"numberOfBytes": "32",
						"value": "t_uint256"
					},
					"t_uint256": {
						"encoding": "inplace",
						"label": "uint256",
						"numberOfBytes": "32"
					}
				}
			},
			"userdoc": {
				"kind": "user",
				"methods": {},
				"version": 1
			}
		}
	}
}