{
	"contracts/MerkleAirdropNFT.sol": {
		"MerkleAirdropNFT": {
			"abi": [
				{
					"inputs": [
						{
							"internalType": "address",
							"name": "_daoAddress",
							"type": "address"
						}
					],
					"stateMutability": "nonpayable",
					"type": "constructor"
				},
				{
					"anonymous": false,
					"inputs": [
						{
							"indexed": true,
							"internalType": "address",
							"name": "user",
							"type": "address"
						},
						{
							"indexed": true,
							"internalType": "uint256",
							"name": "tokenId",
							"type": "uint256"
						}
					],
					"name": "AirdropClaimed",
					"type": "event"
				},
				{
					"inputs": [
						{
							"internalType": "uint256",
							"name": "tokenId",
							"type": "uint256"
						},
						{
							"internalType": "bytes32[]",
							"name": "_merkleProof",
							"type": "bytes32[]"
						}
					],
					"name": "claimAirdrop",
					"outputs": [],
					"stateMutability": "nonpayable",
					"type": "function"
				},
				{
					"inputs": [],
					"name": "daoAddress",
					"outputs": [
						{
							"internalType": "address",
							"name": "",
							"type": "address"
						}
					],
					"stateMutability": "view",
					"type": "function"
				},
				{
					"inputs": [
						{
							"internalType": "address",
							"name": "",
							"type": "address"
						}
					],
					"name": "hasClaimed",
					"outputs": [
						{
							"internalType": "bool",
							"name": "",
							"type": "bool"
						}
					],
					"stateMutability": "view",
					"type": "function"
				},
				{
					"inputs": [],
					"name": "merkleRoot",
					"outputs": [
						{
							"internalType": "bytes32",
							"name": "",
							"type": "bytes32"
						}
					],
					"stateMutability": "view",
					"type": "function"
				},
				{
					"inputs": [
						{
							"internalType": "address",
							"name": "to",
							"type": "address"
						}
					],
					"name": "mintNFT",
					"outputs": [],
					"stateMutability": "nonpayable",
					"type": "function"
				},
				{
					"inputs": [],
					"name": "name",
					"outputs": [
						{
							"internalType": "string",
							"name": "",
							"type": "string"
						}
					],
					"stateMutability": "view",
					"type": "function"
				},
				{
					"inputs": [],
					"name": "nextTokenId",
					"outputs": [
						{
							"internalType": "uint256",
							"name": "",
							"type": "uint256"
						}
					],
					"stateMutability": "view",
					"type": "function"
				},
				{
					"inputs": [],
					"name": "nftContract",
					"outputs": [
						{
							"internalType": "address",
							"name": "",
							"type": "address"
						}
					],
					"stateMutability": "view",
					"type": "function"
				},
				{
					"inputs": [
						{
							"internalType": "uint256",
							"name": "tokenId",
							"type": "uint256"
						}
					],
					"name": "ownerOf",
					"outputs": [
						{
							"internalType": "address",
							"name": "",
							"type": "address"
						}
					],
					"stateMutability": "view",
					"type": "function"
				},
				{
					"inputs": [
						{
							"internalType": "uint256",
							"name": "",
							"type": "uint256"
						}
					],
					"name": "owners",
					"outputs": [
						{
							"internalType": "address",
							"name": "",
							"type": "address"
						}
					],
					"stateMutability": "view",
					"type": "function"
				},
				{
					"inputs": [
						{
							"internalType": "bytes32",
							"name": "_root",
							"type": "bytes32"
						}
					],
					"name": "setMerkleRoot",
					"outputs": [],
					"stateMutability": "nonpayable",
					"type": "function"
				},
				{
					"inputs": [],
					"name": "symbol",
					"outputs": [
						{
							"internalType": "string",
							"name": "",
							"type": "string"
						}
					],
					"stateMutability": "view",
					"type": "function"
				},
				{
					"inputs": [],
					"name": "totalSupply",
					"outputs": [
						{
							"internalType": "uint256",
							"name": "",
							"type": "uint256"
						}
					],
					"stateMutability": "view",
					"type": "function"
				}
			],
			"devdoc": {
				"kind": "dev",
				"methods": {},
				"version": 1
			},
			"evm": {
				"assembly": "    /* \"contracts/MerkleAirdropNFT.sol\":154:193  string public name = \"MerkleAirdropNFT\" */\n  0xc0\n    /* \"contracts/MerkleAirdropNFT.sol\":121:2563  contract MerkleAirdropNFT {... */\n  0x40\n    /* \"contracts/MerkleAirdropNFT.sol\":154:193  string public name = \"MerkleAirdropNFT\" */\n  mstore\n  0x10\n    /* \"contracts/MerkleAirdropNFT.sol\":121:2563  contract MerkleAirdropNFT {... */\n  0x80\n    /* \"contracts/MerkleAirdropNFT.sol\":154:193  string public name = \"MerkleAirdropNFT\" */\n  swap1\n  dup2\n  mstore\n  mstore(0xa0, shl(0x82, 0x13595c9adb19505a5c991c9bdc139195))\n  0x00\n  swap1\n  tag_1\n  swap1\n  dup3\n  tag_2\n  jump\t// in\ntag_1:\n  pop\n    /* \"contracts/MerkleAirdropNFT.sol\":200:230  string public symbol = \"MANFT\" */\n  0x40\n  dup1\n  mload\n  dup1\n  dup3\n  add\n  swap1\n  swap2\n  mstore\n  0x05\n  dup2\n  mstore\n  shl(0xda, 0x1350539195)\n  0x20\n  dup3\n  add\n  mstore\n  0x01\n  swap1\n  tag_3\n  swap1\n  dup3\n  tag_2\n  jump\t// in\ntag_3:\n  pop\n    /* \"contracts/MerkleAirdropNFT.sol\":564:565  1 */\n  0x01\n    /* \"contracts/MerkleAirdropNFT.sol\":535:565  uint256 public nextTokenId = 1 */\n  0x08\n  sstore\n    /* \"contracts/MerkleAirdropNFT.sol\":767:843  constructor(address _daoAddress) {... */\n  callvalue\n  dup1\n  iszero\n  tag_4\n  jumpi\n  revert(0x00, 0x00)\ntag_4:\n  pop\n  mload(0x40)\n  sub(codesize, bytecodeSize)\n  dup1\n  bytecodeSize\n  dup4\n  codecopy\n  dup2\n  add\n  0x40\n  dup2\n  swap1\n  mstore\n  tag_5\n  swap2\n  tag_6\n  jump\t// in\ntag_5:\n    /* \"contracts/MerkleAirdropNFT.sol\":811:821  daoAddress */\n  0x03\n    /* \"contracts/MerkleAirdropNFT.sol\":811:835  daoAddress = _daoAddress */\n  dup1\n  sload\n  not(sub(shl(0xa0, 0x01), 0x01))\n  and\n  sub(shl(0xa0, 0x01), 0x01)\n  swap3\n  swap1\n  swap3\n  and\n  swap2\n  swap1\n  swap2\n  or\n  swap1\n  sstore\n    /* \"contracts/MerkleAirdropNFT.sol\":121:2563  contract MerkleAirdropNFT {... */\n  jump(tag_15)\n    /* \"#utility.yul\":14:141   */\ntag_10:\n    /* \"#utility.yul\":75:85   */\n  0x4e487b71\n    /* \"#utility.yul\":70:73   */\n  0xe0\n    /* \"#utility.yul\":66:86   */\n  shl\n    /* \"#utility.yul\":63:64   */\n  0x00\n    /* \"#utility.yul\":56:87   */\n  mstore\n    /* \"#utility.yul\":106:110   */\n  0x41\n    /* \"#utility.yul\":103:104   */\n  0x04\n    /* \"#utility.yul\":96:111   */\n  mstore\n    /* \"#utility.yul\":130:134   */\n  0x24\n    /* \"#utility.yul\":127:128   */\n  0x00\n    /* \"#utility.yul\":120:135   */\n  revert\n    /* \"#utility.yul\":146:526   */\ntag_11:\n    /* \"#utility.yul\":225:226   */\n  0x01\n    /* \"#utility.yul\":221:233   */\n  dup2\n  dup2\n  shr\n  swap1\n    /* \"#utility.yul\":268:280   */\n  dup3\n  and\n  dup1\n    /* \"#utility.yul\":289:350   */\n  tag_18\n  jumpi\n    /* \"#utility.yul\":343:347   */\n  0x7f\n    /* \"#utility.yul\":335:341   */\n  dup3\n    /* \"#utility.yul\":331:348   */\n  and\n    /* \"#utility.yul\":321:348   */\n  swap2\n  pop\n    /* \"#utility.yul\":289:350   */\ntag_18:\n    /* \"#utility.yul\":396:398   */\n  0x20\n    /* \"#utility.yul\":388:394   */\n  dup3\n    /* \"#utility.yul\":385:399   */\n  lt\n    /* \"#utility.yul\":365:383   */\n  dup2\n    /* \"#utility.yul\":362:400   */\n  sub\n    /* \"#utility.yul\":359:520   */\n  tag_19\n  jumpi\n    /* \"#utility.yul\":442:452   */\n  0x4e487b71\n    /* \"#utility.yul\":437:440   */\n  0xe0\n    /* \"#utility.yul\":433:453   */\n  shl\n    /* \"#utility.yul\":430:431   */\n  0x00\n    /* \"#utility.yul\":423:454   */\n  mstore\n    /* \"#utility.yul\":477:481   */\n  0x22\n    /* \"#utility.yul\":474:475   */\n  0x04\n    /* \"#utility.yul\":467:482   */\n  mstore\n    /* \"#utility.yul\":505:509   */\n  0x24\n    /* \"#utility.yul\":502:503   */\n  0x00\n    /* \"#utility.yul\":495:510   */\n  revert\n    /* \"#utility.yul\":359:520   */\ntag_19:\n  pop\n    /* \"#utility.yul\":146:526   */\n  swap2\n  swap1\n  pop\n  jump\t// out\n    /* \"#utility.yul\":657:1175   */\ntag_13:\n    /* \"#utility.yul\":759:761   */\n  0x1f\n    /* \"#utility.yul\":754:757   */\n  dup3\n    /* \"#utility.yul\":751:762   */\n  gt\n    /* \"#utility.yul\":748:1169   */\n  iszero\n  tag_22\n  jumpi\n    /* \"#utility.yul\":795:800   */\n  dup1\n    /* \"#utility.yul\":792:793   */\n  0x00\n    /* \"#utility.yul\":785:801   */\n  mstore\n    /* \"#utility.yul\":839:843   */\n  0x20\n    /* \"#utility.yul\":836:837   */\n  0x00\n    /* \"#utility.yul\":826:844   */\n  keccak256\n    /* \"#utility.yul\":909:911   */\n  0x1f\n    /* \"#utility.yul\":897:907   */\n  dup5\n    /* \"#utility.yul\":893:912   */\n  add\n    /* \"#utility.yul\":890:891   */\n  0x05\n    /* \"#utility.yul\":886:913   */\n  shr\n    /* \"#utility.yul\":880:884   */\n  dup2\n    /* \"#utility.yul\":876:914   */\n  add\n    /* \"#utility.yul\":945:949   */\n  0x20\n    /* \"#utility.yul\":933:943   */\n  dup6\n    /* \"#utility.yul\":930:950   */\n  lt\n    /* \"#utility.yul\":927:974   */\n  iszero\n  tag_23\n  jumpi\n  pop\n    /* \"#utility.yul\":968:972   */\n  dup1\n    /* \"#utility.yul\":927:974   */\ntag_23:\n    /* \"#utility.yul\":1023:1025   */\n  0x1f\n    /* \"#utility.yul\":1018:1021   */\n  dup5\n    /* \"#utility.yul\":1014:1026   */\n  add\n    /* \"#utility.yul\":1011:1012   */\n  0x05\n    /* \"#utility.yul\":1007:1027   */\n  shr\n    /* \"#utility.yul\":1001:1005   */\n  dup3\n    /* \"#utility.yul\":997:1028   */\n  add\n    /* \"#utility.yul\":987:1028   */\n  swap2\n  pop\n    /* \"#utility.yul\":1078:1159   */\ntag_24:\n    /* \"#utility.yul\":1096:1098   */\n  dup2\n    /* \"#utility.yul\":1089:1094   */\n  dup2\n    /* \"#utility.yul\":1086:1099   */\n  lt\n    /* \"#utility.yul\":1078:1159   */\n  iszero\n  tag_26\n  jumpi\n    /* \"#utility.yul\":1155:1156   */\n  0x00\n    /* \"#utility.yul\":1141:1157   */\n  dup2\n  sstore\n    /* \"#utility.yul\":1122:1123   */\n  0x01\n    /* \"#utility.yul\":1111:1124   */\n  add\n    /* \"#utility.yul\":1078:1159   */\n  jump(tag_24)\ntag_26:\n    /* \"#utility.yul\":1082:1085   */\n  pop\n  pop\n    /* \"#utility.yul\":748:1169   */\ntag_22:\n    /* \"#utility.yul\":657:1175   */\n  pop\n  pop\n  pop\n  jump\t// out\n    /* \"#utility.yul\":1351:2650   */\ntag_2:\n    /* \"#utility.yul\":1471:1481   */\n  dup2\n  mload\n  sub(shl(0x40, 0x01), 0x01)\n    /* \"#utility.yul\":1493:1523   */\n  dup2\n  gt\n    /* \"#utility.yul\":1490:1546   */\n  iszero\n  tag_30\n  jumpi\n    /* \"#utility.yul\":1526:1544   */\n  tag_30\n  tag_10\n  jump\t// in\ntag_30:\n    /* \"#utility.yul\":1555:1652   */\n  tag_31\n    /* \"#utility.yul\":1645:1651   */\n  dup2\n    /* \"#utility.yul\":1605:1643   */\n  tag_32\n    /* \"#utility.yul\":1637:1641   */\n  dup5\n    /* \"#utility.yul\":1631:1642   */\n  sload\n    /* \"#utility.yul\":1605:1643   */\n  tag_11\n  jump\t// in\ntag_32:\n    /* \"#utility.yul\":1599:1603   */\n  dup5\n    /* \"#utility.yul\":1555:1652   */\n  tag_13\n  jump\t// in\ntag_31:\n    /* \"#utility.yul\":1701:1705   */\n  0x20\n    /* \"#utility.yul\":1732:1734   */\n  0x1f\n    /* \"#utility.yul\":1721:1735   */\n  dup3\n  gt\n    /* \"#utility.yul\":1749:1750   */\n  0x01\n    /* \"#utility.yul\":1744:2393   */\n  dup2\n  eq\n  tag_34\n  jumpi\n    /* \"#utility.yul\":2437:2438   */\n  0x00\n    /* \"#utility.yul\":2454:2460   */\n  dup4\n    /* \"#utility.yul\":2451:2540   */\n  iszero\n  tag_35\n  jumpi\n  pop\n    /* \"#utility.yul\":2506:2525   */\n  dup5\n  dup3\n  add\n    /* \"#utility.yul\":2500:2526   */\n  mload\n    /* \"#utility.yul\":2451:2540   */\ntag_35:\n  not(0x00)\n    /* \"#utility.yul\":1308:1309   */\n  0x03\n    /* \"#utility.yul\":1304:1315   */\n  dup6\n  swap1\n  shl\n    /* \"#utility.yul\":1300:1324   */\n  shr\n    /* \"#utility.yul\":1296:1325   */\n  not\n    /* \"#utility.yul\":1286:1326   */\n  and\n    /* \"#utility.yul\":1332:1333   */\n  0x01\n    /* \"#utility.yul\":1328:1339   */\n  dup5\n  swap1\n  shl\n    /* \"#utility.yul\":1283:1340   */\n  or\n    /* \"#utility.yul\":2553:2634   */\n  dup5\n  sstore\n    /* \"#utility.yul\":1714:2644   */\n  jump(tag_26)\n    /* \"#utility.yul\":1744:2393   */\ntag_34:\n    /* \"#utility.yul\":604:605   */\n  0x00\n    /* \"#utility.yul\":597:611   */\n  dup5\n  dup2\n  mstore\n    /* \"#utility.yul\":641:645   */\n  0x20\n    /* \"#utility.yul\":628:646   */\n  dup2\n  keccak256\n  not(0x1f)\n    /* \"#utility.yul\":1780:1800   */\n  dup6\n  and\n  swap2\n    /* \"#utility.yul\":1898:2120   */\ntag_38:\n    /* \"#utility.yul\":1912:1919   */\n  dup3\n    /* \"#utility.yul\":1909:1910   */\n  dup2\n    /* \"#utility.yul\":1906:1920   */\n  lt\n    /* \"#utility.yul\":1898:2120   */\n  iszero\n  tag_40\n  jumpi\n    /* \"#utility.yul\":1994:2013   */\n  dup8\n  dup6\n  add\n    /* \"#utility.yul\":1988:2014   */\n  mload\n    /* \"#utility.yul\":1973:2015   */\n  dup3\n  sstore\n    /* \"#utility.yul\":2101:2105   */\n  0x20\n    /* \"#utility.yul\":2086:2106   */\n  swap5\n  dup6\n  add\n  swap5\n    /* \"#utility.yul\":2054:2055   */\n  0x01\n    /* \"#utility.yul\":2042:2056   */\n  swap1\n  swap3\n  add\n  swap2\n    /* \"#utility.yul\":1928:1940   */\n  add\n    /* \"#utility.yul\":1898:2120   */\n  jump(tag_38)\ntag_40:\n    /* \"#utility.yul\":1902:1905   */\n  pop\n    /* \"#utility.yul\":2148:2154   */\n  dup5\n    /* \"#utility.yul\":2139:2146   */\n  dup3\n    /* \"#utility.yul\":2136:2155   */\n  lt\n    /* \"#utility.yul\":2133:2334   */\n  iszero\n  tag_41\n  jumpi\n    /* \"#utility.yul\":2209:2228   */\n  dup7\n  dup5\n  add\n    /* \"#utility.yul\":2203:2229   */\n  mload\n  not(0x00)\n    /* \"#utility.yul\":2292:2293   */\n  0x03\n    /* \"#utility.yul\":2288:2302   */\n  dup8\n  swap1\n  shl\n    /* \"#utility.yul\":2304:2307   */\n  0xf8\n    /* \"#utility.yul\":2284:2308   */\n  and\n    /* \"#utility.yul\":2280:2317   */\n  shr\n    /* \"#utility.yul\":2276:2318   */\n  not\n    /* \"#utility.yul\":2261:2319   */\n  and\n    /* \"#utility.yul\":2246:2320   */\n  dup2\n  sstore\n    /* \"#utility.yul\":2133:2334   */\ntag_41:\n  pop\n  pop\n  pop\n  pop\n    /* \"#utility.yul\":2380:2381   */\n  0x01\n    /* \"#utility.yul\":2364:2378   */\n  swap1\n  dup2\n  shl\n    /* \"#utility.yul\":2360:2382   */\n  add\n    /* \"#utility.yul\":2347:2383   */\n  swap1\n  sstore\n  pop\n    /* \"#utility.yul\":1351:2650   */\n  jump\t// out\n    /* \"#utility.yul\":2655:2945   */\ntag_6:\n    /* \"#utility.yul\":2725:2731   */\n  0x00\n    /* \"#utility.yul\":2778:2780   */\n  0x20\n    /* \"#utility.yul\":2766:2775   */\n  dup3\n    /* \"#utility.yul\":2757:2764   */\n  dup5\n    /* \"#utility.yul\":2753:2776   */\n  sub\n    /* \"#utility.yul\":2749:2781   */\n  slt\n    /* \"#utility.yul\":2746:2798   */\n  iszero\n  tag_43\n  jumpi\n    /* \"#utility.yul\":2794:2795   */\n  0x00\n    /* \"#utility.yul\":2791:2792   */\n  0x00\n    /* \"#utility.yul\":2784:2796   */\n  revert\n    /* \"#utility.yul\":2746:2798   */\ntag_43:\n    /* \"#utility.yul\":2820:2836   */\n  dup2\n  mload\n  sub(shl(0xa0, 0x01), 0x01)\n    /* \"#utility.yul\":2865:2896   */\n  dup2\n  and\n    /* \"#utility.yul\":2855:2897   */\n  dup2\n  eq\n    /* \"#utility.yul\":2845:2915   */\n  tag_44\n  jumpi\n    /* \"#utility.yul\":2911:2912   */\n  0x00\n    /* \"#utility.yul\":2908:2909   */\n  0x00\n    /* \"#utility.yul\":2901:2913   */\n  revert\n    /* \"#utility.yul\":2845:2915   */\ntag_44:\n    /* \"#utility.yul\":2934:2939   */\n  swap4\n    /* \"#utility.yul\":2655:2945   */\n  swap3\n  pop\n  pop\n  pop\n  jump\t// out\ntag_15:\n    /* \"contracts/MerkleAirdropNFT.sol\":121:2563  contract MerkleAirdropNFT {... */\n  dataSize(sub_0)\n  dup1\n  dataOffset(sub_0)\n  0x00\n  codecopy\n  0x00\n  return\nstop\n\nsub_0: assembly {\n        /* \"contracts/MerkleAirdropNFT.sol\":121:2563  contract MerkleAirdropNFT {... */\n      mstore(0x40, 0x80)\n      callvalue\n      dup1\n      iszero\n      tag_1\n      jumpi\n      revert(0x00, 0x00)\n    tag_1:\n      pop\n      jumpi(tag_2, lt(calldatasize, 0x04))\n      shr(0xe0, calldataload(0x00))\n      dup1\n      0x54ba0f27\n      gt\n      tag_16\n      jumpi\n      dup1\n      0x75794a3c\n      gt\n      tag_17\n      jumpi\n      dup1\n      0x75794a3c\n      eq\n      tag_12\n      jumpi\n      dup1\n      0x7cb64759\n      eq\n      tag_13\n      jumpi\n      dup1\n      0x95d89b41\n      eq\n      tag_14\n      jumpi\n      dup1\n      0xd56d229d\n      eq\n      tag_15\n      jumpi\n      revert(0x00, 0x00)\n    tag_17:\n      dup1\n      0x54ba0f27\n      eq\n      tag_9\n      jumpi\n      dup1\n      0x6352211e\n      eq\n      tag_10\n      jumpi\n      dup1\n      0x73b2e80e\n      eq\n      tag_11\n      jumpi\n      revert(0x00, 0x00)\n    tag_16:\n      dup1\n      0x025e7c27\n      eq\n      tag_3\n      jumpi\n      dup1\n      0x06fdde03\n      eq\n      tag_4\n      jumpi\n      dup1\n      0x0bcae1ac\n      eq\n      tag_5\n      jumpi\n      dup1\n      0x18160ddd\n      eq\n      tag_6\n      jumpi\n      dup1\n      0x2131c68c\n      eq\n      tag_7\n      jumpi\n      dup1\n      0x2eb4a7ab\n      eq\n      tag_8\n      jumpi\n    tag_2:\n      revert(0x00, 0x00)\n        /* \"contracts/MerkleAirdropNFT.sol\":487:528  mapping(uint256 => address) public owners */\n    tag_3:\n      tag_18\n      tag_19\n      calldatasize\n      0x04\n      tag_20\n      jump\t// in\n    tag_19:\n      mstore(0x20, 0x07)\n      0x00\n      swap1\n      dup2\n      mstore\n      0x40\n      swap1\n      keccak256\n      sload\n      sub(shl(0xa0, 0x01), 0x01)\n      and\n      dup2\n      jump\n    tag_18:\n      mload(0x40)\n      sub(shl(0xa0, 0x01), 0x01)\n        /* \"#utility.yul\":409:441   */\n      swap1\n      swap2\n      and\n        /* \"#utility.yul\":391:442   */\n      dup2\n      mstore\n        /* \"#utility.yul\":379:381   */\n      0x20\n        /* \"#utility.yul\":364:382   */\n      add\n        /* \"contracts/MerkleAirdropNFT.sol\":487:528  mapping(uint256 => address) public owners */\n    tag_22:\n      mload(0x40)\n      dup1\n      swap2\n      sub\n      swap1\n      return\n        /* \"contracts/MerkleAirdropNFT.sol\":154:193  string public name = \"MerkleAirdropNFT\" */\n    tag_4:\n      tag_24\n      tag_25\n      jump\t// in\n    tag_24:\n      mload(0x40)\n      tag_22\n      swap2\n      swap1\n      tag_27\n      jump\t// in\n        /* \"contracts/MerkleAirdropNFT.sol\":1062:1532  function claimAirdrop(uint256 tokenId, bytes32[] calldata _merkleProof) external {... */\n    tag_5:\n      tag_28\n      tag_29\n      calldatasize\n      0x04\n      tag_30\n      jump\t// in\n    tag_29:\n      tag_31\n      jump\t// in\n    tag_28:\n      stop\n        /* \"contracts/MerkleAirdropNFT.sol\":237:263  uint256 public totalSupply */\n    tag_6:\n      tag_32\n      sload(0x02)\n      dup2\n      jump\n    tag_32:\n      mload(0x40)\n        /* \"#utility.yul\":1751:1776   */\n      swap1\n      dup2\n      mstore\n        /* \"#utility.yul\":1739:1741   */\n      0x20\n        /* \"#utility.yul\":1724:1742   */\n      add\n        /* \"contracts/MerkleAirdropNFT.sol\":237:263  uint256 public totalSupply */\n      tag_22\n        /* \"#utility.yul\":1605:1782   */\n      jump\n        /* \"contracts/MerkleAirdropNFT.sol\":270:295  address public daoAddress */\n    tag_7:\n      sload(0x03)\n      tag_18\n      swap1\n      sub(shl(0xa0, 0x01), 0x01)\n      and\n      dup2\n      jump\n        /* \"contracts/MerkleAirdropNFT.sol\":335:360  bytes32 public merkleRoot */\n    tag_8:\n      tag_32\n      sload(0x05)\n      dup2\n      jump\n        /* \"contracts/MerkleAirdropNFT.sol\":2244:2381  function mintNFT(address to) external onlyDAO {... */\n    tag_9:\n      tag_28\n      tag_44\n      calldatasize\n      0x04\n      tag_45\n      jump\t// in\n    tag_44:\n      tag_46\n      jump\t// in\n        /* \"contracts/MerkleAirdropNFT.sol\":2453:2560  function ownerOf(uint256 tokenId) external view returns (address) {... */\n    tag_10:\n      tag_18\n      tag_48\n      calldatasize\n      0x04\n      tag_20\n      jump\t// in\n    tag_48:\n        /* \"contracts/MerkleAirdropNFT.sol\":2510:2517  address */\n      0x00\n        /* \"contracts/MerkleAirdropNFT.sol\":2537:2552  owners[tokenId] */\n      swap1\n      dup2\n      mstore\n        /* \"contracts/MerkleAirdropNFT.sol\":2537:2543  owners */\n      0x07\n        /* \"contracts/MerkleAirdropNFT.sol\":2537:2552  owners[tokenId] */\n      0x20\n      mstore\n      0x40\n      swap1\n      keccak256\n      sload\n      sub(shl(0xa0, 0x01), 0x01)\n      and\n      swap1\n        /* \"contracts/MerkleAirdropNFT.sol\":2453:2560  function ownerOf(uint256 tokenId) external view returns (address) {... */\n      jump\n        /* \"contracts/MerkleAirdropNFT.sol\":400:442  mapping(address => bool) public hasClaimed */\n    tag_11:\n      tag_51\n      tag_52\n      calldatasize\n      0x04\n      tag_45\n      jump\t// in\n    tag_52:\n      mstore(0x20, 0x06)\n      0x00\n      swap1\n      dup2\n      mstore\n      0x40\n      swap1\n      keccak256\n      sload\n      0xff\n      and\n      dup2\n      jump\n    tag_51:\n      mload(0x40)\n        /* \"#utility.yul\":2425:2439   */\n      swap1\n      iszero\n        /* \"#utility.yul\":2418:2440   */\n      iszero\n        /* \"#utility.yul\":2400:2441   */\n      dup2\n      mstore\n        /* \"#utility.yul\":2388:2390   */\n      0x20\n        /* \"#utility.yul\":2373:2391   */\n      add\n        /* \"contracts/MerkleAirdropNFT.sol\":400:442  mapping(address => bool) public hasClaimed */\n      tag_22\n        /* \"#utility.yul\":2260:2447   */\n      jump\n        /* \"contracts/MerkleAirdropNFT.sol\":535:565  uint256 public nextTokenId = 1 */\n    tag_12:\n      tag_32\n      sload(0x08)\n      dup2\n      jump\n        /* \"contracts/MerkleAirdropNFT.sol\":910:1002  function setMerkleRoot(bytes32 _root) external onlyDAO {... */\n    tag_13:\n      tag_28\n      tag_60\n      calldatasize\n      0x04\n      tag_20\n      jump\t// in\n    tag_60:\n      tag_62\n      jump\t// in\n        /* \"contracts/MerkleAirdropNFT.sol\":200:230  string public symbol = \"MANFT\" */\n    tag_14:\n      tag_24\n      tag_64\n      jump\t// in\n        /* \"contracts/MerkleAirdropNFT.sol\":302:328  address public nftContract */\n    tag_15:\n      sload(0x04)\n      tag_18\n      swap1\n      sub(shl(0xa0, 0x01), 0x01)\n      and\n      dup2\n      jump\n        /* \"contracts/MerkleAirdropNFT.sol\":154:193  string public name = \"MerkleAirdropNFT\" */\n    tag_25:\n      0x00\n      dup1\n      sload\n      tag_69\n      swap1\n      tag_70\n      jump\t// in\n    tag_69:\n      dup1\n      0x1f\n      add\n      0x20\n      dup1\n      swap2\n      div\n      mul\n      0x20\n      add\n      mload(0x40)\n      swap1\n      dup2\n      add\n      0x40\n      mstore\n      dup1\n      swap3\n      swap2\n      swap1\n      dup2\n      dup2\n      mstore\n      0x20\n      add\n      dup3\n      dup1\n      sload\n      tag_71\n      swap1\n      tag_70\n      jump\t// in\n    tag_71:\n      dup1\n      iszero\n      tag_72\n      jumpi\n      dup1\n      0x1f\n      lt\n      tag_73\n      jumpi\n      0x0100\n      dup1\n      dup4\n      sload\n      div\n      mul\n      dup4\n      mstore\n      swap2\n      0x20\n      add\n      swap2\n      jump(tag_72)\n    tag_73:\n      dup3\n      add\n      swap2\n      swap1\n      0x00\n      mstore\n      keccak256(0x00, 0x20)\n      swap1\n    tag_74:\n      dup2\n      sload\n      dup2\n      mstore\n      swap1\n      0x01\n      add\n      swap1\n      0x20\n      add\n      dup1\n      dup4\n      gt\n      tag_74\n      jumpi\n      dup3\n      swap1\n      sub\n      0x1f\n      and\n      dup3\n      add\n      swap2\n    tag_72:\n      pop\n      pop\n      pop\n      pop\n      pop\n      dup2\n      jump\t// out\n        /* \"contracts/MerkleAirdropNFT.sol\":1062:1532  function claimAirdrop(uint256 tokenId, bytes32[] calldata _merkleProof) external {... */\n    tag_31:\n        /* \"contracts/MerkleAirdropNFT.sol\":1174:1184  msg.sender */\n      caller\n        /* \"contracts/MerkleAirdropNFT.sol\":1163:1185  hasClaimed[msg.sender] */\n      0x00\n      swap1\n      dup2\n      mstore\n        /* \"contracts/MerkleAirdropNFT.sol\":1163:1173  hasClaimed */\n      0x06\n        /* \"contracts/MerkleAirdropNFT.sol\":1163:1185  hasClaimed[msg.sender] */\n      0x20\n      mstore\n      0x40\n      swap1\n      keccak256\n      sload\n      0xff\n      and\n        /* \"contracts/MerkleAirdropNFT.sol\":1162:1185  !hasClaimed[msg.sender] */\n      iszero\n        /* \"contracts/MerkleAirdropNFT.sol\":1154:1223  require(!hasClaimed[msg.sender], \"You have already claimed your NFT\") */\n      tag_76\n      jumpi\n      mload(0x40)\n      shl(0xe5, 0x461bcd)\n      dup2\n      mstore\n        /* \"#utility.yul\":3224:3226   */\n      0x20\n        /* \"contracts/MerkleAirdropNFT.sol\":1154:1223  require(!hasClaimed[msg.sender], \"You have already claimed your NFT\") */\n      0x04\n      dup3\n      add\n        /* \"#utility.yul\":3206:3227   */\n      mstore\n        /* \"#utility.yul\":3263:3265   */\n      0x21\n        /* \"#utility.yul\":3243:3261   */\n      0x24\n      dup3\n      add\n        /* \"#utility.yul\":3236:3266   */\n      mstore\n        /* \"#utility.yul\":3302:3336   */\n      0x596f75206861766520616c726561647920636c61696d656420796f7572204e46\n        /* \"#utility.yul\":3282:3300   */\n      0x44\n      dup3\n      add\n        /* \"#utility.yul\":3275:3337   */\n      mstore\n      shl(0xfa, 0x15)\n        /* \"#utility.yul\":3353:3371   */\n      0x64\n      dup3\n      add\n        /* \"#utility.yul\":3346:3377   */\n      mstore\n        /* \"#utility.yul\":3394:3413   */\n      0x84\n      add\n        /* \"contracts/MerkleAirdropNFT.sol\":1154:1223  require(!hasClaimed[msg.sender], \"You have already claimed your NFT\") */\n    tag_77:\n      mload(0x40)\n      dup1\n      swap2\n      sub\n      swap1\n      revert\n    tag_76:\n        /* \"contracts/MerkleAirdropNFT.sol\":1242:1285  verifyMerkleProof(msg.sender, _merkleProof) */\n      tag_79\n        /* \"contracts/MerkleAirdropNFT.sol\":1260:1270  msg.sender */\n      caller\n        /* \"contracts/MerkleAirdropNFT.sol\":1272:1284  _merkleProof */\n      dup4\n      dup4\n        /* \"contracts/MerkleAirdropNFT.sol\":1242:1259  verifyMerkleProof */\n      tag_80\n        /* \"contracts/MerkleAirdropNFT.sol\":1242:1285  verifyMerkleProof(msg.sender, _merkleProof) */\n      jump\t// in\n    tag_79:\n        /* \"contracts/MerkleAirdropNFT.sol\":1234:1303  require(verifyMerkleProof(msg.sender, _merkleProof), \"Invalid proof\") */\n      tag_81\n      jumpi\n      mload(0x40)\n      shl(0xe5, 0x461bcd)\n      dup2\n      mstore\n        /* \"#utility.yul\":3626:3628   */\n      0x20\n        /* \"contracts/MerkleAirdropNFT.sol\":1234:1303  require(verifyMerkleProof(msg.sender, _merkleProof), \"Invalid proof\") */\n      0x04\n      dup3\n      add\n        /* \"#utility.yul\":3608:3629   */\n      mstore\n        /* \"#utility.yul\":3665:3667   */\n      0x0d\n        /* \"#utility.yul\":3645:3663   */\n      0x24\n      dup3\n      add\n        /* \"#utility.yul\":3638:3668   */\n      mstore\n      shl(0x99, 0x24b73b30b634b210383937b7b3)\n        /* \"#utility.yul\":3684:3702   */\n      0x44\n      dup3\n      add\n        /* \"#utility.yul\":3677:3720   */\n      mstore\n        /* \"#utility.yul\":3737:3755   */\n      0x64\n      add\n        /* \"contracts/MerkleAirdropNFT.sol\":1234:1303  require(verifyMerkleProof(msg.sender, _merkleProof), \"Invalid proof\") */\n      tag_77\n        /* \"#utility.yul\":3424:3761   */\n      jump\n        /* \"contracts/MerkleAirdropNFT.sol\":1234:1303  require(verifyMerkleProof(msg.sender, _merkleProof), \"Invalid proof\") */\n    tag_81:\n        /* \"contracts/MerkleAirdropNFT.sol\":1327:1337  msg.sender */\n      caller\n        /* \"contracts/MerkleAirdropNFT.sol\":1316:1338  hasClaimed[msg.sender] */\n      0x00\n      dup2\n      dup2\n      mstore\n        /* \"contracts/MerkleAirdropNFT.sol\":1316:1326  hasClaimed */\n      0x06\n        /* \"contracts/MerkleAirdropNFT.sol\":1316:1338  hasClaimed[msg.sender] */\n      0x20\n      swap1\n      dup2\n      mstore\n      0x40\n      dup1\n      dup4\n      keccak256\n        /* \"contracts/MerkleAirdropNFT.sol\":1316:1345  hasClaimed[msg.sender] = true */\n      dup1\n      sload\n      not(0xff)\n      and\n        /* \"contracts/MerkleAirdropNFT.sol\":1341:1345  true */\n      0x01\n        /* \"contracts/MerkleAirdropNFT.sol\":1316:1345  hasClaimed[msg.sender] = true */\n      or\n      swap1\n      sstore\n        /* \"contracts/MerkleAirdropNFT.sol\":1419:1434  owners[tokenId] */\n      dup7\n      dup4\n      mstore\n        /* \"contracts/MerkleAirdropNFT.sol\":1419:1425  owners */\n      0x07\n        /* \"contracts/MerkleAirdropNFT.sol\":1419:1434  owners[tokenId] */\n      swap1\n      swap2\n      mstore\n      dup2\n      keccak256\n        /* \"contracts/MerkleAirdropNFT.sol\":1419:1447  owners[tokenId] = msg.sender */\n      dup1\n      sload\n      not(sub(shl(0xa0, 0x01), 0x01))\n      and\n      swap1\n      swap3\n      or\n      swap1\n      swap2\n      sstore\n        /* \"contracts/MerkleAirdropNFT.sol\":1458:1469  totalSupply */\n      0x02\n        /* \"contracts/MerkleAirdropNFT.sol\":1458:1471  totalSupply++ */\n      dup1\n      sload\n      swap2\n      tag_84\n      dup4\n      tag_85\n      jump\t// in\n    tag_84:\n      swap1\n      swap2\n      sstore\n      pop\n      pop\n        /* \"contracts/MerkleAirdropNFT.sol\":1489:1524  AirdropClaimed(msg.sender, tokenId) */\n      mload(0x40)\n        /* \"contracts/MerkleAirdropNFT.sol\":1516:1523  tokenId */\n      dup4\n      swap1\n        /* \"contracts/MerkleAirdropNFT.sol\":1504:1514  msg.sender */\n      caller\n      swap1\n        /* \"contracts/MerkleAirdropNFT.sol\":1489:1524  AirdropClaimed(msg.sender, tokenId) */\n      0x650e45f04ef8a0c267b2f78d983913f69ae3a353b2b32de5429307522be0ab55\n      swap1\n      0x00\n      swap1\n      log3\n        /* \"contracts/MerkleAirdropNFT.sol\":1062:1532  function claimAirdrop(uint256 tokenId, bytes32[] calldata _merkleProof) external {... */\n      pop\n      pop\n      pop\n      jump\t// out\n        /* \"contracts/MerkleAirdropNFT.sol\":2244:2381  function mintNFT(address to) external onlyDAO {... */\n    tag_46:\n        /* \"contracts/MerkleAirdropNFT.sol\":702:712  daoAddress */\n      and(sub(shl(0xa0, 0x01), 0x01), sload(0x03))\n        /* \"contracts/MerkleAirdropNFT.sol\":688:698  msg.sender */\n      caller\n        /* \"contracts/MerkleAirdropNFT.sol\":688:712  msg.sender == daoAddress */\n      eq\n        /* \"contracts/MerkleAirdropNFT.sol\":680:739  require(msg.sender == daoAddress, \"Only DAO can call this\") */\n      tag_87\n      jumpi\n      mload(0x40)\n      shl(0xe5, 0x461bcd)\n      dup2\n      mstore\n        /* \"#utility.yul\":4205:4207   */\n      0x20\n        /* \"contracts/MerkleAirdropNFT.sol\":680:739  require(msg.sender == daoAddress, \"Only DAO can call this\") */\n      0x04\n      dup3\n      add\n        /* \"#utility.yul\":4187:4208   */\n      mstore\n        /* \"#utility.yul\":4244:4246   */\n      0x16\n        /* \"#utility.yul\":4224:4242   */\n      0x24\n      dup3\n      add\n        /* \"#utility.yul\":4217:4247   */\n      mstore\n      shl(0x50, 0x4f6e6c792044414f2063616e2063616c6c2074686973)\n        /* \"#utility.yul\":4263:4281   */\n      0x44\n      dup3\n      add\n        /* \"#utility.yul\":4256:4308   */\n      mstore\n        /* \"#utility.yul\":4325:4343   */\n      0x64\n      add\n        /* \"contracts/MerkleAirdropNFT.sol\":680:739  require(msg.sender == daoAddress, \"Only DAO can call this\") */\n      tag_77\n        /* \"#utility.yul\":4003:4349   */\n      jump\n        /* \"contracts/MerkleAirdropNFT.sol\":680:739  require(msg.sender == daoAddress, \"Only DAO can call this\") */\n    tag_87:\n        /* \"contracts/MerkleAirdropNFT.sol\":2308:2319  nextTokenId */\n      0x08\n      dup1\n      sload\n        /* \"contracts/MerkleAirdropNFT.sol\":2301:2320  owners[nextTokenId] */\n      0x00\n      swap1\n      dup2\n      mstore\n        /* \"contracts/MerkleAirdropNFT.sol\":2301:2307  owners */\n      0x07\n        /* \"contracts/MerkleAirdropNFT.sol\":2301:2320  owners[nextTokenId] */\n      0x20\n      mstore\n      0x40\n      dup2\n      keccak256\n        /* \"contracts/MerkleAirdropNFT.sol\":2301:2325  owners[nextTokenId] = to */\n      dup1\n      sload\n      not(sub(shl(0xa0, 0x01), 0x01))\n      and\n      sub(shl(0xa0, 0x01), 0x01)\n      dup6\n      and\n      or\n      swap1\n      sstore\n        /* \"contracts/MerkleAirdropNFT.sol\":2336:2349  nextTokenId++ */\n      dup2\n      sload\n      swap2\n        /* \"contracts/MerkleAirdropNFT.sol\":2308:2319  nextTokenId */\n      swap1\n        /* \"contracts/MerkleAirdropNFT.sol\":2336:2349  nextTokenId++ */\n      tag_91\n      dup4\n      tag_85\n      jump\t// in\n    tag_91:\n      swap1\n      swap2\n      sstore\n      pop\n      pop\n        /* \"contracts/MerkleAirdropNFT.sol\":2360:2371  totalSupply */\n      0x02\n        /* \"contracts/MerkleAirdropNFT.sol\":2360:2373  totalSupply++ */\n      dup1\n      sload\n      swap1\n        /* \"contracts/MerkleAirdropNFT.sol\":2360:2371  totalSupply */\n      0x00\n        /* \"contracts/MerkleAirdropNFT.sol\":2360:2373  totalSupply++ */\n      tag_92\n      dup4\n      tag_85\n      jump\t// in\n    tag_92:\n      swap2\n      swap1\n      pop\n      sstore\n      pop\n        /* \"contracts/MerkleAirdropNFT.sol\":2244:2381  function mintNFT(address to) external onlyDAO {... */\n      pop\n      jump\t// out\n        /* \"contracts/MerkleAirdropNFT.sol\":910:1002  function setMerkleRoot(bytes32 _root) external onlyDAO {... */\n    tag_62:\n        /* \"contracts/MerkleAirdropNFT.sol\":702:712  daoAddress */\n      and(sub(shl(0xa0, 0x01), 0x01), sload(0x03))\n        /* \"contracts/MerkleAirdropNFT.sol\":688:698  msg.sender */\n      caller\n        /* \"contracts/MerkleAirdropNFT.sol\":688:712  msg.sender == daoAddress */\n      eq\n        /* \"contracts/MerkleAirdropNFT.sol\":680:739  require(msg.sender == daoAddress, \"Only DAO can call this\") */\n      tag_95\n      jumpi\n      mload(0x40)\n      shl(0xe5, 0x461bcd)\n      dup2\n      mstore\n        /* \"#utility.yul\":4205:4207   */\n      0x20\n        /* \"contracts/MerkleAirdropNFT.sol\":680:739  require(msg.sender == daoAddress, \"Only DAO can call this\") */\n      0x04\n      dup3\n      add\n        /* \"#utility.yul\":4187:4208   */\n      mstore\n        /* \"#utility.yul\":4244:4246   */\n      0x16\n        /* \"#utility.yul\":4224:4242   */\n      0x24\n      dup3\n      add\n        /* \"#utility.yul\":4217:4247   */\n      mstore\n      shl(0x50, 0x4f6e6c792044414f2063616e2063616c6c2074686973)\n        /* \"#utility.yul\":4263:4281   */\n      0x44\n      dup3\n      add\n        /* \"#utility.yul\":4256:4308   */\n      mstore\n        /* \"#utility.yul\":4325:4343   */\n      0x64\n      add\n        /* \"contracts/MerkleAirdropNFT.sol\":680:739  require(msg.sender == daoAddress, \"Only DAO can call this\") */\n      tag_77\n        /* \"#utility.yul\":4003:4349   */\n      jump\n        /* \"contracts/MerkleAirdropNFT.sol\":680:739  require(msg.sender == daoAddress, \"Only DAO can call this\") */\n    tag_95:\n        /* \"contracts/MerkleAirdropNFT.sol\":976:986  merkleRoot */\n      0x05\n        /* \"contracts/MerkleAirdropNFT.sol\":976:994  merkleRoot = _root */\n      sstore\n        /* \"contracts/MerkleAirdropNFT.sol\":910:1002  function setMerkleRoot(bytes32 _root) external onlyDAO {... */\n      jump\t// out\n        /* \"contracts/MerkleAirdropNFT.sol\":200:230  string public symbol = \"MANFT\" */\n    tag_64:\n      0x01\n      dup1\n      sload\n      tag_69\n      swap1\n      tag_70\n      jump\t// in\n        /* \"contracts/MerkleAirdropNFT.sol\":1574:1979  function verifyMerkleProof(address _account, bytes32[] calldata _merkleProof) internal view returns (bool) {... */\n    tag_80:\n        /* \"contracts/MerkleAirdropNFT.sol\":1717:1743  abi.encodePacked(_account) */\n      mload(0x40)\n      not(0xffffffffffffffffffffffff)\n        /* \"#utility.yul\":4503:4505   */\n      0x60\n        /* \"#utility.yul\":4499:4514   */\n      dup6\n      swap1\n      shl\n        /* \"#utility.yul\":4495:4548   */\n      and\n        /* \"contracts/MerkleAirdropNFT.sol\":1717:1743  abi.encodePacked(_account) */\n      0x20\n      dup3\n      add\n        /* \"#utility.yul\":4483:4549   */\n      mstore\n        /* \"contracts/MerkleAirdropNFT.sol\":1675:1679  bool */\n      0x00\n      swap1\n      dup2\n      swap1\n        /* \"#utility.yul\":4565:4577   */\n      0x34\n      add\n        /* \"contracts/MerkleAirdropNFT.sol\":1717:1743  abi.encodePacked(_account) */\n      0x40\n      dup1\n      mload\n      not(0x1f)\n      dup2\n      dup5\n      sub\n      add\n      dup2\n      mstore\n      swap2\n      swap1\n      mstore\n        /* \"contracts/MerkleAirdropNFT.sol\":1707:1744  keccak256(abi.encodePacked(_account)) */\n      dup1\n      mload\n        /* \"contracts/MerkleAirdropNFT.sol\":1717:1743  abi.encodePacked(_account) */\n      0x20\n        /* \"contracts/MerkleAirdropNFT.sol\":1707:1744  keccak256(abi.encodePacked(_account)) */\n      swap1\n      swap2\n      add\n      keccak256\n      swap1\n      pop\n      dup1\n        /* \"contracts/MerkleAirdropNFT.sol\":1755:1775  bytes32 computedHash */\n      0x00\n        /* \"contracts/MerkleAirdropNFT.sol\":1795:1926  for (uint256 i = 0; i < _merkleProof.length; i++) {... */\n    tag_106:\n        /* \"contracts/MerkleAirdropNFT.sol\":1815:1838  i < _merkleProof.length */\n      dup5\n      dup2\n      lt\n        /* \"contracts/MerkleAirdropNFT.sol\":1795:1926  for (uint256 i = 0; i < _merkleProof.length; i++) {... */\n      iszero\n      tag_107\n      jumpi\n        /* \"contracts/MerkleAirdropNFT.sol\":1875:1914  hashPair(computedHash, _merkleProof[i]) */\n      tag_109\n        /* \"contracts/MerkleAirdropNFT.sol\":1884:1896  computedHash */\n      dup3\n        /* \"contracts/MerkleAirdropNFT.sol\":1898:1910  _merkleProof */\n      dup8\n      dup8\n        /* \"contracts/MerkleAirdropNFT.sol\":1911:1912  i */\n      dup5\n        /* \"contracts/MerkleAirdropNFT.sol\":1898:1913  _merkleProof[i] */\n      dup2\n      dup2\n      lt\n      tag_111\n      jumpi\n      tag_111\n      tag_112\n      jump\t// in\n    tag_111:\n      swap1\n      pop\n      0x20\n      mul\n      add\n      calldataload\n        /* \"contracts/MerkleAirdropNFT.sol\":2134:2156  abi.encodePacked(a, b) */\n      0x40\n      dup1\n      mload\n      0x20\n      dup1\n      dup3\n      add\n        /* \"#utility.yul\":4877:4896   */\n      swap5\n      swap1\n      swap5\n      mstore\n        /* \"#utility.yul\":4912:4924   */\n      dup1\n      dup3\n      add\n        /* \"#utility.yul\":4905:4933   */\n      swap3\n      swap1\n      swap3\n      mstore\n        /* \"contracts/MerkleAirdropNFT.sol\":2134:2156  abi.encodePacked(a, b) */\n      dup1\n      mload\n      dup1\n      dup4\n      sub\n      dup3\n      add\n      dup2\n      mstore\n        /* \"#utility.yul\":4949:4961   */\n      0x60\n      swap1\n      swap3\n      add\n        /* \"contracts/MerkleAirdropNFT.sol\":2134:2156  abi.encodePacked(a, b) */\n      swap1\n      mstore\n        /* \"contracts/MerkleAirdropNFT.sol\":2124:2157  keccak256(abi.encodePacked(a, b)) */\n      dup1\n      mload\n      swap2\n      add\n      keccak256\n      swap1\n        /* \"contracts/MerkleAirdropNFT.sol\":2034:2165  function hashPair(bytes32 a, bytes32 b) internal pure returns (bytes32) {... */\n      jump\n        /* \"contracts/MerkleAirdropNFT.sol\":1875:1914  hashPair(computedHash, _merkleProof[i]) */\n    tag_109:\n        /* \"contracts/MerkleAirdropNFT.sol\":1860:1914  computedHash = hashPair(computedHash, _merkleProof[i]) */\n      swap2\n      pop\n        /* \"contracts/MerkleAirdropNFT.sol\":1840:1843  i++ */\n      0x01\n      add\n        /* \"contracts/MerkleAirdropNFT.sol\":1795:1926  for (uint256 i = 0; i < _merkleProof.length; i++) {... */\n      jump(tag_106)\n    tag_107:\n      pop\n        /* \"contracts/MerkleAirdropNFT.sol\":1961:1971  merkleRoot */\n      sload(0x05)\n        /* \"contracts/MerkleAirdropNFT.sol\":1945:1971  computedHash == merkleRoot */\n      eq\n      swap6\n        /* \"contracts/MerkleAirdropNFT.sol\":1574:1979  function verifyMerkleProof(address _account, bytes32[] calldata _merkleProof) internal view returns (bool) {... */\n      swap5\n      pop\n      pop\n      pop\n      pop\n      pop\n      jump\t// out\n        /* \"#utility.yul\":14:240   */\n    tag_20:\n        /* \"#utility.yul\":73:79   */\n      0x00\n        /* \"#utility.yul\":126:128   */\n      0x20\n        /* \"#utility.yul\":114:123   */\n      dup3\n        /* \"#utility.yul\":105:112   */\n      dup5\n        /* \"#utility.yul\":101:124   */\n      sub\n        /* \"#utility.yul\":97:129   */\n      slt\n        /* \"#utility.yul\":94:146   */\n      iszero\n      tag_119\n      jumpi\n        /* \"#utility.yul\":142:143   */\n      0x00\n        /* \"#utility.yul\":139:140   */\n      0x00\n        /* \"#utility.yul\":132:144   */\n      revert\n        /* \"#utility.yul\":94:146   */\n    tag_119:\n      pop\n        /* \"#utility.yul\":187:210   */\n      calldataload\n      swap2\n        /* \"#utility.yul\":14:240   */\n      swap1\n      pop\n      jump\t// out\n        /* \"#utility.yul\":453:871   */\n    tag_27:\n        /* \"#utility.yul\":602:604   */\n      0x20\n        /* \"#utility.yul\":591:600   */\n      dup2\n        /* \"#utility.yul\":584:605   */\n      mstore\n        /* \"#utility.yul\":565:569   */\n      0x00\n        /* \"#utility.yul\":634:640   */\n      dup3\n        /* \"#utility.yul\":628:641   */\n      mload\n        /* \"#utility.yul\":677:683   */\n      dup1\n        /* \"#utility.yul\":672:674   */\n      0x20\n        /* \"#utility.yul\":661:670   */\n      dup5\n        /* \"#utility.yul\":657:675   */\n      add\n        /* \"#utility.yul\":650:684   */\n      mstore\n        /* \"#utility.yul\":736:742   */\n      dup1\n        /* \"#utility.yul\":731:733   */\n      0x20\n        /* \"#utility.yul\":723:729   */\n      dup6\n        /* \"#utility.yul\":719:734   */\n      add\n        /* \"#utility.yul\":714:716   */\n      0x40\n        /* \"#utility.yul\":703:712   */\n      dup6\n        /* \"#utility.yul\":699:717   */\n      add\n        /* \"#utility.yul\":693:743   */\n      mcopy\n        /* \"#utility.yul\":792:793   */\n      0x00\n        /* \"#utility.yul\":787:789   */\n      0x40\n        /* \"#utility.yul\":778:784   */\n      dup3\n        /* \"#utility.yul\":767:776   */\n      dup6\n        /* \"#utility.yul\":763:785   */\n      add\n        /* \"#utility.yul\":759:790   */\n      add\n        /* \"#utility.yul\":752:794   */\n      mstore\n        /* \"#utility.yul\":862:864   */\n      0x40\n        /* \"#utility.yul\":855:857   */\n      0x1f\n        /* \"#utility.yul\":851:858   */\n      not\n        /* \"#utility.yul\":846:848   */\n      0x1f\n        /* \"#utility.yul\":838:844   */\n      dup4\n        /* \"#utility.yul\":834:849   */\n      add\n        /* \"#utility.yul\":830:859   */\n      and\n        /* \"#utility.yul\":819:828   */\n      dup5\n        /* \"#utility.yul\":815:860   */\n      add\n        /* \"#utility.yul\":811:865   */\n      add\n        /* \"#utility.yul\":803:865   */\n      swap2\n      pop\n      pop\n        /* \"#utility.yul\":453:871   */\n      swap3\n      swap2\n      pop\n      pop\n      jump\t// out\n        /* \"#utility.yul\":876:1600   */\n    tag_30:\n        /* \"#utility.yul\":971:977   */\n      0x00\n        /* \"#utility.yul\":979:985   */\n      0x00\n        /* \"#utility.yul\":987:993   */\n      0x00\n        /* \"#utility.yul\":1040:1042   */\n      0x40\n        /* \"#utility.yul\":1028:1037   */\n      dup5\n        /* \"#utility.yul\":1019:1026   */\n      dup7\n        /* \"#utility.yul\":1015:1038   */\n      sub\n        /* \"#utility.yul\":1011:1043   */\n      slt\n        /* \"#utility.yul\":1008:1060   */\n      iszero\n      tag_123\n      jumpi\n        /* \"#utility.yul\":1056:1057   */\n      0x00\n        /* \"#utility.yul\":1053:1054   */\n      0x00\n        /* \"#utility.yul\":1046:1058   */\n      revert\n        /* \"#utility.yul\":1008:1060   */\n    tag_123:\n        /* \"#utility.yul\":1101:1124   */\n      dup4\n      calldataload\n      swap3\n      pop\n        /* \"#utility.yul\":1199:1201   */\n      0x20\n        /* \"#utility.yul\":1184:1202   */\n      dup5\n      add\n        /* \"#utility.yul\":1171:1203   */\n      calldataload\n        /* \"#utility.yul\":1226:1244   */\n      0xffffffffffffffff\n        /* \"#utility.yul\":1215:1245   */\n      dup2\n      gt\n        /* \"#utility.yul\":1212:1262   */\n      iszero\n      tag_124\n      jumpi\n        /* \"#utility.yul\":1258:1259   */\n      0x00\n        /* \"#utility.yul\":1255:1256   */\n      0x00\n        /* \"#utility.yul\":1248:1260   */\n      revert\n        /* \"#utility.yul\":1212:1262   */\n    tag_124:\n        /* \"#utility.yul\":1281:1303   */\n      dup5\n      add\n        /* \"#utility.yul\":1334:1338   */\n      0x1f\n        /* \"#utility.yul\":1326:1339   */\n      dup2\n      add\n        /* \"#utility.yul\":1322:1349   */\n      dup7\n      sgt\n        /* \"#utility.yul\":1312:1367   */\n      tag_125\n      jumpi\n        /* \"#utility.yul\":1363:1364   */\n      0x00\n        /* \"#utility.yul\":1360:1361   */\n      0x00\n        /* \"#utility.yul\":1353:1365   */\n      revert\n        /* \"#utility.yul\":1312:1367   */\n    tag_125:\n        /* \"#utility.yul\":1403:1405   */\n      dup1\n        /* \"#utility.yul\":1390:1406   */\n      calldataload\n        /* \"#utility.yul\":1429:1447   */\n      0xffffffffffffffff\n        /* \"#utility.yul\":1421:1427   */\n      dup2\n        /* \"#utility.yul\":1418:1448   */\n      gt\n        /* \"#utility.yul\":1415:1465   */\n      iszero\n      tag_126\n      jumpi\n        /* \"#utility.yul\":1461:1462   */\n      0x00\n        /* \"#utility.yul\":1458:1459   */\n      0x00\n        /* \"#utility.yul\":1451:1463   */\n      revert\n        /* \"#utility.yul\":1415:1465   */\n    tag_126:\n        /* \"#utility.yul\":1514:1521   */\n      dup7\n        /* \"#utility.yul\":1509:1511   */\n      0x20\n        /* \"#utility.yul\":1499:1505   */\n      dup3\n        /* \"#utility.yul\":1496:1497   */\n      0x05\n        /* \"#utility.yul\":1492:1506   */\n      shl\n        /* \"#utility.yul\":1488:1490   */\n      dup5\n        /* \"#utility.yul\":1484:1507   */\n      add\n        /* \"#utility.yul\":1480:1512   */\n      add\n        /* \"#utility.yul\":1477:1522   */\n      gt\n        /* \"#utility.yul\":1474:1539   */\n      iszero\n      tag_127\n      jumpi\n        /* \"#utility.yul\":1535:1536   */\n      0x00\n        /* \"#utility.yul\":1532:1533   */\n      0x00\n        /* \"#utility.yul\":1525:1537   */\n      revert\n        /* \"#utility.yul\":1474:1539   */\n    tag_127:\n        /* \"#utility.yul\":876:1600   */\n      swap4\n      swap7\n        /* \"#utility.yul\":1566:1568   */\n      0x20\n        /* \"#utility.yul\":1558:1569   */\n      swap2\n      swap1\n      swap2\n      add\n      swap6\n      pop\n        /* \"#utility.yul\":1588:1594   */\n      swap3\n      swap4\n      pop\n      pop\n      pop\n        /* \"#utility.yul\":876:1600   */\n      jump\t// out\n        /* \"#utility.yul\":1969:2255   */\n    tag_45:\n        /* \"#utility.yul\":2028:2034   */\n      0x00\n        /* \"#utility.yul\":2081:2083   */\n      0x20\n        /* \"#utility.yul\":2069:2078   */\n      dup3\n        /* \"#utility.yul\":2060:2067   */\n      dup5\n        /* \"#utility.yul\":2056:2079   */\n      sub\n        /* \"#utility.yul\":2052:2084   */\n      slt\n        /* \"#utility.yul\":2049:2101   */\n      iszero\n      tag_131\n      jumpi\n        /* \"#utility.yul\":2097:2098   */\n      0x00\n        /* \"#utility.yul\":2094:2095   */\n      0x00\n        /* \"#utility.yul\":2087:2099   */\n      revert\n        /* \"#utility.yul\":2049:2101   */\n    tag_131:\n        /* \"#utility.yul\":2123:2146   */\n      dup2\n      calldataload\n      sub(shl(0xa0, 0x01), 0x01)\n        /* \"#utility.yul\":2175:2206   */\n      dup2\n      and\n        /* \"#utility.yul\":2165:2207   */\n      dup2\n      eq\n        /* \"#utility.yul\":2155:2225   */\n      tag_132\n      jumpi\n        /* \"#utility.yul\":2221:2222   */\n      0x00\n        /* \"#utility.yul\":2218:2219   */\n      0x00\n        /* \"#utility.yul\":2211:2223   */\n      revert\n        /* \"#utility.yul\":2155:2225   */\n    tag_132:\n        /* \"#utility.yul\":2244:2249   */\n      swap4\n        /* \"#utility.yul\":1969:2255   */\n      swap3\n      pop\n      pop\n      pop\n      jump\t// out\n        /* \"#utility.yul\":2637:3017   */\n    tag_70:\n        /* \"#utility.yul\":2716:2717   */\n      0x01\n        /* \"#utility.yul\":2712:2724   */\n      dup2\n      dup2\n      shr\n      swap1\n        /* \"#utility.yul\":2759:2771   */\n      dup3\n      and\n      dup1\n        /* \"#utility.yul\":2780:2841   */\n      tag_137\n      jumpi\n        /* \"#utility.yul\":2834:2838   */\n      0x7f\n        /* \"#utility.yul\":2826:2832   */\n      dup3\n        /* \"#utility.yul\":2822:2839   */\n      and\n        /* \"#utility.yul\":2812:2839   */\n      swap2\n      pop\n        /* \"#utility.yul\":2780:2841   */\n    tag_137:\n        /* \"#utility.yul\":2887:2889   */\n      0x20\n        /* \"#utility.yul\":2879:2885   */\n      dup3\n        /* \"#utility.yul\":2876:2890   */\n      lt\n        /* \"#utility.yul\":2856:2874   */\n      dup2\n        /* \"#utility.yul\":2853:2891   */\n      sub\n        /* \"#utility.yul\":2850:3011   */\n      tag_138\n      jumpi\n        /* \"#utility.yul\":2933:2943   */\n      0x4e487b71\n        /* \"#utility.yul\":2928:2931   */\n      0xe0\n        /* \"#utility.yul\":2924:2944   */\n      shl\n        /* \"#utility.yul\":2921:2922   */\n      0x00\n        /* \"#utility.yul\":2914:2945   */\n      mstore\n        /* \"#utility.yul\":2968:2972   */\n      0x22\n        /* \"#utility.yul\":2965:2966   */\n      0x04\n        /* \"#utility.yul\":2958:2973   */\n      mstore\n        /* \"#utility.yul\":2996:3000   */\n      0x24\n        /* \"#utility.yul\":2993:2994   */\n      0x00\n        /* \"#utility.yul\":2986:3001   */\n      revert\n        /* \"#utility.yul\":2850:3011   */\n    tag_138:\n      pop\n        /* \"#utility.yul\":2637:3017   */\n      swap2\n      swap1\n      pop\n      jump\t// out\n        /* \"#utility.yul\":3766:3998   */\n    tag_85:\n        /* \"#utility.yul\":3805:3808   */\n      0x00\n        /* \"#utility.yul\":3826:3843   */\n      0x01\n      dup3\n      add\n        /* \"#utility.yul\":3823:3963   */\n      tag_142\n      jumpi\n        /* \"#utility.yul\":3885:3895   */\n      0x4e487b71\n        /* \"#utility.yul\":3880:3883   */\n      0xe0\n        /* \"#utility.yul\":3876:3896   */\n      shl\n        /* \"#utility.yul\":3873:3874   */\n      0x00\n        /* \"#utility.yul\":3866:3897   */\n      mstore\n        /* \"#utility.yul\":3920:3924   */\n      0x11\n        /* \"#utility.yul\":3917:3918   */\n      0x04\n        /* \"#utility.yul\":3910:3925   */\n      mstore\n        /* \"#utility.yul\":3948:3952   */\n      0x24\n        /* \"#utility.yul\":3945:3946   */\n      0x00\n        /* \"#utility.yul\":3938:3953   */\n      revert\n        /* \"#utility.yul\":3823:3963   */\n    tag_142:\n      pop\n        /* \"#utility.yul\":3990:3991   */\n      0x01\n        /* \"#utility.yul\":3979:3992   */\n      add\n      swap1\n        /* \"#utility.yul\":3766:3998   */\n      jump\t// out\n        /* \"#utility.yul\":4588:4715   */\n    tag_112:\n        /* \"#utility.yul\":4649:4659   */\n      0x4e487b71\n        /* \"#utility.yul\":4644:4647   */\n      0xe0\n        /* \"#utility.yul\":4640:4660   */\n      shl\n        /* \"#utility.yul\":4637:4638   */\n      0x00\n        /* \"#utility.yul\":4630:4661   */\n      mstore\n        /* \"#utility.yul\":4680:4684   */\n      0x32\n        /* \"#utility.yul\":4677:4678   */\n      0x04\n        /* \"#utility.yul\":4670:4685   */\n      mstore\n        /* \"#utility.yul\":4704:4708   */\n      0x24\n        /* \"#utility.yul\":4701:4702   */\n      0x00\n        /* \"#utility.yul\":4694:4709   */\n      revert\n\n    auxdata: 0xa26469706673582212200f26b9aa7af168aaa89e50b1e9c9e5e4a7a3e7850853d9e099ae723ffe48cb1664736f6c634300081d0033\n}\n",
				"bytecode": {
					"linkReferences": {},
					"object": "60c0604052601060809081526f13595c9adb19505a5c991c9bdc13919560821b60a0525f9061002e9082610145565b50604080518082019091526005815264135053919560da1b60208201526001906100589082610145565b506001600855348015610069575f5ffd5b50604051610957380380610957833981016040819052610088916101ff565b600380546001600160a01b0319166001600160a01b039290921691909117905561022c565b634e487b7160e01b5f52604160045260245ffd5b600181811c908216806100d557607f821691505b6020821081036100f357634e487b7160e01b5f52602260045260245ffd5b50919050565b601f82111561014057805f5260205f20601f840160051c8101602085101561011e5750805b601f840160051c820191505b8181101561013d575f815560010161012a565b50505b505050565b81516001600160401b0381111561015e5761015e6100ad565b6101728161016c84546100c1565b846100f9565b6020601f8211600181146101a4575f831561018d5750848201515b5f19600385901b1c1916600184901b17845561013d565b5f84815260208120601f198516915b828110156101d357878501518255602094850194600190920191016101b3565b50848210156101f057868401515f19600387901b60f8161c191681555b50505050600190811b01905550565b5f6020828403121561020f575f5ffd5b81516001600160a01b0381168114610225575f5ffd5b9392505050565b61071e806102395f395ff3fe608060405234801561000f575f5ffd5b50600436106100cb575f3560e01c806354ba0f271161008857806375794a3c1161006357806375794a3c146101de5780637cb64759146101e757806395d89b41146101fa578063d56d229d14610202575f5ffd5b806354ba0f27146101715780636352211e1461018457806373b2e80e146101ac575f5ffd5b8063025e7c27146100cf57806306fdde03146101145780630bcae1ac1461012957806318160ddd1461013e5780632131c68c146101555780632eb4a7ab14610168575b5f5ffd5b6100f76100dd366004610585565b60076020525f90815260409020546001600160a01b031681565b6040516001600160a01b0390911681526020015b60405180910390f35b61011c610215565b60405161010b919061059c565b61013c6101373660046105d1565b6102a0565b005b61014760025481565b60405190815260200161010b565b6003546100f7906001600160a01b031681565b61014760055481565b61013c61017f36600461064b565b6103d1565b6100f7610192366004610585565b5f908152600760205260409020546001600160a01b031690565b6101ce6101ba36600461064b565b60066020525f908152604090205460ff1681565b604051901515815260200161010b565b61014760085481565b61013c6101f5366004610585565b610477565b61011c6104cf565b6004546100f7906001600160a01b031681565b5f805461022190610678565b80601f016020809104026020016040519081016040528092919081815260200182805461024d90610678565b80156102985780601f1061026f57610100808354040283529160200191610298565b820191905f5260205f20905b81548152906001019060200180831161027b57829003601f168201915b505050505081565b335f9081526006602052604090205460ff161561030e5760405162461bcd60e51b815260206004820152602160248201527f596f75206861766520616c726561647920636c61696d656420796f7572204e466044820152601560fa1b60648201526084015b60405180910390fd5b6103193383836104dc565b6103555760405162461bcd60e51b815260206004820152600d60248201526c24b73b30b634b210383937b7b360991b6044820152606401610305565b335f818152600660209081526040808320805460ff191660011790558683526007909152812080546001600160a01b031916909217909155600280549161039b836106b0565b9091555050604051839033907f650e45f04ef8a0c267b2f78d983913f69ae3a353b2b32de5429307522be0ab55905f90a3505050565b6003546001600160a01b031633146104245760405162461bcd60e51b81526020600482015260166024820152754f6e6c792044414f2063616e2063616c6c207468697360501b6044820152606401610305565b600880545f90815260076020526040812080546001600160a01b0319166001600160a01b0385161790558154919061045b836106b0565b909155505060028054905f61046f836106b0565b919050555050565b6003546001600160a01b031633146104ca5760405162461bcd60e51b81526020600482015260166024820152754f6e6c792044414f2063616e2063616c6c207468697360501b6044820152606401610305565b600555565b6001805461022190610678565b6040516bffffffffffffffffffffffff19606085901b1660208201525f90819060340160408051601f1981840301815291905280516020909101209050805f5b848110156105775761056d8287878481811061053a5761053a6106d4565b90506020020135604080516020808201949094528082019290925280518083038201815260609092019052805191012090565b915060010161051c565b506005541495945050505050565b5f60208284031215610595575f5ffd5b5035919050565b602081525f82518060208401528060208501604085015e5f604082850101526040601f19601f83011684010191505092915050565b5f5f5f604084860312156105e3575f5ffd5b83359250602084013567ffffffffffffffff811115610600575f5ffd5b8401601f81018613610610575f5ffd5b803567ffffffffffffffff811115610626575f5ffd5b8660208260051b840101111561063a575f5ffd5b939660209190910195509293505050565b5f6020828403121561065b575f5ffd5b81356001600160a01b0381168114610671575f5ffd5b9392505050565b600181811c9082168061068c57607f821691505b6020821081036106aa57634e487b7160e01b5f52602260045260245ffd5b50919050565b5f600182016106cd57634e487b7160e01b5f52601160045260245ffd5b5060010190565b634e487b7160e01b5f52603260045260245ffdfea26469706673582212200f26b9aa7af168aaa89e50b1e9c9e5e4a7a3e7850853d9e099ae723ffe48cb1664736f6c634300081d0033",
					"opcodes": "PUSH1 0xC0 PUSH1 0x40 MSTORE PUSH1 0x10 PUSH1 0x80 SWAP1 DUP2 MSTORE PUSH16 0x13595C9ADB19505A5C991C9BDC139195 PUSH1 0x82 SHL PUSH1 0xA0 MSTORE PUSH0 SWAP1 PUSH2 0x2E SWAP1 DUP3 PUSH2 0x145 JUMP JUMPDEST POP PUSH1 0x40 DUP1 MLOAD DUP1 DUP3 ADD SWAP1 SWAP2 MSTORE PUSH1 0x5 DUP2 MSTORE PUSH5 0x1350539195 PUSH1 0xDA SHL PUSH1 0x20 DUP3 ADD MSTORE PUSH1 0x1 SWAP1 PUSH2 0x58 SWAP1 DUP3 PUSH2 0x145 JUMP JUMPDEST POP PUSH1 0x1 PUSH1 0x8 SSTORE CALLVALUE DUP1 ISZERO PUSH2 0x69 JUMPI PUSH0 PUSH0 REVERT JUMPDEST POP PUSH1 0x40 MLOAD PUSH2 0x957 CODESIZE SUB DUP1 PUSH2 0x957 DUP4 CODECOPY DUP2 ADD PUSH1 0x40 DUP2 SWAP1 MSTORE PUSH2 0x88 SWAP2 PUSH2 0x1FF JUMP JUMPDEST PUSH1 0x3 DUP1 SLOAD PUSH1 0x1 PUSH1 0x1 PUSH1 0xA0 SHL SUB NOT AND PUSH1 0x1 PUSH1 0x1 PUSH1 0xA0 SHL SUB SWAP3 SWAP1 SWAP3 AND SWAP2 SWAP1 SWAP2 OR SWAP1 SSTORE PUSH2 0x22C JUMP JUMPDEST PUSH4 0x4E487B71 PUSH1 0xE0 SHL PUSH0 MSTORE PUSH1 0x41 PUSH1 0x4 MSTORE PUSH1 0x24 PUSH0 REVERT JUMPDEST PUSH1 0x1 DUP2 DUP2 SHR SWAP1 DUP3 AND DUP1 PUSH2 0xD5 JUMPI PUSH1 0x7F DUP3 AND SWAP2 POP JUMPDEST PUSH1 0x20 DUP3 LT DUP2 SUB PUSH2 0xF3 JUMPI PUSH4 0x4E487B71 PUSH1 0xE0 SHL PUSH0 MSTORE PUSH1 0x22 PUSH1 0x4 MSTORE PUSH1 0x24 PUSH0 REVERT JUMPDEST POP SWAP2 SWAP1 POP JUMP JUMPDEST PUSH1 0x1F DUP3 GT ISZERO PUSH2 0x140 JUMPI DUP1 PUSH0 MSTORE PUSH1 0x20 PUSH0 KECCAK256 PUSH1 0x1F DUP5 ADD PUSH1 0x5 SHR DUP2 ADD PUSH1 0x20 DUP6 LT ISZERO PUSH2 0x11E JUMPI POP DUP1 JUMPDEST PUSH1 0x1F DUP5 ADD PUSH1 0x5 SHR DUP3 ADD SWAP2 POP JUMPDEST DUP2 DUP2 LT ISZERO PUSH2 0x13D JUMPI PUSH0 DUP2 SSTORE PUSH1 0x1 ADD PUSH2 0x12A JUMP JUMPDEST POP POP JUMPDEST POP POP POP JUMP JUMPDEST DUP2 MLOAD PUSH1 0x1 PUSH1 0x1 PUSH1 0x40 SHL SUB DUP2 GT ISZERO PUSH2 0x15E JUMPI PUSH2 0x15E PUSH2 0xAD JUMP JUMPDEST PUSH2 0x172 DUP2 PUSH2 0x16C DUP5 SLOAD PUSH2 0xC1 JUMP JUMPDEST DUP5 PUSH2 0xF9 JUMP JUMPDEST PUSH1 0x20 PUSH1 0x1F DUP3 GT PUSH1 0x1 DUP2 EQ PUSH2 0x1A4 JUMPI PUSH0 DUP4 ISZERO PUSH2 0x18D JUMPI POP DUP5 DUP3 ADD MLOAD JUMPDEST PUSH0 NOT PUSH1 0x3 DUP6 SWAP1 SHL SHR NOT AND PUSH1 0x1 DUP5 SWAP1 SHL OR DUP5 SSTORE PUSH2 0x13D JUMP JUMPDEST PUSH0 DUP5 DUP2 MSTORE PUSH1 0x20 DUP2 KECCAK256 PUSH1 0x1F NOT DUP6 AND SWAP2 JUMPDEST DUP3 DUP2 LT ISZERO PUSH2 0x1D3 JUMPI DUP8 DUP6 ADD MLOAD DUP3 SSTORE PUSH1 0x20 SWAP5 DUP6 ADD SWAP5 PUSH1 0x1 SWAP1 SWAP3 ADD SWAP2 ADD PUSH2 0x1B3 JUMP JUMPDEST POP DUP5 DUP3 LT ISZERO PUSH2 0x1F0 JUMPI DUP7 DUP5 ADD MLOAD PUSH0 NOT PUSH1 0x3 DUP8 SWAP1 SHL PUSH1 0xF8 AND SHR NOT AND DUP2 SSTORE JUMPDEST POP POP POP POP PUSH1 0x1 SWAP1 DUP2 SHL ADD SWAP1 SSTORE POP JUMP JUMPDEST PUSH0 PUSH1 0x20 DUP3 DUP5 SUB SLT ISZERO PUSH2 0x20F JUMPI PUSH0 PUSH0 REVERT JUMPDEST DUP2 MLOAD PUSH1 0x1 PUSH1 0x1 PUSH1 0xA0 SHL SUB DUP2 AND DUP2 EQ PUSH2 0x225 JUMPI PUSH0 PUSH0 REVERT JUMPDEST SWAP4 SWAP3 POP POP POP JUMP JUMPDEST PUSH2 0x71E DUP1 PUSH2 0x239 PUSH0 CODECOPY PUSH0 RETURN INVALID PUSH1 0x80 PUSH1 0x40 MSTORE CALLVALUE DUP1 ISZERO PUSH2 0xF JUMPI PUSH0 PUSH0 REVERT JUMPDEST POP PUSH1 0x4 CALLDATASIZE LT PUSH2 0xCB JUMPI PUSH0 CALLDATALOAD PUSH1 0xE0 SHR DUP1 PUSH4 0x54BA0F27 GT PUSH2 0x88 JUMPI DUP1 PUSH4 0x75794A3C GT PUSH2 0x63 JUMPI DUP1 PUSH4 0x75794A3C EQ PUSH2 0x1DE JUMPI DUP1 PUSH4 0x7CB64759 EQ PUSH2 0x1E7 JUMPI DUP1 PUSH4 0x95D89B41 EQ PUSH2 0x1FA JUMPI DUP1 PUSH4 0xD56D229D EQ PUSH2 0x202 JUMPI PUSH0 PUSH0 REVERT JUMPDEST DUP1 PUSH4 0x54BA0F27 EQ PUSH2 0x171 JUMPI DUP1 PUSH4 0x6352211E EQ PUSH2 0x184 JUMPI DUP1 PUSH4 0x73B2E80E EQ PUSH2 0x1AC JUMPI PUSH0 PUSH0 REVERT JUMPDEST DUP1 PUSH4 0x25E7C27 EQ PUSH2 0xCF JUMPI DUP1 PUSH4 0x6FDDE03 EQ PUSH2 0x114 JUMPI DUP1 PUSH4 0xBCAE1AC EQ PUSH2 0x129 JUMPI DUP1 PUSH4 0x18160DDD EQ PUSH2 0x13E JUMPI DUP1 PUSH4 0x2131C68C EQ PUSH2 0x155 JUMPI DUP1 PUSH4 0x2EB4A7AB EQ PUSH2 0x168 JUMPI JUMPDEST PUSH0 PUSH0 REVERT JUMPDEST PUSH2 0xF7 PUSH2 0xDD CALLDATASIZE PUSH1 0x4 PUSH2 0x585 JUMP JUMPDEST PUSH1 0x7 PUSH1 0x20 MSTORE PUSH0 SWAP1 DUP2 MSTORE PUSH1 0x40 SWAP1 KECCAK256 SLOAD PUSH1 0x1 PUSH1 0x1 PUSH1 0xA0 SHL SUB AND DUP2 JUMP JUMPDEST PUSH1 0x40 MLOAD PUSH1 0x1 PUSH1 0x1 PUSH1 0xA0 SHL SUB SWAP1 SWAP2 AND DUP2 MSTORE PUSH1 0x20 ADD JUMPDEST PUSH1 0x40 MLOAD DUP1 SWAP2 SUB SWAP1 RETURN JUMPDEST PUSH2 0x11C PUSH2 0x215 JUMP JUMPDEST PUSH1 0x40 MLOAD PUSH2 0x10B SWAP2 SWAP1 PUSH2 0x59C JUMP JUMPDEST PUSH2 0x13C PUSH2 0x137 CALLDATASIZE PUSH1 0x4 PUSH2 0x5D1 JUMP JUMPDEST PUSH2 0x2A0 JUMP JUMPDEST STOP JUMPDEST PUSH2 0x147 PUSH1 0x2 SLOAD DUP2 JUMP JUMPDEST PUSH1 0x40 MLOAD SWAP1 DUP2 MSTORE PUSH1 0x20 ADD PUSH2 0x10B JUMP JUMPDEST PUSH1 0x3 SLOAD PUSH2 0xF7 SWAP1 PUSH1 0x1 PUSH1 0x1 PUSH1 0xA0 SHL SUB AND DUP2 JUMP JUMPDEST PUSH2 0x147 PUSH1 0x5 SLOAD DUP2 JUMP JUMPDEST PUSH2 0x13C PUSH2 0x17F CALLDATASIZE PUSH1 0x4 PUSH2 0x64B JUMP JUMPDEST PUSH2 0x3D1 JUMP JUMPDEST PUSH2 0xF7 PUSH2 0x192 CALLDATASIZE PUSH1 0x4 PUSH2 0x585 JUMP JUMPDEST PUSH0 SWAP1 DUP2 MSTORE PUSH1 0x7 PUSH1 0x20 MSTORE PUSH1 0x40 SWAP1 KECCAK256 SLOAD PUSH1 0x1 PUSH1 0x1 PUSH1 0xA0 SHL SUB AND SWAP1 JUMP JUMPDEST PUSH2 0x1CE PUSH2 0x1BA CALLDATASIZE PUSH1 0x4 PUSH2 0x64B JUMP JUMPDEST PUSH1 0x6 PUSH1 0x20 MSTORE PUSH0 SWAP1 DUP2 MSTORE PUSH1 0x40 SWAP1 KECCAK256 SLOAD PUSH1 0xFF AND DUP2 JUMP JUMPDEST PUSH1 0x40 MLOAD SWAP1 ISZERO ISZERO DUP2 MSTORE PUSH1 0x20 ADD PUSH2 0x10B JUMP JUMPDEST PUSH2 0x147 PUSH1 0x8 SLOAD DUP2 JUMP JUMPDEST PUSH2 0x13C PUSH2 0x1F5 CALLDATASIZE PUSH1 0x4 PUSH2 0x585 JUMP JUMPDEST PUSH2 0x477 JUMP JUMPDEST PUSH2 0x11C PUSH2 0x4CF JUMP JUMPDEST PUSH1 0x4 SLOAD PUSH2 0xF7 SWAP1 PUSH1 0x1 PUSH1 0x1 PUSH1 0xA0 SHL SUB AND DUP2 JUMP JUMPDEST PUSH0 DUP1 SLOAD PUSH2 0x221 SWAP1 PUSH2 0x678 JUMP JUMPDEST DUP1 PUSH1 0x1F ADD PUSH1 0x20 DUP1 SWAP2 DIV MUL PUSH1 0x20 ADD PUSH1 0x40 MLOAD SWAP1 DUP2 ADD PUSH1 0x40 MSTORE DUP1 SWAP3 SWAP2 SWAP1 DUP2 DUP2 MSTORE PUSH1 0x20 ADD DUP3 DUP1 SLOAD PUSH2 0x24D SWAP1 PUSH2 0x678 JUMP JUMPDEST DUP1 ISZERO PUSH2 0x298 JUMPI DUP1 PUSH1 0x1F LT PUSH2 0x26F JUMPI PUSH2 0x100 DUP1 DUP4 SLOAD DIV MUL DUP4 MSTORE SWAP2 PUSH1 0x20 ADD SWAP2 PUSH2 0x298 JUMP JUMPDEST DUP3 ADD SWAP2 SWAP1 PUSH0 MSTORE PUSH1 0x20 PUSH0 KECCAK256 SWAP1 JUMPDEST DUP2 SLOAD DUP2 MSTORE SWAP1 PUSH1 0x1 ADD SWAP1 PUSH1 0x20 ADD DUP1 DUP4 GT PUSH2 0x27B JUMPI DUP3 SWAP1 SUB PUSH1 0x1F AND DUP3 ADD SWAP2 JUMPDEST POP POP POP POP POP DUP2 JUMP JUMPDEST CALLER PUSH0 SWAP1 DUP2 MSTORE PUSH1 0x6 PUSH1 0x20 MSTORE PUSH1 0x40 SWAP1 KECCAK256 SLOAD PUSH1 0xFF AND ISZERO PUSH2 0x30E JUMPI PUSH1 0x40 MLOAD PUSH3 0x461BCD PUSH1 0xE5 SHL DUP2 MSTORE PUSH1 0x20 PUSH1 0x4 DUP3 ADD MSTORE PUSH1 0x21 PUSH1 0x24 DUP3 ADD MSTORE PUSH32 0x596F75206861766520616C726561647920636C61696D656420796F7572204E46 PUSH1 0x44 DUP3 ADD MSTORE PUSH1 0x15 PUSH1 0xFA SHL PUSH1 0x64 DUP3 ADD MSTORE PUSH1 0x84 ADD JUMPDEST PUSH1 0x40 MLOAD DUP1 SWAP2 SUB SWAP1 REVERT JUMPDEST PUSH2 0x319 CALLER DUP4 DUP4 PUSH2 0x4DC JUMP JUMPDEST PUSH2 0x355 JUMPI PUSH1 0x40 MLOAD PUSH3 0x461BCD PUSH1 0xE5 SHL DUP2 MSTORE PUSH1 0x20 PUSH1 0x4 DUP3 ADD MSTORE PUSH1 0xD PUSH1 0x24 DUP3 ADD MSTORE PUSH13 0x24B73B30B634B210383937B7B3 PUSH1 0x99 SHL PUSH1 0x44 DUP3 ADD MSTORE PUSH1 0x64 ADD PUSH2 0x305 JUMP JUMPDEST CALLER PUSH0 DUP2 DUP2 MSTORE PUSH1 0x6 PUSH1 0x20 SWAP1 DUP2 MSTORE PUSH1 0x40 DUP1 DUP4 KECCAK256 DUP1 SLOAD PUSH1 0xFF NOT AND PUSH1 0x1 OR SWAP1 SSTORE DUP7 DUP4 MSTORE PUSH1 0x7 SWAP1 SWAP2 MSTORE DUP2 KECCAK256 DUP1 SLOAD PUSH1 0x1 PUSH1 0x1 PUSH1 0xA0 SHL SUB NOT AND SWAP1 SWAP3 OR SWAP1 SWAP2 SSTORE PUSH1 0x2 DUP1 SLOAD SWAP2 PUSH2 0x39B DUP4 PUSH2 0x6B0 JUMP JUMPDEST SWAP1 SWAP2 SSTORE POP POP PUSH1 0x40 MLOAD DUP4 SWAP1 CALLER SWAP1 PUSH32 0x650E45F04EF8A0C267B2F78D983913F69AE3A353B2B32DE5429307522BE0AB55 SWAP1 PUSH0 SWAP1 LOG3 POP POP POP JUMP JUMPDEST PUSH1 0x3 SLOAD PUSH1 0x1 PUSH1 0x1 PUSH1 0xA0 SHL SUB AND CALLER EQ PUSH2 0x424 JUMPI PUSH1 0x40 MLOAD PUSH3 0x461BCD PUSH1 0xE5 SHL DUP2 MSTORE PUSH1 0x20 PUSH1 0x4 DUP3 ADD MSTORE PUSH1 0x16 PUSH1 0x24 DUP3 ADD MSTORE PUSH22 0x4F6E6C792044414F2063616E2063616C6C2074686973 PUSH1 0x50 SHL PUSH1 0x44 DUP3 ADD MSTORE PUSH1 0x64 ADD PUSH2 0x305 JUMP JUMPDEST PUSH1 0x8 DUP1 SLOAD PUSH0 SWAP1 DUP2 MSTORE PUSH1 0x7 PUSH1 0x20 MSTORE PUSH1 0x40 DUP2 KECCAK256 DUP1 SLOAD PUSH1 0x1 PUSH1 0x1 PUSH1 0xA0 SHL SUB NOT AND PUSH1 0x1 PUSH1 0x1 PUSH1 0xA0 SHL SUB DUP6 AND OR SWAP1 SSTORE DUP2 SLOAD SWAP2 SWAP1 PUSH2 0x45B DUP4 PUSH2 0x6B0 JUMP JUMPDEST SWAP1 SWAP2 SSTORE POP POP PUSH1 0x2 DUP1 SLOAD SWAP1 PUSH0 PUSH2 0x46F DUP4 PUSH2 0x6B0 JUMP JUMPDEST SWAP2 SWAP1 POP SSTORE POP POP JUMP JUMPDEST PUSH1 0x3 SLOAD PUSH1 0x1 PUSH1 0x1 PUSH1 0xA0 SHL SUB AND CALLER EQ PUSH2 0x4CA JUMPI PUSH1 0x40 MLOAD PUSH3 0x461BCD PUSH1 0xE5 SHL DUP2 MSTORE PUSH1 0x20 PUSH1 0x4 DUP3 ADD MSTORE PUSH1 0x16 PUSH1 0x24 DUP3 ADD MSTORE PUSH22 0x4F6E6C792044414F2063616E2063616C6C2074686973 PUSH1 0x50 SHL PUSH1 0x44 DUP3 ADD MSTORE PUSH1 0x64 ADD PUSH2 0x305 JUMP JUMPDEST PUSH1 0x5 SSTORE JUMP JUMPDEST PUSH1 0x1 DUP1 SLOAD PUSH2 0x221 SWAP1 PUSH2 0x678 JUMP JUMPDEST PUSH1 0x40 MLOAD PUSH12 0xFFFFFFFFFFFFFFFFFFFFFFFF NOT PUSH1 0x60 DUP6 SWAP1 SHL AND PUSH1 0x20 DUP3 ADD MSTORE PUSH0 SWAP1 DUP2 SWAP1 PUSH1 0x34 ADD PUSH1 0x40 DUP1 MLOAD PUSH1 0x1F NOT DUP2 DUP5 SUB ADD DUP2 MSTORE SWAP2 SWAP1 MSTORE DUP1 MLOAD PUSH1 0x20 SWAP1 SWAP2 ADD KECCAK256 SWAP1 POP DUP1 PUSH0 JUMPDEST DUP5 DUP2 LT ISZERO PUSH2 0x577 JUMPI PUSH2 0x56D DUP3 DUP8 DUP8 DUP5 DUP2 DUP2 LT PUSH2 0x53A JUMPI PUSH2 0x53A PUSH2 0x6D4 JUMP JUMPDEST SWAP1 POP PUSH1 0x20 MUL ADD CALLDATALOAD PUSH1 0x40 DUP1 MLOAD PUSH1 0x20 DUP1 DUP3 ADD SWAP5 SWAP1 SWAP5 MSTORE DUP1 DUP3 ADD SWAP3 SWAP1 SWAP3 MSTORE DUP1 MLOAD DUP1 DUP4 SUB DUP3 ADD DUP2 MSTORE PUSH1 0x60 SWAP1 SWAP3 ADD SWAP1 MSTORE DUP1 MLOAD SWAP2 ADD KECCAK256 SWAP1 JUMP JUMPDEST SWAP2 POP PUSH1 0x1 ADD PUSH2 0x51C JUMP JUMPDEST POP PUSH1 0x5 SLOAD EQ SWAP6 SWAP5 POP POP POP POP POP JUMP JUMPDEST PUSH0 PUSH1 0x20 DUP3 DUP5 SUB SLT ISZERO PUSH2 0x595 JUMPI PUSH0 PUSH0 REVERT JUMPDEST POP CALLDATALOAD SWAP2 SWAP1 POP JUMP JUMPDEST PUSH1 0x20 DUP2 MSTORE PUSH0 DUP3 MLOAD DUP1 PUSH1 0x20 DUP5 ADD MSTORE DUP1 PUSH1 0x20 DUP6 ADD PUSH1 0x40 DUP6 ADD MCOPY PUSH0 PUSH1 0x40 DUP3 DUP6 ADD ADD MSTORE PUSH1 0x40 PUSH1 0x1F NOT PUSH1 0x1F DUP4 ADD AND DUP5 ADD ADD SWAP2 POP POP SWAP3 SWAP2 POP POP JUMP JUMPDEST PUSH0 PUSH0 PUSH0 PUSH1 0x40 DUP5 DUP7 SUB SLT ISZERO PUSH2 0x5E3 JUMPI PUSH0 PUSH0 REVERT JUMPDEST DUP4 CALLDATALOAD SWAP3 POP PUSH1 0x20 DUP5 ADD CALLDATALOAD PUSH8 0xFFFFFFFFFFFFFFFF DUP2 GT ISZERO PUSH2 0x600 JUMPI PUSH0 PUSH0 REVERT JUMPDEST DUP5 ADD PUSH1 0x1F DUP2 ADD DUP7 SGT PUSH2 0x610 JUMPI PUSH0 PUSH0 REVERT JUMPDEST DUP1 CALLDATALOAD PUSH8 0xFFFFFFFFFFFFFFFF DUP2 GT ISZERO PUSH2 0x626 JUMPI PUSH0 PUSH0 REVERT JUMPDEST DUP7 PUSH1 0x20 DUP3 PUSH1 0x5 SHL DUP5 ADD ADD GT ISZERO PUSH2 0x63A JUMPI PUSH0 PUSH0 REVERT JUMPDEST SWAP4 SWAP7 PUSH1 0x20 SWAP2 SWAP1 SWAP2 ADD SWAP6 POP SWAP3 SWAP4 POP POP POP JUMP JUMPDEST PUSH0 PUSH1 0x20 DUP3 DUP5 SUB SLT ISZERO PUSH2 0x65B JUMPI PUSH0 PUSH0 REVERT JUMPDEST DUP2 CALLDATALOAD PUSH1 0x1 PUSH1 0x1 PUSH1 0xA0 SHL SUB DUP2 AND DUP2 EQ PUSH2 0x671 JUMPI PUSH0 PUSH0 REVERT JUMPDEST SWAP4 SWAP3 POP POP POP JUMP JUMPDEST PUSH1 0x1 DUP2 DUP2 SHR SWAP1 DUP3 AND DUP1 PUSH2 0x68C JUMPI PUSH1 0x7F DUP3 AND SWAP2 POP JUMPDEST PUSH1 0x20 DUP3 LT DUP2 SUB PUSH2 0x6AA JUMPI PUSH4 0x4E487B71 PUSH1 0xE0 SHL PUSH0 MSTORE PUSH1 0x22 PUSH1 0x4 MSTORE PUSH1 0x24 PUSH0 REVERT JUMPDEST POP SWAP2 SWAP1 POP JUMP JUMPDEST PUSH0 PUSH1 0x1 DUP3 ADD PUSH2 0x6CD JUMPI PUSH4 0x4E487B71 PUSH1 0xE0 SHL PUSH0 MSTORE PUSH1 0x11 PUSH1 0x4 MSTORE PUSH1 0x24 PUSH0 REVERT JUMPDEST POP PUSH1 0x1 ADD SWAP1 JUMP JUMPDEST PUSH4 0x4E487B71 PUSH1 0xE0 SHL PUSH0 MSTORE PUSH1 0x32 PUSH1 0x4 MSTORE PUSH1 0x24 PUSH0 REVERT INVALID LOG2 PUSH5 0x6970667358 0x22 SLT KECCAK256 0xF 0x26 0xB9 0xAA PUSH27 0xF168AAA89E50B1E9C9E5E4A7A3E7850853D9E099AE723FFE48CB16 PUSH5 0x736F6C6343 STOP ADDMOD SAR STOP CALLER "
				},
				"gasEstimates": {
					"creation": {
						"codeDepositCost": "364400",
						"executionCost": "infinite",
						"totalCost": "infinite"
					},
					"external": {
						"claimAirdrop(uint256,bytes32[])": "infinite",
						"daoAddress()": "2414",
						"hasClaimed(address)": "2560",
						"merkleRoot()": "2405",
						"mintNFT(address)": "infinite",
						"name()": "infinite",
						"nextTokenId()": "2316",
						"nftContract()": "2413",
						"ownerOf(uint256)": "2508",
						"owners(uint256)": "2464",
						"setMerkleRoot(bytes32)": "24506",
						"symbol()": "infinite",
						"totalSupply()": "2361"
					},
					"internal": {
						"hashPair(bytes32,bytes32)": "infinite",
						"verifyMerkleProof(address,bytes32[] calldata)": "infinite"
					}
				},
				"methodIdentifiers": {
					"claimAirdrop(uint256,bytes32[])": "0bcae1ac",
					"daoAddress()": "2131c68c",
					"hasClaimed(address)": "73b2e80e",
					"merkleRoot()": "2eb4a7ab",
					"mintNFT(address)": "54ba0f27",
					"name()": "06fdde03",
					"nextTokenId()": "75794a3c",
					"nftContract()": "d56d229d",
					"ownerOf(uint256)": "6352211e",
					"owners(uint256)": "025e7c27",
					"setMerkleRoot(bytes32)": "7cb64759",
					"symbol()": "95d89b41",
					"totalSupply()": "18160ddd"
				}
			},
			"storageLayout": {
				"storage": [
					{
						"astId": 4,
						"contract": "contracts/MerkleAirdropNFT.sol:MerkleAirdropNFT",
						"label": "name",
						"offset": 0,
						"slot": "0",
						"type": "t_string_storage"
					},
					{
						"astId": 7,
						"contract": "contracts/MerkleAirdropNFT.sol:MerkleAirdropNFT",
						"label": "symbol",
						"offset": 0,
						"slot": "1",
						"type": "t_string_storage"
					},
					{
						"astId": 9,
						"contract": "contracts/MerkleAirdropNFT.sol:MerkleAirdropNFT",
						"label": "totalSupply",
						"offset": 0,
						"slot": "2",
						"type": "t_uint256"
					},
					{
						"astId": 11,
						"contract": "contracts/MerkleAirdropNFT.sol:MerkleAirdropNFT",
						"label": "daoAddress",
						"offset": 0,
						"slot": "3",
						"type": "t_address"
					},
					{
						"astId": 13,
						"contract": "contracts/MerkleAirdropNFT.sol:MerkleAirdropNFT",
						"label": "nftContract",
						"offset": 0,
						"slot": "4",
						"type": "t_address"
					},
					{
						"astId": 15,
						"contract": "contracts/MerkleAirdropNFT.sol:MerkleAirdropNFT",
						"label": "merkleRoot",
						"offset": 0,
						"slot": "5",
						"type": "t_bytes32"
					},
					{
						"astId": 19,
						"contract": "contracts/MerkleAirdropNFT.sol:MerkleAirdropNFT",
						"label": "hasClaimed",
						"offset": 0,
						"slot": "6",
						"type": "t_mapping(t_address,t_bool)"
					},
					{
						"astId": 23,
						"contract": "contracts/MerkleAirdropNFT.sol:MerkleAirdropNFT",
						"label": "owners",
						"offset": 0,
						"slot": "7",
						"type": "t_mapping(t_uint256,t_address)"
					},
					{
						"astId": 26,
						"contract": "contracts/MerkleAirdropNFT.sol:MerkleAirdropNFT",
						"label": "nextTokenId",
						"offset": 0,
						"slot": "8",
						"type": "t_uint256"
					}
				],
				"types": {
					"t_address": {
						"encoding": "inplace",
						"label": "address",
						"numberOfBytes": "20"
					},
					"t_bool": {
						"encoding": "inplace",
						"label": "bool",
						"numberOfBytes": "1"
					},
					"t_bytes32": {
						"encoding": "inplace",
						"label": "bytes32",
						"numberOfBytes": "32"
					},
					"t_mapping(t_address,t_bool)": {
						"encoding": "mapping",
						"key": "t_address",
						"label": "mapping(address => bool)",
						"numberOfBytes": "32",
						"value": "t_bool"
					},
					"t_mapping(t_uint256,t_address)": {
						"encoding": "mapping",
						"key": "t_uint256",
						"label": "mapping(uint256 => address)",
						"numberOfBytes": "32",
						"value": "t_address"
					},
					"t_string_storage": {
						"encoding": "bytes",
						"label": "string",
						"numberOfBytes": "32"
					},
					"t_uint256": {
						"encoding": "inplace",
						"label": "uint256",
						"numberOfBytes": "32"
					}
				}
			},
			"userdoc": {
				"kind": "user",
				"methods": {},
				"version": 1
			}
		}
	}
}