{
	"contracts/NFTMarketplacePart2.sol": {
		"NFTMarketplacePart2": {
			"abi": [
				{
					"anonymous": false,
					"inputs": [
						{
							"indexed": true,
							"internalType": "address",
							"name": "owner",
							"type": "address"
						},
						{
							"indexed": true,
							"internalType": "address",
							"name": "approved",
							"type": "address"
						},
						{
							"indexed": false,
							"internalType": "uint256",
							"name": "tokenId",
							"type": "uint256"
						}
					],
					"name": "Approval",
					"type": "event"
				},
				{
					"anonymous": false,
					"inputs": [
						{
							"indexed": true,
							"internalType": "address",
							"name": "owner",
							"type": "address"
						},
						{
							"indexed": true,
							"internalType": "address",
							"name": "operator",
							"type": "address"
						},
						{
							"indexed": false,
							"internalType": "bool",
							"name": "approved",
							"type": "bool"
						}
					],
					"name": "ApprovalForAll",
					"type": "event"
				},
				{
					"anonymous": false,
					"inputs": [
						{
							"indexed": false,
							"internalType": "uint256",
							"name": "newFee",
							"type": "uint256"
						}
					],
					"name": "ListingFeeUpdated",
					"type": "event"
				},
				{
					"anonymous": false,
					"inputs": [
						{
							"indexed": true,
							"internalType": "address",
							"name": "owner",
							"type": "address"
						},
						{
							"indexed": false,
							"internalType": "uint256",
							"name": "tokenId",
							"type": "uint256"
						},
						{
							"indexed": false,
							"internalType": "string",
							"name": "tokenURI",
							"type": "string"
						}
					],
					"name": "Minted",
					"type": "event"
				},
				{
					"anonymous": false,
					"inputs": [
						{
							"indexed": true,
							"internalType": "address",
							"name": "owner",
							"type": "address"
						},
						{
							"indexed": false,
							"internalType": "uint256",
							"name": "tokenId",
							"type": "uint256"
						},
						{
							"indexed": false,
							"internalType": "uint256",
							"name": "price",
							"type": "uint256"
						}
					],
					"name": "NFTListed",
					"type": "event"
				},
				{
					"anonymous": false,
					"inputs": [
						{
							"indexed": true,
							"internalType": "address",
							"name": "buyer",
							"type": "address"
						},
						{
							"indexed": false,
							"internalType": "uint256",
							"name": "tokenId",
							"type": "uint256"
						},
						{
							"indexed": false,
							"internalType": "uint256",
							"name": "price",
							"type": "uint256"
						}
					],
					"name": "NFTSold",
					"type": "event"
				},
				{
					"anonymous": false,
					"inputs": [
						{
							"indexed": false,
							"internalType": "uint256",
							"name": "tokenId",
							"type": "uint256"
						}
					],
					"name": "NFTUnlisted",
					"type": "event"
				},
				{
					"anonymous": false,
					"inputs": [
						{
							"indexed": false,
							"internalType": "uint256",
							"name": "newFee",
							"type": "uint256"
						}
					],
					"name": "SaleFeeUpdated",
					"type": "event"
				},
				{
					"inputs": [
						{
							"internalType": "uint256",
							"name": "",
							"type": "uint256"
						}
					],
					"name": "approvals",
					"outputs": [
						{
							"internalType": "address",
							"name": "",
							"type": "address"
						}
					],
					"stateMutability": "view",
					"type": "function"
				},
				{
					"inputs": [
						{
							"internalType": "address",
							"name": "to",
							"type": "address"
						},
						{
							"internalType": "uint256",
							"name": "tokenId",
							"type": "uint256"
						}
					],
					"name": "approve",
					"outputs": [],
					"stateMutability": "nonpayable",
					"type": "function"
				},
				{
					"inputs": [
						{
							"internalType": "address",
							"name": "owner",
							"type": "address"
						}
					],
					"name": "balanceOf",
					"outputs": [
						{
							"internalType": "uint256",
							"name": "",
							"type": "uint256"
						}
					],
					"stateMutability": "view",
					"type": "function"
				},
				{
					"inputs": [],
					"name": "burnAddress",
					"outputs": [
						{
							"internalType": "address",
							"name": "",
							"type": "address"
						}
					],
					"stateMutability": "view",
					"type": "function"
				},
				{
					"inputs": [],
					"name": "dao",
					"outputs": [
						{
							"internalType": "address",
							"name": "",
							"type": "address"
						}
					],
					"stateMutability": "view",
					"type": "function"
				},
				{
					"inputs": [],
					"name": "devWallet",
					"outputs": [
						{
							"internalType": "address",
							"name": "",
							"type": "address"
						}
					],
					"stateMutability": "view",
					"type": "function"
				},
				{
					"inputs": [
						{
							"internalType": "uint256",
							"name": "tokenId",
							"type": "uint256"
						}
					],
					"name": "getApproved",
					"outputs": [
						{
							"internalType": "address",
							"name": "",
							"type": "address"
						}
					],
					"stateMutability": "view",
					"type": "function"
				},
				{
					"inputs": [
						{
							"internalType": "address",
							"name": "owner",
							"type": "address"
						},
						{
							"internalType": "address",
							"name": "operator",
							"type": "address"
						}
					],
					"name": "isApprovedForAll",
					"outputs": [
						{
							"internalType": "bool",
							"name": "",
							"type": "bool"
						}
					],
					"stateMutability": "view",
					"type": "function"
				},
				{
					"inputs": [],
					"name": "listingFee",
					"outputs": [
						{
							"internalType": "uint256",
							"name": "",
							"type": "uint256"
						}
					],
					"stateMutability": "view",
					"type": "function"
				},
				{
					"inputs": [
						{
							"internalType": "uint256",
							"name": "",
							"type": "uint256"
						}
					],
					"name": "listings",
					"outputs": [
						{
							"internalType": "uint256",
							"name": "price",
							"type": "uint256"
						},
						{
							"internalType": "address",
							"name": "owner",
							"type": "address"
						},
						{
							"internalType": "bool",
							"name": "listed",
							"type": "bool"
						}
					],
					"stateMutability": "view",
					"type": "function"
				},
				{
					"inputs": [
						{
							"internalType": "string",
							"name": "_uri",
							"type": "string"
						}
					],
					"name": "mint",
					"outputs": [
						{
							"internalType": "uint256",
							"name": "",
							"type": "uint256"
						}
					],
					"stateMutability": "nonpayable",
					"type": "function"
				},
				{
					"inputs": [
						{
							"internalType": "uint256",
							"name": "",
							"type": "uint256"
						}
					],
					"name": "nfts",
					"outputs": [
						{
							"internalType": "address",
							"name": "owner",
							"type": "address"
						},
						{
							"internalType": "string",
							"name": "tokenURI",
							"type": "string"
						},
						{
							"internalType": "bool",
							"name": "listed",
							"type": "bool"
						}
					],
					"stateMutability": "view",
					"type": "function"
				},
				{
					"inputs": [
						{
							"internalType": "address",
							"name": "",
							"type": "address"
						},
						{
							"internalType": "address",
							"name": "",
							"type": "address"
						}
					],
					"name": "operatorApprovals",
					"outputs": [
						{
							"internalType": "bool",
							"name": "",
							"type": "bool"
						}
					],
					"stateMutability": "view",
					"type": "function"
				},
				{
					"inputs": [
						{
							"internalType": "address",
							"name": "",
							"type": "address"
						},
						{
							"internalType": "uint256",
							"name": "",
							"type": "uint256"
						}
					],
					"name": "ownedNFTs",
					"outputs": [
						{
							"internalType": "uint256",
							"name": "",
							"type": "uint256"
						}
					],
					"stateMutability": "view",
					"type": "function"
				},
				{
					"inputs": [
						{
							"internalType": "uint256",
							"name": "tokenId",
							"type": "uint256"
						}
					],
					"name": "ownerOf",
					"outputs": [
						{
							"internalType": "address",
							"name": "",
							"type": "address"
						}
					],
					"stateMutability": "view",
					"type": "function"
				},
				{
					"inputs": [],
					"name": "rhemToken",
					"outputs": [
						{
							"internalType": "contract IERC20",
							"name": "",
							"type": "address"
						}
					],
					"stateMutability": "view",
					"type": "function"
				},
				{
					"inputs": [],
					"name": "saleFee",
					"outputs": [
						{
							"internalType": "uint256",
							"name": "",
							"type": "uint256"
						}
					],
					"stateMutability": "view",
					"type": "function"
				},
				{
					"inputs": [
						{
							"internalType": "address",
							"name": "operator",
							"type": "address"
						},
						{
							"internalType": "bool",
							"name": "approved",
							"type": "bool"
						}
					],
					"name": "setApprovalForAll",
					"outputs": [],
					"stateMutability": "nonpayable",
					"type": "function"
				},
				{
					"inputs": [
						{
							"internalType": "uint256",
							"name": "tokenId",
							"type": "uint256"
						}
					],
					"name": "tokenURI",
					"outputs": [
						{
							"internalType": "string",
							"name": "",
							"type": "string"
						}
					],
					"stateMutability": "view",
					"type": "function"
				},
				{
					"inputs": [],
					"name": "totalSupply",
					"outputs": [
						{
							"internalType": "uint256",
							"name": "",
							"type": "uint256"
						}
					],
					"stateMutability": "view",
					"type": "function"
				},
				{
					"inputs": [
						{
							"internalType": "address",
							"name": "from",
							"type": "address"
						},
						{
							"internalType": "address",
							"name": "to",
							"type": "address"
						},
						{
							"internalType": "uint256",
							"name": "tokenId",
							"type": "uint256"
						}
					],
					"name": "transferFrom",
					"outputs": [],
					"stateMutability": "nonpayable",
					"type": "function"
				}
			],
			"devdoc": {
				"kind": "dev",
				"methods": {},
				"version": 1
			},
			"evm": {
				"assembly": "    /* \"contracts/NFTMarketplacePart2.sol\":100:2977  contract NFTMarketplacePart2 is NFTMarketplacePart1 {... */\n  mstore(0x40, 0x80)\n  callvalue\n  dup1\n  iszero\n  tag_1\n  jumpi\n  revert(0x00, 0x00)\ntag_1:\n  pop\n  dataSize(sub_0)\n  dup1\n  dataOffset(sub_0)\n  0x00\n  codecopy\n  0x00\n  return\nstop\n\nsub_0: assembly {\n        /* \"contracts/NFTMarketplacePart2.sol\":100:2977  contract NFTMarketplacePart2 is NFTMarketplacePart1 {... */\n      mstore(0x40, 0x80)\n      callvalue\n      dup1\n      iszero\n      tag_1\n      jumpi\n      revert(0x00, 0x00)\n    tag_1:\n      pop\n      jumpi(tag_2, lt(calldatasize, 0x04))\n      shr(0xe0, calldataload(0x00))\n      dup1\n      0x6352211e\n      gt\n      tag_24\n      jumpi\n      dup1\n      0xa22cb465\n      gt\n      tag_25\n      jumpi\n      dup1\n      0xa22cb465\n      eq\n      tag_18\n      jumpi\n      dup1\n      0xa6d74512\n      eq\n      tag_19\n      jumpi\n      dup1\n      0xc87b56dd\n      eq\n      tag_20\n      jumpi\n      dup1\n      0xd85d3d27\n      eq\n      tag_21\n      jumpi\n      dup1\n      0xde74e57b\n      eq\n      tag_22\n      jumpi\n      dup1\n      0xe985e9c5\n      eq\n      tag_23\n      jumpi\n      revert(0x00, 0x00)\n    tag_25:\n      dup1\n      0x6352211e\n      eq\n      tag_13\n      jumpi\n      dup1\n      0x6a1b7ecc\n      eq\n      tag_14\n      jumpi\n      dup1\n      0x70a08231\n      eq\n      tag_15\n      jumpi\n      dup1\n      0x70d5ae05\n      eq\n      tag_16\n      jumpi\n      dup1\n      0x8ea5220f\n      eq\n      tag_17\n      jumpi\n      revert(0x00, 0x00)\n    tag_24:\n      dup1\n      0x1a72b87d\n      gt\n      tag_26\n      jumpi\n      dup1\n      0x1a72b87d\n      eq\n      tag_8\n      jumpi\n      dup1\n      0x23b872dd\n      eq\n      tag_9\n      jumpi\n      dup1\n      0x265aa621\n      eq\n      tag_10\n      jumpi\n      dup1\n      0x4162169f\n      eq\n      tag_11\n      jumpi\n      dup1\n      0x63035f66\n      eq\n      tag_12\n      jumpi\n      revert(0x00, 0x00)\n    tag_26:\n      dup1\n      0x081812fc\n      eq\n      tag_3\n      jumpi\n      dup1\n      0x095ea7b3\n      eq\n      tag_4\n      jumpi\n      dup1\n      0x0d95e054\n      eq\n      tag_5\n      jumpi\n      dup1\n      0x178021e3\n      eq\n      tag_6\n      jumpi\n      dup1\n      0x18160ddd\n      eq\n      tag_7\n      jumpi\n    tag_2:\n      revert(0x00, 0x00)\n        /* \"contracts/NFTMarketplacePart2.sol\":1540:1654  function getApproved(uint256 tokenId) external view returns (address) {... */\n    tag_3:\n      tag_27\n      tag_28\n      calldatasize\n      0x04\n      tag_29\n      jump\t// in\n    tag_28:\n        /* \"contracts/NFTMarketplacePart2.sol\":1601:1608  address */\n      0x00\n        /* \"contracts/NFTMarketplacePart2.sol\":1628:1646  approvals[tokenId] */\n      swap1\n      dup2\n      mstore\n        /* \"contracts/NFTMarketplacePart2.sol\":1628:1637  approvals */\n      0x0a\n        /* \"contracts/NFTMarketplacePart2.sol\":1628:1646  approvals[tokenId] */\n      0x20\n      mstore\n      0x40\n      swap1\n      keccak256\n      sload\n      sub(shl(0xa0, 0x01), 0x01)\n      and\n      swap1\n        /* \"contracts/NFTMarketplacePart2.sol\":1540:1654  function getApproved(uint256 tokenId) external view returns (address) {... */\n      jump\n    tag_27:\n      mload(0x40)\n      sub(shl(0xa0, 0x01), 0x01)\n        /* \"#utility.yul\":409:441   */\n      swap1\n      swap2\n      and\n        /* \"#utility.yul\":391:442   */\n      dup2\n      mstore\n        /* \"#utility.yul\":379:381   */\n      0x20\n        /* \"#utility.yul\":364:382   */\n      add\n        /* \"contracts/NFTMarketplacePart2.sol\":1540:1654  function getApproved(uint256 tokenId) external view returns (address) {... */\n    tag_31:\n      mload(0x40)\n      dup1\n      swap2\n      sub\n      swap1\n      return\n        /* \"contracts/NFTMarketplacePart2.sol\":1367:1532  function approve(address to, uint256 tokenId) public onlyOwnerOf(tokenId) {... */\n    tag_4:\n      tag_33\n      tag_34\n      calldatasize\n      0x04\n      tag_35\n      jump\t// in\n    tag_34:\n      tag_36\n      jump\t// in\n    tag_33:\n      stop\n        /* \"contracts/NFTMarketplacePart2.sol\":323:392  mapping(address => mapping(address => bool)) public operatorApprovals */\n    tag_5:\n      tag_37\n      tag_38\n      calldatasize\n      0x04\n      tag_39\n      jump\t// in\n    tag_38:\n      0x0b\n      0x20\n      swap1\n      dup2\n      mstore\n      0x00\n      swap3\n      dup4\n      mstore\n      0x40\n      dup1\n      dup5\n      keccak256\n      swap1\n      swap2\n      mstore\n      swap1\n      dup3\n      mstore\n      swap1\n      keccak256\n      sload\n      0xff\n      and\n      dup2\n      jump\n    tag_37:\n      mload(0x40)\n        /* \"#utility.yul\":1366:1380   */\n      swap1\n      iszero\n        /* \"#utility.yul\":1359:1381   */\n      iszero\n        /* \"#utility.yul\":1341:1382   */\n      dup2\n      mstore\n        /* \"#utility.yul\":1329:1331   */\n      0x20\n        /* \"#utility.yul\":1314:1332   */\n      add\n        /* \"contracts/NFTMarketplacePart2.sol\":323:392  mapping(address => mapping(address => bool)) public operatorApprovals */\n      tag_31\n        /* \"#utility.yul\":1201:1388   */\n      jump\n        /* \"contracts/NFTMarketplacePart2.sol\":191:213  uint256 public saleFee */\n    tag_6:\n      tag_43\n      sload(0x08)\n      dup2\n      jump\n    tag_43:\n      mload(0x40)\n        /* \"#utility.yul\":1539:1564   */\n      swap1\n      dup2\n      mstore\n        /* \"#utility.yul\":1527:1529   */\n      0x20\n        /* \"#utility.yul\":1512:1530   */\n      add\n        /* \"contracts/NFTMarketplacePart2.sol\":191:213  uint256 public saleFee */\n      tag_31\n        /* \"#utility.yul\":1393:1570   */\n      jump\n        /* \"contracts/NFTMarketplacePart1.sol\":895:921  uint256 public totalSupply */\n    tag_7:\n      tag_43\n      sload(0x04)\n      dup2\n      jump\n        /* \"contracts/NFTMarketplacePart1.sol\":972:1018  mapping(address => uint256[]) public ownedNFTs */\n    tag_8:\n      tag_43\n      tag_51\n      calldatasize\n      0x04\n      tag_35\n      jump\t// in\n    tag_51:\n      tag_52\n      jump\t// in\n        /* \"contracts/NFTMarketplacePart2.sol\":2024:2405  function transferFrom(address from, address to, uint256 tokenId) public {... */\n    tag_9:\n      tag_33\n      tag_55\n      calldatasize\n      0x04\n      tag_56\n      jump\t// in\n    tag_55:\n      tag_57\n      jump\t// in\n        /* \"contracts/NFTMarketplacePart1.sol\":930:965  mapping(uint256 => NFT) public nfts */\n    tag_10:\n      tag_58\n      tag_59\n      calldatasize\n      0x04\n      tag_29\n      jump\t// in\n    tag_59:\n      tag_60\n      jump\t// in\n    tag_58:\n      mload(0x40)\n      tag_31\n      swap4\n      swap3\n      swap2\n      swap1\n      tag_62\n      jump\t// in\n        /* \"contracts/NFTMarketplacePart1.sol\":776:794  address public dao */\n    tag_11:\n      sload(0x00)\n      tag_27\n      swap1\n      sub(shl(0xa0, 0x01), 0x01)\n      and\n      dup2\n      jump\n        /* \"contracts/NFTMarketplacePart2.sol\":272:316  mapping(uint256 => address) public approvals */\n    tag_12:\n      tag_27\n      tag_67\n      calldatasize\n      0x04\n      tag_29\n      jump\t// in\n    tag_67:\n      mstore(0x20, 0x0a)\n      0x00\n      swap1\n      dup2\n      mstore\n      0x40\n      swap1\n      keccak256\n      sload\n      sub(shl(0xa0, 0x01), 0x01)\n      and\n      dup2\n      jump\n        /* \"contracts/NFTMarketplacePart2.sol\":1250:1359  function ownerOf(uint256 tokenId) public view returns (address) {... */\n    tag_13:\n      tag_27\n      tag_71\n      calldatasize\n      0x04\n      tag_29\n      jump\t// in\n    tag_71:\n        /* \"contracts/NFTMarketplacePart2.sol\":1305:1312  address */\n      0x00\n        /* \"contracts/NFTMarketplacePart2.sol\":1332:1345  nfts[tokenId] */\n      swap1\n      dup2\n      mstore\n        /* \"contracts/NFTMarketplacePart2.sol\":1332:1336  nfts */\n      0x05\n        /* \"contracts/NFTMarketplacePart2.sol\":1332:1345  nfts[tokenId] */\n      0x20\n      mstore\n      0x40\n      swap1\n      keccak256\n        /* \"contracts/NFTMarketplacePart2.sol\":1332:1351  nfts[tokenId].owner */\n      sload\n      sub(shl(0xa0, 0x01), 0x01)\n      and\n      swap1\n        /* \"contracts/NFTMarketplacePart2.sol\":1250:1359  function ownerOf(uint256 tokenId) public view returns (address) {... */\n      jump\n        /* \"contracts/NFTMarketplacePart2.sol\":159:184  uint256 public listingFee */\n    tag_14:\n      tag_43\n      sload(0x07)\n      dup2\n      jump\n        /* \"contracts/NFTMarketplacePart2.sol\":1127:1242  function balanceOf(address owner) external view returns (uint256) {... */\n    tag_15:\n      tag_43\n      tag_78\n      calldatasize\n      0x04\n      tag_79\n      jump\t// in\n    tag_78:\n      sub(shl(0xa0, 0x01), 0x01)\n        /* \"contracts/NFTMarketplacePart2.sol\":1211:1227  ownedNFTs[owner] */\n      and\n        /* \"contracts/NFTMarketplacePart2.sol\":1184:1191  uint256 */\n      0x00\n        /* \"contracts/NFTMarketplacePart2.sol\":1211:1227  ownedNFTs[owner] */\n      swap1\n      dup2\n      mstore\n        /* \"contracts/NFTMarketplacePart2.sol\":1211:1220  ownedNFTs */\n      0x06\n        /* \"contracts/NFTMarketplacePart2.sol\":1211:1227  ownedNFTs[owner] */\n      0x20\n      mstore\n      0x40\n      swap1\n      keccak256\n        /* \"contracts/NFTMarketplacePart2.sol\":1211:1234  ownedNFTs[owner].length */\n      sload\n      swap1\n        /* \"contracts/NFTMarketplacePart2.sol\":1127:1242  function balanceOf(address owner) external view returns (uint256) {... */\n      jump\n        /* \"contracts/NFTMarketplacePart1.sol\":832:858  address public burnAddress */\n    tag_16:\n      sload(0x02)\n      tag_27\n      swap1\n      sub(shl(0xa0, 0x01), 0x01)\n      and\n      dup2\n      jump\n        /* \"contracts/NFTMarketplacePart1.sol\":801:825  address public devWallet */\n    tag_17:\n      sload(0x01)\n      tag_27\n      swap1\n      sub(shl(0xa0, 0x01), 0x01)\n      and\n      dup2\n      jump\n        /* \"contracts/NFTMarketplacePart2.sol\":1662:1862  function setApprovalForAll(address operator, bool approved) external {... */\n    tag_18:\n      tag_33\n      tag_89\n      calldatasize\n      0x04\n      tag_90\n      jump\t// in\n    tag_89:\n      tag_91\n      jump\t// in\n        /* \"contracts/NFTMarketplacePart1.sol\":865:888  IERC20 public rhemToken */\n    tag_19:\n      sload(0x03)\n      tag_27\n      swap1\n      sub(shl(0xa0, 0x01), 0x01)\n      and\n      dup2\n      jump\n        /* \"contracts/NFTMarketplacePart2.sol\":921:1119  function tokenURI(uint256 tokenId) external view returns (string memory) {... */\n    tag_20:\n      tag_96\n      tag_97\n      calldatasize\n      0x04\n      tag_29\n      jump\t// in\n    tag_97:\n      tag_98\n      jump\t// in\n    tag_96:\n      mload(0x40)\n      tag_31\n      swap2\n      swap1\n      tag_100\n      jump\t// in\n        /* \"contracts/NFTMarketplacePart2.sol\":593:913  function mint(string memory _uri) external onlyDAO returns (uint256) {... */\n    tag_21:\n      tag_43\n      tag_102\n      calldatasize\n      0x04\n      tag_103\n      jump\t// in\n    tag_102:\n      tag_104\n      jump\t// in\n        /* \"contracts/NFTMarketplacePart2.sol\":222:265  mapping(uint256 => Listing) public listings */\n    tag_22:\n      tag_106\n      tag_107\n      calldatasize\n      0x04\n      tag_29\n      jump\t// in\n    tag_107:\n      mstore(0x20, 0x09)\n      0x00\n      swap1\n      dup2\n      mstore\n      0x40\n      swap1\n      keccak256\n      dup1\n      sload\n      0x01\n      swap1\n      swap2\n      add\n      sload\n      sub(shl(0xa0, 0x01), 0x01)\n      dup2\n      and\n      swap1\n      shl(0xa0, 0x01)\n      swap1\n      div\n      0xff\n      and\n      dup4\n      jump\n    tag_106:\n      0x40\n      dup1\n      mload\n        /* \"#utility.yul\":4918:4943   */\n      swap4\n      dup5\n      mstore\n      sub(shl(0xa0, 0x01), 0x01)\n        /* \"#utility.yul\":4979:5011   */\n      swap1\n      swap3\n      and\n        /* \"#utility.yul\":4974:4976   */\n      0x20\n        /* \"#utility.yul\":4959:4977   */\n      dup5\n      add\n        /* \"#utility.yul\":4952:5012   */\n      mstore\n        /* \"#utility.yul\":5055:5069   */\n      iszero\n        /* \"#utility.yul\":5048:5070   */\n      iszero\n        /* \"#utility.yul\":5028:5046   */\n      swap1\n      dup3\n      add\n        /* \"#utility.yul\":5021:5071   */\n      mstore\n        /* \"#utility.yul\":4906:4908   */\n      0x60\n        /* \"#utility.yul\":4891:4909   */\n      add\n        /* \"contracts/NFTMarketplacePart2.sol\":222:265  mapping(uint256 => Listing) public listings */\n      tag_31\n        /* \"#utility.yul\":4722:5077   */\n      jump\n        /* \"contracts/NFTMarketplacePart2.sol\":1870:2016  function isApprovedForAll(address owner, address operator) public view returns (bool) {... */\n    tag_23:\n      tag_37\n      tag_112\n      calldatasize\n      0x04\n      tag_39\n      jump\t// in\n    tag_112:\n      tag_113\n      jump\t// in\n        /* \"contracts/NFTMarketplacePart2.sol\":1367:1532  function approve(address to, uint256 tokenId) public onlyOwnerOf(tokenId) {... */\n    tag_36:\n        /* \"contracts/NFTMarketplacePart1.sol\":1734:1747  nfts[tokenId] */\n      0x00\n      dup2\n      dup2\n      mstore\n        /* \"contracts/NFTMarketplacePart1.sol\":1734:1738  nfts */\n      0x05\n        /* \"contracts/NFTMarketplacePart1.sol\":1734:1747  nfts[tokenId] */\n      0x20\n      mstore\n      0x40\n      swap1\n      keccak256\n        /* \"contracts/NFTMarketplacePart1.sol\":1734:1753  nfts[tokenId].owner */\n      sload\n        /* \"contracts/NFTMarketplacePart2.sol\":1432:1439  tokenId */\n      dup2\n      swap1\n      sub(shl(0xa0, 0x01), 0x01)\n        /* \"contracts/NFTMarketplacePart1.sol\":1734:1753  nfts[tokenId].owner */\n      and\n        /* \"contracts/NFTMarketplacePart1.sol\":1757:1767  msg.sender */\n      caller\n        /* \"contracts/NFTMarketplacePart1.sol\":1734:1767  nfts[tokenId].owner == msg.sender */\n      eq\n        /* \"contracts/NFTMarketplacePart1.sol\":1726:1785  require(nfts[tokenId].owner == msg.sender, \"Not the owner\") */\n      tag_117\n      jumpi\n      mload(0x40)\n      shl(0xe5, 0x461bcd)\n      dup2\n      mstore\n        /* \"#utility.yul\":5284:5286   */\n      0x20\n        /* \"contracts/NFTMarketplacePart1.sol\":1726:1785  require(nfts[tokenId].owner == msg.sender, \"Not the owner\") */\n      0x04\n      dup3\n      add\n        /* \"#utility.yul\":5266:5287   */\n      mstore\n        /* \"#utility.yul\":5323:5325   */\n      0x0d\n        /* \"#utility.yul\":5303:5321   */\n      0x24\n      dup3\n      add\n        /* \"#utility.yul\":5296:5326   */\n      mstore\n      shl(0x99, 0x2737ba103a34329037bbb732b9)\n        /* \"#utility.yul\":5342:5360   */\n      0x44\n      dup3\n      add\n        /* \"#utility.yul\":5335:5378   */\n      mstore\n        /* \"#utility.yul\":5395:5413   */\n      0x64\n      add\n        /* \"contracts/NFTMarketplacePart1.sol\":1726:1785  require(nfts[tokenId].owner == msg.sender, \"Not the owner\") */\n    tag_118:\n      mload(0x40)\n      dup1\n      swap2\n      sub\n      swap1\n      revert\n    tag_117:\n        /* \"contracts/NFTMarketplacePart2.sol\":1452:1470  approvals[tokenId] */\n      0x00\n      dup3\n      dup2\n      mstore\n        /* \"contracts/NFTMarketplacePart2.sol\":1452:1461  approvals */\n      0x0a\n        /* \"contracts/NFTMarketplacePart2.sol\":1452:1470  approvals[tokenId] */\n      0x20\n      swap1\n      dup2\n      mstore\n      0x40\n      swap2\n      dup3\n      swap1\n      keccak256\n        /* \"contracts/NFTMarketplacePart2.sol\":1452:1475  approvals[tokenId] = to */\n      dup1\n      sload\n      not(sub(shl(0xa0, 0x01), 0x01))\n      and\n      sub(shl(0xa0, 0x01), 0x01)\n      dup8\n      and\n      swap1\n      dup2\n      or\n      swap1\n      swap2\n      sstore\n        /* \"contracts/NFTMarketplacePart2.sol\":1491:1524  Approval(msg.sender, to, tokenId) */\n      swap2\n      mload\n        /* \"#utility.yul\":1539:1564   */\n      dup5\n      dup2\n      mstore\n        /* \"contracts/NFTMarketplacePart2.sol\":1500:1510  msg.sender */\n      caller\n      swap2\n        /* \"contracts/NFTMarketplacePart2.sol\":1491:1524  Approval(msg.sender, to, tokenId) */\n      0x8c5be1e5ebec7d5bd14f71427d1e84f3dd0314c0f7b2291e5b200ac8c7c3b925\n      swap2\n        /* \"#utility.yul\":1512:1530   */\n      add\n        /* \"contracts/NFTMarketplacePart2.sol\":1491:1524  Approval(msg.sender, to, tokenId) */\n      mload(0x40)\n      dup1\n      swap2\n      sub\n      swap1\n      log3\n        /* \"contracts/NFTMarketplacePart2.sol\":1367:1532  function approve(address to, uint256 tokenId) public onlyOwnerOf(tokenId) {... */\n      pop\n      pop\n      pop\n      jump\t// out\n        /* \"contracts/NFTMarketplacePart1.sol\":972:1018  mapping(address => uint256[]) public ownedNFTs */\n    tag_52:\n      mstore(0x20, 0x06)\n      dup2\n      0x00\n      mstore\n      keccak256(0x00, 0x40)\n      dup2\n      dup2\n      sload\n      dup2\n      lt\n      tag_122\n      jumpi\n      0x00\n      dup1\n      revert\n    tag_122:\n      swap1\n      0x00\n      mstore\n      keccak256(0x00, 0x20)\n      add\n      0x00\n      swap2\n      pop\n      swap2\n      pop\n      pop\n      sload\n      dup2\n      jump\t// out\n        /* \"contracts/NFTMarketplacePart2.sol\":2024:2405  function transferFrom(address from, address to, uint256 tokenId) public {... */\n    tag_57:\n        /* \"contracts/NFTMarketplacePart2.sol\":2129:2139  msg.sender */\n      caller\n      sub(shl(0xa0, 0x01), 0x01)\n        /* \"contracts/NFTMarketplacePart2.sol\":2129:2147  msg.sender == from */\n      dup5\n      and\n      eq\n      dup1\n        /* \"contracts/NFTMarketplacePart2.sol\":2129:2196  msg.sender == from ||... */\n      tag_125\n      jumpi\n      pop\n        /* \"contracts/NFTMarketplacePart2.sol\":2164:2182  approvals[tokenId] */\n      0x00\n      dup2\n      dup2\n      mstore\n        /* \"contracts/NFTMarketplacePart2.sol\":2164:2173  approvals */\n      0x0a\n        /* \"contracts/NFTMarketplacePart2.sol\":2164:2182  approvals[tokenId] */\n      0x20\n      mstore\n      0x40\n      swap1\n      keccak256\n      sload\n      sub(shl(0xa0, 0x01), 0x01)\n      and\n        /* \"contracts/NFTMarketplacePart2.sol\":2186:2196  msg.sender */\n      caller\n        /* \"contracts/NFTMarketplacePart2.sol\":2164:2196  approvals[tokenId] == msg.sender */\n      eq\n        /* \"contracts/NFTMarketplacePart2.sol\":2129:2196  msg.sender == from ||... */\n    tag_125:\n        /* \"contracts/NFTMarketplacePart2.sol\":2129:2247  msg.sender == from ||... */\n      dup1\n      tag_127\n      jumpi\n      pop\n        /* \"contracts/NFTMarketplacePart2.sol\":2213:2247  isApprovedForAll(from, msg.sender) */\n      tag_127\n        /* \"contracts/NFTMarketplacePart2.sol\":2230:2234  from */\n      dup4\n        /* \"contracts/NFTMarketplacePart2.sol\":2236:2246  msg.sender */\n      caller\n        /* \"contracts/NFTMarketplacePart2.sol\":2213:2229  isApprovedForAll */\n      tag_113\n        /* \"contracts/NFTMarketplacePart2.sol\":2213:2247  isApprovedForAll(from, msg.sender) */\n      jump\t// in\n    tag_127:\n        /* \"contracts/NFTMarketplacePart2.sol\":2107:2289  require(... */\n      tag_128\n      jumpi\n      mload(0x40)\n      shl(0xe5, 0x461bcd)\n      dup2\n      mstore\n        /* \"#utility.yul\":5626:5628   */\n      0x20\n        /* \"contracts/NFTMarketplacePart2.sol\":2107:2289  require(... */\n      0x04\n      dup3\n      add\n        /* \"#utility.yul\":5608:5629   */\n      mstore\n        /* \"#utility.yul\":5665:5667   */\n      0x0e\n        /* \"#utility.yul\":5645:5663   */\n      0x24\n      dup3\n      add\n        /* \"#utility.yul\":5638:5668   */\n      mstore\n      shl(0x92, 0x139bdd08185d5d1a1bdc9a5e9959)\n        /* \"#utility.yul\":5684:5702   */\n      0x44\n      dup3\n      add\n        /* \"#utility.yul\":5677:5721   */\n      mstore\n        /* \"#utility.yul\":5738:5756   */\n      0x64\n      add\n        /* \"contracts/NFTMarketplacePart2.sol\":2107:2289  require(... */\n      tag_118\n        /* \"#utility.yul\":5424:5762   */\n      jump\n        /* \"contracts/NFTMarketplacePart2.sol\":2107:2289  require(... */\n    tag_128:\n        /* \"contracts/NFTMarketplacePart2.sol\":2308:2321  nfts[tokenId] */\n      0x00\n      dup2\n      dup2\n      mstore\n        /* \"contracts/NFTMarketplacePart2.sol\":2308:2312  nfts */\n      0x05\n        /* \"contracts/NFTMarketplacePart2.sol\":2308:2321  nfts[tokenId] */\n      0x20\n      mstore\n      0x40\n      swap1\n      keccak256\n        /* \"contracts/NFTMarketplacePart2.sol\":2308:2327  nfts[tokenId].owner */\n      sload\n      sub(shl(0xa0, 0x01), 0x01)\n        /* \"contracts/NFTMarketplacePart2.sol\":2308:2335  nfts[tokenId].owner == from */\n      dup5\n      dup2\n      and\n        /* \"contracts/NFTMarketplacePart2.sol\":2308:2327  nfts[tokenId].owner */\n      swap2\n      and\n        /* \"contracts/NFTMarketplacePart2.sol\":2308:2335  nfts[tokenId].owner == from */\n      eq\n        /* \"contracts/NFTMarketplacePart2.sol\":2300:2353  require(nfts[tokenId].owner == from, \"Invalid owner\") */\n      tag_131\n      jumpi\n      mload(0x40)\n      shl(0xe5, 0x461bcd)\n      dup2\n      mstore\n        /* \"#utility.yul\":5969:5971   */\n      0x20\n        /* \"contracts/NFTMarketplacePart2.sol\":2300:2353  require(nfts[tokenId].owner == from, \"Invalid owner\") */\n      0x04\n      dup3\n      add\n        /* \"#utility.yul\":5951:5972   */\n      mstore\n        /* \"#utility.yul\":6008:6010   */\n      0x0d\n        /* \"#utility.yul\":5988:6006   */\n      0x24\n      dup3\n      add\n        /* \"#utility.yul\":5981:6011   */\n      mstore\n      shl(0x99, 0x24b73b30b634b21037bbb732b9)\n        /* \"#utility.yul\":6027:6045   */\n      0x44\n      dup3\n      add\n        /* \"#utility.yul\":6020:6063   */\n      mstore\n        /* \"#utility.yul\":6080:6098   */\n      0x64\n      add\n        /* \"contracts/NFTMarketplacePart2.sol\":2300:2353  require(nfts[tokenId].owner == from, \"Invalid owner\") */\n      tag_118\n        /* \"#utility.yul\":5767:6104   */\n      jump\n        /* \"contracts/NFTMarketplacePart2.sol\":2300:2353  require(nfts[tokenId].owner == from, \"Invalid owner\") */\n    tag_131:\n        /* \"contracts/NFTMarketplacePart2.sol\":2366:2397  _transferNFT(from, to, tokenId) */\n      tag_134\n        /* \"contracts/NFTMarketplacePart2.sol\":2379:2383  from */\n      dup4\n        /* \"contracts/NFTMarketplacePart2.sol\":2385:2387  to */\n      dup4\n        /* \"contracts/NFTMarketplacePart2.sol\":2389:2396  tokenId */\n      dup4\n        /* \"contracts/NFTMarketplacePart2.sol\":2366:2378  _transferNFT */\n      tag_135\n        /* \"contracts/NFTMarketplacePart2.sol\":2366:2397  _transferNFT(from, to, tokenId) */\n      jump\t// in\n    tag_134:\n        /* \"contracts/NFTMarketplacePart2.sol\":2024:2405  function transferFrom(address from, address to, uint256 tokenId) public {... */\n      pop\n      pop\n      pop\n      jump\t// out\n        /* \"contracts/NFTMarketplacePart1.sol\":930:965  mapping(uint256 => NFT) public nfts */\n    tag_60:\n      mstore(0x20, 0x05)\n      0x00\n      swap1\n      dup2\n      mstore\n      0x40\n      swap1\n      keccak256\n      dup1\n      sload\n      0x01\n      dup3\n      add\n      dup1\n      sload\n      sub(shl(0xa0, 0x01), 0x01)\n      swap1\n      swap3\n      and\n      swap3\n      swap2\n      tag_136\n      swap1\n      tag_137\n      jump\t// in\n    tag_136:\n      dup1\n      0x1f\n      add\n      0x20\n      dup1\n      swap2\n      div\n      mul\n      0x20\n      add\n      mload(0x40)\n      swap1\n      dup2\n      add\n      0x40\n      mstore\n      dup1\n      swap3\n      swap2\n      swap1\n      dup2\n      dup2\n      mstore\n      0x20\n      add\n      dup3\n      dup1\n      sload\n      tag_138\n      swap1\n      tag_137\n      jump\t// in\n    tag_138:\n      dup1\n      iszero\n      tag_139\n      jumpi\n      dup1\n      0x1f\n      lt\n      tag_140\n      jumpi\n      0x0100\n      dup1\n      dup4\n      sload\n      div\n      mul\n      dup4\n      mstore\n      swap2\n      0x20\n      add\n      swap2\n      jump(tag_139)\n    tag_140:\n      dup3\n      add\n      swap2\n      swap1\n      0x00\n      mstore\n      keccak256(0x00, 0x20)\n      swap1\n    tag_141:\n      dup2\n      sload\n      dup2\n      mstore\n      swap1\n      0x01\n      add\n      swap1\n      0x20\n      add\n      dup1\n      dup4\n      gt\n      tag_141\n      jumpi\n      dup3\n      swap1\n      sub\n      0x1f\n      and\n      dup3\n      add\n      swap2\n    tag_139:\n      pop\n      pop\n      pop\n      0x02\n      swap1\n      swap4\n      add\n      sload\n      swap2\n      swap3\n      pop\n      pop\n      0xff\n      and\n      dup4\n      jump\t// out\n        /* \"contracts/NFTMarketplacePart2.sol\":1662:1862  function setApprovalForAll(address operator, bool approved) external {... */\n    tag_91:\n        /* \"contracts/NFTMarketplacePart2.sol\":1760:1770  msg.sender */\n      caller\n        /* \"contracts/NFTMarketplacePart2.sol\":1742:1771  operatorApprovals[msg.sender] */\n      0x00\n      dup2\n      dup2\n      mstore\n        /* \"contracts/NFTMarketplacePart2.sol\":1742:1759  operatorApprovals */\n      0x0b\n        /* \"contracts/NFTMarketplacePart2.sol\":1742:1771  operatorApprovals[msg.sender] */\n      0x20\n      swap1\n      dup2\n      mstore\n      0x40\n      dup1\n      dup4\n      keccak256\n      sub(shl(0xa0, 0x01), 0x01)\n        /* \"contracts/NFTMarketplacePart2.sol\":1742:1781  operatorApprovals[msg.sender][operator] */\n      dup8\n      and\n      dup1\n      dup6\n      mstore\n      swap1\n      dup4\n      mstore\n      swap3\n      dup2\n      swap1\n      keccak256\n        /* \"contracts/NFTMarketplacePart2.sol\":1742:1792  operatorApprovals[msg.sender][operator] = approved */\n      dup1\n      sload\n      not(0xff)\n      and\n      dup7\n      iszero\n      iszero\n      swap1\n      dup2\n      or\n      swap1\n      swap2\n      sstore\n        /* \"contracts/NFTMarketplacePart2.sol\":1808:1854  ApprovalForAll(msg.sender, operator, approved) */\n      swap1\n      mload\n        /* \"#utility.yul\":1341:1382   */\n      swap1\n      dup2\n      mstore\n        /* \"contracts/NFTMarketplacePart2.sol\":1742:1781  operatorApprovals[msg.sender][operator] */\n      swap2\n      swap3\n        /* \"contracts/NFTMarketplacePart2.sol\":1760:1770  msg.sender */\n      swap2\n        /* \"contracts/NFTMarketplacePart2.sol\":1808:1854  ApprovalForAll(msg.sender, operator, approved) */\n      0x17307eab39ab6107e8899845ad3d59bd9653f200f220920489ca2b5937696c31\n      swap2\n        /* \"#utility.yul\":1314:1332   */\n      add\n        /* \"contracts/NFTMarketplacePart2.sol\":1808:1854  ApprovalForAll(msg.sender, operator, approved) */\n      mload(0x40)\n      dup1\n      swap2\n      sub\n      swap1\n      log3\n        /* \"contracts/NFTMarketplacePart2.sol\":1662:1862  function setApprovalForAll(address operator, bool approved) external {... */\n      pop\n      pop\n      jump\t// out\n        /* \"contracts/NFTMarketplacePart2.sol\":921:1119  function tokenURI(uint256 tokenId) external view returns (string memory) {... */\n    tag_98:\n        /* \"contracts/NFTMarketplacePart2.sol\":1044:1045  0 */\n      0x00\n        /* \"contracts/NFTMarketplacePart2.sol\":1013:1026  nfts[tokenId] */\n      dup2\n      dup2\n      mstore\n        /* \"contracts/NFTMarketplacePart2.sol\":1013:1017  nfts */\n      0x05\n        /* \"contracts/NFTMarketplacePart2.sol\":1013:1026  nfts[tokenId] */\n      0x20\n      mstore\n      0x40\n      swap1\n      keccak256\n        /* \"contracts/NFTMarketplacePart2.sol\":1013:1032  nfts[tokenId].owner */\n      sload\n        /* \"contracts/NFTMarketplacePart2.sol\":979:992  string memory */\n      0x60\n      swap1\n      sub(shl(0xa0, 0x01), 0x01)\n        /* \"contracts/NFTMarketplacePart2.sol\":1013:1032  nfts[tokenId].owner */\n      and\n        /* \"contracts/NFTMarketplacePart2.sol\":1005:1071  require(nfts[tokenId].owner != address(0), \"Token does not exist\") */\n      tag_147\n      jumpi\n      mload(0x40)\n      shl(0xe5, 0x461bcd)\n      dup2\n      mstore\n        /* \"#utility.yul\":6696:6698   */\n      0x20\n        /* \"contracts/NFTMarketplacePart2.sol\":1005:1071  require(nfts[tokenId].owner != address(0), \"Token does not exist\") */\n      0x04\n      dup3\n      add\n        /* \"#utility.yul\":6678:6699   */\n      mstore\n        /* \"#utility.yul\":6735:6737   */\n      0x14\n        /* \"#utility.yul\":6715:6733   */\n      0x24\n      dup3\n      add\n        /* \"#utility.yul\":6708:6738   */\n      mstore\n      shl(0x62, 0x151bdad95b88191bd95cc81b9bdd08195e1a5cdd)\n        /* \"#utility.yul\":6754:6772   */\n      0x44\n      dup3\n      add\n        /* \"#utility.yul\":6747:6797   */\n      mstore\n        /* \"#utility.yul\":6814:6832   */\n      0x64\n      add\n        /* \"contracts/NFTMarketplacePart2.sol\":1005:1071  require(nfts[tokenId].owner != address(0), \"Token does not exist\") */\n      tag_118\n        /* \"#utility.yul\":6494:6838   */\n      jump\n        /* \"contracts/NFTMarketplacePart2.sol\":1005:1071  require(nfts[tokenId].owner != address(0), \"Token does not exist\") */\n    tag_147:\n        /* \"contracts/NFTMarketplacePart2.sol\":1089:1102  nfts[tokenId] */\n      0x00\n      dup3\n      dup2\n      mstore\n        /* \"contracts/NFTMarketplacePart2.sol\":1089:1093  nfts */\n      0x05\n        /* \"contracts/NFTMarketplacePart2.sol\":1089:1102  nfts[tokenId] */\n      0x20\n      mstore\n      0x40\n      swap1\n      keccak256\n        /* \"contracts/NFTMarketplacePart2.sol\":1089:1111  nfts[tokenId].tokenURI */\n      0x01\n      add\n        /* \"contracts/NFTMarketplacePart2.sol\":1082:1111  return nfts[tokenId].tokenURI */\n      dup1\n      sload\n      tag_150\n      swap1\n      tag_137\n      jump\t// in\n    tag_150:\n      dup1\n      0x1f\n      add\n      0x20\n      dup1\n      swap2\n      div\n      mul\n      0x20\n      add\n      mload(0x40)\n      swap1\n      dup2\n      add\n      0x40\n      mstore\n      dup1\n      swap3\n      swap2\n      swap1\n      dup2\n      dup2\n      mstore\n      0x20\n      add\n      dup3\n      dup1\n      sload\n      tag_151\n      swap1\n      tag_137\n      jump\t// in\n    tag_151:\n      dup1\n      iszero\n      tag_152\n      jumpi\n      dup1\n      0x1f\n      lt\n      tag_153\n      jumpi\n      0x0100\n      dup1\n      dup4\n      sload\n      div\n      mul\n      dup4\n      mstore\n      swap2\n      0x20\n      add\n      swap2\n      jump(tag_152)\n    tag_153:\n      dup3\n      add\n      swap2\n      swap1\n      0x00\n      mstore\n      keccak256(0x00, 0x20)\n      swap1\n    tag_154:\n      dup2\n      sload\n      dup2\n      mstore\n      swap1\n      0x01\n      add\n      swap1\n      0x20\n      add\n      dup1\n      dup4\n      gt\n      tag_154\n      jumpi\n      dup3\n      swap1\n      sub\n      0x1f\n      and\n      dup3\n      add\n      swap2\n    tag_152:\n      pop\n      pop\n      pop\n      pop\n      pop\n      swap1\n      pop\n        /* \"contracts/NFTMarketplacePart2.sol\":921:1119  function tokenURI(uint256 tokenId) external view returns (string memory) {... */\n      swap2\n      swap1\n      pop\n      jump\t// out\n        /* \"contracts/NFTMarketplacePart2.sol\":593:913  function mint(string memory _uri) external onlyDAO returns (uint256) {... */\n    tag_104:\n        /* \"contracts/NFTMarketplacePart2.sol\":653:660  uint256 */\n      0x00\n        /* \"contracts/NFTMarketplacePart1.sol\":1627:1630  dao */\n      dup1\n      sload\n      sub(shl(0xa0, 0x01), 0x01)\n      and\n        /* \"contracts/NFTMarketplacePart1.sol\":1613:1623  msg.sender */\n      caller\n        /* \"contracts/NFTMarketplacePart1.sol\":1613:1630  msg.sender == dao */\n      eq\n        /* \"contracts/NFTMarketplacePart1.sol\":1605:1649  require(msg.sender == dao, \"Not authorized\") */\n      tag_156\n      jumpi\n      mload(0x40)\n      shl(0xe5, 0x461bcd)\n      dup2\n      mstore\n        /* \"#utility.yul\":5626:5628   */\n      0x20\n        /* \"contracts/NFTMarketplacePart1.sol\":1605:1649  require(msg.sender == dao, \"Not authorized\") */\n      0x04\n      dup3\n      add\n        /* \"#utility.yul\":5608:5629   */\n      mstore\n        /* \"#utility.yul\":5665:5667   */\n      0x0e\n        /* \"#utility.yul\":5645:5663   */\n      0x24\n      dup3\n      add\n        /* \"#utility.yul\":5638:5668   */\n      mstore\n      shl(0x92, 0x139bdd08185d5d1a1bdc9a5e9959)\n        /* \"#utility.yul\":5684:5702   */\n      0x44\n      dup3\n      add\n        /* \"#utility.yul\":5677:5721   */\n      mstore\n        /* \"#utility.yul\":5738:5756   */\n      0x64\n      add\n        /* \"contracts/NFTMarketplacePart1.sol\":1605:1649  require(msg.sender == dao, \"Not authorized\") */\n      tag_118\n        /* \"#utility.yul\":5424:5762   */\n      jump\n        /* \"contracts/NFTMarketplacePart1.sol\":1605:1649  require(msg.sender == dao, \"Not authorized\") */\n    tag_156:\n        /* \"contracts/NFTMarketplacePart2.sol\":673:684  totalSupply */\n      0x04\n        /* \"contracts/NFTMarketplacePart2.sol\":673:686  totalSupply++ */\n      dup1\n      sload\n      swap1\n        /* \"contracts/NFTMarketplacePart2.sol\":673:684  totalSupply */\n      0x00\n        /* \"contracts/NFTMarketplacePart2.sol\":673:686  totalSupply++ */\n      tag_159\n      dup4\n      tag_160\n      jump\t// in\n    tag_159:\n      swap1\n      swap2\n      sstore\n      pop\n      pop\n        /* \"contracts/NFTMarketplacePart2.sol\":715:726  totalSupply */\n      sload(0x04)\n        /* \"contracts/NFTMarketplacePart2.sol\":755:783  NFT(msg.sender, _uri, false) */\n      0x40\n      dup1\n      mload\n      0x60\n      dup2\n      add\n      dup3\n      mstore\n        /* \"contracts/NFTMarketplacePart2.sol\":759:769  msg.sender */\n      caller\n        /* \"contracts/NFTMarketplacePart2.sol\":755:783  NFT(msg.sender, _uri, false) */\n      dup2\n      mstore\n      0x20\n      dup1\n      dup3\n      add\n      dup7\n      dup2\n      mstore\n      0x00\n      dup4\n      dup6\n      add\n      dup2\n      swap1\n      mstore\n        /* \"contracts/NFTMarketplacePart2.sol\":739:752  nfts[tokenId] */\n      dup6\n      dup2\n      mstore\n        /* \"contracts/NFTMarketplacePart2.sol\":739:743  nfts */\n      0x05\n        /* \"contracts/NFTMarketplacePart2.sol\":739:752  nfts[tokenId] */\n      swap1\n      swap3\n      mstore\n      swap3\n      swap1\n      keccak256\n        /* \"contracts/NFTMarketplacePart2.sol\":739:783  nfts[tokenId] = NFT(msg.sender, _uri, false) */\n      dup2\n      mload\n      dup2\n      sload\n      not(sub(shl(0xa0, 0x01), 0x01))\n      and\n      sub(shl(0xa0, 0x01), 0x01)\n      swap1\n      swap2\n      and\n      or\n      dup2\n      sstore\n      swap2\n      mload\n        /* \"contracts/NFTMarketplacePart2.sol\":755:783  NFT(msg.sender, _uri, false) */\n      swap1\n      swap2\n        /* \"contracts/NFTMarketplacePart2.sol\":739:752  nfts[tokenId] */\n      swap1\n      0x01\n        /* \"contracts/NFTMarketplacePart2.sol\":739:783  nfts[tokenId] = NFT(msg.sender, _uri, false) */\n      dup3\n      add\n      swap1\n      tag_161\n      swap1\n      dup3\n      tag_162\n      jump\t// in\n    tag_161:\n      pop\n      0x40\n      swap2\n      dup3\n      add\n      mload\n      0x02\n      swap2\n      swap1\n      swap2\n      add\n      dup1\n      sload\n      not(0xff)\n      and\n      swap2\n      iszero\n      iszero\n      swap2\n      swap1\n      swap2\n      or\n      swap1\n      sstore\n        /* \"contracts/NFTMarketplacePart2.sol\":804:814  msg.sender */\n      caller\n      0x00\n        /* \"contracts/NFTMarketplacePart2.sol\":794:815  ownedNFTs[msg.sender] */\n      dup2\n      dup2\n      mstore\n        /* \"contracts/NFTMarketplacePart2.sol\":794:803  ownedNFTs */\n      0x06\n        /* \"contracts/NFTMarketplacePart2.sol\":794:815  ownedNFTs[msg.sender] */\n      0x20\n      swap1\n      dup2\n      mstore\n      dup4\n      dup3\n      keccak256\n        /* \"contracts/NFTMarketplacePart2.sol\":794:829  ownedNFTs[msg.sender].push(tokenId) */\n      dup1\n      sload\n      0x01\n      dup2\n      add\n      dup3\n      sstore\n      swap1\n      dup4\n      mstore\n      swap2\n      keccak256\n      add\n      dup4\n      swap1\n      sstore\n        /* \"contracts/NFTMarketplacePart2.sol\":847:880  Minted(msg.sender, tokenId, _uri) */\n      swap1\n      mload\n      0xe7cd4ce7f2a465edc730269a1305e8a48bad821e8fb7e152ec413829c01a53c4\n      swap1\n      tag_164\n      swap1\n        /* \"contracts/NFTMarketplacePart2.sol\":794:829  ownedNFTs[msg.sender].push(tokenId) */\n      dup5\n      swap1\n        /* \"contracts/NFTMarketplacePart2.sol\":875:879  _uri */\n      dup8\n      swap1\n        /* \"contracts/NFTMarketplacePart2.sol\":847:880  Minted(msg.sender, tokenId, _uri) */\n      tag_165\n      jump\t// in\n    tag_164:\n      mload(0x40)\n      dup1\n      swap2\n      sub\n      swap1\n      log2\n        /* \"contracts/NFTMarketplacePart2.sol\":898:905  tokenId */\n      swap1\n      pop\n        /* \"contracts/NFTMarketplacePart1.sol\":1660:1661  _ */\n    tag_158:\n        /* \"contracts/NFTMarketplacePart2.sol\":593:913  function mint(string memory _uri) external onlyDAO returns (uint256) {... */\n      swap2\n      swap1\n      pop\n      jump\t// out\n        /* \"contracts/NFTMarketplacePart2.sol\":1870:2016  function isApprovedForAll(address owner, address operator) public view returns (bool) {... */\n    tag_113:\n      sub(shl(0xa0, 0x01), 0x01)\n        /* \"contracts/NFTMarketplacePart2.sol\":1974:1998  operatorApprovals[owner] */\n      dup1\n      dup4\n      and\n        /* \"contracts/NFTMarketplacePart2.sol\":1950:1954  bool */\n      0x00\n        /* \"contracts/NFTMarketplacePart2.sol\":1974:1998  operatorApprovals[owner] */\n      swap1\n      dup2\n      mstore\n        /* \"contracts/NFTMarketplacePart2.sol\":1974:1991  operatorApprovals */\n      0x0b\n        /* \"contracts/NFTMarketplacePart2.sol\":1974:1998  operatorApprovals[owner] */\n      0x20\n      swap1\n      dup2\n      mstore\n      0x40\n      dup1\n      dup4\n      keccak256\n        /* \"contracts/NFTMarketplacePart2.sol\":1974:2008  operatorApprovals[owner][operator] */\n      swap4\n      dup6\n      and\n      dup4\n      mstore\n      swap3\n      swap1\n      mstore\n      keccak256\n      sload\n      0xff\n      and\n        /* \"contracts/NFTMarketplacePart2.sol\":1870:2016  function isApprovedForAll(address owner, address operator) public view returns (bool) {... */\n    tag_166:\n      swap3\n      swap2\n      pop\n      pop\n      jump\t// out\n        /* \"contracts/NFTMarketplacePart2.sol\":2413:2974  function _transferNFT(address from, address to, uint256 tokenId) internal {... */\n    tag_135:\n        /* \"contracts/NFTMarketplacePart2.sol\":2498:2511  nfts[tokenId] */\n      0x00\n      dup2\n      dup2\n      mstore\n        /* \"contracts/NFTMarketplacePart2.sol\":2498:2502  nfts */\n      0x05\n        /* \"contracts/NFTMarketplacePart2.sol\":2498:2511  nfts[tokenId] */\n      0x20\n      swap1\n      dup2\n      mstore\n      0x40\n      dup1\n      dup4\n      keccak256\n        /* \"contracts/NFTMarketplacePart2.sol\":2498:2522  nfts[tokenId].owner = to */\n      dup1\n      sload\n      not(sub(shl(0xa0, 0x01), 0x01))\n      and\n      sub(shl(0xa0, 0x01), 0x01)\n      dup8\n      dup2\n      and\n      swap2\n      swap1\n      swap2\n      or\n      swap1\n      swap2\n      sstore\n        /* \"contracts/NFTMarketplacePart2.sol\":2606:2621  ownedNFTs[from] */\n      dup7\n      and\n      dup4\n      mstore\n        /* \"contracts/NFTMarketplacePart2.sol\":2606:2615  ownedNFTs */\n      0x06\n        /* \"contracts/NFTMarketplacePart2.sol\":2606:2621  ownedNFTs[from] */\n      swap1\n      swap2\n      mstore\n      dup2\n      keccak256\n      swap1\n        /* \"contracts/NFTMarketplacePart2.sol\":2632:2867  for (uint256 i = 0; i < fromList.length; i++) {... */\n    tag_168:\n        /* \"contracts/NFTMarketplacePart2.sol\":2656:2671  fromList.length */\n      dup2\n      sload\n        /* \"contracts/NFTMarketplacePart2.sol\":2652:2671  i < fromList.length */\n      dup2\n      lt\n        /* \"contracts/NFTMarketplacePart2.sol\":2632:2867  for (uint256 i = 0; i < fromList.length; i++) {... */\n      iszero\n      tag_169\n      jumpi\n        /* \"contracts/NFTMarketplacePart2.sol\":2712:2719  tokenId */\n      dup3\n        /* \"contracts/NFTMarketplacePart2.sol\":2697:2705  fromList */\n      dup3\n        /* \"contracts/NFTMarketplacePart2.sol\":2706:2707  i */\n      dup3\n        /* \"contracts/NFTMarketplacePart2.sol\":2697:2708  fromList[i] */\n      dup2\n      sload\n      dup2\n      lt\n      tag_172\n      jumpi\n      tag_172\n      tag_173\n      jump\t// in\n    tag_172:\n      swap1\n      0x00\n      mstore\n      keccak256(0x00, 0x20)\n      add\n      sload\n        /* \"contracts/NFTMarketplacePart2.sol\":2697:2719  fromList[i] == tokenId */\n      sub\n        /* \"contracts/NFTMarketplacePart2.sol\":2693:2856  if (fromList[i] == tokenId) {... */\n      tag_175\n      jumpi\n        /* \"contracts/NFTMarketplacePart2.sol\":2763:2778  fromList.length */\n      dup2\n      sload\n        /* \"contracts/NFTMarketplacePart2.sol\":2754:2762  fromList */\n      dup3\n      swap1\n        /* \"contracts/NFTMarketplacePart2.sol\":2763:2782  fromList.length - 1 */\n      tag_176\n      swap1\n        /* \"contracts/NFTMarketplacePart2.sol\":2781:2782  1 */\n      0x01\n      swap1\n        /* \"contracts/NFTMarketplacePart2.sol\":2763:2782  fromList.length - 1 */\n      tag_177\n      jump\t// in\n    tag_176:\n        /* \"contracts/NFTMarketplacePart2.sol\":2754:2783  fromList[fromList.length - 1] */\n      dup2\n      sload\n      dup2\n      lt\n      tag_179\n      jumpi\n      tag_179\n      tag_173\n      jump\t// in\n    tag_179:\n      swap1\n      0x00\n      mstore\n      keccak256(0x00, 0x20)\n      add\n      sload\n        /* \"contracts/NFTMarketplacePart2.sol\":2740:2748  fromList */\n      dup3\n        /* \"contracts/NFTMarketplacePart2.sol\":2749:2750  i */\n      dup3\n        /* \"contracts/NFTMarketplacePart2.sol\":2740:2751  fromList[i] */\n      dup2\n      sload\n      dup2\n      lt\n      tag_182\n      jumpi\n      tag_182\n      tag_173\n      jump\t// in\n    tag_182:\n      swap1\n      0x00\n      mstore\n      keccak256(0x00, 0x20)\n      add\n        /* \"contracts/NFTMarketplacePart2.sol\":2740:2783  fromList[i] = fromList[fromList.length - 1] */\n      dup2\n      swap1\n      sstore\n      pop\n        /* \"contracts/NFTMarketplacePart2.sol\":2802:2810  fromList */\n      dup2\n        /* \"contracts/NFTMarketplacePart2.sol\":2802:2816  fromList.pop() */\n      dup1\n      sload\n      dup1\n      tag_185\n      jumpi\n      tag_185\n      tag_186\n      jump\t// in\n    tag_185:\n      0x01\n      swap1\n      sub\n      dup2\n      dup2\n      swap1\n      0x00\n      mstore\n      keccak256(0x00, 0x20)\n      add\n      0x00\n      swap1\n      sstore\n      swap1\n      sstore\n        /* \"contracts/NFTMarketplacePart2.sol\":2835:2840  break */\n      jump(tag_169)\n        /* \"contracts/NFTMarketplacePart2.sol\":2693:2856  if (fromList[i] == tokenId) {... */\n    tag_175:\n        /* \"contracts/NFTMarketplacePart2.sol\":2673:2676  i++ */\n      0x01\n      add\n        /* \"contracts/NFTMarketplacePart2.sol\":2632:2867  for (uint256 i = 0; i < fromList.length; i++) {... */\n      jump(tag_168)\n    tag_169:\n      pop\n      pop\n      sub(shl(0xa0, 0x01), 0x01)\n        /* \"contracts/NFTMarketplacePart2.sol\":2879:2892  ownedNFTs[to] */\n      swap1\n      swap2\n      and\n      0x00\n      swap1\n      dup2\n      mstore\n        /* \"contracts/NFTMarketplacePart2.sol\":2879:2888  ownedNFTs */\n      0x06\n        /* \"contracts/NFTMarketplacePart2.sol\":2879:2892  ownedNFTs[to] */\n      0x20\n      swap1\n      dup2\n      mstore\n      0x40\n      dup1\n      dup4\n      keccak256\n        /* \"contracts/NFTMarketplacePart2.sol\":2879:2906  ownedNFTs[to].push(tokenId) */\n      dup1\n      sload\n      0x01\n      dup2\n      add\n      dup3\n      sstore\n      swap1\n      dup5\n      mstore\n      dup3\n      dup5\n      keccak256\n      add\n      dup5\n      swap1\n      sstore\n        /* \"contracts/NFTMarketplacePart2.sol\":2917:2935  approvals[tokenId] */\n      swap3\n      dup3\n      mstore\n        /* \"contracts/NFTMarketplacePart2.sol\":2917:2926  approvals */\n      0x0a\n        /* \"contracts/NFTMarketplacePart2.sol\":2917:2935  approvals[tokenId] */\n      swap1\n      mstore\n      keccak256\n        /* \"contracts/NFTMarketplacePart2.sol\":2917:2948  approvals[tokenId] = address(0) */\n      dup1\n      sload\n      not(sub(shl(0xa0, 0x01), 0x01))\n      and\n      swap1\n      sstore\n      pop\n        /* \"contracts/NFTMarketplacePart2.sol\":2413:2974  function _transferNFT(address from, address to, uint256 tokenId) internal {... */\n      jump\t// out\n        /* \"#utility.yul\":14:240   */\n    tag_29:\n        /* \"#utility.yul\":73:79   */\n      0x00\n        /* \"#utility.yul\":126:128   */\n      0x20\n        /* \"#utility.yul\":114:123   */\n      dup3\n        /* \"#utility.yul\":105:112   */\n      dup5\n        /* \"#utility.yul\":101:124   */\n      sub\n        /* \"#utility.yul\":97:129   */\n      slt\n        /* \"#utility.yul\":94:146   */\n      iszero\n      tag_198\n      jumpi\n        /* \"#utility.yul\":142:143   */\n      0x00\n        /* \"#utility.yul\":139:140   */\n      0x00\n        /* \"#utility.yul\":132:144   */\n      revert\n        /* \"#utility.yul\":94:146   */\n    tag_198:\n      pop\n        /* \"#utility.yul\":187:210   */\n      calldataload\n      swap2\n        /* \"#utility.yul\":14:240   */\n      swap1\n      pop\n      jump\t// out\n        /* \"#utility.yul\":453:626   */\n    tag_189:\n        /* \"#utility.yul\":521:541   */\n      dup1\n      calldataload\n      sub(shl(0xa0, 0x01), 0x01)\n        /* \"#utility.yul\":570:601   */\n      dup2\n      and\n        /* \"#utility.yul\":560:602   */\n      dup2\n      eq\n        /* \"#utility.yul\":550:620   */\n      tag_158\n      jumpi\n        /* \"#utility.yul\":616:617   */\n      0x00\n        /* \"#utility.yul\":613:614   */\n      0x00\n        /* \"#utility.yul\":606:618   */\n      revert\n        /* \"#utility.yul\":631:931   */\n    tag_35:\n        /* \"#utility.yul\":699:705   */\n      0x00\n        /* \"#utility.yul\":707:713   */\n      0x00\n        /* \"#utility.yul\":760:762   */\n      0x40\n        /* \"#utility.yul\":748:757   */\n      dup4\n        /* \"#utility.yul\":739:746   */\n      dup6\n        /* \"#utility.yul\":735:758   */\n      sub\n        /* \"#utility.yul\":731:763   */\n      slt\n        /* \"#utility.yul\":728:780   */\n      iszero\n      tag_203\n      jumpi\n        /* \"#utility.yul\":776:777   */\n      0x00\n        /* \"#utility.yul\":773:774   */\n      0x00\n        /* \"#utility.yul\":766:778   */\n      revert\n        /* \"#utility.yul\":728:780   */\n    tag_203:\n        /* \"#utility.yul\":799:828   */\n      tag_204\n        /* \"#utility.yul\":818:827   */\n      dup4\n        /* \"#utility.yul\":799:828   */\n      tag_189\n      jump\t// in\n    tag_204:\n        /* \"#utility.yul\":789:828   */\n      swap5\n        /* \"#utility.yul\":897:899   */\n      0x20\n        /* \"#utility.yul\":882:900   */\n      swap4\n      swap1\n      swap4\n      add\n        /* \"#utility.yul\":869:901   */\n      calldataload\n      swap4\n      pop\n      pop\n      pop\n        /* \"#utility.yul\":631:931   */\n      jump\t// out\n        /* \"#utility.yul\":936:1196   */\n    tag_39:\n        /* \"#utility.yul\":1004:1010   */\n      0x00\n        /* \"#utility.yul\":1012:1018   */\n      0x00\n        /* \"#utility.yul\":1065:1067   */\n      0x40\n        /* \"#utility.yul\":1053:1062   */\n      dup4\n        /* \"#utility.yul\":1044:1051   */\n      dup6\n        /* \"#utility.yul\":1040:1063   */\n      sub\n        /* \"#utility.yul\":1036:1068   */\n      slt\n        /* \"#utility.yul\":1033:1085   */\n      iszero\n      tag_206\n      jumpi\n        /* \"#utility.yul\":1081:1082   */\n      0x00\n        /* \"#utility.yul\":1078:1079   */\n      0x00\n        /* \"#utility.yul\":1071:1083   */\n      revert\n        /* \"#utility.yul\":1033:1085   */\n    tag_206:\n        /* \"#utility.yul\":1104:1133   */\n      tag_207\n        /* \"#utility.yul\":1123:1132   */\n      dup4\n        /* \"#utility.yul\":1104:1133   */\n      tag_189\n      jump\t// in\n    tag_207:\n        /* \"#utility.yul\":1094:1133   */\n      swap2\n      pop\n        /* \"#utility.yul\":1152:1190   */\n      tag_208\n        /* \"#utility.yul\":1186:1188   */\n      0x20\n        /* \"#utility.yul\":1175:1184   */\n      dup5\n        /* \"#utility.yul\":1171:1189   */\n      add\n        /* \"#utility.yul\":1152:1190   */\n      tag_189\n      jump\t// in\n    tag_208:\n        /* \"#utility.yul\":1142:1190   */\n      swap1\n      pop\n        /* \"#utility.yul\":936:1196   */\n      swap3\n      pop\n      swap3\n      swap1\n      pop\n      jump\t// out\n        /* \"#utility.yul\":1575:1949   */\n    tag_56:\n        /* \"#utility.yul\":1652:1658   */\n      0x00\n        /* \"#utility.yul\":1660:1666   */\n      0x00\n        /* \"#utility.yul\":1668:1674   */\n      0x00\n        /* \"#utility.yul\":1721:1723   */\n      0x60\n        /* \"#utility.yul\":1709:1718   */\n      dup5\n        /* \"#utility.yul\":1700:1707   */\n      dup7\n        /* \"#utility.yul\":1696:1719   */\n      sub\n        /* \"#utility.yul\":1692:1724   */\n      slt\n        /* \"#utility.yul\":1689:1741   */\n      iszero\n      tag_212\n      jumpi\n        /* \"#utility.yul\":1737:1738   */\n      0x00\n        /* \"#utility.yul\":1734:1735   */\n      0x00\n        /* \"#utility.yul\":1727:1739   */\n      revert\n        /* \"#utility.yul\":1689:1741   */\n    tag_212:\n        /* \"#utility.yul\":1760:1789   */\n      tag_213\n        /* \"#utility.yul\":1779:1788   */\n      dup5\n        /* \"#utility.yul\":1760:1789   */\n      tag_189\n      jump\t// in\n    tag_213:\n        /* \"#utility.yul\":1750:1789   */\n      swap3\n      pop\n        /* \"#utility.yul\":1808:1846   */\n      tag_214\n        /* \"#utility.yul\":1842:1844   */\n      0x20\n        /* \"#utility.yul\":1831:1840   */\n      dup6\n        /* \"#utility.yul\":1827:1845   */\n      add\n        /* \"#utility.yul\":1808:1846   */\n      tag_189\n      jump\t// in\n    tag_214:\n        /* \"#utility.yul\":1575:1949   */\n      swap3\n      swap6\n        /* \"#utility.yul\":1798:1846   */\n      swap3\n      swap5\n      pop\n      pop\n      pop\n        /* \"#utility.yul\":1915:1917   */\n      0x40\n        /* \"#utility.yul\":1900:1918   */\n      swap2\n      swap1\n      swap2\n      add\n        /* \"#utility.yul\":1887:1919   */\n      calldataload\n      swap1\n        /* \"#utility.yul\":1575:1949   */\n      jump\t// out\n        /* \"#utility.yul\":1954:2243   */\n    tag_190:\n        /* \"#utility.yul\":1996:1999   */\n      0x00\n        /* \"#utility.yul\":2034:2039   */\n      dup2\n        /* \"#utility.yul\":2028:2040   */\n      mload\n        /* \"#utility.yul\":2061:2067   */\n      dup1\n        /* \"#utility.yul\":2056:2059   */\n      dup5\n        /* \"#utility.yul\":2049:2068   */\n      mstore\n        /* \"#utility.yul\":2117:2123   */\n      dup1\n        /* \"#utility.yul\":2110:2114   */\n      0x20\n        /* \"#utility.yul\":2103:2108   */\n      dup5\n        /* \"#utility.yul\":2099:2115   */\n      add\n        /* \"#utility.yul\":2092:2096   */\n      0x20\n        /* \"#utility.yul\":2087:2090   */\n      dup7\n        /* \"#utility.yul\":2083:2097   */\n      add\n        /* \"#utility.yul\":2077:2124   */\n      mcopy\n        /* \"#utility.yul\":2169:2170   */\n      0x00\n        /* \"#utility.yul\":2162:2166   */\n      0x20\n        /* \"#utility.yul\":2153:2159   */\n      dup3\n        /* \"#utility.yul\":2148:2151   */\n      dup7\n        /* \"#utility.yul\":2144:2160   */\n      add\n        /* \"#utility.yul\":2140:2167   */\n      add\n        /* \"#utility.yul\":2133:2171   */\n      mstore\n        /* \"#utility.yul\":2232:2236   */\n      0x20\n        /* \"#utility.yul\":2225:2227   */\n      0x1f\n        /* \"#utility.yul\":2221:2228   */\n      not\n        /* \"#utility.yul\":2216:2218   */\n      0x1f\n        /* \"#utility.yul\":2208:2214   */\n      dup4\n        /* \"#utility.yul\":2204:2219   */\n      add\n        /* \"#utility.yul\":2200:2229   */\n      and\n        /* \"#utility.yul\":2195:2198   */\n      dup6\n        /* \"#utility.yul\":2191:2230   */\n      add\n        /* \"#utility.yul\":2187:2237   */\n      add\n        /* \"#utility.yul\":2180:2237   */\n      swap2\n      pop\n      pop\n        /* \"#utility.yul\":1954:2243   */\n      swap3\n      swap2\n      pop\n      pop\n      jump\t// out\n        /* \"#utility.yul\":2248:2646   */\n    tag_62:\n      sub(shl(0xa0, 0x01), 0x01)\n        /* \"#utility.yul\":2447:2479   */\n      dup5\n      and\n        /* \"#utility.yul\":2429:2480   */\n      dup2\n      mstore\n        /* \"#utility.yul\":2516:2518   */\n      0x60\n        /* \"#utility.yul\":2511:2513   */\n      0x20\n        /* \"#utility.yul\":2496:2514   */\n      dup3\n      add\n        /* \"#utility.yul\":2489:2519   */\n      dup2\n      swap1\n      mstore\n      0x00\n      swap1\n        /* \"#utility.yul\":2536:2581   */\n      tag_217\n      swap1\n        /* \"#utility.yul\":2562:2580   */\n      dup4\n      add\n        /* \"#utility.yul\":2554:2560   */\n      dup6\n        /* \"#utility.yul\":2536:2581   */\n      tag_190\n      jump\t// in\n    tag_217:\n        /* \"#utility.yul\":2528:2581   */\n      swap1\n      pop\n        /* \"#utility.yul\":2631:2637   */\n      dup3\n        /* \"#utility.yul\":2624:2638   */\n      iszero\n        /* \"#utility.yul\":2617:2639   */\n      iszero\n        /* \"#utility.yul\":2612:2614   */\n      0x40\n        /* \"#utility.yul\":2601:2610   */\n      dup4\n        /* \"#utility.yul\":2597:2615   */\n      add\n        /* \"#utility.yul\":2590:2640   */\n      mstore\n        /* \"#utility.yul\":2248:2646   */\n      swap5\n      swap4\n      pop\n      pop\n      pop\n      pop\n      jump\t// out\n        /* \"#utility.yul\":2651:2837   */\n    tag_79:\n        /* \"#utility.yul\":2710:2716   */\n      0x00\n        /* \"#utility.yul\":2763:2765   */\n      0x20\n        /* \"#utility.yul\":2751:2760   */\n      dup3\n        /* \"#utility.yul\":2742:2749   */\n      dup5\n        /* \"#utility.yul\":2738:2761   */\n      sub\n        /* \"#utility.yul\":2734:2766   */\n      slt\n        /* \"#utility.yul\":2731:2783   */\n      iszero\n      tag_219\n      jumpi\n        /* \"#utility.yul\":2779:2780   */\n      0x00\n        /* \"#utility.yul\":2776:2777   */\n      0x00\n        /* \"#utility.yul\":2769:2781   */\n      revert\n        /* \"#utility.yul\":2731:2783   */\n    tag_219:\n        /* \"#utility.yul\":2802:2831   */\n      tag_220\n        /* \"#utility.yul\":2821:2830   */\n      dup3\n        /* \"#utility.yul\":2802:2831   */\n      tag_189\n      jump\t// in\n    tag_220:\n        /* \"#utility.yul\":2792:2831   */\n      swap4\n        /* \"#utility.yul\":2651:2837   */\n      swap3\n      pop\n      pop\n      pop\n      jump\t// out\n        /* \"#utility.yul\":2842:3189   */\n    tag_90:\n        /* \"#utility.yul\":2907:2913   */\n      0x00\n        /* \"#utility.yul\":2915:2921   */\n      0x00\n        /* \"#utility.yul\":2968:2970   */\n      0x40\n        /* \"#utility.yul\":2956:2965   */\n      dup4\n        /* \"#utility.yul\":2947:2954   */\n      dup6\n        /* \"#utility.yul\":2943:2966   */\n      sub\n        /* \"#utility.yul\":2939:2971   */\n      slt\n        /* \"#utility.yul\":2936:2988   */\n      iszero\n      tag_222\n      jumpi\n        /* \"#utility.yul\":2984:2985   */\n      0x00\n        /* \"#utility.yul\":2981:2982   */\n      0x00\n        /* \"#utility.yul\":2974:2986   */\n      revert\n        /* \"#utility.yul\":2936:2988   */\n    tag_222:\n        /* \"#utility.yul\":3007:3036   */\n      tag_223\n        /* \"#utility.yul\":3026:3035   */\n      dup4\n        /* \"#utility.yul\":3007:3036   */\n      tag_189\n      jump\t// in\n    tag_223:\n        /* \"#utility.yul\":2997:3036   */\n      swap2\n      pop\n        /* \"#utility.yul\":3086:3088   */\n      0x20\n        /* \"#utility.yul\":3075:3084   */\n      dup4\n        /* \"#utility.yul\":3071:3089   */\n      add\n        /* \"#utility.yul\":3058:3090   */\n      calldataload\n        /* \"#utility.yul\":3133:3138   */\n      dup1\n        /* \"#utility.yul\":3126:3139   */\n      iszero\n        /* \"#utility.yul\":3119:3140   */\n      iszero\n        /* \"#utility.yul\":3112:3117   */\n      dup2\n        /* \"#utility.yul\":3109:3141   */\n      eq\n        /* \"#utility.yul\":3099:3159   */\n      tag_224\n      jumpi\n        /* \"#utility.yul\":3155:3156   */\n      0x00\n        /* \"#utility.yul\":3152:3153   */\n      0x00\n        /* \"#utility.yul\":3145:3157   */\n      revert\n        /* \"#utility.yul\":3099:3159   */\n    tag_224:\n        /* \"#utility.yul\":3178:3183   */\n      dup1\n        /* \"#utility.yul\":3168:3183   */\n      swap2\n      pop\n      pop\n        /* \"#utility.yul\":2842:3189   */\n      swap3\n      pop\n      swap3\n      swap1\n      pop\n      jump\t// out\n        /* \"#utility.yul\":3415:3635   */\n    tag_100:\n        /* \"#utility.yul\":3564:3566   */\n      0x20\n        /* \"#utility.yul\":3553:3562   */\n      dup2\n        /* \"#utility.yul\":3546:3567   */\n      mstore\n        /* \"#utility.yul\":3527:3531   */\n      0x00\n        /* \"#utility.yul\":3584:3629   */\n      tag_220\n        /* \"#utility.yul\":3625:3627   */\n      0x20\n        /* \"#utility.yul\":3614:3623   */\n      dup4\n        /* \"#utility.yul\":3610:3628   */\n      add\n        /* \"#utility.yul\":3602:3608   */\n      dup5\n        /* \"#utility.yul\":3584:3629   */\n      tag_190\n      jump\t// in\n        /* \"#utility.yul\":3640:3767   */\n    tag_191:\n        /* \"#utility.yul\":3701:3711   */\n      0x4e487b71\n        /* \"#utility.yul\":3696:3699   */\n      0xe0\n        /* \"#utility.yul\":3692:3712   */\n      shl\n        /* \"#utility.yul\":3689:3690   */\n      0x00\n        /* \"#utility.yul\":3682:3713   */\n      mstore\n        /* \"#utility.yul\":3732:3736   */\n      0x41\n        /* \"#utility.yul\":3729:3730   */\n      0x04\n        /* \"#utility.yul\":3722:3737   */\n      mstore\n        /* \"#utility.yul\":3756:3760   */\n      0x24\n        /* \"#utility.yul\":3753:3754   */\n      0x00\n        /* \"#utility.yul\":3746:3761   */\n      revert\n        /* \"#utility.yul\":3772:4717   */\n    tag_103:\n        /* \"#utility.yul\":3841:3847   */\n      0x00\n        /* \"#utility.yul\":3894:3896   */\n      0x20\n        /* \"#utility.yul\":3882:3891   */\n      dup3\n        /* \"#utility.yul\":3873:3880   */\n      dup5\n        /* \"#utility.yul\":3869:3892   */\n      sub\n        /* \"#utility.yul\":3865:3897   */\n      slt\n        /* \"#utility.yul\":3862:3914   */\n      iszero\n      tag_230\n      jumpi\n        /* \"#utility.yul\":3910:3911   */\n      0x00\n        /* \"#utility.yul\":3907:3908   */\n      0x00\n        /* \"#utility.yul\":3900:3912   */\n      revert\n        /* \"#utility.yul\":3862:3914   */\n    tag_230:\n        /* \"#utility.yul\":3950:3959   */\n      dup2\n        /* \"#utility.yul\":3937:3960   */\n      calldataload\n        /* \"#utility.yul\":3983:4001   */\n      0xffffffffffffffff\n        /* \"#utility.yul\":3975:3981   */\n      dup2\n        /* \"#utility.yul\":3972:4002   */\n      gt\n        /* \"#utility.yul\":3969:4019   */\n      iszero\n      tag_231\n      jumpi\n        /* \"#utility.yul\":4015:4016   */\n      0x00\n        /* \"#utility.yul\":4012:4013   */\n      0x00\n        /* \"#utility.yul\":4005:4017   */\n      revert\n        /* \"#utility.yul\":3969:4019   */\n    tag_231:\n        /* \"#utility.yul\":4038:4060   */\n      dup3\n      add\n        /* \"#utility.yul\":4091:4095   */\n      0x1f\n        /* \"#utility.yul\":4083:4096   */\n      dup2\n      add\n        /* \"#utility.yul\":4079:4106   */\n      dup5\n      sgt\n        /* \"#utility.yul\":4069:4124   */\n      tag_232\n      jumpi\n        /* \"#utility.yul\":4120:4121   */\n      0x00\n        /* \"#utility.yul\":4117:4118   */\n      0x00\n        /* \"#utility.yul\":4110:4122   */\n      revert\n        /* \"#utility.yul\":4069:4124   */\n    tag_232:\n        /* \"#utility.yul\":4160:4162   */\n      dup1\n        /* \"#utility.yul\":4147:4163   */\n      calldataload\n        /* \"#utility.yul\":4186:4204   */\n      0xffffffffffffffff\n        /* \"#utility.yul\":4178:4184   */\n      dup2\n        /* \"#utility.yul\":4175:4205   */\n      gt\n        /* \"#utility.yul\":4172:4228   */\n      iszero\n      tag_234\n      jumpi\n        /* \"#utility.yul\":4208:4226   */\n      tag_234\n      tag_191\n      jump\t// in\n    tag_234:\n        /* \"#utility.yul\":4257:4259   */\n      0x40\n        /* \"#utility.yul\":4251:4260   */\n      mload\n        /* \"#utility.yul\":4349:4351   */\n      0x1f\n        /* \"#utility.yul\":4311:4328   */\n      dup3\n      add\n      not(0x1f)\n        /* \"#utility.yul\":4307:4338   */\n      swap1\n      dup2\n      and\n        /* \"#utility.yul\":4340:4342   */\n      0x3f\n        /* \"#utility.yul\":4303:4343   */\n      add\n        /* \"#utility.yul\":4299:4353   */\n      and\n        /* \"#utility.yul\":4287:4354   */\n      dup2\n      add\n        /* \"#utility.yul\":4384:4402   */\n      0xffffffffffffffff\n        /* \"#utility.yul\":4369:4403   */\n      dup2\n      gt\n        /* \"#utility.yul\":4405:4427   */\n      dup3\n      dup3\n      lt\n        /* \"#utility.yul\":4366:4428   */\n      or\n        /* \"#utility.yul\":4363:4451   */\n      iszero\n      tag_236\n      jumpi\n        /* \"#utility.yul\":4431:4449   */\n      tag_236\n      tag_191\n      jump\t// in\n    tag_236:\n        /* \"#utility.yul\":4467:4469   */\n      0x40\n        /* \"#utility.yul\":4460:4482   */\n      mstore\n        /* \"#utility.yul\":4491:4513   */\n      dup2\n      dup2\n      mstore\n        /* \"#utility.yul\":4532:4547   */\n      dup3\n      dup3\n      add\n        /* \"#utility.yul\":4549:4551   */\n      0x20\n        /* \"#utility.yul\":4528:4552   */\n      add\n        /* \"#utility.yul\":4525:4562   */\n      dup7\n      lt\n        /* \"#utility.yul\":4522:4579   */\n      iszero\n      tag_237\n      jumpi\n        /* \"#utility.yul\":4575:4576   */\n      0x00\n        /* \"#utility.yul\":4572:4573   */\n      0x00\n        /* \"#utility.yul\":4565:4577   */\n      revert\n        /* \"#utility.yul\":4522:4579   */\n    tag_237:\n        /* \"#utility.yul\":4631:4637   */\n      dup2\n        /* \"#utility.yul\":4626:4628   */\n      0x20\n        /* \"#utility.yul\":4622:4624   */\n      dup5\n        /* \"#utility.yul\":4618:4629   */\n      add\n        /* \"#utility.yul\":4613:4615   */\n      0x20\n        /* \"#utility.yul\":4605:4611   */\n      dup4\n        /* \"#utility.yul\":4601:4616   */\n      add\n        /* \"#utility.yul\":4588:4638   */\n      calldatacopy\n        /* \"#utility.yul\":4684:4685   */\n      0x00\n        /* \"#utility.yul\":4658:4677   */\n      swap2\n      dup2\n      add\n        /* \"#utility.yul\":4679:4681   */\n      0x20\n        /* \"#utility.yul\":4654:4682   */\n      add\n        /* \"#utility.yul\":4647:4686   */\n      swap2\n      swap1\n      swap2\n      mstore\n        /* \"#utility.yul\":4662:4668   */\n      swap5\n        /* \"#utility.yul\":3772:4717   */\n      swap4\n      pop\n      pop\n      pop\n      pop\n      jump\t// out\n        /* \"#utility.yul\":6109:6489   */\n    tag_137:\n        /* \"#utility.yul\":6188:6189   */\n      0x01\n        /* \"#utility.yul\":6184:6196   */\n      dup2\n      dup2\n      shr\n      swap1\n        /* \"#utility.yul\":6231:6243   */\n      dup3\n      and\n      dup1\n        /* \"#utility.yul\":6252:6313   */\n      tag_243\n      jumpi\n        /* \"#utility.yul\":6306:6310   */\n      0x7f\n        /* \"#utility.yul\":6298:6304   */\n      dup3\n        /* \"#utility.yul\":6294:6311   */\n      and\n        /* \"#utility.yul\":6284:6311   */\n      swap2\n      pop\n        /* \"#utility.yul\":6252:6313   */\n    tag_243:\n        /* \"#utility.yul\":6359:6361   */\n      0x20\n        /* \"#utility.yul\":6351:6357   */\n      dup3\n        /* \"#utility.yul\":6348:6362   */\n      lt\n        /* \"#utility.yul\":6328:6346   */\n      dup2\n        /* \"#utility.yul\":6325:6363   */\n      sub\n        /* \"#utility.yul\":6322:6483   */\n      tag_244\n      jumpi\n        /* \"#utility.yul\":6405:6415   */\n      0x4e487b71\n        /* \"#utility.yul\":6400:6403   */\n      0xe0\n        /* \"#utility.yul\":6396:6416   */\n      shl\n        /* \"#utility.yul\":6393:6394   */\n      0x00\n        /* \"#utility.yul\":6386:6417   */\n      mstore\n        /* \"#utility.yul\":6440:6444   */\n      0x22\n        /* \"#utility.yul\":6437:6438   */\n      0x04\n        /* \"#utility.yul\":6430:6445   */\n      mstore\n        /* \"#utility.yul\":6468:6472   */\n      0x24\n        /* \"#utility.yul\":6465:6466   */\n      0x00\n        /* \"#utility.yul\":6458:6473   */\n      revert\n        /* \"#utility.yul\":6322:6483   */\n    tag_244:\n      pop\n        /* \"#utility.yul\":6109:6489   */\n      swap2\n      swap1\n      pop\n      jump\t// out\n        /* \"#utility.yul\":6843:6970   */\n    tag_192:\n        /* \"#utility.yul\":6904:6914   */\n      0x4e487b71\n        /* \"#utility.yul\":6899:6902   */\n      0xe0\n        /* \"#utility.yul\":6895:6915   */\n      shl\n        /* \"#utility.yul\":6892:6893   */\n      0x00\n        /* \"#utility.yul\":6885:6916   */\n      mstore\n        /* \"#utility.yul\":6935:6939   */\n      0x11\n        /* \"#utility.yul\":6932:6933   */\n      0x04\n        /* \"#utility.yul\":6925:6940   */\n      mstore\n        /* \"#utility.yul\":6959:6963   */\n      0x24\n        /* \"#utility.yul\":6956:6957   */\n      0x00\n        /* \"#utility.yul\":6949:6964   */\n      revert\n        /* \"#utility.yul\":6975:7110   */\n    tag_160:\n        /* \"#utility.yul\":7014:7017   */\n      0x00\n        /* \"#utility.yul\":7035:7052   */\n      0x01\n      dup3\n      add\n        /* \"#utility.yul\":7032:7075   */\n      tag_249\n      jumpi\n        /* \"#utility.yul\":7055:7073   */\n      tag_249\n      tag_192\n      jump\t// in\n    tag_249:\n      pop\n        /* \"#utility.yul\":7102:7103   */\n      0x01\n        /* \"#utility.yul\":7091:7104   */\n      add\n      swap1\n        /* \"#utility.yul\":6975:7110   */\n      jump\t// out\n        /* \"#utility.yul\":7241:7759   */\n    tag_194:\n        /* \"#utility.yul\":7343:7345   */\n      0x1f\n        /* \"#utility.yul\":7338:7341   */\n      dup3\n        /* \"#utility.yul\":7335:7346   */\n      gt\n        /* \"#utility.yul\":7332:7753   */\n      iszero\n      tag_134\n      jumpi\n        /* \"#utility.yul\":7379:7384   */\n      dup1\n        /* \"#utility.yul\":7376:7377   */\n      0x00\n        /* \"#utility.yul\":7369:7385   */\n      mstore\n        /* \"#utility.yul\":7423:7427   */\n      0x20\n        /* \"#utility.yul\":7420:7421   */\n      0x00\n        /* \"#utility.yul\":7410:7428   */\n      keccak256\n        /* \"#utility.yul\":7493:7495   */\n      0x1f\n        /* \"#utility.yul\":7481:7491   */\n      dup5\n        /* \"#utility.yul\":7477:7496   */\n      add\n        /* \"#utility.yul\":7474:7475   */\n      0x05\n        /* \"#utility.yul\":7470:7497   */\n      shr\n        /* \"#utility.yul\":7464:7468   */\n      dup2\n        /* \"#utility.yul\":7460:7498   */\n      add\n        /* \"#utility.yul\":7529:7533   */\n      0x20\n        /* \"#utility.yul\":7517:7527   */\n      dup6\n        /* \"#utility.yul\":7514:7534   */\n      lt\n        /* \"#utility.yul\":7511:7558   */\n      iszero\n      tag_253\n      jumpi\n      pop\n        /* \"#utility.yul\":7552:7556   */\n      dup1\n        /* \"#utility.yul\":7511:7558   */\n    tag_253:\n        /* \"#utility.yul\":7607:7609   */\n      0x1f\n        /* \"#utility.yul\":7602:7605   */\n      dup5\n        /* \"#utility.yul\":7598:7610   */\n      add\n        /* \"#utility.yul\":7595:7596   */\n      0x05\n        /* \"#utility.yul\":7591:7611   */\n      shr\n        /* \"#utility.yul\":7585:7589   */\n      dup3\n        /* \"#utility.yul\":7581:7612   */\n      add\n        /* \"#utility.yul\":7571:7612   */\n      swap2\n      pop\n        /* \"#utility.yul\":7662:7743   */\n    tag_254:\n        /* \"#utility.yul\":7680:7682   */\n      dup2\n        /* \"#utility.yul\":7673:7678   */\n      dup2\n        /* \"#utility.yul\":7670:7683   */\n      lt\n        /* \"#utility.yul\":7662:7743   */\n      iszero\n      tag_256\n      jumpi\n        /* \"#utility.yul\":7739:7740   */\n      0x00\n        /* \"#utility.yul\":7725:7741   */\n      dup2\n      sstore\n        /* \"#utility.yul\":7706:7707   */\n      0x01\n        /* \"#utility.yul\":7695:7708   */\n      add\n        /* \"#utility.yul\":7662:7743   */\n      jump(tag_254)\n    tag_256:\n        /* \"#utility.yul\":7666:7669   */\n      pop\n      pop\n        /* \"#utility.yul\":7241:7759   */\n      pop\n      pop\n      pop\n      jump\t// out\n        /* \"#utility.yul\":7935:9234   */\n    tag_162:\n        /* \"#utility.yul\":8061:8064   */\n      dup2\n        /* \"#utility.yul\":8055:8065   */\n      mload\n        /* \"#utility.yul\":8088:8106   */\n      0xffffffffffffffff\n        /* \"#utility.yul\":8080:8086   */\n      dup2\n        /* \"#utility.yul\":8077:8107   */\n      gt\n        /* \"#utility.yul\":8074:8130   */\n      iszero\n      tag_260\n      jumpi\n        /* \"#utility.yul\":8110:8128   */\n      tag_260\n      tag_191\n      jump\t// in\n    tag_260:\n        /* \"#utility.yul\":8139:8236   */\n      tag_261\n        /* \"#utility.yul\":8229:8235   */\n      dup2\n        /* \"#utility.yul\":8189:8227   */\n      tag_262\n        /* \"#utility.yul\":8221:8225   */\n      dup5\n        /* \"#utility.yul\":8215:8226   */\n      sload\n        /* \"#utility.yul\":8189:8227   */\n      tag_137\n      jump\t// in\n    tag_262:\n        /* \"#utility.yul\":8183:8187   */\n      dup5\n        /* \"#utility.yul\":8139:8236   */\n      tag_194\n      jump\t// in\n    tag_261:\n        /* \"#utility.yul\":8285:8289   */\n      0x20\n        /* \"#utility.yul\":8316:8318   */\n      0x1f\n        /* \"#utility.yul\":8305:8319   */\n      dup3\n      gt\n        /* \"#utility.yul\":8333:8334   */\n      0x01\n        /* \"#utility.yul\":8328:8977   */\n      dup2\n      eq\n      tag_264\n      jumpi\n        /* \"#utility.yul\":9021:9022   */\n      0x00\n        /* \"#utility.yul\":9038:9044   */\n      dup4\n        /* \"#utility.yul\":9035:9124   */\n      iszero\n      tag_265\n      jumpi\n      pop\n        /* \"#utility.yul\":9090:9109   */\n      dup5\n      dup3\n      add\n        /* \"#utility.yul\":9084:9110   */\n      mload\n        /* \"#utility.yul\":9035:9124   */\n    tag_265:\n      not(0x00)\n        /* \"#utility.yul\":7892:7893   */\n      0x03\n        /* \"#utility.yul\":7888:7899   */\n      dup6\n      swap1\n      shl\n        /* \"#utility.yul\":7884:7908   */\n      shr\n        /* \"#utility.yul\":7880:7909   */\n      not\n        /* \"#utility.yul\":7870:7910   */\n      and\n        /* \"#utility.yul\":7916:7917   */\n      0x01\n        /* \"#utility.yul\":7912:7923   */\n      dup5\n      swap1\n      shl\n        /* \"#utility.yul\":7867:7924   */\n      or\n        /* \"#utility.yul\":9137:9218   */\n      dup5\n      sstore\n        /* \"#utility.yul\":8298:9228   */\n      jump(tag_256)\n        /* \"#utility.yul\":8328:8977   */\n    tag_264:\n        /* \"#utility.yul\":7188:7189   */\n      0x00\n        /* \"#utility.yul\":7181:7195   */\n      dup5\n      dup2\n      mstore\n        /* \"#utility.yul\":7225:7229   */\n      0x20\n        /* \"#utility.yul\":7212:7230   */\n      dup2\n      keccak256\n      not(0x1f)\n        /* \"#utility.yul\":8364:8384   */\n      dup6\n      and\n      swap2\n        /* \"#utility.yul\":8482:8704   */\n    tag_268:\n        /* \"#utility.yul\":8496:8503   */\n      dup3\n        /* \"#utility.yul\":8493:8494   */\n      dup2\n        /* \"#utility.yul\":8490:8504   */\n      lt\n        /* \"#utility.yul\":8482:8704   */\n      iszero\n      tag_270\n      jumpi\n        /* \"#utility.yul\":8578:8597   */\n      dup8\n      dup6\n      add\n        /* \"#utility.yul\":8572:8598   */\n      mload\n        /* \"#utility.yul\":8557:8599   */\n      dup3\n      sstore\n        /* \"#utility.yul\":8685:8689   */\n      0x20\n        /* \"#utility.yul\":8670:8690   */\n      swap5\n      dup6\n      add\n      swap5\n        /* \"#utility.yul\":8638:8639   */\n      0x01\n        /* \"#utility.yul\":8626:8640   */\n      swap1\n      swap3\n      add\n      swap2\n        /* \"#utility.yul\":8512:8524   */\n      add\n        /* \"#utility.yul\":8482:8704   */\n      jump(tag_268)\n    tag_270:\n        /* \"#utility.yul\":8486:8489   */\n      pop\n        /* \"#utility.yul\":8732:8738   */\n      dup5\n        /* \"#utility.yul\":8723:8730   */\n      dup3\n        /* \"#utility.yul\":8720:8739   */\n      lt\n        /* \"#utility.yul\":8717:8918   */\n      iszero\n      tag_271\n      jumpi\n        /* \"#utility.yul\":8793:8812   */\n      dup7\n      dup5\n      add\n        /* \"#utility.yul\":8787:8813   */\n      mload\n      not(0x00)\n        /* \"#utility.yul\":8876:8877   */\n      0x03\n        /* \"#utility.yul\":8872:8886   */\n      dup8\n      swap1\n      shl\n        /* \"#utility.yul\":8888:8891   */\n      0xf8\n        /* \"#utility.yul\":8868:8892   */\n      and\n        /* \"#utility.yul\":8864:8901   */\n      shr\n        /* \"#utility.yul\":8860:8902   */\n      not\n        /* \"#utility.yul\":8845:8903   */\n      and\n        /* \"#utility.yul\":8830:8904   */\n      dup2\n      sstore\n        /* \"#utility.yul\":8717:8918   */\n    tag_271:\n      pop\n      pop\n      pop\n      pop\n        /* \"#utility.yul\":8964:8965   */\n      0x01\n        /* \"#utility.yul\":8948:8962   */\n      swap1\n      dup2\n      shl\n        /* \"#utility.yul\":8944:8966   */\n      add\n        /* \"#utility.yul\":8931:8967   */\n      swap1\n      sstore\n      pop\n        /* \"#utility.yul\":7935:9234   */\n      jump\t// out\n        /* \"#utility.yul\":9239:9530   */\n    tag_165:\n        /* \"#utility.yul\":9416:9422   */\n      dup3\n        /* \"#utility.yul\":9405:9414   */\n      dup2\n        /* \"#utility.yul\":9398:9423   */\n      mstore\n        /* \"#utility.yul\":9459:9461   */\n      0x40\n        /* \"#utility.yul\":9454:9456   */\n      0x20\n        /* \"#utility.yul\":9443:9452   */\n      dup3\n        /* \"#utility.yul\":9439:9457   */\n      add\n        /* \"#utility.yul\":9432:9462   */\n      mstore\n        /* \"#utility.yul\":9379:9383   */\n      0x00\n        /* \"#utility.yul\":9479:9524   */\n      tag_273\n        /* \"#utility.yul\":9520:9522   */\n      0x40\n        /* \"#utility.yul\":9509:9518   */\n      dup4\n        /* \"#utility.yul\":9505:9523   */\n      add\n        /* \"#utility.yul\":9497:9503   */\n      dup5\n        /* \"#utility.yul\":9479:9524   */\n      tag_190\n      jump\t// in\n    tag_273:\n        /* \"#utility.yul\":9471:9524   */\n      swap5\n        /* \"#utility.yul\":9239:9530   */\n      swap4\n      pop\n      pop\n      pop\n      pop\n      jump\t// out\n        /* \"#utility.yul\":9535:9662   */\n    tag_173:\n        /* \"#utility.yul\":9596:9606   */\n      0x4e487b71\n        /* \"#utility.yul\":9591:9594   */\n      0xe0\n        /* \"#utility.yul\":9587:9607   */\n      shl\n        /* \"#utility.yul\":9584:9585   */\n      0x00\n        /* \"#utility.yul\":9577:9608   */\n      mstore\n        /* \"#utility.yul\":9627:9631   */\n      0x32\n        /* \"#utility.yul\":9624:9625   */\n      0x04\n        /* \"#utility.yul\":9617:9632   */\n      mstore\n        /* \"#utility.yul\":9651:9655   */\n      0x24\n        /* \"#utility.yul\":9648:9649   */\n      0x00\n        /* \"#utility.yul\":9641:9656   */\n      revert\n        /* \"#utility.yul\":9667:9795   */\n    tag_177:\n        /* \"#utility.yul\":9734:9743   */\n      dup2\n      dup2\n      sub\n        /* \"#utility.yul\":9755:9766   */\n      dup2\n      dup2\n      gt\n        /* \"#utility.yul\":9752:9789   */\n      iszero\n      tag_166\n      jumpi\n        /* \"#utility.yul\":9769:9787   */\n      tag_166\n      tag_192\n      jump\t// in\n        /* \"#utility.yul\":9800:9927   */\n    tag_186:\n        /* \"#utility.yul\":9861:9871   */\n      0x4e487b71\n        /* \"#utility.yul\":9856:9859   */\n      0xe0\n        /* \"#utility.yul\":9852:9872   */\n      shl\n        /* \"#utility.yul\":9849:9850   */\n      0x00\n        /* \"#utility.yul\":9842:9873   */\n      mstore\n        /* \"#utility.yul\":9892:9896   */\n      0x31\n        /* \"#utility.yul\":9889:9890   */\n      0x04\n        /* \"#utility.yul\":9882:9897   */\n      mstore\n        /* \"#utility.yul\":9916:9920   */\n      0x24\n        /* \"#utility.yul\":9913:9914   */\n      0x00\n        /* \"#utility.yul\":9906:9921   */\n      revert\n\n    auxdata: 0xa2646970667358221220f039f9da3b4fc17d73932bb02ed881c314a683884d6d6cdd953755451d920c6d64736f6c634300081d0033\n}\n",
				"bytecode": {
					"linkReferences": {},
					"object": "6080604052348015600e575f5ffd5b50610e7a8061001c5f395ff3fe608060405234801561000f575f5ffd5b5060043610610132575f3560e01c80636352211e116100b4578063a22cb46511610079578063a22cb465146102ee578063a6d7451214610301578063c87b56dd14610314578063d85d3d2714610334578063de74e57b14610347578063e985e9c5146103a7575f5ffd5b80636352211e1461026f5780636a1b7ecc1461029757806370a08231146102a057806370d5ae05146102c85780638ea5220f146102db575f5ffd5b80631a72b87d116100fa5780631a72b87d146101ed57806323b872dd14610200578063265aa621146102135780634162169f1461023557806363035f6614610247575f5ffd5b8063081812fc14610136578063095ea7b31461017b5780630d95e05414610190578063178021e3146101cd57806318160ddd146101e4575b5f5ffd5b61015e610144366004610a2a565b5f908152600a60205260409020546001600160a01b031690565b6040516001600160a01b0390911681526020015b60405180910390f35b61018e610189366004610a57565b6103ba565b005b6101bd61019e366004610a7f565b600b60209081525f928352604080842090915290825290205460ff1681565b6040519015158152602001610172565b6101d660085481565b604051908152602001610172565b6101d660045481565b6101d66101fb366004610a57565b61047a565b61018e61020e366004610ab0565b6104a5565b610226610221366004610a2a565b610586565b60405161017293929190610b18565b5f5461015e906001600160a01b031681565b61015e610255366004610a2a565b600a6020525f90815260409020546001600160a01b031681565b61015e61027d366004610a2a565b5f908152600560205260409020546001600160a01b031690565b6101d660075481565b6101d66102ae366004610b4d565b6001600160a01b03165f9081526006602052604090205490565b60025461015e906001600160a01b031681565b60015461015e906001600160a01b031681565b61018e6102fc366004610b6d565b61063b565b60035461015e906001600160a01b031681565b610327610322366004610a2a565b6106a6565b6040516101729190610ba6565b6101d6610342366004610bcc565b6107a1565b610382610355366004610a2a565b60096020525f9081526040902080546001909101546001600160a01b03811690600160a01b900460ff1683565b604080519384526001600160a01b039092166020840152151590820152606001610172565b6101bd6103b5366004610a7f565b6108d7565b5f8181526005602052604090205481906001600160a01b031633146104165760405162461bcd60e51b815260206004820152600d60248201526c2737ba103a34329037bbb732b960991b60448201526064015b60405180910390fd5b5f828152600a602090815260409182902080546001600160a01b0319166001600160a01b038716908117909155915184815233917f8c5be1e5ebec7d5bd14f71427d1e84f3dd0314c0f7b2291e5b200ac8c7c3b925910160405180910390a3505050565b6006602052815f5260405f208181548110610493575f80fd5b905f5260205f20015f91509150505481565b336001600160a01b03841614806104d157505f818152600a60205260409020546001600160a01b031633145b806104e157506104e183336108d7565b61051e5760405162461bcd60e51b815260206004820152600e60248201526d139bdd08185d5d1a1bdc9a5e995960921b604482015260640161040d565b5f818152600560205260409020546001600160a01b038481169116146105765760405162461bcd60e51b815260206004820152600d60248201526c24b73b30b634b21037bbb732b960991b604482015260640161040d565b610581838383610906565b505050565b60056020525f9081526040902080546001820180546001600160a01b0390921692916105b190610c7f565b80601f01602080910402602001604051908101604052809291908181526020018280546105dd90610c7f565b80156106285780601f106105ff57610100808354040283529160200191610628565b820191905f5260205f20905b81548152906001019060200180831161060b57829003601f168201915b5050506002909301549192505060ff1683565b335f818152600b602090815260408083206001600160a01b03871680855290835292819020805460ff191686151590811790915590519081529192917f17307eab39ab6107e8899845ad3d59bd9653f200f220920489ca2b5937696c31910160405180910390a35050565b5f818152600560205260409020546060906001600160a01b03166107035760405162461bcd60e51b8152602060048201526014602482015273151bdad95b88191bd95cc81b9bdd08195e1a5cdd60621b604482015260640161040d565b5f828152600560205260409020600101805461071e90610c7f565b80601f016020809104026020016040519081016040528092919081815260200182805461074a90610c7f565b80156107955780601f1061076c57610100808354040283529160200191610795565b820191905f5260205f20905b81548152906001019060200180831161077857829003601f168201915b50505050509050919050565b5f80546001600160a01b031633146107ec5760405162461bcd60e51b815260206004820152600e60248201526d139bdd08185d5d1a1bdc9a5e995960921b604482015260640161040d565b60048054905f6107fb83610ccb565b90915550506004546040805160608101825233815260208082018681525f8385018190528581526005909252929020815181546001600160a01b0319166001600160a01b039091161781559151909190600182019061085a9082610d2e565b50604091820151600291909101805460ff1916911515919091179055335f81815260066020908152838220805460018101825590835291200183905590517fe7cd4ce7f2a465edc730269a1305e8a48bad821e8fb7e152ec413829c01a53c4906108c79084908790610de9565b60405180910390a290505b919050565b6001600160a01b038083165f908152600b602090815260408083209385168352929052205460ff165b92915050565b5f81815260056020908152604080832080546001600160a01b0319166001600160a01b03878116919091179091558616835260069091528120905b81548110156109e2578282828154811061095d5761095d610e09565b905f5260205f200154036109da578154829061097b90600190610e1d565b8154811061098b5761098b610e09565b905f5260205f2001548282815481106109a6576109a6610e09565b905f5260205f200181905550818054806109c2576109c2610e30565b600190038181905f5260205f20015f905590556109e2565b600101610941565b50506001600160a01b039091165f908152600660209081526040808320805460018101825590845282842001849055928252600a90522080546001600160a01b031916905550565b5f60208284031215610a3a575f5ffd5b5035919050565b80356001600160a01b03811681146108d2575f5ffd5b5f5f60408385031215610a68575f5ffd5b610a7183610a41565b946020939093013593505050565b5f5f60408385031215610a90575f5ffd5b610a9983610a41565b9150610aa760208401610a41565b90509250929050565b5f5f5f60608486031215610ac2575f5ffd5b610acb84610a41565b9250610ad960208501610a41565b929592945050506040919091013590565b5f81518084528060208401602086015e5f602082860101526020601f19601f83011685010191505092915050565b6001600160a01b03841681526060602082018190525f90610b3b90830185610aea565b90508215156040830152949350505050565b5f60208284031215610b5d575f5ffd5b610b6682610a41565b9392505050565b5f5f60408385031215610b7e575f5ffd5b610b8783610a41565b915060208301358015158114610b9b575f5ffd5b809150509250929050565b602081525f610b666020830184610aea565b634e487b7160e01b5f52604160045260245ffd5b5f60208284031215610bdc575f5ffd5b813567ffffffffffffffff811115610bf2575f5ffd5b8201601f81018413610c02575f5ffd5b803567ffffffffffffffff811115610c1c57610c1c610bb8565b604051601f8201601f19908116603f0116810167ffffffffffffffff81118282101715610c4b57610c4b610bb8565b604052818152828201602001861015610c62575f5ffd5b816020840160208301375f91810160200191909152949350505050565b600181811c90821680610c9357607f821691505b602082108103610cb157634e487b7160e01b5f52602260045260245ffd5b50919050565b634e487b7160e01b5f52601160045260245ffd5b5f60018201610cdc57610cdc610cb7565b5060010190565b601f82111561058157805f5260205f20601f840160051c81016020851015610d085750805b601f840160051c820191505b81811015610d27575f8155600101610d14565b5050505050565b815167ffffffffffffffff811115610d4857610d48610bb8565b610d5c81610d568454610c7f565b84610ce3565b6020601f821160018114610d8e575f8315610d775750848201515b5f19600385901b1c1916600184901b178455610d27565b5f84815260208120601f198516915b82811015610dbd5787850151825560209485019460019092019101610d9d565b5084821015610dda57868401515f19600387901b60f8161c191681555b50505050600190811b01905550565b828152604060208201525f610e016040830184610aea565b949350505050565b634e487b7160e01b5f52603260045260245ffd5b8181038181111561090057610900610cb7565b634e487b7160e01b5f52603160045260245ffdfea2646970667358221220f039f9da3b4fc17d73932bb02ed881c314a683884d6d6cdd953755451d920c6d64736f6c634300081d0033",
					"opcodes": "PUSH1 0x80 PUSH1 0x40 MSTORE CALLVALUE DUP1 ISZERO PUSH1 0xE JUMPI PUSH0 PUSH0 REVERT JUMPDEST POP PUSH2 0xE7A DUP1 PUSH2 0x1C PUSH0 CODECOPY PUSH0 RETURN INVALID PUSH1 0x80 PUSH1 0x40 MSTORE CALLVALUE DUP1 ISZERO PUSH2 0xF JUMPI PUSH0 PUSH0 REVERT JUMPDEST POP PUSH1 0x4 CALLDATASIZE LT PUSH2 0x132 JUMPI PUSH0 CALLDATALOAD PUSH1 0xE0 SHR DUP1 PUSH4 0x6352211E GT PUSH2 0xB4 JUMPI DUP1 PUSH4 0xA22CB465 GT PUSH2 0x79 JUMPI DUP1 PUSH4 0xA22CB465 EQ PUSH2 0x2EE JUMPI DUP1 PUSH4 0xA6D74512 EQ PUSH2 0x301 JUMPI DUP1 PUSH4 0xC87B56DD EQ PUSH2 0x314 JUMPI DUP1 PUSH4 0xD85D3D27 EQ PUSH2 0x334 JUMPI DUP1 PUSH4 0xDE74E57B EQ PUSH2 0x347 JUMPI DUP1 PUSH4 0xE985E9C5 EQ PUSH2 0x3A7 JUMPI PUSH0 PUSH0 REVERT JUMPDEST DUP1 PUSH4 0x6352211E EQ PUSH2 0x26F JUMPI DUP1 PUSH4 0x6A1B7ECC EQ PUSH2 0x297 JUMPI DUP1 PUSH4 0x70A08231 EQ PUSH2 0x2A0 JUMPI DUP1 PUSH4 0x70D5AE05 EQ PUSH2 0x2C8 JUMPI DUP1 PUSH4 0x8EA5220F EQ PUSH2 0x2DB JUMPI PUSH0 PUSH0 REVERT JUMPDEST DUP1 PUSH4 0x1A72B87D GT PUSH2 0xFA JUMPI DUP1 PUSH4 0x1A72B87D EQ PUSH2 0x1ED JUMPI DUP1 PUSH4 0x23B872DD EQ PUSH2 0x200 JUMPI DUP1 PUSH4 0x265AA621 EQ PUSH2 0x213 JUMPI DUP1 PUSH4 0x4162169F EQ PUSH2 0x235 JUMPI DUP1 PUSH4 0x63035F66 EQ PUSH2 0x247 JUMPI PUSH0 PUSH0 REVERT JUMPDEST DUP1 PUSH4 0x81812FC EQ PUSH2 0x136 JUMPI DUP1 PUSH4 0x95EA7B3 EQ PUSH2 0x17B JUMPI DUP1 PUSH4 0xD95E054 EQ PUSH2 0x190 JUMPI DUP1 PUSH4 0x178021E3 EQ PUSH2 0x1CD JUMPI DUP1 PUSH4 0x18160DDD EQ PUSH2 0x1E4 JUMPI JUMPDEST PUSH0 PUSH0 REVERT JUMPDEST PUSH2 0x15E PUSH2 0x144 CALLDATASIZE PUSH1 0x4 PUSH2 0xA2A JUMP JUMPDEST PUSH0 SWAP1 DUP2 MSTORE PUSH1 0xA PUSH1 0x20 MSTORE PUSH1 0x40 SWAP1 KECCAK256 SLOAD PUSH1 0x1 PUSH1 0x1 PUSH1 0xA0 SHL SUB AND SWAP1 JUMP JUMPDEST PUSH1 0x40 MLOAD PUSH1 0x1 PUSH1 0x1 PUSH1 0xA0 SHL SUB SWAP1 SWAP2 AND DUP2 MSTORE PUSH1 0x20 ADD JUMPDEST PUSH1 0x40 MLOAD DUP1 SWAP2 SUB SWAP1 RETURN JUMPDEST PUSH2 0x18E PUSH2 0x189 CALLDATASIZE PUSH1 0x4 PUSH2 0xA57 JUMP JUMPDEST PUSH2 0x3BA JUMP JUMPDEST STOP JUMPDEST PUSH2 0x1BD PUSH2 0x19E CALLDATASIZE PUSH1 0x4 PUSH2 0xA7F JUMP JUMPDEST PUSH1 0xB PUSH1 0x20 SWAP1 DUP2 MSTORE PUSH0 SWAP3 DUP4 MSTORE PUSH1 0x40 DUP1 DUP5 KECCAK256 SWAP1 SWAP2 MSTORE SWAP1 DUP3 MSTORE SWAP1 KECCAK256 SLOAD PUSH1 0xFF AND DUP2 JUMP JUMPDEST PUSH1 0x40 MLOAD SWAP1 ISZERO ISZERO DUP2 MSTORE PUSH1 0x20 ADD PUSH2 0x172 JUMP JUMPDEST PUSH2 0x1D6 PUSH1 0x8 SLOAD DUP2 JUMP JUMPDEST PUSH1 0x40 MLOAD SWAP1 DUP2 MSTORE PUSH1 0x20 ADD PUSH2 0x172 JUMP JUMPDEST PUSH2 0x1D6 PUSH1 0x4 SLOAD DUP2 JUMP JUMPDEST PUSH2 0x1D6 PUSH2 0x1FB CALLDATASIZE PUSH1 0x4 PUSH2 0xA57 JUMP JUMPDEST PUSH2 0x47A JUMP JUMPDEST PUSH2 0x18E PUSH2 0x20E CALLDATASIZE PUSH1 0x4 PUSH2 0xAB0 JUMP JUMPDEST PUSH2 0x4A5 JUMP JUMPDEST PUSH2 0x226 PUSH2 0x221 CALLDATASIZE PUSH1 0x4 PUSH2 0xA2A JUMP JUMPDEST PUSH2 0x586 JUMP JUMPDEST PUSH1 0x40 MLOAD PUSH2 0x172 SWAP4 SWAP3 SWAP2 SWAP1 PUSH2 0xB18 JUMP JUMPDEST PUSH0 SLOAD PUSH2 0x15E SWAP1 PUSH1 0x1 PUSH1 0x1 PUSH1 0xA0 SHL SUB AND DUP2 JUMP JUMPDEST PUSH2 0x15E PUSH2 0x255 CALLDATASIZE PUSH1 0x4 PUSH2 0xA2A JUMP JUMPDEST PUSH1 0xA PUSH1 0x20 MSTORE PUSH0 SWAP1 DUP2 MSTORE PUSH1 0x40 SWAP1 KECCAK256 SLOAD PUSH1 0x1 PUSH1 0x1 PUSH1 0xA0 SHL SUB AND DUP2 JUMP JUMPDEST PUSH2 0x15E PUSH2 0x27D CALLDATASIZE PUSH1 0x4 PUSH2 0xA2A JUMP JUMPDEST PUSH0 SWAP1 DUP2 MSTORE PUSH1 0x5 PUSH1 0x20 MSTORE PUSH1 0x40 SWAP1 KECCAK256 SLOAD PUSH1 0x1 PUSH1 0x1 PUSH1 0xA0 SHL SUB AND SWAP1 JUMP JUMPDEST PUSH2 0x1D6 PUSH1 0x7 SLOAD DUP2 JUMP JUMPDEST PUSH2 0x1D6 PUSH2 0x2AE CALLDATASIZE PUSH1 0x4 PUSH2 0xB4D JUMP JUMPDEST PUSH1 0x1 PUSH1 0x1 PUSH1 0xA0 SHL SUB AND PUSH0 SWAP1 DUP2 MSTORE PUSH1 0x6 PUSH1 0x20 MSTORE PUSH1 0x40 SWAP1 KECCAK256 SLOAD SWAP1 JUMP JUMPDEST PUSH1 0x2 SLOAD PUSH2 0x15E SWAP1 PUSH1 0x1 PUSH1 0x1 PUSH1 0xA0 SHL SUB AND DUP2 JUMP JUMPDEST PUSH1 0x1 SLOAD PUSH2 0x15E SWAP1 PUSH1 0x1 PUSH1 0x1 PUSH1 0xA0 SHL SUB AND DUP2 JUMP JUMPDEST PUSH2 0x18E PUSH2 0x2FC CALLDATASIZE PUSH1 0x4 PUSH2 0xB6D JUMP JUMPDEST PUSH2 0x63B JUMP JUMPDEST PUSH1 0x3 SLOAD PUSH2 0x15E SWAP1 PUSH1 0x1 PUSH1 0x1 PUSH1 0xA0 SHL SUB AND DUP2 JUMP JUMPDEST PUSH2 0x327 PUSH2 0x322 CALLDATASIZE PUSH1 0x4 PUSH2 0xA2A JUMP JUMPDEST PUSH2 0x6A6 JUMP JUMPDEST PUSH1 0x40 MLOAD PUSH2 0x172 SWAP2 SWAP1 PUSH2 0xBA6 JUMP JUMPDEST PUSH2 0x1D6 PUSH2 0x342 CALLDATASIZE PUSH1 0x4 PUSH2 0xBCC JUMP JUMPDEST PUSH2 0x7A1 JUMP JUMPDEST PUSH2 0x382 PUSH2 0x355 CALLDATASIZE PUSH1 0x4 PUSH2 0xA2A JUMP JUMPDEST PUSH1 0x9 PUSH1 0x20 MSTORE PUSH0 SWAP1 DUP2 MSTORE PUSH1 0x40 SWAP1 KECCAK256 DUP1 SLOAD PUSH1 0x1 SWAP1 SWAP2 ADD SLOAD PUSH1 0x1 PUSH1 0x1 PUSH1 0xA0 SHL SUB DUP2 AND SWAP1 PUSH1 0x1 PUSH1 0xA0 SHL SWAP1 DIV PUSH1 0xFF AND DUP4 JUMP JUMPDEST PUSH1 0x40 DUP1 MLOAD SWAP4 DUP5 MSTORE PUSH1 0x1 PUSH1 0x1 PUSH1 0xA0 SHL SUB SWAP1 SWAP3 AND PUSH1 0x20 DUP5 ADD MSTORE ISZERO ISZERO SWAP1 DUP3 ADD MSTORE PUSH1 0x60 ADD PUSH2 0x172 JUMP JUMPDEST PUSH2 0x1BD PUSH2 0x3B5 CALLDATASIZE PUSH1 0x4 PUSH2 0xA7F JUMP JUMPDEST PUSH2 0x8D7 JUMP JUMPDEST PUSH0 DUP2 DUP2 MSTORE PUSH1 0x5 PUSH1 0x20 MSTORE PUSH1 0x40 SWAP1 KECCAK256 SLOAD DUP2 SWAP1 PUSH1 0x1 PUSH1 0x1 PUSH1 0xA0 SHL SUB AND CALLER EQ PUSH2 0x416 JUMPI PUSH1 0x40 MLOAD PUSH3 0x461BCD PUSH1 0xE5 SHL DUP2 MSTORE PUSH1 0x20 PUSH1 0x4 DUP3 ADD MSTORE PUSH1 0xD PUSH1 0x24 DUP3 ADD MSTORE PUSH13 0x2737BA103A34329037BBB732B9 PUSH1 0x99 SHL PUSH1 0x44 DUP3 ADD MSTORE PUSH1 0x64 ADD JUMPDEST PUSH1 0x40 MLOAD DUP1 SWAP2 SUB SWAP1 REVERT JUMPDEST PUSH0 DUP3 DUP2 MSTORE PUSH1 0xA PUSH1 0x20 SWAP1 DUP2 MSTORE PUSH1 0x40 SWAP2 DUP3 SWAP1 KECCAK256 DUP1 SLOAD PUSH1 0x1 PUSH1 0x1 PUSH1 0xA0 SHL SUB NOT AND PUSH1 0x1 PUSH1 0x1 PUSH1 0xA0 SHL SUB DUP8 AND SWAP1 DUP2 OR SWAP1 SWAP2 SSTORE SWAP2 MLOAD DUP5 DUP2 MSTORE CALLER SWAP2 PUSH32 0x8C5BE1E5EBEC7D5BD14F71427D1E84F3DD0314C0F7B2291E5B200AC8C7C3B925 SWAP2 ADD PUSH1 0x40 MLOAD DUP1 SWAP2 SUB SWAP1 LOG3 POP POP POP JUMP JUMPDEST PUSH1 0x6 PUSH1 0x20 MSTORE DUP2 PUSH0 MSTORE PUSH1 0x40 PUSH0 KECCAK256 DUP2 DUP2 SLOAD DUP2 LT PUSH2 0x493 JUMPI PUSH0 DUP1 REVERT JUMPDEST SWAP1 PUSH0 MSTORE PUSH1 0x20 PUSH0 KECCAK256 ADD PUSH0 SWAP2 POP SWAP2 POP POP SLOAD DUP2 JUMP JUMPDEST CALLER PUSH1 0x1 PUSH1 0x1 PUSH1 0xA0 SHL SUB DUP5 AND EQ DUP1 PUSH2 0x4D1 JUMPI POP PUSH0 DUP2 DUP2 MSTORE PUSH1 0xA PUSH1 0x20 MSTORE PUSH1 0x40 SWAP1 KECCAK256 SLOAD PUSH1 0x1 PUSH1 0x1 PUSH1 0xA0 SHL SUB AND CALLER EQ JUMPDEST DUP1 PUSH2 0x4E1 JUMPI POP PUSH2 0x4E1 DUP4 CALLER PUSH2 0x8D7 JUMP JUMPDEST PUSH2 0x51E JUMPI PUSH1 0x40 MLOAD PUSH3 0x461BCD PUSH1 0xE5 SHL DUP2 MSTORE PUSH1 0x20 PUSH1 0x4 DUP3 ADD MSTORE PUSH1 0xE PUSH1 0x24 DUP3 ADD MSTORE PUSH14 0x139BDD08185D5D1A1BDC9A5E9959 PUSH1 0x92 SHL PUSH1 0x44 DUP3 ADD MSTORE PUSH1 0x64 ADD PUSH2 0x40D JUMP JUMPDEST PUSH0 DUP2 DUP2 MSTORE PUSH1 0x5 PUSH1 0x20 MSTORE PUSH1 0x40 SWAP1 KECCAK256 SLOAD PUSH1 0x1 PUSH1 0x1 PUSH1 0xA0 SHL SUB DUP5 DUP2 AND SWAP2 AND EQ PUSH2 0x576 JUMPI PUSH1 0x40 MLOAD PUSH3 0x461BCD PUSH1 0xE5 SHL DUP2 MSTORE PUSH1 0x20 PUSH1 0x4 DUP3 ADD MSTORE PUSH1 0xD PUSH1 0x24 DUP3 ADD MSTORE PUSH13 0x24B73B30B634B21037BBB732B9 PUSH1 0x99 SHL PUSH1 0x44 DUP3 ADD MSTORE PUSH1 0x64 ADD PUSH2 0x40D JUMP JUMPDEST PUSH2 0x581 DUP4 DUP4 DUP4 PUSH2 0x906 JUMP JUMPDEST POP POP POP JUMP JUMPDEST PUSH1 0x5 PUSH1 0x20 MSTORE PUSH0 SWAP1 DUP2 MSTORE PUSH1 0x40 SWAP1 KECCAK256 DUP1 SLOAD PUSH1 0x1 DUP3 ADD DUP1 SLOAD PUSH1 0x1 PUSH1 0x1 PUSH1 0xA0 SHL SUB SWAP1 SWAP3 AND SWAP3 SWAP2 PUSH2 0x5B1 SWAP1 PUSH2 0xC7F JUMP JUMPDEST DUP1 PUSH1 0x1F ADD PUSH1 0x20 DUP1 SWAP2 DIV MUL PUSH1 0x20 ADD PUSH1 0x40 MLOAD SWAP1 DUP2 ADD PUSH1 0x40 MSTORE DUP1 SWAP3 SWAP2 SWAP1 DUP2 DUP2 MSTORE PUSH1 0x20 ADD DUP3 DUP1 SLOAD PUSH2 0x5DD SWAP1 PUSH2 0xC7F JUMP JUMPDEST DUP1 ISZERO PUSH2 0x628 JUMPI DUP1 PUSH1 0x1F LT PUSH2 0x5FF JUMPI PUSH2 0x100 DUP1 DUP4 SLOAD DIV MUL DUP4 MSTORE SWAP2 PUSH1 0x20 ADD SWAP2 PUSH2 0x628 JUMP JUMPDEST DUP3 ADD SWAP2 SWAP1 PUSH0 MSTORE PUSH1 0x20 PUSH0 KECCAK256 SWAP1 JUMPDEST DUP2 SLOAD DUP2 MSTORE SWAP1 PUSH1 0x1 ADD SWAP1 PUSH1 0x20 ADD DUP1 DUP4 GT PUSH2 0x60B JUMPI DUP3 SWAP1 SUB PUSH1 0x1F AND DUP3 ADD SWAP2 JUMPDEST POP POP POP PUSH1 0x2 SWAP1 SWAP4 ADD SLOAD SWAP2 SWAP3 POP POP PUSH1 0xFF AND DUP4 JUMP JUMPDEST CALLER PUSH0 DUP2 DUP2 MSTORE PUSH1 0xB PUSH1 0x20 SWAP1 DUP2 MSTORE PUSH1 0x40 DUP1 DUP4 KECCAK256 PUSH1 0x1 PUSH1 0x1 PUSH1 0xA0 SHL SUB DUP8 AND DUP1 DUP6 MSTORE SWAP1 DUP4 MSTORE SWAP3 DUP2 SWAP1 KECCAK256 DUP1 SLOAD PUSH1 0xFF NOT AND DUP7 ISZERO ISZERO SWAP1 DUP2 OR SWAP1 SWAP2 SSTORE SWAP1 MLOAD SWAP1 DUP2 MSTORE SWAP2 SWAP3 SWAP2 PUSH32 0x17307EAB39AB6107E8899845AD3D59BD9653F200F220920489CA2B5937696C31 SWAP2 ADD PUSH1 0x40 MLOAD DUP1 SWAP2 SUB SWAP1 LOG3 POP POP JUMP JUMPDEST PUSH0 DUP2 DUP2 MSTORE PUSH1 0x5 PUSH1 0x20 MSTORE PUSH1 0x40 SWAP1 KECCAK256 SLOAD PUSH1 0x60 SWAP1 PUSH1 0x1 PUSH1 0x1 PUSH1 0xA0 SHL SUB AND PUSH2 0x703 JUMPI PUSH1 0x40 MLOAD PUSH3 0x461BCD PUSH1 0xE5 SHL DUP2 MSTORE PUSH1 0x20 PUSH1 0x4 DUP3 ADD MSTORE PUSH1 0x14 PUSH1 0x24 DUP3 ADD MSTORE PUSH20 0x151BDAD95B88191BD95CC81B9BDD08195E1A5CDD PUSH1 0x62 SHL PUSH1 0x44 DUP3 ADD MSTORE PUSH1 0x64 ADD PUSH2 0x40D JUMP JUMPDEST PUSH0 DUP3 DUP2 MSTORE PUSH1 0x5 PUSH1 0x20 MSTORE PUSH1 0x40 SWAP1 KECCAK256 PUSH1 0x1 ADD DUP1 SLOAD PUSH2 0x71E SWAP1 PUSH2 0xC7F JUMP JUMPDEST DUP1 PUSH1 0x1F ADD PUSH1 0x20 DUP1 SWAP2 DIV MUL PUSH1 0x20 ADD PUSH1 0x40 MLOAD SWAP1 DUP2 ADD PUSH1 0x40 MSTORE DUP1 SWAP3 SWAP2 SWAP1 DUP2 DUP2 MSTORE PUSH1 0x20 ADD DUP3 DUP1 SLOAD PUSH2 0x74A SWAP1 PUSH2 0xC7F JUMP JUMPDEST DUP1 ISZERO PUSH2 0x795 JUMPI DUP1 PUSH1 0x1F LT PUSH2 0x76C JUMPI PUSH2 0x100 DUP1 DUP4 SLOAD DIV MUL DUP4 MSTORE SWAP2 PUSH1 0x20 ADD SWAP2 PUSH2 0x795 JUMP JUMPDEST DUP3 ADD SWAP2 SWAP1 PUSH0 MSTORE PUSH1 0x20 PUSH0 KECCAK256 SWAP1 JUMPDEST DUP2 SLOAD DUP2 MSTORE SWAP1 PUSH1 0x1 ADD SWAP1 PUSH1 0x20 ADD DUP1 DUP4 GT PUSH2 0x778 JUMPI DUP3 SWAP1 SUB PUSH1 0x1F AND DUP3 ADD SWAP2 JUMPDEST POP POP POP POP POP SWAP1 POP SWAP2 SWAP1 POP JUMP JUMPDEST PUSH0 DUP1 SLOAD PUSH1 0x1 PUSH1 0x1 PUSH1 0xA0 SHL SUB AND CALLER EQ PUSH2 0x7EC JUMPI PUSH1 0x40 MLOAD PUSH3 0x461BCD PUSH1 0xE5 SHL DUP2 MSTORE PUSH1 0x20 PUSH1 0x4 DUP3 ADD MSTORE PUSH1 0xE PUSH1 0x24 DUP3 ADD MSTORE PUSH14 0x139BDD08185D5D1A1BDC9A5E9959 PUSH1 0x92 SHL PUSH1 0x44 DUP3 ADD MSTORE PUSH1 0x64 ADD PUSH2 0x40D JUMP JUMPDEST PUSH1 0x4 DUP1 SLOAD SWAP1 PUSH0 PUSH2 0x7FB DUP4 PUSH2 0xCCB JUMP JUMPDEST SWAP1 SWAP2 SSTORE POP POP PUSH1 0x4 SLOAD PUSH1 0x40 DUP1 MLOAD PUSH1 0x60 DUP2 ADD DUP3 MSTORE CALLER DUP2 MSTORE PUSH1 0x20 DUP1 DUP3 ADD DUP7 DUP2 MSTORE PUSH0 DUP4 DUP6 ADD DUP2 SWAP1 MSTORE DUP6 DUP2 MSTORE PUSH1 0x5 SWAP1 SWAP3 MSTORE SWAP3 SWAP1 KECCAK256 DUP2 MLOAD DUP2 SLOAD PUSH1 0x1 PUSH1 0x1 PUSH1 0xA0 SHL SUB NOT AND PUSH1 0x1 PUSH1 0x1 PUSH1 0xA0 SHL SUB SWAP1 SWAP2 AND OR DUP2 SSTORE SWAP2 MLOAD SWAP1 SWAP2 SWAP1 PUSH1 0x1 DUP3 ADD SWAP1 PUSH2 0x85A SWAP1 DUP3 PUSH2 0xD2E JUMP JUMPDEST POP PUSH1 0x40 SWAP2 DUP3 ADD MLOAD PUSH1 0x2 SWAP2 SWAP1 SWAP2 ADD DUP1 SLOAD PUSH1 0xFF NOT AND SWAP2 ISZERO ISZERO SWAP2 SWAP1 SWAP2 OR SWAP1 SSTORE CALLER PUSH0 DUP2 DUP2 MSTORE PUSH1 0x6 PUSH1 0x20 SWAP1 DUP2 MSTORE DUP4 DUP3 KECCAK256 DUP1 SLOAD PUSH1 0x1 DUP2 ADD DUP3 SSTORE SWAP1 DUP4 MSTORE SWAP2 KECCAK256 ADD DUP4 SWAP1 SSTORE SWAP1 MLOAD PUSH32 0xE7CD4CE7F2A465EDC730269A1305E8A48BAD821E8FB7E152EC413829C01A53C4 SWAP1 PUSH2 0x8C7 SWAP1 DUP5 SWAP1 DUP8 SWAP1 PUSH2 0xDE9 JUMP JUMPDEST PUSH1 0x40 MLOAD DUP1 SWAP2 SUB SWAP1 LOG2 SWAP1 POP JUMPDEST SWAP2 SWAP1 POP JUMP JUMPDEST PUSH1 0x1 PUSH1 0x1 PUSH1 0xA0 SHL SUB DUP1 DUP4 AND PUSH0 SWAP1 DUP2 MSTORE PUSH1 0xB PUSH1 0x20 SWAP1 DUP2 MSTORE PUSH1 0x40 DUP1 DUP4 KECCAK256 SWAP4 DUP6 AND DUP4 MSTORE SWAP3 SWAP1 MSTORE KECCAK256 SLOAD PUSH1 0xFF AND JUMPDEST SWAP3 SWAP2 POP POP JUMP JUMPDEST PUSH0 DUP2 DUP2 MSTORE PUSH1 0x5 PUSH1 0x20 SWAP1 DUP2 MSTORE PUSH1 0x40 DUP1 DUP4 KECCAK256 DUP1 SLOAD PUSH1 0x1 PUSH1 0x1 PUSH1 0xA0 SHL SUB NOT AND PUSH1 0x1 PUSH1 0x1 PUSH1 0xA0 SHL SUB DUP8 DUP2 AND SWAP2 SWAP1 SWAP2 OR SWAP1 SWAP2 SSTORE DUP7 AND DUP4 MSTORE PUSH1 0x6 SWAP1 SWAP2 MSTORE DUP2 KECCAK256 SWAP1 JUMPDEST DUP2 SLOAD DUP2 LT ISZERO PUSH2 0x9E2 JUMPI DUP3 DUP3 DUP3 DUP2 SLOAD DUP2 LT PUSH2 0x95D JUMPI PUSH2 0x95D PUSH2 0xE09 JUMP JUMPDEST SWAP1 PUSH0 MSTORE PUSH1 0x20 PUSH0 KECCAK256 ADD SLOAD SUB PUSH2 0x9DA JUMPI DUP2 SLOAD DUP3 SWAP1 PUSH2 0x97B SWAP1 PUSH1 0x1 SWAP1 PUSH2 0xE1D JUMP JUMPDEST DUP2 SLOAD DUP2 LT PUSH2 0x98B JUMPI PUSH2 0x98B PUSH2 0xE09 JUMP JUMPDEST SWAP1 PUSH0 MSTORE PUSH1 0x20 PUSH0 KECCAK256 ADD SLOAD DUP3 DUP3 DUP2 SLOAD DUP2 LT PUSH2 0x9A6 JUMPI PUSH2 0x9A6 PUSH2 0xE09 JUMP JUMPDEST SWAP1 PUSH0 MSTORE PUSH1 0x20 PUSH0 KECCAK256 ADD DUP2 SWAP1 SSTORE POP DUP2 DUP1 SLOAD DUP1 PUSH2 0x9C2 JUMPI PUSH2 0x9C2 PUSH2 0xE30 JUMP JUMPDEST PUSH1 0x1 SWAP1 SUB DUP2 DUP2 SWAP1 PUSH0 MSTORE PUSH1 0x20 PUSH0 KECCAK256 ADD PUSH0 SWAP1 SSTORE SWAP1 SSTORE PUSH2 0x9E2 JUMP JUMPDEST PUSH1 0x1 ADD PUSH2 0x941 JUMP JUMPDEST POP POP PUSH1 0x1 PUSH1 0x1 PUSH1 0xA0 SHL SUB SWAP1 SWAP2 AND PUSH0 SWAP1 DUP2 MSTORE PUSH1 0x6 PUSH1 0x20 SWAP1 DUP2 MSTORE PUSH1 0x40 DUP1 DUP4 KECCAK256 DUP1 SLOAD PUSH1 0x1 DUP2 ADD DUP3 SSTORE SWAP1 DUP5 MSTORE DUP3 DUP5 KECCAK256 ADD DUP5 SWAP1 SSTORE SWAP3 DUP3 MSTORE PUSH1 0xA SWAP1 MSTORE KECCAK256 DUP1 SLOAD PUSH1 0x1 PUSH1 0x1 PUSH1 0xA0 SHL SUB NOT AND SWAP1 SSTORE POP JUMP JUMPDEST PUSH0 PUSH1 0x20 DUP3 DUP5 SUB SLT ISZERO PUSH2 0xA3A JUMPI PUSH0 PUSH0 REVERT JUMPDEST POP CALLDATALOAD SWAP2 SWAP1 POP JUMP JUMPDEST DUP1 CALLDATALOAD PUSH1 0x1 PUSH1 0x1 PUSH1 0xA0 SHL SUB DUP2 AND DUP2 EQ PUSH2 0x8D2 JUMPI PUSH0 PUSH0 REVERT JUMPDEST PUSH0 PUSH0 PUSH1 0x40 DUP4 DUP6 SUB SLT ISZERO PUSH2 0xA68 JUMPI PUSH0 PUSH0 REVERT JUMPDEST PUSH2 0xA71 DUP4 PUSH2 0xA41 JUMP JUMPDEST SWAP5 PUSH1 0x20 SWAP4 SWAP1 SWAP4 ADD CALLDATALOAD SWAP4 POP POP POP JUMP JUMPDEST PUSH0 PUSH0 PUSH1 0x40 DUP4 DUP6 SUB SLT ISZERO PUSH2 0xA90 JUMPI PUSH0 PUSH0 REVERT JUMPDEST PUSH2 0xA99 DUP4 PUSH2 0xA41 JUMP JUMPDEST SWAP2 POP PUSH2 0xAA7 PUSH1 0x20 DUP5 ADD PUSH2 0xA41 JUMP JUMPDEST SWAP1 POP SWAP3 POP SWAP3 SWAP1 POP JUMP JUMPDEST PUSH0 PUSH0 PUSH0 PUSH1 0x60 DUP5 DUP7 SUB SLT ISZERO PUSH2 0xAC2 JUMPI PUSH0 PUSH0 REVERT JUMPDEST PUSH2 0xACB DUP5 PUSH2 0xA41 JUMP JUMPDEST SWAP3 POP PUSH2 0xAD9 PUSH1 0x20 DUP6 ADD PUSH2 0xA41 JUMP JUMPDEST SWAP3 SWAP6 SWAP3 SWAP5 POP POP POP PUSH1 0x40 SWAP2 SWAP1 SWAP2 ADD CALLDATALOAD SWAP1 JUMP JUMPDEST PUSH0 DUP2 MLOAD DUP1 DUP5 MSTORE DUP1 PUSH1 0x20 DUP5 ADD PUSH1 0x20 DUP7 ADD MCOPY PUSH0 PUSH1 0x20 DUP3 DUP7 ADD ADD MSTORE PUSH1 0x20 PUSH1 0x1F NOT PUSH1 0x1F DUP4 ADD AND DUP6 ADD ADD SWAP2 POP POP SWAP3 SWAP2 POP POP JUMP JUMPDEST PUSH1 0x1 PUSH1 0x1 PUSH1 0xA0 SHL SUB DUP5 AND DUP2 MSTORE PUSH1 0x60 PUSH1 0x20 DUP3 ADD DUP2 SWAP1 MSTORE PUSH0 SWAP1 PUSH2 0xB3B SWAP1 DUP4 ADD DUP6 PUSH2 0xAEA JUMP JUMPDEST SWAP1 POP DUP3 ISZERO ISZERO PUSH1 0x40 DUP4 ADD MSTORE SWAP5 SWAP4 POP POP POP POP JUMP JUMPDEST PUSH0 PUSH1 0x20 DUP3 DUP5 SUB SLT ISZERO PUSH2 0xB5D JUMPI PUSH0 PUSH0 REVERT JUMPDEST PUSH2 0xB66 DUP3 PUSH2 0xA41 JUMP JUMPDEST SWAP4 SWAP3 POP POP POP JUMP JUMPDEST PUSH0 PUSH0 PUSH1 0x40 DUP4 DUP6 SUB SLT ISZERO PUSH2 0xB7E JUMPI PUSH0 PUSH0 REVERT JUMPDEST PUSH2 0xB87 DUP4 PUSH2 0xA41 JUMP JUMPDEST SWAP2 POP PUSH1 0x20 DUP4 ADD CALLDATALOAD DUP1 ISZERO ISZERO DUP2 EQ PUSH2 0xB9B JUMPI PUSH0 PUSH0 REVERT JUMPDEST DUP1 SWAP2 POP POP SWAP3 POP SWAP3 SWAP1 POP JUMP JUMPDEST PUSH1 0x20 DUP2 MSTORE PUSH0 PUSH2 0xB66 PUSH1 0x20 DUP4 ADD DUP5 PUSH2 0xAEA JUMP JUMPDEST PUSH4 0x4E487B71 PUSH1 0xE0 SHL PUSH0 MSTORE PUSH1 0x41 PUSH1 0x4 MSTORE PUSH1 0x24 PUSH0 REVERT JUMPDEST PUSH0 PUSH1 0x20 DUP3 DUP5 SUB SLT ISZERO PUSH2 0xBDC JUMPI PUSH0 PUSH0 REVERT JUMPDEST DUP2 CALLDATALOAD PUSH8 0xFFFFFFFFFFFFFFFF DUP2 GT ISZERO PUSH2 0xBF2 JUMPI PUSH0 PUSH0 REVERT JUMPDEST DUP3 ADD PUSH1 0x1F DUP2 ADD DUP5 SGT PUSH2 0xC02 JUMPI PUSH0 PUSH0 REVERT JUMPDEST DUP1 CALLDATALOAD PUSH8 0xFFFFFFFFFFFFFFFF DUP2 GT ISZERO PUSH2 0xC1C JUMPI PUSH2 0xC1C PUSH2 0xBB8 JUMP JUMPDEST PUSH1 0x40 MLOAD PUSH1 0x1F DUP3 ADD PUSH1 0x1F NOT SWAP1 DUP2 AND PUSH1 0x3F ADD AND DUP2 ADD PUSH8 0xFFFFFFFFFFFFFFFF DUP2 GT DUP3 DUP3 LT OR ISZERO PUSH2 0xC4B JUMPI PUSH2 0xC4B PUSH2 0xBB8 JUMP JUMPDEST PUSH1 0x40 MSTORE DUP2 DUP2 MSTORE DUP3 DUP3 ADD PUSH1 0x20 ADD DUP7 LT ISZERO PUSH2 0xC62 JUMPI PUSH0 PUSH0 REVERT JUMPDEST DUP2 PUSH1 0x20 DUP5 ADD PUSH1 0x20 DUP4 ADD CALLDATACOPY PUSH0 SWAP2 DUP2 ADD PUSH1 0x20 ADD SWAP2 SWAP1 SWAP2 MSTORE SWAP5 SWAP4 POP POP POP POP JUMP JUMPDEST PUSH1 0x1 DUP2 DUP2 SHR SWAP1 DUP3 AND DUP1 PUSH2 0xC93 JUMPI PUSH1 0x7F DUP3 AND SWAP2 POP JUMPDEST PUSH1 0x20 DUP3 LT DUP2 SUB PUSH2 0xCB1 JUMPI PUSH4 0x4E487B71 PUSH1 0xE0 SHL PUSH0 MSTORE PUSH1 0x22 PUSH1 0x4 MSTORE PUSH1 0x24 PUSH0 REVERT JUMPDEST POP SWAP2 SWAP1 POP JUMP JUMPDEST PUSH4 0x4E487B71 PUSH1 0xE0 SHL PUSH0 MSTORE PUSH1 0x11 PUSH1 0x4 MSTORE PUSH1 0x24 PUSH0 REVERT JUMPDEST PUSH0 PUSH1 0x1 DUP3 ADD PUSH2 0xCDC JUMPI PUSH2 0xCDC PUSH2 0xCB7 JUMP JUMPDEST POP PUSH1 0x1 ADD SWAP1 JUMP JUMPDEST PUSH1 0x1F DUP3 GT ISZERO PUSH2 0x581 JUMPI DUP1 PUSH0 MSTORE PUSH1 0x20 PUSH0 KECCAK256 PUSH1 0x1F DUP5 ADD PUSH1 0x5 SHR DUP2 ADD PUSH1 0x20 DUP6 LT ISZERO PUSH2 0xD08 JUMPI POP DUP1 JUMPDEST PUSH1 0x1F DUP5 ADD PUSH1 0x5 SHR DUP3 ADD SWAP2 POP JUMPDEST DUP2 DUP2 LT ISZERO PUSH2 0xD27 JUMPI PUSH0 DUP2 SSTORE PUSH1 0x1 ADD PUSH2 0xD14 JUMP JUMPDEST POP POP POP POP POP JUMP JUMPDEST DUP2 MLOAD PUSH8 0xFFFFFFFFFFFFFFFF DUP2 GT ISZERO PUSH2 0xD48 JUMPI PUSH2 0xD48 PUSH2 0xBB8 JUMP JUMPDEST PUSH2 0xD5C DUP2 PUSH2 0xD56 DUP5 SLOAD PUSH2 0xC7F JUMP JUMPDEST DUP5 PUSH2 0xCE3 JUMP JUMPDEST PUSH1 0x20 PUSH1 0x1F DUP3 GT PUSH1 0x1 DUP2 EQ PUSH2 0xD8E JUMPI PUSH0 DUP4 ISZERO PUSH2 0xD77 JUMPI POP DUP5 DUP3 ADD MLOAD JUMPDEST PUSH0 NOT PUSH1 0x3 DUP6 SWAP1 SHL SHR NOT AND PUSH1 0x1 DUP5 SWAP1 SHL OR DUP5 SSTORE PUSH2 0xD27 JUMP JUMPDEST PUSH0 DUP5 DUP2 MSTORE PUSH1 0x20 DUP2 KECCAK256 PUSH1 0x1F NOT DUP6 AND SWAP2 JUMPDEST DUP3 DUP2 LT ISZERO PUSH2 0xDBD JUMPI DUP8 DUP6 ADD MLOAD DUP3 SSTORE PUSH1 0x20 SWAP5 DUP6 ADD SWAP5 PUSH1 0x1 SWAP1 SWAP3 ADD SWAP2 ADD PUSH2 0xD9D JUMP JUMPDEST POP DUP5 DUP3 LT ISZERO PUSH2 0xDDA JUMPI DUP7 DUP5 ADD MLOAD PUSH0 NOT PUSH1 0x3 DUP8 SWAP1 SHL PUSH1 0xF8 AND SHR NOT AND DUP2 SSTORE JUMPDEST POP POP POP POP PUSH1 0x1 SWAP1 DUP2 SHL ADD SWAP1 SSTORE POP JUMP JUMPDEST DUP3 DUP2 MSTORE PUSH1 0x40 PUSH1 0x20 DUP3 ADD MSTORE PUSH0 PUSH2 0xE01 PUSH1 0x40 DUP4 ADD DUP5 PUSH2 0xAEA JUMP JUMPDEST SWAP5 SWAP4 POP POP POP POP JUMP JUMPDEST PUSH4 0x4E487B71 PUSH1 0xE0 SHL PUSH0 MSTORE PUSH1 0x32 PUSH1 0x4 MSTORE PUSH1 0x24 PUSH0 REVERT JUMPDEST DUP2 DUP2 SUB DUP2 DUP2 GT ISZERO PUSH2 0x900 JUMPI PUSH2 0x900 PUSH2 0xCB7 JUMP JUMPDEST PUSH4 0x4E487B71 PUSH1 0xE0 SHL PUSH0 MSTORE PUSH1 0x31 PUSH1 0x4 MSTORE PUSH1 0x24 PUSH0 REVERT INVALID LOG2 PUSH5 0x6970667358 0x22 SLT KECCAK256 CREATE CODECOPY EXTDELEGATECALL 0xDA EXTCODESIZE 0x4F 0xC1 PUSH30 0x73932BB02ED881C314A683884D6D6CDD953755451D920C6D64736F6C6343 STOP ADDMOD SAR STOP CALLER "
				},
				"gasEstimates": {
					"creation": {
						"codeDepositCost": "741200",
						"executionCost": "771",
						"totalCost": "741971"
					},
					"external": {
						"approvals(uint256)": "2574",
						"approve(address,uint256)": "28732",
						"balanceOf(address)": "2601",
						"burnAddress()": "2414",
						"dao()": "2413",
						"devWallet()": "2436",
						"getApproved(uint256)": "2487",
						"isApprovedForAll(address,address)": "infinite",
						"listingFee()": "2339",
						"listings(uint256)": "4770",
						"mint(string)": "infinite",
						"nfts(uint256)": "infinite",
						"operatorApprovals(address,address)": "infinite",
						"ownedNFTs(address,uint256)": "4759",
						"ownerOf(uint256)": "2486",
						"rhemToken()": "2369",
						"saleFee()": "2384",
						"setApprovalForAll(address,bool)": "26603",
						"tokenURI(uint256)": "infinite",
						"totalSupply()": "2406",
						"transferFrom(address,address,uint256)": "infinite"
					},
					"internal": {
						"_transferNFT(address,address,uint256)": "infinite"
					}
				},
				"methodIdentifiers": {
					"approvals(uint256)": "63035f66",
					"approve(address,uint256)": "095ea7b3",
					"balanceOf(address)": "70a08231",
					"burnAddress()": "70d5ae05",
					"dao()": "4162169f",
					"devWallet()": "8ea5220f",
					"getApproved(uint256)": "081812fc",
					"isApprovedForAll(address,address)": "e985e9c5",
					"listingFee()": "6a1b7ecc",
					"listings(uint256)": "de74e57b",
					"mint(string)": "d85d3d27",
					"nfts(uint256)": "265aa621",
					"operatorApprovals(address,address)": "0d95e054",
					"ownedNFTs(address,uint256)": "1a72b87d",
					"ownerOf(uint256)": "6352211e",
					"rhemToken()": "a6d74512",
					"saleFee()": "178021e3",
					"setApprovalForAll(address,bool)": "a22cb465",
					"tokenURI(uint256)": "c87b56dd",
					"totalSupply()": "18160ddd",
					"transferFrom(address,address,uint256)": "23b872dd"
				}
			},
			"storageLayout": {
				"storage": [
					{
						"astId": 70,
						"contract": "contracts/NFTMarketplacePart2.sol:NFTMarketplacePart2",
						"label": "dao",
						"offset": 0,
						"slot": "0",
						"type": "t_address"
					},
					{
						"astId": 72,
						"contract": "contracts/NFTMarketplacePart2.sol:NFTMarketplacePart2",
						"label": "devWallet",
						"offset": 0,
						"slot": "1",
						"type": "t_address"
					},
					{
						"astId": 74,
						"contract": "contracts/NFTMarketplacePart2.sol:NFTMarketplacePart2",
						"label": "burnAddress",
						"offset": 0,
						"slot": "2",
						"type": "t_address"
					},
					{
						"astId": 77,
						"contract": "contracts/NFTMarketplacePart2.sol:NFTMarketplacePart2",
						"label": "rhemToken",
						"offset": 0,
						"slot": "3",
						"type": "t_contract(IERC20)68"
					},
					{
						"astId": 79,
						"contract": "contracts/NFTMarketplacePart2.sol:NFTMarketplacePart2",
						"label": "totalSupply",
						"offset": 0,
						"slot": "4",
						"type": "t_uint256"
					},
					{
						"astId": 84,
						"contract": "contracts/NFTMarketplacePart2.sol:NFTMarketplacePart2",
						"label": "nfts",
						"offset": 0,
						"slot": "5",
						"type": "t_mapping(t_uint256,t_struct(NFT)96_storage)"
					},
					{
						"astId": 89,
						"contract": "contracts/NFTMarketplacePart2.sol:NFTMarketplacePart2",
						"label": "ownedNFTs",
						"offset": 0,
						"slot": "6",
						"type": "t_mapping(t_address,t_array(t_uint256)dyn_storage)"
					},
					{
						"astId": 177,
						"contract": "contracts/NFTMarketplacePart2.sol:NFTMarketplacePart2",
						"label": "listingFee",
						"offset": 0,
						"slot": "7",
						"type": "t_uint256"
					},
					{
						"astId": 179,
						"contract": "contracts/NFTMarketplacePart2.sol:NFTMarketplacePart2",
						"label": "saleFee",
						"offset": 0,
						"slot": "8",
						"type": "t_uint256"
					},
					{
						"astId": 184,
						"contract": "contracts/NFTMarketplacePart2.sol:NFTMarketplacePart2",
						"label": "listings",
						"offset": 0,
						"slot": "9",
						"type": "t_mapping(t_uint256,t_struct(Listing)201_storage)"
					},
					{
						"astId": 188,
						"contract": "contracts/NFTMarketplacePart2.sol:NFTMarketplacePart2",
						"label": "approvals",
						"offset": 0,
						"slot": "10",
						"type": "t_mapping(t_uint256,t_address)"
					},
					{
						"astId": 194,
						"contract": "contracts/NFTMarketplacePart2.sol:NFTMarketplacePart2",
						"label": "operatorApprovals",
						"offset": 0,
						"slot": "11",
						"type": "t_mapping(t_address,t_mapping(t_address,t_bool))"
					}
				],
				"types": {
					"t_address": {
						"encoding": "inplace",
						"label": "address",
						"numberOfBytes": "20"
					},
					"t_array(t_uint256)dyn_storage": {
						"base": "t_uint256",
						"encoding": "dynamic_array",
						"label": "uint256[]",
						"numberOfBytes": "32"
					},
					"t_bool": {
						"encoding": "inplace",
						"label": "bool",
						"numberOfBytes": "1"
					},
					"t_contract(IERC20)68": {
						"encoding": "inplace",
						"label": "contract IERC20",
						"numberOfBytes": "20"
					},
					"t_mapping(t_address,t_array(t_uint256)dyn_storage)": {
						"encoding": "mapping",
						"key": "t_address",
						"label": "mapping(address => uint256[])",
						"numberOfBytes": "32",
						"value": "t_array(t_uint256)dyn_storage"
					},
					"t_mapping(t_address,t_bool)": {
						"encoding": "mapping",
						"key": "t_address",
						"label": "mapping(address => bool)",
						"numberOfBytes": "32",
						"value": "t_bool"
					},
					"t_mapping(t_address,t_mapping(t_address,t_bool))": {
						"encoding": "mapping",
						"key": "t_address",
						"label": "mapping(address => mapping(address => bool))",
						"numberOfBytes": "32",
						"value": "t_mapping(t_address,t_bool)"
					},
					"t_mapping(t_uint256,t_address)": {
						"encoding": "mapping",
						"key": "t_uint256",
						"label": "mapping(uint256 => address)",
						"numberOfBytes": "32",
						"value": "t_address"
					},
					"t_mapping(t_uint256,t_struct(Listing)201_storage)": {
						"encoding": "mapping",
						"key": "t_uint256",
						"label": "mapping(uint256 => struct NFTMarketplacePart2.Listing)",
						"numberOfBytes": "32",
						"value": "t_struct(Listing)201_storage"
					},
					"t_mapping(t_uint256,t_struct(NFT)96_storage)": {
						"encoding": "mapping",
						"key": "t_uint256",
						"label": "mapping(uint256 => struct NFTMarketplacePart1.NFT)",
						"numberOfBytes": "32",
						"value": "t_struct(NFT)96_storage"
					},
					"t_string_storage": {
						"encoding": "bytes",
						"label": "string",
						"numberOfBytes": "32"
					},
					"t_struct(Listing)201_storage": {
						"encoding": "inplace",
						"label": "struct NFTMarketplacePart2.Listing",
						"members": [
							{
								"astId": 196,
								"contract": "contracts/NFTMarketplacePart2.sol:NFTMarketplacePart2",
								"label": "price",
								"offset": 0,
								"slot": "0",
								"type": "t_uint256"
							},
							{
								"astId": 198,
								"contract": "contracts/NFTMarketplacePart2.sol:NFTMarketplacePart2",
								"label": "owner",
								"offset": 0,
								"slot": "1",
								"type": "t_address"
							},
							{
								"astId": 200,
								"contract": "contracts/NFTMarketplacePart2.sol:NFTMarketplacePart2",
								"label": "listed",
								"offset": 20,
								"slot": "1",
								"type": "t_bool"
							}
						],
						"numberOfBytes": "64"
					},
					"t_struct(NFT)96_storage": {
						"encoding": "inplace",
						"label": "struct NFTMarketplacePart1.NFT",
						"members": [
							{
								"astId": 91,
								"contract": "contracts/NFTMarketplacePart2.sol:NFTMarketplacePart2",
								"label": "owner",
								"offset": 0,
								"slot": "0",
								"type": "t_address"
							},
							{
								"astId": 93,
								"contract": "contracts/NFTMarketplacePart2.sol:NFTMarketplacePart2",
								"label": "tokenURI",
								"offset": 0,
								"slot": "1",
								"type": "t_string_storage"
							},
							{
								"astId": 95,
								"contract": "contracts/NFTMarketplacePart2.sol:NFTMarketplacePart2",
								"label": "listed",
								"offset": 0,
								"slot": "2",
								"type": "t_bool"
							}
						],
						"numberOfBytes": "96"
					},
					"t_uint256": {
						"encoding": "inplace",
						"label": "uint256",
						"numberOfBytes": "32"
					}
				}
			},
			"userdoc": {
				"kind": "user",
				"methods": {},
				"version": 1
			}
		}
	}
}