{
	"contracts/NFTMarketplacePart1.sol": {
		"NFTMarketplacePart1": {
			"abi": [
				{
					"anonymous": false,
					"inputs": [
						{
							"indexed": true,
							"internalType": "address",
							"name": "owner",
							"type": "address"
						},
						{
							"indexed": true,
							"internalType": "address",
							"name": "approved",
							"type": "address"
						},
						{
							"indexed": false,
							"internalType": "uint256",
							"name": "tokenId",
							"type": "uint256"
						}
					],
					"name": "Approval",
					"type": "event"
				},
				{
					"anonymous": false,
					"inputs": [
						{
							"indexed": true,
							"internalType": "address",
							"name": "owner",
							"type": "address"
						},
						{
							"indexed": true,
							"internalType": "address",
							"name": "operator",
							"type": "address"
						},
						{
							"indexed": false,
							"internalType": "bool",
							"name": "approved",
							"type": "bool"
						}
					],
					"name": "ApprovalForAll",
					"type": "event"
				},
				{
					"anonymous": false,
					"inputs": [
						{
							"indexed": true,
							"internalType": "address",
							"name": "owner",
							"type": "address"
						},
						{
							"indexed": false,
							"internalType": "uint256",
							"name": "tokenId",
							"type": "uint256"
						},
						{
							"indexed": false,
							"internalType": "string",
							"name": "tokenURI",
							"type": "string"
						}
					],
					"name": "Minted",
					"type": "event"
				},
				{
					"anonymous": false,
					"inputs": [
						{
							"indexed": true,
							"internalType": "address",
							"name": "owner",
							"type": "address"
						},
						{
							"indexed": false,
							"internalType": "uint256",
							"name": "tokenId",
							"type": "uint256"
						},
						{
							"indexed": false,
							"internalType": "uint256",
							"name": "price",
							"type": "uint256"
						}
					],
					"name": "NFTListed",
					"type": "event"
				},
				{
					"anonymous": false,
					"inputs": [
						{
							"indexed": true,
							"internalType": "address",
							"name": "buyer",
							"type": "address"
						},
						{
							"indexed": false,
							"internalType": "uint256",
							"name": "tokenId",
							"type": "uint256"
						},
						{
							"indexed": false,
							"internalType": "uint256",
							"name": "price",
							"type": "uint256"
						}
					],
					"name": "NFTSold",
					"type": "event"
				},
				{
					"anonymous": false,
					"inputs": [
						{
							"indexed": false,
							"internalType": "uint256",
							"name": "tokenId",
							"type": "uint256"
						}
					],
					"name": "NFTUnlisted",
					"type": "event"
				},
				{
					"inputs": [],
					"name": "burnAddress",
					"outputs": [
						{
							"internalType": "address",
							"name": "",
							"type": "address"
						}
					],
					"stateMutability": "view",
					"type": "function"
				},
				{
					"inputs": [],
					"name": "dao",
					"outputs": [
						{
							"internalType": "address",
							"name": "",
							"type": "address"
						}
					],
					"stateMutability": "view",
					"type": "function"
				},
				{
					"inputs": [],
					"name": "devWallet",
					"outputs": [
						{
							"internalType": "address",
							"name": "",
							"type": "address"
						}
					],
					"stateMutability": "view",
					"type": "function"
				},
				{
					"inputs": [
						{
							"internalType": "uint256",
							"name": "",
							"type": "uint256"
						}
					],
					"name": "nfts",
					"outputs": [
						{
							"internalType": "address",
							"name": "owner",
							"type": "address"
						},
						{
							"internalType": "string",
							"name": "tokenURI",
							"type": "string"
						},
						{
							"internalType": "bool",
							"name": "listed",
							"type": "bool"
						}
					],
					"stateMutability": "view",
					"type": "function"
				},
				{
					"inputs": [
						{
							"internalType": "address",
							"name": "",
							"type": "address"
						},
						{
							"internalType": "uint256",
							"name": "",
							"type": "uint256"
						}
					],
					"name": "ownedNFTs",
					"outputs": [
						{
							"internalType": "uint256",
							"name": "",
							"type": "uint256"
						}
					],
					"stateMutability": "view",
					"type": "function"
				},
				{
					"inputs": [],
					"name": "rhemToken",
					"outputs": [
						{
							"internalType": "contract IERC20",
							"name": "",
							"type": "address"
						}
					],
					"stateMutability": "view",
					"type": "function"
				},
				{
					"inputs": [],
					"name": "totalSupply",
					"outputs": [
						{
							"internalType": "uint256",
							"name": "",
							"type": "uint256"
						}
					],
					"stateMutability": "view",
					"type": "function"
				}
			],
			"devdoc": {
				"kind": "dev",
				"methods": {},
				"version": 1
			},
			"evm": {
				"assembly": "    /* \"contracts/NFTMarketplacePart1.sol\":740:1808  contract NFTMarketplacePart1 {... */\n  mstore(0x40, 0x80)\n  callvalue\n  dup1\n  iszero\n  tag_1\n  jumpi\n  revert(0x00, 0x00)\ntag_1:\n  pop\n  dataSize(sub_0)\n  dup1\n  dataOffset(sub_0)\n  0x00\n  codecopy\n  0x00\n  return\nstop\n\nsub_0: assembly {\n        /* \"contracts/NFTMarketplacePart1.sol\":740:1808  contract NFTMarketplacePart1 {... */\n      mstore(0x40, 0x80)\n      callvalue\n      dup1\n      iszero\n      tag_1\n      jumpi\n      revert(0x00, 0x00)\n    tag_1:\n      pop\n      jumpi(tag_2, lt(calldatasize, 0x04))\n      shr(0xe0, calldataload(0x00))\n      dup1\n      0x4162169f\n      gt\n      tag_10\n      jumpi\n      dup1\n      0x4162169f\n      eq\n      tag_6\n      jumpi\n      dup1\n      0x70d5ae05\n      eq\n      tag_7\n      jumpi\n      dup1\n      0x8ea5220f\n      eq\n      tag_8\n      jumpi\n      dup1\n      0xa6d74512\n      eq\n      tag_9\n      jumpi\n      revert(0x00, 0x00)\n    tag_10:\n      dup1\n      0x18160ddd\n      eq\n      tag_3\n      jumpi\n      dup1\n      0x1a72b87d\n      eq\n      tag_4\n      jumpi\n      dup1\n      0x265aa621\n      eq\n      tag_5\n      jumpi\n    tag_2:\n      revert(0x00, 0x00)\n        /* \"contracts/NFTMarketplacePart1.sol\":895:921  uint256 public totalSupply */\n    tag_3:\n      tag_11\n      sload(0x04)\n      dup2\n      jump\n    tag_11:\n      mload(0x40)\n        /* \"#utility.yul\":160:185   */\n      swap1\n      dup2\n      mstore\n        /* \"#utility.yul\":148:150   */\n      0x20\n        /* \"#utility.yul\":133:151   */\n      add\n        /* \"contracts/NFTMarketplacePart1.sol\":895:921  uint256 public totalSupply */\n    tag_13:\n      mload(0x40)\n      dup1\n      swap2\n      sub\n      swap1\n      return\n        /* \"contracts/NFTMarketplacePart1.sol\":972:1018  mapping(address => uint256[]) public ownedNFTs */\n    tag_4:\n      tag_11\n      tag_16\n      calldatasize\n      0x04\n      tag_17\n      jump\t// in\n    tag_16:\n      tag_18\n      jump\t// in\n        /* \"contracts/NFTMarketplacePart1.sol\":930:965  mapping(uint256 => NFT) public nfts */\n    tag_5:\n      tag_20\n      tag_21\n      calldatasize\n      0x04\n      tag_22\n      jump\t// in\n    tag_21:\n      tag_23\n      jump\t// in\n    tag_20:\n      mload(0x40)\n      tag_13\n      swap4\n      swap3\n      swap2\n      swap1\n      tag_25\n      jump\t// in\n        /* \"contracts/NFTMarketplacePart1.sol\":776:794  address public dao */\n    tag_6:\n      sload(0x00)\n      tag_26\n      swap1\n      sub(shl(0xa0, 0x01), 0x01)\n      and\n      dup2\n      jump\n    tag_26:\n      mload(0x40)\n      sub(shl(0xa0, 0x01), 0x01)\n        /* \"#utility.yul\":1606:1638   */\n      swap1\n      swap2\n      and\n        /* \"#utility.yul\":1588:1639   */\n      dup2\n      mstore\n        /* \"#utility.yul\":1576:1578   */\n      0x20\n        /* \"#utility.yul\":1561:1579   */\n      add\n        /* \"contracts/NFTMarketplacePart1.sol\":776:794  address public dao */\n      tag_13\n        /* \"#utility.yul\":1442:1645   */\n      jump\n        /* \"contracts/NFTMarketplacePart1.sol\":832:858  address public burnAddress */\n    tag_7:\n      sload(0x02)\n      tag_26\n      swap1\n      sub(shl(0xa0, 0x01), 0x01)\n      and\n      dup2\n      jump\n        /* \"contracts/NFTMarketplacePart1.sol\":801:825  address public devWallet */\n    tag_8:\n      sload(0x01)\n      tag_26\n      swap1\n      sub(shl(0xa0, 0x01), 0x01)\n      and\n      dup2\n      jump\n        /* \"contracts/NFTMarketplacePart1.sol\":865:888  IERC20 public rhemToken */\n    tag_9:\n      sload(0x03)\n      tag_26\n      swap1\n      sub(shl(0xa0, 0x01), 0x01)\n      and\n      dup2\n      jump\n        /* \"contracts/NFTMarketplacePart1.sol\":972:1018  mapping(address => uint256[]) public ownedNFTs */\n    tag_18:\n      mstore(0x20, 0x06)\n      dup2\n      0x00\n      mstore\n      keccak256(0x00, 0x40)\n      dup2\n      dup2\n      sload\n      dup2\n      lt\n      tag_40\n      jumpi\n      0x00\n      dup1\n      revert\n    tag_40:\n      swap1\n      0x00\n      mstore\n      keccak256(0x00, 0x20)\n      add\n      0x00\n      swap2\n      pop\n      swap2\n      pop\n      pop\n      sload\n      dup2\n      jump\t// out\n        /* \"contracts/NFTMarketplacePart1.sol\":930:965  mapping(uint256 => NFT) public nfts */\n    tag_23:\n      mstore(0x20, 0x05)\n      0x00\n      swap1\n      dup2\n      mstore\n      0x40\n      swap1\n      keccak256\n      dup1\n      sload\n      0x01\n      dup3\n      add\n      dup1\n      sload\n      sub(shl(0xa0, 0x01), 0x01)\n      swap1\n      swap3\n      and\n      swap3\n      swap2\n      tag_42\n      swap1\n      tag_43\n      jump\t// in\n    tag_42:\n      dup1\n      0x1f\n      add\n      0x20\n      dup1\n      swap2\n      div\n      mul\n      0x20\n      add\n      mload(0x40)\n      swap1\n      dup2\n      add\n      0x40\n      mstore\n      dup1\n      swap3\n      swap2\n      swap1\n      dup2\n      dup2\n      mstore\n      0x20\n      add\n      dup3\n      dup1\n      sload\n      tag_44\n      swap1\n      tag_43\n      jump\t// in\n    tag_44:\n      dup1\n      iszero\n      tag_45\n      jumpi\n      dup1\n      0x1f\n      lt\n      tag_46\n      jumpi\n      0x0100\n      dup1\n      dup4\n      sload\n      div\n      mul\n      dup4\n      mstore\n      swap2\n      0x20\n      add\n      swap2\n      jump(tag_45)\n    tag_46:\n      dup3\n      add\n      swap2\n      swap1\n      0x00\n      mstore\n      keccak256(0x00, 0x20)\n      swap1\n    tag_47:\n      dup2\n      sload\n      dup2\n      mstore\n      swap1\n      0x01\n      add\n      swap1\n      0x20\n      add\n      dup1\n      dup4\n      gt\n      tag_47\n      jumpi\n      dup3\n      swap1\n      sub\n      0x1f\n      and\n      dup3\n      add\n      swap2\n    tag_45:\n      pop\n      pop\n      pop\n      0x02\n      swap1\n      swap4\n      add\n      sload\n      swap2\n      swap3\n      pop\n      pop\n      0xff\n      and\n      dup4\n      jump\t// out\n        /* \"#utility.yul\":196:602   */\n    tag_17:\n        /* \"#utility.yul\":264:270   */\n      0x00\n        /* \"#utility.yul\":272:278   */\n      0x00\n        /* \"#utility.yul\":325:327   */\n      0x40\n        /* \"#utility.yul\":313:322   */\n      dup4\n        /* \"#utility.yul\":304:311   */\n      dup6\n        /* \"#utility.yul\":300:323   */\n      sub\n        /* \"#utility.yul\":296:328   */\n      slt\n        /* \"#utility.yul\":293:345   */\n      iszero\n      tag_51\n      jumpi\n        /* \"#utility.yul\":341:342   */\n      0x00\n        /* \"#utility.yul\":338:339   */\n      0x00\n        /* \"#utility.yul\":331:343   */\n      revert\n        /* \"#utility.yul\":293:345   */\n    tag_51:\n        /* \"#utility.yul\":367:390   */\n      dup3\n      calldataload\n      sub(shl(0xa0, 0x01), 0x01)\n        /* \"#utility.yul\":419:450   */\n      dup2\n      and\n        /* \"#utility.yul\":409:451   */\n      dup2\n      eq\n        /* \"#utility.yul\":399:469   */\n      tag_52\n      jumpi\n        /* \"#utility.yul\":465:466   */\n      0x00\n        /* \"#utility.yul\":462:463   */\n      0x00\n        /* \"#utility.yul\":455:467   */\n      revert\n        /* \"#utility.yul\":399:469   */\n    tag_52:\n        /* \"#utility.yul\":488:493   */\n      swap5\n        /* \"#utility.yul\":566:568   */\n      0x20\n        /* \"#utility.yul\":551:569   */\n      swap4\n      swap1\n      swap4\n      add\n        /* \"#utility.yul\":538:570   */\n      calldataload\n      swap4\n      pop\n      pop\n      pop\n        /* \"#utility.yul\":196:602   */\n      jump\t// out\n        /* \"#utility.yul\":607:833   */\n    tag_22:\n        /* \"#utility.yul\":666:672   */\n      0x00\n        /* \"#utility.yul\":719:721   */\n      0x20\n        /* \"#utility.yul\":707:716   */\n      dup3\n        /* \"#utility.yul\":698:705   */\n      dup5\n        /* \"#utility.yul\":694:717   */\n      sub\n        /* \"#utility.yul\":690:722   */\n      slt\n        /* \"#utility.yul\":687:739   */\n      iszero\n      tag_54\n      jumpi\n        /* \"#utility.yul\":735:736   */\n      0x00\n        /* \"#utility.yul\":732:733   */\n      0x00\n        /* \"#utility.yul\":725:737   */\n      revert\n        /* \"#utility.yul\":687:739   */\n    tag_54:\n      pop\n        /* \"#utility.yul\":780:803   */\n      calldataload\n      swap2\n        /* \"#utility.yul\":607:833   */\n      swap1\n      pop\n      jump\t// out\n        /* \"#utility.yul\":838:1437   */\n    tag_25:\n        /* \"#utility.yul\":1066:1067   */\n      0x01\n        /* \"#utility.yul\":1062:1063   */\n      dup1\n        /* \"#utility.yul\":1057:1060   */\n      0xa0\n        /* \"#utility.yul\":1053:1064   */\n      shl\n        /* \"#utility.yul\":1049:1068   */\n      sub\n        /* \"#utility.yul\":1041:1047   */\n      dup5\n        /* \"#utility.yul\":1037:1069   */\n      and\n        /* \"#utility.yul\":1026:1035   */\n      dup2\n        /* \"#utility.yul\":1019:1070   */\n      mstore\n        /* \"#utility.yul\":1106:1108   */\n      0x60\n        /* \"#utility.yul\":1101:1103   */\n      0x20\n        /* \"#utility.yul\":1090:1099   */\n      dup3\n        /* \"#utility.yul\":1086:1104   */\n      add\n        /* \"#utility.yul\":1079:1109   */\n      mstore\n        /* \"#utility.yul\":1000:1004   */\n      0x00\n        /* \"#utility.yul\":1138:1144   */\n      dup4\n        /* \"#utility.yul\":1132:1145   */\n      mload\n        /* \"#utility.yul\":1181:1187   */\n      dup1\n        /* \"#utility.yul\":1176:1178   */\n      0x60\n        /* \"#utility.yul\":1165:1174   */\n      dup5\n        /* \"#utility.yul\":1161:1179   */\n      add\n        /* \"#utility.yul\":1154:1188   */\n      mstore\n        /* \"#utility.yul\":1241:1247   */\n      dup1\n        /* \"#utility.yul\":1236:1238   */\n      0x20\n        /* \"#utility.yul\":1228:1234   */\n      dup7\n        /* \"#utility.yul\":1224:1239   */\n      add\n        /* \"#utility.yul\":1218:1221   */\n      0x80\n        /* \"#utility.yul\":1207:1216   */\n      dup6\n        /* \"#utility.yul\":1203:1222   */\n      add\n        /* \"#utility.yul\":1197:1248   */\n      mcopy\n        /* \"#utility.yul\":1298:1299   */\n      0x00\n        /* \"#utility.yul\":1292:1295   */\n      0x80\n        /* \"#utility.yul\":1283:1289   */\n      dup3\n        /* \"#utility.yul\":1272:1281   */\n      dup6\n        /* \"#utility.yul\":1268:1290   */\n      add\n        /* \"#utility.yul\":1264:1296   */\n      add\n        /* \"#utility.yul\":1257:1300   */\n      mstore\n        /* \"#utility.yul\":1368:1371   */\n      0x80\n        /* \"#utility.yul\":1361:1363   */\n      0x1f\n        /* \"#utility.yul\":1357:1364   */\n      not\n        /* \"#utility.yul\":1352:1354   */\n      0x1f\n        /* \"#utility.yul\":1344:1350   */\n      dup4\n        /* \"#utility.yul\":1340:1355   */\n      add\n        /* \"#utility.yul\":1336:1365   */\n      and\n        /* \"#utility.yul\":1325:1334   */\n      dup5\n        /* \"#utility.yul\":1321:1366   */\n      add\n        /* \"#utility.yul\":1317:1372   */\n      add\n        /* \"#utility.yul\":1309:1372   */\n      swap2\n      pop\n      pop\n        /* \"#utility.yul\":1422:1428   */\n      dup3\n        /* \"#utility.yul\":1415:1429   */\n      iszero\n        /* \"#utility.yul\":1408:1430   */\n      iszero\n        /* \"#utility.yul\":1403:1405   */\n      0x40\n        /* \"#utility.yul\":1392:1401   */\n      dup4\n        /* \"#utility.yul\":1388:1406   */\n      add\n        /* \"#utility.yul\":1381:1431   */\n      mstore\n        /* \"#utility.yul\":838:1437   */\n      swap5\n      swap4\n      pop\n      pop\n      pop\n      pop\n      jump\t// out\n        /* \"#utility.yul\":1871:2251   */\n    tag_43:\n        /* \"#utility.yul\":1950:1951   */\n      0x01\n        /* \"#utility.yul\":1946:1958   */\n      dup2\n      dup2\n      shr\n      swap1\n        /* \"#utility.yul\":1993:2005   */\n      dup3\n      and\n      dup1\n        /* \"#utility.yul\":2014:2075   */\n      tag_59\n      jumpi\n        /* \"#utility.yul\":2068:2072   */\n      0x7f\n        /* \"#utility.yul\":2060:2066   */\n      dup3\n        /* \"#utility.yul\":2056:2073   */\n      and\n        /* \"#utility.yul\":2046:2073   */\n      swap2\n      pop\n        /* \"#utility.yul\":2014:2075   */\n    tag_59:\n        /* \"#utility.yul\":2121:2123   */\n      0x20\n        /* \"#utility.yul\":2113:2119   */\n      dup3\n        /* \"#utility.yul\":2110:2124   */\n      lt\n        /* \"#utility.yul\":2090:2108   */\n      dup2\n        /* \"#utility.yul\":2087:2125   */\n      sub\n        /* \"#utility.yul\":2084:2245   */\n      tag_60\n      jumpi\n        /* \"#utility.yul\":2167:2177   */\n      0x4e487b71\n        /* \"#utility.yul\":2162:2165   */\n      0xe0\n        /* \"#utility.yul\":2158:2178   */\n      shl\n        /* \"#utility.yul\":2155:2156   */\n      0x00\n        /* \"#utility.yul\":2148:2179   */\n      mstore\n        /* \"#utility.yul\":2202:2206   */\n      0x22\n        /* \"#utility.yul\":2199:2200   */\n      0x04\n        /* \"#utility.yul\":2192:2207   */\n      mstore\n        /* \"#utility.yul\":2230:2234   */\n      0x24\n        /* \"#utility.yul\":2227:2228   */\n      0x00\n        /* \"#utility.yul\":2220:2235   */\n      revert\n        /* \"#utility.yul\":2084:2245   */\n    tag_60:\n      pop\n        /* \"#utility.yul\":1871:2251   */\n      swap2\n      swap1\n      pop\n      jump\t// out\n\n    auxdata: 0xa26469706673582212202142354ab2501b535c0a8a417f82dd839eee1f22325759e3712478f19257dfac64736f6c634300081d0033\n}\n",
				"bytecode": {
					"linkReferences": {},
					"object": "6080604052348015600e575f5ffd5b506103198061001c5f395ff3fe608060405234801561000f575f5ffd5b506004361061007a575f3560e01c80634162169f116100585780634162169f146100cf57806370d5ae05146100f95780638ea5220f1461010c578063a6d745121461011f575f5ffd5b806318160ddd1461007e5780631a72b87d1461009a578063265aa621146100ad575b5f5ffd5b61008760045481565b6040519081526020015b60405180910390f35b6100876100a8366004610212565b610132565b6100c06100bb366004610247565b61015d565b6040516100919392919061025e565b5f546100e1906001600160a01b031681565b6040516001600160a01b039091168152602001610091565b6002546100e1906001600160a01b031681565b6001546100e1906001600160a01b031681565b6003546100e1906001600160a01b031681565b6006602052815f5260405f20818154811061014b575f80fd5b905f5260205f20015f91509150505481565b60056020525f9081526040902080546001820180546001600160a01b039092169291610188906102ab565b80601f01602080910402602001604051908101604052809291908181526020018280546101b4906102ab565b80156101ff5780601f106101d6576101008083540402835291602001916101ff565b820191905f5260205f20905b8154815290600101906020018083116101e257829003601f168201915b5050506002909301549192505060ff1683565b5f5f60408385031215610223575f5ffd5b82356001600160a01b0381168114610239575f5ffd5b946020939093013593505050565b5f60208284031215610257575f5ffd5b5035919050565b60018060a01b0384168152606060208201525f83518060608401528060208601608085015e5f608082850101526080601f19601f8301168401019150508215156040830152949350505050565b600181811c908216806102bf57607f821691505b6020821081036102dd57634e487b7160e01b5f52602260045260245ffd5b5091905056fea26469706673582212202142354ab2501b535c0a8a417f82dd839eee1f22325759e3712478f19257dfac64736f6c634300081d0033",
					"opcodes": "PUSH1 0x80 PUSH1 0x40 MSTORE CALLVALUE DUP1 ISZERO PUSH1 0xE JUMPI PUSH0 PUSH0 REVERT JUMPDEST POP PUSH2 0x319 DUP1 PUSH2 0x1C PUSH0 CODECOPY PUSH0 RETURN INVALID PUSH1 0x80 PUSH1 0x40 MSTORE CALLVALUE DUP1 ISZERO PUSH2 0xF JUMPI PUSH0 PUSH0 REVERT JUMPDEST POP PUSH1 0x4 CALLDATASIZE LT PUSH2 0x7A JUMPI PUSH0 CALLDATALOAD PUSH1 0xE0 SHR DUP1 PUSH4 0x4162169F GT PUSH2 0x58 JUMPI DUP1 PUSH4 0x4162169F EQ PUSH2 0xCF JUMPI DUP1 PUSH4 0x70D5AE05 EQ PUSH2 0xF9 JUMPI DUP1 PUSH4 0x8EA5220F EQ PUSH2 0x10C JUMPI DUP1 PUSH4 0xA6D74512 EQ PUSH2 0x11F JUMPI PUSH0 PUSH0 REVERT JUMPDEST DUP1 PUSH4 0x18160DDD EQ PUSH2 0x7E JUMPI DUP1 PUSH4 0x1A72B87D EQ PUSH2 0x9A JUMPI DUP1 PUSH4 0x265AA621 EQ PUSH2 0xAD JUMPI JUMPDEST PUSH0 PUSH0 REVERT JUMPDEST PUSH2 0x87 PUSH1 0x4 SLOAD DUP2 JUMP JUMPDEST PUSH1 0x40 MLOAD SWAP1 DUP2 MSTORE PUSH1 0x20 ADD JUMPDEST PUSH1 0x40 MLOAD DUP1 SWAP2 SUB SWAP1 RETURN JUMPDEST PUSH2 0x87 PUSH2 0xA8 CALLDATASIZE PUSH1 0x4 PUSH2 0x212 JUMP JUMPDEST PUSH2 0x132 JUMP JUMPDEST PUSH2 0xC0 PUSH2 0xBB CALLDATASIZE PUSH1 0x4 PUSH2 0x247 JUMP JUMPDEST PUSH2 0x15D JUMP JUMPDEST PUSH1 0x40 MLOAD PUSH2 0x91 SWAP4 SWAP3 SWAP2 SWAP1 PUSH2 0x25E JUMP JUMPDEST PUSH0 SLOAD PUSH2 0xE1 SWAP1 PUSH1 0x1 PUSH1 0x1 PUSH1 0xA0 SHL SUB AND DUP2 JUMP JUMPDEST PUSH1 0x40 MLOAD PUSH1 0x1 PUSH1 0x1 PUSH1 0xA0 SHL SUB SWAP1 SWAP2 AND DUP2 MSTORE PUSH1 0x20 ADD PUSH2 0x91 JUMP JUMPDEST PUSH1 0x2 SLOAD PUSH2 0xE1 SWAP1 PUSH1 0x1 PUSH1 0x1 PUSH1 0xA0 SHL SUB AND DUP2 JUMP JUMPDEST PUSH1 0x1 SLOAD PUSH2 0xE1 SWAP1 PUSH1 0x1 PUSH1 0x1 PUSH1 0xA0 SHL SUB AND DUP2 JUMP JUMPDEST PUSH1 0x3 SLOAD PUSH2 0xE1 SWAP1 PUSH1 0x1 PUSH1 0x1 PUSH1 0xA0 SHL SUB AND DUP2 JUMP JUMPDEST PUSH1 0x6 PUSH1 0x20 MSTORE DUP2 PUSH0 MSTORE PUSH1 0x40 PUSH0 KECCAK256 DUP2 DUP2 SLOAD DUP2 LT PUSH2 0x14B JUMPI PUSH0 DUP1 REVERT JUMPDEST SWAP1 PUSH0 MSTORE PUSH1 0x20 PUSH0 KECCAK256 ADD PUSH0 SWAP2 POP SWAP2 POP POP SLOAD DUP2 JUMP JUMPDEST PUSH1 0x5 PUSH1 0x20 MSTORE PUSH0 SWAP1 DUP2 MSTORE PUSH1 0x40 SWAP1 KECCAK256 DUP1 SLOAD PUSH1 0x1 DUP3 ADD DUP1 SLOAD PUSH1 0x1 PUSH1 0x1 PUSH1 0xA0 SHL SUB SWAP1 SWAP3 AND SWAP3 SWAP2 PUSH2 0x188 SWAP1 PUSH2 0x2AB JUMP JUMPDEST DUP1 PUSH1 0x1F ADD PUSH1 0x20 DUP1 SWAP2 DIV MUL PUSH1 0x20 ADD PUSH1 0x40 MLOAD SWAP1 DUP2 ADD PUSH1 0x40 MSTORE DUP1 SWAP3 SWAP2 SWAP1 DUP2 DUP2 MSTORE PUSH1 0x20 ADD DUP3 DUP1 SLOAD PUSH2 0x1B4 SWAP1 PUSH2 0x2AB JUMP JUMPDEST DUP1 ISZERO PUSH2 0x1FF JUMPI DUP1 PUSH1 0x1F LT PUSH2 0x1D6 JUMPI PUSH2 0x100 DUP1 DUP4 SLOAD DIV MUL DUP4 MSTORE SWAP2 PUSH1 0x20 ADD SWAP2 PUSH2 0x1FF JUMP JUMPDEST DUP3 ADD SWAP2 SWAP1 PUSH0 MSTORE PUSH1 0x20 PUSH0 KECCAK256 SWAP1 JUMPDEST DUP2 SLOAD DUP2 MSTORE SWAP1 PUSH1 0x1 ADD SWAP1 PUSH1 0x20 ADD DUP1 DUP4 GT PUSH2 0x1E2 JUMPI DUP3 SWAP1 SUB PUSH1 0x1F AND DUP3 ADD SWAP2 JUMPDEST POP POP POP PUSH1 0x2 SWAP1 SWAP4 ADD SLOAD SWAP2 SWAP3 POP POP PUSH1 0xFF AND DUP4 JUMP JUMPDEST PUSH0 PUSH0 PUSH1 0x40 DUP4 DUP6 SUB SLT ISZERO PUSH2 0x223 JUMPI PUSH0 PUSH0 REVERT JUMPDEST DUP3 CALLDATALOAD PUSH1 0x1 PUSH1 0x1 PUSH1 0xA0 SHL SUB DUP2 AND DUP2 EQ PUSH2 0x239 JUMPI PUSH0 PUSH0 REVERT JUMPDEST SWAP5 PUSH1 0x20 SWAP4 SWAP1 SWAP4 ADD CALLDATALOAD SWAP4 POP POP POP JUMP JUMPDEST PUSH0 PUSH1 0x20 DUP3 DUP5 SUB SLT ISZERO PUSH2 0x257 JUMPI PUSH0 PUSH0 REVERT JUMPDEST POP CALLDATALOAD SWAP2 SWAP1 POP JUMP JUMPDEST PUSH1 0x1 DUP1 PUSH1 0xA0 SHL SUB DUP5 AND DUP2 MSTORE PUSH1 0x60 PUSH1 0x20 DUP3 ADD MSTORE PUSH0 DUP4 MLOAD DUP1 PUSH1 0x60 DUP5 ADD MSTORE DUP1 PUSH1 0x20 DUP7 ADD PUSH1 0x80 DUP6 ADD MCOPY PUSH0 PUSH1 0x80 DUP3 DUP6 ADD ADD MSTORE PUSH1 0x80 PUSH1 0x1F NOT PUSH1 0x1F DUP4 ADD AND DUP5 ADD ADD SWAP2 POP POP DUP3 ISZERO ISZERO PUSH1 0x40 DUP4 ADD MSTORE SWAP5 SWAP4 POP POP POP POP JUMP JUMPDEST PUSH1 0x1 DUP2 DUP2 SHR SWAP1 DUP3 AND DUP1 PUSH2 0x2BF JUMPI PUSH1 0x7F DUP3 AND SWAP2 POP JUMPDEST PUSH1 0x20 DUP3 LT DUP2 SUB PUSH2 0x2DD JUMPI PUSH4 0x4E487B71 PUSH1 0xE0 SHL PUSH0 MSTORE PUSH1 0x22 PUSH1 0x4 MSTORE PUSH1 0x24 PUSH0 REVERT JUMPDEST POP SWAP2 SWAP1 POP JUMP INVALID LOG2 PUSH5 0x6970667358 0x22 SLT KECCAK256 0x21 TIMESTAMP CALLDATALOAD BLOBBASEFEE 0xB2 POP SHL MSTORE8 TLOAD EXP DUP11 COINBASE PUSH32 0x82DD839EEE1F22325759E3712478F19257DFAC64736F6C634300081D00330000 "
				},
				"gasEstimates": {
					"creation": {
						"codeDepositCost": "158600",
						"executionCost": "200",
						"totalCost": "158800"
					},
					"external": {
						"burnAddress()": "2358",
						"dao()": "2335",
						"devWallet()": "2380",
						"nfts(uint256)": "infinite",
						"ownedNFTs(address,uint256)": "4713",
						"rhemToken()": "2402",
						"totalSupply()": "2284"
					}
				},
				"methodIdentifiers": {
					"burnAddress()": "70d5ae05",
					"dao()": "4162169f",
					"devWallet()": "8ea5220f",
					"nfts(uint256)": "265aa621",
					"ownedNFTs(address,uint256)": "1a72b87d",
					"rhemToken()": "a6d74512",
					"totalSupply()": "18160ddd"
				}
			},
			"storageLayout": {
				"storage": [
					{
						"astId": 70,
						"contract": "contracts/NFTMarketplacePart1.sol:NFTMarketplacePart1",
						"label": "dao",
						"offset": 0,
						"slot": "0",
						"type": "t_address"
					},
					{
						"astId": 72,
						"contract": "contracts/NFTMarketplacePart1.sol:NFTMarketplacePart1",
						"label": "devWallet",
						"offset": 0,
						"slot": "1",
						"type": "t_address"
					},
					{
						"astId": 74,
						"contract": "contracts/NFTMarketplacePart1.sol:NFTMarketplacePart1",
						"label": "burnAddress",
						"offset": 0,
						"slot": "2",
						"type": "t_address"
					},
					{
						"astId": 77,
						"contract": "contracts/NFTMarketplacePart1.sol:NFTMarketplacePart1",
						"label": "rhemToken",
						"offset": 0,
						"slot": "3",
						"type": "t_contract(IERC20)68"
					},
					{
						"astId": 79,
						"contract": "contracts/NFTMarketplacePart1.sol:NFTMarketplacePart1",
						"label": "totalSupply",
						"offset": 0,
						"slot": "4",
						"type": "t_uint256"
					},
					{
						"astId": 84,
						"contract": "contracts/NFTMarketplacePart1.sol:NFTMarketplacePart1",
						"label": "nfts",
						"offset": 0,
						"slot": "5",
						"type": "t_mapping(t_uint256,t_struct(NFT)96_storage)"
					},
					{
						"astId": 89,
						"contract": "contracts/NFTMarketplacePart1.sol:NFTMarketplacePart1",
						"label": "ownedNFTs",
						"offset": 0,
						"slot": "6",
						"type": "t_mapping(t_address,t_array(t_uint256)dyn_storage)"
					}
				],
				"types": {
					"t_address": {
						"encoding": "inplace",
						"label": "address",
						"numberOfBytes": "20"
					},
					"t_array(t_uint256)dyn_storage": {
						"base": "t_uint256",
						"encoding": "dynamic_array",
						"label": "uint256[]",
						"numberOfBytes": "32"
					},
					"t_bool": {
						"encoding": "inplace",
						"label": "bool",
						"numberOfBytes": "1"
					},
					"t_contract(IERC20)68": {
						"encoding": "inplace",
						"label": "contract IERC20",
						"numberOfBytes": "20"
					},
					"t_mapping(t_address,t_array(t_uint256)dyn_storage)": {
						"encoding": "mapping",
						"key": "t_address",
						"label": "mapping(address => uint256[])",
						"numberOfBytes": "32",
						"value": "t_array(t_uint256)dyn_storage"
					},
					"t_mapping(t_uint256,t_struct(NFT)96_storage)": {
						"encoding": "mapping",
						"key": "t_uint256",
						"label": "mapping(uint256 => struct NFTMarketplacePart1.NFT)",
						"numberOfBytes": "32",
						"value": "t_struct(NFT)96_storage"
					},
					"t_string_storage": {
						"encoding": "bytes",
						"label": "string",
						"numberOfBytes": "32"
					},
					"t_struct(NFT)96_storage": {
						"encoding": "inplace",
						"label": "struct NFTMarketplacePart1.NFT",
						"members": [
							{
								"astId": 91,
								"contract": "contracts/NFTMarketplacePart1.sol:NFTMarketplacePart1",
								"label": "owner",
								"offset": 0,
								"slot": "0",
								"type": "t_address"
							},
							{
								"astId": 93,
								"contract": "contracts/NFTMarketplacePart1.sol:NFTMarketplacePart1",
								"label": "tokenURI",
								"offset": 0,
								"slot": "1",
								"type": "t_string_storage"
							},
							{
								"astId": 95,
								"contract": "contracts/NFTMarketplacePart1.sol:NFTMarketplacePart1",
								"label": "listed",
								"offset": 0,
								"slot": "2",
								"type": "t_bool"
							}
						],
						"numberOfBytes": "96"
					},
					"t_uint256": {
						"encoding": "inplace",
						"label": "uint256",
						"numberOfBytes": "32"
					}
				}
			},
			"userdoc": {
				"kind": "user",
				"methods": {},
				"version": 1
			}
		}
	}
}