{
	"contracts/RHEMVote.sol": {
		"RHEMVote": {
			"abi": [
				{
					"inputs": [
						{
							"internalType": "address",
							"name": "spender",
							"type": "address"
						},
						{
							"internalType": "uint256",
							"name": "allowance",
							"type": "uint256"
						},
						{
							"internalType": "uint256",
							"name": "needed",
							"type": "uint256"
						}
					],
					"name": "ERC20InsufficientAllowance",
					"type": "error"
				},
				{
					"inputs": [
						{
							"internalType": "address",
							"name": "sender",
							"type": "address"
						},
						{
							"internalType": "uint256",
							"name": "balance",
							"type": "uint256"
						},
						{
							"internalType": "uint256",
							"name": "needed",
							"type": "uint256"
						}
					],
					"name": "ERC20InsufficientBalance",
					"type": "error"
				},
				{
					"inputs": [
						{
							"internalType": "address",
							"name": "approver",
							"type": "address"
						}
					],
					"name": "ERC20InvalidApprover",
					"type": "error"
				},
				{
					"inputs": [
						{
							"internalType": "address",
							"name": "receiver",
							"type": "address"
						}
					],
					"name": "ERC20InvalidReceiver",
					"type": "error"
				},
				{
					"inputs": [
						{
							"internalType": "address",
							"name": "sender",
							"type": "address"
						}
					],
					"name": "ERC20InvalidSender",
					"type": "error"
				},
				{
					"inputs": [
						{
							"internalType": "address",
							"name": "spender",
							"type": "address"
						}
					],
					"name": "ERC20InvalidSpender",
					"type": "error"
				},
				{
					"inputs": [],
					"name": "InvalidInitialization",
					"type": "error"
				},
				{
					"inputs": [],
					"name": "NotInitializing",
					"type": "error"
				},
				{
					"anonymous": false,
					"inputs": [
						{
							"indexed": true,
							"internalType": "address",
							"name": "owner",
							"type": "address"
						},
						{
							"indexed": true,
							"internalType": "address",
							"name": "spender",
							"type": "address"
						},
						{
							"indexed": false,
							"internalType": "uint256",
							"name": "value",
							"type": "uint256"
						}
					],
					"name": "Approval",
					"type": "event"
				},
				{
					"anonymous": false,
					"inputs": [
						{
							"indexed": false,
							"internalType": "uint64",
							"name": "version",
							"type": "uint64"
						}
					],
					"name": "Initialized",
					"type": "event"
				},
				{
					"anonymous": false,
					"inputs": [
						{
							"indexed": true,
							"internalType": "address",
							"name": "from",
							"type": "address"
						},
						{
							"indexed": true,
							"internalType": "address",
							"name": "to",
							"type": "address"
						},
						{
							"indexed": false,
							"internalType": "uint256",
							"name": "value",
							"type": "uint256"
						}
					],
					"name": "Transfer",
					"type": "event"
				},
				{
					"inputs": [
						{
							"internalType": "address",
							"name": "owner",
							"type": "address"
						},
						{
							"internalType": "address",
							"name": "spender",
							"type": "address"
						}
					],
					"name": "allowance",
					"outputs": [
						{
							"internalType": "uint256",
							"name": "",
							"type": "uint256"
						}
					],
					"stateMutability": "view",
					"type": "function"
				},
				{
					"inputs": [
						{
							"internalType": "address",
							"name": "spender",
							"type": "address"
						},
						{
							"internalType": "uint256",
							"name": "value",
							"type": "uint256"
						}
					],
					"name": "approve",
					"outputs": [
						{
							"internalType": "bool",
							"name": "",
							"type": "bool"
						}
					],
					"stateMutability": "nonpayable",
					"type": "function"
				},
				{
					"inputs": [
						{
							"internalType": "address",
							"name": "account",
							"type": "address"
						}
					],
					"name": "balanceOf",
					"outputs": [
						{
							"internalType": "uint256",
							"name": "",
							"type": "uint256"
						}
					],
					"stateMutability": "view",
					"type": "function"
				},
				{
					"inputs": [],
					"name": "decimals",
					"outputs": [
						{
							"internalType": "uint8",
							"name": "",
							"type": "uint8"
						}
					],
					"stateMutability": "view",
					"type": "function"
				},
				{
					"inputs": [
						{
							"internalType": "address",
							"name": "communityWallet",
							"type": "address"
						}
					],
					"name": "initialize",
					"outputs": [],
					"stateMutability": "nonpayable",
					"type": "function"
				},
				{
					"inputs": [],
					"name": "name",
					"outputs": [
						{
							"internalType": "string",
							"name": "",
							"type": "string"
						}
					],
					"stateMutability": "view",
					"type": "function"
				},
				{
					"inputs": [],
					"name": "symbol",
					"outputs": [
						{
							"internalType": "string",
							"name": "",
							"type": "string"
						}
					],
					"stateMutability": "view",
					"type": "function"
				},
				{
					"inputs": [],
					"name": "totalSupply",
					"outputs": [
						{
							"internalType": "uint256",
							"name": "",
							"type": "uint256"
						}
					],
					"stateMutability": "view",
					"type": "function"
				},
				{
					"inputs": [
						{
							"internalType": "address",
							"name": "to",
							"type": "address"
						},
						{
							"internalType": "uint256",
							"name": "value",
							"type": "uint256"
						}
					],
					"name": "transfer",
					"outputs": [
						{
							"internalType": "bool",
							"name": "",
							"type": "bool"
						}
					],
					"stateMutability": "nonpayable",
					"type": "function"
				},
				{
					"inputs": [
						{
							"internalType": "address",
							"name": "from",
							"type": "address"
						},
						{
							"internalType": "address",
							"name": "to",
							"type": "address"
						},
						{
							"internalType": "uint256",
							"name": "value",
							"type": "uint256"
						}
					],
					"name": "transferFrom",
					"outputs": [
						{
							"internalType": "bool",
							"name": "",
							"type": "bool"
						}
					],
					"stateMutability": "nonpayable",
					"type": "function"
				}
			],
			"devdoc": {
				"errors": {
					"ERC20InsufficientAllowance(address,uint256,uint256)": [
						{
							"details": "Indicates a failure with the `spender`’s `allowance`. Used in transfers.",
							"params": {
								"allowance": "Amount of tokens a `spender` is allowed to operate with.",
								"needed": "Minimum amount required to perform a transfer.",
								"spender": "Address that may be allowed to operate on tokens without being their owner."
							}
						}
					],
					"ERC20InsufficientBalance(address,uint256,uint256)": [
						{
							"details": "Indicates an error related to the current `balance` of a `sender`. Used in transfers.",
							"params": {
								"balance": "Current balance for the interacting account.",
								"needed": "Minimum amount required to perform a transfer.",
								"sender": "Address whose tokens are being transferred."
							}
						}
					],
					"ERC20InvalidApprover(address)": [
						{
							"details": "Indicates a failure with the `approver` of a token to be approved. Used in approvals.",
							"params": {
								"approver": "Address initiating an approval operation."
							}
						}
					],
					"ERC20InvalidReceiver(address)": [
						{
							"details": "Indicates a failure with the token `receiver`. Used in transfers.",
							"params": {
								"receiver": "Address to which tokens are being transferred."
							}
						}
					],
					"ERC20InvalidSender(address)": [
						{
							"details": "Indicates a failure with the token `sender`. Used in transfers.",
							"params": {
								"sender": "Address whose tokens are being transferred."
							}
						}
					],
					"ERC20InvalidSpender(address)": [
						{
							"details": "Indicates a failure with the `spender` to be approved. Used in approvals.",
							"params": {
								"spender": "Address that may be allowed to operate on tokens without being their owner."
							}
						}
					],
					"InvalidInitialization()": [
						{
							"details": "The contract is already initialized."
						}
					],
					"NotInitializing()": [
						{
							"details": "The contract is not initializing."
						}
					]
				},
				"events": {
					"Approval(address,address,uint256)": {
						"details": "Emitted when the allowance of a `spender` for an `owner` is set by a call to {approve}. `value` is the new allowance."
					},
					"Initialized(uint64)": {
						"details": "Triggered when the contract has been initialized or reinitialized."
					},
					"Transfer(address,address,uint256)": {
						"details": "Emitted when `value` tokens are moved from one account (`from`) to another (`to`). Note that `value` may be zero."
					}
				},
				"kind": "dev",
				"methods": {
					"allowance(address,address)": {
						"details": "See {IERC20-allowance}."
					},
					"approve(address,uint256)": {
						"details": "See {IERC20-approve}. NOTE: If `value` is the maximum `uint256`, the allowance is not updated on `transferFrom`. This is semantically equivalent to an infinite approval. Requirements: - `spender` cannot be the zero address."
					},
					"balanceOf(address)": {
						"details": "See {IERC20-balanceOf}."
					},
					"decimals()": {
						"details": "Returns the number of decimals used to get its user representation. For example, if `decimals` equals `2`, a balance of `505` tokens should be displayed to a user as `5.05` (`505 / 10 ** 2`). Tokens usually opt for a value of 18, imitating the relationship between Ether and Wei. This is the default value returned by this function, unless it's overridden. NOTE: This information is only used for _display_ purposes: it in no way affects any of the arithmetic of the contract, including {IERC20-balanceOf} and {IERC20-transfer}."
					},
					"name()": {
						"details": "Returns the name of the token."
					},
					"symbol()": {
						"details": "Returns the symbol of the token, usually a shorter version of the name."
					},
					"totalSupply()": {
						"details": "See {IERC20-totalSupply}."
					},
					"transfer(address,uint256)": {
						"details": "See {IERC20-transfer}. Requirements: - `to` cannot be the zero address. - the caller must have a balance of at least `value`."
					},
					"transferFrom(address,address,uint256)": {
						"details": "See {IERC20-transferFrom}. Emits an {Approval} event indicating the updated allowance. This is not required by the EIP. See the note at the beginning of {ERC20}. NOTE: Does not update the allowance if the current allowance is the maximum `uint256`. Requirements: - `from` and `to` cannot be the zero address. - `from` must have a balance of at least `value`. - the caller must have allowance for ``from``'s tokens of at least `value`."
					}
				},
				"version": 1
			},
			"evm": {
				"assembly": "    /* \"contracts/RHEMVote.sol\":346:658  contract RHEMVote is Initializable, ERC20Upgradeable {... */\n  mstore(0x40, 0x80)\n  callvalue\n  dup1\n  iszero\n  tag_1\n  jumpi\n  revert(0x00, 0x00)\ntag_1:\n  pop\n  dataSize(sub_0)\n  dup1\n  dataOffset(sub_0)\n  0x00\n  codecopy\n  0x00\n  return\nstop\n\nsub_0: assembly {\n        /* \"contracts/RHEMVote.sol\":346:658  contract RHEMVote is Initializable, ERC20Upgradeable {... */\n      mstore(0x40, 0x80)\n      callvalue\n      dup1\n      iszero\n      tag_1\n      jumpi\n      revert(0x00, 0x00)\n    tag_1:\n      pop\n      jumpi(tag_2, lt(calldatasize, 0x04))\n      shr(0xe0, calldataload(0x00))\n      dup1\n      0x70a08231\n      gt\n      tag_13\n      jumpi\n      dup1\n      0x70a08231\n      eq\n      tag_8\n      jumpi\n      dup1\n      0x95d89b41\n      eq\n      tag_9\n      jumpi\n      dup1\n      0xa9059cbb\n      eq\n      tag_10\n      jumpi\n      dup1\n      0xc4d66de8\n      eq\n      tag_11\n      jumpi\n      dup1\n      0xdd62ed3e\n      eq\n      tag_12\n      jumpi\n      revert(0x00, 0x00)\n    tag_13:\n      dup1\n      0x06fdde03\n      eq\n      tag_3\n      jumpi\n      dup1\n      0x095ea7b3\n      eq\n      tag_4\n      jumpi\n      dup1\n      0x18160ddd\n      eq\n      tag_5\n      jumpi\n      dup1\n      0x23b872dd\n      eq\n      tag_6\n      jumpi\n      dup1\n      0x313ce567\n      eq\n      tag_7\n      jumpi\n    tag_2:\n      revert(0x00, 0x00)\n        /* \"https://raw.githubusercontent.com/OpenZeppelin/openzeppelin-contracts-upgradeable/v5.0.2/contracts/token/ERC20/ERC20Upgradeable.sol\":3011:3155  function name() public view virtual returns (string memory) {... */\n    tag_3:\n      tag_14\n      tag_15\n      jump\t// in\n    tag_14:\n      mload(0x40)\n      tag_16\n      swap2\n      swap1\n      tag_17\n      jump\t// in\n    tag_16:\n      mload(0x40)\n      dup1\n      swap2\n      sub\n      swap1\n      return\n        /* \"https://raw.githubusercontent.com/OpenZeppelin/openzeppelin-contracts-upgradeable/v5.0.2/contracts/token/ERC20/ERC20Upgradeable.sol\":5505:5691  function approve(address spender, uint256 value) public virtual returns (bool) {... */\n    tag_4:\n      tag_18\n      tag_19\n      calldatasize\n      0x04\n      tag_20\n      jump\t// in\n    tag_19:\n      tag_21\n      jump\t// in\n    tag_18:\n      mload(0x40)\n        /* \"#utility.yul\":1085:1099   */\n      swap1\n      iszero\n        /* \"#utility.yul\":1078:1100   */\n      iszero\n        /* \"#utility.yul\":1060:1101   */\n      dup2\n      mstore\n        /* \"#utility.yul\":1048:1050   */\n      0x20\n        /* \"#utility.yul\":1033:1051   */\n      add\n        /* \"https://raw.githubusercontent.com/OpenZeppelin/openzeppelin-contracts-upgradeable/v5.0.2/contracts/token/ERC20/ERC20Upgradeable.sol\":5505:5691  function approve(address spender, uint256 value) public virtual returns (bool) {... */\n      tag_16\n        /* \"#utility.yul\":920:1107   */\n      jump\n        /* \"https://raw.githubusercontent.com/OpenZeppelin/openzeppelin-contracts-upgradeable/v5.0.2/contracts/token/ERC20/ERC20Upgradeable.sol\":4191:4343  function totalSupply() public view virtual returns (uint256) {... */\n    tag_5:\n        /* \"https://raw.githubusercontent.com/OpenZeppelin/openzeppelin-contracts-upgradeable/v5.0.2/contracts/token/ERC20/ERC20Upgradeable.sol\":4322:4336  $._totalSupply */\n      sload(0x52c63247e1f47db19d5ce0460030c497f067ca4cebf71ba98eeadabe20bace02)\n        /* \"https://raw.githubusercontent.com/OpenZeppelin/openzeppelin-contracts-upgradeable/v5.0.2/contracts/token/ERC20/ERC20Upgradeable.sol\":4191:4343  function totalSupply() public view virtual returns (uint256) {... */\n    tag_24:\n      mload(0x40)\n        /* \"#utility.yul\":1258:1283   */\n      swap1\n      dup2\n      mstore\n        /* \"#utility.yul\":1246:1248   */\n      0x20\n        /* \"#utility.yul\":1231:1249   */\n      add\n        /* \"https://raw.githubusercontent.com/OpenZeppelin/openzeppelin-contracts-upgradeable/v5.0.2/contracts/token/ERC20/ERC20Upgradeable.sol\":4191:4343  function totalSupply() public view virtual returns (uint256) {... */\n      tag_16\n        /* \"#utility.yul\":1112:1289   */\n      jump\n        /* \"https://raw.githubusercontent.com/OpenZeppelin/openzeppelin-contracts-upgradeable/v5.0.2/contracts/token/ERC20/ERC20Upgradeable.sol\":6251:6495  function transferFrom(address from, address to, uint256 value) public virtual returns (bool) {... */\n    tag_6:\n      tag_18\n      tag_29\n      calldatasize\n      0x04\n      tag_30\n      jump\t// in\n    tag_29:\n      tag_31\n      jump\t// in\n        /* \"https://raw.githubusercontent.com/OpenZeppelin/openzeppelin-contracts-upgradeable/v5.0.2/contracts/token/ERC20/ERC20Upgradeable.sol\":4049:4131  function decimals() public view virtual returns (uint8) {... */\n    tag_7:\n      mload(0x40)\n        /* \"https://raw.githubusercontent.com/OpenZeppelin/openzeppelin-contracts-upgradeable/v5.0.2/contracts/token/ERC20/ERC20Upgradeable.sol\":4122:4124  18 */\n      0x12\n        /* \"#utility.yul\":1815:1851   */\n      dup2\n      mstore\n        /* \"#utility.yul\":1803:1805   */\n      0x20\n        /* \"#utility.yul\":1788:1806   */\n      add\n        /* \"https://raw.githubusercontent.com/OpenZeppelin/openzeppelin-contracts-upgradeable/v5.0.2/contracts/token/ERC20/ERC20Upgradeable.sol\":4049:4131  function decimals() public view virtual returns (uint8) {... */\n      tag_16\n        /* \"#utility.yul\":1673:1857   */\n      jump\n        /* \"https://raw.githubusercontent.com/OpenZeppelin/openzeppelin-contracts-upgradeable/v5.0.2/contracts/token/ERC20/ERC20Upgradeable.sol\":4401:4572  function balanceOf(address account) public view virtual returns (uint256) {... */\n    tag_8:\n      tag_24\n      tag_38\n      calldatasize\n      0x04\n      tag_39\n      jump\t// in\n    tag_38:\n      sub(shl(0xa0, 0x01), 0x01)\n        /* \"https://raw.githubusercontent.com/OpenZeppelin/openzeppelin-contracts-upgradeable/v5.0.2/contracts/token/ERC20/ERC20Upgradeable.sol\":4545:4565  $._balances[account] */\n      and\n        /* \"https://raw.githubusercontent.com/OpenZeppelin/openzeppelin-contracts-upgradeable/v5.0.2/contracts/token/ERC20/ERC20Upgradeable.sol\":4466:4473  uint256 */\n      0x00\n        /* \"https://raw.githubusercontent.com/OpenZeppelin/openzeppelin-contracts-upgradeable/v5.0.2/contracts/token/ERC20/ERC20Upgradeable.sol\":4545:4565  $._balances[account] */\n      swap1\n      dup2\n      mstore\n      mload(0x00)\n      codecopy(0x00, data_3874827173e8df9f34323b12b251d1d3c53926ce129e30a0d69f1d47c277041b, 0x20)\n      mload(0x00)\n      swap1\n      0x00\n      mstore\n      0x20\n      mstore\n      0x40\n      swap1\n      keccak256\n      sload\n      swap1\n        /* \"https://raw.githubusercontent.com/OpenZeppelin/openzeppelin-contracts-upgradeable/v5.0.2/contracts/token/ERC20/ERC20Upgradeable.sol\":4401:4572  function balanceOf(address account) public view virtual returns (uint256) {... */\n      jump\n        /* \"https://raw.githubusercontent.com/OpenZeppelin/openzeppelin-contracts-upgradeable/v5.0.2/contracts/token/ERC20/ERC20Upgradeable.sol\":3268:3416  function symbol() public view virtual returns (string memory) {... */\n    tag_9:\n      tag_14\n      tag_43\n      jump\t// in\n        /* \"https://raw.githubusercontent.com/OpenZeppelin/openzeppelin-contracts-upgradeable/v5.0.2/contracts/token/ERC20/ERC20Upgradeable.sol\":4767:4945  function transfer(address to, uint256 value) public virtual returns (bool) {... */\n    tag_10:\n      tag_18\n      tag_46\n      calldatasize\n      0x04\n      tag_20\n      jump\t// in\n    tag_46:\n      tag_47\n      jump\t// in\n        /* \"contracts/RHEMVote.sol\":406:655  function initialize(address communityWallet) public initializer {... */\n    tag_11:\n      tag_49\n      tag_50\n      calldatasize\n      0x04\n      tag_39\n      jump\t// in\n    tag_50:\n      tag_51\n      jump\t// in\n    tag_49:\n      stop\n        /* \"https://raw.githubusercontent.com/OpenZeppelin/openzeppelin-contracts-upgradeable/v5.0.2/contracts/token/ERC20/ERC20Upgradeable.sol\":5003:5198  function allowance(address owner, address spender) public view virtual returns (uint256) {... */\n    tag_12:\n      tag_24\n      tag_53\n      calldatasize\n      0x04\n      tag_54\n      jump\t// in\n    tag_53:\n      tag_55\n      jump\t// in\n        /* \"https://raw.githubusercontent.com/OpenZeppelin/openzeppelin-contracts-upgradeable/v5.0.2/contracts/token/ERC20/ERC20Upgradeable.sol\":3011:3155  function name() public view virtual returns (string memory) {... */\n    tag_15:\n        /* \"https://raw.githubusercontent.com/OpenZeppelin/openzeppelin-contracts-upgradeable/v5.0.2/contracts/token/ERC20/ERC20Upgradeable.sol\":3141:3148  $._name */\n      0x52c63247e1f47db19d5ce0460030c497f067ca4cebf71ba98eeadabe20bace03\n        /* \"https://raw.githubusercontent.com/OpenZeppelin/openzeppelin-contracts-upgradeable/v5.0.2/contracts/token/ERC20/ERC20Upgradeable.sol\":3134:3148  return $._name */\n      dup1\n      sload\n        /* \"https://raw.githubusercontent.com/OpenZeppelin/openzeppelin-contracts-upgradeable/v5.0.2/contracts/token/ERC20/ERC20Upgradeable.sol\":3056:3069  string memory */\n      0x60\n      swap2\n      mload(0x00)\n      codecopy(0x00, data_3874827173e8df9f34323b12b251d1d3c53926ce129e30a0d69f1d47c277041b, 0x20)\n      mload(0x00)\n      swap1\n      0x00\n      mstore\n        /* \"https://raw.githubusercontent.com/OpenZeppelin/openzeppelin-contracts-upgradeable/v5.0.2/contracts/token/ERC20/ERC20Upgradeable.sol\":2359:2379  ERC20StorageLocation */\n      swap2\n        /* \"https://raw.githubusercontent.com/OpenZeppelin/openzeppelin-contracts-upgradeable/v5.0.2/contracts/token/ERC20/ERC20Upgradeable.sol\":3134:3148  return $._name */\n      tag_60\n      swap1\n      tag_61\n      jump\t// in\n    tag_60:\n      dup1\n      0x1f\n      add\n      0x20\n      dup1\n      swap2\n      div\n      mul\n      0x20\n      add\n      mload(0x40)\n      swap1\n      dup2\n      add\n      0x40\n      mstore\n      dup1\n      swap3\n      swap2\n      swap1\n      dup2\n      dup2\n      mstore\n      0x20\n      add\n      dup3\n      dup1\n      sload\n      tag_62\n      swap1\n      tag_61\n      jump\t// in\n    tag_62:\n      dup1\n      iszero\n      tag_63\n      jumpi\n      dup1\n      0x1f\n      lt\n      tag_64\n      jumpi\n      0x0100\n      dup1\n      dup4\n      sload\n      div\n      mul\n      dup4\n      mstore\n      swap2\n      0x20\n      add\n      swap2\n      jump(tag_63)\n    tag_64:\n      dup3\n      add\n      swap2\n      swap1\n      0x00\n      mstore\n      keccak256(0x00, 0x20)\n      swap1\n    tag_65:\n      dup2\n      sload\n      dup2\n      mstore\n      swap1\n      0x01\n      add\n      swap1\n      0x20\n      add\n      dup1\n      dup4\n      gt\n      tag_65\n      jumpi\n      dup3\n      swap1\n      sub\n      0x1f\n      and\n      dup3\n      add\n      swap2\n    tag_63:\n      pop\n      pop\n      pop\n      pop\n      pop\n      swap2\n      pop\n      pop\n        /* \"https://raw.githubusercontent.com/OpenZeppelin/openzeppelin-contracts-upgradeable/v5.0.2/contracts/token/ERC20/ERC20Upgradeable.sol\":3011:3155  function name() public view virtual returns (string memory) {... */\n      swap1\n      jump\t// out\n        /* \"https://raw.githubusercontent.com/OpenZeppelin/openzeppelin-contracts-upgradeable/v5.0.2/contracts/token/ERC20/ERC20Upgradeable.sol\":5505:5691  function approve(address spender, uint256 value) public virtual returns (bool) {... */\n    tag_21:\n        /* \"https://raw.githubusercontent.com/OpenZeppelin/openzeppelin-contracts-upgradeable/v5.0.2/contracts/token/ERC20/ERC20Upgradeable.sol\":5578:5582  bool */\n      0x00\n        /* \"https://raw.githubusercontent.com/OpenZeppelin/openzeppelin-contracts-upgradeable/v5.0.2/contracts/utils/ContextUpgradeable.sol\":966:976  msg.sender */\n      caller\n        /* \"https://raw.githubusercontent.com/OpenZeppelin/openzeppelin-contracts-upgradeable/v5.0.2/contracts/token/ERC20/ERC20Upgradeable.sol\":5632:5663  _approve(owner, spender, value) */\n      tag_69\n        /* \"https://raw.githubusercontent.com/OpenZeppelin/openzeppelin-contracts-upgradeable/v5.0.2/contracts/utils/ContextUpgradeable.sol\":966:976  msg.sender */\n      dup2\n        /* \"https://raw.githubusercontent.com/OpenZeppelin/openzeppelin-contracts-upgradeable/v5.0.2/contracts/token/ERC20/ERC20Upgradeable.sol\":5648:5655  spender */\n      dup6\n        /* \"https://raw.githubusercontent.com/OpenZeppelin/openzeppelin-contracts-upgradeable/v5.0.2/contracts/token/ERC20/ERC20Upgradeable.sol\":5657:5662  value */\n      dup6\n        /* \"https://raw.githubusercontent.com/OpenZeppelin/openzeppelin-contracts-upgradeable/v5.0.2/contracts/token/ERC20/ERC20Upgradeable.sol\":5632:5640  _approve */\n      tag_70\n        /* \"https://raw.githubusercontent.com/OpenZeppelin/openzeppelin-contracts-upgradeable/v5.0.2/contracts/token/ERC20/ERC20Upgradeable.sol\":5632:5663  _approve(owner, spender, value) */\n      jump\t// in\n    tag_69:\n        /* \"https://raw.githubusercontent.com/OpenZeppelin/openzeppelin-contracts-upgradeable/v5.0.2/contracts/token/ERC20/ERC20Upgradeable.sol\":5680:5684  true */\n      0x01\n        /* \"https://raw.githubusercontent.com/OpenZeppelin/openzeppelin-contracts-upgradeable/v5.0.2/contracts/token/ERC20/ERC20Upgradeable.sol\":5673:5684  return true */\n      swap2\n      pop\n      pop\n        /* \"https://raw.githubusercontent.com/OpenZeppelin/openzeppelin-contracts-upgradeable/v5.0.2/contracts/token/ERC20/ERC20Upgradeable.sol\":5505:5691  function approve(address spender, uint256 value) public virtual returns (bool) {... */\n    tag_66:\n      swap3\n      swap2\n      pop\n      pop\n      jump\t// out\n        /* \"https://raw.githubusercontent.com/OpenZeppelin/openzeppelin-contracts-upgradeable/v5.0.2/contracts/token/ERC20/ERC20Upgradeable.sol\":6251:6495  function transferFrom(address from, address to, uint256 value) public virtual returns (bool) {... */\n    tag_31:\n        /* \"https://raw.githubusercontent.com/OpenZeppelin/openzeppelin-contracts-upgradeable/v5.0.2/contracts/token/ERC20/ERC20Upgradeable.sol\":6338:6342  bool */\n      0x00\n        /* \"https://raw.githubusercontent.com/OpenZeppelin/openzeppelin-contracts-upgradeable/v5.0.2/contracts/utils/ContextUpgradeable.sol\":966:976  msg.sender */\n      caller\n        /* \"https://raw.githubusercontent.com/OpenZeppelin/openzeppelin-contracts-upgradeable/v5.0.2/contracts/token/ERC20/ERC20Upgradeable.sol\":6394:6431  _spendAllowance(from, spender, value) */\n      tag_75\n        /* \"https://raw.githubusercontent.com/OpenZeppelin/openzeppelin-contracts-upgradeable/v5.0.2/contracts/token/ERC20/ERC20Upgradeable.sol\":6410:6414  from */\n      dup6\n        /* \"https://raw.githubusercontent.com/OpenZeppelin/openzeppelin-contracts-upgradeable/v5.0.2/contracts/utils/ContextUpgradeable.sol\":966:976  msg.sender */\n      dup3\n        /* \"https://raw.githubusercontent.com/OpenZeppelin/openzeppelin-contracts-upgradeable/v5.0.2/contracts/token/ERC20/ERC20Upgradeable.sol\":6425:6430  value */\n      dup6\n        /* \"https://raw.githubusercontent.com/OpenZeppelin/openzeppelin-contracts-upgradeable/v5.0.2/contracts/token/ERC20/ERC20Upgradeable.sol\":6394:6409  _spendAllowance */\n      tag_76\n        /* \"https://raw.githubusercontent.com/OpenZeppelin/openzeppelin-contracts-upgradeable/v5.0.2/contracts/token/ERC20/ERC20Upgradeable.sol\":6394:6431  _spendAllowance(from, spender, value) */\n      jump\t// in\n    tag_75:\n        /* \"https://raw.githubusercontent.com/OpenZeppelin/openzeppelin-contracts-upgradeable/v5.0.2/contracts/token/ERC20/ERC20Upgradeable.sol\":6441:6467  _transfer(from, to, value) */\n      tag_77\n        /* \"https://raw.githubusercontent.com/OpenZeppelin/openzeppelin-contracts-upgradeable/v5.0.2/contracts/token/ERC20/ERC20Upgradeable.sol\":6451:6455  from */\n      dup6\n        /* \"https://raw.githubusercontent.com/OpenZeppelin/openzeppelin-contracts-upgradeable/v5.0.2/contracts/token/ERC20/ERC20Upgradeable.sol\":6457:6459  to */\n      dup6\n        /* \"https://raw.githubusercontent.com/OpenZeppelin/openzeppelin-contracts-upgradeable/v5.0.2/contracts/token/ERC20/ERC20Upgradeable.sol\":6461:6466  value */\n      dup6\n        /* \"https://raw.githubusercontent.com/OpenZeppelin/openzeppelin-contracts-upgradeable/v5.0.2/contracts/token/ERC20/ERC20Upgradeable.sol\":6441:6450  _transfer */\n      tag_78\n        /* \"https://raw.githubusercontent.com/OpenZeppelin/openzeppelin-contracts-upgradeable/v5.0.2/contracts/token/ERC20/ERC20Upgradeable.sol\":6441:6467  _transfer(from, to, value) */\n      jump\t// in\n    tag_77:\n      pop\n        /* \"https://raw.githubusercontent.com/OpenZeppelin/openzeppelin-contracts-upgradeable/v5.0.2/contracts/token/ERC20/ERC20Upgradeable.sol\":6484:6488  true */\n      0x01\n      swap5\n        /* \"https://raw.githubusercontent.com/OpenZeppelin/openzeppelin-contracts-upgradeable/v5.0.2/contracts/token/ERC20/ERC20Upgradeable.sol\":6251:6495  function transferFrom(address from, address to, uint256 value) public virtual returns (bool) {... */\n      swap4\n      pop\n      pop\n      pop\n      pop\n      jump\t// out\n        /* \"https://raw.githubusercontent.com/OpenZeppelin/openzeppelin-contracts-upgradeable/v5.0.2/contracts/token/ERC20/ERC20Upgradeable.sol\":3268:3416  function symbol() public view virtual returns (string memory) {... */\n    tag_43:\n        /* \"https://raw.githubusercontent.com/OpenZeppelin/openzeppelin-contracts-upgradeable/v5.0.2/contracts/token/ERC20/ERC20Upgradeable.sol\":3400:3409  $._symbol */\n      0x52c63247e1f47db19d5ce0460030c497f067ca4cebf71ba98eeadabe20bace04\n        /* \"https://raw.githubusercontent.com/OpenZeppelin/openzeppelin-contracts-upgradeable/v5.0.2/contracts/token/ERC20/ERC20Upgradeable.sol\":3393:3409  return $._symbol */\n      dup1\n      sload\n        /* \"https://raw.githubusercontent.com/OpenZeppelin/openzeppelin-contracts-upgradeable/v5.0.2/contracts/token/ERC20/ERC20Upgradeable.sol\":3315:3328  string memory */\n      0x60\n      swap2\n      mload(0x00)\n      codecopy(0x00, data_3874827173e8df9f34323b12b251d1d3c53926ce129e30a0d69f1d47c277041b, 0x20)\n      mload(0x00)\n      swap1\n      0x00\n      mstore\n        /* \"https://raw.githubusercontent.com/OpenZeppelin/openzeppelin-contracts-upgradeable/v5.0.2/contracts/token/ERC20/ERC20Upgradeable.sol\":2359:2379  ERC20StorageLocation */\n      swap2\n        /* \"https://raw.githubusercontent.com/OpenZeppelin/openzeppelin-contracts-upgradeable/v5.0.2/contracts/token/ERC20/ERC20Upgradeable.sol\":3393:3409  return $._symbol */\n      tag_60\n      swap1\n      tag_61\n      jump\t// in\n        /* \"https://raw.githubusercontent.com/OpenZeppelin/openzeppelin-contracts-upgradeable/v5.0.2/contracts/token/ERC20/ERC20Upgradeable.sol\":4767:4945  function transfer(address to, uint256 value) public virtual returns (bool) {... */\n    tag_47:\n        /* \"https://raw.githubusercontent.com/OpenZeppelin/openzeppelin-contracts-upgradeable/v5.0.2/contracts/token/ERC20/ERC20Upgradeable.sol\":4836:4840  bool */\n      0x00\n        /* \"https://raw.githubusercontent.com/OpenZeppelin/openzeppelin-contracts-upgradeable/v5.0.2/contracts/utils/ContextUpgradeable.sol\":966:976  msg.sender */\n      caller\n        /* \"https://raw.githubusercontent.com/OpenZeppelin/openzeppelin-contracts-upgradeable/v5.0.2/contracts/token/ERC20/ERC20Upgradeable.sol\":4890:4917  _transfer(owner, to, value) */\n      tag_69\n        /* \"https://raw.githubusercontent.com/OpenZeppelin/openzeppelin-contracts-upgradeable/v5.0.2/contracts/utils/ContextUpgradeable.sol\":966:976  msg.sender */\n      dup2\n        /* \"https://raw.githubusercontent.com/OpenZeppelin/openzeppelin-contracts-upgradeable/v5.0.2/contracts/token/ERC20/ERC20Upgradeable.sol\":4907:4909  to */\n      dup6\n        /* \"https://raw.githubusercontent.com/OpenZeppelin/openzeppelin-contracts-upgradeable/v5.0.2/contracts/token/ERC20/ERC20Upgradeable.sol\":4911:4916  value */\n      dup6\n        /* \"https://raw.githubusercontent.com/OpenZeppelin/openzeppelin-contracts-upgradeable/v5.0.2/contracts/token/ERC20/ERC20Upgradeable.sol\":4890:4899  _transfer */\n      tag_78\n        /* \"https://raw.githubusercontent.com/OpenZeppelin/openzeppelin-contracts-upgradeable/v5.0.2/contracts/token/ERC20/ERC20Upgradeable.sol\":4890:4917  _transfer(owner, to, value) */\n      jump\t// in\n        /* \"contracts/RHEMVote.sol\":406:655  function initialize(address communityWallet) public initializer {... */\n    tag_51:\n        /* \"https://raw.githubusercontent.com/OpenZeppelin/openzeppelin-contracts-upgradeable/v5.0.2/contracts/proxy/utils/Initializable.sol\":8870:8891  INITIALIZABLE_STORAGE */\n      0xf0c57e16840df040f15088dc2f81fe391c3923bec73e23a9662efc9c229c6a00\n        /* \"https://raw.githubusercontent.com/OpenZeppelin/openzeppelin-contracts-upgradeable/v5.0.2/contracts/proxy/utils/Initializable.sol\":4302:4317  $._initializing */\n      dup1\n      sload\n      shl(0x40, 0x01)\n      dup2\n      div\n      0xff\n      and\n        /* \"https://raw.githubusercontent.com/OpenZeppelin/openzeppelin-contracts-upgradeable/v5.0.2/contracts/proxy/utils/Initializable.sol\":4301:4317  !$._initializing */\n      iszero\n      swap1\n        /* \"https://raw.githubusercontent.com/OpenZeppelin/openzeppelin-contracts-upgradeable/v5.0.2/contracts/proxy/utils/Initializable.sol\":4348:4362  $._initialized */\n      0xffffffffffffffff\n      and\n        /* \"https://raw.githubusercontent.com/OpenZeppelin/openzeppelin-contracts-upgradeable/v5.0.2/contracts/proxy/utils/Initializable.sol\":4158:4188  InitializableStorage storage $ */\n      0x00\n        /* \"https://raw.githubusercontent.com/OpenZeppelin/openzeppelin-contracts-upgradeable/v5.0.2/contracts/proxy/utils/Initializable.sol\":4726:4742  initialized == 0 */\n      dup2\n      iszero\n        /* \"https://raw.githubusercontent.com/OpenZeppelin/openzeppelin-contracts-upgradeable/v5.0.2/contracts/proxy/utils/Initializable.sol\":4726:4760  initialized == 0 && isTopLevelCall */\n      dup1\n      iszero\n      tag_95\n      jumpi\n      pop\n        /* \"https://raw.githubusercontent.com/OpenZeppelin/openzeppelin-contracts-upgradeable/v5.0.2/contracts/proxy/utils/Initializable.sol\":4746:4760  isTopLevelCall */\n      dup3\n        /* \"https://raw.githubusercontent.com/OpenZeppelin/openzeppelin-contracts-upgradeable/v5.0.2/contracts/proxy/utils/Initializable.sol\":4726:4760  initialized == 0 && isTopLevelCall */\n    tag_95:\n        /* \"https://raw.githubusercontent.com/OpenZeppelin/openzeppelin-contracts-upgradeable/v5.0.2/contracts/proxy/utils/Initializable.sol\":4706:4760  bool initialSetup = initialized == 0 && isTopLevelCall */\n      swap1\n      pop\n        /* \"https://raw.githubusercontent.com/OpenZeppelin/openzeppelin-contracts-upgradeable/v5.0.2/contracts/proxy/utils/Initializable.sol\":4770:4787  bool construction */\n      0x00\n        /* \"https://raw.githubusercontent.com/OpenZeppelin/openzeppelin-contracts-upgradeable/v5.0.2/contracts/proxy/utils/Initializable.sol\":4790:4801  initialized */\n      dup3\n        /* \"https://raw.githubusercontent.com/OpenZeppelin/openzeppelin-contracts-upgradeable/v5.0.2/contracts/proxy/utils/Initializable.sol\":4790:4806  initialized == 1 */\n      0xffffffffffffffff\n      and\n        /* \"https://raw.githubusercontent.com/OpenZeppelin/openzeppelin-contracts-upgradeable/v5.0.2/contracts/proxy/utils/Initializable.sol\":4805:4806  1 */\n      0x01\n        /* \"https://raw.githubusercontent.com/OpenZeppelin/openzeppelin-contracts-upgradeable/v5.0.2/contracts/proxy/utils/Initializable.sol\":4790:4806  initialized == 1 */\n      eq\n        /* \"https://raw.githubusercontent.com/OpenZeppelin/openzeppelin-contracts-upgradeable/v5.0.2/contracts/proxy/utils/Initializable.sol\":4790:4840  initialized == 1 && address(this).code.length == 0 */\n      dup1\n      iszero\n      tag_96\n      jumpi\n      pop\n        /* \"https://raw.githubusercontent.com/OpenZeppelin/openzeppelin-contracts-upgradeable/v5.0.2/contracts/proxy/utils/Initializable.sol\":4818:4822  this */\n      address\n        /* \"https://raw.githubusercontent.com/OpenZeppelin/openzeppelin-contracts-upgradeable/v5.0.2/contracts/proxy/utils/Initializable.sol\":4810:4835  address(this).code.length */\n      extcodesize\n        /* \"https://raw.githubusercontent.com/OpenZeppelin/openzeppelin-contracts-upgradeable/v5.0.2/contracts/proxy/utils/Initializable.sol\":4810:4840  address(this).code.length == 0 */\n      iszero\n        /* \"https://raw.githubusercontent.com/OpenZeppelin/openzeppelin-contracts-upgradeable/v5.0.2/contracts/proxy/utils/Initializable.sol\":4790:4840  initialized == 1 && address(this).code.length == 0 */\n    tag_96:\n        /* \"https://raw.githubusercontent.com/OpenZeppelin/openzeppelin-contracts-upgradeable/v5.0.2/contracts/proxy/utils/Initializable.sol\":4770:4840  bool construction = initialized == 1 && address(this).code.length == 0 */\n      swap1\n      pop\n        /* \"https://raw.githubusercontent.com/OpenZeppelin/openzeppelin-contracts-upgradeable/v5.0.2/contracts/proxy/utils/Initializable.sol\":4856:4868  initialSetup */\n      dup2\n        /* \"https://raw.githubusercontent.com/OpenZeppelin/openzeppelin-contracts-upgradeable/v5.0.2/contracts/proxy/utils/Initializable.sol\":4855:4868  !initialSetup */\n      iszero\n        /* \"https://raw.githubusercontent.com/OpenZeppelin/openzeppelin-contracts-upgradeable/v5.0.2/contracts/proxy/utils/Initializable.sol\":4855:4885  !initialSetup && !construction */\n      dup1\n      iszero\n      tag_97\n      jumpi\n      pop\n        /* \"https://raw.githubusercontent.com/OpenZeppelin/openzeppelin-contracts-upgradeable/v5.0.2/contracts/proxy/utils/Initializable.sol\":4873:4885  construction */\n      dup1\n        /* \"https://raw.githubusercontent.com/OpenZeppelin/openzeppelin-contracts-upgradeable/v5.0.2/contracts/proxy/utils/Initializable.sol\":4872:4885  !construction */\n      iszero\n        /* \"https://raw.githubusercontent.com/OpenZeppelin/openzeppelin-contracts-upgradeable/v5.0.2/contracts/proxy/utils/Initializable.sol\":4855:4885  !initialSetup && !construction */\n    tag_97:\n        /* \"https://raw.githubusercontent.com/OpenZeppelin/openzeppelin-contracts-upgradeable/v5.0.2/contracts/proxy/utils/Initializable.sol\":4851:4942  if (!initialSetup && !construction) {... */\n      iszero\n      tag_98\n      jumpi\n        /* \"https://raw.githubusercontent.com/OpenZeppelin/openzeppelin-contracts-upgradeable/v5.0.2/contracts/proxy/utils/Initializable.sol\":4908:4931  InvalidInitialization() */\n      mload(0x40)\n      shl(0xe0, 0xf92ee8a9)\n      dup2\n      mstore\n      0x04\n      add\n      mload(0x40)\n      dup1\n      swap2\n      sub\n      swap1\n      revert\n        /* \"https://raw.githubusercontent.com/OpenZeppelin/openzeppelin-contracts-upgradeable/v5.0.2/contracts/proxy/utils/Initializable.sol\":4851:4942  if (!initialSetup && !construction) {... */\n    tag_98:\n        /* \"https://raw.githubusercontent.com/OpenZeppelin/openzeppelin-contracts-upgradeable/v5.0.2/contracts/proxy/utils/Initializable.sol\":4951:4969  $._initialized = 1 */\n      dup5\n      sload\n      not(0xffffffffffffffff)\n      and\n        /* \"https://raw.githubusercontent.com/OpenZeppelin/openzeppelin-contracts-upgradeable/v5.0.2/contracts/proxy/utils/Initializable.sol\":4968:4969  1 */\n      0x01\n        /* \"https://raw.githubusercontent.com/OpenZeppelin/openzeppelin-contracts-upgradeable/v5.0.2/contracts/proxy/utils/Initializable.sol\":4951:4969  $._initialized = 1 */\n      or\n      dup6\n      sstore\n        /* \"https://raw.githubusercontent.com/OpenZeppelin/openzeppelin-contracts-upgradeable/v5.0.2/contracts/proxy/utils/Initializable.sol\":4979:5046  if (isTopLevelCall) {... */\n      dup4\n      iszero\n      tag_99\n      jumpi\n        /* \"https://raw.githubusercontent.com/OpenZeppelin/openzeppelin-contracts-upgradeable/v5.0.2/contracts/proxy/utils/Initializable.sol\":5013:5035  $._initializing = true */\n      dup5\n      sload\n      not(shl(0x40, 0xff))\n      and\n      shl(0x40, 0x01)\n      or\n      dup6\n      sstore\n        /* \"https://raw.githubusercontent.com/OpenZeppelin/openzeppelin-contracts-upgradeable/v5.0.2/contracts/proxy/utils/Initializable.sol\":4979:5046  if (isTopLevelCall) {... */\n    tag_99:\n      sub(shl(0xa0, 0x01), 0x01)\n        /* \"contracts/RHEMVote.sol\":489:518  communityWallet != address(0) */\n      dup7\n      and\n        /* \"contracts/RHEMVote.sol\":481:547  require(communityWallet != address(0), \"Invalid community wallet\") */\n      tag_101\n      jumpi\n      mload(0x40)\n      shl(0xe5, 0x461bcd)\n      dup2\n      mstore\n        /* \"#utility.yul\":2905:2907   */\n      0x20\n        /* \"contracts/RHEMVote.sol\":481:547  require(communityWallet != address(0), \"Invalid community wallet\") */\n      0x04\n      dup3\n      add\n        /* \"#utility.yul\":2887:2908   */\n      mstore\n        /* \"#utility.yul\":2944:2946   */\n      0x18\n        /* \"#utility.yul\":2924:2942   */\n      0x24\n      dup3\n      add\n        /* \"#utility.yul\":2917:2947   */\n      mstore\n        /* \"#utility.yul\":2983:3009   */\n      0x496e76616c696420636f6d6d756e6974792077616c6c65740000000000000000\n        /* \"#utility.yul\":2963:2981   */\n      0x44\n      dup3\n      add\n        /* \"#utility.yul\":2956:3010   */\n      mstore\n        /* \"#utility.yul\":3027:3045   */\n      0x64\n      add\n        /* \"contracts/RHEMVote.sol\":481:547  require(communityWallet != address(0), \"Invalid community wallet\") */\n    tag_102:\n      mload(0x40)\n      dup1\n      swap2\n      sub\n      swap1\n      revert\n    tag_101:\n        /* \"contracts/RHEMVote.sol\":558:592  __ERC20_init(\"RHEM Vote\", \"RVOTE\") */\n      tag_104\n      mload(0x40)\n      dup1\n      0x40\n      add\n      0x40\n      mstore\n      dup1\n      0x09\n      dup2\n      mstore\n      0x20\n      add\n      shl(0xb8, 0x5248454d20566f7465)\n      dup2\n      mstore\n      pop\n      mload(0x40)\n      dup1\n      0x40\n      add\n      0x40\n      mstore\n      dup1\n      0x05\n      dup2\n      mstore\n      0x20\n      add\n      shl(0xd8, 0x52564f5445)\n      dup2\n      mstore\n      pop\n        /* \"contracts/RHEMVote.sol\":558:570  __ERC20_init */\n      tag_105\n        /* \"contracts/RHEMVote.sol\":558:592  __ERC20_init(\"RHEM Vote\", \"RVOTE\") */\n      jump\t// in\n    tag_104:\n        /* \"contracts/RHEMVote.sol\":603:647  _mint(communityWallet, 100_000_000 * 10**18) */\n      tag_106\n        /* \"contracts/RHEMVote.sol\":609:624  communityWallet */\n      dup7\n        /* \"contracts/RHEMVote.sol\":626:646  100_000_000 * 10**18 */\n      0x52b7d2dcc80cd2e4000000\n        /* \"contracts/RHEMVote.sol\":603:608  _mint */\n      tag_107\n        /* \"contracts/RHEMVote.sol\":603:647  _mint(communityWallet, 100_000_000 * 10**18) */\n      jump\t// in\n    tag_106:\n        /* \"https://raw.githubusercontent.com/OpenZeppelin/openzeppelin-contracts-upgradeable/v5.0.2/contracts/proxy/utils/Initializable.sol\":5070:5084  isTopLevelCall */\n      dup4\n        /* \"https://raw.githubusercontent.com/OpenZeppelin/openzeppelin-contracts-upgradeable/v5.0.2/contracts/proxy/utils/Initializable.sol\":5066:5167  if (isTopLevelCall) {... */\n      iszero\n      tag_108\n      jumpi\n        /* \"https://raw.githubusercontent.com/OpenZeppelin/openzeppelin-contracts-upgradeable/v5.0.2/contracts/proxy/utils/Initializable.sol\":5100:5123  $._initializing = false */\n      dup5\n      sload\n      not(shl(0x40, 0xff))\n      and\n      dup6\n      sstore\n        /* \"https://raw.githubusercontent.com/OpenZeppelin/openzeppelin-contracts-upgradeable/v5.0.2/contracts/proxy/utils/Initializable.sol\":5142:5156  Initialized(1) */\n      mload(0x40)\n      0x01\n        /* \"#utility.yul\":3209:3259   */\n      dup2\n      mstore\n        /* \"https://raw.githubusercontent.com/OpenZeppelin/openzeppelin-contracts-upgradeable/v5.0.2/contracts/proxy/utils/Initializable.sol\":5142:5156  Initialized(1) */\n      0xc7f505b2f371ae2175ee4913f4499e1f2633a7b5936321eed1cdaeb6115181d2\n      swap1\n        /* \"#utility.yul\":3197:3199   */\n      0x20\n        /* \"#utility.yul\":3182:3200   */\n      add\n        /* \"https://raw.githubusercontent.com/OpenZeppelin/openzeppelin-contracts-upgradeable/v5.0.2/contracts/proxy/utils/Initializable.sol\":5142:5156  Initialized(1) */\n      mload(0x40)\n      dup1\n      swap2\n      sub\n      swap1\n      log1\n        /* \"https://raw.githubusercontent.com/OpenZeppelin/openzeppelin-contracts-upgradeable/v5.0.2/contracts/proxy/utils/Initializable.sol\":5066:5167  if (isTopLevelCall) {... */\n    tag_108:\n        /* \"https://raw.githubusercontent.com/OpenZeppelin/openzeppelin-contracts-upgradeable/v5.0.2/contracts/proxy/utils/Initializable.sol\":4092:5173  {... */\n      pop\n      pop\n      pop\n      pop\n      pop\n        /* \"contracts/RHEMVote.sol\":406:655  function initialize(address communityWallet) public initializer {... */\n      pop\n      jump\t// out\n        /* \"https://raw.githubusercontent.com/OpenZeppelin/openzeppelin-contracts-upgradeable/v5.0.2/contracts/token/ERC20/ERC20Upgradeable.sol\":5003:5198  function allowance(address owner, address spender) public view virtual returns (uint256) {... */\n    tag_55:\n      sub(shl(0xa0, 0x01), 0x01)\n        /* \"https://raw.githubusercontent.com/OpenZeppelin/openzeppelin-contracts-upgradeable/v5.0.2/contracts/token/ERC20/ERC20Upgradeable.sol\":5162:5182  $._allowances[owner] */\n      swap2\n      dup3\n      and\n        /* \"https://raw.githubusercontent.com/OpenZeppelin/openzeppelin-contracts-upgradeable/v5.0.2/contracts/token/ERC20/ERC20Upgradeable.sol\":5083:5090  uint256 */\n      0x00\n        /* \"https://raw.githubusercontent.com/OpenZeppelin/openzeppelin-contracts-upgradeable/v5.0.2/contracts/token/ERC20/ERC20Upgradeable.sol\":5162:5182  $._allowances[owner] */\n      swap1\n      dup2\n      mstore\n        /* \"https://raw.githubusercontent.com/OpenZeppelin/openzeppelin-contracts-upgradeable/v5.0.2/contracts/token/ERC20/ERC20Upgradeable.sol\":5162:5175  $._allowances */\n      0x52c63247e1f47db19d5ce0460030c497f067ca4cebf71ba98eeadabe20bace01\n        /* \"https://raw.githubusercontent.com/OpenZeppelin/openzeppelin-contracts-upgradeable/v5.0.2/contracts/token/ERC20/ERC20Upgradeable.sol\":5162:5182  $._allowances[owner] */\n      0x20\n      swap1\n      dup2\n      mstore\n      0x40\n      dup1\n      dup4\n      keccak256\n        /* \"https://raw.githubusercontent.com/OpenZeppelin/openzeppelin-contracts-upgradeable/v5.0.2/contracts/token/ERC20/ERC20Upgradeable.sol\":5162:5191  $._allowances[owner][spender] */\n      swap4\n      swap1\n      swap5\n      and\n      dup3\n      mstore\n      swap2\n      swap1\n      swap2\n      mstore\n      keccak256\n      sload\n      swap1\n        /* \"https://raw.githubusercontent.com/OpenZeppelin/openzeppelin-contracts-upgradeable/v5.0.2/contracts/token/ERC20/ERC20Upgradeable.sol\":5003:5198  function allowance(address owner, address spender) public view virtual returns (uint256) {... */\n      jump\t// out\n        /* \"https://raw.githubusercontent.com/OpenZeppelin/openzeppelin-contracts-upgradeable/v5.0.2/contracts/token/ERC20/ERC20Upgradeable.sol\":10264:10392  function _approve(address owner, address spender, uint256 value) internal {... */\n    tag_70:\n        /* \"https://raw.githubusercontent.com/OpenZeppelin/openzeppelin-contracts-upgradeable/v5.0.2/contracts/token/ERC20/ERC20Upgradeable.sol\":10348:10385  _approve(owner, spender, value, true) */\n      tag_116\n        /* \"https://raw.githubusercontent.com/OpenZeppelin/openzeppelin-contracts-upgradeable/v5.0.2/contracts/token/ERC20/ERC20Upgradeable.sol\":10357:10362  owner */\n      dup4\n        /* \"https://raw.githubusercontent.com/OpenZeppelin/openzeppelin-contracts-upgradeable/v5.0.2/contracts/token/ERC20/ERC20Upgradeable.sol\":10364:10371  spender */\n      dup4\n        /* \"https://raw.githubusercontent.com/OpenZeppelin/openzeppelin-contracts-upgradeable/v5.0.2/contracts/token/ERC20/ERC20Upgradeable.sol\":10373:10378  value */\n      dup4\n        /* \"https://raw.githubusercontent.com/OpenZeppelin/openzeppelin-contracts-upgradeable/v5.0.2/contracts/token/ERC20/ERC20Upgradeable.sol\":10380:10384  true */\n      0x01\n        /* \"https://raw.githubusercontent.com/OpenZeppelin/openzeppelin-contracts-upgradeable/v5.0.2/contracts/token/ERC20/ERC20Upgradeable.sol\":10348:10356  _approve */\n      tag_117\n        /* \"https://raw.githubusercontent.com/OpenZeppelin/openzeppelin-contracts-upgradeable/v5.0.2/contracts/token/ERC20/ERC20Upgradeable.sol\":10348:10385  _approve(owner, spender, value, true) */\n      jump\t// in\n    tag_116:\n        /* \"https://raw.githubusercontent.com/OpenZeppelin/openzeppelin-contracts-upgradeable/v5.0.2/contracts/token/ERC20/ERC20Upgradeable.sol\":10264:10392  function _approve(address owner, address spender, uint256 value) internal {... */\n      pop\n      pop\n      pop\n      jump\t// out\n        /* \"https://raw.githubusercontent.com/OpenZeppelin/openzeppelin-contracts-upgradeable/v5.0.2/contracts/token/ERC20/ERC20Upgradeable.sol\":11993:12470  function _spendAllowance(address owner, address spender, uint256 value) internal virtual {... */\n    tag_76:\n        /* \"https://raw.githubusercontent.com/OpenZeppelin/openzeppelin-contracts-upgradeable/v5.0.2/contracts/token/ERC20/ERC20Upgradeable.sol\":12092:12116  uint256 currentAllowance */\n      0x00\n        /* \"https://raw.githubusercontent.com/OpenZeppelin/openzeppelin-contracts-upgradeable/v5.0.2/contracts/token/ERC20/ERC20Upgradeable.sol\":12119:12144  allowance(owner, spender) */\n      tag_119\n        /* \"https://raw.githubusercontent.com/OpenZeppelin/openzeppelin-contracts-upgradeable/v5.0.2/contracts/token/ERC20/ERC20Upgradeable.sol\":12129:12134  owner */\n      dup5\n        /* \"https://raw.githubusercontent.com/OpenZeppelin/openzeppelin-contracts-upgradeable/v5.0.2/contracts/token/ERC20/ERC20Upgradeable.sol\":12136:12143  spender */\n      dup5\n        /* \"https://raw.githubusercontent.com/OpenZeppelin/openzeppelin-contracts-upgradeable/v5.0.2/contracts/token/ERC20/ERC20Upgradeable.sol\":12119:12128  allowance */\n      tag_55\n        /* \"https://raw.githubusercontent.com/OpenZeppelin/openzeppelin-contracts-upgradeable/v5.0.2/contracts/token/ERC20/ERC20Upgradeable.sol\":12119:12144  allowance(owner, spender) */\n      jump\t// in\n    tag_119:\n        /* \"https://raw.githubusercontent.com/OpenZeppelin/openzeppelin-contracts-upgradeable/v5.0.2/contracts/token/ERC20/ERC20Upgradeable.sol\":12092:12144  uint256 currentAllowance = allowance(owner, spender) */\n      swap1\n      pop\n      not(0x00)\n        /* \"https://raw.githubusercontent.com/OpenZeppelin/openzeppelin-contracts-upgradeable/v5.0.2/contracts/token/ERC20/ERC20Upgradeable.sol\":12158:12174  currentAllowance */\n      dup2\n        /* \"https://raw.githubusercontent.com/OpenZeppelin/openzeppelin-contracts-upgradeable/v5.0.2/contracts/token/ERC20/ERC20Upgradeable.sol\":12158:12195  currentAllowance != type(uint256).max */\n      eq\n        /* \"https://raw.githubusercontent.com/OpenZeppelin/openzeppelin-contracts-upgradeable/v5.0.2/contracts/token/ERC20/ERC20Upgradeable.sol\":12154:12464  if (currentAllowance != type(uint256).max) {... */\n      tag_124\n      jumpi\n        /* \"https://raw.githubusercontent.com/OpenZeppelin/openzeppelin-contracts-upgradeable/v5.0.2/contracts/token/ERC20/ERC20Upgradeable.sol\":12234:12239  value */\n      dup2\n        /* \"https://raw.githubusercontent.com/OpenZeppelin/openzeppelin-contracts-upgradeable/v5.0.2/contracts/token/ERC20/ERC20Upgradeable.sol\":12215:12231  currentAllowance */\n      dup2\n        /* \"https://raw.githubusercontent.com/OpenZeppelin/openzeppelin-contracts-upgradeable/v5.0.2/contracts/token/ERC20/ERC20Upgradeable.sol\":12215:12239  currentAllowance < value */\n      lt\n        /* \"https://raw.githubusercontent.com/OpenZeppelin/openzeppelin-contracts-upgradeable/v5.0.2/contracts/token/ERC20/ERC20Upgradeable.sol\":12211:12341  if (currentAllowance < value) {... */\n      iszero\n      tag_121\n      jumpi\n        /* \"https://raw.githubusercontent.com/OpenZeppelin/openzeppelin-contracts-upgradeable/v5.0.2/contracts/token/ERC20/ERC20Upgradeable.sol\":12266:12326  ERC20InsufficientAllowance(spender, currentAllowance, value) */\n      mload(0x40)\n      shl(0xe1, 0x7dc7a0d9)\n      dup2\n      mstore\n      sub(shl(0xa0, 0x01), 0x01)\n        /* \"#utility.yul\":3490:3522   */\n      dup5\n      and\n        /* \"https://raw.githubusercontent.com/OpenZeppelin/openzeppelin-contracts-upgradeable/v5.0.2/contracts/token/ERC20/ERC20Upgradeable.sol\":12266:12326  ERC20InsufficientAllowance(spender, currentAllowance, value) */\n      0x04\n      dup3\n      add\n        /* \"#utility.yul\":3472:3523   */\n      mstore\n        /* \"#utility.yul\":3539:3557   */\n      0x24\n      dup2\n      add\n        /* \"#utility.yul\":3532:3566   */\n      dup3\n      swap1\n      mstore\n        /* \"#utility.yul\":3582:3600   */\n      0x44\n      dup2\n      add\n        /* \"#utility.yul\":3575:3609   */\n      dup4\n      swap1\n      mstore\n        /* \"#utility.yul\":3445:3463   */\n      0x64\n      add\n        /* \"https://raw.githubusercontent.com/OpenZeppelin/openzeppelin-contracts-upgradeable/v5.0.2/contracts/token/ERC20/ERC20Upgradeable.sol\":12266:12326  ERC20InsufficientAllowance(spender, currentAllowance, value) */\n      tag_102\n        /* \"#utility.yul\":3270:3615   */\n      jump\n        /* \"https://raw.githubusercontent.com/OpenZeppelin/openzeppelin-contracts-upgradeable/v5.0.2/contracts/token/ERC20/ERC20Upgradeable.sol\":12211:12341  if (currentAllowance < value) {... */\n    tag_121:\n        /* \"https://raw.githubusercontent.com/OpenZeppelin/openzeppelin-contracts-upgradeable/v5.0.2/contracts/token/ERC20/ERC20Upgradeable.sol\":12382:12439  _approve(owner, spender, currentAllowance - value, false) */\n      tag_124\n        /* \"https://raw.githubusercontent.com/OpenZeppelin/openzeppelin-contracts-upgradeable/v5.0.2/contracts/token/ERC20/ERC20Upgradeable.sol\":12391:12396  owner */\n      dup5\n        /* \"https://raw.githubusercontent.com/OpenZeppelin/openzeppelin-contracts-upgradeable/v5.0.2/contracts/token/ERC20/ERC20Upgradeable.sol\":12398:12405  spender */\n      dup5\n        /* \"https://raw.githubusercontent.com/OpenZeppelin/openzeppelin-contracts-upgradeable/v5.0.2/contracts/token/ERC20/ERC20Upgradeable.sol\":12426:12431  value */\n      dup5\n        /* \"https://raw.githubusercontent.com/OpenZeppelin/openzeppelin-contracts-upgradeable/v5.0.2/contracts/token/ERC20/ERC20Upgradeable.sol\":12407:12423  currentAllowance */\n      dup5\n        /* \"https://raw.githubusercontent.com/OpenZeppelin/openzeppelin-contracts-upgradeable/v5.0.2/contracts/token/ERC20/ERC20Upgradeable.sol\":12407:12431  currentAllowance - value */\n      sub\n        /* \"https://raw.githubusercontent.com/OpenZeppelin/openzeppelin-contracts-upgradeable/v5.0.2/contracts/token/ERC20/ERC20Upgradeable.sol\":12433:12438  false */\n      0x00\n        /* \"https://raw.githubusercontent.com/OpenZeppelin/openzeppelin-contracts-upgradeable/v5.0.2/contracts/token/ERC20/ERC20Upgradeable.sol\":12382:12390  _approve */\n      tag_117\n        /* \"https://raw.githubusercontent.com/OpenZeppelin/openzeppelin-contracts-upgradeable/v5.0.2/contracts/token/ERC20/ERC20Upgradeable.sol\":12382:12439  _approve(owner, spender, currentAllowance - value, false) */\n      jump\t// in\n    tag_124:\n        /* \"https://raw.githubusercontent.com/OpenZeppelin/openzeppelin-contracts-upgradeable/v5.0.2/contracts/token/ERC20/ERC20Upgradeable.sol\":12082:12470  {... */\n      pop\n        /* \"https://raw.githubusercontent.com/OpenZeppelin/openzeppelin-contracts-upgradeable/v5.0.2/contracts/token/ERC20/ERC20Upgradeable.sol\":11993:12470  function _spendAllowance(address owner, address spender, uint256 value) internal virtual {... */\n      pop\n      pop\n      pop\n      jump\t// out\n        /* \"https://raw.githubusercontent.com/OpenZeppelin/openzeppelin-contracts-upgradeable/v5.0.2/contracts/token/ERC20/ERC20Upgradeable.sol\":6868:7168  function _transfer(address from, address to, uint256 value) internal {... */\n    tag_78:\n      sub(shl(0xa0, 0x01), 0x01)\n        /* \"https://raw.githubusercontent.com/OpenZeppelin/openzeppelin-contracts-upgradeable/v5.0.2/contracts/token/ERC20/ERC20Upgradeable.sol\":6951:6969  from == address(0) */\n      dup4\n      and\n        /* \"https://raw.githubusercontent.com/OpenZeppelin/openzeppelin-contracts-upgradeable/v5.0.2/contracts/token/ERC20/ERC20Upgradeable.sol\":6947:7033  if (from == address(0)) {... */\n      tag_126\n      jumpi\n        /* \"https://raw.githubusercontent.com/OpenZeppelin/openzeppelin-contracts-upgradeable/v5.0.2/contracts/token/ERC20/ERC20Upgradeable.sol\":6992:7022  ERC20InvalidSender(address(0)) */\n      mload(0x40)\n      shl(0xe1, 0x4b637e8f)\n      dup2\n      mstore\n        /* \"https://raw.githubusercontent.com/OpenZeppelin/openzeppelin-contracts-upgradeable/v5.0.2/contracts/token/ERC20/ERC20Upgradeable.sol\":7019:7020  0 */\n      0x00\n        /* \"https://raw.githubusercontent.com/OpenZeppelin/openzeppelin-contracts-upgradeable/v5.0.2/contracts/token/ERC20/ERC20Upgradeable.sol\":6992:7022  ERC20InvalidSender(address(0)) */\n      0x04\n      dup3\n      add\n        /* \"#utility.yul\":3766:3817   */\n      mstore\n        /* \"#utility.yul\":3739:3757   */\n      0x24\n      add\n        /* \"https://raw.githubusercontent.com/OpenZeppelin/openzeppelin-contracts-upgradeable/v5.0.2/contracts/token/ERC20/ERC20Upgradeable.sol\":6992:7022  ERC20InvalidSender(address(0)) */\n      tag_102\n        /* \"#utility.yul\":3620:3823   */\n      jump\n        /* \"https://raw.githubusercontent.com/OpenZeppelin/openzeppelin-contracts-upgradeable/v5.0.2/contracts/token/ERC20/ERC20Upgradeable.sol\":6947:7033  if (from == address(0)) {... */\n    tag_126:\n      sub(shl(0xa0, 0x01), 0x01)\n        /* \"https://raw.githubusercontent.com/OpenZeppelin/openzeppelin-contracts-upgradeable/v5.0.2/contracts/token/ERC20/ERC20Upgradeable.sol\":7046:7062  to == address(0) */\n      dup3\n      and\n        /* \"https://raw.githubusercontent.com/OpenZeppelin/openzeppelin-contracts-upgradeable/v5.0.2/contracts/token/ERC20/ERC20Upgradeable.sol\":7042:7128  if (to == address(0)) {... */\n      tag_129\n      jumpi\n        /* \"https://raw.githubusercontent.com/OpenZeppelin/openzeppelin-contracts-upgradeable/v5.0.2/contracts/token/ERC20/ERC20Upgradeable.sol\":7085:7117  ERC20InvalidReceiver(address(0)) */\n      mload(0x40)\n      shl(0xe0, 0xec442f05)\n      dup2\n      mstore\n        /* \"https://raw.githubusercontent.com/OpenZeppelin/openzeppelin-contracts-upgradeable/v5.0.2/contracts/token/ERC20/ERC20Upgradeable.sol\":7114:7115  0 */\n      0x00\n        /* \"https://raw.githubusercontent.com/OpenZeppelin/openzeppelin-contracts-upgradeable/v5.0.2/contracts/token/ERC20/ERC20Upgradeable.sol\":7085:7117  ERC20InvalidReceiver(address(0)) */\n      0x04\n      dup3\n      add\n        /* \"#utility.yul\":3766:3817   */\n      mstore\n        /* \"#utility.yul\":3739:3757   */\n      0x24\n      add\n        /* \"https://raw.githubusercontent.com/OpenZeppelin/openzeppelin-contracts-upgradeable/v5.0.2/contracts/token/ERC20/ERC20Upgradeable.sol\":7085:7117  ERC20InvalidReceiver(address(0)) */\n      tag_102\n        /* \"#utility.yul\":3620:3823   */\n      jump\n        /* \"https://raw.githubusercontent.com/OpenZeppelin/openzeppelin-contracts-upgradeable/v5.0.2/contracts/token/ERC20/ERC20Upgradeable.sol\":7042:7128  if (to == address(0)) {... */\n    tag_129:\n        /* \"https://raw.githubusercontent.com/OpenZeppelin/openzeppelin-contracts-upgradeable/v5.0.2/contracts/token/ERC20/ERC20Upgradeable.sol\":7137:7161  _update(from, to, value) */\n      tag_116\n        /* \"https://raw.githubusercontent.com/OpenZeppelin/openzeppelin-contracts-upgradeable/v5.0.2/contracts/token/ERC20/ERC20Upgradeable.sol\":7145:7149  from */\n      dup4\n        /* \"https://raw.githubusercontent.com/OpenZeppelin/openzeppelin-contracts-upgradeable/v5.0.2/contracts/token/ERC20/ERC20Upgradeable.sol\":7151:7153  to */\n      dup4\n        /* \"https://raw.githubusercontent.com/OpenZeppelin/openzeppelin-contracts-upgradeable/v5.0.2/contracts/token/ERC20/ERC20Upgradeable.sol\":7155:7160  value */\n      dup4\n        /* \"https://raw.githubusercontent.com/OpenZeppelin/openzeppelin-contracts-upgradeable/v5.0.2/contracts/token/ERC20/ERC20Upgradeable.sol\":7137:7144  _update */\n      tag_132\n        /* \"https://raw.githubusercontent.com/OpenZeppelin/openzeppelin-contracts-upgradeable/v5.0.2/contracts/token/ERC20/ERC20Upgradeable.sol\":7137:7161  _update(from, to, value) */\n      jump\t// in\n        /* \"https://raw.githubusercontent.com/OpenZeppelin/openzeppelin-contracts-upgradeable/v5.0.2/contracts/token/ERC20/ERC20Upgradeable.sol\":2577:2724  function __ERC20_init(string memory name_, string memory symbol_) internal onlyInitializing {... */\n    tag_105:\n        /* \"https://raw.githubusercontent.com/OpenZeppelin/openzeppelin-contracts-upgradeable/v5.0.2/contracts/proxy/utils/Initializable.sol\":6931:6951  _checkInitializing() */\n      tag_135\n        /* \"https://raw.githubusercontent.com/OpenZeppelin/openzeppelin-contracts-upgradeable/v5.0.2/contracts/proxy/utils/Initializable.sol\":6931:6949  _checkInitializing */\n      tag_136\n        /* \"https://raw.githubusercontent.com/OpenZeppelin/openzeppelin-contracts-upgradeable/v5.0.2/contracts/proxy/utils/Initializable.sol\":6931:6951  _checkInitializing() */\n      jump\t// in\n    tag_135:\n        /* \"https://raw.githubusercontent.com/OpenZeppelin/openzeppelin-contracts-upgradeable/v5.0.2/contracts/token/ERC20/ERC20Upgradeable.sol\":2679:2717  __ERC20_init_unchained(name_, symbol_) */\n      tag_138\n        /* \"https://raw.githubusercontent.com/OpenZeppelin/openzeppelin-contracts-upgradeable/v5.0.2/contracts/token/ERC20/ERC20Upgradeable.sol\":2702:2707  name_ */\n      dup3\n        /* \"https://raw.githubusercontent.com/OpenZeppelin/openzeppelin-contracts-upgradeable/v5.0.2/contracts/token/ERC20/ERC20Upgradeable.sol\":2709:2716  symbol_ */\n      dup3\n        /* \"https://raw.githubusercontent.com/OpenZeppelin/openzeppelin-contracts-upgradeable/v5.0.2/contracts/token/ERC20/ERC20Upgradeable.sol\":2679:2701  __ERC20_init_unchained */\n      tag_139\n        /* \"https://raw.githubusercontent.com/OpenZeppelin/openzeppelin-contracts-upgradeable/v5.0.2/contracts/token/ERC20/ERC20Upgradeable.sol\":2679:2717  __ERC20_init_unchained(name_, symbol_) */\n      jump\t// in\n    tag_138:\n        /* \"https://raw.githubusercontent.com/OpenZeppelin/openzeppelin-contracts-upgradeable/v5.0.2/contracts/token/ERC20/ERC20Upgradeable.sol\":2577:2724  function __ERC20_init(string memory name_, string memory symbol_) internal onlyInitializing {... */\n      pop\n      pop\n      jump\t// out\n        /* \"https://raw.githubusercontent.com/OpenZeppelin/openzeppelin-contracts-upgradeable/v5.0.2/contracts/token/ERC20/ERC20Upgradeable.sol\":8996:9204  function _mint(address account, uint256 value) internal {... */\n    tag_107:\n      sub(shl(0xa0, 0x01), 0x01)\n        /* \"https://raw.githubusercontent.com/OpenZeppelin/openzeppelin-contracts-upgradeable/v5.0.2/contracts/token/ERC20/ERC20Upgradeable.sol\":9066:9087  account == address(0) */\n      dup3\n      and\n        /* \"https://raw.githubusercontent.com/OpenZeppelin/openzeppelin-contracts-upgradeable/v5.0.2/contracts/token/ERC20/ERC20Upgradeable.sol\":9062:9153  if (account == address(0)) {... */\n      tag_141\n      jumpi\n        /* \"https://raw.githubusercontent.com/OpenZeppelin/openzeppelin-contracts-upgradeable/v5.0.2/contracts/token/ERC20/ERC20Upgradeable.sol\":9110:9142  ERC20InvalidReceiver(address(0)) */\n      mload(0x40)\n      shl(0xe0, 0xec442f05)\n      dup2\n      mstore\n        /* \"https://raw.githubusercontent.com/OpenZeppelin/openzeppelin-contracts-upgradeable/v5.0.2/contracts/token/ERC20/ERC20Upgradeable.sol\":9139:9140  0 */\n      0x00\n        /* \"https://raw.githubusercontent.com/OpenZeppelin/openzeppelin-contracts-upgradeable/v5.0.2/contracts/token/ERC20/ERC20Upgradeable.sol\":9110:9142  ERC20InvalidReceiver(address(0)) */\n      0x04\n      dup3\n      add\n        /* \"#utility.yul\":3766:3817   */\n      mstore\n        /* \"#utility.yul\":3739:3757   */\n      0x24\n      add\n        /* \"https://raw.githubusercontent.com/OpenZeppelin/openzeppelin-contracts-upgradeable/v5.0.2/contracts/token/ERC20/ERC20Upgradeable.sol\":9110:9142  ERC20InvalidReceiver(address(0)) */\n      tag_102\n        /* \"#utility.yul\":3620:3823   */\n      jump\n        /* \"https://raw.githubusercontent.com/OpenZeppelin/openzeppelin-contracts-upgradeable/v5.0.2/contracts/token/ERC20/ERC20Upgradeable.sol\":9062:9153  if (account == address(0)) {... */\n    tag_141:\n        /* \"https://raw.githubusercontent.com/OpenZeppelin/openzeppelin-contracts-upgradeable/v5.0.2/contracts/token/ERC20/ERC20Upgradeable.sol\":9162:9197  _update(address(0), account, value) */\n      tag_138\n        /* \"https://raw.githubusercontent.com/OpenZeppelin/openzeppelin-contracts-upgradeable/v5.0.2/contracts/token/ERC20/ERC20Upgradeable.sol\":9178:9179  0 */\n      0x00\n        /* \"https://raw.githubusercontent.com/OpenZeppelin/openzeppelin-contracts-upgradeable/v5.0.2/contracts/token/ERC20/ERC20Upgradeable.sol\":9182:9189  account */\n      dup4\n        /* \"https://raw.githubusercontent.com/OpenZeppelin/openzeppelin-contracts-upgradeable/v5.0.2/contracts/token/ERC20/ERC20Upgradeable.sol\":9191:9196  value */\n      dup4\n        /* \"https://raw.githubusercontent.com/OpenZeppelin/openzeppelin-contracts-upgradeable/v5.0.2/contracts/token/ERC20/ERC20Upgradeable.sol\":9162:9169  _update */\n      tag_132\n        /* \"https://raw.githubusercontent.com/OpenZeppelin/openzeppelin-contracts-upgradeable/v5.0.2/contracts/token/ERC20/ERC20Upgradeable.sol\":9162:9197  _update(address(0), account, value) */\n      jump\t// in\n        /* \"https://raw.githubusercontent.com/OpenZeppelin/openzeppelin-contracts-upgradeable/v5.0.2/contracts/token/ERC20/ERC20Upgradeable.sol\":11224:11711  function _approve(address owner, address spender, uint256 value, bool emitEvent) internal virtual {... */\n    tag_117:\n      mload(0x00)\n      codecopy(0x00, data_3874827173e8df9f34323b12b251d1d3c53926ce129e30a0d69f1d47c277041b, 0x20)\n      mload(0x00)\n      swap1\n      0x00\n      mstore\n      sub(shl(0xa0, 0x01), 0x01)\n        /* \"https://raw.githubusercontent.com/OpenZeppelin/openzeppelin-contracts-upgradeable/v5.0.2/contracts/token/ERC20/ERC20Upgradeable.sol\":11389:11408  owner == address(0) */\n      dup6\n      and\n        /* \"https://raw.githubusercontent.com/OpenZeppelin/openzeppelin-contracts-upgradeable/v5.0.2/contracts/token/ERC20/ERC20Upgradeable.sol\":11385:11474  if (owner == address(0)) {... */\n      tag_146\n      jumpi\n        /* \"https://raw.githubusercontent.com/OpenZeppelin/openzeppelin-contracts-upgradeable/v5.0.2/contracts/token/ERC20/ERC20Upgradeable.sol\":11431:11463  ERC20InvalidApprover(address(0)) */\n      mload(0x40)\n      shl(0xe0, 0xe602df05)\n      dup2\n      mstore\n        /* \"https://raw.githubusercontent.com/OpenZeppelin/openzeppelin-contracts-upgradeable/v5.0.2/contracts/token/ERC20/ERC20Upgradeable.sol\":11460:11461  0 */\n      0x00\n        /* \"https://raw.githubusercontent.com/OpenZeppelin/openzeppelin-contracts-upgradeable/v5.0.2/contracts/token/ERC20/ERC20Upgradeable.sol\":11431:11463  ERC20InvalidApprover(address(0)) */\n      0x04\n      dup3\n      add\n        /* \"#utility.yul\":3766:3817   */\n      mstore\n        /* \"#utility.yul\":3739:3757   */\n      0x24\n      add\n        /* \"https://raw.githubusercontent.com/OpenZeppelin/openzeppelin-contracts-upgradeable/v5.0.2/contracts/token/ERC20/ERC20Upgradeable.sol\":11431:11463  ERC20InvalidApprover(address(0)) */\n      tag_102\n        /* \"#utility.yul\":3620:3823   */\n      jump\n        /* \"https://raw.githubusercontent.com/OpenZeppelin/openzeppelin-contracts-upgradeable/v5.0.2/contracts/token/ERC20/ERC20Upgradeable.sol\":11385:11474  if (owner == address(0)) {... */\n    tag_146:\n      sub(shl(0xa0, 0x01), 0x01)\n        /* \"https://raw.githubusercontent.com/OpenZeppelin/openzeppelin-contracts-upgradeable/v5.0.2/contracts/token/ERC20/ERC20Upgradeable.sol\":11487:11508  spender == address(0) */\n      dup5\n      and\n        /* \"https://raw.githubusercontent.com/OpenZeppelin/openzeppelin-contracts-upgradeable/v5.0.2/contracts/token/ERC20/ERC20Upgradeable.sol\":11483:11573  if (spender == address(0)) {... */\n      tag_148\n      jumpi\n        /* \"https://raw.githubusercontent.com/OpenZeppelin/openzeppelin-contracts-upgradeable/v5.0.2/contracts/token/ERC20/ERC20Upgradeable.sol\":11531:11562  ERC20InvalidSpender(address(0)) */\n      mload(0x40)\n      shl(0xe1, 0x4a1406b1)\n      dup2\n      mstore\n        /* \"https://raw.githubusercontent.com/OpenZeppelin/openzeppelin-contracts-upgradeable/v5.0.2/contracts/token/ERC20/ERC20Upgradeable.sol\":11559:11560  0 */\n      0x00\n        /* \"https://raw.githubusercontent.com/OpenZeppelin/openzeppelin-contracts-upgradeable/v5.0.2/contracts/token/ERC20/ERC20Upgradeable.sol\":11531:11562  ERC20InvalidSpender(address(0)) */\n      0x04\n      dup3\n      add\n        /* \"#utility.yul\":3766:3817   */\n      mstore\n        /* \"#utility.yul\":3739:3757   */\n      0x24\n      add\n        /* \"https://raw.githubusercontent.com/OpenZeppelin/openzeppelin-contracts-upgradeable/v5.0.2/contracts/token/ERC20/ERC20Upgradeable.sol\":11531:11562  ERC20InvalidSpender(address(0)) */\n      tag_102\n        /* \"#utility.yul\":3620:3823   */\n      jump\n        /* \"https://raw.githubusercontent.com/OpenZeppelin/openzeppelin-contracts-upgradeable/v5.0.2/contracts/token/ERC20/ERC20Upgradeable.sol\":11483:11573  if (spender == address(0)) {... */\n    tag_148:\n      sub(shl(0xa0, 0x01), 0x01)\n        /* \"https://raw.githubusercontent.com/OpenZeppelin/openzeppelin-contracts-upgradeable/v5.0.2/contracts/token/ERC20/ERC20Upgradeable.sol\":11582:11602  $._allowances[owner] */\n      dup1\n      dup7\n      and\n      0x00\n      swap1\n      dup2\n      mstore\n        /* \"https://raw.githubusercontent.com/OpenZeppelin/openzeppelin-contracts-upgradeable/v5.0.2/contracts/token/ERC20/ERC20Upgradeable.sol\":11582:11595  $._allowances */\n      0x01\n      dup4\n      add\n        /* \"https://raw.githubusercontent.com/OpenZeppelin/openzeppelin-contracts-upgradeable/v5.0.2/contracts/token/ERC20/ERC20Upgradeable.sol\":11582:11602  $._allowances[owner] */\n      0x20\n      swap1\n      dup2\n      mstore\n      0x40\n      dup1\n      dup4\n      keccak256\n        /* \"https://raw.githubusercontent.com/OpenZeppelin/openzeppelin-contracts-upgradeable/v5.0.2/contracts/token/ERC20/ERC20Upgradeable.sol\":11582:11611  $._allowances[owner][spender] */\n      swap4\n      dup9\n      and\n      dup4\n      mstore\n      swap3\n      swap1\n      mstore\n      keccak256\n        /* \"https://raw.githubusercontent.com/OpenZeppelin/openzeppelin-contracts-upgradeable/v5.0.2/contracts/token/ERC20/ERC20Upgradeable.sol\":11582:11619  $._allowances[owner][spender] = value */\n      dup4\n      swap1\n      sstore\n        /* \"https://raw.githubusercontent.com/OpenZeppelin/openzeppelin-contracts-upgradeable/v5.0.2/contracts/token/ERC20/ERC20Upgradeable.sol\":11629:11705  if (emitEvent) {... */\n      dup2\n      iszero\n      tag_150\n      jumpi\n        /* \"https://raw.githubusercontent.com/OpenZeppelin/openzeppelin-contracts-upgradeable/v5.0.2/contracts/token/ERC20/ERC20Upgradeable.sol\":11679:11686  spender */\n      dup4\n      sub(shl(0xa0, 0x01), 0x01)\n        /* \"https://raw.githubusercontent.com/OpenZeppelin/openzeppelin-contracts-upgradeable/v5.0.2/contracts/token/ERC20/ERC20Upgradeable.sol\":11663:11694  Approval(owner, spender, value) */\n      and\n        /* \"https://raw.githubusercontent.com/OpenZeppelin/openzeppelin-contracts-upgradeable/v5.0.2/contracts/token/ERC20/ERC20Upgradeable.sol\":11672:11677  owner */\n      dup6\n      sub(shl(0xa0, 0x01), 0x01)\n        /* \"https://raw.githubusercontent.com/OpenZeppelin/openzeppelin-contracts-upgradeable/v5.0.2/contracts/token/ERC20/ERC20Upgradeable.sol\":11663:11694  Approval(owner, spender, value) */\n      and\n      0x8c5be1e5ebec7d5bd14f71427d1e84f3dd0314c0f7b2291e5b200ac8c7c3b925\n        /* \"https://raw.githubusercontent.com/OpenZeppelin/openzeppelin-contracts-upgradeable/v5.0.2/contracts/token/ERC20/ERC20Upgradeable.sol\":11688:11693  value */\n      dup6\n        /* \"https://raw.githubusercontent.com/OpenZeppelin/openzeppelin-contracts-upgradeable/v5.0.2/contracts/token/ERC20/ERC20Upgradeable.sol\":11663:11694  Approval(owner, spender, value) */\n      mload(0x40)\n      tag_151\n      swap2\n        /* \"#utility.yul\":1258:1283   */\n      dup2\n      mstore\n        /* \"#utility.yul\":1246:1248   */\n      0x20\n        /* \"#utility.yul\":1231:1249   */\n      add\n      swap1\n        /* \"#utility.yul\":1112:1289   */\n      jump\n        /* \"https://raw.githubusercontent.com/OpenZeppelin/openzeppelin-contracts-upgradeable/v5.0.2/contracts/token/ERC20/ERC20Upgradeable.sol\":11663:11694  Approval(owner, spender, value) */\n    tag_151:\n      mload(0x40)\n      dup1\n      swap2\n      sub\n      swap1\n      log3\n        /* \"https://raw.githubusercontent.com/OpenZeppelin/openzeppelin-contracts-upgradeable/v5.0.2/contracts/token/ERC20/ERC20Upgradeable.sol\":11629:11705  if (emitEvent) {... */\n    tag_150:\n        /* \"https://raw.githubusercontent.com/OpenZeppelin/openzeppelin-contracts-upgradeable/v5.0.2/contracts/token/ERC20/ERC20Upgradeable.sol\":11322:11711  {... */\n      pop\n        /* \"https://raw.githubusercontent.com/OpenZeppelin/openzeppelin-contracts-upgradeable/v5.0.2/contracts/token/ERC20/ERC20Upgradeable.sol\":11224:11711  function _approve(address owner, address spender, uint256 value, bool emitEvent) internal virtual {... */\n      pop\n      pop\n      pop\n      pop\n      jump\t// out\n        /* \"https://raw.githubusercontent.com/OpenZeppelin/openzeppelin-contracts-upgradeable/v5.0.2/contracts/token/ERC20/ERC20Upgradeable.sol\":7483:8653  function _update(address from, address to, uint256 value) internal virtual {... */\n    tag_132:\n      mload(0x00)\n      codecopy(0x00, data_3874827173e8df9f34323b12b251d1d3c53926ce129e30a0d69f1d47c277041b, 0x20)\n      mload(0x00)\n      swap1\n      0x00\n      mstore\n      sub(shl(0xa0, 0x01), 0x01)\n        /* \"https://raw.githubusercontent.com/OpenZeppelin/openzeppelin-contracts-upgradeable/v5.0.2/contracts/token/ERC20/ERC20Upgradeable.sol\":7625:7643  from == address(0) */\n      dup5\n      and\n        /* \"https://raw.githubusercontent.com/OpenZeppelin/openzeppelin-contracts-upgradeable/v5.0.2/contracts/token/ERC20/ERC20Upgradeable.sol\":7621:8167  if (from == address(0)) {... */\n      tag_154\n      jumpi\n        /* \"https://raw.githubusercontent.com/OpenZeppelin/openzeppelin-contracts-upgradeable/v5.0.2/contracts/token/ERC20/ERC20Upgradeable.sol\":7779:7784  value */\n      dup2\n        /* \"https://raw.githubusercontent.com/OpenZeppelin/openzeppelin-contracts-upgradeable/v5.0.2/contracts/token/ERC20/ERC20Upgradeable.sol\":7761:7762  $ */\n      dup2\n        /* \"https://raw.githubusercontent.com/OpenZeppelin/openzeppelin-contracts-upgradeable/v5.0.2/contracts/token/ERC20/ERC20Upgradeable.sol\":7761:7775  $._totalSupply */\n      0x02\n      add\n      0x00\n        /* \"https://raw.githubusercontent.com/OpenZeppelin/openzeppelin-contracts-upgradeable/v5.0.2/contracts/token/ERC20/ERC20Upgradeable.sol\":7761:7784  $._totalSupply += value */\n      dup3\n      dup3\n      sload\n      tag_155\n      swap2\n      swap1\n      tag_156\n      jump\t// in\n    tag_155:\n      swap1\n      swap2\n      sstore\n      pop\n        /* \"https://raw.githubusercontent.com/OpenZeppelin/openzeppelin-contracts-upgradeable/v5.0.2/contracts/token/ERC20/ERC20Upgradeable.sol\":7621:8167  if (from == address(0)) {... */\n      tag_157\n      swap1\n      pop\n      jump\n    tag_154:\n      sub(shl(0xa0, 0x01), 0x01)\n        /* \"https://raw.githubusercontent.com/OpenZeppelin/openzeppelin-contracts-upgradeable/v5.0.2/contracts/token/ERC20/ERC20Upgradeable.sol\":7837:7854  $._balances[from] */\n      dup5\n      and\n        /* \"https://raw.githubusercontent.com/OpenZeppelin/openzeppelin-contracts-upgradeable/v5.0.2/contracts/token/ERC20/ERC20Upgradeable.sol\":7815:7834  uint256 fromBalance */\n      0x00\n        /* \"https://raw.githubusercontent.com/OpenZeppelin/openzeppelin-contracts-upgradeable/v5.0.2/contracts/token/ERC20/ERC20Upgradeable.sol\":7837:7854  $._balances[from] */\n      swap1\n      dup2\n      mstore\n      0x20\n      dup3\n      swap1\n      mstore\n      0x40\n      swap1\n      keccak256\n      sload\n        /* \"https://raw.githubusercontent.com/OpenZeppelin/openzeppelin-contracts-upgradeable/v5.0.2/contracts/token/ERC20/ERC20Upgradeable.sol\":7872:7891  fromBalance < value */\n      dup3\n      dup2\n      lt\n        /* \"https://raw.githubusercontent.com/OpenZeppelin/openzeppelin-contracts-upgradeable/v5.0.2/contracts/token/ERC20/ERC20Upgradeable.sol\":7868:7983  if (fromBalance < value) {... */\n      iszero\n      tag_158\n      jumpi\n        /* \"https://raw.githubusercontent.com/OpenZeppelin/openzeppelin-contracts-upgradeable/v5.0.2/contracts/token/ERC20/ERC20Upgradeable.sol\":7918:7968  ERC20InsufficientBalance(from, fromBalance, value) */\n      mload(0x40)\n      shl(0xe2, 0x391434e3)\n      dup2\n      mstore\n      sub(shl(0xa0, 0x01), 0x01)\n        /* \"#utility.yul\":3490:3522   */\n      dup7\n      and\n        /* \"https://raw.githubusercontent.com/OpenZeppelin/openzeppelin-contracts-upgradeable/v5.0.2/contracts/token/ERC20/ERC20Upgradeable.sol\":7918:7968  ERC20InsufficientBalance(from, fromBalance, value) */\n      0x04\n      dup3\n      add\n        /* \"#utility.yul\":3472:3523   */\n      mstore\n        /* \"#utility.yul\":3539:3557   */\n      0x24\n      dup2\n      add\n        /* \"#utility.yul\":3532:3566   */\n      dup3\n      swap1\n      mstore\n        /* \"#utility.yul\":3582:3600   */\n      0x44\n      dup2\n      add\n        /* \"#utility.yul\":3575:3609   */\n      dup5\n      swap1\n      mstore\n        /* \"#utility.yul\":3445:3463   */\n      0x64\n      add\n        /* \"https://raw.githubusercontent.com/OpenZeppelin/openzeppelin-contracts-upgradeable/v5.0.2/contracts/token/ERC20/ERC20Upgradeable.sol\":7918:7968  ERC20InsufficientBalance(from, fromBalance, value) */\n      tag_102\n        /* \"#utility.yul\":3270:3615   */\n      jump\n        /* \"https://raw.githubusercontent.com/OpenZeppelin/openzeppelin-contracts-upgradeable/v5.0.2/contracts/token/ERC20/ERC20Upgradeable.sol\":7868:7983  if (fromBalance < value) {... */\n    tag_158:\n      sub(shl(0xa0, 0x01), 0x01)\n        /* \"https://raw.githubusercontent.com/OpenZeppelin/openzeppelin-contracts-upgradeable/v5.0.2/contracts/token/ERC20/ERC20Upgradeable.sol\":8103:8120  $._balances[from] */\n      dup6\n      and\n        /* \"https://raw.githubusercontent.com/OpenZeppelin/openzeppelin-contracts-upgradeable/v5.0.2/contracts/token/ERC20/ERC20Upgradeable.sol\":8103:8114  $._balances */\n      0x00\n        /* \"https://raw.githubusercontent.com/OpenZeppelin/openzeppelin-contracts-upgradeable/v5.0.2/contracts/token/ERC20/ERC20Upgradeable.sol\":8103:8120  $._balances[from] */\n      swap1\n      dup2\n      mstore\n      0x20\n      dup4\n      swap1\n      mstore\n      0x40\n      swap1\n      keccak256\n        /* \"https://raw.githubusercontent.com/OpenZeppelin/openzeppelin-contracts-upgradeable/v5.0.2/contracts/token/ERC20/ERC20Upgradeable.sol\":8123:8142  fromBalance - value */\n      swap1\n      dup4\n      swap1\n      sub\n        /* \"https://raw.githubusercontent.com/OpenZeppelin/openzeppelin-contracts-upgradeable/v5.0.2/contracts/token/ERC20/ERC20Upgradeable.sol\":8103:8142  $._balances[from] = fromBalance - value */\n      swap1\n      sstore\n        /* \"https://raw.githubusercontent.com/OpenZeppelin/openzeppelin-contracts-upgradeable/v5.0.2/contracts/token/ERC20/ERC20Upgradeable.sol\":7621:8167  if (from == address(0)) {... */\n    tag_157:\n      sub(shl(0xa0, 0x01), 0x01)\n        /* \"https://raw.githubusercontent.com/OpenZeppelin/openzeppelin-contracts-upgradeable/v5.0.2/contracts/token/ERC20/ERC20Upgradeable.sol\":8181:8197  to == address(0) */\n      dup4\n      and\n        /* \"https://raw.githubusercontent.com/OpenZeppelin/openzeppelin-contracts-upgradeable/v5.0.2/contracts/token/ERC20/ERC20Upgradeable.sol\":8177:8606  if (to == address(0)) {... */\n      tag_160\n      jumpi\n        /* \"https://raw.githubusercontent.com/OpenZeppelin/openzeppelin-contracts-upgradeable/v5.0.2/contracts/token/ERC20/ERC20Upgradeable.sol\":8344:8358  $._totalSupply */\n      0x02\n      dup2\n      add\n        /* \"https://raw.githubusercontent.com/OpenZeppelin/openzeppelin-contracts-upgradeable/v5.0.2/contracts/token/ERC20/ERC20Upgradeable.sol\":8344:8367  $._totalSupply -= value */\n      dup1\n      sload\n      dup4\n      swap1\n      sub\n      swap1\n      sstore\n        /* \"https://raw.githubusercontent.com/OpenZeppelin/openzeppelin-contracts-upgradeable/v5.0.2/contracts/token/ERC20/ERC20Upgradeable.sol\":8177:8606  if (to == address(0)) {... */\n      jump(tag_161)\n    tag_160:\n      sub(shl(0xa0, 0x01), 0x01)\n        /* \"https://raw.githubusercontent.com/OpenZeppelin/openzeppelin-contracts-upgradeable/v5.0.2/contracts/token/ERC20/ERC20Upgradeable.sol\":8557:8572  $._balances[to] */\n      dup4\n      and\n        /* \"https://raw.githubusercontent.com/OpenZeppelin/openzeppelin-contracts-upgradeable/v5.0.2/contracts/token/ERC20/ERC20Upgradeable.sol\":8557:8568  $._balances */\n      0x00\n        /* \"https://raw.githubusercontent.com/OpenZeppelin/openzeppelin-contracts-upgradeable/v5.0.2/contracts/token/ERC20/ERC20Upgradeable.sol\":8557:8572  $._balances[to] */\n      swap1\n      dup2\n      mstore\n      0x20\n      dup3\n      swap1\n      mstore\n      0x40\n      swap1\n      keccak256\n        /* \"https://raw.githubusercontent.com/OpenZeppelin/openzeppelin-contracts-upgradeable/v5.0.2/contracts/token/ERC20/ERC20Upgradeable.sol\":8557:8581  $._balances[to] += value */\n      dup1\n      sload\n      dup4\n      add\n      swap1\n      sstore\n        /* \"https://raw.githubusercontent.com/OpenZeppelin/openzeppelin-contracts-upgradeable/v5.0.2/contracts/token/ERC20/ERC20Upgradeable.sol\":8177:8606  if (to == address(0)) {... */\n    tag_161:\n        /* \"https://raw.githubusercontent.com/OpenZeppelin/openzeppelin-contracts-upgradeable/v5.0.2/contracts/token/ERC20/ERC20Upgradeable.sol\":8636:8638  to */\n      dup3\n      sub(shl(0xa0, 0x01), 0x01)\n        /* \"https://raw.githubusercontent.com/OpenZeppelin/openzeppelin-contracts-upgradeable/v5.0.2/contracts/token/ERC20/ERC20Upgradeable.sol\":8621:8646  Transfer(from, to, value) */\n      and\n        /* \"https://raw.githubusercontent.com/OpenZeppelin/openzeppelin-contracts-upgradeable/v5.0.2/contracts/token/ERC20/ERC20Upgradeable.sol\":8630:8634  from */\n      dup5\n      sub(shl(0xa0, 0x01), 0x01)\n        /* \"https://raw.githubusercontent.com/OpenZeppelin/openzeppelin-contracts-upgradeable/v5.0.2/contracts/token/ERC20/ERC20Upgradeable.sol\":8621:8646  Transfer(from, to, value) */\n      and\n      0xddf252ad1be2c89b69c2b068fc378daa952ba7f163c4a11628f55a4df523b3ef\n        /* \"https://raw.githubusercontent.com/OpenZeppelin/openzeppelin-contracts-upgradeable/v5.0.2/contracts/token/ERC20/ERC20Upgradeable.sol\":8640:8645  value */\n      dup5\n        /* \"https://raw.githubusercontent.com/OpenZeppelin/openzeppelin-contracts-upgradeable/v5.0.2/contracts/token/ERC20/ERC20Upgradeable.sol\":8621:8646  Transfer(from, to, value) */\n      mload(0x40)\n      tag_162\n      swap2\n        /* \"#utility.yul\":1258:1283   */\n      dup2\n      mstore\n        /* \"#utility.yul\":1246:1248   */\n      0x20\n        /* \"#utility.yul\":1231:1249   */\n      add\n      swap1\n        /* \"#utility.yul\":1112:1289   */\n      jump\n        /* \"https://raw.githubusercontent.com/OpenZeppelin/openzeppelin-contracts-upgradeable/v5.0.2/contracts/token/ERC20/ERC20Upgradeable.sol\":8621:8646  Transfer(from, to, value) */\n    tag_162:\n      mload(0x40)\n      dup1\n      swap2\n      sub\n      swap1\n      log3\n        /* \"https://raw.githubusercontent.com/OpenZeppelin/openzeppelin-contracts-upgradeable/v5.0.2/contracts/token/ERC20/ERC20Upgradeable.sol\":7558:8653  {... */\n      pop\n        /* \"https://raw.githubusercontent.com/OpenZeppelin/openzeppelin-contracts-upgradeable/v5.0.2/contracts/token/ERC20/ERC20Upgradeable.sol\":7483:8653  function _update(address from, address to, uint256 value) internal virtual {... */\n      pop\n      pop\n      pop\n      jump\t// out\n        /* \"https://raw.githubusercontent.com/OpenZeppelin/openzeppelin-contracts-upgradeable/v5.0.2/contracts/proxy/utils/Initializable.sol\":7084:7225  function _checkInitializing() internal view virtual {... */\n    tag_136:\n        /* \"https://raw.githubusercontent.com/OpenZeppelin/openzeppelin-contracts-upgradeable/v5.0.2/contracts/proxy/utils/Initializable.sol\":8870:8891  INITIALIZABLE_STORAGE */\n      0xf0c57e16840df040f15088dc2f81fe391c3923bec73e23a9662efc9c229c6a00\n        /* \"https://raw.githubusercontent.com/OpenZeppelin/openzeppelin-contracts-upgradeable/v5.0.2/contracts/proxy/utils/Initializable.sol\":8560:8600  _getInitializableStorage()._initializing */\n      sload\n      shl(0x40, 0x01)\n      swap1\n      div\n      0xff\n      and\n        /* \"https://raw.githubusercontent.com/OpenZeppelin/openzeppelin-contracts-upgradeable/v5.0.2/contracts/proxy/utils/Initializable.sol\":7146:7219  if (!_isInitializing()) {... */\n      tag_166\n      jumpi\n        /* \"https://raw.githubusercontent.com/OpenZeppelin/openzeppelin-contracts-upgradeable/v5.0.2/contracts/proxy/utils/Initializable.sol\":7191:7208  NotInitializing() */\n      mload(0x40)\n      shl(0xe3, 0x1afcd79f)\n      dup2\n      mstore\n      0x04\n      add\n      mload(0x40)\n      dup1\n      swap2\n      sub\n      swap1\n      revert\n        /* \"https://raw.githubusercontent.com/OpenZeppelin/openzeppelin-contracts-upgradeable/v5.0.2/contracts/proxy/utils/Initializable.sol\":7146:7219  if (!_isInitializing()) {... */\n    tag_166:\n        /* \"https://raw.githubusercontent.com/OpenZeppelin/openzeppelin-contracts-upgradeable/v5.0.2/contracts/proxy/utils/Initializable.sol\":7084:7225  function _checkInitializing() internal view virtual {... */\n      jump\t// out\n        /* \"https://raw.githubusercontent.com/OpenZeppelin/openzeppelin-contracts-upgradeable/v5.0.2/contracts/token/ERC20/ERC20Upgradeable.sol\":2730:2946  function __ERC20_init_unchained(string memory name_, string memory symbol_) internal onlyInitializing {... */\n    tag_139:\n        /* \"https://raw.githubusercontent.com/OpenZeppelin/openzeppelin-contracts-upgradeable/v5.0.2/contracts/proxy/utils/Initializable.sol\":6931:6951  _checkInitializing() */\n      tag_168\n        /* \"https://raw.githubusercontent.com/OpenZeppelin/openzeppelin-contracts-upgradeable/v5.0.2/contracts/proxy/utils/Initializable.sol\":6931:6949  _checkInitializing */\n      tag_136\n        /* \"https://raw.githubusercontent.com/OpenZeppelin/openzeppelin-contracts-upgradeable/v5.0.2/contracts/proxy/utils/Initializable.sol\":6931:6951  _checkInitializing() */\n      jump\t// in\n    tag_168:\n      mload(0x00)\n      codecopy(0x00, data_3874827173e8df9f34323b12b251d1d3c53926ce129e30a0d69f1d47c277041b, 0x20)\n      mload(0x00)\n      swap1\n      0x00\n      mstore\n        /* \"https://raw.githubusercontent.com/OpenZeppelin/openzeppelin-contracts-upgradeable/v5.0.2/contracts/token/ERC20/ERC20Upgradeable.sol\":2895:2902  $._name */\n      0x52c63247e1f47db19d5ce0460030c497f067ca4cebf71ba98eeadabe20bace03\n        /* \"https://raw.githubusercontent.com/OpenZeppelin/openzeppelin-contracts-upgradeable/v5.0.2/contracts/token/ERC20/ERC20Upgradeable.sol\":2895:2910  $._name = name_ */\n      tag_171\n        /* \"https://raw.githubusercontent.com/OpenZeppelin/openzeppelin-contracts-upgradeable/v5.0.2/contracts/token/ERC20/ERC20Upgradeable.sol\":2905:2910  name_ */\n      dup5\n        /* \"https://raw.githubusercontent.com/OpenZeppelin/openzeppelin-contracts-upgradeable/v5.0.2/contracts/token/ERC20/ERC20Upgradeable.sol\":2895:2902  $._name */\n      dup3\n        /* \"https://raw.githubusercontent.com/OpenZeppelin/openzeppelin-contracts-upgradeable/v5.0.2/contracts/token/ERC20/ERC20Upgradeable.sol\":2895:2910  $._name = name_ */\n      tag_172\n      jump\t// in\n    tag_171:\n      pop\n        /* \"https://raw.githubusercontent.com/OpenZeppelin/openzeppelin-contracts-upgradeable/v5.0.2/contracts/token/ERC20/ERC20Upgradeable.sol\":2920:2929  $._symbol */\n      0x04\n      dup2\n      add\n        /* \"https://raw.githubusercontent.com/OpenZeppelin/openzeppelin-contracts-upgradeable/v5.0.2/contracts/token/ERC20/ERC20Upgradeable.sol\":2920:2939  $._symbol = symbol_ */\n      tag_124\n        /* \"https://raw.githubusercontent.com/OpenZeppelin/openzeppelin-contracts-upgradeable/v5.0.2/contracts/token/ERC20/ERC20Upgradeable.sol\":2932:2939  symbol_ */\n      dup4\n        /* \"https://raw.githubusercontent.com/OpenZeppelin/openzeppelin-contracts-upgradeable/v5.0.2/contracts/token/ERC20/ERC20Upgradeable.sol\":2920:2929  $._symbol */\n      dup3\n        /* \"https://raw.githubusercontent.com/OpenZeppelin/openzeppelin-contracts-upgradeable/v5.0.2/contracts/token/ERC20/ERC20Upgradeable.sol\":2920:2939  $._symbol = symbol_ */\n      tag_172\n      jump\t// in\n        /* \"#utility.yul\":14:432   */\n    tag_17:\n        /* \"#utility.yul\":163:165   */\n      0x20\n        /* \"#utility.yul\":152:161   */\n      dup2\n        /* \"#utility.yul\":145:166   */\n      mstore\n        /* \"#utility.yul\":126:130   */\n      0x00\n        /* \"#utility.yul\":195:201   */\n      dup3\n        /* \"#utility.yul\":189:202   */\n      mload\n        /* \"#utility.yul\":238:244   */\n      dup1\n        /* \"#utility.yul\":233:235   */\n      0x20\n        /* \"#utility.yul\":222:231   */\n      dup5\n        /* \"#utility.yul\":218:236   */\n      add\n        /* \"#utility.yul\":211:245   */\n      mstore\n        /* \"#utility.yul\":297:303   */\n      dup1\n        /* \"#utility.yul\":292:294   */\n      0x20\n        /* \"#utility.yul\":284:290   */\n      dup6\n        /* \"#utility.yul\":280:295   */\n      add\n        /* \"#utility.yul\":275:277   */\n      0x40\n        /* \"#utility.yul\":264:273   */\n      dup6\n        /* \"#utility.yul\":260:278   */\n      add\n        /* \"#utility.yul\":254:304   */\n      mcopy\n        /* \"#utility.yul\":353:354   */\n      0x00\n        /* \"#utility.yul\":348:350   */\n      0x40\n        /* \"#utility.yul\":339:345   */\n      dup3\n        /* \"#utility.yul\":328:337   */\n      dup6\n        /* \"#utility.yul\":324:346   */\n      add\n        /* \"#utility.yul\":320:351   */\n      add\n        /* \"#utility.yul\":313:355   */\n      mstore\n        /* \"#utility.yul\":423:425   */\n      0x40\n        /* \"#utility.yul\":416:418   */\n      0x1f\n        /* \"#utility.yul\":412:419   */\n      not\n        /* \"#utility.yul\":407:409   */\n      0x1f\n        /* \"#utility.yul\":399:405   */\n      dup4\n        /* \"#utility.yul\":395:410   */\n      add\n        /* \"#utility.yul\":391:420   */\n      and\n        /* \"#utility.yul\":380:389   */\n      dup5\n        /* \"#utility.yul\":376:421   */\n      add\n        /* \"#utility.yul\":372:426   */\n      add\n        /* \"#utility.yul\":364:426   */\n      swap2\n      pop\n      pop\n        /* \"#utility.yul\":14:432   */\n      swap3\n      swap2\n      pop\n      pop\n      jump\t// out\n        /* \"#utility.yul\":437:610   */\n    tag_176:\n        /* \"#utility.yul\":505:525   */\n      dup1\n      calldataload\n      sub(shl(0xa0, 0x01), 0x01)\n        /* \"#utility.yul\":554:585   */\n      dup2\n      and\n        /* \"#utility.yul\":544:586   */\n      dup2\n      eq\n        /* \"#utility.yul\":534:604   */\n      tag_184\n      jumpi\n        /* \"#utility.yul\":600:601   */\n      0x00\n        /* \"#utility.yul\":597:598   */\n      0x00\n        /* \"#utility.yul\":590:602   */\n      revert\n        /* \"#utility.yul\":534:604   */\n    tag_184:\n        /* \"#utility.yul\":437:610   */\n      swap2\n      swap1\n      pop\n      jump\t// out\n        /* \"#utility.yul\":615:915   */\n    tag_20:\n        /* \"#utility.yul\":683:689   */\n      0x00\n        /* \"#utility.yul\":691:697   */\n      0x00\n        /* \"#utility.yul\":744:746   */\n      0x40\n        /* \"#utility.yul\":732:741   */\n      dup4\n        /* \"#utility.yul\":723:730   */\n      dup6\n        /* \"#utility.yul\":719:742   */\n      sub\n        /* \"#utility.yul\":715:747   */\n      slt\n        /* \"#utility.yul\":712:764   */\n      iszero\n      tag_186\n      jumpi\n        /* \"#utility.yul\":760:761   */\n      0x00\n        /* \"#utility.yul\":757:758   */\n      0x00\n        /* \"#utility.yul\":750:762   */\n      revert\n        /* \"#utility.yul\":712:764   */\n    tag_186:\n        /* \"#utility.yul\":783:812   */\n      tag_187\n        /* \"#utility.yul\":802:811   */\n      dup4\n        /* \"#utility.yul\":783:812   */\n      tag_176\n      jump\t// in\n    tag_187:\n        /* \"#utility.yul\":773:812   */\n      swap5\n        /* \"#utility.yul\":881:883   */\n      0x20\n        /* \"#utility.yul\":866:884   */\n      swap4\n      swap1\n      swap4\n      add\n        /* \"#utility.yul\":853:885   */\n      calldataload\n      swap4\n      pop\n      pop\n      pop\n        /* \"#utility.yul\":615:915   */\n      jump\t// out\n        /* \"#utility.yul\":1294:1668   */\n    tag_30:\n        /* \"#utility.yul\":1371:1377   */\n      0x00\n        /* \"#utility.yul\":1379:1385   */\n      0x00\n        /* \"#utility.yul\":1387:1393   */\n      0x00\n        /* \"#utility.yul\":1440:1442   */\n      0x60\n        /* \"#utility.yul\":1428:1437   */\n      dup5\n        /* \"#utility.yul\":1419:1426   */\n      dup7\n        /* \"#utility.yul\":1415:1438   */\n      sub\n        /* \"#utility.yul\":1411:1443   */\n      slt\n        /* \"#utility.yul\":1408:1460   */\n      iszero\n      tag_191\n      jumpi\n        /* \"#utility.yul\":1456:1457   */\n      0x00\n        /* \"#utility.yul\":1453:1454   */\n      0x00\n        /* \"#utility.yul\":1446:1458   */\n      revert\n        /* \"#utility.yul\":1408:1460   */\n    tag_191:\n        /* \"#utility.yul\":1479:1508   */\n      tag_192\n        /* \"#utility.yul\":1498:1507   */\n      dup5\n        /* \"#utility.yul\":1479:1508   */\n      tag_176\n      jump\t// in\n    tag_192:\n        /* \"#utility.yul\":1469:1508   */\n      swap3\n      pop\n        /* \"#utility.yul\":1527:1565   */\n      tag_193\n        /* \"#utility.yul\":1561:1563   */\n      0x20\n        /* \"#utility.yul\":1550:1559   */\n      dup6\n        /* \"#utility.yul\":1546:1564   */\n      add\n        /* \"#utility.yul\":1527:1565   */\n      tag_176\n      jump\t// in\n    tag_193:\n        /* \"#utility.yul\":1294:1668   */\n      swap3\n      swap6\n        /* \"#utility.yul\":1517:1565   */\n      swap3\n      swap5\n      pop\n      pop\n      pop\n        /* \"#utility.yul\":1634:1636   */\n      0x40\n        /* \"#utility.yul\":1619:1637   */\n      swap2\n      swap1\n      swap2\n      add\n        /* \"#utility.yul\":1606:1638   */\n      calldataload\n      swap1\n        /* \"#utility.yul\":1294:1668   */\n      jump\t// out\n        /* \"#utility.yul\":1862:2048   */\n    tag_39:\n        /* \"#utility.yul\":1921:1927   */\n      0x00\n        /* \"#utility.yul\":1974:1976   */\n      0x20\n        /* \"#utility.yul\":1962:1971   */\n      dup3\n        /* \"#utility.yul\":1953:1960   */\n      dup5\n        /* \"#utility.yul\":1949:1972   */\n      sub\n        /* \"#utility.yul\":1945:1977   */\n      slt\n        /* \"#utility.yul\":1942:1994   */\n      iszero\n      tag_196\n      jumpi\n        /* \"#utility.yul\":1990:1991   */\n      0x00\n        /* \"#utility.yul\":1987:1988   */\n      0x00\n        /* \"#utility.yul\":1980:1992   */\n      revert\n        /* \"#utility.yul\":1942:1994   */\n    tag_196:\n        /* \"#utility.yul\":2013:2042   */\n      tag_197\n        /* \"#utility.yul\":2032:2041   */\n      dup3\n        /* \"#utility.yul\":2013:2042   */\n      tag_176\n      jump\t// in\n    tag_197:\n        /* \"#utility.yul\":2003:2042   */\n      swap4\n        /* \"#utility.yul\":1862:2048   */\n      swap3\n      pop\n      pop\n      pop\n      jump\t// out\n        /* \"#utility.yul\":2053:2313   */\n    tag_54:\n        /* \"#utility.yul\":2121:2127   */\n      0x00\n        /* \"#utility.yul\":2129:2135   */\n      0x00\n        /* \"#utility.yul\":2182:2184   */\n      0x40\n        /* \"#utility.yul\":2170:2179   */\n      dup4\n        /* \"#utility.yul\":2161:2168   */\n      dup6\n        /* \"#utility.yul\":2157:2180   */\n      sub\n        /* \"#utility.yul\":2153:2185   */\n      slt\n        /* \"#utility.yul\":2150:2202   */\n      iszero\n      tag_199\n      jumpi\n        /* \"#utility.yul\":2198:2199   */\n      0x00\n        /* \"#utility.yul\":2195:2196   */\n      0x00\n        /* \"#utility.yul\":2188:2200   */\n      revert\n        /* \"#utility.yul\":2150:2202   */\n    tag_199:\n        /* \"#utility.yul\":2221:2250   */\n      tag_200\n        /* \"#utility.yul\":2240:2249   */\n      dup4\n        /* \"#utility.yul\":2221:2250   */\n      tag_176\n      jump\t// in\n    tag_200:\n        /* \"#utility.yul\":2211:2250   */\n      swap2\n      pop\n        /* \"#utility.yul\":2269:2307   */\n      tag_201\n        /* \"#utility.yul\":2303:2305   */\n      0x20\n        /* \"#utility.yul\":2292:2301   */\n      dup5\n        /* \"#utility.yul\":2288:2306   */\n      add\n        /* \"#utility.yul\":2269:2307   */\n      tag_176\n      jump\t// in\n    tag_201:\n        /* \"#utility.yul\":2259:2307   */\n      swap1\n      pop\n        /* \"#utility.yul\":2053:2313   */\n      swap3\n      pop\n      swap3\n      swap1\n      pop\n      jump\t// out\n        /* \"#utility.yul\":2318:2698   */\n    tag_61:\n        /* \"#utility.yul\":2397:2398   */\n      0x01\n        /* \"#utility.yul\":2393:2405   */\n      dup2\n      dup2\n      shr\n      swap1\n        /* \"#utility.yul\":2440:2452   */\n      dup3\n      and\n      dup1\n        /* \"#utility.yul\":2461:2522   */\n      tag_203\n      jumpi\n        /* \"#utility.yul\":2515:2519   */\n      0x7f\n        /* \"#utility.yul\":2507:2513   */\n      dup3\n        /* \"#utility.yul\":2503:2520   */\n      and\n        /* \"#utility.yul\":2493:2520   */\n      swap2\n      pop\n        /* \"#utility.yul\":2461:2522   */\n    tag_203:\n        /* \"#utility.yul\":2568:2570   */\n      0x20\n        /* \"#utility.yul\":2560:2566   */\n      dup3\n        /* \"#utility.yul\":2557:2571   */\n      lt\n        /* \"#utility.yul\":2537:2555   */\n      dup2\n        /* \"#utility.yul\":2534:2572   */\n      sub\n        /* \"#utility.yul\":2531:2692   */\n      tag_204\n      jumpi\n        /* \"#utility.yul\":2614:2624   */\n      0x4e487b71\n        /* \"#utility.yul\":2609:2612   */\n      0xe0\n        /* \"#utility.yul\":2605:2625   */\n      shl\n        /* \"#utility.yul\":2602:2603   */\n      0x00\n        /* \"#utility.yul\":2595:2626   */\n      mstore\n        /* \"#utility.yul\":2649:2653   */\n      0x22\n        /* \"#utility.yul\":2646:2647   */\n      0x04\n        /* \"#utility.yul\":2639:2654   */\n      mstore\n        /* \"#utility.yul\":2677:2681   */\n      0x24\n        /* \"#utility.yul\":2674:2675   */\n      0x00\n        /* \"#utility.yul\":2667:2682   */\n      revert\n        /* \"#utility.yul\":2531:2692   */\n    tag_204:\n      pop\n        /* \"#utility.yul\":2318:2698   */\n      swap2\n      swap1\n      pop\n      jump\t// out\n        /* \"#utility.yul\":3828:4050   */\n    tag_156:\n        /* \"#utility.yul\":3893:3902   */\n      dup1\n      dup3\n      add\n        /* \"#utility.yul\":3914:3924   */\n      dup1\n      dup3\n      gt\n        /* \"#utility.yul\":3911:4044   */\n      iszero\n      tag_66\n      jumpi\n        /* \"#utility.yul\":3966:3976   */\n      0x4e487b71\n        /* \"#utility.yul\":3961:3964   */\n      0xe0\n        /* \"#utility.yul\":3957:3977   */\n      shl\n        /* \"#utility.yul\":3954:3955   */\n      0x00\n        /* \"#utility.yul\":3947:3978   */\n      mstore\n        /* \"#utility.yul\":4001:4005   */\n      0x11\n        /* \"#utility.yul\":3998:3999   */\n      0x04\n        /* \"#utility.yul\":3991:4006   */\n      mstore\n        /* \"#utility.yul\":4029:4033   */\n      0x24\n        /* \"#utility.yul\":4026:4027   */\n      0x00\n        /* \"#utility.yul\":4019:4034   */\n      revert\n        /* \"#utility.yul\":4055:4182   */\n    tag_177:\n        /* \"#utility.yul\":4116:4126   */\n      0x4e487b71\n        /* \"#utility.yul\":4111:4114   */\n      0xe0\n        /* \"#utility.yul\":4107:4127   */\n      shl\n        /* \"#utility.yul\":4104:4105   */\n      0x00\n        /* \"#utility.yul\":4097:4128   */\n      mstore\n        /* \"#utility.yul\":4147:4151   */\n      0x41\n        /* \"#utility.yul\":4144:4145   */\n      0x04\n        /* \"#utility.yul\":4137:4152   */\n      mstore\n        /* \"#utility.yul\":4171:4175   */\n      0x24\n        /* \"#utility.yul\":4168:4169   */\n      0x00\n        /* \"#utility.yul\":4161:4176   */\n      revert\n        /* \"#utility.yul\":4313:4831   */\n    tag_179:\n        /* \"#utility.yul\":4415:4417   */\n      0x1f\n        /* \"#utility.yul\":4410:4413   */\n      dup3\n        /* \"#utility.yul\":4407:4418   */\n      gt\n        /* \"#utility.yul\":4404:4825   */\n      iszero\n      tag_116\n      jumpi\n        /* \"#utility.yul\":4451:4456   */\n      dup1\n        /* \"#utility.yul\":4448:4449   */\n      0x00\n        /* \"#utility.yul\":4441:4457   */\n      mstore\n        /* \"#utility.yul\":4495:4499   */\n      0x20\n        /* \"#utility.yul\":4492:4493   */\n      0x00\n        /* \"#utility.yul\":4482:4500   */\n      keccak256\n        /* \"#utility.yul\":4565:4567   */\n      0x1f\n        /* \"#utility.yul\":4553:4563   */\n      dup5\n        /* \"#utility.yul\":4549:4568   */\n      add\n        /* \"#utility.yul\":4546:4547   */\n      0x05\n        /* \"#utility.yul\":4542:4569   */\n      shr\n        /* \"#utility.yul\":4536:4540   */\n      dup2\n        /* \"#utility.yul\":4532:4570   */\n      add\n        /* \"#utility.yul\":4601:4605   */\n      0x20\n        /* \"#utility.yul\":4589:4599   */\n      dup6\n        /* \"#utility.yul\":4586:4606   */\n      lt\n        /* \"#utility.yul\":4583:4630   */\n      iszero\n      tag_215\n      jumpi\n      pop\n        /* \"#utility.yul\":4624:4628   */\n      dup1\n        /* \"#utility.yul\":4583:4630   */\n    tag_215:\n        /* \"#utility.yul\":4679:4681   */\n      0x1f\n        /* \"#utility.yul\":4674:4677   */\n      dup5\n        /* \"#utility.yul\":4670:4682   */\n      add\n        /* \"#utility.yul\":4667:4668   */\n      0x05\n        /* \"#utility.yul\":4663:4683   */\n      shr\n        /* \"#utility.yul\":4657:4661   */\n      dup3\n        /* \"#utility.yul\":4653:4684   */\n      add\n        /* \"#utility.yul\":4643:4684   */\n      swap2\n      pop\n        /* \"#utility.yul\":4734:4815   */\n    tag_216:\n        /* \"#utility.yul\":4752:4754   */\n      dup2\n        /* \"#utility.yul\":4745:4750   */\n      dup2\n        /* \"#utility.yul\":4742:4755   */\n      lt\n        /* \"#utility.yul\":4734:4815   */\n      iszero\n      tag_150\n      jumpi\n        /* \"#utility.yul\":4811:4812   */\n      0x00\n        /* \"#utility.yul\":4797:4813   */\n      dup2\n      sstore\n        /* \"#utility.yul\":4778:4779   */\n      0x01\n        /* \"#utility.yul\":4767:4780   */\n      add\n        /* \"#utility.yul\":4734:4815   */\n      jump(tag_216)\n        /* \"#utility.yul\":5007:6306   */\n    tag_172:\n        /* \"#utility.yul\":5133:5136   */\n      dup2\n        /* \"#utility.yul\":5127:5137   */\n      mload\n        /* \"#utility.yul\":5160:5178   */\n      0xffffffffffffffff\n        /* \"#utility.yul\":5152:5158   */\n      dup2\n        /* \"#utility.yul\":5149:5179   */\n      gt\n        /* \"#utility.yul\":5146:5202   */\n      iszero\n      tag_222\n      jumpi\n        /* \"#utility.yul\":5182:5200   */\n      tag_222\n      tag_177\n      jump\t// in\n    tag_222:\n        /* \"#utility.yul\":5211:5308   */\n      tag_223\n        /* \"#utility.yul\":5301:5307   */\n      dup2\n        /* \"#utility.yul\":5261:5299   */\n      tag_224\n        /* \"#utility.yul\":5293:5297   */\n      dup5\n        /* \"#utility.yul\":5287:5298   */\n      sload\n        /* \"#utility.yul\":5261:5299   */\n      tag_61\n      jump\t// in\n    tag_224:\n        /* \"#utility.yul\":5255:5259   */\n      dup5\n        /* \"#utility.yul\":5211:5308   */\n      tag_179\n      jump\t// in\n    tag_223:\n        /* \"#utility.yul\":5357:5361   */\n      0x20\n        /* \"#utility.yul\":5388:5390   */\n      0x1f\n        /* \"#utility.yul\":5377:5391   */\n      dup3\n      gt\n        /* \"#utility.yul\":5405:5406   */\n      0x01\n        /* \"#utility.yul\":5400:6049   */\n      dup2\n      eq\n      tag_226\n      jumpi\n        /* \"#utility.yul\":6093:6094   */\n      0x00\n        /* \"#utility.yul\":6110:6116   */\n      dup4\n        /* \"#utility.yul\":6107:6196   */\n      iszero\n      tag_227\n      jumpi\n      pop\n        /* \"#utility.yul\":6162:6181   */\n      dup5\n      dup3\n      add\n        /* \"#utility.yul\":6156:6182   */\n      mload\n        /* \"#utility.yul\":6107:6196   */\n    tag_227:\n      not(0x00)\n        /* \"#utility.yul\":4964:4965   */\n      0x03\n        /* \"#utility.yul\":4960:4971   */\n      dup6\n      swap1\n      shl\n        /* \"#utility.yul\":4956:4980   */\n      shr\n        /* \"#utility.yul\":4952:4981   */\n      not\n        /* \"#utility.yul\":4942:4982   */\n      and\n        /* \"#utility.yul\":4988:4989   */\n      0x01\n        /* \"#utility.yul\":4984:4995   */\n      dup5\n      swap1\n      shl\n        /* \"#utility.yul\":4939:4996   */\n      or\n        /* \"#utility.yul\":6209:6290   */\n      dup5\n      sstore\n        /* \"#utility.yul\":5370:6300   */\n      jump(tag_150)\n        /* \"#utility.yul\":5400:6049   */\n    tag_226:\n        /* \"#utility.yul\":4260:4261   */\n      0x00\n        /* \"#utility.yul\":4253:4267   */\n      dup5\n      dup2\n      mstore\n        /* \"#utility.yul\":4297:4301   */\n      0x20\n        /* \"#utility.yul\":4284:4302   */\n      dup2\n      keccak256\n      not(0x1f)\n        /* \"#utility.yul\":5436:5456   */\n      dup6\n      and\n      swap2\n        /* \"#utility.yul\":5554:5776   */\n    tag_230:\n        /* \"#utility.yul\":5568:5575   */\n      dup3\n        /* \"#utility.yul\":5565:5566   */\n      dup2\n        /* \"#utility.yul\":5562:5576   */\n      lt\n        /* \"#utility.yul\":5554:5776   */\n      iszero\n      tag_232\n      jumpi\n        /* \"#utility.yul\":5650:5669   */\n      dup8\n      dup6\n      add\n        /* \"#utility.yul\":5644:5670   */\n      mload\n        /* \"#utility.yul\":5629:5671   */\n      dup3\n      sstore\n        /* \"#utility.yul\":5757:5761   */\n      0x20\n        /* \"#utility.yul\":5742:5762   */\n      swap5\n      dup6\n      add\n      swap5\n        /* \"#utility.yul\":5710:5711   */\n      0x01\n        /* \"#utility.yul\":5698:5712   */\n      swap1\n      swap3\n      add\n      swap2\n        /* \"#utility.yul\":5584:5596   */\n      add\n        /* \"#utility.yul\":5554:5776   */\n      jump(tag_230)\n    tag_232:\n        /* \"#utility.yul\":5558:5561   */\n      pop\n        /* \"#utility.yul\":5804:5810   */\n      dup5\n        /* \"#utility.yul\":5795:5802   */\n      dup3\n        /* \"#utility.yul\":5792:5811   */\n      lt\n        /* \"#utility.yul\":5789:5990   */\n      iszero\n      tag_233\n      jumpi\n        /* \"#utility.yul\":5865:5884   */\n      dup7\n      dup5\n      add\n        /* \"#utility.yul\":5859:5885   */\n      mload\n      not(0x00)\n        /* \"#utility.yul\":5948:5949   */\n      0x03\n        /* \"#utility.yul\":5944:5958   */\n      dup8\n      swap1\n      shl\n        /* \"#utility.yul\":5960:5963   */\n      0xf8\n        /* \"#utility.yul\":5940:5964   */\n      and\n        /* \"#utility.yul\":5936:5973   */\n      shr\n        /* \"#utility.yul\":5932:5974   */\n      not\n        /* \"#utility.yul\":5917:5975   */\n      and\n        /* \"#utility.yul\":5902:5976   */\n      dup2\n      sstore\n        /* \"#utility.yul\":5789:5990   */\n    tag_233:\n      pop\n      pop\n      pop\n      pop\n        /* \"#utility.yul\":6036:6037   */\n      0x01\n        /* \"#utility.yul\":6020:6034   */\n      swap1\n      dup2\n      shl\n        /* \"#utility.yul\":6016:6038   */\n      add\n        /* \"#utility.yul\":6003:6039   */\n      swap1\n      sstore\n      pop\n        /* \"#utility.yul\":5007:6306   */\n      jump\t// out\n    stop\n    data_3874827173e8df9f34323b12b251d1d3c53926ce129e30a0d69f1d47c277041b 52c63247e1f47db19d5ce0460030c497f067ca4cebf71ba98eeadabe20bace00\n\n    auxdata: 0xa264697066735822122068907af953dc9a836a664d7f0a328e8d1d810148587e0be7bafb63237201c08564736f6c634300081d0033\n}\n",
				"bytecode": {
					"linkReferences": {},
					"object": "6080604052348015600e575f5ffd5b50610b8e8061001c5f395ff3fe608060405234801561000f575f5ffd5b506004361061009b575f3560e01c806370a082311161006357806370a082311461013357806395d89b4114610167578063a9059cbb1461016f578063c4d66de814610182578063dd62ed3e14610197575f5ffd5b806306fdde031461009f578063095ea7b3146100bd57806318160ddd146100e057806323b872dd14610111578063313ce56714610124575b5f5ffd5b6100a76101aa565b6040516100b491906108cb565b60405180910390f35b6100d06100cb36600461091b565b61026a565b60405190151581526020016100b4565b7f52c63247e1f47db19d5ce0460030c497f067ca4cebf71ba98eeadabe20bace02545b6040519081526020016100b4565b6100d061011f366004610943565b610283565b604051601281526020016100b4565b61010361014136600461097d565b6001600160a01b03165f9081525f516020610b395f395f51905f52602052604090205490565b6100a76102a6565b6100d061017d36600461091b565b6102e4565b61019561019036600461097d565b6102f1565b005b6101036101a536600461099d565b6104ae565b7f52c63247e1f47db19d5ce0460030c497f067ca4cebf71ba98eeadabe20bace0380546060915f516020610b395f395f51905f52916101e8906109ce565b80601f0160208091040260200160405190810160405280929190818152602001828054610214906109ce565b801561025f5780601f106102365761010080835404028352916020019161025f565b820191905f5260205f20905b81548152906001019060200180831161024257829003601f168201915b505050505091505090565b5f336102778185856104f7565b60019150505b92915050565b5f33610290858285610509565b61029b85858561056c565b506001949350505050565b7f52c63247e1f47db19d5ce0460030c497f067ca4cebf71ba98eeadabe20bace0480546060915f516020610b395f395f51905f52916101e8906109ce565b5f3361027781858561056c565b7ff0c57e16840df040f15088dc2f81fe391c3923bec73e23a9662efc9c229c6a008054600160401b810460ff16159067ffffffffffffffff165f811580156103365750825b90505f8267ffffffffffffffff1660011480156103525750303b155b905081158015610360575080155b1561037e5760405163f92ee8a960e01b815260040160405180910390fd5b845467ffffffffffffffff1916600117855583156103a857845460ff60401b1916600160401b1785555b6001600160a01b0386166104035760405162461bcd60e51b815260206004820152601860248201527f496e76616c696420636f6d6d756e6974792077616c6c6574000000000000000060448201526064015b60405180910390fd5b61044b604051806040016040528060098152602001685248454d20566f746560b81b8152506040518060400160405280600581526020016452564f544560d81b8152506105c9565b610460866a52b7d2dcc80cd2e40000006105df565b83156104a657845460ff60401b19168555604051600181527fc7f505b2f371ae2175ee4913f4499e1f2633a7b5936321eed1cdaeb6115181d29060200160405180910390a15b505050505050565b6001600160a01b039182165f9081527f52c63247e1f47db19d5ce0460030c497f067ca4cebf71ba98eeadabe20bace016020908152604080832093909416825291909152205490565b6105048383836001610613565b505050565b5f61051484846104ae565b90505f198114610566578181101561055857604051637dc7a0d960e11b81526001600160a01b038416600482015260248101829052604481018390526064016103fa565b61056684848484035f610613565b50505050565b6001600160a01b03831661059557604051634b637e8f60e11b81525f60048201526024016103fa565b6001600160a01b0382166105be5760405163ec442f0560e01b81525f60048201526024016103fa565b6105048383836106f7565b6105d1610830565b6105db828261087b565b5050565b6001600160a01b0382166106085760405163ec442f0560e01b81525f60048201526024016103fa565b6105db5f83836106f7565b5f516020610b395f395f51905f526001600160a01b03851661064a5760405163e602df0560e01b81525f60048201526024016103fa565b6001600160a01b03841661067357604051634a1406b160e11b81525f60048201526024016103fa565b6001600160a01b038086165f908152600183016020908152604080832093881683529290522083905581156106f057836001600160a01b0316856001600160a01b03167f8c5be1e5ebec7d5bd14f71427d1e84f3dd0314c0f7b2291e5b200ac8c7c3b925856040516106e791815260200190565b60405180910390a35b5050505050565b5f516020610b395f395f51905f526001600160a01b0384166107315781816002015f8282546107269190610a06565b909155506107a19050565b6001600160a01b0384165f90815260208290526040902054828110156107835760405163391434e360e21b81526001600160a01b038616600482015260248101829052604481018490526064016103fa565b6001600160a01b0385165f9081526020839052604090209083900390555b6001600160a01b0383166107bf5760028101805483900390556107dd565b6001600160a01b0383165f9081526020829052604090208054830190555b826001600160a01b0316846001600160a01b03167fddf252ad1be2c89b69c2b068fc378daa952ba7f163c4a11628f55a4df523b3ef8460405161082291815260200190565b60405180910390a350505050565b7ff0c57e16840df040f15088dc2f81fe391c3923bec73e23a9662efc9c229c6a0054600160401b900460ff1661087957604051631afcd79f60e31b815260040160405180910390fd5b565b610883610830565b5f516020610b395f395f51905f527f52c63247e1f47db19d5ce0460030c497f067ca4cebf71ba98eeadabe20bace036108bc8482610a7d565b50600481016105668382610a7d565b602081525f82518060208401528060208501604085015e5f604082850101526040601f19601f83011684010191505092915050565b80356001600160a01b0381168114610916575f5ffd5b919050565b5f5f6040838503121561092c575f5ffd5b61093583610900565b946020939093013593505050565b5f5f5f60608486031215610955575f5ffd5b61095e84610900565b925061096c60208501610900565b929592945050506040919091013590565b5f6020828403121561098d575f5ffd5b61099682610900565b9392505050565b5f5f604083850312156109ae575f5ffd5b6109b783610900565b91506109c560208401610900565b90509250929050565b600181811c908216806109e257607f821691505b602082108103610a0057634e487b7160e01b5f52602260045260245ffd5b50919050565b8082018082111561027d57634e487b7160e01b5f52601160045260245ffd5b634e487b7160e01b5f52604160045260245ffd5b601f82111561050457805f5260205f20601f840160051c81016020851015610a5e5750805b601f840160051c820191505b818110156106f0575f8155600101610a6a565b815167ffffffffffffffff811115610a9757610a97610a25565b610aab81610aa584546109ce565b84610a39565b6020601f821160018114610add575f8315610ac65750848201515b5f19600385901b1c1916600184901b1784556106f0565b5f84815260208120601f198516915b82811015610b0c5787850151825560209485019460019092019101610aec565b5084821015610b2957868401515f19600387901b60f8161c191681555b50505050600190811b0190555056fe52c63247e1f47db19d5ce0460030c497f067ca4cebf71ba98eeadabe20bace00a264697066735822122068907af953dc9a836a664d7f0a328e8d1d810148587e0be7bafb63237201c08564736f6c634300081d0033",
					"opcodes": "PUSH1 0x80 PUSH1 0x40 MSTORE CALLVALUE DUP1 ISZERO PUSH1 0xE JUMPI PUSH0 PUSH0 REVERT JUMPDEST POP PUSH2 0xB8E DUP1 PUSH2 0x1C PUSH0 CODECOPY PUSH0 RETURN INVALID PUSH1 0x80 PUSH1 0x40 MSTORE CALLVALUE DUP1 ISZERO PUSH2 0xF JUMPI PUSH0 PUSH0 REVERT JUMPDEST POP PUSH1 0x4 CALLDATASIZE LT PUSH2 0x9B JUMPI PUSH0 CALLDATALOAD PUSH1 0xE0 SHR DUP1 PUSH4 0x70A08231 GT PUSH2 0x63 JUMPI DUP1 PUSH4 0x70A08231 EQ PUSH2 0x133 JUMPI DUP1 PUSH4 0x95D89B41 EQ PUSH2 0x167 JUMPI DUP1 PUSH4 0xA9059CBB EQ PUSH2 0x16F JUMPI DUP1 PUSH4 0xC4D66DE8 EQ PUSH2 0x182 JUMPI DUP1 PUSH4 0xDD62ED3E EQ PUSH2 0x197 JUMPI PUSH0 PUSH0 REVERT JUMPDEST DUP1 PUSH4 0x6FDDE03 EQ PUSH2 0x9F JUMPI DUP1 PUSH4 0x95EA7B3 EQ PUSH2 0xBD JUMPI DUP1 PUSH4 0x18160DDD EQ PUSH2 0xE0 JUMPI DUP1 PUSH4 0x23B872DD EQ PUSH2 0x111 JUMPI DUP1 PUSH4 0x313CE567 EQ PUSH2 0x124 JUMPI JUMPDEST PUSH0 PUSH0 REVERT JUMPDEST PUSH2 0xA7 PUSH2 0x1AA JUMP JUMPDEST PUSH1 0x40 MLOAD PUSH2 0xB4 SWAP2 SWAP1 PUSH2 0x8CB JUMP JUMPDEST PUSH1 0x40 MLOAD DUP1 SWAP2 SUB SWAP1 RETURN JUMPDEST PUSH2 0xD0 PUSH2 0xCB CALLDATASIZE PUSH1 0x4 PUSH2 0x91B JUMP JUMPDEST PUSH2 0x26A JUMP JUMPDEST PUSH1 0x40 MLOAD SWAP1 ISZERO ISZERO DUP2 MSTORE PUSH1 0x20 ADD PUSH2 0xB4 JUMP JUMPDEST PUSH32 0x52C63247E1F47DB19D5CE0460030C497F067CA4CEBF71BA98EEADABE20BACE02 SLOAD JUMPDEST PUSH1 0x40 MLOAD SWAP1 DUP2 MSTORE PUSH1 0x20 ADD PUSH2 0xB4 JUMP JUMPDEST PUSH2 0xD0 PUSH2 0x11F CALLDATASIZE PUSH1 0x4 PUSH2 0x943 JUMP JUMPDEST PUSH2 0x283 JUMP JUMPDEST PUSH1 0x40 MLOAD PUSH1 0x12 DUP2 MSTORE PUSH1 0x20 ADD PUSH2 0xB4 JUMP JUMPDEST PUSH2 0x103 PUSH2 0x141 CALLDATASIZE PUSH1 0x4 PUSH2 0x97D JUMP JUMPDEST PUSH1 0x1 PUSH1 0x1 PUSH1 0xA0 SHL SUB AND PUSH0 SWAP1 DUP2 MSTORE PUSH0 MLOAD PUSH1 0x20 PUSH2 0xB39 PUSH0 CODECOPY PUSH0 MLOAD SWAP1 PUSH0 MSTORE PUSH1 0x20 MSTORE PUSH1 0x40 SWAP1 KECCAK256 SLOAD SWAP1 JUMP JUMPDEST PUSH2 0xA7 PUSH2 0x2A6 JUMP JUMPDEST PUSH2 0xD0 PUSH2 0x17D CALLDATASIZE PUSH1 0x4 PUSH2 0x91B JUMP JUMPDEST PUSH2 0x2E4 JUMP JUMPDEST PUSH2 0x195 PUSH2 0x190 CALLDATASIZE PUSH1 0x4 PUSH2 0x97D JUMP JUMPDEST PUSH2 0x2F1 JUMP JUMPDEST STOP JUMPDEST PUSH2 0x103 PUSH2 0x1A5 CALLDATASIZE PUSH1 0x4 PUSH2 0x99D JUMP JUMPDEST PUSH2 0x4AE JUMP JUMPDEST PUSH32 0x52C63247E1F47DB19D5CE0460030C497F067CA4CEBF71BA98EEADABE20BACE03 DUP1 SLOAD PUSH1 0x60 SWAP2 PUSH0 MLOAD PUSH1 0x20 PUSH2 0xB39 PUSH0 CODECOPY PUSH0 MLOAD SWAP1 PUSH0 MSTORE SWAP2 PUSH2 0x1E8 SWAP1 PUSH2 0x9CE JUMP JUMPDEST DUP1 PUSH1 0x1F ADD PUSH1 0x20 DUP1 SWAP2 DIV MUL PUSH1 0x20 ADD PUSH1 0x40 MLOAD SWAP1 DUP2 ADD PUSH1 0x40 MSTORE DUP1 SWAP3 SWAP2 SWAP1 DUP2 DUP2 MSTORE PUSH1 0x20 ADD DUP3 DUP1 SLOAD PUSH2 0x214 SWAP1 PUSH2 0x9CE JUMP JUMPDEST DUP1 ISZERO PUSH2 0x25F JUMPI DUP1 PUSH1 0x1F LT PUSH2 0x236 JUMPI PUSH2 0x100 DUP1 DUP4 SLOAD DIV MUL DUP4 MSTORE SWAP2 PUSH1 0x20 ADD SWAP2 PUSH2 0x25F JUMP JUMPDEST DUP3 ADD SWAP2 SWAP1 PUSH0 MSTORE PUSH1 0x20 PUSH0 KECCAK256 SWAP1 JUMPDEST DUP2 SLOAD DUP2 MSTORE SWAP1 PUSH1 0x1 ADD SWAP1 PUSH1 0x20 ADD DUP1 DUP4 GT PUSH2 0x242 JUMPI DUP3 SWAP1 SUB PUSH1 0x1F AND DUP3 ADD SWAP2 JUMPDEST POP POP POP POP POP SWAP2 POP POP SWAP1 JUMP JUMPDEST PUSH0 CALLER PUSH2 0x277 DUP2 DUP6 DUP6 PUSH2 0x4F7 JUMP JUMPDEST PUSH1 0x1 SWAP2 POP POP JUMPDEST SWAP3 SWAP2 POP POP JUMP JUMPDEST PUSH0 CALLER PUSH2 0x290 DUP6 DUP3 DUP6 PUSH2 0x509 JUMP JUMPDEST PUSH2 0x29B DUP6 DUP6 DUP6 PUSH2 0x56C JUMP JUMPDEST POP PUSH1 0x1 SWAP5 SWAP4 POP POP POP POP JUMP JUMPDEST PUSH32 0x52C63247E1F47DB19D5CE0460030C497F067CA4CEBF71BA98EEADABE20BACE04 DUP1 SLOAD PUSH1 0x60 SWAP2 PUSH0 MLOAD PUSH1 0x20 PUSH2 0xB39 PUSH0 CODECOPY PUSH0 MLOAD SWAP1 PUSH0 MSTORE SWAP2 PUSH2 0x1E8 SWAP1 PUSH2 0x9CE JUMP JUMPDEST PUSH0 CALLER PUSH2 0x277 DUP2 DUP6 DUP6 PUSH2 0x56C JUMP JUMPDEST PUSH32 0xF0C57E16840DF040F15088DC2F81FE391C3923BEC73E23A9662EFC9C229C6A00 DUP1 SLOAD PUSH1 0x1 PUSH1 0x40 SHL DUP2 DIV PUSH1 0xFF AND ISZERO SWAP1 PUSH8 0xFFFFFFFFFFFFFFFF AND PUSH0 DUP2 ISZERO DUP1 ISZERO PUSH2 0x336 JUMPI POP DUP3 JUMPDEST SWAP1 POP PUSH0 DUP3 PUSH8 0xFFFFFFFFFFFFFFFF AND PUSH1 0x1 EQ DUP1 ISZERO PUSH2 0x352 JUMPI POP ADDRESS EXTCODESIZE ISZERO JUMPDEST SWAP1 POP DUP2 ISZERO DUP1 ISZERO PUSH2 0x360 JUMPI POP DUP1 ISZERO JUMPDEST ISZERO PUSH2 0x37E JUMPI PUSH1 0x40 MLOAD PUSH4 0xF92EE8A9 PUSH1 0xE0 SHL DUP2 MSTORE PUSH1 0x4 ADD PUSH1 0x40 MLOAD DUP1 SWAP2 SUB SWAP1 REVERT JUMPDEST DUP5 SLOAD PUSH8 0xFFFFFFFFFFFFFFFF NOT AND PUSH1 0x1 OR DUP6 SSTORE DUP4 ISZERO PUSH2 0x3A8 JUMPI DUP5 SLOAD PUSH1 0xFF PUSH1 0x40 SHL NOT AND PUSH1 0x1 PUSH1 0x40 SHL OR DUP6 SSTORE JUMPDEST PUSH1 0x1 PUSH1 0x1 PUSH1 0xA0 SHL SUB DUP7 AND PUSH2 0x403 JUMPI PUSH1 0x40 MLOAD PUSH3 0x461BCD PUSH1 0xE5 SHL DUP2 MSTORE PUSH1 0x20 PUSH1 0x4 DUP3 ADD MSTORE PUSH1 0x18 PUSH1 0x24 DUP3 ADD MSTORE PUSH32 0x496E76616C696420636F6D6D756E6974792077616C6C65740000000000000000 PUSH1 0x44 DUP3 ADD MSTORE PUSH1 0x64 ADD JUMPDEST PUSH1 0x40 MLOAD DUP1 SWAP2 SUB SWAP1 REVERT JUMPDEST PUSH2 0x44B PUSH1 0x40 MLOAD DUP1 PUSH1 0x40 ADD PUSH1 0x40 MSTORE DUP1 PUSH1 0x9 DUP2 MSTORE PUSH1 0x20 ADD PUSH9 0x5248454D20566F7465 PUSH1 0xB8 SHL DUP2 MSTORE POP PUSH1 0x40 MLOAD DUP1 PUSH1 0x40 ADD PUSH1 0x40 MSTORE DUP1 PUSH1 0x5 DUP2 MSTORE PUSH1 0x20 ADD PUSH5 0x52564F5445 PUSH1 0xD8 SHL DUP2 MSTORE POP PUSH2 0x5C9 JUMP JUMPDEST PUSH2 0x460 DUP7 PUSH11 0x52B7D2DCC80CD2E4000000 PUSH2 0x5DF JUMP JUMPDEST DUP4 ISZERO PUSH2 0x4A6 JUMPI DUP5 SLOAD PUSH1 0xFF PUSH1 0x40 SHL NOT AND DUP6 SSTORE PUSH1 0x40 MLOAD PUSH1 0x1 DUP2 MSTORE PUSH32 0xC7F505B2F371AE2175EE4913F4499E1F2633A7B5936321EED1CDAEB6115181D2 SWAP1 PUSH1 0x20 ADD PUSH1 0x40 MLOAD DUP1 SWAP2 SUB SWAP1 LOG1 JUMPDEST POP POP POP POP POP POP JUMP JUMPDEST PUSH1 0x1 PUSH1 0x1 PUSH1 0xA0 SHL SUB SWAP2 DUP3 AND PUSH0 SWAP1 DUP2 MSTORE PUSH32 0x52C63247E1F47DB19D5CE0460030C497F067CA4CEBF71BA98EEADABE20BACE01 PUSH1 0x20 SWAP1 DUP2 MSTORE PUSH1 0x40 DUP1 DUP4 KECCAK256 SWAP4 SWAP1 SWAP5 AND DUP3 MSTORE SWAP2 SWAP1 SWAP2 MSTORE KECCAK256 SLOAD SWAP1 JUMP JUMPDEST PUSH2 0x504 DUP4 DUP4 DUP4 PUSH1 0x1 PUSH2 0x613 JUMP JUMPDEST POP POP POP JUMP JUMPDEST PUSH0 PUSH2 0x514 DUP5 DUP5 PUSH2 0x4AE JUMP JUMPDEST SWAP1 POP PUSH0 NOT DUP2 EQ PUSH2 0x566 JUMPI DUP2 DUP2 LT ISZERO PUSH2 0x558 JUMPI PUSH1 0x40 MLOAD PUSH4 0x7DC7A0D9 PUSH1 0xE1 SHL DUP2 MSTORE PUSH1 0x1 PUSH1 0x1 PUSH1 0xA0 SHL SUB DUP5 AND PUSH1 0x4 DUP3 ADD MSTORE PUSH1 0x24 DUP2 ADD DUP3 SWAP1 MSTORE PUSH1 0x44 DUP2 ADD DUP4 SWAP1 MSTORE PUSH1 0x64 ADD PUSH2 0x3FA JUMP JUMPDEST PUSH2 0x566 DUP5 DUP5 DUP5 DUP5 SUB PUSH0 PUSH2 0x613 JUMP JUMPDEST POP POP POP POP JUMP JUMPDEST PUSH1 0x1 PUSH1 0x1 PUSH1 0xA0 SHL SUB DUP4 AND PUSH2 0x595 JUMPI PUSH1 0x40 MLOAD PUSH4 0x4B637E8F PUSH1 0xE1 SHL DUP2 MSTORE PUSH0 PUSH1 0x4 DUP3 ADD MSTORE PUSH1 0x24 ADD PUSH2 0x3FA JUMP JUMPDEST PUSH1 0x1 PUSH1 0x1 PUSH1 0xA0 SHL SUB DUP3 AND PUSH2 0x5BE JUMPI PUSH1 0x40 MLOAD PUSH4 0xEC442F05 PUSH1 0xE0 SHL DUP2 MSTORE PUSH0 PUSH1 0x4 DUP3 ADD MSTORE PUSH1 0x24 ADD PUSH2 0x3FA JUMP JUMPDEST PUSH2 0x504 DUP4 DUP4 DUP4 PUSH2 0x6F7 JUMP JUMPDEST PUSH2 0x5D1 PUSH2 0x830 JUMP JUMPDEST PUSH2 0x5DB DUP3 DUP3 PUSH2 0x87B JUMP JUMPDEST POP POP JUMP JUMPDEST PUSH1 0x1 PUSH1 0x1 PUSH1 0xA0 SHL SUB DUP3 AND PUSH2 0x608 JUMPI PUSH1 0x40 MLOAD PUSH4 0xEC442F05 PUSH1 0xE0 SHL DUP2 MSTORE PUSH0 PUSH1 0x4 DUP3 ADD MSTORE PUSH1 0x24 ADD PUSH2 0x3FA JUMP JUMPDEST PUSH2 0x5DB PUSH0 DUP4 DUP4 PUSH2 0x6F7 JUMP JUMPDEST PUSH0 MLOAD PUSH1 0x20 PUSH2 0xB39 PUSH0 CODECOPY PUSH0 MLOAD SWAP1 PUSH0 MSTORE PUSH1 0x1 PUSH1 0x1 PUSH1 0xA0 SHL SUB DUP6 AND PUSH2 0x64A JUMPI PUSH1 0x40 MLOAD PUSH4 0xE602DF05 PUSH1 0xE0 SHL DUP2 MSTORE PUSH0 PUSH1 0x4 DUP3 ADD MSTORE PUSH1 0x24 ADD PUSH2 0x3FA JUMP JUMPDEST PUSH1 0x1 PUSH1 0x1 PUSH1 0xA0 SHL SUB DUP5 AND PUSH2 0x673 JUMPI PUSH1 0x40 MLOAD PUSH4 0x4A1406B1 PUSH1 0xE1 SHL DUP2 MSTORE PUSH0 PUSH1 0x4 DUP3 ADD MSTORE PUSH1 0x24 ADD PUSH2 0x3FA JUMP JUMPDEST PUSH1 0x1 PUSH1 0x1 PUSH1 0xA0 SHL SUB DUP1 DUP7 AND PUSH0 SWAP1 DUP2 MSTORE PUSH1 0x1 DUP4 ADD PUSH1 0x20 SWAP1 DUP2 MSTORE PUSH1 0x40 DUP1 DUP4 KECCAK256 SWAP4 DUP9 AND DUP4 MSTORE SWAP3 SWAP1 MSTORE KECCAK256 DUP4 SWAP1 SSTORE DUP2 ISZERO PUSH2 0x6F0 JUMPI DUP4 PUSH1 0x1 PUSH1 0x1 PUSH1 0xA0 SHL SUB AND DUP6 PUSH1 0x1 PUSH1 0x1 PUSH1 0xA0 SHL SUB AND PUSH32 0x8C5BE1E5EBEC7D5BD14F71427D1E84F3DD0314C0F7B2291E5B200AC8C7C3B925 DUP6 PUSH1 0x40 MLOAD PUSH2 0x6E7 SWAP2 DUP2 MSTORE PUSH1 0x20 ADD SWAP1 JUMP JUMPDEST PUSH1 0x40 MLOAD DUP1 SWAP2 SUB SWAP1 LOG3 JUMPDEST POP POP POP POP POP JUMP JUMPDEST PUSH0 MLOAD PUSH1 0x20 PUSH2 0xB39 PUSH0 CODECOPY PUSH0 MLOAD SWAP1 PUSH0 MSTORE PUSH1 0x1 PUSH1 0x1 PUSH1 0xA0 SHL SUB DUP5 AND PUSH2 0x731 JUMPI DUP2 DUP2 PUSH1 0x2 ADD PUSH0 DUP3 DUP3 SLOAD PUSH2 0x726 SWAP2 SWAP1 PUSH2 0xA06 JUMP JUMPDEST SWAP1 SWAP2 SSTORE POP PUSH2 0x7A1 SWAP1 POP JUMP JUMPDEST PUSH1 0x1 PUSH1 0x1 PUSH1 0xA0 SHL SUB DUP5 AND PUSH0 SWAP1 DUP2 MSTORE PUSH1 0x20 DUP3 SWAP1 MSTORE PUSH1 0x40 SWAP1 KECCAK256 SLOAD DUP3 DUP2 LT ISZERO PUSH2 0x783 JUMPI PUSH1 0x40 MLOAD PUSH4 0x391434E3 PUSH1 0xE2 SHL DUP2 MSTORE PUSH1 0x1 PUSH1 0x1 PUSH1 0xA0 SHL SUB DUP7 AND PUSH1 0x4 DUP3 ADD MSTORE PUSH1 0x24 DUP2 ADD DUP3 SWAP1 MSTORE PUSH1 0x44 DUP2 ADD DUP5 SWAP1 MSTORE PUSH1 0x64 ADD PUSH2 0x3FA JUMP JUMPDEST PUSH1 0x1 PUSH1 0x1 PUSH1 0xA0 SHL SUB DUP6 AND PUSH0 SWAP1 DUP2 MSTORE PUSH1 0x20 DUP4 SWAP1 MSTORE PUSH1 0x40 SWAP1 KECCAK256 SWAP1 DUP4 SWAP1 SUB SWAP1 SSTORE JUMPDEST PUSH1 0x1 PUSH1 0x1 PUSH1 0xA0 SHL SUB DUP4 AND PUSH2 0x7BF JUMPI PUSH1 0x2 DUP2 ADD DUP1 SLOAD DUP4 SWAP1 SUB SWAP1 SSTORE PUSH2 0x7DD JUMP JUMPDEST PUSH1 0x1 PUSH1 0x1 PUSH1 0xA0 SHL SUB DUP4 AND PUSH0 SWAP1 DUP2 MSTORE PUSH1 0x20 DUP3 SWAP1 MSTORE PUSH1 0x40 SWAP1 KECCAK256 DUP1 SLOAD DUP4 ADD SWAP1 SSTORE JUMPDEST DUP3 PUSH1 0x1 PUSH1 0x1 PUSH1 0xA0 SHL SUB AND DUP5 PUSH1 0x1 PUSH1 0x1 PUSH1 0xA0 SHL SUB AND PUSH32 0xDDF252AD1BE2C89B69C2B068FC378DAA952BA7F163C4A11628F55A4DF523B3EF DUP5 PUSH1 0x40 MLOAD PUSH2 0x822 SWAP2 DUP2 MSTORE PUSH1 0x20 ADD SWAP1 JUMP JUMPDEST PUSH1 0x40 MLOAD DUP1 SWAP2 SUB SWAP1 LOG3 POP POP POP POP JUMP JUMPDEST PUSH32 0xF0C57E16840DF040F15088DC2F81FE391C3923BEC73E23A9662EFC9C229C6A00 SLOAD PUSH1 0x1 PUSH1 0x40 SHL SWAP1 DIV PUSH1 0xFF AND PUSH2 0x879 JUMPI PUSH1 0x40 MLOAD PUSH4 0x1AFCD79F PUSH1 0xE3 SHL DUP2 MSTORE PUSH1 0x4 ADD PUSH1 0x40 MLOAD DUP1 SWAP2 SUB SWAP1 REVERT JUMPDEST JUMP JUMPDEST PUSH2 0x883 PUSH2 0x830 JUMP JUMPDEST PUSH0 MLOAD PUSH1 0x20 PUSH2 0xB39 PUSH0 CODECOPY PUSH0 MLOAD SWAP1 PUSH0 MSTORE PUSH32 0x52C63247E1F47DB19D5CE0460030C497F067CA4CEBF71BA98EEADABE20BACE03 PUSH2 0x8BC DUP5 DUP3 PUSH2 0xA7D JUMP JUMPDEST POP PUSH1 0x4 DUP2 ADD PUSH2 0x566 DUP4 DUP3 PUSH2 0xA7D JUMP JUMPDEST PUSH1 0x20 DUP2 MSTORE PUSH0 DUP3 MLOAD DUP1 PUSH1 0x20 DUP5 ADD MSTORE DUP1 PUSH1 0x20 DUP6 ADD PUSH1 0x40 DUP6 ADD MCOPY PUSH0 PUSH1 0x40 DUP3 DUP6 ADD ADD MSTORE PUSH1 0x40 PUSH1 0x1F NOT PUSH1 0x1F DUP4 ADD AND DUP5 ADD ADD SWAP2 POP POP SWAP3 SWAP2 POP POP JUMP JUMPDEST DUP1 CALLDATALOAD PUSH1 0x1 PUSH1 0x1 PUSH1 0xA0 SHL SUB DUP2 AND DUP2 EQ PUSH2 0x916 JUMPI PUSH0 PUSH0 REVERT JUMPDEST SWAP2 SWAP1 POP JUMP JUMPDEST PUSH0 PUSH0 PUSH1 0x40 DUP4 DUP6 SUB SLT ISZERO PUSH2 0x92C JUMPI PUSH0 PUSH0 REVERT JUMPDEST PUSH2 0x935 DUP4 PUSH2 0x900 JUMP JUMPDEST SWAP5 PUSH1 0x20 SWAP4 SWAP1 SWAP4 ADD CALLDATALOAD SWAP4 POP POP POP JUMP JUMPDEST PUSH0 PUSH0 PUSH0 PUSH1 0x60 DUP5 DUP7 SUB SLT ISZERO PUSH2 0x955 JUMPI PUSH0 PUSH0 REVERT JUMPDEST PUSH2 0x95E DUP5 PUSH2 0x900 JUMP JUMPDEST SWAP3 POP PUSH2 0x96C PUSH1 0x20 DUP6 ADD PUSH2 0x900 JUMP JUMPDEST SWAP3 SWAP6 SWAP3 SWAP5 POP POP POP PUSH1 0x40 SWAP2 SWAP1 SWAP2 ADD CALLDATALOAD SWAP1 JUMP JUMPDEST PUSH0 PUSH1 0x20 DUP3 DUP5 SUB SLT ISZERO PUSH2 0x98D JUMPI PUSH0 PUSH0 REVERT JUMPDEST PUSH2 0x996 DUP3 PUSH2 0x900 JUMP JUMPDEST SWAP4 SWAP3 POP POP POP JUMP JUMPDEST PUSH0 PUSH0 PUSH1 0x40 DUP4 DUP6 SUB SLT ISZERO PUSH2 0x9AE JUMPI PUSH0 PUSH0 REVERT JUMPDEST PUSH2 0x9B7 DUP4 PUSH2 0x900 JUMP JUMPDEST SWAP2 POP PUSH2 0x9C5 PUSH1 0x20 DUP5 ADD PUSH2 0x900 JUMP JUMPDEST SWAP1 POP SWAP3 POP SWAP3 SWAP1 POP JUMP JUMPDEST PUSH1 0x1 DUP2 DUP2 SHR SWAP1 DUP3 AND DUP1 PUSH2 0x9E2 JUMPI PUSH1 0x7F DUP3 AND SWAP2 POP JUMPDEST PUSH1 0x20 DUP3 LT DUP2 SUB PUSH2 0xA00 JUMPI PUSH4 0x4E487B71 PUSH1 0xE0 SHL PUSH0 MSTORE PUSH1 0x22 PUSH1 0x4 MSTORE PUSH1 0x24 PUSH0 REVERT JUMPDEST POP SWAP2 SWAP1 POP JUMP JUMPDEST DUP1 DUP3 ADD DUP1 DUP3 GT ISZERO PUSH2 0x27D JUMPI PUSH4 0x4E487B71 PUSH1 0xE0 SHL PUSH0 MSTORE PUSH1 0x11 PUSH1 0x4 MSTORE PUSH1 0x24 PUSH0 REVERT JUMPDEST PUSH4 0x4E487B71 PUSH1 0xE0 SHL PUSH0 MSTORE PUSH1 0x41 PUSH1 0x4 MSTORE PUSH1 0x24 PUSH0 REVERT JUMPDEST PUSH1 0x1F DUP3 GT ISZERO PUSH2 0x504 JUMPI DUP1 PUSH0 MSTORE PUSH1 0x20 PUSH0 KECCAK256 PUSH1 0x1F DUP5 ADD PUSH1 0x5 SHR DUP2 ADD PUSH1 0x20 DUP6 LT ISZERO PUSH2 0xA5E JUMPI POP DUP1 JUMPDEST PUSH1 0x1F DUP5 ADD PUSH1 0x5 SHR DUP3 ADD SWAP2 POP JUMPDEST DUP2 DUP2 LT ISZERO PUSH2 0x6F0 JUMPI PUSH0 DUP2 SSTORE PUSH1 0x1 ADD PUSH2 0xA6A JUMP JUMPDEST DUP2 MLOAD PUSH8 0xFFFFFFFFFFFFFFFF DUP2 GT ISZERO PUSH2 0xA97 JUMPI PUSH2 0xA97 PUSH2 0xA25 JUMP JUMPDEST PUSH2 0xAAB DUP2 PUSH2 0xAA5 DUP5 SLOAD PUSH2 0x9CE JUMP JUMPDEST DUP5 PUSH2 0xA39 JUMP JUMPDEST PUSH1 0x20 PUSH1 0x1F DUP3 GT PUSH1 0x1 DUP2 EQ PUSH2 0xADD JUMPI PUSH0 DUP4 ISZERO PUSH2 0xAC6 JUMPI POP DUP5 DUP3 ADD MLOAD JUMPDEST PUSH0 NOT PUSH1 0x3 DUP6 SWAP1 SHL SHR NOT AND PUSH1 0x1 DUP5 SWAP1 SHL OR DUP5 SSTORE PUSH2 0x6F0 JUMP JUMPDEST PUSH0 DUP5 DUP2 MSTORE PUSH1 0x20 DUP2 KECCAK256 PUSH1 0x1F NOT DUP6 AND SWAP2 JUMPDEST DUP3 DUP2 LT ISZERO PUSH2 0xB0C JUMPI DUP8 DUP6 ADD MLOAD DUP3 SSTORE PUSH1 0x20 SWAP5 DUP6 ADD SWAP5 PUSH1 0x1 SWAP1 SWAP3 ADD SWAP2 ADD PUSH2 0xAEC JUMP JUMPDEST POP DUP5 DUP3 LT ISZERO PUSH2 0xB29 JUMPI DUP7 DUP5 ADD MLOAD PUSH0 NOT PUSH1 0x3 DUP8 SWAP1 SHL PUSH1 0xF8 AND SHR NOT AND DUP2 SSTORE JUMPDEST POP POP POP POP PUSH1 0x1 SWAP1 DUP2 SHL ADD SWAP1 SSTORE POP JUMP INVALID MSTORE 0xC6 ORIGIN SELFBALANCE RJUMPI 0xF47D 0xB1 SWAP14 TLOAD RJUMP 0x4600 ADDRESS 0xC4 SWAP8 CREATE PUSH8 0xCA4CEBF71BA98EEA 0xDA 0xBE KECCAK256 0xBA 0xCE STOP LOG2 PUSH5 0x6970667358 0x22 SLT KECCAK256 PUSH9 0x907AF953DC9A836A66 0x4D PUSH32 0xA328E8D1D810148587E0BE7BAFB63237201C08564736F6C634300081D003300 "
				},
				"gasEstimates": {
					"creation": {
						"codeDepositCost": "591600",
						"executionCost": "623",
						"totalCost": "592223"
					},
					"external": {
						"allowance(address,address)": "infinite",
						"approve(address,uint256)": "infinite",
						"balanceOf(address)": "infinite",
						"decimals()": "265",
						"initialize(address)": "infinite",
						"name()": "infinite",
						"symbol()": "infinite",
						"totalSupply()": "2325",
						"transfer(address,uint256)": "infinite",
						"transferFrom(address,address,uint256)": "infinite"
					}
				},
				"methodIdentifiers": {
					"allowance(address,address)": "dd62ed3e",
					"approve(address,uint256)": "095ea7b3",
					"balanceOf(address)": "70a08231",
					"decimals()": "313ce567",
					"initialize(address)": "c4d66de8",
					"name()": "06fdde03",
					"symbol()": "95d89b41",
					"totalSupply()": "18160ddd",
					"transfer(address,uint256)": "a9059cbb",
					"transferFrom(address,address,uint256)": "23b872dd"
				}
			},
			"storageLayout": {
				"storage": [],
				"types": null
			},
			"userdoc": {
				"kind": "user",
				"methods": {},
				"version": 1
			}
		}
	}
}