{
	"data": {
		"bytecode": {
			"linkReferences": {},
			"object": "6080604052348015600e575f5ffd5b5061138d8061001c5f395ff3fe608060405234801561000f575f5ffd5b506004361061011c575f3560e01c806370d5ae05116100a9578063b5d5b5fa1161006e578063b5d5b5fa14610251578063b865749d14610264578063bdcafc5514610296578063c1dfa0bb146102a9578063de74e57b146102bc575f5ffd5b806370d5ae05146101f25780638ea5220f1461020557806394383f1414610218578063961f09441461022b578063a6d745121461023e575f5ffd5b80634162169f116100ef5780634162169f1461018657806346fc852e146101b057806351ed8288146101c35780636a1b7ecc146101d65780636eb604e0146101df575f5ffd5b8063131dbd0914610120578063178021e3146101355780631a72b87d14610151578063265aa62114610164575b5f5ffd5b61013361012e366004611156565b61031c565b005b61013e600a5481565b6040519081526020015b60405180910390f35b61013e61015f366004611188565b6103a7565b610177610172366004611156565b6103d2565b604051610148939291906111b0565b5f54610198906001600160a01b031681565b6040516001600160a01b039091168152602001610148565b6101336101be3660046111fd565b610487565b6101336101d1366004611156565b6105fe565b61013e60095481565b6101336101ed366004611156565b610a43565b600254610198906001600160a01b031681565b600154610198906001600160a01b031681565b61013361022636600461124e565b610b50565b610133610239366004611156565b610cf8565b600354610198906001600160a01b031681565b61013e61025f366004611188565b610e08565b610286610272366004611156565b60076020525f908152604090205460ff1681565b6040519015158152602001610148565b6101336102a4366004611156565b610e21565b6101336102b7366004611156565b610ea0565b6102f76102ca366004611156565b60066020525f9081526040902080546001909101546001600160a01b03811690600160a01b900460ff1683565b604080519384526001600160a01b039092166020840152151590820152606001610148565b5f546001600160a01b0316331461036b5760405162461bcd60e51b815260206004820152600e60248201526d139bdd08185d5d1a1bdc9a5e995960921b60448201526064015b60405180910390fd5b60098190556040518181527f5fb4654f1efe30c6141eaa6855ffcb27e0b361d899b05e21b1a4d0b3e71e14db906020015b60405180910390a150565b6005602052815f5260405f2081815481106103c0575f80fd5b905f5260205f20015f91509150505481565b60046020525f9081526040902080546001820180546001600160a01b0390921692916103fd9061126e565b80601f01602080910402602001604051908101604052809291908181526020018280546104299061126e565b80156104745780601f1061044b57610100808354040283529160200191610474565b820191905f5260205f20905b81548152906001019060200180831161045757829003601f168201915b5050506002909301549192505060ff1683565b5f546001600160a01b0316156104d55760405162461bcd60e51b8152602060048201526013602482015272105b1c9958591e481a5b9a5d1a585b1a5e9959606a1b6044820152606401610362565b6001600160a01b0384166105195760405162461bcd60e51b815260206004820152600b60248201526a496e76616c69642044414f60a81b6044820152606401610362565b6001600160a01b0383166105645760405162461bcd60e51b8152602060048201526012602482015271125b9d985b1a590819195d881dd85b1b195d60721b6044820152606401610362565b6001600160a01b0382166105af5760405162461bcd60e51b815260206004820152601260248201527124b73b30b634b210292422a6903a37b5b2b760711b6044820152606401610362565b5f80546001600160a01b039586166001600160a01b0319918216179091556001805494861694821694909417909355600380549285169284169290921790915560028054919093169116179055565b5f818152600660209081526040918290208251606081018452815481526001909101546001600160a01b03811692820192909252600160a01b90910460ff1615159181018290529061067f5760405162461bcd60e51b815260206004820152600a602482015269139bdd081b1a5cdd195960b21b6044820152606401610362565b80515f6127106106908360326112ba565b61069a91906112d7565b90505f6127106106ab8460196112ba565b6106b591906112d7565b90505f816106c384866112f6565b6106cd91906112f6565b6003546040516323b872dd60e01b8152336004820152306024820152604481018790529192506001600160a01b0316906323b872dd906064016020604051808303815f875af1158015610722573d5f5f3e3d5ffd5b505050506040513d601f19601f820116820180604052508101906107469190611309565b6107835760405162461bcd60e51b815260206004820152600e60248201526d14185e5b595b9d0819985a5b195960921b6044820152606401610362565b6003545f8781526004602081905260409182902054915163a9059cbb60e01b81526001600160a01b03928316918101919091526024810184905291169063a9059cbb906044016020604051808303815f875af11580156107e5573d5f5f3e3d5ffd5b505050506040513d601f19601f820116820180604052508101906108099190611309565b61084d5760405162461bcd60e51b815260206004820152601560248201527414d95b1b195c881c185e5b595b9d0819985a5b1959605a1b6044820152606401610362565b60035460025460405163a9059cbb60e01b81526001600160a01b0391821660048201526024810186905291169063a9059cbb906044016020604051808303815f875af115801561089f573d5f5f3e3d5ffd5b505050506040513d601f19601f820116820180604052508101906108c39190611309565b6108fd5760405162461bcd60e51b815260206004820152600b60248201526a109d5c9b8819985a5b195960aa1b6044820152606401610362565b60035460015460405163a9059cbb60e01b81526001600160a01b0391821660048201526024810185905291169063a9059cbb906044016020604051808303815f875af115801561094f573d5f5f3e3d5ffd5b505050506040513d601f19601f820116820180604052508101906109739190611309565b6109b05760405162461bcd60e51b815260206004820152600e60248201526d11195d881999594819985a5b195960921b6044820152606401610362565b5f868152600460205260409020546109d2906001600160a01b03163388610f8c565b5f868152600460209081526040808320600201805460ff191690556006825291829020600101805460ff60a01b19169055815188815290810186905233917f90c126d08c53e7f57ef4e11eb379ae5bc0e2489ee38eeb36ecfcaec81fe04021910160405180910390a2505050505050565b5f818152600460205260409020546001600160a01b03163314610a945760405162461bcd60e51b81526020600482015260096024820152682737ba1037bbb732b960b91b6044820152606401610362565b5f8181526007602052604090205460ff1615610ae35760405162461bcd60e51b815260206004820152600e60248201526d105b1c9958591e481cdd185ad95960921b6044820152606401610362565b5f818152600760209081526040808320805460ff1916600190811790915533808552600884528285208054928301815585529383902001849055518381527f0cda5cf38f6592672c7b4a22ff3d50874d1913629bd5ffedc27b7b40503d60fd91015b60405180910390a250565b5f8281526004602052604090205482906001600160a01b03163314610ba75760405162461bcd60e51b815260206004820152600d60248201526c2737ba103a34329037bbb732b960991b6044820152606401610362565b5f8381526004602052604090206002015460ff1615610bf95760405162461bcd60e51b815260206004820152600e60248201526d105b1c9958591e481b1a5cdd195960921b6044820152606401610362565b5f8211610c3c5760405162461bcd60e51b815260206004820152601160248201527005072696365206d757374206265203e203607c1b6044820152606401610362565b6040805160608101825283815233602080830182815260018486018181525f8a815260068552878120965187559251958201805491511515600160a01b026001600160a81b03199092166001600160a01b039790971696909617179094556004909152839020600201805460ff191690921790915590517fbbf44e68296791df5535457da734bf1017c4b233a740af6d7a89b9f1af4ecb4290610ceb9086908690918252602082015260400190565b60405180910390a2505050565b5f8181526004602052604090205481906001600160a01b03163314610d4f5760405162461bcd60e51b815260206004820152600d60248201526c2737ba103a34329037bbb732b960991b6044820152606401610362565b5f82815260066020526040902060010154600160a01b900460ff16610da35760405162461bcd60e51b815260206004820152600a602482015269139bdd081b1a5cdd195960b21b6044820152606401610362565b5f828152600660209081526040808320600101805460ff60a01b191690556004825291829020600201805460ff1916905590518381527fcd14eb7ebf273ed59a9fd1cf8651f3f40d9a04355b3511376f0d17b37ba224ff910160405180910390a15050565b6008602052815f5260405f2081815481106103c0575f80fd5b5f546001600160a01b03163314610e6b5760405162461bcd60e51b815260206004820152600e60248201526d139bdd08185d5d1a1bdc9a5e995960921b6044820152606401610362565b600a8190556040518181527f3129a3f705510d13754b1b445f0c1156bbf9fd8b88927ebfc2a88bc53189a9fa9060200161039c565b5f818152600460205260409020546001600160a01b03163314610ef15760405162461bcd60e51b81526020600482015260096024820152682737ba1037bbb732b960b91b6044820152606401610362565b5f8181526007602052604090205460ff16610f3b5760405162461bcd60e51b815260206004820152600a602482015269139bdd081cdd185ad95960b21b6044820152606401610362565b5f818152600760205260409020805460ff19169055610f5a3382611096565b60405181815233907f963148346e3c93bb3eb4b4c296e2e13321ff22bf1118c91686cb1bfe4adcd91890602001610b45565b5f81815260046020908152604080832080546001600160a01b0319166001600160a01b03878116919091179091558616835260059091528120905b81548110156110685782828281548110610fe357610fe361132f565b905f5260205f200154036110605781548290611001906001906112f6565b815481106110115761101161132f565b905f5260205f20015482828154811061102c5761102c61132f565b905f5260205f2001819055508180548061104857611048611343565b600190038181905f5260205f20015f90559055611068565b600101610fc7565b50506001600160a01b039091165f908152600560209081526040822080546001810182559083529120015550565b6001600160a01b0382165f908152600860205260408120905b815481101561115057828282815481106110cb576110cb61132f565b905f5260205f2001540361114857815482906110e9906001906112f6565b815481106110f9576110f961132f565b905f5260205f2001548282815481106111145761111461132f565b905f5260205f2001819055508180548061113057611130611343565b600190038181905f5260205f20015f90559055611150565b6001016110af565b50505050565b5f60208284031215611166575f5ffd5b5035919050565b80356001600160a01b0381168114611183575f5ffd5b919050565b5f5f60408385031215611199575f5ffd5b6111a28361116d565b946020939093013593505050565b60018060a01b0384168152606060208201525f83518060608401528060208601608085015e5f608082850101526080601f19601f8301168401019150508215156040830152949350505050565b5f5f5f5f60808587031215611210575f5ffd5b6112198561116d565b93506112276020860161116d565b92506112356040860161116d565b91506112436060860161116d565b905092959194509250565b5f5f6040838503121561125f575f5ffd5b50508035926020909101359150565b600181811c9082168061128257607f821691505b6020821081036112a057634e487b7160e01b5f52602260045260245ffd5b50919050565b634e487b7160e01b5f52601160045260245ffd5b80820281158282048414176112d1576112d16112a6565b92915050565b5f826112f157634e487b7160e01b5f52601260045260245ffd5b500490565b818103818111156112d1576112d16112a6565b5f60208284031215611319575f5ffd5b81518015158114611328575f5ffd5b9392505050565b634e487b7160e01b5f52603260045260245ffd5b634e487b7160e01b5f52603160045260245ffdfea2646970667358221220afb76d20b7612af20dab77185967bb91cd84209b9928457eed79effb4178ad2964736f6c634300081d0033",
			"opcodes": "PUSH1 0x80 PUSH1 0x40 MSTORE CALLVALUE DUP1 ISZERO PUSH1 0xE JUMPI PUSH0 PUSH0 REVERT JUMPDEST POP PUSH2 0x138D DUP1 PUSH2 0x1C PUSH0 CODECOPY PUSH0 RETURN INVALID PUSH1 0x80 PUSH1 0x40 MSTORE CALLVALUE DUP1 ISZERO PUSH2 0xF JUMPI PUSH0 PUSH0 REVERT JUMPDEST POP PUSH1 0x4 CALLDATASIZE LT PUSH2 0x11C JUMPI PUSH0 CALLDATALOAD PUSH1 0xE0 SHR DUP1 PUSH4 0x70D5AE05 GT PUSH2 0xA9 JUMPI DUP1 PUSH4 0xB5D5B5FA GT PUSH2 0x6E JUMPI DUP1 PUSH4 0xB5D5B5FA EQ PUSH2 0x251 JUMPI DUP1 PUSH4 0xB865749D EQ PUSH2 0x264 JUMPI DUP1 PUSH4 0xBDCAFC55 EQ PUSH2 0x296 JUMPI DUP1 PUSH4 0xC1DFA0BB EQ PUSH2 0x2A9 JUMPI DUP1 PUSH4 0xDE74E57B EQ PUSH2 0x2BC JUMPI PUSH0 PUSH0 REVERT JUMPDEST DUP1 PUSH4 0x70D5AE05 EQ PUSH2 0x1F2 JUMPI DUP1 PUSH4 0x8EA5220F EQ PUSH2 0x205 JUMPI DUP1 PUSH4 0x94383F14 EQ PUSH2 0x218 JUMPI DUP1 PUSH4 0x961F0944 EQ PUSH2 0x22B JUMPI DUP1 PUSH4 0xA6D74512 EQ PUSH2 0x23E JUMPI PUSH0 PUSH0 REVERT JUMPDEST DUP1 PUSH4 0x4162169F GT PUSH2 0xEF JUMPI DUP1 PUSH4 0x4162169F EQ PUSH2 0x186 JUMPI DUP1 PUSH4 0x46FC852E EQ PUSH2 0x1B0 JUMPI DUP1 PUSH4 0x51ED8288 EQ PUSH2 0x1C3 JUMPI DUP1 PUSH4 0x6A1B7ECC EQ PUSH2 0x1D6 JUMPI DUP1 PUSH4 0x6EB604E0 EQ PUSH2 0x1DF JUMPI PUSH0 PUSH0 REVERT JUMPDEST DUP1 PUSH4 0x131DBD09 EQ PUSH2 0x120 JUMPI DUP1 PUSH4 0x178021E3 EQ PUSH2 0x135 JUMPI DUP1 PUSH4 0x1A72B87D EQ PUSH2 0x151 JUMPI DUP1 PUSH4 0x265AA621 EQ PUSH2 0x164 JUMPI JUMPDEST PUSH0 PUSH0 REVERT JUMPDEST PUSH2 0x133 PUSH2 0x12E CALLDATASIZE PUSH1 0x4 PUSH2 0x1156 JUMP JUMPDEST PUSH2 0x31C JUMP JUMPDEST STOP JUMPDEST PUSH2 0x13E PUSH1 0xA SLOAD DUP2 JUMP JUMPDEST PUSH1 0x40 MLOAD SWAP1 DUP2 MSTORE PUSH1 0x20 ADD JUMPDEST PUSH1 0x40 MLOAD DUP1 SWAP2 SUB SWAP1 RETURN JUMPDEST PUSH2 0x13E PUSH2 0x15F CALLDATASIZE PUSH1 0x4 PUSH2 0x1188 JUMP JUMPDEST PUSH2 0x3A7 JUMP JUMPDEST PUSH2 0x177 PUSH2 0x172 CALLDATASIZE PUSH1 0x4 PUSH2 0x1156 JUMP JUMPDEST PUSH2 0x3D2 JUMP JUMPDEST PUSH1 0x40 MLOAD PUSH2 0x148 SWAP4 SWAP3 SWAP2 SWAP1 PUSH2 0x11B0 JUMP JUMPDEST PUSH0 SLOAD PUSH2 0x198 SWAP1 PUSH1 0x1 PUSH1 0x1 PUSH1 0xA0 SHL SUB AND DUP2 JUMP JUMPDEST PUSH1 0x40 MLOAD PUSH1 0x1 PUSH1 0x1 PUSH1 0xA0 SHL SUB SWAP1 SWAP2 AND DUP2 MSTORE PUSH1 0x20 ADD PUSH2 0x148 JUMP JUMPDEST PUSH2 0x133 PUSH2 0x1BE CALLDATASIZE PUSH1 0x4 PUSH2 0x11FD JUMP JUMPDEST PUSH2 0x487 JUMP JUMPDEST PUSH2 0x133 PUSH2 0x1D1 CALLDATASIZE PUSH1 0x4 PUSH2 0x1156 JUMP JUMPDEST PUSH2 0x5FE JUMP JUMPDEST PUSH2 0x13E PUSH1 0x9 SLOAD DUP2 JUMP JUMPDEST PUSH2 0x133 PUSH2 0x1ED CALLDATASIZE PUSH1 0x4 PUSH2 0x1156 JUMP JUMPDEST PUSH2 0xA43 JUMP JUMPDEST PUSH1 0x2 SLOAD PUSH2 0x198 SWAP1 PUSH1 0x1 PUSH1 0x1 PUSH1 0xA0 SHL SUB AND DUP2 JUMP JUMPDEST PUSH1 0x1 SLOAD PUSH2 0x198 SWAP1 PUSH1 0x1 PUSH1 0x1 PUSH1 0xA0 SHL SUB AND DUP2 JUMP JUMPDEST PUSH2 0x133 PUSH2 0x226 CALLDATASIZE PUSH1 0x4 PUSH2 0x124E JUMP JUMPDEST PUSH2 0xB50 JUMP JUMPDEST PUSH2 0x133 PUSH2 0x239 CALLDATASIZE PUSH1 0x4 PUSH2 0x1156 JUMP JUMPDEST PUSH2 0xCF8 JUMP JUMPDEST PUSH1 0x3 SLOAD PUSH2 0x198 SWAP1 PUSH1 0x1 PUSH1 0x1 PUSH1 0xA0 SHL SUB AND DUP2 JUMP JUMPDEST PUSH2 0x13E PUSH2 0x25F CALLDATASIZE PUSH1 0x4 PUSH2 0x1188 JUMP JUMPDEST PUSH2 0xE08 JUMP JUMPDEST PUSH2 0x286 PUSH2 0x272 CALLDATASIZE PUSH1 0x4 PUSH2 0x1156 JUMP JUMPDEST PUSH1 0x7 PUSH1 0x20 MSTORE PUSH0 SWAP1 DUP2 MSTORE PUSH1 0x40 SWAP1 KECCAK256 SLOAD PUSH1 0xFF AND DUP2 JUMP JUMPDEST PUSH1 0x40 MLOAD SWAP1 ISZERO ISZERO DUP2 MSTORE PUSH1 0x20 ADD PUSH2 0x148 JUMP JUMPDEST PUSH2 0x133 PUSH2 0x2A4 CALLDATASIZE PUSH1 0x4 PUSH2 0x1156 JUMP JUMPDEST PUSH2 0xE21 JUMP JUMPDEST PUSH2 0x133 PUSH2 0x2B7 CALLDATASIZE PUSH1 0x4 PUSH2 0x1156 JUMP JUMPDEST PUSH2 0xEA0 JUMP JUMPDEST PUSH2 0x2F7 PUSH2 0x2CA CALLDATASIZE PUSH1 0x4 PUSH2 0x1156 JUMP JUMPDEST PUSH1 0x6 PUSH1 0x20 MSTORE PUSH0 SWAP1 DUP2 MSTORE PUSH1 0x40 SWAP1 KECCAK256 DUP1 SLOAD PUSH1 0x1 SWAP1 SWAP2 ADD SLOAD PUSH1 0x1 PUSH1 0x1 PUSH1 0xA0 SHL SUB DUP2 AND SWAP1 PUSH1 0x1 PUSH1 0xA0 SHL SWAP1 DIV PUSH1 0xFF AND DUP4 JUMP JUMPDEST PUSH1 0x40 DUP1 MLOAD SWAP4 DUP5 MSTORE PUSH1 0x1 PUSH1 0x1 PUSH1 0xA0 SHL SUB SWAP1 SWAP3 AND PUSH1 0x20 DUP5 ADD MSTORE ISZERO ISZERO SWAP1 DUP3 ADD MSTORE PUSH1 0x60 ADD PUSH2 0x148 JUMP JUMPDEST PUSH0 SLOAD PUSH1 0x1 PUSH1 0x1 PUSH1 0xA0 SHL SUB AND CALLER EQ PUSH2 0x36B JUMPI PUSH1 0x40 MLOAD PUSH3 0x461BCD PUSH1 0xE5 SHL DUP2 MSTORE PUSH1 0x20 PUSH1 0x4 DUP3 ADD MSTORE PUSH1 0xE PUSH1 0x24 DUP3 ADD MSTORE PUSH14 0x139BDD08185D5D1A1BDC9A5E9959 PUSH1 0x92 SHL PUSH1 0x44 DUP3 ADD MSTORE PUSH1 0x64 ADD JUMPDEST PUSH1 0x40 MLOAD DUP1 SWAP2 SUB SWAP1 REVERT JUMPDEST PUSH1 0x9 DUP2 SWAP1 SSTORE PUSH1 0x40 MLOAD DUP2 DUP2 MSTORE PUSH32 0x5FB4654F1EFE30C6141EAA6855FFCB27E0B361D899B05E21B1A4D0B3E71E14DB SWAP1 PUSH1 0x20 ADD JUMPDEST PUSH1 0x40 MLOAD DUP1 SWAP2 SUB SWAP1 LOG1 POP JUMP JUMPDEST PUSH1 0x5 PUSH1 0x20 MSTORE DUP2 PUSH0 MSTORE PUSH1 0x40 PUSH0 KECCAK256 DUP2 DUP2 SLOAD DUP2 LT PUSH2 0x3C0 JUMPI PUSH0 DUP1 REVERT JUMPDEST SWAP1 PUSH0 MSTORE PUSH1 0x20 PUSH0 KECCAK256 ADD PUSH0 SWAP2 POP SWAP2 POP POP SLOAD DUP2 JUMP JUMPDEST PUSH1 0x4 PUSH1 0x20 MSTORE PUSH0 SWAP1 DUP2 MSTORE PUSH1 0x40 SWAP1 KECCAK256 DUP1 SLOAD PUSH1 0x1 DUP3 ADD DUP1 SLOAD PUSH1 0x1 PUSH1 0x1 PUSH1 0xA0 SHL SUB SWAP1 SWAP3 AND SWAP3 SWAP2 PUSH2 0x3FD SWAP1 PUSH2 0x126E JUMP JUMPDEST DUP1 PUSH1 0x1F ADD PUSH1 0x20 DUP1 SWAP2 DIV MUL PUSH1 0x20 ADD PUSH1 0x40 MLOAD SWAP1 DUP2 ADD PUSH1 0x40 MSTORE DUP1 SWAP3 SWAP2 SWAP1 DUP2 DUP2 MSTORE PUSH1 0x20 ADD DUP3 DUP1 SLOAD PUSH2 0x429 SWAP1 PUSH2 0x126E JUMP JUMPDEST DUP1 ISZERO PUSH2 0x474 JUMPI DUP1 PUSH1 0x1F LT PUSH2 0x44B JUMPI PUSH2 0x100 DUP1 DUP4 SLOAD DIV MUL DUP4 MSTORE SWAP2 PUSH1 0x20 ADD SWAP2 PUSH2 0x474 JUMP JUMPDEST DUP3 ADD SWAP2 SWAP1 PUSH0 MSTORE PUSH1 0x20 PUSH0 KECCAK256 SWAP1 JUMPDEST DUP2 SLOAD DUP2 MSTORE SWAP1 PUSH1 0x1 ADD SWAP1 PUSH1 0x20 ADD DUP1 DUP4 GT PUSH2 0x457 JUMPI DUP3 SWAP1 SUB PUSH1 0x1F AND DUP3 ADD SWAP2 JUMPDEST POP POP POP PUSH1 0x2 SWAP1 SWAP4 ADD SLOAD SWAP2 SWAP3 POP POP PUSH1 0xFF AND DUP4 JUMP JUMPDEST PUSH0 SLOAD PUSH1 0x1 PUSH1 0x1 PUSH1 0xA0 SHL SUB AND ISZERO PUSH2 0x4D5 JUMPI PUSH1 0x40 MLOAD PUSH3 0x461BCD PUSH1 0xE5 SHL DUP2 MSTORE PUSH1 0x20 PUSH1 0x4 DUP3 ADD MSTORE PUSH1 0x13 PUSH1 0x24 DUP3 ADD MSTORE PUSH19 0x105B1C9958591E481A5B9A5D1A585B1A5E9959 PUSH1 0x6A SHL PUSH1 0x44 DUP3 ADD MSTORE PUSH1 0x64 ADD PUSH2 0x362 JUMP JUMPDEST PUSH1 0x1 PUSH1 0x1 PUSH1 0xA0 SHL SUB DUP5 AND PUSH2 0x519 JUMPI PUSH1 0x40 MLOAD PUSH3 0x461BCD PUSH1 0xE5 SHL DUP2 MSTORE PUSH1 0x20 PUSH1 0x4 DUP3 ADD MSTORE PUSH1 0xB PUSH1 0x24 DUP3 ADD MSTORE PUSH11 0x496E76616C69642044414F PUSH1 0xA8 SHL PUSH1 0x44 DUP3 ADD MSTORE PUSH1 0x64 ADD PUSH2 0x362 JUMP JUMPDEST PUSH1 0x1 PUSH1 0x1 PUSH1 0xA0 SHL SUB DUP4 AND PUSH2 0x564 JUMPI PUSH1 0x40 MLOAD PUSH3 0x461BCD PUSH1 0xE5 SHL DUP2 MSTORE PUSH1 0x20 PUSH1 0x4 DUP3 ADD MSTORE PUSH1 0x12 PUSH1 0x24 DUP3 ADD MSTORE PUSH18 0x125B9D985B1A590819195D881DD85B1B195D PUSH1 0x72 SHL PUSH1 0x44 DUP3 ADD MSTORE PUSH1 0x64 ADD PUSH2 0x362 JUMP JUMPDEST PUSH1 0x1 PUSH1 0x1 PUSH1 0xA0 SHL SUB DUP3 AND PUSH2 0x5AF JUMPI PUSH1 0x40 MLOAD PUSH3 0x461BCD PUSH1 0xE5 SHL DUP2 MSTORE PUSH1 0x20 PUSH1 0x4 DUP3 ADD MSTORE PUSH1 0x12 PUSH1 0x24 DUP3 ADD MSTORE PUSH18 0x24B73B30B634B210292422A6903A37B5B2B7 PUSH1 0x71 SHL PUSH1 0x44 DUP3 ADD MSTORE PUSH1 0x64 ADD PUSH2 0x362 JUMP JUMPDEST PUSH0 DUP1 SLOAD PUSH1 0x1 PUSH1 0x1 PUSH1 0xA0 SHL SUB SWAP6 DUP7 AND PUSH1 0x1 PUSH1 0x1 PUSH1 0xA0 SHL SUB NOT SWAP2 DUP3 AND OR SWAP1 SWAP2 SSTORE PUSH1 0x1 DUP1 SLOAD SWAP5 DUP7 AND SWAP5 DUP3 AND SWAP5 SWAP1 SWAP5 OR SWAP1 SWAP4 SSTORE PUSH1 0x3 DUP1 SLOAD SWAP3 DUP6 AND SWAP3 DUP5 AND SWAP3 SWAP1 SWAP3 OR SWAP1 SWAP2 SSTORE PUSH1 0x2 DUP1 SLOAD SWAP2 SWAP1 SWAP4 AND SWAP2 AND OR SWAP1 SSTORE JUMP JUMPDEST PUSH0 DUP2 DUP2 MSTORE PUSH1 0x6 PUSH1 0x20 SWAP1 DUP2 MSTORE PUSH1 0x40 SWAP2 DUP3 SWAP1 KECCAK256 DUP3 MLOAD PUSH1 0x60 DUP2 ADD DUP5 MSTORE DUP2 SLOAD DUP2 MSTORE PUSH1 0x1 SWAP1 SWAP2 ADD SLOAD PUSH1 0x1 PUSH1 0x1 PUSH1 0xA0 SHL SUB DUP2 AND SWAP3 DUP3 ADD SWAP3 SWAP1 SWAP3 MSTORE PUSH1 0x1 PUSH1 0xA0 SHL SWAP1 SWAP2 DIV PUSH1 0xFF AND ISZERO ISZERO SWAP2 DUP2 ADD DUP3 SWAP1 MSTORE SWAP1 PUSH2 0x67F JUMPI PUSH1 0x40 MLOAD PUSH3 0x461BCD PUSH1 0xE5 SHL DUP2 MSTORE PUSH1 0x20 PUSH1 0x4 DUP3 ADD MSTORE PUSH1 0xA PUSH1 0x24 DUP3 ADD MSTORE PUSH10 0x139BDD081B1A5CDD1959 PUSH1 0xB2 SHL PUSH1 0x44 DUP3 ADD MSTORE PUSH1 0x64 ADD PUSH2 0x362 JUMP JUMPDEST DUP1 MLOAD PUSH0 PUSH2 0x2710 PUSH2 0x690 DUP4 PUSH1 0x32 PUSH2 0x12BA JUMP JUMPDEST PUSH2 0x69A SWAP2 SWAP1 PUSH2 0x12D7 JUMP JUMPDEST SWAP1 POP PUSH0 PUSH2 0x2710 PUSH2 0x6AB DUP5 PUSH1 0x19 PUSH2 0x12BA JUMP JUMPDEST PUSH2 0x6B5 SWAP2 SWAP1 PUSH2 0x12D7 JUMP JUMPDEST SWAP1 POP PUSH0 DUP2 PUSH2 0x6C3 DUP5 DUP7 PUSH2 0x12F6 JUMP JUMPDEST PUSH2 0x6CD SWAP2 SWAP1 PUSH2 0x12F6 JUMP JUMPDEST PUSH1 0x3 SLOAD PUSH1 0x40 MLOAD PUSH4 0x23B872DD PUSH1 0xE0 SHL DUP2 MSTORE CALLER PUSH1 0x4 DUP3 ADD MSTORE ADDRESS PUSH1 0x24 DUP3 ADD MSTORE PUSH1 0x44 DUP2 ADD DUP8 SWAP1 MSTORE SWAP2 SWAP3 POP PUSH1 0x1 PUSH1 0x1 PUSH1 0xA0 SHL SUB AND SWAP1 PUSH4 0x23B872DD SWAP1 PUSH1 0x64 ADD PUSH1 0x20 PUSH1 0x40 MLOAD DUP1 DUP4 SUB DUP2 PUSH0 DUP8 GAS CALL ISZERO DUP1 ISZERO PUSH2 0x722 JUMPI RETURNDATASIZE PUSH0 PUSH0 RETURNDATACOPY RETURNDATASIZE PUSH0 REVERT JUMPDEST POP POP POP POP PUSH1 0x40 MLOAD RETURNDATASIZE PUSH1 0x1F NOT PUSH1 0x1F DUP3 ADD AND DUP3 ADD DUP1 PUSH1 0x40 MSTORE POP DUP2 ADD SWAP1 PUSH2 0x746 SWAP2 SWAP1 PUSH2 0x1309 JUMP JUMPDEST PUSH2 0x783 JUMPI PUSH1 0x40 MLOAD PUSH3 0x461BCD PUSH1 0xE5 SHL DUP2 MSTORE PUSH1 0x20 PUSH1 0x4 DUP3 ADD MSTORE PUSH1 0xE PUSH1 0x24 DUP3 ADD MSTORE PUSH14 0x14185E5B595B9D0819985A5B1959 PUSH1 0x92 SHL PUSH1 0x44 DUP3 ADD MSTORE PUSH1 0x64 ADD PUSH2 0x362 JUMP JUMPDEST PUSH1 0x3 SLOAD PUSH0 DUP8 DUP2 MSTORE PUSH1 0x4 PUSH1 0x20 DUP2 SWAP1 MSTORE PUSH1 0x40 SWAP2 DUP3 SWAP1 KECCAK256 SLOAD SWAP2 MLOAD PUSH4 0xA9059CBB PUSH1 0xE0 SHL DUP2 MSTORE PUSH1 0x1 PUSH1 0x1 PUSH1 0xA0 SHL SUB SWAP3 DUP4 AND SWAP2 DUP2 ADD SWAP2 SWAP1 SWAP2 MSTORE PUSH1 0x24 DUP2 ADD DUP5 SWAP1 MSTORE SWAP2 AND SWAP1 PUSH4 0xA9059CBB SWAP1 PUSH1 0x44 ADD PUSH1 0x20 PUSH1 0x40 MLOAD DUP1 DUP4 SUB DUP2 PUSH0 DUP8 GAS CALL ISZERO DUP1 ISZERO PUSH2 0x7E5 JUMPI RETURNDATASIZE PUSH0 PUSH0 RETURNDATACOPY RETURNDATASIZE PUSH0 REVERT JUMPDEST POP POP POP POP PUSH1 0x40 MLOAD RETURNDATASIZE PUSH1 0x1F NOT PUSH1 0x1F DUP3 ADD AND DUP3 ADD DUP1 PUSH1 0x40 MSTORE POP DUP2 ADD SWAP1 PUSH2 0x809 SWAP2 SWAP1 PUSH2 0x1309 JUMP JUMPDEST PUSH2 0x84D JUMPI PUSH1 0x40 MLOAD PUSH3 0x461BCD PUSH1 0xE5 SHL DUP2 MSTORE PUSH1 0x20 PUSH1 0x4 DUP3 ADD MSTORE PUSH1 0x15 PUSH1 0x24 DUP3 ADD MSTORE PUSH21 0x14D95B1B195C881C185E5B595B9D0819985A5B1959 PUSH1 0x5A SHL PUSH1 0x44 DUP3 ADD MSTORE PUSH1 0x64 ADD PUSH2 0x362 JUMP JUMPDEST PUSH1 0x3 SLOAD PUSH1 0x2 SLOAD PUSH1 0x40 MLOAD PUSH4 0xA9059CBB PUSH1 0xE0 SHL DUP2 MSTORE PUSH1 0x1 PUSH1 0x1 PUSH1 0xA0 SHL SUB SWAP2 DUP3 AND PUSH1 0x4 DUP3 ADD MSTORE PUSH1 0x24 DUP2 ADD DUP7 SWAP1 MSTORE SWAP2 AND SWAP1 PUSH4 0xA9059CBB SWAP1 PUSH1 0x44 ADD PUSH1 0x20 PUSH1 0x40 MLOAD DUP1 DUP4 SUB DUP2 PUSH0 DUP8 GAS CALL ISZERO DUP1 ISZERO PUSH2 0x89F JUMPI RETURNDATASIZE PUSH0 PUSH0 RETURNDATACOPY RETURNDATASIZE PUSH0 REVERT JUMPDEST POP POP POP POP PUSH1 0x40 MLOAD RETURNDATASIZE PUSH1 0x1F NOT PUSH1 0x1F DUP3 ADD AND DUP3 ADD DUP1 PUSH1 0x40 MSTORE POP DUP2 ADD SWAP1 PUSH2 0x8C3 SWAP2 SWAP1 PUSH2 0x1309 JUMP JUMPDEST PUSH2 0x8FD JUMPI PUSH1 0x40 MLOAD PUSH3 0x461BCD PUSH1 0xE5 SHL DUP2 MSTORE PUSH1 0x20 PUSH1 0x4 DUP3 ADD MSTORE PUSH1 0xB PUSH1 0x24 DUP3 ADD MSTORE PUSH11 0x109D5C9B8819985A5B1959 PUSH1 0xAA SHL PUSH1 0x44 DUP3 ADD MSTORE PUSH1 0x64 ADD PUSH2 0x362 JUMP JUMPDEST PUSH1 0x3 SLOAD PUSH1 0x1 SLOAD PUSH1 0x40 MLOAD PUSH4 0xA9059CBB PUSH1 0xE0 SHL DUP2 MSTORE PUSH1 0x1 PUSH1 0x1 PUSH1 0xA0 SHL SUB SWAP2 DUP3 AND PUSH1 0x4 DUP3 ADD MSTORE PUSH1 0x24 DUP2 ADD DUP6 SWAP1 MSTORE SWAP2 AND SWAP1 PUSH4 0xA9059CBB SWAP1 PUSH1 0x44 ADD PUSH1 0x20 PUSH1 0x40 MLOAD DUP1 DUP4 SUB DUP2 PUSH0 DUP8 GAS CALL ISZERO DUP1 ISZERO PUSH2 0x94F JUMPI RETURNDATASIZE PUSH0 PUSH0 RETURNDATACOPY RETURNDATASIZE PUSH0 REVERT JUMPDEST POP POP POP POP PUSH1 0x40 MLOAD RETURNDATASIZE PUSH1 0x1F NOT PUSH1 0x1F DUP3 ADD AND DUP3 ADD DUP1 PUSH1 0x40 MSTORE POP DUP2 ADD SWAP1 PUSH2 0x973 SWAP2 SWAP1 PUSH2 0x1309 JUMP JUMPDEST PUSH2 0x9B0 JUMPI PUSH1 0x40 MLOAD PUSH3 0x461BCD PUSH1 0xE5 SHL DUP2 MSTORE PUSH1 0x20 PUSH1 0x4 DUP3 ADD MSTORE PUSH1 0xE PUSH1 0x24 DUP3 ADD MSTORE PUSH14 0x11195D881999594819985A5B1959 PUSH1 0x92 SHL PUSH1 0x44 DUP3 ADD MSTORE PUSH1 0x64 ADD PUSH2 0x362 JUMP JUMPDEST PUSH0 DUP7 DUP2 MSTORE PUSH1 0x4 PUSH1 0x20 MSTORE PUSH1 0x40 SWAP1 KECCAK256 SLOAD PUSH2 0x9D2 SWAP1 PUSH1 0x1 PUSH1 0x1 PUSH1 0xA0 SHL SUB AND CALLER DUP9 PUSH2 0xF8C JUMP JUMPDEST PUSH0 DUP7 DUP2 MSTORE PUSH1 0x4 PUSH1 0x20 SWAP1 DUP2 MSTORE PUSH1 0x40 DUP1 DUP4 KECCAK256 PUSH1 0x2 ADD DUP1 SLOAD PUSH1 0xFF NOT AND SWAP1 SSTORE PUSH1 0x6 DUP3 MSTORE SWAP2 DUP3 SWAP1 KECCAK256 PUSH1 0x1 ADD DUP1 SLOAD PUSH1 0xFF PUSH1 0xA0 SHL NOT AND SWAP1 SSTORE DUP2 MLOAD DUP9 DUP2 MSTORE SWAP1 DUP2 ADD DUP7 SWAP1 MSTORE CALLER SWAP2 PUSH32 0x90C126D08C53E7F57EF4E11EB379AE5BC0E2489EE38EEB36ECFCAEC81FE04021 SWAP2 ADD PUSH1 0x40 MLOAD DUP1 SWAP2 SUB SWAP1 LOG2 POP POP POP POP POP POP JUMP JUMPDEST PUSH0 DUP2 DUP2 MSTORE PUSH1 0x4 PUSH1 0x20 MSTORE PUSH1 0x40 SWAP1 KECCAK256 SLOAD PUSH1 0x1 PUSH1 0x1 PUSH1 0xA0 SHL SUB AND CALLER EQ PUSH2 0xA94 JUMPI PUSH1 0x40 MLOAD PUSH3 0x461BCD PUSH1 0xE5 SHL DUP2 MSTORE PUSH1 0x20 PUSH1 0x4 DUP3 ADD MSTORE PUSH1 0x9 PUSH1 0x24 DUP3 ADD MSTORE PUSH9 0x2737BA1037BBB732B9 PUSH1 0xB9 SHL PUSH1 0x44 DUP3 ADD MSTORE PUSH1 0x64 ADD PUSH2 0x362 JUMP JUMPDEST PUSH0 DUP2 DUP2 MSTORE PUSH1 0x7 PUSH1 0x20 MSTORE PUSH1 0x40 SWAP1 KECCAK256 SLOAD PUSH1 0xFF AND ISZERO PUSH2 0xAE3 JUMPI PUSH1 0x40 MLOAD PUSH3 0x461BCD PUSH1 0xE5 SHL DUP2 MSTORE PUSH1 0x20 PUSH1 0x4 DUP3 ADD MSTORE PUSH1 0xE PUSH1 0x24 DUP3 ADD MSTORE PUSH14 0x105B1C9958591E481CDD185AD959 PUSH1 0x92 SHL PUSH1 0x44 DUP3 ADD MSTORE PUSH1 0x64 ADD PUSH2 0x362 JUMP JUMPDEST PUSH0 DUP2 DUP2 MSTORE PUSH1 0x7 PUSH1 0x20 SWAP1 DUP2 MSTORE PUSH1 0x40 DUP1 DUP4 KECCAK256 DUP1 SLOAD PUSH1 0xFF NOT AND PUSH1 0x1 SWAP1 DUP2 OR SWAP1 SWAP2 SSTORE CALLER DUP1 DUP6 MSTORE PUSH1 0x8 DUP5 MSTORE DUP3 DUP6 KECCAK256 DUP1 SLOAD SWAP3 DUP4 ADD DUP2 SSTORE DUP6 MSTORE SWAP4 DUP4 SWAP1 KECCAK256 ADD DUP5 SWAP1 SSTORE MLOAD DUP4 DUP2 MSTORE PUSH32 0xCDA5CF38F6592672C7B4A22FF3D50874D1913629BD5FFEDC27B7B40503D60FD SWAP2 ADD JUMPDEST PUSH1 0x40 MLOAD DUP1 SWAP2 SUB SWAP1 LOG2 POP JUMP JUMPDEST PUSH0 DUP3 DUP2 MSTORE PUSH1 0x4 PUSH1 0x20 MSTORE PUSH1 0x40 SWAP1 KECCAK256 SLOAD DUP3 SWAP1 PUSH1 0x1 PUSH1 0x1 PUSH1 0xA0 SHL SUB AND CALLER EQ PUSH2 0xBA7 JUMPI PUSH1 0x40 MLOAD PUSH3 0x461BCD PUSH1 0xE5 SHL DUP2 MSTORE PUSH1 0x20 PUSH1 0x4 DUP3 ADD MSTORE PUSH1 0xD PUSH1 0x24 DUP3 ADD MSTORE PUSH13 0x2737BA103A34329037BBB732B9 PUSH1 0x99 SHL PUSH1 0x44 DUP3 ADD MSTORE PUSH1 0x64 ADD PUSH2 0x362 JUMP JUMPDEST PUSH0 DUP4 DUP2 MSTORE PUSH1 0x4 PUSH1 0x20 MSTORE PUSH1 0x40 SWAP1 KECCAK256 PUSH1 0x2 ADD SLOAD PUSH1 0xFF AND ISZERO PUSH2 0xBF9 JUMPI PUSH1 0x40 MLOAD PUSH3 0x461BCD PUSH1 0xE5 SHL DUP2 MSTORE PUSH1 0x20 PUSH1 0x4 DUP3 ADD MSTORE PUSH1 0xE PUSH1 0x24 DUP3 ADD MSTORE PUSH14 0x105B1C9958591E481B1A5CDD1959 PUSH1 0x92 SHL PUSH1 0x44 DUP3 ADD MSTORE PUSH1 0x64 ADD PUSH2 0x362 JUMP JUMPDEST PUSH0 DUP3 GT PUSH2 0xC3C JUMPI PUSH1 0x40 MLOAD PUSH3 0x461BCD PUSH1 0xE5 SHL DUP2 MSTORE PUSH1 0x20 PUSH1 0x4 DUP3 ADD MSTORE PUSH1 0x11 PUSH1 0x24 DUP3 ADD MSTORE PUSH17 0x5072696365206D757374206265203E203 PUSH1 0x7C SHL PUSH1 0x44 DUP3 ADD MSTORE PUSH1 0x64 ADD PUSH2 0x362 JUMP JUMPDEST PUSH1 0x40 DUP1 MLOAD PUSH1 0x60 DUP2 ADD DUP3 MSTORE DUP4 DUP2 MSTORE CALLER PUSH1 0x20 DUP1 DUP4 ADD DUP3 DUP2 MSTORE PUSH1 0x1 DUP5 DUP7 ADD DUP2 DUP2 MSTORE PUSH0 DUP11 DUP2 MSTORE PUSH1 0x6 DUP6 MSTORE DUP8 DUP2 KECCAK256 SWAP7 MLOAD DUP8 SSTORE SWAP3 MLOAD SWAP6 DUP3 ADD DUP1 SLOAD SWAP2 MLOAD ISZERO ISZERO PUSH1 0x1 PUSH1 0xA0 SHL MUL PUSH1 0x1 PUSH1 0x1 PUSH1 0xA8 SHL SUB NOT SWAP1 SWAP3 AND PUSH1 0x1 PUSH1 0x1 PUSH1 0xA0 SHL SUB SWAP8 SWAP1 SWAP8 AND SWAP7 SWAP1 SWAP7 OR OR SWAP1 SWAP5 SSTORE PUSH1 0x4 SWAP1 SWAP2 MSTORE DUP4 SWAP1 KECCAK256 PUSH1 0x2 ADD DUP1 SLOAD PUSH1 0xFF NOT AND SWAP1 SWAP3 OR SWAP1 SWAP2 SSTORE SWAP1 MLOAD PUSH32 0xBBF44E68296791DF5535457DA734BF1017C4B233A740AF6D7A89B9F1AF4ECB42 SWAP1 PUSH2 0xCEB SWAP1 DUP7 SWAP1 DUP7 SWAP1 SWAP2 DUP3 MSTORE PUSH1 0x20 DUP3 ADD MSTORE PUSH1 0x40 ADD SWAP1 JUMP JUMPDEST PUSH1 0x40 MLOAD DUP1 SWAP2 SUB SWAP1 LOG2 POP POP POP JUMP JUMPDEST PUSH0 DUP2 DUP2 MSTORE PUSH1 0x4 PUSH1 0x20 MSTORE PUSH1 0x40 SWAP1 KECCAK256 SLOAD DUP2 SWAP1 PUSH1 0x1 PUSH1 0x1 PUSH1 0xA0 SHL SUB AND CALLER EQ PUSH2 0xD4F JUMPI PUSH1 0x40 MLOAD PUSH3 0x461BCD PUSH1 0xE5 SHL DUP2 MSTORE PUSH1 0x20 PUSH1 0x4 DUP3 ADD MSTORE PUSH1 0xD PUSH1 0x24 DUP3 ADD MSTORE PUSH13 0x2737BA103A34329037BBB732B9 PUSH1 0x99 SHL PUSH1 0x44 DUP3 ADD MSTORE PUSH1 0x64 ADD PUSH2 0x362 JUMP JUMPDEST PUSH0 DUP3 DUP2 MSTORE PUSH1 0x6 PUSH1 0x20 MSTORE PUSH1 0x40 SWAP1 KECCAK256 PUSH1 0x1 ADD SLOAD PUSH1 0x1 PUSH1 0xA0 SHL SWAP1 DIV PUSH1 0xFF AND PUSH2 0xDA3 JUMPI PUSH1 0x40 MLOAD PUSH3 0x461BCD PUSH1 0xE5 SHL DUP2 MSTORE PUSH1 0x20 PUSH1 0x4 DUP3 ADD MSTORE PUSH1 0xA PUSH1 0x24 DUP3 ADD MSTORE PUSH10 0x139BDD081B1A5CDD1959 PUSH1 0xB2 SHL PUSH1 0x44 DUP3 ADD MSTORE PUSH1 0x64 ADD PUSH2 0x362 JUMP JUMPDEST PUSH0 DUP3 DUP2 MSTORE PUSH1 0x6 PUSH1 0x20 SWAP1 DUP2 MSTORE PUSH1 0x40 DUP1 DUP4 KECCAK256 PUSH1 0x1 ADD DUP1 SLOAD PUSH1 0xFF PUSH1 0xA0 SHL NOT AND SWAP1 SSTORE PUSH1 0x4 DUP3 MSTORE SWAP2 DUP3 SWAP1 KECCAK256 PUSH1 0x2 ADD DUP1 SLOAD PUSH1 0xFF NOT AND SWAP1 SSTORE SWAP1 MLOAD DUP4 DUP2 MSTORE PUSH32 0xCD14EB7EBF273ED59A9FD1CF8651F3F40D9A04355B3511376F0D17B37BA224FF SWAP2 ADD PUSH1 0x40 MLOAD DUP1 SWAP2 SUB SWAP1 LOG1 POP POP JUMP JUMPDEST PUSH1 0x8 PUSH1 0x20 MSTORE DUP2 PUSH0 MSTORE PUSH1 0x40 PUSH0 KECCAK256 DUP2 DUP2 SLOAD DUP2 LT PUSH2 0x3C0 JUMPI PUSH0 DUP1 REVERT JUMPDEST PUSH0 SLOAD PUSH1 0x1 PUSH1 0x1 PUSH1 0xA0 SHL SUB AND CALLER EQ PUSH2 0xE6B JUMPI PUSH1 0x40 MLOAD PUSH3 0x461BCD PUSH1 0xE5 SHL DUP2 MSTORE PUSH1 0x20 PUSH1 0x4 DUP3 ADD MSTORE PUSH1 0xE PUSH1 0x24 DUP3 ADD MSTORE PUSH14 0x139BDD08185D5D1A1BDC9A5E9959 PUSH1 0x92 SHL PUSH1 0x44 DUP3 ADD MSTORE PUSH1 0x64 ADD PUSH2 0x362 JUMP JUMPDEST PUSH1 0xA DUP2 SWAP1 SSTORE PUSH1 0x40 MLOAD DUP2 DUP2 MSTORE PUSH32 0x3129A3F705510D13754B1B445F0C1156BBF9FD8B88927EBFC2A88BC53189A9FA SWAP1 PUSH1 0x20 ADD PUSH2 0x39C JUMP JUMPDEST PUSH0 DUP2 DUP2 MSTORE PUSH1 0x4 PUSH1 0x20 MSTORE PUSH1 0x40 SWAP1 KECCAK256 SLOAD PUSH1 0x1 PUSH1 0x1 PUSH1 0xA0 SHL SUB AND CALLER EQ PUSH2 0xEF1 JUMPI PUSH1 0x40 MLOAD PUSH3 0x461BCD PUSH1 0xE5 SHL DUP2 MSTORE PUSH1 0x20 PUSH1 0x4 DUP3 ADD MSTORE PUSH1 0x9 PUSH1 0x24 DUP3 ADD MSTORE PUSH9 0x2737BA1037BBB732B9 PUSH1 0xB9 SHL PUSH1 0x44 DUP3 ADD MSTORE PUSH1 0x64 ADD PUSH2 0x362 JUMP JUMPDEST PUSH0 DUP2 DUP2 MSTORE PUSH1 0x7 PUSH1 0x20 MSTORE PUSH1 0x40 SWAP1 KECCAK256 SLOAD PUSH1 0xFF AND PUSH2 0xF3B JUMPI PUSH1 0x40 MLOAD PUSH3 0x461BCD PUSH1 0xE5 SHL DUP2 MSTORE PUSH1 0x20 PUSH1 0x4 DUP3 ADD MSTORE PUSH1 0xA PUSH1 0x24 DUP3 ADD MSTORE PUSH10 0x139BDD081CDD185AD959 PUSH1 0xB2 SHL PUSH1 0x44 DUP3 ADD MSTORE PUSH1 0x64 ADD PUSH2 0x362 JUMP JUMPDEST PUSH0 DUP2 DUP2 MSTORE PUSH1 0x7 PUSH1 0x20 MSTORE PUSH1 0x40 SWAP1 KECCAK256 DUP1 SLOAD PUSH1 0xFF NOT AND SWAP1 SSTORE PUSH2 0xF5A CALLER DUP3 PUSH2 0x1096 JUMP JUMPDEST PUSH1 0x40 MLOAD DUP2 DUP2 MSTORE CALLER SWAP1 PUSH32 0x963148346E3C93BB3EB4B4C296E2E13321FF22BF1118C91686CB1BFE4ADCD918 SWAP1 PUSH1 0x20 ADD PUSH2 0xB45 JUMP JUMPDEST PUSH0 DUP2 DUP2 MSTORE PUSH1 0x4 PUSH1 0x20 SWAP1 DUP2 MSTORE PUSH1 0x40 DUP1 DUP4 KECCAK256 DUP1 SLOAD PUSH1 0x1 PUSH1 0x1 PUSH1 0xA0 SHL SUB NOT AND PUSH1 0x1 PUSH1 0x1 PUSH1 0xA0 SHL SUB DUP8 DUP2 AND SWAP2 SWAP1 SWAP2 OR SWAP1 SWAP2 SSTORE DUP7 AND DUP4 MSTORE PUSH1 0x5 SWAP1 SWAP2 MSTORE DUP2 KECCAK256 SWAP1 JUMPDEST DUP2 SLOAD DUP2 LT ISZERO PUSH2 0x1068 JUMPI DUP3 DUP3 DUP3 DUP2 SLOAD DUP2 LT PUSH2 0xFE3 JUMPI PUSH2 0xFE3 PUSH2 0x132F JUMP JUMPDEST SWAP1 PUSH0 MSTORE PUSH1 0x20 PUSH0 KECCAK256 ADD SLOAD SUB PUSH2 0x1060 JUMPI DUP2 SLOAD DUP3 SWAP1 PUSH2 0x1001 SWAP1 PUSH1 0x1 SWAP1 PUSH2 0x12F6 JUMP JUMPDEST DUP2 SLOAD DUP2 LT PUSH2 0x1011 JUMPI PUSH2 0x1011 PUSH2 0x132F JUMP JUMPDEST SWAP1 PUSH0 MSTORE PUSH1 0x20 PUSH0 KECCAK256 ADD SLOAD DUP3 DUP3 DUP2 SLOAD DUP2 LT PUSH2 0x102C JUMPI PUSH2 0x102C PUSH2 0x132F JUMP JUMPDEST SWAP1 PUSH0 MSTORE PUSH1 0x20 PUSH0 KECCAK256 ADD DUP2 SWAP1 SSTORE POP DUP2 DUP1 SLOAD DUP1 PUSH2 0x1048 JUMPI PUSH2 0x1048 PUSH2 0x1343 JUMP JUMPDEST PUSH1 0x1 SWAP1 SUB DUP2 DUP2 SWAP1 PUSH0 MSTORE PUSH1 0x20 PUSH0 KECCAK256 ADD PUSH0 SWAP1 SSTORE SWAP1 SSTORE PUSH2 0x1068 JUMP JUMPDEST PUSH1 0x1 ADD PUSH2 0xFC7 JUMP JUMPDEST POP POP PUSH1 0x1 PUSH1 0x1 PUSH1 0xA0 SHL SUB SWAP1 SWAP2 AND PUSH0 SWAP1 DUP2 MSTORE PUSH1 0x5 PUSH1 0x20 SWAP1 DUP2 MSTORE PUSH1 0x40 DUP3 KECCAK256 DUP1 SLOAD PUSH1 0x1 DUP2 ADD DUP3 SSTORE SWAP1 DUP4 MSTORE SWAP2 KECCAK256 ADD SSTORE POP JUMP JUMPDEST PUSH1 0x1 PUSH1 0x1 PUSH1 0xA0 SHL SUB DUP3 AND PUSH0 SWAP1 DUP2 MSTORE PUSH1 0x8 PUSH1 0x20 MSTORE PUSH1 0x40 DUP2 KECCAK256 SWAP1 JUMPDEST DUP2 SLOAD DUP2 LT ISZERO PUSH2 0x1150 JUMPI DUP3 DUP3 DUP3 DUP2 SLOAD DUP2 LT PUSH2 0x10CB JUMPI PUSH2 0x10CB PUSH2 0x132F JUMP JUMPDEST SWAP1 PUSH0 MSTORE PUSH1 0x20 PUSH0 KECCAK256 ADD SLOAD SUB PUSH2 0x1148 JUMPI DUP2 SLOAD DUP3 SWAP1 PUSH2 0x10E9 SWAP1 PUSH1 0x1 SWAP1 PUSH2 0x12F6 JUMP JUMPDEST DUP2 SLOAD DUP2 LT PUSH2 0x10F9 JUMPI PUSH2 0x10F9 PUSH2 0x132F JUMP JUMPDEST SWAP1 PUSH0 MSTORE PUSH1 0x20 PUSH0 KECCAK256 ADD SLOAD DUP3 DUP3 DUP2 SLOAD DUP2 LT PUSH2 0x1114 JUMPI PUSH2 0x1114 PUSH2 0x132F JUMP JUMPDEST SWAP1 PUSH0 MSTORE PUSH1 0x20 PUSH0 KECCAK256 ADD DUP2 SWAP1 SSTORE POP DUP2 DUP1 SLOAD DUP1 PUSH2 0x1130 JUMPI PUSH2 0x1130 PUSH2 0x1343 JUMP JUMPDEST PUSH1 0x1 SWAP1 SUB DUP2 DUP2 SWAP1 PUSH0 MSTORE PUSH1 0x20 PUSH0 KECCAK256 ADD PUSH0 SWAP1 SSTORE SWAP1 SSTORE PUSH2 0x1150 JUMP JUMPDEST PUSH1 0x1 ADD PUSH2 0x10AF JUMP JUMPDEST POP POP POP POP JUMP JUMPDEST PUSH0 PUSH1 0x20 DUP3 DUP5 SUB SLT ISZERO PUSH2 0x1166 JUMPI PUSH0 PUSH0 REVERT JUMPDEST POP CALLDATALOAD SWAP2 SWAP1 POP JUMP JUMPDEST DUP1 CALLDATALOAD PUSH1 0x1 PUSH1 0x1 PUSH1 0xA0 SHL SUB DUP2 AND DUP2 EQ PUSH2 0x1183 JUMPI PUSH0 PUSH0 REVERT JUMPDEST SWAP2 SWAP1 POP JUMP JUMPDEST PUSH0 PUSH0 PUSH1 0x40 DUP4 DUP6 SUB SLT ISZERO PUSH2 0x1199 JUMPI PUSH0 PUSH0 REVERT JUMPDEST PUSH2 0x11A2 DUP4 PUSH2 0x116D JUMP JUMPDEST SWAP5 PUSH1 0x20 SWAP4 SWAP1 SWAP4 ADD CALLDATALOAD SWAP4 POP POP POP JUMP JUMPDEST PUSH1 0x1 DUP1 PUSH1 0xA0 SHL SUB DUP5 AND DUP2 MSTORE PUSH1 0x60 PUSH1 0x20 DUP3 ADD MSTORE PUSH0 DUP4 MLOAD DUP1 PUSH1 0x60 DUP5 ADD MSTORE DUP1 PUSH1 0x20 DUP7 ADD PUSH1 0x80 DUP6 ADD MCOPY PUSH0 PUSH1 0x80 DUP3 DUP6 ADD ADD MSTORE PUSH1 0x80 PUSH1 0x1F NOT PUSH1 0x1F DUP4 ADD AND DUP5 ADD ADD SWAP2 POP POP DUP3 ISZERO ISZERO PUSH1 0x40 DUP4 ADD MSTORE SWAP5 SWAP4 POP POP POP POP JUMP JUMPDEST PUSH0 PUSH0 PUSH0 PUSH0 PUSH1 0x80 DUP6 DUP8 SUB SLT ISZERO PUSH2 0x1210 JUMPI PUSH0 PUSH0 REVERT JUMPDEST PUSH2 0x1219 DUP6 PUSH2 0x116D JUMP JUMPDEST SWAP4 POP PUSH2 0x1227 PUSH1 0x20 DUP7 ADD PUSH2 0x116D JUMP JUMPDEST SWAP3 POP PUSH2 0x1235 PUSH1 0x40 DUP7 ADD PUSH2 0x116D JUMP JUMPDEST SWAP2 POP PUSH2 0x1243 PUSH1 0x60 DUP7 ADD PUSH2 0x116D JUMP JUMPDEST SWAP1 POP SWAP3 SWAP6 SWAP2 SWAP5 POP SWAP3 POP JUMP JUMPDEST PUSH0 PUSH0 PUSH1 0x40 DUP4 DUP6 SUB SLT ISZERO PUSH2 0x125F JUMPI PUSH0 PUSH0 REVERT JUMPDEST POP POP DUP1 CALLDATALOAD SWAP3 PUSH1 0x20 SWAP1 SWAP2 ADD CALLDATALOAD SWAP2 POP JUMP JUMPDEST PUSH1 0x1 DUP2 DUP2 SHR SWAP1 DUP3 AND DUP1 PUSH2 0x1282 JUMPI PUSH1 0x7F DUP3 AND SWAP2 POP JUMPDEST PUSH1 0x20 DUP3 LT DUP2 SUB PUSH2 0x12A0 JUMPI PUSH4 0x4E487B71 PUSH1 0xE0 SHL PUSH0 MSTORE PUSH1 0x22 PUSH1 0x4 MSTORE PUSH1 0x24 PUSH0 REVERT JUMPDEST POP SWAP2 SWAP1 POP JUMP JUMPDEST PUSH4 0x4E487B71 PUSH1 0xE0 SHL PUSH0 MSTORE PUSH1 0x11 PUSH1 0x4 MSTORE PUSH1 0x24 PUSH0 REVERT JUMPDEST DUP1 DUP3 MUL DUP2 ISZERO DUP3 DUP3 DIV DUP5 EQ OR PUSH2 0x12D1 JUMPI PUSH2 0x12D1 PUSH2 0x12A6 JUMP JUMPDEST SWAP3 SWAP2 POP POP JUMP JUMPDEST PUSH0 DUP3 PUSH2 0x12F1 JUMPI PUSH4 0x4E487B71 PUSH1 0xE0 SHL PUSH0 MSTORE PUSH1 0x12 PUSH1 0x4 MSTORE PUSH1 0x24 PUSH0 REVERT JUMPDEST POP DIV SWAP1 JUMP JUMPDEST DUP2 DUP2 SUB DUP2 DUP2 GT ISZERO PUSH2 0x12D1 JUMPI PUSH2 0x12D1 PUSH2 0x12A6 JUMP JUMPDEST PUSH0 PUSH1 0x20 DUP3 DUP5 SUB SLT ISZERO PUSH2 0x1319 JUMPI PUSH0 PUSH0 REVERT JUMPDEST DUP2 MLOAD DUP1 ISZERO ISZERO DUP2 EQ PUSH2 0x1328 JUMPI PUSH0 PUSH0 REVERT JUMPDEST SWAP4 SWAP3 POP POP POP JUMP JUMPDEST PUSH4 0x4E487B71 PUSH1 0xE0 SHL PUSH0 MSTORE PUSH1 0x32 PUSH1 0x4 MSTORE PUSH1 0x24 PUSH0 REVERT JUMPDEST PUSH4 0x4E487B71 PUSH1 0xE0 SHL PUSH0 MSTORE PUSH1 0x31 PUSH1 0x4 MSTORE PUSH1 0x24 PUSH0 REVERT INVALID LOG2 PUSH5 0x6970667358 0x22 SLT KECCAK256 0xAF 0xB7 PUSH14 0x20B7612AF20DAB77185967BB91CD DUP5 KECCAK256 SWAP12 SWAP10 0x28 GASLIMIT PUSH31 0xED79EFFB4178AD2964736F6C634300081D0033000000000000000000000000 "
		},
		"gasEstimates": {
			"creation": {
				"codeDepositCost": "1001000",
				"executionCost": "1039",
				"totalCost": "1002039"
			},
			"external": {
				"burnAddress()": "2359",
				"buyNFT(uint256)": "infinite",
				"dao()": "2358",
				"devWallet()": "2381",
				"initializeMarketplace(address,address,address,address)": "infinite",
				"listNFT(uint256,uint256)": "77352",
				"listingFee()": "2372",
				"listings(uint256)": "4770",
				"nfts(uint256)": "infinite",
				"ownedNFTs(address,uint256)": "4793",
				"rhemToken()": "2447",
				"saleFee()": "2329",
				"setListingFee(uint256)": "25551",
				"setSaleFee(uint256)": "25604",
				"stakeNFT(uint256)": "76905",
				"stakedNFTs(uint256)": "2491",
				"unlistNFT(uint256)": "54373",
				"unstakeNFT(uint256)": "infinite",
				"userStakes(address,uint256)": "4747"
			},
			"internal": {
				"_removeUserStake(address,uint256)": "infinite",
				"_transferNFT(address,address,uint256)": "infinite"
			}
		},
		"methodIdentifiers": {
			"burnAddress()": "70d5ae05",
			"buyNFT(uint256)": "51ed8288",
			"dao()": "4162169f",
			"devWallet()": "8ea5220f",
			"initializeMarketplace(address,address,address,address)": "46fc852e",
			"listNFT(uint256,uint256)": "94383f14",
			"listingFee()": "6a1b7ecc",
			"listings(uint256)": "de74e57b",
			"nfts(uint256)": "265aa621",
			"ownedNFTs(address,uint256)": "1a72b87d",
			"rhemToken()": "a6d74512",
			"saleFee()": "178021e3",
			"setListingFee(uint256)": "131dbd09",
			"setSaleFee(uint256)": "bdcafc55",
			"stakeNFT(uint256)": "6eb604e0",
			"stakedNFTs(uint256)": "b865749d",
			"unlistNFT(uint256)": "961f0944",
			"unstakeNFT(uint256)": "c1dfa0bb",
			"userStakes(address,uint256)": "b5d5b5fa"
		}
	},
	"abi": [
		{
			"anonymous": false,
			"inputs": [
				{
					"indexed": true,
					"internalType": "address",
					"name": "owner",
					"type": "address"
				},
				{
					"indexed": true,
					"internalType": "address",
					"name": "approved",
					"type": "address"
				},
				{
					"indexed": false,
					"internalType": "uint256",
					"name": "tokenId",
					"type": "uint256"
				}
			],
			"name": "Approval",
			"type": "event"
		},
		{
			"anonymous": false,
			"inputs": [
				{
					"indexed": true,
					"internalType": "address",
					"name": "owner",
					"type": "address"
				},
				{
					"indexed": true,
					"internalType": "address",
					"name": "operator",
					"type": "address"
				},
				{
					"indexed": false,
					"internalType": "bool",
					"name": "approved",
					"type": "bool"
				}
			],
			"name": "ApprovalForAll",
			"type": "event"
		},
		{
			"anonymous": false,
			"inputs": [
				{
					"indexed": false,
					"internalType": "uint256",
					"name": "newFee",
					"type": "uint256"
				}
			],
			"name": "ListingFeeUpdated",
			"type": "event"
		},
		{
			"anonymous": false,
			"inputs": [
				{
					"indexed": true,
					"internalType": "address",
					"name": "owner",
					"type": "address"
				},
				{
					"indexed": false,
					"internalType": "uint256",
					"name": "tokenId",
					"type": "uint256"
				},
				{
					"indexed": false,
					"internalType": "string",
					"name": "tokenURI",
					"type": "string"
				}
			],
			"name": "Minted",
			"type": "event"
		},
		{
			"anonymous": false,
			"inputs": [
				{
					"indexed": true,
					"internalType": "address",
					"name": "owner",
					"type": "address"
				},
				{
					"indexed": false,
					"internalType": "uint256",
					"name": "tokenId",
					"type": "uint256"
				},
				{
					"indexed": false,
					"internalType": "uint256",
					"name": "price",
					"type": "uint256"
				}
			],
			"name": "NFTListed",
			"type": "event"
		},
		{
			"anonymous": false,
			"inputs": [
				{
					"indexed": true,
					"internalType": "address",
					"name": "buyer",
					"type": "address"
				},
				{
					"indexed": false,
					"internalType": "uint256",
					"name": "tokenId",
					"type": "uint256"
				},
				{
					"indexed": false,
					"internalType": "uint256",
					"name": "price",
					"type": "uint256"
				}
			],
			"name": "NFTSold",
			"type": "event"
		},
		{
			"anonymous": false,
			"inputs": [
				{
					"indexed": true,
					"internalType": "address",
					"name": "user",
					"type": "address"
				},
				{
					"indexed": false,
					"internalType": "uint256",
					"name": "tokenId",
					"type": "uint256"
				}
			],
			"name": "NFTStaked",
			"type": "event"
		},
		{
			"anonymous": false,
			"inputs": [
				{
					"indexed": false,
					"internalType": "uint256",
					"name": "tokenId",
					"type": "uint256"
				}
			],
			"name": "NFTUnlisted",
			"type": "event"
		},
		{
			"anonymous": false,
			"inputs": [
				{
					"indexed": true,
					"internalType": "address",
					"name": "user",
					"type": "address"
				},
				{
					"indexed": false,
					"internalType": "uint256",
					"name": "tokenId",
					"type": "uint256"
				}
			],
			"name": "NFTUnstaked",
			"type": "event"
		},
		{
			"anonymous": false,
			"inputs": [
				{
					"indexed": false,
					"internalType": "uint256",
					"name": "newFee",
					"type": "uint256"
				}
			],
			"name": "SaleFeeUpdated",
			"type": "event"
		},
		{
			"inputs": [],
			"name": "burnAddress",
			"outputs": [
				{
					"internalType": "address",
					"name": "",
					"type": "address"
				}
			],
			"stateMutability": "view",
			"type": "function"
		},
		{
			"inputs": [
				{
					"internalType": "uint256",
					"name": "tokenId",
					"type": "uint256"
				}
			],
			"name": "buyNFT",
			"outputs": [],
			"stateMutability": "nonpayable",
			"type": "function"
		},
		{
			"inputs": [],
			"name": "dao",
			"outputs": [
				{
					"internalType": "address",
					"name": "",
					"type": "address"
				}
			],
			"stateMutability": "view",
			"type": "function"
		},
		{
			"inputs": [],
			"name": "devWallet",
			"outputs": [
				{
					"internalType": "address",
					"name": "",
					"type": "address"
				}
			],
			"stateMutability": "view",
			"type": "function"
		},
		{
			"inputs": [
				{
					"internalType": "address",
					"name": "_dao",
					"type": "address"
				},
				{
					"internalType": "address",
					"name": "_devWallet",
					"type": "address"
				},
				{
					"internalType": "address",
					"name": "_rhemToken",
					"type": "address"
				},
				{
					"internalType": "address",
					"name": "_burnAddress",
					"type": "address"
				}
			],
			"name": "initializeMarketplace",
			"outputs": [],
			"stateMutability": "nonpayable",
			"type": "function"
		},
		{
			"inputs": [
				{
					"internalType": "uint256",
					"name": "tokenId",
					"type": "uint256"
				},
				{
					"internalType": "uint256",
					"name": "price",
					"type": "uint256"
				}
			],
			"name": "listNFT",
			"outputs": [],
			"stateMutability": "nonpayable",
			"type": "function"
		},
		{
			"inputs": [],
			"name": "listingFee",
			"outputs": [
				{
					"internalType": "uint256",
					"name": "",
					"type": "uint256"
				}
			],
			"stateMutability": "view",
			"type": "function"
		},
		{
			"inputs": [
				{
					"internalType": "uint256",
					"name": "",
					"type": "uint256"
				}
			],
			"name": "listings",
			"outputs": [
				{
					"internalType": "uint256",
					"name": "price",
					"type": "uint256"
				},
				{
					"internalType": "address",
					"name": "owner",
					"type": "address"
				},
				{
					"internalType": "bool",
					"name": "listed",
					"type": "bool"
				}
			],
			"stateMutability": "view",
			"type": "function"
		},
		{
			"inputs": [
				{
					"internalType": "uint256",
					"name": "",
					"type": "uint256"
				}
			],
			"name": "nfts",
			"outputs": [
				{
					"internalType": "address",
					"name": "owner",
					"type": "address"
				},
				{
					"internalType": "string",
					"name": "tokenURI",
					"type": "string"
				},
				{
					"internalType": "bool",
					"name": "listed",
					"type": "bool"
				}
			],
			"stateMutability": "view",
			"type": "function"
		},
		{
			"inputs": [
				{
					"internalType": "address",
					"name": "",
					"type": "address"
				},
				{
					"internalType": "uint256",
					"name": "",
					"type": "uint256"
				}
			],
			"name": "ownedNFTs",
			"outputs": [
				{
					"internalType": "uint256",
					"name": "",
					"type": "uint256"
				}
			],
			"stateMutability": "view",
			"type": "function"
		},
		{
			"inputs": [],
			"name": "rhemToken",
			"outputs": [
				{
					"internalType": "contract IERC20",
					"name": "",
					"type": "address"
				}
			],
			"stateMutability": "view",
			"type": "function"
		},
		{
			"inputs": [],
			"name": "saleFee",
			"outputs": [
				{
					"internalType": "uint256",
					"name": "",
					"type": "uint256"
				}
			],
			"stateMutability": "view",
			"type": "function"
		},
		{
			"inputs": [
				{
					"internalType": "uint256",
					"name": "_fee",
					"type": "uint256"
				}
			],
			"name": "setListingFee",
			"outputs": [],
			"stateMutability": "nonpayable",
			"type": "function"
		},
		{
			"inputs": [
				{
					"internalType": "uint256",
					"name": "_fee",
					"type": "uint256"
				}
			],
			"name": "setSaleFee",
			"outputs": [],
			"stateMutability": "nonpayable",
			"type": "function"
		},
		{
			"inputs": [
				{
					"internalType": "uint256",
					"name": "tokenId",
					"type": "uint256"
				}
			],
			"name": "stakeNFT",
			"outputs": [],
			"stateMutability": "nonpayable",
			"type": "function"
		},
		{
			"inputs": [
				{
					"internalType": "uint256",
					"name": "",
					"type": "uint256"
				}
			],
			"name": "stakedNFTs",
			"outputs": [
				{
					"internalType": "bool",
					"name": "",
					"type": "bool"
				}
			],
			"stateMutability": "view",
			"type": "function"
		},
		{
			"inputs": [
				{
					"internalType": "uint256",
					"name": "tokenId",
					"type": "uint256"
				}
			],
			"name": "unlistNFT",
			"outputs": [],
			"stateMutability": "nonpayable",
			"type": "function"
		},
		{
			"inputs": [
				{
					"internalType": "uint256",
					"name": "tokenId",
					"type": "uint256"
				}
			],
			"name": "unstakeNFT",
			"outputs": [],
			"stateMutability": "nonpayable",
			"type": "function"
		},
		{
			"inputs": [
				{
					"internalType": "address",
					"name": "",
					"type": "address"
				},
				{
					"internalType": "uint256",
					"name": "",
					"type": "uint256"
				}
			],
			"name": "userStakes",
			"outputs": [
				{
					"internalType": "uint256",
					"name": "",
					"type": "uint256"
				}
			],
			"stateMutability": "view",
			"type": "function"
		}
	]
}