{
	"data": {
		"bytecode": {
			"linkReferences": {},
			"object": "608060405234801561000f575f5ffd5b50604051610e8f380380610e8f83398101604081905261002e91610136565b6001600160a01b0384161580159061004e57506001600160a01b03831615155b801561006257506001600160a01b03821615155b801561007657506001600160a01b03811615155b6100b85760405162461bcd60e51b815260206004820152600f60248201526e496e76616c6964206164647265737360881b604482015260640160405180910390fd5b5f80546001600160a01b039586166001600160a01b0319918216179091556001805494861694821694909417909355600280549285169284169290921790915560038054919093169116179055670de0b6b3a7640000600455604b600555610187565b80516001600160a01b0381168114610131575f5ffd5b919050565b5f5f5f5f60808587031215610149575f5ffd5b6101528561011b565b93506101606020860161011b565b925061016e6040860161011b565b915061017c6060860161011b565b905092959194509250565b610cfb806101945f395ff3fe608060405234801561000f575f5ffd5b50600436106100cb575f3560e01c80638ea5220f11610088578063a6d7451211610063578063a6d74512146101e4578063d56d229d146101f7578063de74e57b14610209578063fb37e8831461023b575f5ffd5b80638ea5220f146101ab57806394383f14146101be578063961f0944146101d1575f5ffd5b8063107a274a146100cf578063178021e3146101385780634162169f1461014f57806351ed82881461017a5780636a1b7ecc1461018f5780636db7943714610198575b5f5ffd5b6101146100dd366004610b32565b5f90815260066020908152604091829020825180840190935280546001600160a01b03168084526001909101549290910182905291565b604080516001600160a01b0390931683526020830191909152015b60405180910390f35b61014160055481565b60405190815260200161012f565b600254610162906001600160a01b031681565b6040516001600160a01b03909116815260200161012f565b61018d610188366004610b32565b61024e565b005b61014160045481565b61018d6101a6366004610b49565b6106d1565b600354610162906001600160a01b031681565b61018d6101cc366004610b49565b61079e565b61018d6101df366004610b32565b6109c7565b600154610162906001600160a01b031681565b5f54610162906001600160a01b031681565b610114610217366004610b32565b60066020525f9081526040902080546001909101546001600160a01b039091169082565b61018d610249366004610b69565b610a85565b5f81815260066020908152604091829020825180840190935280546001600160a01b03168352600101549082018190526102bc5760405162461bcd60e51b815260206004820152600a602482015269139bdd081b1a5cdd195960b21b60448201526064015b60405180910390fd5b5f61271060055483602001516102d29190610beb565b6102dc9190610c08565b90505f612710836020015160326102f39190610beb565b6102fd9190610c08565b90505f61030a8284610c27565b90505f83856020015161031d9190610c27565b60015460208701516040516323b872dd60e01b815233600482015230602482015260448101919091529192506001600160a01b0316906323b872dd906064016020604051808303815f875af1158015610378573d5f5f3e3d5ffd5b505050506040513d601f19601f8201168201806040525081019061039c9190610c3a565b6103d95760405162461bcd60e51b815260206004820152600e60248201526d14185e5b595b9d0819985a5b195960921b60448201526064016102b3565b600154855160405163a9059cbb60e01b81526001600160a01b0391821660048201526024810184905291169063a9059cbb906044016020604051808303815f875af115801561042a573d5f5f3e3d5ffd5b505050506040513d601f19601f8201168201806040525081019061044e9190610c3a565b61049a5760405162461bcd60e51b815260206004820152601860248201527f5061796d656e7420746f2073656c6c6572206661696c6564000000000000000060448201526064016102b3565b60015460405163a9059cbb60e01b81525f6004820152602481018590526001600160a01b039091169063a9059cbb906044016020604051808303815f875af11580156104e8573d5f5f3e3d5ffd5b505050506040513d601f19601f8201168201806040525081019061050c9190610c3a565b6105465760405162461bcd60e51b815260206004820152600b60248201526a109d5c9b8819985a5b195960aa1b60448201526064016102b3565b60015460035460405163a9059cbb60e01b81526001600160a01b0391821660048201526024810185905291169063a9059cbb906044016020604051808303815f875af1158015610598573d5f5f3e3d5ffd5b505050506040513d601f19601f820116820180604052508101906105bc9190610c3a565b6105f95760405162461bcd60e51b815260206004820152600e60248201526d11195d881999594819985a5b195960921b60448201526064016102b3565b5f548551604051632142170760e11b81526001600160a01b039182166004820152336024820152604481018990529116906342842e0e906064015f604051808303815f87803b15801561064a575f5ffd5b505af115801561065c573d5f5f3e3d5ffd5b5050505f87815260066020908152604080832080546001600160a01b03191681556001019290925587518882015192519283528993506001600160a01b03169133917f84a34755616a04d6e547597ec5933d7ca8cf181bb354026be7e93e147edf0ab7910160405180910390a4505050505050565b6002546001600160a01b031633146107165760405162461bcd60e51b81526020600482015260086024820152674f6e6c792044414f60c01b60448201526064016102b3565b6103e88111156107575760405162461bcd60e51b815260206004820152600c60248201526b546f6f20686967682066656560a01b60448201526064016102b3565b6004829055600581905560408051838152602081018390527f5c6323bf1c2d7aaea2c091a4751c1c87af7f2864650c336507a77d0557af37a1910160405180910390a15050565b5f546040516331a9108f60e11b81526004810184905233916001600160a01b031690636352211e90602401602060405180830381865afa1580156107e4573d5f5f3e3d5ffd5b505050506040513d601f19601f820116820180604052508101906108089190610c60565b6001600160a01b03161461084a5760405162461bcd60e51b81526020600482015260096024820152682737ba1037bbb732b960b91b60448201526064016102b3565b5f81116108895760405162461bcd60e51b815260206004820152600d60248201526c496e76616c696420707269636560981b60448201526064016102b3565b600154600254600480546040516323b872dd60e01b815233928101929092526001600160a01b03928316602483015260448201529116906323b872dd906064016020604051808303815f875af11580156108e5573d5f5f3e3d5ffd5b505050506040513d601f19601f820116820180604052508101906109099190610c3a565b61094a5760405162461bcd60e51b8152602060048201526012602482015271131a5cdd1a5b99c81999594819985a5b195960721b60448201526064016102b3565b6040805180820182523380825260208083018581525f87815260068352859020935184546001600160a01b0319166001600160a01b039091161784555160019093019290925591518381528492917fbbf44e68296791df5535457da734bf1017c4b233a740af6d7a89b9f1af4ecb42910160405180910390a35050565b5f81815260066020908152604091829020825180840190935280546001600160a01b0316808452600190910154918301919091523314610a365760405162461bcd60e51b815260206004820152600a6024820152692737ba1039b2b63632b960b11b60448201526064016102b3565b5f8281526006602052604080822080546001600160a01b031916815560010182905551839133917f8a7922f72dc2a50a632acdde12b7d222aefa2fdb7f3ca1364b419734569d0e809190a35050565b6002546001600160a01b03163314610aca5760405162461bcd60e51b81526020600482015260086024820152674f6e6c792044414f60c01b60448201526064016102b3565b5f5460025460405163d0def52160e01b81526001600160a01b039283169263d0def52192610b019291169086908690600401610c86565b5f604051808303815f87803b158015610b18575f5ffd5b505af1158015610b2a573d5f5f3e3d5ffd5b505050505050565b5f60208284031215610b42575f5ffd5b5035919050565b5f5f60408385031215610b5a575f5ffd5b50508035926020909101359150565b5f5f60208385031215610b7a575f5ffd5b823567ffffffffffffffff811115610b90575f5ffd5b8301601f81018513610ba0575f5ffd5b803567ffffffffffffffff811115610bb6575f5ffd5b856020828401011115610bc7575f5ffd5b6020919091019590945092505050565b634e487b7160e01b5f52601160045260245ffd5b8082028115828204841417610c0257610c02610bd7565b92915050565b5f82610c2257634e487b7160e01b5f52601260045260245ffd5b500490565b81810381811115610c0257610c02610bd7565b5f60208284031215610c4a575f5ffd5b81518015158114610c59575f5ffd5b9392505050565b5f60208284031215610c70575f5ffd5b81516001600160a01b0381168114610c59575f5ffd5b6001600160a01b03841681526040602082018190528101829052818360608301375f818301606090810191909152601f909201601f191601019291505056fea264697066735822122002b1b64cd43cd422c6f48d99326ed749c1cb99b44524b3347d744b5cefd4627164736f6c634300081d0033",
			"opcodes": "PUSH1 0x80 PUSH1 0x40 MSTORE CALLVALUE DUP1 ISZERO PUSH2 0xF JUMPI PUSH0 PUSH0 REVERT JUMPDEST POP PUSH1 0x40 MLOAD PUSH2 0xE8F CODESIZE SUB DUP1 PUSH2 0xE8F DUP4 CODECOPY DUP2 ADD PUSH1 0x40 DUP2 SWAP1 MSTORE PUSH2 0x2E SWAP2 PUSH2 0x136 JUMP JUMPDEST PUSH1 0x1 PUSH1 0x1 PUSH1 0xA0 SHL SUB DUP5 AND ISZERO DUP1 ISZERO SWAP1 PUSH2 0x4E JUMPI POP PUSH1 0x1 PUSH1 0x1 PUSH1 0xA0 SHL SUB DUP4 AND ISZERO ISZERO JUMPDEST DUP1 ISZERO PUSH2 0x62 JUMPI POP PUSH1 0x1 PUSH1 0x1 PUSH1 0xA0 SHL SUB DUP3 AND ISZERO ISZERO JUMPDEST DUP1 ISZERO PUSH2 0x76 JUMPI POP PUSH1 0x1 PUSH1 0x1 PUSH1 0xA0 SHL SUB DUP2 AND ISZERO ISZERO JUMPDEST PUSH2 0xB8 JUMPI PUSH1 0x40 MLOAD PUSH3 0x461BCD PUSH1 0xE5 SHL DUP2 MSTORE PUSH1 0x20 PUSH1 0x4 DUP3 ADD MSTORE PUSH1 0xF PUSH1 0x24 DUP3 ADD MSTORE PUSH15 0x496E76616C69642061646472657373 PUSH1 0x88 SHL PUSH1 0x44 DUP3 ADD MSTORE PUSH1 0x64 ADD PUSH1 0x40 MLOAD DUP1 SWAP2 SUB SWAP1 REVERT JUMPDEST PUSH0 DUP1 SLOAD PUSH1 0x1 PUSH1 0x1 PUSH1 0xA0 SHL SUB SWAP6 DUP7 AND PUSH1 0x1 PUSH1 0x1 PUSH1 0xA0 SHL SUB NOT SWAP2 DUP3 AND OR SWAP1 SWAP2 SSTORE PUSH1 0x1 DUP1 SLOAD SWAP5 DUP7 AND SWAP5 DUP3 AND SWAP5 SWAP1 SWAP5 OR SWAP1 SWAP4 SSTORE PUSH1 0x2 DUP1 SLOAD SWAP3 DUP6 AND SWAP3 DUP5 AND SWAP3 SWAP1 SWAP3 OR SWAP1 SWAP2 SSTORE PUSH1 0x3 DUP1 SLOAD SWAP2 SWAP1 SWAP4 AND SWAP2 AND OR SWAP1 SSTORE PUSH8 0xDE0B6B3A7640000 PUSH1 0x4 SSTORE PUSH1 0x4B PUSH1 0x5 SSTORE PUSH2 0x187 JUMP JUMPDEST DUP1 MLOAD PUSH1 0x1 PUSH1 0x1 PUSH1 0xA0 SHL SUB DUP2 AND DUP2 EQ PUSH2 0x131 JUMPI PUSH0 PUSH0 REVERT JUMPDEST SWAP2 SWAP1 POP JUMP JUMPDEST PUSH0 PUSH0 PUSH0 PUSH0 PUSH1 0x80 DUP6 DUP8 SUB SLT ISZERO PUSH2 0x149 JUMPI PUSH0 PUSH0 REVERT JUMPDEST PUSH2 0x152 DUP6 PUSH2 0x11B JUMP JUMPDEST SWAP4 POP PUSH2 0x160 PUSH1 0x20 DUP7 ADD PUSH2 0x11B JUMP JUMPDEST SWAP3 POP PUSH2 0x16E PUSH1 0x40 DUP7 ADD PUSH2 0x11B JUMP JUMPDEST SWAP2 POP PUSH2 0x17C PUSH1 0x60 DUP7 ADD PUSH2 0x11B JUMP JUMPDEST SWAP1 POP SWAP3 SWAP6 SWAP2 SWAP5 POP SWAP3 POP JUMP JUMPDEST PUSH2 0xCFB DUP1 PUSH2 0x194 PUSH0 CODECOPY PUSH0 RETURN INVALID PUSH1 0x80 PUSH1 0x40 MSTORE CALLVALUE DUP1 ISZERO PUSH2 0xF JUMPI PUSH0 PUSH0 REVERT JUMPDEST POP PUSH1 0x4 CALLDATASIZE LT PUSH2 0xCB JUMPI PUSH0 CALLDATALOAD PUSH1 0xE0 SHR DUP1 PUSH4 0x8EA5220F GT PUSH2 0x88 JUMPI DUP1 PUSH4 0xA6D74512 GT PUSH2 0x63 JUMPI DUP1 PUSH4 0xA6D74512 EQ PUSH2 0x1E4 JUMPI DUP1 PUSH4 0xD56D229D EQ PUSH2 0x1F7 JUMPI DUP1 PUSH4 0xDE74E57B EQ PUSH2 0x209 JUMPI DUP1 PUSH4 0xFB37E883 EQ PUSH2 0x23B JUMPI PUSH0 PUSH0 REVERT JUMPDEST DUP1 PUSH4 0x8EA5220F EQ PUSH2 0x1AB JUMPI DUP1 PUSH4 0x94383F14 EQ PUSH2 0x1BE JUMPI DUP1 PUSH4 0x961F0944 EQ PUSH2 0x1D1 JUMPI PUSH0 PUSH0 REVERT JUMPDEST DUP1 PUSH4 0x107A274A EQ PUSH2 0xCF JUMPI DUP1 PUSH4 0x178021E3 EQ PUSH2 0x138 JUMPI DUP1 PUSH4 0x4162169F EQ PUSH2 0x14F JUMPI DUP1 PUSH4 0x51ED8288 EQ PUSH2 0x17A JUMPI DUP1 PUSH4 0x6A1B7ECC EQ PUSH2 0x18F JUMPI DUP1 PUSH4 0x6DB79437 EQ PUSH2 0x198 JUMPI JUMPDEST PUSH0 PUSH0 REVERT JUMPDEST PUSH2 0x114 PUSH2 0xDD CALLDATASIZE PUSH1 0x4 PUSH2 0xB32 JUMP JUMPDEST PUSH0 SWAP1 DUP2 MSTORE PUSH1 0x6 PUSH1 0x20 SWAP1 DUP2 MSTORE PUSH1 0x40 SWAP2 DUP3 SWAP1 KECCAK256 DUP3 MLOAD DUP1 DUP5 ADD SWAP1 SWAP4 MSTORE DUP1 SLOAD PUSH1 0x1 PUSH1 0x1 PUSH1 0xA0 SHL SUB AND DUP1 DUP5 MSTORE PUSH1 0x1 SWAP1 SWAP2 ADD SLOAD SWAP3 SWAP1 SWAP2 ADD DUP3 SWAP1 MSTORE SWAP2 JUMP JUMPDEST PUSH1 0x40 DUP1 MLOAD PUSH1 0x1 PUSH1 0x1 PUSH1 0xA0 SHL SUB SWAP1 SWAP4 AND DUP4 MSTORE PUSH1 0x20 DUP4 ADD SWAP2 SWAP1 SWAP2 MSTORE ADD JUMPDEST PUSH1 0x40 MLOAD DUP1 SWAP2 SUB SWAP1 RETURN JUMPDEST PUSH2 0x141 PUSH1 0x5 SLOAD DUP2 JUMP JUMPDEST PUSH1 0x40 MLOAD SWAP1 DUP2 MSTORE PUSH1 0x20 ADD PUSH2 0x12F JUMP JUMPDEST PUSH1 0x2 SLOAD PUSH2 0x162 SWAP1 PUSH1 0x1 PUSH1 0x1 PUSH1 0xA0 SHL SUB AND DUP2 JUMP JUMPDEST PUSH1 0x40 MLOAD PUSH1 0x1 PUSH1 0x1 PUSH1 0xA0 SHL SUB SWAP1 SWAP2 AND DUP2 MSTORE PUSH1 0x20 ADD PUSH2 0x12F JUMP JUMPDEST PUSH2 0x18D PUSH2 0x188 CALLDATASIZE PUSH1 0x4 PUSH2 0xB32 JUMP JUMPDEST PUSH2 0x24E JUMP JUMPDEST STOP JUMPDEST PUSH2 0x141 PUSH1 0x4 SLOAD DUP2 JUMP JUMPDEST PUSH2 0x18D PUSH2 0x1A6 CALLDATASIZE PUSH1 0x4 PUSH2 0xB49 JUMP JUMPDEST PUSH2 0x6D1 JUMP JUMPDEST PUSH1 0x3 SLOAD PUSH2 0x162 SWAP1 PUSH1 0x1 PUSH1 0x1 PUSH1 0xA0 SHL SUB AND DUP2 JUMP JUMPDEST PUSH2 0x18D PUSH2 0x1CC CALLDATASIZE PUSH1 0x4 PUSH2 0xB49 JUMP JUMPDEST PUSH2 0x79E JUMP JUMPDEST PUSH2 0x18D PUSH2 0x1DF CALLDATASIZE PUSH1 0x4 PUSH2 0xB32 JUMP JUMPDEST PUSH2 0x9C7 JUMP JUMPDEST PUSH1 0x1 SLOAD PUSH2 0x162 SWAP1 PUSH1 0x1 PUSH1 0x1 PUSH1 0xA0 SHL SUB AND DUP2 JUMP JUMPDEST PUSH0 SLOAD PUSH2 0x162 SWAP1 PUSH1 0x1 PUSH1 0x1 PUSH1 0xA0 SHL SUB AND DUP2 JUMP JUMPDEST PUSH2 0x114 PUSH2 0x217 CALLDATASIZE PUSH1 0x4 PUSH2 0xB32 JUMP JUMPDEST PUSH1 0x6 PUSH1 0x20 MSTORE PUSH0 SWAP1 DUP2 MSTORE PUSH1 0x40 SWAP1 KECCAK256 DUP1 SLOAD PUSH1 0x1 SWAP1 SWAP2 ADD SLOAD PUSH1 0x1 PUSH1 0x1 PUSH1 0xA0 SHL SUB SWAP1 SWAP2 AND SWAP1 DUP3 JUMP JUMPDEST PUSH2 0x18D PUSH2 0x249 CALLDATASIZE PUSH1 0x4 PUSH2 0xB69 JUMP JUMPDEST PUSH2 0xA85 JUMP JUMPDEST PUSH0 DUP2 DUP2 MSTORE PUSH1 0x6 PUSH1 0x20 SWAP1 DUP2 MSTORE PUSH1 0x40 SWAP2 DUP3 SWAP1 KECCAK256 DUP3 MLOAD DUP1 DUP5 ADD SWAP1 SWAP4 MSTORE DUP1 SLOAD PUSH1 0x1 PUSH1 0x1 PUSH1 0xA0 SHL SUB AND DUP4 MSTORE PUSH1 0x1 ADD SLOAD SWAP1 DUP3 ADD DUP2 SWAP1 MSTORE PUSH2 0x2BC JUMPI PUSH1 0x40 MLOAD PUSH3 0x461BCD PUSH1 0xE5 SHL DUP2 MSTORE PUSH1 0x20 PUSH1 0x4 DUP3 ADD MSTORE PUSH1 0xA PUSH1 0x24 DUP3 ADD MSTORE PUSH10 0x139BDD081B1A5CDD1959 PUSH1 0xB2 SHL PUSH1 0x44 DUP3 ADD MSTORE PUSH1 0x64 ADD JUMPDEST PUSH1 0x40 MLOAD DUP1 SWAP2 SUB SWAP1 REVERT JUMPDEST PUSH0 PUSH2 0x2710 PUSH1 0x5 SLOAD DUP4 PUSH1 0x20 ADD MLOAD PUSH2 0x2D2 SWAP2 SWAP1 PUSH2 0xBEB JUMP JUMPDEST PUSH2 0x2DC SWAP2 SWAP1 PUSH2 0xC08 JUMP JUMPDEST SWAP1 POP PUSH0 PUSH2 0x2710 DUP4 PUSH1 0x20 ADD MLOAD PUSH1 0x32 PUSH2 0x2F3 SWAP2 SWAP1 PUSH2 0xBEB JUMP JUMPDEST PUSH2 0x2FD SWAP2 SWAP1 PUSH2 0xC08 JUMP JUMPDEST SWAP1 POP PUSH0 PUSH2 0x30A DUP3 DUP5 PUSH2 0xC27 JUMP JUMPDEST SWAP1 POP PUSH0 DUP4 DUP6 PUSH1 0x20 ADD MLOAD PUSH2 0x31D SWAP2 SWAP1 PUSH2 0xC27 JUMP JUMPDEST PUSH1 0x1 SLOAD PUSH1 0x20 DUP8 ADD MLOAD PUSH1 0x40 MLOAD PUSH4 0x23B872DD PUSH1 0xE0 SHL DUP2 MSTORE CALLER PUSH1 0x4 DUP3 ADD MSTORE ADDRESS PUSH1 0x24 DUP3 ADD MSTORE PUSH1 0x44 DUP2 ADD SWAP2 SWAP1 SWAP2 MSTORE SWAP2 SWAP3 POP PUSH1 0x1 PUSH1 0x1 PUSH1 0xA0 SHL SUB AND SWAP1 PUSH4 0x23B872DD SWAP1 PUSH1 0x64 ADD PUSH1 0x20 PUSH1 0x40 MLOAD DUP1 DUP4 SUB DUP2 PUSH0 DUP8 GAS CALL ISZERO DUP1 ISZERO PUSH2 0x378 JUMPI RETURNDATASIZE PUSH0 PUSH0 RETURNDATACOPY RETURNDATASIZE PUSH0 REVERT JUMPDEST POP POP POP POP PUSH1 0x40 MLOAD RETURNDATASIZE PUSH1 0x1F NOT PUSH1 0x1F DUP3 ADD AND DUP3 ADD DUP1 PUSH1 0x40 MSTORE POP DUP2 ADD SWAP1 PUSH2 0x39C SWAP2 SWAP1 PUSH2 0xC3A JUMP JUMPDEST PUSH2 0x3D9 JUMPI PUSH1 0x40 MLOAD PUSH3 0x461BCD PUSH1 0xE5 SHL DUP2 MSTORE PUSH1 0x20 PUSH1 0x4 DUP3 ADD MSTORE PUSH1 0xE PUSH1 0x24 DUP3 ADD MSTORE PUSH14 0x14185E5B595B9D0819985A5B1959 PUSH1 0x92 SHL PUSH1 0x44 DUP3 ADD MSTORE PUSH1 0x64 ADD PUSH2 0x2B3 JUMP JUMPDEST PUSH1 0x1 SLOAD DUP6 MLOAD PUSH1 0x40 MLOAD PUSH4 0xA9059CBB PUSH1 0xE0 SHL DUP2 MSTORE PUSH1 0x1 PUSH1 0x1 PUSH1 0xA0 SHL SUB SWAP2 DUP3 AND PUSH1 0x4 DUP3 ADD MSTORE PUSH1 0x24 DUP2 ADD DUP5 SWAP1 MSTORE SWAP2 AND SWAP1 PUSH4 0xA9059CBB SWAP1 PUSH1 0x44 ADD PUSH1 0x20 PUSH1 0x40 MLOAD DUP1 DUP4 SUB DUP2 PUSH0 DUP8 GAS CALL ISZERO DUP1 ISZERO PUSH2 0x42A JUMPI RETURNDATASIZE PUSH0 PUSH0 RETURNDATACOPY RETURNDATASIZE PUSH0 REVERT JUMPDEST POP POP POP POP PUSH1 0x40 MLOAD RETURNDATASIZE PUSH1 0x1F NOT PUSH1 0x1F DUP3 ADD AND DUP3 ADD DUP1 PUSH1 0x40 MSTORE POP DUP2 ADD SWAP1 PUSH2 0x44E SWAP2 SWAP1 PUSH2 0xC3A JUMP JUMPDEST PUSH2 0x49A JUMPI PUSH1 0x40 MLOAD PUSH3 0x461BCD PUSH1 0xE5 SHL DUP2 MSTORE PUSH1 0x20 PUSH1 0x4 DUP3 ADD MSTORE PUSH1 0x18 PUSH1 0x24 DUP3 ADD MSTORE PUSH32 0x5061796D656E7420746F2073656C6C6572206661696C65640000000000000000 PUSH1 0x44 DUP3 ADD MSTORE PUSH1 0x64 ADD PUSH2 0x2B3 JUMP JUMPDEST PUSH1 0x1 SLOAD PUSH1 0x40 MLOAD PUSH4 0xA9059CBB PUSH1 0xE0 SHL DUP2 MSTORE PUSH0 PUSH1 0x4 DUP3 ADD MSTORE PUSH1 0x24 DUP2 ADD DUP6 SWAP1 MSTORE PUSH1 0x1 PUSH1 0x1 PUSH1 0xA0 SHL SUB SWAP1 SWAP2 AND SWAP1 PUSH4 0xA9059CBB SWAP1 PUSH1 0x44 ADD PUSH1 0x20 PUSH1 0x40 MLOAD DUP1 DUP4 SUB DUP2 PUSH0 DUP8 GAS CALL ISZERO DUP1 ISZERO PUSH2 0x4E8 JUMPI RETURNDATASIZE PUSH0 PUSH0 RETURNDATACOPY RETURNDATASIZE PUSH0 REVERT JUMPDEST POP POP POP POP PUSH1 0x40 MLOAD RETURNDATASIZE PUSH1 0x1F NOT PUSH1 0x1F DUP3 ADD AND DUP3 ADD DUP1 PUSH1 0x40 MSTORE POP DUP2 ADD SWAP1 PUSH2 0x50C SWAP2 SWAP1 PUSH2 0xC3A JUMP JUMPDEST PUSH2 0x546 JUMPI PUSH1 0x40 MLOAD PUSH3 0x461BCD PUSH1 0xE5 SHL DUP2 MSTORE PUSH1 0x20 PUSH1 0x4 DUP3 ADD MSTORE PUSH1 0xB PUSH1 0x24 DUP3 ADD MSTORE PUSH11 0x109D5C9B8819985A5B1959 PUSH1 0xAA SHL PUSH1 0x44 DUP3 ADD MSTORE PUSH1 0x64 ADD PUSH2 0x2B3 JUMP JUMPDEST PUSH1 0x1 SLOAD PUSH1 0x3 SLOAD PUSH1 0x40 MLOAD PUSH4 0xA9059CBB PUSH1 0xE0 SHL DUP2 MSTORE PUSH1 0x1 PUSH1 0x1 PUSH1 0xA0 SHL SUB SWAP2 DUP3 AND PUSH1 0x4 DUP3 ADD MSTORE PUSH1 0x24 DUP2 ADD DUP6 SWAP1 MSTORE SWAP2 AND SWAP1 PUSH4 0xA9059CBB SWAP1 PUSH1 0x44 ADD PUSH1 0x20 PUSH1 0x40 MLOAD DUP1 DUP4 SUB DUP2 PUSH0 DUP8 GAS CALL ISZERO DUP1 ISZERO PUSH2 0x598 JUMPI RETURNDATASIZE PUSH0 PUSH0 RETURNDATACOPY RETURNDATASIZE PUSH0 REVERT JUMPDEST POP POP POP POP PUSH1 0x40 MLOAD RETURNDATASIZE PUSH1 0x1F NOT PUSH1 0x1F DUP3 ADD AND DUP3 ADD DUP1 PUSH1 0x40 MSTORE POP DUP2 ADD SWAP1 PUSH2 0x5BC SWAP2 SWAP1 PUSH2 0xC3A JUMP JUMPDEST PUSH2 0x5F9 JUMPI PUSH1 0x40 MLOAD PUSH3 0x461BCD PUSH1 0xE5 SHL DUP2 MSTORE PUSH1 0x20 PUSH1 0x4 DUP3 ADD MSTORE PUSH1 0xE PUSH1 0x24 DUP3 ADD MSTORE PUSH14 0x11195D881999594819985A5B1959 PUSH1 0x92 SHL PUSH1 0x44 DUP3 ADD MSTORE PUSH1 0x64 ADD PUSH2 0x2B3 JUMP JUMPDEST PUSH0 SLOAD DUP6 MLOAD PUSH1 0x40 MLOAD PUSH4 0x21421707 PUSH1 0xE1 SHL DUP2 MSTORE PUSH1 0x1 PUSH1 0x1 PUSH1 0xA0 SHL SUB SWAP2 DUP3 AND PUSH1 0x4 DUP3 ADD MSTORE CALLER PUSH1 0x24 DUP3 ADD MSTORE PUSH1 0x44 DUP2 ADD DUP10 SWAP1 MSTORE SWAP2 AND SWAP1 PUSH4 0x42842E0E SWAP1 PUSH1 0x64 ADD PUSH0 PUSH1 0x40 MLOAD DUP1 DUP4 SUB DUP2 PUSH0 DUP8 DUP1 EXTCODESIZE ISZERO DUP1 ISZERO PUSH2 0x64A JUMPI PUSH0 PUSH0 REVERT JUMPDEST POP GAS CALL ISZERO DUP1 ISZERO PUSH2 0x65C JUMPI RETURNDATASIZE PUSH0 PUSH0 RETURNDATACOPY RETURNDATASIZE PUSH0 REVERT JUMPDEST POP POP POP PUSH0 DUP8 DUP2 MSTORE PUSH1 0x6 PUSH1 0x20 SWAP1 DUP2 MSTORE PUSH1 0x40 DUP1 DUP4 KECCAK256 DUP1 SLOAD PUSH1 0x1 PUSH1 0x1 PUSH1 0xA0 SHL SUB NOT AND DUP2 SSTORE PUSH1 0x1 ADD SWAP3 SWAP1 SWAP3 SSTORE DUP8 MLOAD DUP9 DUP3 ADD MLOAD SWAP3 MLOAD SWAP3 DUP4 MSTORE DUP10 SWAP4 POP PUSH1 0x1 PUSH1 0x1 PUSH1 0xA0 SHL SUB AND SWAP2 CALLER SWAP2 PUSH32 0x84A34755616A04D6E547597EC5933D7CA8CF181BB354026BE7E93E147EDF0AB7 SWAP2 ADD PUSH1 0x40 MLOAD DUP1 SWAP2 SUB SWAP1 LOG4 POP POP POP POP POP POP JUMP JUMPDEST PUSH1 0x2 SLOAD PUSH1 0x1 PUSH1 0x1 PUSH1 0xA0 SHL SUB AND CALLER EQ PUSH2 0x716 JUMPI PUSH1 0x40 MLOAD PUSH3 0x461BCD PUSH1 0xE5 SHL DUP2 MSTORE PUSH1 0x20 PUSH1 0x4 DUP3 ADD MSTORE PUSH1 0x8 PUSH1 0x24 DUP3 ADD MSTORE PUSH8 0x4F6E6C792044414F PUSH1 0xC0 SHL PUSH1 0x44 DUP3 ADD MSTORE PUSH1 0x64 ADD PUSH2 0x2B3 JUMP JUMPDEST PUSH2 0x3E8 DUP2 GT ISZERO PUSH2 0x757 JUMPI PUSH1 0x40 MLOAD PUSH3 0x461BCD PUSH1 0xE5 SHL DUP2 MSTORE PUSH1 0x20 PUSH1 0x4 DUP3 ADD MSTORE PUSH1 0xC PUSH1 0x24 DUP3 ADD MSTORE PUSH12 0x546F6F206869676820666565 PUSH1 0xA0 SHL PUSH1 0x44 DUP3 ADD MSTORE PUSH1 0x64 ADD PUSH2 0x2B3 JUMP JUMPDEST PUSH1 0x4 DUP3 SWAP1 SSTORE PUSH1 0x5 DUP2 SWAP1 SSTORE PUSH1 0x40 DUP1 MLOAD DUP4 DUP2 MSTORE PUSH1 0x20 DUP2 ADD DUP4 SWAP1 MSTORE PUSH32 0x5C6323BF1C2D7AAEA2C091A4751C1C87AF7F2864650C336507A77D0557AF37A1 SWAP2 ADD PUSH1 0x40 MLOAD DUP1 SWAP2 SUB SWAP1 LOG1 POP POP JUMP JUMPDEST PUSH0 SLOAD PUSH1 0x40 MLOAD PUSH4 0x31A9108F PUSH1 0xE1 SHL DUP2 MSTORE PUSH1 0x4 DUP2 ADD DUP5 SWAP1 MSTORE CALLER SWAP2 PUSH1 0x1 PUSH1 0x1 PUSH1 0xA0 SHL SUB AND SWAP1 PUSH4 0x6352211E SWAP1 PUSH1 0x24 ADD PUSH1 0x20 PUSH1 0x40 MLOAD DUP1 DUP4 SUB DUP2 DUP7 GAS STATICCALL ISZERO DUP1 ISZERO PUSH2 0x7E4 JUMPI RETURNDATASIZE PUSH0 PUSH0 RETURNDATACOPY RETURNDATASIZE PUSH0 REVERT JUMPDEST POP POP POP POP PUSH1 0x40 MLOAD RETURNDATASIZE PUSH1 0x1F NOT PUSH1 0x1F DUP3 ADD AND DUP3 ADD DUP1 PUSH1 0x40 MSTORE POP DUP2 ADD SWAP1 PUSH2 0x808 SWAP2 SWAP1 PUSH2 0xC60 JUMP JUMPDEST PUSH1 0x1 PUSH1 0x1 PUSH1 0xA0 SHL SUB AND EQ PUSH2 0x84A JUMPI PUSH1 0x40 MLOAD PUSH3 0x461BCD PUSH1 0xE5 SHL DUP2 MSTORE PUSH1 0x20 PUSH1 0x4 DUP3 ADD MSTORE PUSH1 0x9 PUSH1 0x24 DUP3 ADD MSTORE PUSH9 0x2737BA1037BBB732B9 PUSH1 0xB9 SHL PUSH1 0x44 DUP3 ADD MSTORE PUSH1 0x64 ADD PUSH2 0x2B3 JUMP JUMPDEST PUSH0 DUP2 GT PUSH2 0x889 JUMPI PUSH1 0x40 MLOAD PUSH3 0x461BCD PUSH1 0xE5 SHL DUP2 MSTORE PUSH1 0x20 PUSH1 0x4 DUP3 ADD MSTORE PUSH1 0xD PUSH1 0x24 DUP3 ADD MSTORE PUSH13 0x496E76616C6964207072696365 PUSH1 0x98 SHL PUSH1 0x44 DUP3 ADD MSTORE PUSH1 0x64 ADD PUSH2 0x2B3 JUMP JUMPDEST PUSH1 0x1 SLOAD PUSH1 0x2 SLOAD PUSH1 0x4 DUP1 SLOAD PUSH1 0x40 MLOAD PUSH4 0x23B872DD PUSH1 0xE0 SHL DUP2 MSTORE CALLER SWAP3 DUP2 ADD SWAP3 SWAP1 SWAP3 MSTORE PUSH1 0x1 PUSH1 0x1 PUSH1 0xA0 SHL SUB SWAP3 DUP4 AND PUSH1 0x24 DUP4 ADD MSTORE PUSH1 0x44 DUP3 ADD MSTORE SWAP2 AND SWAP1 PUSH4 0x23B872DD SWAP1 PUSH1 0x64 ADD PUSH1 0x20 PUSH1 0x40 MLOAD DUP1 DUP4 SUB DUP2 PUSH0 DUP8 GAS CALL ISZERO DUP1 ISZERO PUSH2 0x8E5 JUMPI RETURNDATASIZE PUSH0 PUSH0 RETURNDATACOPY RETURNDATASIZE PUSH0 REVERT JUMPDEST POP POP POP POP PUSH1 0x40 MLOAD RETURNDATASIZE PUSH1 0x1F NOT PUSH1 0x1F DUP3 ADD AND DUP3 ADD DUP1 PUSH1 0x40 MSTORE POP DUP2 ADD SWAP1 PUSH2 0x909 SWAP2 SWAP1 PUSH2 0xC3A JUMP JUMPDEST PUSH2 0x94A JUMPI PUSH1 0x40 MLOAD PUSH3 0x461BCD PUSH1 0xE5 SHL DUP2 MSTORE PUSH1 0x20 PUSH1 0x4 DUP3 ADD MSTORE PUSH1 0x12 PUSH1 0x24 DUP3 ADD MSTORE PUSH18 0x131A5CDD1A5B99C81999594819985A5B1959 PUSH1 0x72 SHL PUSH1 0x44 DUP3 ADD MSTORE PUSH1 0x64 ADD PUSH2 0x2B3 JUMP JUMPDEST PUSH1 0x40 DUP1 MLOAD DUP1 DUP3 ADD DUP3 MSTORE CALLER DUP1 DUP3 MSTORE PUSH1 0x20 DUP1 DUP4 ADD DUP6 DUP2 MSTORE PUSH0 DUP8 DUP2 MSTORE PUSH1 0x6 DUP4 MSTORE DUP6 SWAP1 KECCAK256 SWAP4 MLOAD DUP5 SLOAD PUSH1 0x1 PUSH1 0x1 PUSH1 0xA0 SHL SUB NOT AND PUSH1 0x1 PUSH1 0x1 PUSH1 0xA0 SHL SUB SWAP1 SWAP2 AND OR DUP5 SSTORE MLOAD PUSH1 0x1 SWAP1 SWAP4 ADD SWAP3 SWAP1 SWAP3 SSTORE SWAP2 MLOAD DUP4 DUP2 MSTORE DUP5 SWAP3 SWAP2 PUSH32 0xBBF44E68296791DF5535457DA734BF1017C4B233A740AF6D7A89B9F1AF4ECB42 SWAP2 ADD PUSH1 0x40 MLOAD DUP1 SWAP2 SUB SWAP1 LOG3 POP POP JUMP JUMPDEST PUSH0 DUP2 DUP2 MSTORE PUSH1 0x6 PUSH1 0x20 SWAP1 DUP2 MSTORE PUSH1 0x40 SWAP2 DUP3 SWAP1 KECCAK256 DUP3 MLOAD DUP1 DUP5 ADD SWAP1 SWAP4 MSTORE DUP1 SLOAD PUSH1 0x1 PUSH1 0x1 PUSH1 0xA0 SHL SUB AND DUP1 DUP5 MSTORE PUSH1 0x1 SWAP1 SWAP2 ADD SLOAD SWAP2 DUP4 ADD SWAP2 SWAP1 SWAP2 MSTORE CALLER EQ PUSH2 0xA36 JUMPI PUSH1 0x40 MLOAD PUSH3 0x461BCD PUSH1 0xE5 SHL DUP2 MSTORE PUSH1 0x20 PUSH1 0x4 DUP3 ADD MSTORE PUSH1 0xA PUSH1 0x24 DUP3 ADD MSTORE PUSH10 0x2737BA1039B2B63632B9 PUSH1 0xB1 SHL PUSH1 0x44 DUP3 ADD MSTORE PUSH1 0x64 ADD PUSH2 0x2B3 JUMP JUMPDEST PUSH0 DUP3 DUP2 MSTORE PUSH1 0x6 PUSH1 0x20 MSTORE PUSH1 0x40 DUP1 DUP3 KECCAK256 DUP1 SLOAD PUSH1 0x1 PUSH1 0x1 PUSH1 0xA0 SHL SUB NOT AND DUP2 SSTORE PUSH1 0x1 ADD DUP3 SWAP1 SSTORE MLOAD DUP4 SWAP2 CALLER SWAP2 PUSH32 0x8A7922F72DC2A50A632ACDDE12B7D222AEFA2FDB7F3CA1364B419734569D0E80 SWAP2 SWAP1 LOG3 POP POP JUMP JUMPDEST PUSH1 0x2 SLOAD PUSH1 0x1 PUSH1 0x1 PUSH1 0xA0 SHL SUB AND CALLER EQ PUSH2 0xACA JUMPI PUSH1 0x40 MLOAD PUSH3 0x461BCD PUSH1 0xE5 SHL DUP2 MSTORE PUSH1 0x20 PUSH1 0x4 DUP3 ADD MSTORE PUSH1 0x8 PUSH1 0x24 DUP3 ADD MSTORE PUSH8 0x4F6E6C792044414F PUSH1 0xC0 SHL PUSH1 0x44 DUP3 ADD MSTORE PUSH1 0x64 ADD PUSH2 0x2B3 JUMP JUMPDEST PUSH0 SLOAD PUSH1 0x2 SLOAD PUSH1 0x40 MLOAD PUSH4 0xD0DEF521 PUSH1 0xE0 SHL DUP2 MSTORE PUSH1 0x1 PUSH1 0x1 PUSH1 0xA0 SHL SUB SWAP3 DUP4 AND SWAP3 PUSH4 0xD0DEF521 SWAP3 PUSH2 0xB01 SWAP3 SWAP2 AND SWAP1 DUP7 SWAP1 DUP7 SWAP1 PUSH1 0x4 ADD PUSH2 0xC86 JUMP JUMPDEST PUSH0 PUSH1 0x40 MLOAD DUP1 DUP4 SUB DUP2 PUSH0 DUP8 DUP1 EXTCODESIZE ISZERO DUP1 ISZERO PUSH2 0xB18 JUMPI PUSH0 PUSH0 REVERT JUMPDEST POP GAS CALL ISZERO DUP1 ISZERO PUSH2 0xB2A JUMPI RETURNDATASIZE PUSH0 PUSH0 RETURNDATACOPY RETURNDATASIZE PUSH0 REVERT JUMPDEST POP POP POP POP POP POP JUMP JUMPDEST PUSH0 PUSH1 0x20 DUP3 DUP5 SUB SLT ISZERO PUSH2 0xB42 JUMPI PUSH0 PUSH0 REVERT JUMPDEST POP CALLDATALOAD SWAP2 SWAP1 POP JUMP JUMPDEST PUSH0 PUSH0 PUSH1 0x40 DUP4 DUP6 SUB SLT ISZERO PUSH2 0xB5A JUMPI PUSH0 PUSH0 REVERT JUMPDEST POP POP DUP1 CALLDATALOAD SWAP3 PUSH1 0x20 SWAP1 SWAP2 ADD CALLDATALOAD SWAP2 POP JUMP JUMPDEST PUSH0 PUSH0 PUSH1 0x20 DUP4 DUP6 SUB SLT ISZERO PUSH2 0xB7A JUMPI PUSH0 PUSH0 REVERT JUMPDEST DUP3 CALLDATALOAD PUSH8 0xFFFFFFFFFFFFFFFF DUP2 GT ISZERO PUSH2 0xB90 JUMPI PUSH0 PUSH0 REVERT JUMPDEST DUP4 ADD PUSH1 0x1F DUP2 ADD DUP6 SGT PUSH2 0xBA0 JUMPI PUSH0 PUSH0 REVERT JUMPDEST DUP1 CALLDATALOAD PUSH8 0xFFFFFFFFFFFFFFFF DUP2 GT ISZERO PUSH2 0xBB6 JUMPI PUSH0 PUSH0 REVERT JUMPDEST DUP6 PUSH1 0x20 DUP3 DUP5 ADD ADD GT ISZERO PUSH2 0xBC7 JUMPI PUSH0 PUSH0 REVERT JUMPDEST PUSH1 0x20 SWAP2 SWAP1 SWAP2 ADD SWAP6 SWAP1 SWAP5 POP SWAP3 POP POP POP JUMP JUMPDEST PUSH4 0x4E487B71 PUSH1 0xE0 SHL PUSH0 MSTORE PUSH1 0x11 PUSH1 0x4 MSTORE PUSH1 0x24 PUSH0 REVERT JUMPDEST DUP1 DUP3 MUL DUP2 ISZERO DUP3 DUP3 DIV DUP5 EQ OR PUSH2 0xC02 JUMPI PUSH2 0xC02 PUSH2 0xBD7 JUMP JUMPDEST SWAP3 SWAP2 POP POP JUMP JUMPDEST PUSH0 DUP3 PUSH2 0xC22 JUMPI PUSH4 0x4E487B71 PUSH1 0xE0 SHL PUSH0 MSTORE PUSH1 0x12 PUSH1 0x4 MSTORE PUSH1 0x24 PUSH0 REVERT JUMPDEST POP DIV SWAP1 JUMP JUMPDEST DUP2 DUP2 SUB DUP2 DUP2 GT ISZERO PUSH2 0xC02 JUMPI PUSH2 0xC02 PUSH2 0xBD7 JUMP JUMPDEST PUSH0 PUSH1 0x20 DUP3 DUP5 SUB SLT ISZERO PUSH2 0xC4A JUMPI PUSH0 PUSH0 REVERT JUMPDEST DUP2 MLOAD DUP1 ISZERO ISZERO DUP2 EQ PUSH2 0xC59 JUMPI PUSH0 PUSH0 REVERT JUMPDEST SWAP4 SWAP3 POP POP POP JUMP JUMPDEST PUSH0 PUSH1 0x20 DUP3 DUP5 SUB SLT ISZERO PUSH2 0xC70 JUMPI PUSH0 PUSH0 REVERT JUMPDEST DUP2 MLOAD PUSH1 0x1 PUSH1 0x1 PUSH1 0xA0 SHL SUB DUP2 AND DUP2 EQ PUSH2 0xC59 JUMPI PUSH0 PUSH0 REVERT JUMPDEST PUSH1 0x1 PUSH1 0x1 PUSH1 0xA0 SHL SUB DUP5 AND DUP2 MSTORE PUSH1 0x40 PUSH1 0x20 DUP3 ADD DUP2 SWAP1 MSTORE DUP2 ADD DUP3 SWAP1 MSTORE DUP2 DUP4 PUSH1 0x60 DUP4 ADD CALLDATACOPY PUSH0 DUP2 DUP4 ADD PUSH1 0x60 SWAP1 DUP2 ADD SWAP2 SWAP1 SWAP2 MSTORE PUSH1 0x1F SWAP1 SWAP3 ADD PUSH1 0x1F NOT AND ADD ADD SWAP3 SWAP2 POP POP JUMP INVALID LOG2 PUSH5 0x6970667358 0x22 SLT KECCAK256 MUL 0xB1 0xB6 0x4C 0xD4 EXTCODECOPY 0xD4 0x22 0xC6 DELEGATECALL DUP14 SWAP10 ORIGIN PUSH15 0xD749C1CB99B44524B3347D744B5CEF 0xD4 PUSH3 0x716473 PUSH16 0x6C634300081D00330000000000000000 "
		},
		"gasEstimates": {
			"creation": {
				"codeDepositCost": "664600",
				"executionCost": "infinite",
				"totalCost": "infinite"
			},
			"external": {
				"buyNFT(uint256)": "infinite",
				"dao()": "2381",
				"devWallet()": "2359",
				"getListing(uint256)": "4675",
				"listNFT(uint256,uint256)": "infinite",
				"listingFee()": "2383",
				"listings(uint256)": "4677",
				"mintNFT(string)": "infinite",
				"nftContract()": "2379",
				"rhemToken()": "2358",
				"saleFee()": "2317",
				"unlistNFT(uint256)": "35518",
				"updateFees(uint256,uint256)": "48074"
			}
		},
		"methodIdentifiers": {
			"buyNFT(uint256)": "51ed8288",
			"dao()": "4162169f",
			"devWallet()": "8ea5220f",
			"getListing(uint256)": "107a274a",
			"listNFT(uint256,uint256)": "94383f14",
			"listingFee()": "6a1b7ecc",
			"listings(uint256)": "de74e57b",
			"mintNFT(string)": "fb37e883",
			"nftContract()": "d56d229d",
			"rhemToken()": "a6d74512",
			"saleFee()": "178021e3",
			"unlistNFT(uint256)": "961f0944",
			"updateFees(uint256,uint256)": "6db79437"
		}
	},
	"abi": [
		{
			"inputs": [
				{
					"internalType": "address",
					"name": "_nft",
					"type": "address"
				},
				{
					"internalType": "address",
					"name": "_rhem",
					"type": "address"
				},
				{
					"internalType": "address",
					"name": "_dao",
					"type": "address"
				},
				{
					"internalType": "address",
					"name": "_devWallet",
					"type": "address"
				}
			],
			"stateMutability": "nonpayable",
			"type": "constructor"
		},
		{
			"anonymous": false,
			"inputs": [
				{
					"indexed": false,
					"internalType": "uint256",
					"name": "listingFee",
					"type": "uint256"
				},
				{
					"indexed": false,
					"internalType": "uint256",
					"name": "saleFee",
					"type": "uint256"
				}
			],
			"name": "FeesUpdated",
			"type": "event"
		},
		{
			"anonymous": false,
			"inputs": [
				{
					"indexed": true,
					"internalType": "address",
					"name": "seller",
					"type": "address"
				},
				{
					"indexed": true,
					"internalType": "uint256",
					"name": "tokenId",
					"type": "uint256"
				},
				{
					"indexed": false,
					"internalType": "uint256",
					"name": "price",
					"type": "uint256"
				}
			],
			"name": "NFTListed",
			"type": "event"
		},
		{
			"anonymous": false,
			"inputs": [
				{
					"indexed": true,
					"internalType": "address",
					"name": "buyer",
					"type": "address"
				},
				{
					"indexed": true,
					"internalType": "address",
					"name": "seller",
					"type": "address"
				},
				{
					"indexed": true,
					"internalType": "uint256",
					"name": "tokenId",
					"type": "uint256"
				},
				{
					"indexed": false,
					"internalType": "uint256",
					"name": "price",
					"type": "uint256"
				}
			],
			"name": "NFTPurchased",
			"type": "event"
		},
		{
			"anonymous": false,
			"inputs": [
				{
					"indexed": true,
					"internalType": "address",
					"name": "seller",
					"type": "address"
				},
				{
					"indexed": true,
					"internalType": "uint256",
					"name": "tokenId",
					"type": "uint256"
				}
			],
			"name": "NFTUnlisted",
			"type": "event"
		},
		{
			"inputs": [
				{
					"internalType": "uint256",
					"name": "tokenId",
					"type": "uint256"
				}
			],
			"name": "buyNFT",
			"outputs": [],
			"stateMutability": "nonpayable",
			"type": "function"
		},
		{
			"inputs": [],
			"name": "dao",
			"outputs": [
				{
					"internalType": "address",
					"name": "",
					"type": "address"
				}
			],
			"stateMutability": "view",
			"type": "function"
		},
		{
			"inputs": [],
			"name": "devWallet",
			"outputs": [
				{
					"internalType": "address",
					"name": "",
					"type": "address"
				}
			],
			"stateMutability": "view",
			"type": "function"
		},
		{
			"inputs": [
				{
					"internalType": "uint256",
					"name": "tokenId",
					"type": "uint256"
				}
			],
			"name": "getListing",
			"outputs": [
				{
					"internalType": "address",
					"name": "",
					"type": "address"
				},
				{
					"internalType": "uint256",
					"name": "",
					"type": "uint256"
				}
			],
			"stateMutability": "view",
			"type": "function"
		},
		{
			"inputs": [
				{
					"internalType": "uint256",
					"name": "tokenId",
					"type": "uint256"
				},
				{
					"internalType": "uint256",
					"name": "price",
					"type": "uint256"
				}
			],
			"name": "listNFT",
			"outputs": [],
			"stateMutability": "nonpayable",
			"type": "function"
		},
		{
			"inputs": [],
			"name": "listingFee",
			"outputs": [
				{
					"internalType": "uint256",
					"name": "",
					"type": "uint256"
				}
			],
			"stateMutability": "view",
			"type": "function"
		},
		{
			"inputs": [
				{
					"internalType": "uint256",
					"name": "",
					"type": "uint256"
				}
			],
			"name": "listings",
			"outputs": [
				{
					"internalType": "address",
					"name": "seller",
					"type": "address"
				},
				{
					"internalType": "uint256",
					"name": "price",
					"type": "uint256"
				}
			],
			"stateMutability": "view",
			"type": "function"
		},
		{
			"inputs": [
				{
					"internalType": "string",
					"name": "uri",
					"type": "string"
				}
			],
			"name": "mintNFT",
			"outputs": [],
			"stateMutability": "nonpayable",
			"type": "function"
		},
		{
			"inputs": [],
			"name": "nftContract",
			"outputs": [
				{
					"internalType": "address",
					"name": "",
					"type": "address"
				}
			],
			"stateMutability": "view",
			"type": "function"
		},
		{
			"inputs": [],
			"name": "rhemToken",
			"outputs": [
				{
					"internalType": "address",
					"name": "",
					"type": "address"
				}
			],
			"stateMutability": "view",
			"type": "function"
		},
		{
			"inputs": [],
			"name": "saleFee",
			"outputs": [
				{
					"internalType": "uint256",
					"name": "",
					"type": "uint256"
				}
			],
			"stateMutability": "view",
			"type": "function"
		},
		{
			"inputs": [
				{
					"internalType": "uint256",
					"name": "tokenId",
					"type": "uint256"
				}
			],
			"name": "unlistNFT",
			"outputs": [],
			"stateMutability": "nonpayable",
			"type": "function"
		},
		{
			"inputs": [
				{
					"internalType": "uint256",
					"name": "_listingFee",
					"type": "uint256"
				},
				{
					"internalType": "uint256",
					"name": "_saleFee",
					"type": "uint256"
				}
			],
			"name": "updateFees",
			"outputs": [],
			"stateMutability": "nonpayable",
			"type": "function"
		}
	]
}