{
	"data": {
		"bytecode": {
			"linkReferences": {},
			"object": "6080604052348015600e575f5ffd5b50610c0b8061001c5f395ff3fe608060405234801561000f575f5ffd5b50600436106100b1575f3560e01c8063b172b2221161006e578063b172b2221461012e578063c0c53b8b14610141578063cbdf382c14610154578063e30c397814610167578063f2fde38b14610178578063fc0c546a1461018b575f5ffd5b80631a686502146100b557806351c6590a146100d1578063715018a6146100e657806379ba5097146100ee5780638da5cb5b146100f657806394b918de1461011b575b5f5ffd5b6100be60cc5481565b6040519081526020015b60405180910390f35b6100e46100df366004610a76565b61019e565b005b6100e4610312565b6100e4610325565b6033546001600160a01b03165b6040516001600160a01b0390911681526020016100c8565b6100e4610129366004610a76565b61039c565b60ca54610103906001600160a01b031681565b6100e461014f366004610aa8565b6105d8565b60cb54610103906001600160a01b031681565b6065546001600160a01b0316610103565b6100e4610186366004610ae8565b610830565b60c954610103906001600160a01b031681565b6101a66108a1565b5f81116101fa5760405162461bcd60e51b815260206004820152601d60248201527f416d6f756e74206d7573742062652067726561746572207468616e203000000060448201526064015b60405180910390fd5b60c9546040516323b872dd60e01b8152336004820152306024820152604481018390525f916001600160a01b0316906323b872dd906064016020604051808303815f875af115801561024e573d5f5f3e3d5ffd5b505050506040513d601f19601f820116820180604052508101906102729190610b08565b9050806102b95760405162461bcd60e51b8152602060048201526015602482015274151bdad95b881d1c985b9cd9995c8819985a5b1959605a1b60448201526064016101f1565b8160cc5f8282546102ca9190610b3b565b909155505060405182815233907fc17cea59c2955cb181b03393209566960365771dbba9dc3d510180e7cb3120889060200160405180910390a25061030f6001609755565b50565b61031a610901565b6103235f61095b565b565b60655433906001600160a01b031681146103935760405162461bcd60e51b815260206004820152602960248201527f4f776e61626c6532537465703a2063616c6c6572206973206e6f7420746865206044820152683732bb9037bbb732b960b91b60648201526084016101f1565b61030f8161095b565b6103a46108a1565b5f81116103f35760405162461bcd60e51b815260206004820152601d60248201527f416d6f756e74206d7573742062652067726561746572207468616e203000000060448201526064016101f1565b60c9546040516323b872dd60e01b8152336004820152306024820152604481018390525f916001600160a01b0316906323b872dd906064016020604051808303815f875af1158015610447573d5f5f3e3d5ffd5b505050506040513d601f19601f8201168201806040525081019061046b9190610b08565b9050806104b25760405162461bcd60e51b8152602060048201526015602482015274151bdad95b881d1c985b9cd9995c8819985a5b1959605a1b60448201526064016101f1565b5f60646104c0846063610b54565b6104ca9190610b6b565b60cb5460405163a9059cbb60e01b8152336004820152602481018390529192505f916001600160a01b039091169063a9059cbb906044016020604051808303815f875af115801561051d573d5f5f3e3d5ffd5b505050506040513d601f19601f820116820180604052508101906105419190610b08565b9050806105905760405162461bcd60e51b815260206004820152601a60248201527f506f6f6c20746f6b656e207472616e73666572206661696c656400000000000060448201526064016101f1565b604080518581526020810184905233917f3a9a9f34f5831e9c8ecb66ab3aa308b2ff31eaca434615f6c9cadc656a9af71c910160405180910390a250505061030f6001609755565b5f54610100900460ff16158080156105f657505f54600160ff909116105b8061060f5750303b15801561060f57505f5460ff166001145b6106725760405162461bcd60e51b815260206004820152602e60248201527f496e697469616c697a61626c653a20636f6e747261637420697320616c72656160448201526d191e481a5b9a5d1a585b1a5e995960921b60648201526084016101f1565b5f805460ff191660011790558015610693575f805461ff0019166101001790555b6001600160a01b0384166106e15760405162461bcd60e51b8152602060048201526015602482015274496e76616c696420746f6b656e206164647265737360581b60448201526064016101f1565b6001600160a01b0383166107375760405162461bcd60e51b815260206004820152601a60248201527f496e76616c696420676f7665726e616e6365206164647265737300000000000060448201526064016101f1565b6001600160a01b03821661078d5760405162461bcd60e51b815260206004820152601a60248201527f496e76616c696420706f6f6c20746f6b656e206164647265737300000000000060448201526064016101f1565b610795610974565b61079d6109a2565b60c980546001600160a01b038087166001600160a01b03199283161790925560ca8054868416908316811790915560cb8054938616939092169290921790556107e59061095b565b801561082a575f805461ff0019169055604051600181527f7f26b83ff96e1f2b6a682f133852f6798a09c465da95921460cefb38474024989060200160405180910390a15b50505050565b610838610901565b606580546001600160a01b0383166001600160a01b031990911681179091556108696033546001600160a01b031690565b6001600160a01b03167f38d16b8cac22d99fc7c124b9cd0de2d3fa1faef420bfe791d8c362d765e2270060405160405180910390a350565b6002609754036108f35760405162461bcd60e51b815260206004820152601f60248201527f5265656e7472616e637947756172643a207265656e7472616e742063616c6c0060448201526064016101f1565b6002609755565b6001609755565b6033546001600160a01b031633146103235760405162461bcd60e51b815260206004820181905260248201527f4f776e61626c653a2063616c6c6572206973206e6f7420746865206f776e657260448201526064016101f1565b606580546001600160a01b031916905561030f816109d0565b5f54610100900460ff1661099a5760405162461bcd60e51b81526004016101f190610b8a565b610323610a21565b5f54610100900460ff166109c85760405162461bcd60e51b81526004016101f190610b8a565b610323610a50565b603380546001600160a01b038381166001600160a01b0319831681179093556040519116919082907f8be0079c531659141344cd1fd0a4f28419497f9722a3daafe3b4186f6b6457e0905f90a35050565b5f54610100900460ff16610a475760405162461bcd60e51b81526004016101f190610b8a565b6103233361095b565b5f54610100900460ff166108fa5760405162461bcd60e51b81526004016101f190610b8a565b5f60208284031215610a86575f5ffd5b5035919050565b80356001600160a01b0381168114610aa3575f5ffd5b919050565b5f5f5f60608486031215610aba575f5ffd5b610ac384610a8d565b9250610ad160208501610a8d565b9150610adf60408501610a8d565b90509250925092565b5f60208284031215610af8575f5ffd5b610b0182610a8d565b9392505050565b5f60208284031215610b18575f5ffd5b81518015158114610b01575f5ffd5b634e487b7160e01b5f52601160045260245ffd5b80820180821115610b4e57610b4e610b27565b92915050565b8082028115828204841417610b4e57610b4e610b27565b5f82610b8557634e487b7160e01b5f52601260045260245ffd5b500490565b6020808252602b908201527f496e697469616c697a61626c653a20636f6e7472616374206973206e6f74206960408201526a6e697469616c697a696e6760a81b60608201526080019056fea264697066735822122041bd3ac161cc2d7b08adda1b418a21c82ed473fc2c88cc1dac1e32000f079b6764736f6c634300081d0033",
			"opcodes": "PUSH1 0x80 PUSH1 0x40 MSTORE CALLVALUE DUP1 ISZERO PUSH1 0xE JUMPI PUSH0 PUSH0 REVERT JUMPDEST POP PUSH2 0xC0B DUP1 PUSH2 0x1C PUSH0 CODECOPY PUSH0 RETURN INVALID PUSH1 0x80 PUSH1 0x40 MSTORE CALLVALUE DUP1 ISZERO PUSH2 0xF JUMPI PUSH0 PUSH0 REVERT JUMPDEST POP PUSH1 0x4 CALLDATASIZE LT PUSH2 0xB1 JUMPI PUSH0 CALLDATALOAD PUSH1 0xE0 SHR DUP1 PUSH4 0xB172B222 GT PUSH2 0x6E JUMPI DUP1 PUSH4 0xB172B222 EQ PUSH2 0x12E JUMPI DUP1 PUSH4 0xC0C53B8B EQ PUSH2 0x141 JUMPI DUP1 PUSH4 0xCBDF382C EQ PUSH2 0x154 JUMPI DUP1 PUSH4 0xE30C3978 EQ PUSH2 0x167 JUMPI DUP1 PUSH4 0xF2FDE38B EQ PUSH2 0x178 JUMPI DUP1 PUSH4 0xFC0C546A EQ PUSH2 0x18B JUMPI PUSH0 PUSH0 REVERT JUMPDEST DUP1 PUSH4 0x1A686502 EQ PUSH2 0xB5 JUMPI DUP1 PUSH4 0x51C6590A EQ PUSH2 0xD1 JUMPI DUP1 PUSH4 0x715018A6 EQ PUSH2 0xE6 JUMPI DUP1 PUSH4 0x79BA5097 EQ PUSH2 0xEE JUMPI DUP1 PUSH4 0x8DA5CB5B EQ PUSH2 0xF6 JUMPI DUP1 PUSH4 0x94B918DE EQ PUSH2 0x11B JUMPI JUMPDEST PUSH0 PUSH0 REVERT JUMPDEST PUSH2 0xBE PUSH1 0xCC SLOAD DUP2 JUMP JUMPDEST PUSH1 0x40 MLOAD SWAP1 DUP2 MSTORE PUSH1 0x20 ADD JUMPDEST PUSH1 0x40 MLOAD DUP1 SWAP2 SUB SWAP1 RETURN JUMPDEST PUSH2 0xE4 PUSH2 0xDF CALLDATASIZE PUSH1 0x4 PUSH2 0xA76 JUMP JUMPDEST PUSH2 0x19E JUMP JUMPDEST STOP JUMPDEST PUSH2 0xE4 PUSH2 0x312 JUMP JUMPDEST PUSH2 0xE4 PUSH2 0x325 JUMP JUMPDEST PUSH1 0x33 SLOAD PUSH1 0x1 PUSH1 0x1 PUSH1 0xA0 SHL SUB AND JUMPDEST PUSH1 0x40 MLOAD PUSH1 0x1 PUSH1 0x1 PUSH1 0xA0 SHL SUB SWAP1 SWAP2 AND DUP2 MSTORE PUSH1 0x20 ADD PUSH2 0xC8 JUMP JUMPDEST PUSH2 0xE4 PUSH2 0x129 CALLDATASIZE PUSH1 0x4 PUSH2 0xA76 JUMP JUMPDEST PUSH2 0x39C JUMP JUMPDEST PUSH1 0xCA SLOAD PUSH2 0x103 SWAP1 PUSH1 0x1 PUSH1 0x1 PUSH1 0xA0 SHL SUB AND DUP2 JUMP JUMPDEST PUSH2 0xE4 PUSH2 0x14F CALLDATASIZE PUSH1 0x4 PUSH2 0xAA8 JUMP JUMPDEST PUSH2 0x5D8 JUMP JUMPDEST PUSH1 0xCB SLOAD PUSH2 0x103 SWAP1 PUSH1 0x1 PUSH1 0x1 PUSH1 0xA0 SHL SUB AND DUP2 JUMP JUMPDEST PUSH1 0x65 SLOAD PUSH1 0x1 PUSH1 0x1 PUSH1 0xA0 SHL SUB AND PUSH2 0x103 JUMP JUMPDEST PUSH2 0xE4 PUSH2 0x186 CALLDATASIZE PUSH1 0x4 PUSH2 0xAE8 JUMP JUMPDEST PUSH2 0x830 JUMP JUMPDEST PUSH1 0xC9 SLOAD PUSH2 0x103 SWAP1 PUSH1 0x1 PUSH1 0x1 PUSH1 0xA0 SHL SUB AND DUP2 JUMP JUMPDEST PUSH2 0x1A6 PUSH2 0x8A1 JUMP JUMPDEST PUSH0 DUP2 GT PUSH2 0x1FA JUMPI PUSH1 0x40 MLOAD PUSH3 0x461BCD PUSH1 0xE5 SHL DUP2 MSTORE PUSH1 0x20 PUSH1 0x4 DUP3 ADD MSTORE PUSH1 0x1D PUSH1 0x24 DUP3 ADD MSTORE PUSH32 0x416D6F756E74206D7573742062652067726561746572207468616E2030000000 PUSH1 0x44 DUP3 ADD MSTORE PUSH1 0x64 ADD JUMPDEST PUSH1 0x40 MLOAD DUP1 SWAP2 SUB SWAP1 REVERT JUMPDEST PUSH1 0xC9 SLOAD PUSH1 0x40 MLOAD PUSH4 0x23B872DD PUSH1 0xE0 SHL DUP2 MSTORE CALLER PUSH1 0x4 DUP3 ADD MSTORE ADDRESS PUSH1 0x24 DUP3 ADD MSTORE PUSH1 0x44 DUP2 ADD DUP4 SWAP1 MSTORE PUSH0 SWAP2 PUSH1 0x1 PUSH1 0x1 PUSH1 0xA0 SHL SUB AND SWAP1 PUSH4 0x23B872DD SWAP1 PUSH1 0x64 ADD PUSH1 0x20 PUSH1 0x40 MLOAD DUP1 DUP4 SUB DUP2 PUSH0 DUP8 GAS CALL ISZERO DUP1 ISZERO PUSH2 0x24E JUMPI RETURNDATASIZE PUSH0 PUSH0 RETURNDATACOPY RETURNDATASIZE PUSH0 REVERT JUMPDEST POP POP POP POP PUSH1 0x40 MLOAD RETURNDATASIZE PUSH1 0x1F NOT PUSH1 0x1F DUP3 ADD AND DUP3 ADD DUP1 PUSH1 0x40 MSTORE POP DUP2 ADD SWAP1 PUSH2 0x272 SWAP2 SWAP1 PUSH2 0xB08 JUMP JUMPDEST SWAP1 POP DUP1 PUSH2 0x2B9 JUMPI PUSH1 0x40 MLOAD PUSH3 0x461BCD PUSH1 0xE5 SHL DUP2 MSTORE PUSH1 0x20 PUSH1 0x4 DUP3 ADD MSTORE PUSH1 0x15 PUSH1 0x24 DUP3 ADD MSTORE PUSH21 0x151BDAD95B881D1C985B9CD9995C8819985A5B1959 PUSH1 0x5A SHL PUSH1 0x44 DUP3 ADD MSTORE PUSH1 0x64 ADD PUSH2 0x1F1 JUMP JUMPDEST DUP2 PUSH1 0xCC PUSH0 DUP3 DUP3 SLOAD PUSH2 0x2CA SWAP2 SWAP1 PUSH2 0xB3B JUMP JUMPDEST SWAP1 SWAP2 SSTORE POP POP PUSH1 0x40 MLOAD DUP3 DUP2 MSTORE CALLER SWAP1 PUSH32 0xC17CEA59C2955CB181B03393209566960365771DBBA9DC3D510180E7CB312088 SWAP1 PUSH1 0x20 ADD PUSH1 0x40 MLOAD DUP1 SWAP2 SUB SWAP1 LOG2 POP PUSH2 0x30F PUSH1 0x1 PUSH1 0x97 SSTORE JUMP JUMPDEST POP JUMP JUMPDEST PUSH2 0x31A PUSH2 0x901 JUMP JUMPDEST PUSH2 0x323 PUSH0 PUSH2 0x95B JUMP JUMPDEST JUMP JUMPDEST PUSH1 0x65 SLOAD CALLER SWAP1 PUSH1 0x1 PUSH1 0x1 PUSH1 0xA0 SHL SUB AND DUP2 EQ PUSH2 0x393 JUMPI PUSH1 0x40 MLOAD PUSH3 0x461BCD PUSH1 0xE5 SHL DUP2 MSTORE PUSH1 0x20 PUSH1 0x4 DUP3 ADD MSTORE PUSH1 0x29 PUSH1 0x24 DUP3 ADD MSTORE PUSH32 0x4F776E61626C6532537465703A2063616C6C6572206973206E6F742074686520 PUSH1 0x44 DUP3 ADD MSTORE PUSH9 0x3732BB9037BBB732B9 PUSH1 0xB9 SHL PUSH1 0x64 DUP3 ADD MSTORE PUSH1 0x84 ADD PUSH2 0x1F1 JUMP JUMPDEST PUSH2 0x30F DUP2 PUSH2 0x95B JUMP JUMPDEST PUSH2 0x3A4 PUSH2 0x8A1 JUMP JUMPDEST PUSH0 DUP2 GT PUSH2 0x3F3 JUMPI PUSH1 0x40 MLOAD PUSH3 0x461BCD PUSH1 0xE5 SHL DUP2 MSTORE PUSH1 0x20 PUSH1 0x4 DUP3 ADD MSTORE PUSH1 0x1D PUSH1 0x24 DUP3 ADD MSTORE PUSH32 0x416D6F756E74206D7573742062652067726561746572207468616E2030000000 PUSH1 0x44 DUP3 ADD MSTORE PUSH1 0x64 ADD PUSH2 0x1F1 JUMP JUMPDEST PUSH1 0xC9 SLOAD PUSH1 0x40 MLOAD PUSH4 0x23B872DD PUSH1 0xE0 SHL DUP2 MSTORE CALLER PUSH1 0x4 DUP3 ADD MSTORE ADDRESS PUSH1 0x24 DUP3 ADD MSTORE PUSH1 0x44 DUP2 ADD DUP4 SWAP1 MSTORE PUSH0 SWAP2 PUSH1 0x1 PUSH1 0x1 PUSH1 0xA0 SHL SUB AND SWAP1 PUSH4 0x23B872DD SWAP1 PUSH1 0x64 ADD PUSH1 0x20 PUSH1 0x40 MLOAD DUP1 DUP4 SUB DUP2 PUSH0 DUP8 GAS CALL ISZERO DUP1 ISZERO PUSH2 0x447 JUMPI RETURNDATASIZE PUSH0 PUSH0 RETURNDATACOPY RETURNDATASIZE PUSH0 REVERT JUMPDEST POP POP POP POP PUSH1 0x40 MLOAD RETURNDATASIZE PUSH1 0x1F NOT PUSH1 0x1F DUP3 ADD AND DUP3 ADD DUP1 PUSH1 0x40 MSTORE POP DUP2 ADD SWAP1 PUSH2 0x46B SWAP2 SWAP1 PUSH2 0xB08 JUMP JUMPDEST SWAP1 POP DUP1 PUSH2 0x4B2 JUMPI PUSH1 0x40 MLOAD PUSH3 0x461BCD PUSH1 0xE5 SHL DUP2 MSTORE PUSH1 0x20 PUSH1 0x4 DUP3 ADD MSTORE PUSH1 0x15 PUSH1 0x24 DUP3 ADD MSTORE PUSH21 0x151BDAD95B881D1C985B9CD9995C8819985A5B1959 PUSH1 0x5A SHL PUSH1 0x44 DUP3 ADD MSTORE PUSH1 0x64 ADD PUSH2 0x1F1 JUMP JUMPDEST PUSH0 PUSH1 0x64 PUSH2 0x4C0 DUP5 PUSH1 0x63 PUSH2 0xB54 JUMP JUMPDEST PUSH2 0x4CA SWAP2 SWAP1 PUSH2 0xB6B JUMP JUMPDEST PUSH1 0xCB SLOAD PUSH1 0x40 MLOAD PUSH4 0xA9059CBB PUSH1 0xE0 SHL DUP2 MSTORE CALLER PUSH1 0x4 DUP3 ADD MSTORE PUSH1 0x24 DUP2 ADD DUP4 SWAP1 MSTORE SWAP2 SWAP3 POP PUSH0 SWAP2 PUSH1 0x1 PUSH1 0x1 PUSH1 0xA0 SHL SUB SWAP1 SWAP2 AND SWAP1 PUSH4 0xA9059CBB SWAP1 PUSH1 0x44 ADD PUSH1 0x20 PUSH1 0x40 MLOAD DUP1 DUP4 SUB DUP2 PUSH0 DUP8 GAS CALL ISZERO DUP1 ISZERO PUSH2 0x51D JUMPI RETURNDATASIZE PUSH0 PUSH0 RETURNDATACOPY RETURNDATASIZE PUSH0 REVERT JUMPDEST POP POP POP POP PUSH1 0x40 MLOAD RETURNDATASIZE PUSH1 0x1F NOT PUSH1 0x1F DUP3 ADD AND DUP3 ADD DUP1 PUSH1 0x40 MSTORE POP DUP2 ADD SWAP1 PUSH2 0x541 SWAP2 SWAP1 PUSH2 0xB08 JUMP JUMPDEST SWAP1 POP DUP1 PUSH2 0x590 JUMPI PUSH1 0x40 MLOAD PUSH3 0x461BCD PUSH1 0xE5 SHL DUP2 MSTORE PUSH1 0x20 PUSH1 0x4 DUP3 ADD MSTORE PUSH1 0x1A PUSH1 0x24 DUP3 ADD MSTORE PUSH32 0x506F6F6C20746F6B656E207472616E73666572206661696C6564000000000000 PUSH1 0x44 DUP3 ADD MSTORE PUSH1 0x64 ADD PUSH2 0x1F1 JUMP JUMPDEST PUSH1 0x40 DUP1 MLOAD DUP6 DUP2 MSTORE PUSH1 0x20 DUP2 ADD DUP5 SWAP1 MSTORE CALLER SWAP2 PUSH32 0x3A9A9F34F5831E9C8ECB66AB3AA308B2FF31EACA434615F6C9CADC656A9AF71C SWAP2 ADD PUSH1 0x40 MLOAD DUP1 SWAP2 SUB SWAP1 LOG2 POP POP POP PUSH2 0x30F PUSH1 0x1 PUSH1 0x97 SSTORE JUMP JUMPDEST PUSH0 SLOAD PUSH2 0x100 SWAP1 DIV PUSH1 0xFF AND ISZERO DUP1 DUP1 ISZERO PUSH2 0x5F6 JUMPI POP PUSH0 SLOAD PUSH1 0x1 PUSH1 0xFF SWAP1 SWAP2 AND LT JUMPDEST DUP1 PUSH2 0x60F JUMPI POP ADDRESS EXTCODESIZE ISZERO DUP1 ISZERO PUSH2 0x60F JUMPI POP PUSH0 SLOAD PUSH1 0xFF AND PUSH1 0x1 EQ JUMPDEST PUSH2 0x672 JUMPI PUSH1 0x40 MLOAD PUSH3 0x461BCD PUSH1 0xE5 SHL DUP2 MSTORE PUSH1 0x20 PUSH1 0x4 DUP3 ADD MSTORE PUSH1 0x2E PUSH1 0x24 DUP3 ADD MSTORE PUSH32 0x496E697469616C697A61626C653A20636F6E747261637420697320616C726561 PUSH1 0x44 DUP3 ADD MSTORE PUSH14 0x191E481A5B9A5D1A585B1A5E9959 PUSH1 0x92 SHL PUSH1 0x64 DUP3 ADD MSTORE PUSH1 0x84 ADD PUSH2 0x1F1 JUMP JUMPDEST PUSH0 DUP1 SLOAD PUSH1 0xFF NOT AND PUSH1 0x1 OR SWAP1 SSTORE DUP1 ISZERO PUSH2 0x693 JUMPI PUSH0 DUP1 SLOAD PUSH2 0xFF00 NOT AND PUSH2 0x100 OR SWAP1 SSTORE JUMPDEST PUSH1 0x1 PUSH1 0x1 PUSH1 0xA0 SHL SUB DUP5 AND PUSH2 0x6E1 JUMPI PUSH1 0x40 MLOAD PUSH3 0x461BCD PUSH1 0xE5 SHL DUP2 MSTORE PUSH1 0x20 PUSH1 0x4 DUP3 ADD MSTORE PUSH1 0x15 PUSH1 0x24 DUP3 ADD MSTORE PUSH21 0x496E76616C696420746F6B656E2061646472657373 PUSH1 0x58 SHL PUSH1 0x44 DUP3 ADD MSTORE PUSH1 0x64 ADD PUSH2 0x1F1 JUMP JUMPDEST PUSH1 0x1 PUSH1 0x1 PUSH1 0xA0 SHL SUB DUP4 AND PUSH2 0x737 JUMPI PUSH1 0x40 MLOAD PUSH3 0x461BCD PUSH1 0xE5 SHL DUP2 MSTORE PUSH1 0x20 PUSH1 0x4 DUP3 ADD MSTORE PUSH1 0x1A PUSH1 0x24 DUP3 ADD MSTORE PUSH32 0x496E76616C696420676F7665726E616E63652061646472657373000000000000 PUSH1 0x44 DUP3 ADD MSTORE PUSH1 0x64 ADD PUSH2 0x1F1 JUMP JUMPDEST PUSH1 0x1 PUSH1 0x1 PUSH1 0xA0 SHL SUB DUP3 AND PUSH2 0x78D JUMPI PUSH1 0x40 MLOAD PUSH3 0x461BCD PUSH1 0xE5 SHL DUP2 MSTORE PUSH1 0x20 PUSH1 0x4 DUP3 ADD MSTORE PUSH1 0x1A PUSH1 0x24 DUP3 ADD MSTORE PUSH32 0x496E76616C696420706F6F6C20746F6B656E2061646472657373000000000000 PUSH1 0x44 DUP3 ADD MSTORE PUSH1 0x64 ADD PUSH2 0x1F1 JUMP JUMPDEST PUSH2 0x795 PUSH2 0x974 JUMP JUMPDEST PUSH2 0x79D PUSH2 0x9A2 JUMP JUMPDEST PUSH1 0xC9 DUP1 SLOAD PUSH1 0x1 PUSH1 0x1 PUSH1 0xA0 SHL SUB DUP1 DUP8 AND PUSH1 0x1 PUSH1 0x1 PUSH1 0xA0 SHL SUB NOT SWAP3 DUP4 AND OR SWAP1 SWAP3 SSTORE PUSH1 0xCA DUP1 SLOAD DUP7 DUP5 AND SWAP1 DUP4 AND DUP2 OR SWAP1 SWAP2 SSTORE PUSH1 0xCB DUP1 SLOAD SWAP4 DUP7 AND SWAP4 SWAP1 SWAP3 AND SWAP3 SWAP1 SWAP3 OR SWAP1 SSTORE PUSH2 0x7E5 SWAP1 PUSH2 0x95B JUMP JUMPDEST DUP1 ISZERO PUSH2 0x82A JUMPI PUSH0 DUP1 SLOAD PUSH2 0xFF00 NOT AND SWAP1 SSTORE PUSH1 0x40 MLOAD PUSH1 0x1 DUP2 MSTORE PUSH32 0x7F26B83FF96E1F2B6A682F133852F6798A09C465DA95921460CEFB3847402498 SWAP1 PUSH1 0x20 ADD PUSH1 0x40 MLOAD DUP1 SWAP2 SUB SWAP1 LOG1 JUMPDEST POP POP POP POP JUMP JUMPDEST PUSH2 0x838 PUSH2 0x901 JUMP JUMPDEST PUSH1 0x65 DUP1 SLOAD PUSH1 0x1 PUSH1 0x1 PUSH1 0xA0 SHL SUB DUP4 AND PUSH1 0x1 PUSH1 0x1 PUSH1 0xA0 SHL SUB NOT SWAP1 SWAP2 AND DUP2 OR SWAP1 SWAP2 SSTORE PUSH2 0x869 PUSH1 0x33 SLOAD PUSH1 0x1 PUSH1 0x1 PUSH1 0xA0 SHL SUB AND SWAP1 JUMP JUMPDEST PUSH1 0x1 PUSH1 0x1 PUSH1 0xA0 SHL SUB AND PUSH32 0x38D16B8CAC22D99FC7C124B9CD0DE2D3FA1FAEF420BFE791D8C362D765E22700 PUSH1 0x40 MLOAD PUSH1 0x40 MLOAD DUP1 SWAP2 SUB SWAP1 LOG3 POP JUMP JUMPDEST PUSH1 0x2 PUSH1 0x97 SLOAD SUB PUSH2 0x8F3 JUMPI PUSH1 0x40 MLOAD PUSH3 0x461BCD PUSH1 0xE5 SHL DUP2 MSTORE PUSH1 0x20 PUSH1 0x4 DUP3 ADD MSTORE PUSH1 0x1F PUSH1 0x24 DUP3 ADD MSTORE PUSH32 0x5265656E7472616E637947756172643A207265656E7472616E742063616C6C00 PUSH1 0x44 DUP3 ADD MSTORE PUSH1 0x64 ADD PUSH2 0x1F1 JUMP JUMPDEST PUSH1 0x2 PUSH1 0x97 SSTORE JUMP JUMPDEST PUSH1 0x1 PUSH1 0x97 SSTORE JUMP JUMPDEST PUSH1 0x33 SLOAD PUSH1 0x1 PUSH1 0x1 PUSH1 0xA0 SHL SUB AND CALLER EQ PUSH2 0x323 JUMPI PUSH1 0x40 MLOAD PUSH3 0x461BCD PUSH1 0xE5 SHL DUP2 MSTORE PUSH1 0x20 PUSH1 0x4 DUP3 ADD DUP2 SWAP1 MSTORE PUSH1 0x24 DUP3 ADD MSTORE PUSH32 0x4F776E61626C653A2063616C6C6572206973206E6F7420746865206F776E6572 PUSH1 0x44 DUP3 ADD MSTORE PUSH1 0x64 ADD PUSH2 0x1F1 JUMP JUMPDEST PUSH1 0x65 DUP1 SLOAD PUSH1 0x1 PUSH1 0x1 PUSH1 0xA0 SHL SUB NOT AND SWAP1 SSTORE PUSH2 0x30F DUP2 PUSH2 0x9D0 JUMP JUMPDEST PUSH0 SLOAD PUSH2 0x100 SWAP1 DIV PUSH1 0xFF AND PUSH2 0x99A JUMPI PUSH1 0x40 MLOAD PUSH3 0x461BCD PUSH1 0xE5 SHL DUP2 MSTORE PUSH1 0x4 ADD PUSH2 0x1F1 SWAP1 PUSH2 0xB8A JUMP JUMPDEST PUSH2 0x323 PUSH2 0xA21 JUMP JUMPDEST PUSH0 SLOAD PUSH2 0x100 SWAP1 DIV PUSH1 0xFF AND PUSH2 0x9C8 JUMPI PUSH1 0x40 MLOAD PUSH3 0x461BCD PUSH1 0xE5 SHL DUP2 MSTORE PUSH1 0x4 ADD PUSH2 0x1F1 SWAP1 PUSH2 0xB8A JUMP JUMPDEST PUSH2 0x323 PUSH2 0xA50 JUMP JUMPDEST PUSH1 0x33 DUP1 SLOAD PUSH1 0x1 PUSH1 0x1 PUSH1 0xA0 SHL SUB DUP4 DUP2 AND PUSH1 0x1 PUSH1 0x1 PUSH1 0xA0 SHL SUB NOT DUP4 AND DUP2 OR SWAP1 SWAP4 SSTORE PUSH1 0x40 MLOAD SWAP2 AND SWAP2 SWAP1 DUP3 SWAP1 PUSH32 0x8BE0079C531659141344CD1FD0A4F28419497F9722A3DAAFE3B4186F6B6457E0 SWAP1 PUSH0 SWAP1 LOG3 POP POP JUMP JUMPDEST PUSH0 SLOAD PUSH2 0x100 SWAP1 DIV PUSH1 0xFF AND PUSH2 0xA47 JUMPI PUSH1 0x40 MLOAD PUSH3 0x461BCD PUSH1 0xE5 SHL DUP2 MSTORE PUSH1 0x4 ADD PUSH2 0x1F1 SWAP1 PUSH2 0xB8A JUMP JUMPDEST PUSH2 0x323 CALLER PUSH2 0x95B JUMP JUMPDEST PUSH0 SLOAD PUSH2 0x100 SWAP1 DIV PUSH1 0xFF AND PUSH2 0x8FA JUMPI PUSH1 0x40 MLOAD PUSH3 0x461BCD PUSH1 0xE5 SHL DUP2 MSTORE PUSH1 0x4 ADD PUSH2 0x1F1 SWAP1 PUSH2 0xB8A JUMP JUMPDEST PUSH0 PUSH1 0x20 DUP3 DUP5 SUB SLT ISZERO PUSH2 0xA86 JUMPI PUSH0 PUSH0 REVERT JUMPDEST POP CALLDATALOAD SWAP2 SWAP1 POP JUMP JUMPDEST DUP1 CALLDATALOAD PUSH1 0x1 PUSH1 0x1 PUSH1 0xA0 SHL SUB DUP2 AND DUP2 EQ PUSH2 0xAA3 JUMPI PUSH0 PUSH0 REVERT JUMPDEST SWAP2 SWAP1 POP JUMP JUMPDEST PUSH0 PUSH0 PUSH0 PUSH1 0x60 DUP5 DUP7 SUB SLT ISZERO PUSH2 0xABA JUMPI PUSH0 PUSH0 REVERT JUMPDEST PUSH2 0xAC3 DUP5 PUSH2 0xA8D JUMP JUMPDEST SWAP3 POP PUSH2 0xAD1 PUSH1 0x20 DUP6 ADD PUSH2 0xA8D JUMP JUMPDEST SWAP2 POP PUSH2 0xADF PUSH1 0x40 DUP6 ADD PUSH2 0xA8D JUMP JUMPDEST SWAP1 POP SWAP3 POP SWAP3 POP SWAP3 JUMP JUMPDEST PUSH0 PUSH1 0x20 DUP3 DUP5 SUB SLT ISZERO PUSH2 0xAF8 JUMPI PUSH0 PUSH0 REVERT JUMPDEST PUSH2 0xB01 DUP3 PUSH2 0xA8D JUMP JUMPDEST SWAP4 SWAP3 POP POP POP JUMP JUMPDEST PUSH0 PUSH1 0x20 DUP3 DUP5 SUB SLT ISZERO PUSH2 0xB18 JUMPI PUSH0 PUSH0 REVERT JUMPDEST DUP2 MLOAD DUP1 ISZERO ISZERO DUP2 EQ PUSH2 0xB01 JUMPI PUSH0 PUSH0 REVERT JUMPDEST PUSH4 0x4E487B71 PUSH1 0xE0 SHL PUSH0 MSTORE PUSH1 0x11 PUSH1 0x4 MSTORE PUSH1 0x24 PUSH0 REVERT JUMPDEST DUP1 DUP3 ADD DUP1 DUP3 GT ISZERO PUSH2 0xB4E JUMPI PUSH2 0xB4E PUSH2 0xB27 JUMP JUMPDEST SWAP3 SWAP2 POP POP JUMP JUMPDEST DUP1 DUP3 MUL DUP2 ISZERO DUP3 DUP3 DIV DUP5 EQ OR PUSH2 0xB4E JUMPI PUSH2 0xB4E PUSH2 0xB27 JUMP JUMPDEST PUSH0 DUP3 PUSH2 0xB85 JUMPI PUSH4 0x4E487B71 PUSH1 0xE0 SHL PUSH0 MSTORE PUSH1 0x12 PUSH1 0x4 MSTORE PUSH1 0x24 PUSH0 REVERT JUMPDEST POP DIV SWAP1 JUMP JUMPDEST PUSH1 0x20 DUP1 DUP3 MSTORE PUSH1 0x2B SWAP1 DUP3 ADD MSTORE PUSH32 0x496E697469616C697A61626C653A20636F6E7472616374206973206E6F742069 PUSH1 0x40 DUP3 ADD MSTORE PUSH11 0x6E697469616C697A696E67 PUSH1 0xA8 SHL PUSH1 0x60 DUP3 ADD MSTORE PUSH1 0x80 ADD SWAP1 JUMP INVALID LOG2 PUSH5 0x6970667358 0x22 SLT KECCAK256 COINBASE 0xBD GASPRICE 0xC1 PUSH2 0xCC2D PUSH28 0x8ADDA1B418A21C82ED473FC2C88CC1DAC1E32000F079B6764736F6C PUSH4 0x4300081D STOP CALLER "
		},
		"gasEstimates": {
			"creation": {
				"codeDepositCost": "616600",
				"executionCost": "649",
				"totalCost": "617249"
			},
			"external": {
				"acceptOwnership()": "infinite",
				"addLiquidity(uint256)": "infinite",
				"governanceContract()": "2336",
				"initialize(address,address,address)": "infinite",
				"liquidity()": "2284",
				"owner()": "2408",
				"pendingOwner()": "2396",
				"poolToken()": "2380",
				"renounceOwnership()": "infinite",
				"swap(uint256)": "infinite",
				"token()": "2446",
				"transferOwnership(address)": "30501"
			}
		},
		"methodIdentifiers": {
			"acceptOwnership()": "79ba5097",
			"addLiquidity(uint256)": "51c6590a",
			"governanceContract()": "b172b222",
			"initialize(address,address,address)": "c0c53b8b",
			"liquidity()": "1a686502",
			"owner()": "8da5cb5b",
			"pendingOwner()": "e30c3978",
			"poolToken()": "cbdf382c",
			"renounceOwnership()": "715018a6",
			"swap(uint256)": "94b918de",
			"token()": "fc0c546a",
			"transferOwnership(address)": "f2fde38b"
		}
	},
	"abi": [
		{
			"anonymous": false,
			"inputs": [
				{
					"indexed": false,
					"internalType": "uint8",
					"name": "version",
					"type": "uint8"
				}
			],
			"name": "Initialized",
			"type": "event"
		},
		{
			"anonymous": false,
			"inputs": [
				{
					"indexed": true,
					"internalType": "address",
					"name": "user",
					"type": "address"
				},
				{
					"indexed": false,
					"internalType": "uint256",
					"name": "amount",
					"type": "uint256"
				}
			],
			"name": "LiquidityAdded",
			"type": "event"
		},
		{
			"anonymous": false,
			"inputs": [
				{
					"indexed": true,
					"internalType": "address",
					"name": "previousOwner",
					"type": "address"
				},
				{
					"indexed": true,
					"internalType": "address",
					"name": "newOwner",
					"type": "address"
				}
			],
			"name": "OwnershipTransferStarted",
			"type": "event"
		},
		{
			"anonymous": false,
			"inputs": [
				{
					"indexed": true,
					"internalType": "address",
					"name": "previousOwner",
					"type": "address"
				},
				{
					"indexed": true,
					"internalType": "address",
					"name": "newOwner",
					"type": "address"
				}
			],
			"name": "OwnershipTransferred",
			"type": "event"
		},
		{
			"anonymous": false,
			"inputs": [
				{
					"indexed": true,
					"internalType": "address",
					"name": "user",
					"type": "address"
				},
				{
					"indexed": false,
					"internalType": "uint256",
					"name": "amountIn",
					"type": "uint256"
				},
				{
					"indexed": false,
					"internalType": "uint256",
					"name": "amountOut",
					"type": "uint256"
				}
			],
			"name": "Swapped",
			"type": "event"
		},
		{
			"inputs": [],
			"name": "acceptOwnership",
			"outputs": [],
			"stateMutability": "nonpayable",
			"type": "function"
		},
		{
			"inputs": [
				{
					"internalType": "uint256",
					"name": "amount",
					"type": "uint256"
				}
			],
			"name": "addLiquidity",
			"outputs": [],
			"stateMutability": "nonpayable",
			"type": "function"
		},
		{
			"inputs": [],
			"name": "governanceContract",
			"outputs": [
				{
					"internalType": "address",
					"name": "",
					"type": "address"
				}
			],
			"stateMutability": "view",
			"type": "function"
		},
		{
			"inputs": [
				{
					"internalType": "address",
					"name": "_token",
					"type": "address"
				},
				{
					"internalType": "address",
					"name": "_governance",
					"type": "address"
				},
				{
					"internalType": "address",
					"name": "_poolToken",
					"type": "address"
				}
			],
			"name": "initialize",
			"outputs": [],
			"stateMutability": "nonpayable",
			"type": "function"
		},
		{
			"inputs": [],
			"name": "liquidity",
			"outputs": [
				{
					"internalType": "uint256",
					"name": "",
					"type": "uint256"
				}
			],
			"stateMutability": "view",
			"type": "function"
		},
		{
			"inputs": [],
			"name": "owner",
			"outputs": [
				{
					"internalType": "address",
					"name": "",
					"type": "address"
				}
			],
			"stateMutability": "view",
			"type": "function"
		},
		{
			"inputs": [],
			"name": "pendingOwner",
			"outputs": [
				{
					"internalType": "address",
					"name": "",
					"type": "address"
				}
			],
			"stateMutability": "view",
			"type": "function"
		},
		{
			"inputs": [],
			"name": "poolToken",
			"outputs": [
				{
					"internalType": "address",
					"name": "",
					"type": "address"
				}
			],
			"stateMutability": "view",
			"type": "function"
		},
		{
			"inputs": [],
			"name": "renounceOwnership",
			"outputs": [],
			"stateMutability": "nonpayable",
			"type": "function"
		},
		{
			"inputs": [
				{
					"internalType": "uint256",
					"name": "amountIn",
					"type": "uint256"
				}
			],
			"name": "swap",
			"outputs": [],
			"stateMutability": "nonpayable",
			"type": "function"
		},
		{
			"inputs": [],
			"name": "token",
			"outputs": [
				{
					"internalType": "address",
					"name": "",
					"type": "address"
				}
			],
			"stateMutability": "view",
			"type": "function"
		},
		{
			"inputs": [
				{
					"internalType": "address",
					"name": "newOwner",
					"type": "address"
				}
			],
			"name": "transferOwnership",
			"outputs": [],
			"stateMutability": "nonpayable",
			"type": "function"
		}
	]
}