{
	"data": {
		"bytecode": {
			"linkReferences": {},
			"object": "6080604052670de0b6b3a7640000600555603260065560196007553480156024575f5ffd5b506110b8806100325f395ff3fe608060405234801561000f575f5ffd5b5060043610610132575f3560e01c80636a1b7ecc116100b4578063c87b56dd11610079578063c87b56dd14610264578063cd53d08e14610277578063d6febde81461029f578063de74e57b146102b2578063f7060048146102da578063fc0c546a146102ed575f5ffd5b80636a1b7ecc1461021a5780636c8b703f1461022357806395d89b4114610236578063a694fc3a1461023e578063bf5a4dd314610251575f5ffd5b806322429085116100fa57806322429085146101c55780634162169f146101d8578063485cc955146101eb57806350fd7367146101fe5780636827e76414610211575f5ffd5b8063025e7c271461013657806306fdde031461017b578063178021e31461019057806318160ddd146101a75780631c351a9d146101b0575b5f5ffd5b61015e610144366004610ca7565b60086020525f90815260409020546001600160a01b031681565b6040516001600160a01b0390911681526020015b60405180910390f35b610183610300565b6040516101729190610cbe565b61019960065481565b604051908152602001610172565b61019960025481565b6101c36101be366004610d22565b61038b565b005b6101c36101d3366004610de6565b610496565b60035461015e906001600160a01b031681565b6101c36101f9366004610e0f565b6104e9565b6101c361020c366004610e37565b6105c2565b61019960075481565b61019960055481565b610183610231366004610ca7565b610729565b610183610741565b6101c361024c366004610ca7565b61074e565b6101c361025f366004610ca7565b6107c0565b610183610272366004610ca7565b610857565b61015e610285366004610ca7565b600c6020525f90815260409020546001600160a01b031681565b6101c36102ad366004610e37565b6108f6565b61015e6102c0366004610ca7565b600a6020525f90815260409020546001600160a01b031681565b6101996102e8366004610e57565b610c7c565b60045461015e906001600160a01b031681565b5f805461030c90610e7f565b80601f016020809104026020016040519081016040528092919081815260200182805461033890610e7f565b80156103835780601f1061035a57610100808354040283529160200191610383565b820191905f5260205f20905b81548152906001019060200180831161036657829003601f168201915b505050505081565b6003546001600160a01b031633146103d55760405162461bcd60e51b81526020600482015260086024820152674f6e6c792044414f60c01b60448201526064015b60405180910390fd5b60028054905f6103e483610ecb565b9091555050600280545f90815260086020908152604080832080546001600160a01b0319166001600160a01b0387161790559254825260099052206104298382610f2e565b50600280545f908152600c60205260409081902080546001600160a01b0319166001600160a01b038516908117909155915490517f3b8a974a6971dbe70c8718ec80406b2790d2aa5477b6a5bed3d94fa19e06d60d9061048a908690610cbe565b60405180910390a35050565b6003546001600160a01b031633146104db5760405162461bcd60e51b81526020600482015260086024820152674f6e6c792044414f60c01b60448201526064016103cc565b600592909255600655600755565b6003546001600160a01b0316156105385760405162461bcd60e51b8152602060048201526013602482015272105b1c9958591e481a5b9a5d1a585b1a5e9959606a1b60448201526064016103cc565b600380546001600160a01b038085166001600160a01b0319928316179092556004805492841692909116919091179055604080518082019091526008815267149211534813919560c21b60208201525f906105939082610f2e565b50604080518082019091526005815264292422a6a760d91b60208201526001906105bd9082610f2e565b505050565b5f828152600860205260409020546001600160a01b031633146106135760405162461bcd60e51b81526020600482015260096024820152682737ba1037bbb732b960b91b60448201526064016103cc565b5f828152600a60205260409081902080546001600160a01b031916339081179091556004805460055493516323b872dd60e01b81526001600160a01b0391909116936323b872dd9361066a93909230929101610fe9565b6020604051808303815f875af1158015610686573d5f5f3e3d5ffd5b505050506040513d601f19601f820116820180604052508101906106aa919061100d565b6106eb5760405162461bcd60e51b8152602060048201526012602482015271131a5cdd1a5b99c81999594819985a5b195960721b60448201526064016103cc565b817f1ea45e30b31292f9d7c5d37d275b2feca555f13f47dce0fdea2f47e8852ecd788260405161071d91815260200190565b60405180910390a25050565b60096020525f90815260409020805461030c90610e7f565b6001805461030c90610e7f565b5f818152600860205260409020546001600160a01b0316331461079f5760405162461bcd60e51b81526020600482015260096024820152682737ba1037bbb732b960b91b60448201526064016103cc565b335f908152600b602090815260408220805460018101825590835291200155565b5f818152600a60205260409020546001600160a01b031633146108125760405162461bcd60e51b815260206004820152600a6024820152692737ba103634b9ba32b960b11b60448201526064016103cc565b5f818152600a602052604080822080546001600160a01b03191690555182917f6318005f6dc5a71d3e4ad5b4d1fe455ef3402d62b64573777af55bb6bfe3daab91a250565b5f81815260096020526040902080546060919061087390610e7f565b80601f016020809104026020016040519081016040528092919081815260200182805461089f90610e7f565b80156108ea5780601f106108c1576101008083540402835291602001916108ea565b820191905f5260205f20905b8154815290600101906020018083116108cd57829003601f168201915b50505050509050919050565b5f828152600a60205260409020546001600160a01b0316806109475760405162461bcd60e51b815260206004820152600a602482015269139bdd081b1a5cdd195960b21b60448201526064016103cc565b5f612710600654846109599190611033565b6109639190611050565b90505f612710600754856109779190611033565b6109819190611050565b90505f8161098f848761106f565b610999919061106f565b600480546040516323b872dd60e01b81529293506001600160a01b0316916323b872dd916109cd9133915f91899101610fe9565b6020604051808303815f875af11580156109e9573d5f5f3e3d5ffd5b505050506040513d601f19601f82011682018060405250810190610a0d919061100d565b610a475760405162461bcd60e51b815260206004820152600b60248201526a109d5c9b8819985a5b195960aa1b60448201526064016103cc565b600480546003546040516323b872dd60e01b81526001600160a01b03928316936323b872dd93610a7e933393911691889101610fe9565b6020604051808303815f875af1158015610a9a573d5f5f3e3d5ffd5b505050506040513d601f19601f82011682018060405250810190610abe919061100d565b610afb5760405162461bcd60e51b815260206004820152600e60248201526d11195d881999594819985a5b195960921b60448201526064016103cc565b600480546040516323b872dd60e01b81526001600160a01b03909116916323b872dd91610b2e9133918991879101610fe9565b6020604051808303815f875af1158015610b4a573d5f5f3e3d5ffd5b505050506040513d601f19601f82011682018060405250810190610b6e919061100d565b610bb25760405162461bcd60e51b815260206004820152601560248201527414d95b1b195c881c185e5b595b9d0819985a5b1959605a1b60448201526064016103cc565b5f8681526008602090815260408083208054336001600160a01b031991821617909155600a835292819020805490931690925590518481527fff5a083d417eed59123be681a4f027417a9b5282a724bdfc9b58163bdc0f1e94910160405180910390a16040518281527fedcf99ddc8bc12478cce9030302d8532329ae2247395ec44d4c2741b467a329e9060200160405180910390a1604051339087907fc54c8cc1c7525b424ec71b685c00d9355581a280488018c22005332ceb2fd406905f90a3505050505050565b600b602052815f5260405f208181548110610c95575f80fd5b905f5260205f20015f91509150505481565b5f60208284031215610cb7575f5ffd5b5035919050565b602081525f82518060208401528060208501604085015e5f604082850101526040601f19601f83011684010191505092915050565b634e487b7160e01b5f52604160045260245ffd5b80356001600160a01b0381168114610d1d575f5ffd5b919050565b5f5f60408385031215610d33575f5ffd5b823567ffffffffffffffff811115610d49575f5ffd5b8301601f81018513610d59575f5ffd5b803567ffffffffffffffff811115610d7357610d73610cf3565b604051601f8201601f19908116603f0116810167ffffffffffffffff81118282101715610da257610da2610cf3565b604052818152828201602001871015610db9575f5ffd5b816020840160208301375f60208383010152809450505050610ddd60208401610d07565b90509250929050565b5f5f5f60608486031215610df8575f5ffd5b505081359360208301359350604090920135919050565b5f5f60408385031215610e20575f5ffd5b610e2983610d07565b9150610ddd60208401610d07565b5f5f60408385031215610e48575f5ffd5b50508035926020909101359150565b5f5f60408385031215610e68575f5ffd5b610e7183610d07565b946020939093013593505050565b600181811c90821680610e9357607f821691505b602082108103610eb157634e487b7160e01b5f52602260045260245ffd5b50919050565b634e487b7160e01b5f52601160045260245ffd5b5f60018201610edc57610edc610eb7565b5060010190565b601f8211156105bd57805f5260205f20601f840160051c81016020851015610f085750805b601f840160051c820191505b81811015610f27575f8155600101610f14565b5050505050565b815167ffffffffffffffff811115610f4857610f48610cf3565b610f5c81610f568454610e7f565b84610ee3565b6020601f821160018114610f8e575f8315610f775750848201515b5f19600385901b1c1916600184901b178455610f27565b5f84815260208120601f198516915b82811015610fbd5787850151825560209485019460019092019101610f9d565b5084821015610fda57868401515f19600387901b60f8161c191681555b50505050600190811b01905550565b6001600160a01b039384168152919092166020820152604081019190915260600190565b5f6020828403121561101d575f5ffd5b8151801515811461102c575f5ffd5b9392505050565b808202811582820484141761104a5761104a610eb7565b92915050565b5f8261106a57634e487b7160e01b5f52601260045260245ffd5b500490565b8181038181111561104a5761104a610eb756fea264697066735822122008c7a3914bc11a61d86e3c81313f80bb9d5030c7fb84e46b1afa6038976a781e64736f6c634300081d0033",
			"opcodes": "PUSH1 0x80 PUSH1 0x40 MSTORE PUSH8 0xDE0B6B3A7640000 PUSH1 0x5 SSTORE PUSH1 0x32 PUSH1 0x6 SSTORE PUSH1 0x19 PUSH1 0x7 SSTORE CALLVALUE DUP1 ISZERO PUSH1 0x24 JUMPI PUSH0 PUSH0 REVERT JUMPDEST POP PUSH2 0x10B8 DUP1 PUSH2 0x32 PUSH0 CODECOPY PUSH0 RETURN INVALID PUSH1 0x80 PUSH1 0x40 MSTORE CALLVALUE DUP1 ISZERO PUSH2 0xF JUMPI PUSH0 PUSH0 REVERT JUMPDEST POP PUSH1 0x4 CALLDATASIZE LT PUSH2 0x132 JUMPI PUSH0 CALLDATALOAD PUSH1 0xE0 SHR DUP1 PUSH4 0x6A1B7ECC GT PUSH2 0xB4 JUMPI DUP1 PUSH4 0xC87B56DD GT PUSH2 0x79 JUMPI DUP1 PUSH4 0xC87B56DD EQ PUSH2 0x264 JUMPI DUP1 PUSH4 0xCD53D08E EQ PUSH2 0x277 JUMPI DUP1 PUSH4 0xD6FEBDE8 EQ PUSH2 0x29F JUMPI DUP1 PUSH4 0xDE74E57B EQ PUSH2 0x2B2 JUMPI DUP1 PUSH4 0xF7060048 EQ PUSH2 0x2DA JUMPI DUP1 PUSH4 0xFC0C546A EQ PUSH2 0x2ED JUMPI PUSH0 PUSH0 REVERT JUMPDEST DUP1 PUSH4 0x6A1B7ECC EQ PUSH2 0x21A JUMPI DUP1 PUSH4 0x6C8B703F EQ PUSH2 0x223 JUMPI DUP1 PUSH4 0x95D89B41 EQ PUSH2 0x236 JUMPI DUP1 PUSH4 0xA694FC3A EQ PUSH2 0x23E JUMPI DUP1 PUSH4 0xBF5A4DD3 EQ PUSH2 0x251 JUMPI PUSH0 PUSH0 REVERT JUMPDEST DUP1 PUSH4 0x22429085 GT PUSH2 0xFA JUMPI DUP1 PUSH4 0x22429085 EQ PUSH2 0x1C5 JUMPI DUP1 PUSH4 0x4162169F EQ PUSH2 0x1D8 JUMPI DUP1 PUSH4 0x485CC955 EQ PUSH2 0x1EB JUMPI DUP1 PUSH4 0x50FD7367 EQ PUSH2 0x1FE JUMPI DUP1 PUSH4 0x6827E764 EQ PUSH2 0x211 JUMPI PUSH0 PUSH0 REVERT JUMPDEST DUP1 PUSH4 0x25E7C27 EQ PUSH2 0x136 JUMPI DUP1 PUSH4 0x6FDDE03 EQ PUSH2 0x17B JUMPI DUP1 PUSH4 0x178021E3 EQ PUSH2 0x190 JUMPI DUP1 PUSH4 0x18160DDD EQ PUSH2 0x1A7 JUMPI DUP1 PUSH4 0x1C351A9D EQ PUSH2 0x1B0 JUMPI JUMPDEST PUSH0 PUSH0 REVERT JUMPDEST PUSH2 0x15E PUSH2 0x144 CALLDATASIZE PUSH1 0x4 PUSH2 0xCA7 JUMP JUMPDEST PUSH1 0x8 PUSH1 0x20 MSTORE PUSH0 SWAP1 DUP2 MSTORE PUSH1 0x40 SWAP1 KECCAK256 SLOAD PUSH1 0x1 PUSH1 0x1 PUSH1 0xA0 SHL SUB AND DUP2 JUMP JUMPDEST PUSH1 0x40 MLOAD PUSH1 0x1 PUSH1 0x1 PUSH1 0xA0 SHL SUB SWAP1 SWAP2 AND DUP2 MSTORE PUSH1 0x20 ADD JUMPDEST PUSH1 0x40 MLOAD DUP1 SWAP2 SUB SWAP1 RETURN JUMPDEST PUSH2 0x183 PUSH2 0x300 JUMP JUMPDEST PUSH1 0x40 MLOAD PUSH2 0x172 SWAP2 SWAP1 PUSH2 0xCBE JUMP JUMPDEST PUSH2 0x199 PUSH1 0x6 SLOAD DUP2 JUMP JUMPDEST PUSH1 0x40 MLOAD SWAP1 DUP2 MSTORE PUSH1 0x20 ADD PUSH2 0x172 JUMP JUMPDEST PUSH2 0x199 PUSH1 0x2 SLOAD DUP2 JUMP JUMPDEST PUSH2 0x1C3 PUSH2 0x1BE CALLDATASIZE PUSH1 0x4 PUSH2 0xD22 JUMP JUMPDEST PUSH2 0x38B JUMP JUMPDEST STOP JUMPDEST PUSH2 0x1C3 PUSH2 0x1D3 CALLDATASIZE PUSH1 0x4 PUSH2 0xDE6 JUMP JUMPDEST PUSH2 0x496 JUMP JUMPDEST PUSH1 0x3 SLOAD PUSH2 0x15E SWAP1 PUSH1 0x1 PUSH1 0x1 PUSH1 0xA0 SHL SUB AND DUP2 JUMP JUMPDEST PUSH2 0x1C3 PUSH2 0x1F9 CALLDATASIZE PUSH1 0x4 PUSH2 0xE0F JUMP JUMPDEST PUSH2 0x4E9 JUMP JUMPDEST PUSH2 0x1C3 PUSH2 0x20C CALLDATASIZE PUSH1 0x4 PUSH2 0xE37 JUMP JUMPDEST PUSH2 0x5C2 JUMP JUMPDEST PUSH2 0x199 PUSH1 0x7 SLOAD DUP2 JUMP JUMPDEST PUSH2 0x199 PUSH1 0x5 SLOAD DUP2 JUMP JUMPDEST PUSH2 0x183 PUSH2 0x231 CALLDATASIZE PUSH1 0x4 PUSH2 0xCA7 JUMP JUMPDEST PUSH2 0x729 JUMP JUMPDEST PUSH2 0x183 PUSH2 0x741 JUMP JUMPDEST PUSH2 0x1C3 PUSH2 0x24C CALLDATASIZE PUSH1 0x4 PUSH2 0xCA7 JUMP JUMPDEST PUSH2 0x74E JUMP JUMPDEST PUSH2 0x1C3 PUSH2 0x25F CALLDATASIZE PUSH1 0x4 PUSH2 0xCA7 JUMP JUMPDEST PUSH2 0x7C0 JUMP JUMPDEST PUSH2 0x183 PUSH2 0x272 CALLDATASIZE PUSH1 0x4 PUSH2 0xCA7 JUMP JUMPDEST PUSH2 0x857 JUMP JUMPDEST PUSH2 0x15E PUSH2 0x285 CALLDATASIZE PUSH1 0x4 PUSH2 0xCA7 JUMP JUMPDEST PUSH1 0xC PUSH1 0x20 MSTORE PUSH0 SWAP1 DUP2 MSTORE PUSH1 0x40 SWAP1 KECCAK256 SLOAD PUSH1 0x1 PUSH1 0x1 PUSH1 0xA0 SHL SUB AND DUP2 JUMP JUMPDEST PUSH2 0x1C3 PUSH2 0x2AD CALLDATASIZE PUSH1 0x4 PUSH2 0xE37 JUMP JUMPDEST PUSH2 0x8F6 JUMP JUMPDEST PUSH2 0x15E PUSH2 0x2C0 CALLDATASIZE PUSH1 0x4 PUSH2 0xCA7 JUMP JUMPDEST PUSH1 0xA PUSH1 0x20 MSTORE PUSH0 SWAP1 DUP2 MSTORE PUSH1 0x40 SWAP1 KECCAK256 SLOAD PUSH1 0x1 PUSH1 0x1 PUSH1 0xA0 SHL SUB AND DUP2 JUMP JUMPDEST PUSH2 0x199 PUSH2 0x2E8 CALLDATASIZE PUSH1 0x4 PUSH2 0xE57 JUMP JUMPDEST PUSH2 0xC7C JUMP JUMPDEST PUSH1 0x4 SLOAD PUSH2 0x15E SWAP1 PUSH1 0x1 PUSH1 0x1 PUSH1 0xA0 SHL SUB AND DUP2 JUMP JUMPDEST PUSH0 DUP1 SLOAD PUSH2 0x30C SWAP1 PUSH2 0xE7F JUMP JUMPDEST DUP1 PUSH1 0x1F ADD PUSH1 0x20 DUP1 SWAP2 DIV MUL PUSH1 0x20 ADD PUSH1 0x40 MLOAD SWAP1 DUP2 ADD PUSH1 0x40 MSTORE DUP1 SWAP3 SWAP2 SWAP1 DUP2 DUP2 MSTORE PUSH1 0x20 ADD DUP3 DUP1 SLOAD PUSH2 0x338 SWAP1 PUSH2 0xE7F JUMP JUMPDEST DUP1 ISZERO PUSH2 0x383 JUMPI DUP1 PUSH1 0x1F LT PUSH2 0x35A JUMPI PUSH2 0x100 DUP1 DUP4 SLOAD DIV MUL DUP4 MSTORE SWAP2 PUSH1 0x20 ADD SWAP2 PUSH2 0x383 JUMP JUMPDEST DUP3 ADD SWAP2 SWAP1 PUSH0 MSTORE PUSH1 0x20 PUSH0 KECCAK256 SWAP1 JUMPDEST DUP2 SLOAD DUP2 MSTORE SWAP1 PUSH1 0x1 ADD SWAP1 PUSH1 0x20 ADD DUP1 DUP4 GT PUSH2 0x366 JUMPI DUP3 SWAP1 SUB PUSH1 0x1F AND DUP3 ADD SWAP2 JUMPDEST POP POP POP POP POP DUP2 JUMP JUMPDEST PUSH1 0x3 SLOAD PUSH1 0x1 PUSH1 0x1 PUSH1 0xA0 SHL SUB AND CALLER EQ PUSH2 0x3D5 JUMPI PUSH1 0x40 MLOAD PUSH3 0x461BCD PUSH1 0xE5 SHL DUP2 MSTORE PUSH1 0x20 PUSH1 0x4 DUP3 ADD MSTORE PUSH1 0x8 PUSH1 0x24 DUP3 ADD MSTORE PUSH8 0x4F6E6C792044414F PUSH1 0xC0 SHL PUSH1 0x44 DUP3 ADD MSTORE PUSH1 0x64 ADD JUMPDEST PUSH1 0x40 MLOAD DUP1 SWAP2 SUB SWAP1 REVERT JUMPDEST PUSH1 0x2 DUP1 SLOAD SWAP1 PUSH0 PUSH2 0x3E4 DUP4 PUSH2 0xECB JUMP JUMPDEST SWAP1 SWAP2 SSTORE POP POP PUSH1 0x2 DUP1 SLOAD PUSH0 SWAP1 DUP2 MSTORE PUSH1 0x8 PUSH1 0x20 SWAP1 DUP2 MSTORE PUSH1 0x40 DUP1 DUP4 KECCAK256 DUP1 SLOAD PUSH1 0x1 PUSH1 0x1 PUSH1 0xA0 SHL SUB NOT AND PUSH1 0x1 PUSH1 0x1 PUSH1 0xA0 SHL SUB DUP8 AND OR SWAP1 SSTORE SWAP3 SLOAD DUP3 MSTORE PUSH1 0x9 SWAP1 MSTORE KECCAK256 PUSH2 0x429 DUP4 DUP3 PUSH2 0xF2E JUMP JUMPDEST POP PUSH1 0x2 DUP1 SLOAD PUSH0 SWAP1 DUP2 MSTORE PUSH1 0xC PUSH1 0x20 MSTORE PUSH1 0x40 SWAP1 DUP2 SWAP1 KECCAK256 DUP1 SLOAD PUSH1 0x1 PUSH1 0x1 PUSH1 0xA0 SHL SUB NOT AND PUSH1 0x1 PUSH1 0x1 PUSH1 0xA0 SHL SUB DUP6 AND SWAP1 DUP2 OR SWAP1 SWAP2 SSTORE SWAP2 SLOAD SWAP1 MLOAD PUSH32 0x3B8A974A6971DBE70C8718EC80406B2790D2AA5477B6A5BED3D94FA19E06D60D SWAP1 PUSH2 0x48A SWAP1 DUP7 SWAP1 PUSH2 0xCBE JUMP JUMPDEST PUSH1 0x40 MLOAD DUP1 SWAP2 SUB SWAP1 LOG3 POP POP JUMP JUMPDEST PUSH1 0x3 SLOAD PUSH1 0x1 PUSH1 0x1 PUSH1 0xA0 SHL SUB AND CALLER EQ PUSH2 0x4DB JUMPI PUSH1 0x40 MLOAD PUSH3 0x461BCD PUSH1 0xE5 SHL DUP2 MSTORE PUSH1 0x20 PUSH1 0x4 DUP3 ADD MSTORE PUSH1 0x8 PUSH1 0x24 DUP3 ADD MSTORE PUSH8 0x4F6E6C792044414F PUSH1 0xC0 SHL PUSH1 0x44 DUP3 ADD MSTORE PUSH1 0x64 ADD PUSH2 0x3CC JUMP JUMPDEST PUSH1 0x5 SWAP3 SWAP1 SWAP3 SSTORE PUSH1 0x6 SSTORE PUSH1 0x7 SSTORE JUMP JUMPDEST PUSH1 0x3 SLOAD PUSH1 0x1 PUSH1 0x1 PUSH1 0xA0 SHL SUB AND ISZERO PUSH2 0x538 JUMPI PUSH1 0x40 MLOAD PUSH3 0x461BCD PUSH1 0xE5 SHL DUP2 MSTORE PUSH1 0x20 PUSH1 0x4 DUP3 ADD MSTORE PUSH1 0x13 PUSH1 0x24 DUP3 ADD MSTORE PUSH19 0x105B1C9958591E481A5B9A5D1A585B1A5E9959 PUSH1 0x6A SHL PUSH1 0x44 DUP3 ADD MSTORE PUSH1 0x64 ADD PUSH2 0x3CC JUMP JUMPDEST PUSH1 0x3 DUP1 SLOAD PUSH1 0x1 PUSH1 0x1 PUSH1 0xA0 SHL SUB DUP1 DUP6 AND PUSH1 0x1 PUSH1 0x1 PUSH1 0xA0 SHL SUB NOT SWAP3 DUP4 AND OR SWAP1 SWAP3 SSTORE PUSH1 0x4 DUP1 SLOAD SWAP3 DUP5 AND SWAP3 SWAP1 SWAP2 AND SWAP2 SWAP1 SWAP2 OR SWAP1 SSTORE PUSH1 0x40 DUP1 MLOAD DUP1 DUP3 ADD SWAP1 SWAP2 MSTORE PUSH1 0x8 DUP2 MSTORE PUSH8 0x1492115348139195 PUSH1 0xC2 SHL PUSH1 0x20 DUP3 ADD MSTORE PUSH0 SWAP1 PUSH2 0x593 SWAP1 DUP3 PUSH2 0xF2E JUMP JUMPDEST POP PUSH1 0x40 DUP1 MLOAD DUP1 DUP3 ADD SWAP1 SWAP2 MSTORE PUSH1 0x5 DUP2 MSTORE PUSH5 0x292422A6A7 PUSH1 0xD9 SHL PUSH1 0x20 DUP3 ADD MSTORE PUSH1 0x1 SWAP1 PUSH2 0x5BD SWAP1 DUP3 PUSH2 0xF2E JUMP JUMPDEST POP POP POP JUMP JUMPDEST PUSH0 DUP3 DUP2 MSTORE PUSH1 0x8 PUSH1 0x20 MSTORE PUSH1 0x40 SWAP1 KECCAK256 SLOAD PUSH1 0x1 PUSH1 0x1 PUSH1 0xA0 SHL SUB AND CALLER EQ PUSH2 0x613 JUMPI PUSH1 0x40 MLOAD PUSH3 0x461BCD PUSH1 0xE5 SHL DUP2 MSTORE PUSH1 0x20 PUSH1 0x4 DUP3 ADD MSTORE PUSH1 0x9 PUSH1 0x24 DUP3 ADD MSTORE PUSH9 0x2737BA1037BBB732B9 PUSH1 0xB9 SHL PUSH1 0x44 DUP3 ADD MSTORE PUSH1 0x64 ADD PUSH2 0x3CC JUMP JUMPDEST PUSH0 DUP3 DUP2 MSTORE PUSH1 0xA PUSH1 0x20 MSTORE PUSH1 0x40 SWAP1 DUP2 SWAP1 KECCAK256 DUP1 SLOAD PUSH1 0x1 PUSH1 0x1 PUSH1 0xA0 SHL SUB NOT AND CALLER SWAP1 DUP2 OR SWAP1 SWAP2 SSTORE PUSH1 0x4 DUP1 SLOAD PUSH1 0x5 SLOAD SWAP4 MLOAD PUSH4 0x23B872DD PUSH1 0xE0 SHL DUP2 MSTORE PUSH1 0x1 PUSH1 0x1 PUSH1 0xA0 SHL SUB SWAP2 SWAP1 SWAP2 AND SWAP4 PUSH4 0x23B872DD SWAP4 PUSH2 0x66A SWAP4 SWAP1 SWAP3 ADDRESS SWAP3 SWAP2 ADD PUSH2 0xFE9 JUMP JUMPDEST PUSH1 0x20 PUSH1 0x40 MLOAD DUP1 DUP4 SUB DUP2 PUSH0 DUP8 GAS CALL ISZERO DUP1 ISZERO PUSH2 0x686 JUMPI RETURNDATASIZE PUSH0 PUSH0 RETURNDATACOPY RETURNDATASIZE PUSH0 REVERT JUMPDEST POP POP POP POP PUSH1 0x40 MLOAD RETURNDATASIZE PUSH1 0x1F NOT PUSH1 0x1F DUP3 ADD AND DUP3 ADD DUP1 PUSH1 0x40 MSTORE POP DUP2 ADD SWAP1 PUSH2 0x6AA SWAP2 SWAP1 PUSH2 0x100D JUMP JUMPDEST PUSH2 0x6EB JUMPI PUSH1 0x40 MLOAD PUSH3 0x461BCD PUSH1 0xE5 SHL DUP2 MSTORE PUSH1 0x20 PUSH1 0x4 DUP3 ADD MSTORE PUSH1 0x12 PUSH1 0x24 DUP3 ADD MSTORE PUSH18 0x131A5CDD1A5B99C81999594819985A5B1959 PUSH1 0x72 SHL PUSH1 0x44 DUP3 ADD MSTORE PUSH1 0x64 ADD PUSH2 0x3CC JUMP JUMPDEST DUP2 PUSH32 0x1EA45E30B31292F9D7C5D37D275B2FECA555F13F47DCE0FDEA2F47E8852ECD78 DUP3 PUSH1 0x40 MLOAD PUSH2 0x71D SWAP2 DUP2 MSTORE PUSH1 0x20 ADD SWAP1 JUMP JUMPDEST PUSH1 0x40 MLOAD DUP1 SWAP2 SUB SWAP1 LOG2 POP POP JUMP JUMPDEST PUSH1 0x9 PUSH1 0x20 MSTORE PUSH0 SWAP1 DUP2 MSTORE PUSH1 0x40 SWAP1 KECCAK256 DUP1 SLOAD PUSH2 0x30C SWAP1 PUSH2 0xE7F JUMP JUMPDEST PUSH1 0x1 DUP1 SLOAD PUSH2 0x30C SWAP1 PUSH2 0xE7F JUMP JUMPDEST PUSH0 DUP2 DUP2 MSTORE PUSH1 0x8 PUSH1 0x20 MSTORE PUSH1 0x40 SWAP1 KECCAK256 SLOAD PUSH1 0x1 PUSH1 0x1 PUSH1 0xA0 SHL SUB AND CALLER EQ PUSH2 0x79F JUMPI PUSH1 0x40 MLOAD PUSH3 0x461BCD PUSH1 0xE5 SHL DUP2 MSTORE PUSH1 0x20 PUSH1 0x4 DUP3 ADD MSTORE PUSH1 0x9 PUSH1 0x24 DUP3 ADD MSTORE PUSH9 0x2737BA1037BBB732B9 PUSH1 0xB9 SHL PUSH1 0x44 DUP3 ADD MSTORE PUSH1 0x64 ADD PUSH2 0x3CC JUMP JUMPDEST CALLER PUSH0 SWAP1 DUP2 MSTORE PUSH1 0xB PUSH1 0x20 SWAP1 DUP2 MSTORE PUSH1 0x40 DUP3 KECCAK256 DUP1 SLOAD PUSH1 0x1 DUP2 ADD DUP3 SSTORE SWAP1 DUP4 MSTORE SWAP2 KECCAK256 ADD SSTORE JUMP JUMPDEST PUSH0 DUP2 DUP2 MSTORE PUSH1 0xA PUSH1 0x20 MSTORE PUSH1 0x40 SWAP1 KECCAK256 SLOAD PUSH1 0x1 PUSH1 0x1 PUSH1 0xA0 SHL SUB AND CALLER EQ PUSH2 0x812 JUMPI PUSH1 0x40 MLOAD PUSH3 0x461BCD PUSH1 0xE5 SHL DUP2 MSTORE PUSH1 0x20 PUSH1 0x4 DUP3 ADD MSTORE PUSH1 0xA PUSH1 0x24 DUP3 ADD MSTORE PUSH10 0x2737BA103634B9BA32B9 PUSH1 0xB1 SHL PUSH1 0x44 DUP3 ADD MSTORE PUSH1 0x64 ADD PUSH2 0x3CC JUMP JUMPDEST PUSH0 DUP2 DUP2 MSTORE PUSH1 0xA PUSH1 0x20 MSTORE PUSH1 0x40 DUP1 DUP3 KECCAK256 DUP1 SLOAD PUSH1 0x1 PUSH1 0x1 PUSH1 0xA0 SHL SUB NOT AND SWAP1 SSTORE MLOAD DUP3 SWAP2 PUSH32 0x6318005F6DC5A71D3E4AD5B4D1FE455EF3402D62B64573777AF55BB6BFE3DAAB SWAP2 LOG2 POP JUMP JUMPDEST PUSH0 DUP2 DUP2 MSTORE PUSH1 0x9 PUSH1 0x20 MSTORE PUSH1 0x40 SWAP1 KECCAK256 DUP1 SLOAD PUSH1 0x60 SWAP2 SWAP1 PUSH2 0x873 SWAP1 PUSH2 0xE7F JUMP JUMPDEST DUP1 PUSH1 0x1F ADD PUSH1 0x20 DUP1 SWAP2 DIV MUL PUSH1 0x20 ADD PUSH1 0x40 MLOAD SWAP1 DUP2 ADD PUSH1 0x40 MSTORE DUP1 SWAP3 SWAP2 SWAP1 DUP2 DUP2 MSTORE PUSH1 0x20 ADD DUP3 DUP1 SLOAD PUSH2 0x89F SWAP1 PUSH2 0xE7F JUMP JUMPDEST DUP1 ISZERO PUSH2 0x8EA JUMPI DUP1 PUSH1 0x1F LT PUSH2 0x8C1 JUMPI PUSH2 0x100 DUP1 DUP4 SLOAD DIV MUL DUP4 MSTORE SWAP2 PUSH1 0x20 ADD SWAP2 PUSH2 0x8EA JUMP JUMPDEST DUP3 ADD SWAP2 SWAP1 PUSH0 MSTORE PUSH1 0x20 PUSH0 KECCAK256 SWAP1 JUMPDEST DUP2 SLOAD DUP2 MSTORE SWAP1 PUSH1 0x1 ADD SWAP1 PUSH1 0x20 ADD DUP1 DUP4 GT PUSH2 0x8CD JUMPI DUP3 SWAP1 SUB PUSH1 0x1F AND DUP3 ADD SWAP2 JUMPDEST POP POP POP POP POP SWAP1 POP SWAP2 SWAP1 POP JUMP JUMPDEST PUSH0 DUP3 DUP2 MSTORE PUSH1 0xA PUSH1 0x20 MSTORE PUSH1 0x40 SWAP1 KECCAK256 SLOAD PUSH1 0x1 PUSH1 0x1 PUSH1 0xA0 SHL SUB AND DUP1 PUSH2 0x947 JUMPI PUSH1 0x40 MLOAD PUSH3 0x461BCD PUSH1 0xE5 SHL DUP2 MSTORE PUSH1 0x20 PUSH1 0x4 DUP3 ADD MSTORE PUSH1 0xA PUSH1 0x24 DUP3 ADD MSTORE PUSH10 0x139BDD081B1A5CDD1959 PUSH1 0xB2 SHL PUSH1 0x44 DUP3 ADD MSTORE PUSH1 0x64 ADD PUSH2 0x3CC JUMP JUMPDEST PUSH0 PUSH2 0x2710 PUSH1 0x6 SLOAD DUP5 PUSH2 0x959 SWAP2 SWAP1 PUSH2 0x1033 JUMP JUMPDEST PUSH2 0x963 SWAP2 SWAP1 PUSH2 0x1050 JUMP JUMPDEST SWAP1 POP PUSH0 PUSH2 0x2710 PUSH1 0x7 SLOAD DUP6 PUSH2 0x977 SWAP2 SWAP1 PUSH2 0x1033 JUMP JUMPDEST PUSH2 0x981 SWAP2 SWAP1 PUSH2 0x1050 JUMP JUMPDEST SWAP1 POP PUSH0 DUP2 PUSH2 0x98F DUP5 DUP8 PUSH2 0x106F JUMP JUMPDEST PUSH2 0x999 SWAP2 SWAP1 PUSH2 0x106F JUMP JUMPDEST PUSH1 0x4 DUP1 SLOAD PUSH1 0x40 MLOAD PUSH4 0x23B872DD PUSH1 0xE0 SHL DUP2 MSTORE SWAP3 SWAP4 POP PUSH1 0x1 PUSH1 0x1 PUSH1 0xA0 SHL SUB AND SWAP2 PUSH4 0x23B872DD SWAP2 PUSH2 0x9CD SWAP2 CALLER SWAP2 PUSH0 SWAP2 DUP10 SWAP2 ADD PUSH2 0xFE9 JUMP JUMPDEST PUSH1 0x20 PUSH1 0x40 MLOAD DUP1 DUP4 SUB DUP2 PUSH0 DUP8 GAS CALL ISZERO DUP1 ISZERO PUSH2 0x9E9 JUMPI RETURNDATASIZE PUSH0 PUSH0 RETURNDATACOPY RETURNDATASIZE PUSH0 REVERT JUMPDEST POP POP POP POP PUSH1 0x40 MLOAD RETURNDATASIZE PUSH1 0x1F NOT PUSH1 0x1F DUP3 ADD AND DUP3 ADD DUP1 PUSH1 0x40 MSTORE POP DUP2 ADD SWAP1 PUSH2 0xA0D SWAP2 SWAP1 PUSH2 0x100D JUMP JUMPDEST PUSH2 0xA47 JUMPI PUSH1 0x40 MLOAD PUSH3 0x461BCD PUSH1 0xE5 SHL DUP2 MSTORE PUSH1 0x20 PUSH1 0x4 DUP3 ADD MSTORE PUSH1 0xB PUSH1 0x24 DUP3 ADD MSTORE PUSH11 0x109D5C9B8819985A5B1959 PUSH1 0xAA SHL PUSH1 0x44 DUP3 ADD MSTORE PUSH1 0x64 ADD PUSH2 0x3CC JUMP JUMPDEST PUSH1 0x4 DUP1 SLOAD PUSH1 0x3 SLOAD PUSH1 0x40 MLOAD PUSH4 0x23B872DD PUSH1 0xE0 SHL DUP2 MSTORE PUSH1 0x1 PUSH1 0x1 PUSH1 0xA0 SHL SUB SWAP3 DUP4 AND SWAP4 PUSH4 0x23B872DD SWAP4 PUSH2 0xA7E SWAP4 CALLER SWAP4 SWAP2 AND SWAP2 DUP9 SWAP2 ADD PUSH2 0xFE9 JUMP JUMPDEST PUSH1 0x20 PUSH1 0x40 MLOAD DUP1 DUP4 SUB DUP2 PUSH0 DUP8 GAS CALL ISZERO DUP1 ISZERO PUSH2 0xA9A JUMPI RETURNDATASIZE PUSH0 PUSH0 RETURNDATACOPY RETURNDATASIZE PUSH0 REVERT JUMPDEST POP POP POP POP PUSH1 0x40 MLOAD RETURNDATASIZE PUSH1 0x1F NOT PUSH1 0x1F DUP3 ADD AND DUP3 ADD DUP1 PUSH1 0x40 MSTORE POP DUP2 ADD SWAP1 PUSH2 0xABE SWAP2 SWAP1 PUSH2 0x100D JUMP JUMPDEST PUSH2 0xAFB JUMPI PUSH1 0x40 MLOAD PUSH3 0x461BCD PUSH1 0xE5 SHL DUP2 MSTORE PUSH1 0x20 PUSH1 0x4 DUP3 ADD MSTORE PUSH1 0xE PUSH1 0x24 DUP3 ADD MSTORE PUSH14 0x11195D881999594819985A5B1959 PUSH1 0x92 SHL PUSH1 0x44 DUP3 ADD MSTORE PUSH1 0x64 ADD PUSH2 0x3CC JUMP JUMPDEST PUSH1 0x4 DUP1 SLOAD PUSH1 0x40 MLOAD PUSH4 0x23B872DD PUSH1 0xE0 SHL DUP2 MSTORE PUSH1 0x1 PUSH1 0x1 PUSH1 0xA0 SHL SUB SWAP1 SWAP2 AND SWAP2 PUSH4 0x23B872DD SWAP2 PUSH2 0xB2E SWAP2 CALLER SWAP2 DUP10 SWAP2 DUP8 SWAP2 ADD PUSH2 0xFE9 JUMP JUMPDEST PUSH1 0x20 PUSH1 0x40 MLOAD DUP1 DUP4 SUB DUP2 PUSH0 DUP8 GAS CALL ISZERO DUP1 ISZERO PUSH2 0xB4A JUMPI RETURNDATASIZE PUSH0 PUSH0 RETURNDATACOPY RETURNDATASIZE PUSH0 REVERT JUMPDEST POP POP POP POP PUSH1 0x40 MLOAD RETURNDATASIZE PUSH1 0x1F NOT PUSH1 0x1F DUP3 ADD AND DUP3 ADD DUP1 PUSH1 0x40 MSTORE POP DUP2 ADD SWAP1 PUSH2 0xB6E SWAP2 SWAP1 PUSH2 0x100D JUMP JUMPDEST PUSH2 0xBB2 JUMPI PUSH1 0x40 MLOAD PUSH3 0x461BCD PUSH1 0xE5 SHL DUP2 MSTORE PUSH1 0x20 PUSH1 0x4 DUP3 ADD MSTORE PUSH1 0x15 PUSH1 0x24 DUP3 ADD MSTORE PUSH21 0x14D95B1B195C881C185E5B595B9D0819985A5B1959 PUSH1 0x5A SHL PUSH1 0x44 DUP3 ADD MSTORE PUSH1 0x64 ADD PUSH2 0x3CC JUMP JUMPDEST PUSH0 DUP7 DUP2 MSTORE PUSH1 0x8 PUSH1 0x20 SWAP1 DUP2 MSTORE PUSH1 0x40 DUP1 DUP4 KECCAK256 DUP1 SLOAD CALLER PUSH1 0x1 PUSH1 0x1 PUSH1 0xA0 SHL SUB NOT SWAP2 DUP3 AND OR SWAP1 SWAP2 SSTORE PUSH1 0xA DUP4 MSTORE SWAP3 DUP2 SWAP1 KECCAK256 DUP1 SLOAD SWAP1 SWAP4 AND SWAP1 SWAP3 SSTORE SWAP1 MLOAD DUP5 DUP2 MSTORE PUSH32 0xFF5A083D417EED59123BE681A4F027417A9B5282A724BDFC9B58163BDC0F1E94 SWAP2 ADD PUSH1 0x40 MLOAD DUP1 SWAP2 SUB SWAP1 LOG1 PUSH1 0x40 MLOAD DUP3 DUP2 MSTORE PUSH32 0xEDCF99DDC8BC12478CCE9030302D8532329AE2247395EC44D4C2741B467A329E SWAP1 PUSH1 0x20 ADD PUSH1 0x40 MLOAD DUP1 SWAP2 SUB SWAP1 LOG1 PUSH1 0x40 MLOAD CALLER SWAP1 DUP8 SWAP1 PUSH32 0xC54C8CC1C7525B424EC71B685C00D9355581A280488018C22005332CEB2FD406 SWAP1 PUSH0 SWAP1 LOG3 POP POP POP POP POP POP JUMP JUMPDEST PUSH1 0xB PUSH1 0x20 MSTORE DUP2 PUSH0 MSTORE PUSH1 0x40 PUSH0 KECCAK256 DUP2 DUP2 SLOAD DUP2 LT PUSH2 0xC95 JUMPI PUSH0 DUP1 REVERT JUMPDEST SWAP1 PUSH0 MSTORE PUSH1 0x20 PUSH0 KECCAK256 ADD PUSH0 SWAP2 POP SWAP2 POP POP SLOAD DUP2 JUMP JUMPDEST PUSH0 PUSH1 0x20 DUP3 DUP5 SUB SLT ISZERO PUSH2 0xCB7 JUMPI PUSH0 PUSH0 REVERT JUMPDEST POP CALLDATALOAD SWAP2 SWAP1 POP JUMP JUMPDEST PUSH1 0x20 DUP2 MSTORE PUSH0 DUP3 MLOAD DUP1 PUSH1 0x20 DUP5 ADD MSTORE DUP1 PUSH1 0x20 DUP6 ADD PUSH1 0x40 DUP6 ADD MCOPY PUSH0 PUSH1 0x40 DUP3 DUP6 ADD ADD MSTORE PUSH1 0x40 PUSH1 0x1F NOT PUSH1 0x1F DUP4 ADD AND DUP5 ADD ADD SWAP2 POP POP SWAP3 SWAP2 POP POP JUMP JUMPDEST PUSH4 0x4E487B71 PUSH1 0xE0 SHL PUSH0 MSTORE PUSH1 0x41 PUSH1 0x4 MSTORE PUSH1 0x24 PUSH0 REVERT JUMPDEST DUP1 CALLDATALOAD PUSH1 0x1 PUSH1 0x1 PUSH1 0xA0 SHL SUB DUP2 AND DUP2 EQ PUSH2 0xD1D JUMPI PUSH0 PUSH0 REVERT JUMPDEST SWAP2 SWAP1 POP JUMP JUMPDEST PUSH0 PUSH0 PUSH1 0x40 DUP4 DUP6 SUB SLT ISZERO PUSH2 0xD33 JUMPI PUSH0 PUSH0 REVERT JUMPDEST DUP3 CALLDATALOAD PUSH8 0xFFFFFFFFFFFFFFFF DUP2 GT ISZERO PUSH2 0xD49 JUMPI PUSH0 PUSH0 REVERT JUMPDEST DUP4 ADD PUSH1 0x1F DUP2 ADD DUP6 SGT PUSH2 0xD59 JUMPI PUSH0 PUSH0 REVERT JUMPDEST DUP1 CALLDATALOAD PUSH8 0xFFFFFFFFFFFFFFFF DUP2 GT ISZERO PUSH2 0xD73 JUMPI PUSH2 0xD73 PUSH2 0xCF3 JUMP JUMPDEST PUSH1 0x40 MLOAD PUSH1 0x1F DUP3 ADD PUSH1 0x1F NOT SWAP1 DUP2 AND PUSH1 0x3F ADD AND DUP2 ADD PUSH8 0xFFFFFFFFFFFFFFFF DUP2 GT DUP3 DUP3 LT OR ISZERO PUSH2 0xDA2 JUMPI PUSH2 0xDA2 PUSH2 0xCF3 JUMP JUMPDEST PUSH1 0x40 MSTORE DUP2 DUP2 MSTORE DUP3 DUP3 ADD PUSH1 0x20 ADD DUP8 LT ISZERO PUSH2 0xDB9 JUMPI PUSH0 PUSH0 REVERT JUMPDEST DUP2 PUSH1 0x20 DUP5 ADD PUSH1 0x20 DUP4 ADD CALLDATACOPY PUSH0 PUSH1 0x20 DUP4 DUP4 ADD ADD MSTORE DUP1 SWAP5 POP POP POP POP PUSH2 0xDDD PUSH1 0x20 DUP5 ADD PUSH2 0xD07 JUMP JUMPDEST SWAP1 POP SWAP3 POP SWAP3 SWAP1 POP JUMP JUMPDEST PUSH0 PUSH0 PUSH0 PUSH1 0x60 DUP5 DUP7 SUB SLT ISZERO PUSH2 0xDF8 JUMPI PUSH0 PUSH0 REVERT JUMPDEST POP POP DUP2 CALLDATALOAD SWAP4 PUSH1 0x20 DUP4 ADD CALLDATALOAD SWAP4 POP PUSH1 0x40 SWAP1 SWAP3 ADD CALLDATALOAD SWAP2 SWAP1 POP JUMP JUMPDEST PUSH0 PUSH0 PUSH1 0x40 DUP4 DUP6 SUB SLT ISZERO PUSH2 0xE20 JUMPI PUSH0 PUSH0 REVERT JUMPDEST PUSH2 0xE29 DUP4 PUSH2 0xD07 JUMP JUMPDEST SWAP2 POP PUSH2 0xDDD PUSH1 0x20 DUP5 ADD PUSH2 0xD07 JUMP JUMPDEST PUSH0 PUSH0 PUSH1 0x40 DUP4 DUP6 SUB SLT ISZERO PUSH2 0xE48 JUMPI PUSH0 PUSH0 REVERT JUMPDEST POP POP DUP1 CALLDATALOAD SWAP3 PUSH1 0x20 SWAP1 SWAP2 ADD CALLDATALOAD SWAP2 POP JUMP JUMPDEST PUSH0 PUSH0 PUSH1 0x40 DUP4 DUP6 SUB SLT ISZERO PUSH2 0xE68 JUMPI PUSH0 PUSH0 REVERT JUMPDEST PUSH2 0xE71 DUP4 PUSH2 0xD07 JUMP JUMPDEST SWAP5 PUSH1 0x20 SWAP4 SWAP1 SWAP4 ADD CALLDATALOAD SWAP4 POP POP POP JUMP JUMPDEST PUSH1 0x1 DUP2 DUP2 SHR SWAP1 DUP3 AND DUP1 PUSH2 0xE93 JUMPI PUSH1 0x7F DUP3 AND SWAP2 POP JUMPDEST PUSH1 0x20 DUP3 LT DUP2 SUB PUSH2 0xEB1 JUMPI PUSH4 0x4E487B71 PUSH1 0xE0 SHL PUSH0 MSTORE PUSH1 0x22 PUSH1 0x4 MSTORE PUSH1 0x24 PUSH0 REVERT JUMPDEST POP SWAP2 SWAP1 POP JUMP JUMPDEST PUSH4 0x4E487B71 PUSH1 0xE0 SHL PUSH0 MSTORE PUSH1 0x11 PUSH1 0x4 MSTORE PUSH1 0x24 PUSH0 REVERT JUMPDEST PUSH0 PUSH1 0x1 DUP3 ADD PUSH2 0xEDC JUMPI PUSH2 0xEDC PUSH2 0xEB7 JUMP JUMPDEST POP PUSH1 0x1 ADD SWAP1 JUMP JUMPDEST PUSH1 0x1F DUP3 GT ISZERO PUSH2 0x5BD JUMPI DUP1 PUSH0 MSTORE PUSH1 0x20 PUSH0 KECCAK256 PUSH1 0x1F DUP5 ADD PUSH1 0x5 SHR DUP2 ADD PUSH1 0x20 DUP6 LT ISZERO PUSH2 0xF08 JUMPI POP DUP1 JUMPDEST PUSH1 0x1F DUP5 ADD PUSH1 0x5 SHR DUP3 ADD SWAP2 POP JUMPDEST DUP2 DUP2 LT ISZERO PUSH2 0xF27 JUMPI PUSH0 DUP2 SSTORE PUSH1 0x1 ADD PUSH2 0xF14 JUMP JUMPDEST POP POP POP POP POP JUMP JUMPDEST DUP2 MLOAD PUSH8 0xFFFFFFFFFFFFFFFF DUP2 GT ISZERO PUSH2 0xF48 JUMPI PUSH2 0xF48 PUSH2 0xCF3 JUMP JUMPDEST PUSH2 0xF5C DUP2 PUSH2 0xF56 DUP5 SLOAD PUSH2 0xE7F JUMP JUMPDEST DUP5 PUSH2 0xEE3 JUMP JUMPDEST PUSH1 0x20 PUSH1 0x1F DUP3 GT PUSH1 0x1 DUP2 EQ PUSH2 0xF8E JUMPI PUSH0 DUP4 ISZERO PUSH2 0xF77 JUMPI POP DUP5 DUP3 ADD MLOAD JUMPDEST PUSH0 NOT PUSH1 0x3 DUP6 SWAP1 SHL SHR NOT AND PUSH1 0x1 DUP5 SWAP1 SHL OR DUP5 SSTORE PUSH2 0xF27 JUMP JUMPDEST PUSH0 DUP5 DUP2 MSTORE PUSH1 0x20 DUP2 KECCAK256 PUSH1 0x1F NOT DUP6 AND SWAP2 JUMPDEST DUP3 DUP2 LT ISZERO PUSH2 0xFBD JUMPI DUP8 DUP6 ADD MLOAD DUP3 SSTORE PUSH1 0x20 SWAP5 DUP6 ADD SWAP5 PUSH1 0x1 SWAP1 SWAP3 ADD SWAP2 ADD PUSH2 0xF9D JUMP JUMPDEST POP DUP5 DUP3 LT ISZERO PUSH2 0xFDA JUMPI DUP7 DUP5 ADD MLOAD PUSH0 NOT PUSH1 0x3 DUP8 SWAP1 SHL PUSH1 0xF8 AND SHR NOT AND DUP2 SSTORE JUMPDEST POP POP POP POP PUSH1 0x1 SWAP1 DUP2 SHL ADD SWAP1 SSTORE POP JUMP JUMPDEST PUSH1 0x1 PUSH1 0x1 PUSH1 0xA0 SHL SUB SWAP4 DUP5 AND DUP2 MSTORE SWAP2 SWAP1 SWAP3 AND PUSH1 0x20 DUP3 ADD MSTORE PUSH1 0x40 DUP2 ADD SWAP2 SWAP1 SWAP2 MSTORE PUSH1 0x60 ADD SWAP1 JUMP JUMPDEST PUSH0 PUSH1 0x20 DUP3 DUP5 SUB SLT ISZERO PUSH2 0x101D JUMPI PUSH0 PUSH0 REVERT JUMPDEST DUP2 MLOAD DUP1 ISZERO ISZERO DUP2 EQ PUSH2 0x102C JUMPI PUSH0 PUSH0 REVERT JUMPDEST SWAP4 SWAP3 POP POP POP JUMP JUMPDEST DUP1 DUP3 MUL DUP2 ISZERO DUP3 DUP3 DIV DUP5 EQ OR PUSH2 0x104A JUMPI PUSH2 0x104A PUSH2 0xEB7 JUMP JUMPDEST SWAP3 SWAP2 POP POP JUMP JUMPDEST PUSH0 DUP3 PUSH2 0x106A JUMPI PUSH4 0x4E487B71 PUSH1 0xE0 SHL PUSH0 MSTORE PUSH1 0x12 PUSH1 0x4 MSTORE PUSH1 0x24 PUSH0 REVERT JUMPDEST POP DIV SWAP1 JUMP JUMPDEST DUP2 DUP2 SUB DUP2 DUP2 GT ISZERO PUSH2 0x104A JUMPI PUSH2 0x104A PUSH2 0xEB7 JUMP INVALID LOG2 PUSH5 0x6970667358 0x22 SLT KECCAK256 ADDMOD 0xC7 LOG3 SWAP2 0x4B 0xC1 BYTE PUSH2 0xD86E EXTCODECOPY DUP2 BALANCE EXTCODEHASH DUP1 0xBB SWAP14 POP ADDRESS 0xC7 EXTSTATICCALL DUP5 RETF PUSH12 0x1AFA6038976A781E64736F6C PUSH4 0x4300081D STOP CALLER "
		},
		"gasEstimates": {
			"creation": {
				"codeDepositCost": "856000",
				"executionCost": "67206",
				"totalCost": "923206"
			},
			"external": {
				"buy(uint256,uint256)": "infinite",
				"creators(uint256)": "2507",
				"dao()": "2370",
				"devFee()": "2405",
				"initialize(address,address)": "infinite",
				"list(uint256,uint256)": "infinite",
				"listingFee()": "2317",
				"listings(uint256)": "2551",
				"mint(string,address)": "infinite",
				"name()": "infinite",
				"owners(uint256)": "2487",
				"saleFee()": "2362",
				"stake(uint256)": "48955",
				"stakedNFTs(address,uint256)": "4846",
				"symbol()": "infinite",
				"token()": "2457",
				"tokenURI(uint256)": "infinite",
				"tokenURIs(uint256)": "infinite",
				"totalSupply()": "2384",
				"unlist(uint256)": "27975",
				"updateFees(uint256,uint256,uint256)": "68744"
			}
		},
		"methodIdentifiers": {
			"buy(uint256,uint256)": "d6febde8",
			"creators(uint256)": "cd53d08e",
			"dao()": "4162169f",
			"devFee()": "6827e764",
			"initialize(address,address)": "485cc955",
			"list(uint256,uint256)": "50fd7367",
			"listingFee()": "6a1b7ecc",
			"listings(uint256)": "de74e57b",
			"mint(string,address)": "1c351a9d",
			"name()": "06fdde03",
			"owners(uint256)": "025e7c27",
			"saleFee()": "178021e3",
			"stake(uint256)": "a694fc3a",
			"stakedNFTs(address,uint256)": "f7060048",
			"symbol()": "95d89b41",
			"token()": "fc0c546a",
			"tokenURI(uint256)": "c87b56dd",
			"tokenURIs(uint256)": "6c8b703f",
			"totalSupply()": "18160ddd",
			"unlist(uint256)": "bf5a4dd3",
			"updateFees(uint256,uint256,uint256)": "22429085"
		}
	},
	"abi": [
		{
			"anonymous": false,
			"inputs": [
				{
					"indexed": true,
					"internalType": "uint256",
					"name": "id",
					"type": "uint256"
				},
				{
					"indexed": true,
					"internalType": "address",
					"name": "buyer",
					"type": "address"
				}
			],
			"name": "Bought",
			"type": "event"
		},
		{
			"anonymous": false,
			"inputs": [
				{
					"indexed": false,
					"internalType": "uint256",
					"name": "amount",
					"type": "uint256"
				}
			],
			"name": "FeesBurned",
			"type": "event"
		},
		{
			"anonymous": false,
			"inputs": [
				{
					"indexed": false,
					"internalType": "uint256",
					"name": "amount",
					"type": "uint256"
				}
			],
			"name": "FeesToDev",
			"type": "event"
		},
		{
			"anonymous": false,
			"inputs": [
				{
					"indexed": true,
					"internalType": "uint256",
					"name": "id",
					"type": "uint256"
				},
				{
					"indexed": false,
					"internalType": "uint256",
					"name": "price",
					"type": "uint256"
				}
			],
			"name": "Listed",
			"type": "event"
		},
		{
			"anonymous": false,
			"inputs": [
				{
					"indexed": true,
					"internalType": "uint256",
					"name": "id",
					"type": "uint256"
				},
				{
					"indexed": true,
					"internalType": "address",
					"name": "to",
					"type": "address"
				},
				{
					"indexed": false,
					"internalType": "string",
					"name": "uri",
					"type": "string"
				}
			],
			"name": "Minted",
			"type": "event"
		},
		{
			"anonymous": false,
			"inputs": [
				{
					"indexed": true,
					"internalType": "uint256",
					"name": "id",
					"type": "uint256"
				}
			],
			"name": "Unlisted",
			"type": "event"
		},
		{
			"inputs": [
				{
					"internalType": "uint256",
					"name": "tokenId",
					"type": "uint256"
				},
				{
					"internalType": "uint256",
					"name": "price",
					"type": "uint256"
				}
			],
			"name": "buy",
			"outputs": [],
			"stateMutability": "nonpayable",
			"type": "function"
		},
		{
			"inputs": [
				{
					"internalType": "uint256",
					"name": "",
					"type": "uint256"
				}
			],
			"name": "creators",
			"outputs": [
				{
					"internalType": "address",
					"name": "",
					"type": "address"
				}
			],
			"stateMutability": "view",
			"type": "function"
		},
		{
			"inputs": [],
			"name": "dao",
			"outputs": [
				{
					"internalType": "address",
					"name": "",
					"type": "address"
				}
			],
			"stateMutability": "view",
			"type": "function"
		},
		{
			"inputs": [],
			"name": "devFee",
			"outputs": [
				{
					"internalType": "uint256",
					"name": "",
					"type": "uint256"
				}
			],
			"stateMutability": "view",
			"type": "function"
		},
		{
			"inputs": [
				{
					"internalType": "address",
					"name": "_dao",
					"type": "address"
				},
				{
					"internalType": "address",
					"name": "_token",
					"type": "address"
				}
			],
			"name": "initialize",
			"outputs": [],
			"stateMutability": "nonpayable",
			"type": "function"
		},
		{
			"inputs": [
				{
					"internalType": "uint256",
					"name": "tokenId",
					"type": "uint256"
				},
				{
					"internalType": "uint256",
					"name": "price",
					"type": "uint256"
				}
			],
			"name": "list",
			"outputs": [],
			"stateMutability": "nonpayable",
			"type": "function"
		},
		{
			"inputs": [],
			"name": "listingFee",
			"outputs": [
				{
					"internalType": "uint256",
					"name": "",
					"type": "uint256"
				}
			],
			"stateMutability": "view",
			"type": "function"
		},
		{
			"inputs": [
				{
					"internalType": "uint256",
					"name": "",
					"type": "uint256"
				}
			],
			"name": "listings",
			"outputs": [
				{
					"internalType": "address",
					"name": "",
					"type": "address"
				}
			],
			"stateMutability": "view",
			"type": "function"
		},
		{
			"inputs": [
				{
					"internalType": "string",
					"name": "uri",
					"type": "string"
				},
				{
					"internalType": "address",
					"name": "to",
					"type": "address"
				}
			],
			"name": "mint",
			"outputs": [],
			"stateMutability": "nonpayable",
			"type": "function"
		},
		{
			"inputs": [],
			"name": "name",
			"outputs": [
				{
					"internalType": "string",
					"name": "",
					"type": "string"
				}
			],
			"stateMutability": "view",
			"type": "function"
		},
		{
			"inputs": [
				{
					"internalType": "uint256",
					"name": "",
					"type": "uint256"
				}
			],
			"name": "owners",
			"outputs": [
				{
					"internalType": "address",
					"name": "",
					"type": "address"
				}
			],
			"stateMutability": "view",
			"type": "function"
		},
		{
			"inputs": [],
			"name": "saleFee",
			"outputs": [
				{
					"internalType": "uint256",
					"name": "",
					"type": "uint256"
				}
			],
			"stateMutability": "view",
			"type": "function"
		},
		{
			"inputs": [
				{
					"internalType": "uint256",
					"name": "tokenId",
					"type": "uint256"
				}
			],
			"name": "stake",
			"outputs": [],
			"stateMutability": "nonpayable",
			"type": "function"
		},
		{
			"inputs": [
				{
					"internalType": "address",
					"name": "",
					"type": "address"
				},
				{
					"internalType": "uint256",
					"name": "",
					"type": "uint256"
				}
			],
			"name": "stakedNFTs",
			"outputs": [
				{
					"internalType": "uint256",
					"name": "",
					"type": "uint256"
				}
			],
			"stateMutability": "view",
			"type": "function"
		},
		{
			"inputs": [],
			"name": "symbol",
			"outputs": [
				{
					"internalType": "string",
					"name": "",
					"type": "string"
				}
			],
			"stateMutability": "view",
			"type": "function"
		},
		{
			"inputs": [],
			"name": "token",
			"outputs": [
				{
					"internalType": "address",
					"name": "",
					"type": "address"
				}
			],
			"stateMutability": "view",
			"type": "function"
		},
		{
			"inputs": [
				{
					"internalType": "uint256",
					"name": "tokenId",
					"type": "uint256"
				}
			],
			"name": "tokenURI",
			"outputs": [
				{
					"internalType": "string",
					"name": "",
					"type": "string"
				}
			],
			"stateMutability": "view",
			"type": "function"
		},
		{
			"inputs": [
				{
					"internalType": "uint256",
					"name": "",
					"type": "uint256"
				}
			],
			"name": "tokenURIs",
			"outputs": [
				{
					"internalType": "string",
					"name": "",
					"type": "string"
				}
			],
			"stateMutability": "view",
			"type": "function"
		},
		{
			"inputs": [],
			"name": "totalSupply",
			"outputs": [
				{
					"internalType": "uint256",
					"name": "",
					"type": "uint256"
				}
			],
			"stateMutability": "view",
			"type": "function"
		},
		{
			"inputs": [
				{
					"internalType": "uint256",
					"name": "tokenId",
					"type": "uint256"
				}
			],
			"name": "unlist",
			"outputs": [],
			"stateMutability": "nonpayable",
			"type": "function"
		},
		{
			"inputs": [
				{
					"internalType": "uint256",
					"name": "_listingFee",
					"type": "uint256"
				},
				{
					"internalType": "uint256",
					"name": "_saleFee",
					"type": "uint256"
				},
				{
					"internalType": "uint256",
					"name": "_devFee",
					"type": "uint256"
				}
			],
			"name": "updateFees",
			"outputs": [],
			"stateMutability": "nonpayable",
			"type": "function"
		}
	]
}